:100000000C9434010C945C010C945C010C94C105BB
:100010000C94C1050C94C1050C945C010C945C011A
:100020000C945C010C945C010C945C010C945C01DC
:100030000C945C010C945C010C945C010C945C01CC
:100040000C9439040C945C010C9466030C944003EA
:100050000C945C010C945C010C945C010C945C01AC
:100060000C9487040C945C0107634236B79BD8A7B5
:100070001A39685618AEBAAB558C1D3CB7CC5763CD
:10008000BD6DEDFD753EF6177231BF000000803F7B
:1000900008000000BE922449123EABAAAA2ABECD97
:1000A000CCCC4C3E00000080BEABAAAAAA3E000009
:1000B0000000BF000000803F000000000008417801
:1000C000D3BB4387D1133D190E3CC3BD4282AD2B38
:1000D0003E68EC8276BED98FE1A93E4C80EFFFBE30
:1000E00001C4FF7F3F000000000000000000250069
:1000F00028002B0000000000240027002A00B04642
:100100000054656D706572617475726500696E4842
:10011000470050726573737572650066742F7300C3
:10012000566172696F00667400416C74697475641D
:100130006500B0430054656D7065726174757265D9
:1001400000687061005072657373757265006D2F81
:100150007300566172696F006D00416C746974754B
:1001600064650052435420566172696F002020205C
:10017000566172696F6D6574657200205243542038
:100180004A65746920546F6F6C73005072657373A5
:100190003A205550202620444E0053617665206158
:1001A0006E642072657374617274004368616E6777
:1001B000653A20444E00455500555300556E69740C
:1001C000733A20200068506100696E484700507201
:1001D00065733A2000B04300B0460054656D703A34
:1001E00020006D2F730066742F7300566172696F63
:1001F0003A20006D00667400416C7469743A200006
:10020000202020566172696F6D65746572002052FE
:100210004354204A65746920546F6F6C730000006A
:10022000000023002600290004040404040404043C
:100230000202020202020303030303030102040891
:100240001020408001020408102001020408102040
:100250000000000800020100000304070000000085
:10026000000000000D1A031A11241FBECFEFD8E0C2
:10027000DEBFCDBF25E0AAE3B1E001C01D92A538E5
:10028000B207E1F711E0A0E0B1E0E2EAF2E402C077
:1002900005900D92AA33B107D9F711E0C3E3D1E07D
:1002A00004C02197FE010E942E21C233D107C9F755
:1002B0000E945F120C9444210C940000CF92DF92B4
:1002C000EF92FF920F931F93CF93DF936C017A010C
:1002D0008B01C0E0D0E0CE15DF0589F0D8016D912B
:1002E0008D01D601ED91FC910190F081E02DC601C8
:1002F0000995892B11F47E0102C02196ECCFC7012C
:10030000DF91CF911F910F91FF90EF90DF90CF90F1
:10031000089585ED8093BC008091BC0084FDFCCFE6
:100320001092A303089540912B03262F30E0240F51
:10033000311D21323105DCF42091A3032430C9F4AE
:10034000FC0180E090E0861758F430912B03219156
:10035000DC01A75FBC4FA30FB11D2C930196F3CF17
:1003600080912B03680F60932B0380E0089581E058
:10037000089582E008950895E091A5038091A40373
:10038000E81730F4F0E0EA55FC4F808190E00895E2
:100390008FEF9FEF08959091A5038091A403981784
:1003A00050F4E92FF0E0EA55FC4F208130E09F5FE8
:1003B0009093A50302C02FEF3FEFC90108958091EC
:1003C000A40390E02091A503821B91090895CF9288
:1003D000DF92EF92FF920F931F93CF93DF937C01F5
:1003E000262F972F8A0180915903882391F0C62FD9
:1003F000D72F6E01C40ED51ECC15DD0571F06991A5
:10040000D701ED91FC910190F081E02DC701099594
:10041000F3CF642F822F0E949301C801DF91CF9107
:100420001F910F91FF90EF90DF90CF900895CF93A1
:10043000DF931F92CDB7DEB7698320915903222342
:10044000D1F020917C03203240F021E030E0FC012B
:100450003383228380E090E015C080915A03E82F17
:10046000F0E0E55AFC4F998190838F5F80935A03A7
:1004700080937C0305C061E0CE0101960E94930148
:1004800081E090E00F90DF91CF9108950895DC0115
:100490005196ED91FC915297908150968C91809558
:1004A000892380830895209183053091840528173E
:1004B000390771F49091810580918205981741F078
:1004C000E0918105F0E0E750FD4F808190E00895D4
:1004D0008FEF9FEF08950895209183053091840553
:1004E0002817390769F4809182052091810590E0F1
:1004F0004096821B910960E170E00E94911F08956F
:1005000080E090E0089520918305309184052817BC
:100510003907B9F49091810580918205981789F087
:10052000E0918105F0E0E750FD4F80812091810549
:1005300030E02F5F3F4F2F7033272093810590E0ED
:1005400008958FEF9FEF0895089580E090E008955B
:100550000E94342186EC93E00E94100D21E0892B4B
:1005600009F420E0822F0895CF92DF92EF92FF925C
:100570000F931F93CF93DF93EC0189A19AA100976A
:1005800029F421E030E03B832A8371C00FB7F8944F
:100590008F8D98A1892B91F028E030E090E081E0E8
:1005A000482F462309F09F5F880F21503109C1F77A
:1005B000888D81119F5F192F109501C010E0F62ED4
:1005C000CE010E94470289A19AA10197F1F788E024
:1005D000C82ED12CEE24E3948E2D8F2139F0E98999
:1005E000FA8990818889892B808303C0CE010E947B
:1005F000470289A19AA10197F1F7EE0C81E0C81A90
:10060000D10851F78E89882389F0888D882339F0A5
:10061000E989FA8990818889892B808303C0CE017A
:100620000E94470289A19AA10197F1F78F8D98A1A5
:10063000892B81F010FF07C0E989FA8990818889A8
:10064000892B808303C0CE010E9447028F8D98A121
:100650000197F1F7E989FA8990818889892B80834C
:100660000FBF8D8D9E8D0197F1F781E090E0DF91B6
:10067000CF911F910F91FF90EF90DF90CF90089551
:100680001F920F920FB60F9211242F933F934F9307
:100690005F936F937F938F939F93AF93BF93EF93EA
:1006A000FF9386EC93E00E94D511FF91EF91BF91EB
:1006B000AF919F918F917F916F915F914F913F91FA
:1006C0002F910F900FBE0F901F9018951F920F92B1
:1006D0000FB60F9211242F938F939F93EF93FF9355
:1006E000E091D603F091D7038081E091DC03F09193
:1006F000DD0382FD12C090818091DF038F5F8F73D5
:100700002091E003821751F0E091DF03F0E0EA531B
:10071000FC4F958F8093DF0301C08081FF91EF91A3
:100720009F918F912F910F900FBE0F901F90189552
:10073000833081F028F4813099F08230A1F008955F
:100740008730A9F08830B9F08430D1F480918000EE
:100750008F7D03C0809180008F7780938000089503
:1007600084B58F7702C084B58F7D84BD0895809154
:10077000B0008F7703C08091B0008F7D8093B00070
:1007800008951F93CF93DF93282F30E0F901E05BAA
:10079000FD4F8491F901E45CFD4FD491F901E85DCE
:1007A000FD4FC491CC23C9F0162F81110E949803EC
:1007B000EC2FF0E0EE0FFF1FE651FF4FA591B49133
:1007C0008FB7F894111105C09C91ED2FE095E923A6
:1007D00002C0EC91ED2BEC938FBFDF91CF911F9175
:1007E0000895CF93DF9390E0FC01E45CFD4F2491EA
:1007F000FC01E85DFD4F8491882361F190E0880F52
:10080000991FFC01EC50FF4FC591D491FC01E651BA
:10081000FF4FA591B491611109C09FB7F8948881E9
:10082000209582238883EC912E230BC0623061F4E3
:100830009FB7F8943881822F809583238883EC9129
:100840002E2B2C939FBF06C08FB7F894E8812E2BD8
:1008500028838FBFDF91CF9108952FB7F8946091CF
:1008600055037091560380915703909158032FBF01
:1008700008951F920F920FB60F9211242F933F935A
:100880008F939F93AF93BF9380915503909156039D
:10089000A0915703B09158033091540326E0230FE1
:1008A0002D3720F40296A11DB11D05C029E8230FA4
:1008B0000396A11DB11D209354038093550390937B
:1008C0005603A0935703B09358038091500390911F
:1008D0005103A0915203B09153030196A11DB11D84
:1008E0008093500390935103A0935203B09353030A
:1008F000BF91AF919F918F913F912F910F900FBE1C
:100900000F901F90189508958CBD9DBD08951F925E
:100910000F920FB60F9211242F933F934F935F9333
:100920006F937F938F939F93AF93BF93EF93FF93B7
:100930008091B900887F803609F49CC068F58832C0
:1009400009F45BC090F4803109F454C038F4882372
:1009500009F4F6C0883009F44DC0F6C0883109F4B6
:100960004CC0803209F45DC0EFC0803409F468C027
:1009700048F4803309F455C0883309F0E5C080930A
:10098000A103D8C0803509F44FC0883509F45DC093
:10099000883409F0D9C0D6C0883909F4C7C0A8F492
:1009A000883709F467C038F4883609F463C08037A3
:1009B00009F460C0C9C0883809F4B8C0803909F4A6
:1009C0005FC0803809F0C0C05BC0803B09F486C0BE
:1009D00038F4803A09F466C0883A09F47FC0B4C09C
:1009E000803C09F4A7C0883C09F4A4C0883B09F402
:1009F0008AC0AAC080919E0310C09091A0038091EC
:100A00009F03981770F5E091A00381E08E0F80930B
:100A1000A003F0E0E358FC4F80818093BB0085EC9D
:100A200086C08093A1038EC0E091A00381E08E0F69
:100A30008093A0038091BB00F0E0E358FC4F8083DB
:100A40009091A00380919F036EC0E091A00381E08C
:100A50008E0F8093A0038091BB00F0E0E358FC4F21
:100A600080838091A20381116DC081E080939D03FA
:100A700084EA61C083E08093A30310924F03CFCF39
:100A800080914F03803208F051C0E0914F0381E024
:100A90008E0F80934F038091BB00F0E0E15DFC4F2F
:100AA0008083BDCF85EC8093BC001092A30380911E
:100AB0004F03803230F4E0914F03F0E0E15DFC4FF2
:100AC000108260914F0370E0E0912D03F0912E03AE
:100AD0008FE293E0099510924F0336C084E0809333
:100AE000A30310922C0310922B03E0912903F091A1
:100AF0002A03099580912B03811105C081E0809321
:100B00002B0310920903E0912C0381E08E0F809358
:100B10002C03F0E0E75FFC4F80818093BB00909155
:100B20002C0380912B03981708F479CF85E88093E4
:100B3000BC000AC085EC8093BC001092A30304C0E3
:100B40001092A1030E948901FF91EF91BF91AF9193
:100B50009F918F917F916F915F914F913F912F91D5
:100B60000F900FBE0F901F901895862798E027E0F2
:100B700087FF03C0880F822701C0880F9150C1F7FB
:100B800008951F920F920FB60F9211242F933F9347
:100B90004F935F936F937F938F939F93AF93BF9385
:100BA000CF93DF93EF93FF93E0918305F09184055A
:100BB000309709F467C0C685D7858881258582234B
:100BC00009F060C0818D928D0197F1F7438D548DAE
:100BD00068E070E030E081E0DA011197F1F7988188
:100BE000922311F0382B03C0982F90953923880F4A
:100BF0006150710989F78091820590E001968F70AC
:100C0000992760918105681749F0A0918205B0E0AD
:100C1000A750BD4F3C938093820503C087898160B4
:100C2000878B86898823F1F0CA010197F1F78881C3
:100C3000282381E090E0A0E0B0E004C0880F991F75
:100C4000AA1FBB1F2A95D2F74091F7025091F802D4
:100C500060E070E0842B952BA62BB72B9093F802C5
:100C60008093F702878D90A1009711F00197F1F71B
:100C7000858D968D0197F1F7A389B4899C9185891B
:100C8000892B8C93FF91EF91DF91CF91BF91AF9121
:100C90009F918F917F916F915F914F913F912F9194
:100CA0000F900FBE0F901F901895E0918305F09163
:100CB0008405E817F90769F4A389B4899C918589AB
:100CC000809589238C93109284051092830581E08E
:100CD000089580E008950F931F93CF93C82F0FE6D8
:100CE00014E0F801608F682FC8010E94B402F80177
:100CF000108E8C2FCF911F910F9108952F923F92BC
:100D00004F925F926F927F928F929F92AF92BF921B
:100D1000CF92DF92EF92FF920F931F93CF93DF93C7
:100D2000CDB7DEB72A970FB6F894DEBF0FBECDBFA2
:100D30008C012A013B013A87298720E030E0A90194
:100D4000C301B2010E94E11A87FF05C060E070E0B4
:100D500080E09FEB04C060E070E080E09FE3E12C66
:100D6000F12CA985BA85EA16FB0654F420E030E0A0
:100D700040E251E40E940B1D2FEFE21AF20AF1CF7C
:100D80009B01AC01C301B2010E949F1C6B017C015D
:100D900020E030E0A901C301B2010E94E11A87FFFF
:100DA00004C0F7FAF094F7F8F094A12CB12CBDEC44
:100DB000B983ECECEA83FCECFB832DE32C8320E08D
:100DC00030E040E251E469817A818B819C810E940C
:100DD000471B962E872E382E292EA70196010E949A
:100DE000E11A181644F03FEFA31AB30A99828A82D7
:100DF0003B822C82E4CFA114B10429F045016FEFAE
:100E0000861A960A03C092E0892E912C20E030E0E9
:100E1000A901C301B2010E94E11A87FF03C07FEF5D
:100E2000871A970A89859A850196880E991E181443
:100E3000190444F081E090E0DC01A819B909BE83EF
:100E4000AD8302C01E821D8220E030E0A901C301F3
:100E5000B2010E94E11A87FF07C08DE2F80180838A
:100E600088248394912C02C0812C912CA114B1046C
:100E700049F4F801E80DF91D80E3808394012F5FA8
:100E80003F4F4901212C312CB101680D791D788724
:100E90006F832A143B04D1F129813A814B815C8113
:100EA000C701B6010E940B1D0E947D1D2B013C0154
:100EB0006F817885600F711F4AE0C2010E94AC1AF1
:100EC000B201550C880B990B0E94E81A29813A81CE
:100ED0004B815C810E94471B9B01AC01C701B6019D
:100EE0000E949E1C6B017C0120E030E040E251E456
:100EF00069817A818B819C810E940B1D69837A8331
:100F00008B839C833FEF231A330ABECF5B01898515
:100F10009A851816190644F4F801E60FF71F8EE2B9
:100F20008083DB0111965D01812C912CE985FA8586
:100F30008E169F064CF520E030E040E251E4C701F8
:100F4000B6010E94471B2B013C010E947D1D6B01D5
:100F50007C01B4016A0D7B1D600F711F4AE0C60160
:100F60000E94AC1AB601DD0C880B990B0E94E81A9E
:100F70009B01AC01C301B2010E949E1C6B017C016C
:100F8000BFEF8B1A9B0AD2CFCF01F7FF02C080E0E0
:100F900090E0A80EB91E2D813E81232B89F095018A
:100FA000F801EA0DFB1D40E26FEFA61AB60A419365
:100FB000C501821B930BAD81BE818A179B07A4F3E9
:100FC000F801EA0DFB1D1082C8012A960FB6F894AD
:100FD000DEBF0FBECDBFDF91CF911F910F91FF906C
:100FE000EF90DF90CF90BF90AF909F908F907F90C9
:100FF0006F905F904F903F902F9008952F923F9267
:101000004F925F926F927F928F929F92AF92BF9218
:10101000CF92DF92EF92FF920F931F93CF93DF93C4
:10102000C0904C05D0904D05E0904E05F0904F05D6
:101030000E942D04209124052223E9F060E08EE730
:101040000E946B0661E082E90E946B0661E083E228
:101050000E946B0661E0809124050E946B068091DE
:101060000201882311F0815003C01092240586E00C
:101070008093020171C324EFC20E21E0D21EE11C55
:10108000F11C11E0C616D706E806F90608F010E0D4
:1010900060E08EE70E946B0661E08FE90E946B06BC
:1010A000111170C080912505A091A204B091A304F4
:1010B000E82FF0E0EE0FFF1FEC5FFA4F2081318147
:1010C000232B49F48F5F282F30E02A173B0784F346
:1010D0001092250502C08093250560912505F6E054
:1010E000E0E026E030E0E12C40E050E070E0CA01B2
:1010F000860F971F8A179B07A4F5009709F1E394C1
:10110000880F991FFC01EC51FB4F80818F71883053
:10111000A1F0813019F4C901039615C0811103C0F3
:10112000C901029610C0853019F4C90104960BC09C
:10113000893019F0C901019606C0C901059603C09E
:10114000C9012F2F3E2F4F5F5F4F4031510551F0A6
:101150008B31910514F0EA9404C0F22FE32F9C0127
:10116000C6CFC901C82FC06481E0809387046C2F6B
:101170008FE694E00E94B40260E08C2F0E94B505D7
:10118000C82F1DC0E0918005F0E0EE0FFF1FEB516E
:10119000FB4F8081C82FCF71829586958770C80FCD
:1011A000C85F81E0809387046C2F8FE694E00E94F3
:1011B000B40260E08C2F0E94B505C82FE12CD1E06D
:1011C000D093870461E18FE694E00E94B4026C2F13
:1011D00081E10E94B505C82FD093870464EA8FE6A9
:1011E00094E00E94B4026C2F84EA0E94B505C82FD7
:1011F000D093870462E08FE694E00E94B4026C2FE3
:1012000082E00E94B505C82FD093870468E08FE67E
:1012100094E00E94B4026C2F88E00E94B505C82FAC
:10122000D093870460E08FE694E00E94B4021092AD
:1012300087046C2F80E00E94B505F82E1111EBC1D8
:10124000C09125056E2C6C0E8091A2049091A30490
:10125000C61551F0772473947C0E709225050C2FDF
:1012600010E0081719075CF02091250530E0019780
:10127000281739070CF46CC21092250569C2CC23DB
:1012800009F4C7C1E0915005F09151050995C29547
:10129000C07F680131E2C30ED11CC601880F991FBF
:1012A000FC01EE55FB4F5F0180818F7190E085302E
:1012B000910509F4BEC0F4F5009709F495C00197B3
:1012C00009F0A7C1000F111FF801EC5FFA4F019060
:1012D000F081E02D00811181C160D09387046C2FD3
:1012E0008FE694E00E94B4026F2D8C2F0E94B5050A
:1012F000C82F1F79F501208122952695277030E0AF
:10130000322F22273295330F307E022B132BD093AE
:101310008704602F8FE694E00E94B4026C2F802F28
:101320000E94B505082F912F9F79F501C081C07EDD
:10133000C92B74C08830910521F0099709F4C2C007
:1013400068C1C860D09387046C2F8FE694E00E9438
:10135000B4026F2D8C2F0E94B505C82F000F111FEE
:10136000F801EC5FFA4F0190F081E02D80819181CE
:10137000A281B3816C017D01FFE9FF22D093870434
:101380006C2D8FE694E00E94B4026C2F8C2D0E948D
:10139000B505C82F2D2C3E2C4F2C552447FC5A94B4
:1013A000D0938704622D8FE694E00E94B4026C2FE4
:1013B000822D0E94B505C82F1701552437FC509483
:1013C000452CD0938704622D8FE694E00E94B402EE
:1013D0006C2F822D0E94B505182F9F2D9F79F50146
:1013E000C081C07EC92B62C0000F111FF801EC5FE5
:1013F000FA4F0190F081E02D1081D09387046C2F7B
:101400008FE694E00E94B4026F2D8C2F0E94B505E8
:10141000082F1F79F501C081C07EC12BD0938704AE
:101420006C2F8FE694E00E94B40210928704602F24
:1014300047C0C560D09387046C2F8FE694E00E946C
:10144000B402109287046F2D8C2F0E94B505F82EE0
:10145000000F111FF801EC5FFA4F0190F081E02DB1
:10146000118102819081F5012081229526952770B6
:10147000213011F0C0E001C0C0E4C92BD093870433
:10148000602F8FE694E00E94B4026F2D802F0E949F
:10149000B505082FD0938704612F8FE694E00E9452
:1014A000B402602F812F0E94B505182FD0938704B6
:1014B0006C2F8FE694E00E94B40210928704612F93
:1014C0008C2FA4C0C960D09387046C2F8FE694E062
:1014D0000E94B4026F2D8C2F0E94B505C82F000FFB
:1014E000111FF801EC5FFA4F0190F081E02D808030
:1014F0009180A280B38020E030E0A901C501B40151
:101500000E94071E18161CF4C501B40103C0C501D2
:10151000B40190580E94841D8B0180E090E00E94ED
:10152000E61A9B01AC01C501B4010E949E1C2AE988
:1015300039E949E15FE30E94471B20E030E543ECD5
:1015400057E40E94471B1B012C0120E030E0A90159
:101550000E94071E18161CF4C201B10103C0C2018B
:10156000B10190580E94841D562EF72E812F817054
:10157000F601EE0FFF1FEE55FB4F90819295969569
:101580009770913011F090E001C090E2192F182B64
:1015900020E030E0A901C501B4010E94E11A881FD2
:1015A0008827881F8295880F880F807C182BD093FE
:1015B0008704652D8FE694E00E94B4026C2F852D80
:1015C0000E94B505C82FD09387046F2D8FE694E055
:1015D0000E94B4026C2F8F2D0E94B505C82FD093A6
:1015E0008704602F8FE694E00E94B4026C2F802F56
:1015F0000E94B505C82FD0938704612F8FE694E031
:101600000E94B402109287046C2F812F0E94B505AE
:10161000F82EC72D19CEC0918005D09387046C2F6A
:101620008FE694E00E94B4026F2D8C2F0E94B505C6
:10163000B82E0C2F10E06801CC0CDD1C96012B514C
:101640003B4F4901F9012081922F9F71F8E09F9F44
:1016500070011124229526952770E22AD0938704E1
:101660006E2D8FE694E00E94B402109287046B2DD9
:101670008E2D0E94B505F82EF601EC55FB4FD0815A
:10168000AD2EB180772473942A2D2D1B30E0F40108
:1016900080818F7190E028173907A4F4F501E49058
:1016A000709287046E2D8FE694E00E94B40210922F
:1016B00087046F2D8E2D0E94B505F82EFFEFAF1A0F
:1016C000BF0AE2CF000F111FD801AC53BB4FDC9112
:1016D0000D2F11961C9196012B513B4F6901BB2494
:1016E000B394202F2D1B30E0F601808182958695E2
:1016F000877090E0281739079CF4F801E490B092C5
:1017000087046E2D8FE694E00E94B4021092870445
:101710006F2D8E2D0E94B505F82E0F5F1F4FE1CF64
:10172000CF5FC09380058C2F90E02091A204309170
:10173000A3048217930714F0109280050E942D04D1
:1017400060934C0570934D0580934E0590934F0523
:1017500061E08F2D0E946B06E0915005F0915105DC
:10176000099560E08EEF0E946B06CAE2D5E01C2F5F
:10177000105E61E089910E946B061C13FACF60E055
:101780008FEF0E946B0681E0DF91CF911F910F9147
:10179000FF90EF90DF90CF90BF90AF909F908F9091
:1017A0007F906F905F904F903F902F900895CF92D1
:1017B000DF92EF92FF920F931F93CF93DF9390915D
:1017C0005E059F3F39F48EBD00000DB407FEFDCFCE
:1017D0008EB544C0E82EC7E0D0E0D12C01E010E087
:1017E000DD0C60E080915E050E94C103B8010C2E03
:1017F00001C0660F0A94EAF76E2180915C050E9491
:10180000C10361E080915E050E94C10320915D05E6
:1018100030E0F901E05BFD4F8491F901E45CFD4F9C
:10182000C490F901E85DFD4FF490FF2071F0811143
:101830000E949803EF2DF0E0EE0FFF1FE25EFD4FD8
:10184000A591B491EC91EC2129F4219708F0C8CF2F
:101850008D2D04C08D2D8160D82EF7CFDF91CF91D3
:101860001F910F91FF90EF90DF90CF90089590918E
:10187000A3039111FCCF613208F060E291E09093F4
:10188000A3039093A2032FEF2093A1031092A00330
:10189000260F20939F0390939E0390919E03880FA1
:1018A000892B80939E0380919D03813061F4109277
:1018B0009D0380919E038093BB008091BC0083FDBB
:1018C000F8CF85EC01C085EE8093BC008091A30326
:1018D0008130E1F38091A003861710F46091A0039A
:1018E000ADE7B3E026EA33E0F9018E2F821B8617BD
:1018F00018F48D918193F9CF1092A5036093A403FE
:10190000862F089520917C0390917B03213208F06B
:101910004AC08091A3038111FCCF32E03093A3032E
:1019200031E03093A2033FEF3093A1031092A00364
:1019300020939F03ABE5B3E04DE753E0FA013E2F60
:10194000341B321718F43D913193F9CF10929E0356
:1019500020919E03990F922B90939E0390919D034B
:10196000913061F410929D0390919E039093BB007F
:101970009091BC0093FDF8CF95EC01C095EE90934B
:10198000BC009091A3039230E1F39091A1039F3F9B
:1019900079F08091A103803241F08091A1038033DE
:1019A00031F084E005C081E003C082E001C083E043
:1019B00010925A0310927C03109259030895FC016F
:1019C000538D448D252F30E0842F90E0821B930BA4
:1019D000541710F0CF96089501970895FC01918D4A
:1019E000828D981761F0828DDF01A80FB11D5D9681
:1019F0008C91928D9F5F9F73928F90E008958FEFEF
:101A00009FEF0895FC01918D828D981731F0828DA2
:101A1000E80FF11D858D90E008958FEF9FEF0895F9
:101A2000FC01918D228D892F90E0805C9F4F821B5D
:101A300091098F739927089580E090E0892B29F010
:101A40000E94AA0281110C9400000895CF92DF92A7
:101A5000EF92FF92CF93C82F80915B058F3F09F0E3
:101A600040C08091520591E09093590380937B038D
:101A700010925A0310927C036C2F83E694E00E942C
:101A800017020E94820C63E0809152050E94370C7D
:101A900083E694E00E94CB016C01990FEE08FF08E9
:101AA000FE2CED2CDC2CCC2483E694E00E94CB01B0
:101AB000AC01990F660B770BC42AD52AE62AF72AC0
:101AC000FE2CED2CDC2CCC2483E694E00E94CB0190
:101AD000AC01990F660B770BC42AD52AE62AF72AA0
:101AE00033C080915E058F3F21F481E590E00E9434
:101AF000840460E080915B050E94C1038C2F8068A4
:101B00000E94D70B80E00E94D70BC82ED12CE12C6D
:101B1000F12CFE2CED2CDC2CCC2480E00E94D70B89
:101B2000C82AFE2CED2CDC2CCC2480E00E94D70BA4
:101B3000C82A61E080915B050E94C10380915E0527
:101B40008F3F11F40E948304C701B601CF91FF902B
:101B5000EF90DF90CF900895CF93DF93C82F8091BF
:101B60005B058F3F39F58091520591E090935903C1
:101B700080937B0310925A0310927C036C2F83E6B0
:101B800094E00E9417020E94820C62E0809152054C
:101B90000E94370C83E694E00E94CB01C82F83E6B5
:101BA00094E00E94CB0120E030E03C2FE901C82BFB
:101BB000D92B29C080915E058F3F21F481E590E00B
:101BC0000E94840460E080915B050E94C1038C2F19
:101BD00080680E94D70B80E00E94D70BC82F80E05E
:101BE0000E94D70B2C2F30E0322F2227E901C82B7F
:101BF00061E080915B050E94C10380915E058F3F8B
:101C000011F40E9483049C2F8D2FDF91CF910895B2
:101C1000CF92DF92FF920F931F93CF93DF93209188
:101C2000A2043091A30420313105CCF56B01890168
:101C30000F5F1F4FF801EE0FFF1FEE55FB4F918313
:101C40008083F901EE0FFF1FEC53FB4F718360831C
:101C5000F901EE0FFF1FEC5FFA4F11821082220F85
:101C6000331FE901CC51DB4F18820E94A31A982F31
:101C70009F718981807EF82EF92AC6010E94A31ADD
:101C80008295880F807E9F2D9F71F92EF82AF98208
:101C90001093A3040093A2048FEF800F01C08FEF75
:101CA000DF91CF911F910F91FF90DF90CF9008951A
:101CB000CF93DF938FE694E00E945506CFE6D4E001
:101CC00061E08C850E94F10361E08C85DF91CF910A
:101CD0000C94C10380918C0490918D04892B31F177
:101CE000809183059091840524E08F369207F1F06E
:101CF000009711F00E945506809186048E7F809394
:101D0000860410928205109281058FE694E09093EC
:101D1000840580938305E0918204F091830490818F
:101D200080918404892B808381E0089580E0089568
:101D30000F931F93CF93DF938C01EB010E94A31AA3
:101D4000AAE2B5E090E020E2981740F4A8014F5FC6
:101D50005F4FF80104910C938A0101C02C939F5F9F
:101D60001196903189F7CE010E94A31AAAE3B5E03B
:101D700090E020E2981740F4AE014F5F5F4FFE0104
:101D8000C491CC93EA0101C02C939F5F11969031CE
:101D900089F7DF91CF911F910F910895CF93DF9332
:101DA000FC0101900020E9F73197E81B20E030E0CA
:101DB000F0E2A90148575F4F2E1748F4EA01CE55CB
:101DC000DB4FDC01A20FB31FAC91A88304C0DA0182
:101DD000AE55BB4FFC932F5F3F4F2031310549F784
:101DE000FB0101900020E9F73197E61B80E090E0CD
:101DF00040E29C0128563F4F8E1748F4E901CE552A
:101E0000DB4FDB01A80FB91F5C91588304C0D901D7
:101E1000AE55BB4F4C9301968031910551F7DF9140
:101E2000CF9108958F929F92AF92BF92CF92DF92FF
:101E3000EF92FF928AEF0E94260DE2E5F5E04585DC
:101E400056854A01A12CB12CC72ED82EE92EFF248D
:101E5000E7FCFA94C818D908EA08FB08DC01CB01B2
:101E600037E0B595A795979587953A95D1F7B50140
:101E7000A401440F551F661F771F4C015D01841A92
:101E8000950AA60AB70AA5019401A785B0890E9400
:101E9000C41F4B015C013BE0B594A79497948794D1
:101EA0003A95D1F7A7019601C701B6010E941B1C04
:101EB0009B01AC016CE055954795379527956A9540
:101EC000D1F7A189B2890E94C41FDC01CB017EE059
:101ED000B595A795979587957A95D1F7A501940122
:101EE000280F391F4A1F5B1F25833683478350877E
:101EF000A5E0B0E00E944D1CDC01CB0180589F4F53
:101F0000AF4FBF4F692F7A2F8B2F992787FD9A9557
:101F10000E94E81A20E030E048EC52E40E940B1DD9
:101F2000FF90EF90DF90CF90BF90AF909F908F90F9
:101F300008952F923F924F925F926F927F928F926D
:101F40009F92AF92BF92CF92DF92EF92FF920F9348
:101F50001F93CF93DF93CDB7DEB7A2970FB6F89458
:101F6000DEBF0FBECDBF0E94120F87EF0E94260D6D
:101F70006A8F7B8F8C8F9D8F80915705909158052C
:101F8000A0915905B0915A056C017D01FF0CCC0858
:101F9000DC2C76019C01AD016C2D7C2D8C2D9C2DB3
:101FA000345F4140510961097109810991092AA3EE
:101FB00039A349835A836B837C838D839E83590124
:101FC0006A017B018C010E94CC1F2A8B3B8B4C8BBE
:101FD0005D8B6E8B7F8B888F998F80916F058E8F35
:101FE000E0917005EF83F0916D05FF8F80916E0594
:101FF0008887E0916B05E8A3F0916C05F987B090B4
:102000006805A09067051B2D110F110BC12ED12E55
:10201000E12EF12E012F2AA139A149815A816B812C
:102020007C818D819E810E94CC1F0CE00E94C52086
:1020300019012A013B014C01B0906A05A090690585
:102040001B2D110F110BC12ED12EE12EF12E012FC0
:102050002A893B894C895D896E897F89888D998D14
:102060000E94CC1F08E00E94DE2051016201730132
:1020700084010E94FC2070588F4F9F4F209065056F
:10208000309066055101C12CD12CE12CF12C00E0DF
:1020900010E00E94CC1F01E20E94DE202A873B87CD
:1020A0004C875D876E877F87888B998BA0E00E9425
:1020B0000E2109F45EC1AE8C1F81110F110BBF8080
:1020C000C12ED12EE12EF12E012F2A893B894C8978
:1020D0005D896E897F89888D998D0E94CC1F190139
:1020E0002A013B014C01AF8C1885110F110BB884EC
:1020F000C12ED12EE12EF12E012F2AA139A1498125
:102100005A816B817C818D819E810E94CC1F01E16F
:102110000E94C52059016A017B018C019101A20135
:10212000B301C4010E94FC2019012A013B014C01AA
:102130004A8D5B8D6C8D7D8D84E075956795579587
:1021400047958A95D1F780E090E0A0E1B0E0841B4C
:10215000950BA60BB70B6C017D01FF0CCC08DC2C9A
:1021600076019C01AD016C2D7C2D8C2D9C2D0FE1F9
:102170000E94C520F901B42FA52F6C837D8389832C
:102180009A8328A19985990F990B3985492F592F41
:10219000692F792F892F03E20E94C52059016A0116
:1021A0007B018C019101A201B301C4010E94FC20BA
:1021B00059016A017B018C019F014B2F5A2F6C81C1
:1021C0007D8189819A810E9405214901542E652EC5
:1021D000B62FA72FF82FE92F03E00E94C520540146
:1021E000C52CD62CEB2EFA2E0F2F1E2F0E94052168
:1021F00059016A017B01782E192F03E00E94C52046
:10220000072D0E94052103E00E94C5205401C52C22
:10221000D62CEB2EFA2E0F2F1E2F0E94052102E046
:102220000E94C5200F2F0E94052101E00E94C520B9
:102230000F2F0E940521AA84BB84CC84DD84EE8408
:10224000FF84088919890E94272028873F834983B2
:102250005A836B837C838D839E830DE00E94DE20F6
:10226000922E832E742E652E562E472E382E292E12
:102270003091760520917505932F990F990BA92C14
:10228000B82CC72CD62CE52CF42C032D122D492F5D
:10229000592F692F792F892F0E94CC1F0E94CC1FA4
:1022A00009E10E94DE2059016A017B018C01288529
:1022B0003F8149815A816B817C818D819E810E9401
:1022C000FC2019012A013B014C0130917405209139
:1022D0007305932F990F990BA884BF80C980DA806A
:1022E000EB80FC800D811E81492F592F692F792F9A
:1022F000892F0E94CC1F03E10E94DE2059016A0150
:102300007B018C019101A201B301C4010E94FC2058
:1023100008E00E94DE20522E632E742E852E962E0B
:10232000F72FE82FB92F3091720520917105932F67
:10233000990F990B492F592F692F792F892F04E075
:102340000E94C52059016A017B018C01252D362D83
:10235000472D582D692D7F2F8E2F9B2F0E94FC20FB
:102360000E94B31D20E030E040E85BE30E94471B81
:1023700003C060E070E0CB01A2960FB6F894DEBF18
:102380000FBECDBFDF91CF911F910F91FF90EF90C6
:10239000DF90CF90BF90AF909F908F907F906F9085
:1023A0005F904F903F902F900895FC01848DDF0146
:1023B000A80FB11DA35ABF4F2C91848D90E00196B8
:1023C0008F739927848FA689B7892C93A089B189A7
:1023D0008C9180648C93938D848D981306C00288B1
:1023E000F389E02D80818F7D80830895EF92FF92A5
:1023F0000F931F93CF93DF93EC0181E0888F9B8D28
:102400008C8D981305C0E889F989808185FD24C0E9
:10241000F62E0B8D10E00F5F1F4F0F731127E02E6C
:102420008C8DE8120CC00FB607FCFACFE889F98949
:10243000808185FFF5CFCE010E94D511F1CF8B8D24
:10244000FE01E80FF11DE35AFF4FF0820B8FEA897E
:10245000FB898081806207C0EE89FF896083E889FB
:10246000F98980818064808381E090E0DF91CF9161
:102470001F910F91FF90EF900895CF93DF93EC01A0
:10248000888D8823C9F0EA89FB89808185FD05C094
:10249000A889B9898C9186FD0FC00FB607FCF5CFCE
:1024A000808185FFF2CFA889B9898C9185FFEDCF16
:1024B000CE010E94D511E7CFDF91CF910895CF9340
:1024C000DF93CDB7DEB7C854D1090FB6F894DEBF9D
:1024D0000FBECDBF789484B5826084BD84B5816021
:1024E00084BD85B5826085BD85B5816085BD8091DF
:1024F0006E00816080936E00109281008091810057
:10250000826080938100809181008160809381004E
:10251000809180008160809380008091B100846010
:102520008093B1008091B00081608093B000809171
:102530007A00846080937A0080917A008260809330
:102540007A0080917A008E7F80937A0080917A0061
:10255000806880937A001092C10061E08DE00E9453
:10256000F10361E08DE00E94C10361E083E00E941D
:10257000F10360E083E00E94C10380913D019091EE
:102580003E0190930101809300016DE671E08BE7BD
:1025900091E00E94980E83E691E09093A5048093C9
:1025A000A4041092C5041092C40410920505109260
:1025B00004051092E40489E08093E50481E090E052
:1025C0009093A3048093A20461E083E00E94C1037E
:1025D00061E083E00E94F1036FE3E62E62E0F62EF5
:1025E000F701849180937F040BE212E0F80184915B
:1025F00090E0880F991F86519F4FFC0125913491DF
:10260000309381042093800460E083E00E94F10312
:1026100061E083E00E94C10383E080937B04F701C3
:10262000E490E0927C04F8010491E02FF0E0EE0FDA
:10263000FF1FE25EFD4F8591949190937E048093FD
:102640007D0481E08093850487EC90E09093910471
:102650008093900422E530E030938904209388042D
:1026600025EC30E030938B0420938A044FE152E054
:1026700050938D0440938C0430938F0420938E04E8
:10268000209168002460209368002DE630E03093AC
:1026900083042093820428E0209384040197F1F7B7
:1026A0000E946A0E0E94580E80E090E00E94051C75
:1026B00090E09093400180933F018E5F91090297D3
:1026C00020F41092400110923F0180913F019091BF
:1026D0004001892B09F050C068E571E08AE591E07E
:1026E0000E94080E803188F490E0FC01EE0FFF1F7D
:1026F000EC5FFA4F23E431E031832083880F991F88
:10270000FC01EC51FB4F88E080836EE471E082E5D0
:1027100091E00E94080E803188F490E0FC01EE0FF9
:10272000FF1FEC5FFA4F2BE431E031832083880FE9
:10273000991FFC01EC51FB4F88E2808361E471E05A
:1027400085E491E00E94080E803188F490E0FC015D
:10275000EE0FFF1FEC5FFA4F2BEE32E03183208348
:10276000880F991FFC01EC51FB4F88E4808362E3E2
:1027700071E085E391E04FC066E271E089E291E0AB
:102780000E94080E803188F490E0FC01EE0FFF1FDC
:10279000EC5FFA4F23E431E031832083880F991FE7
:1027A000FC01EC51FB4F88E080836BE171E080E23B
:1027B00091E00E94080E803188F490E0FC01EE0F59
:1027C000FF1FEC5FFA4F2BE431E031832083880F49
:1027D000991FFC01EC51FB4F88E280836DE071E0B2
:1027E00082E191E00E94080E803188F490E0FC01C3
:1027F000EE0FFF1FEC5FFA4F2BEE32E031832083A8
:10280000880F991FFC01EC51FB4F88E480836EEF29
:1028100070E081E091E00E94080E803188F490E041
:10282000FC01EE0FFF1FEC5FFA4F2FEE32E0318319
:102830002083880F991FFC01EC51FB4F88E48083B3
:1028400086E78093520580915B058F3F41F510929A
:10285000A5031092A40310925A0310927C031092C5
:10286000A30381E08093A20310929D0361E082E1C3
:102870000E94C10361E083E10E94C1038091B9001D
:102880008E7F8093B9008091B9008D7F8093B900CD
:1028900080E28093B80085E48093BC004EC061E084
:1028A0000E94C10361E080915B050E94F103809169
:1028B0005E058F3F09F034C01FB7F89480913A014C
:1028C000811127C0E2E3F2E08491E6E4F2E0949122
:1028D000E82FF0E0EE0FFF1FEC50FF4FA591B491F1
:1028E000EC91E92321F461E08AE00E94C10361E0F8
:1028F0008AE00E94F1038CB580618CBD8CB5806448
:102900008CBD61E08DE00E94F10361E08BE00E94EC
:10291000F10380913A018F5F80933A011FBF0DC090
:1029200061E00E94F10361E080915C050E94F10387
:1029300060E080915D050E94F10380915B058F3F0F
:10294000E9F48091520591E09093590380937B03C1
:1029500010925A0310927C0360ED83E694E00E948B
:1029600017020E94820C61E0809152050E94370C90
:1029700083E694E00E94CB01182F1FC080915E0572
:102980008F3F21F481E590E00E94840460E0809113
:102990005B050E94C10380ED0E94D70B80E00E947E
:1029A000D70B182F61E080915B050E94C1038091D5
:1029B0005E058F3F11F40E948304183509F08EC024
:1029C00088E80E94AC0D9093600580935F058AE8CB
:1029D0000E94AC0D90936205809361058CE80E9483
:1029E000AC0D90936405809363058EE80E94AC0D56
:1029F000909366058093650580E90E94AC0D9093E5
:102A000068058093670582E90E94AC0D90936A0582
:102A10008093690584E90E94AC0D90936C058093C6
:102A20006B0586E90E94AC0D90936E0580936D0551
:102A300088E90E94AC0D9093700580936F058AE938
:102A40000E94AC0D90937205809371058CE90E94F1
:102A5000AC0D90937405809373058EE90E94AC0DC4
:102A6000909376058093750580915B058F3FC1F447
:102A70008091520591E09093590380937B031092CB
:102A80005A0310927C0364EF83E694E00E941702DD
:102A90006FE383E694E00E9417020E94820C1EC03E
:102AA00080915E058F3F21F481E590E00E948404CF
:102AB00060E080915B050E94C10384E70E94D70B10
:102AC0008FE30E94D70B61E080915B050E94C103F8
:102AD00080915E058F3F11F40E9483040E94FE07DF
:102AE00060E08DE00E94C10383E0282E312C0E941B
:102AF000990F20E030E048EC52E40E940B1D20E0EA
:102B000030E54DE754E40E940B1D21E03EED42E428
:102B10005EE30E940C1E9B01AC0160E070E080E867
:102B20009FE30E949E1C20E03AE24DE257E40E949F
:102B3000471B0E947D1D6DAB7EAB8FAB98AF609342
:102B4000F3027093F4028093F5029093F6020E94D0
:102B5000120F20E030E048EC52E40E94471B0E9434
:102B60007D1D6093EF027093F0028093F1029093C9
:102B7000F2020E94990F0E947D1D6093EB027093F8
:102B8000EC028093ED029093EE02C0909A04D090F4
:102B90009B04E0909C04F0909D04A70196016DA910
:102BA0007EA98FA998AD0E941B1C4B015C0124E6F5
:102BB00030E040E050E02C193D094E095F0960917A
:102BC0009E0470919F048091A0049091A1040E94A2
:102BD0001B1C680D791D8A1D9B1D24E630E040E01A
:102BE00050E00E94A51F20939E0430939F044093C1
:102BF000A0045093A1040E942D040E94E61A6B01C8
:102C00007C0120919E0430919F044091A00450913A
:102C1000A10429AF3AAF4BAF5CAF2093E7023093EA
:102C2000E8024093E9025093EA02EBE1F2E0AFE4FC
:102C3000B1E04481558166817781419351936193DD
:102C4000719314964D915D916D917C9117974D9371
:102C50005D936D937D9332E0EF34F30751F7AAE073
:102C6000B0E029AD3AAD4BAD5CAD0E944D1C0E9469
:102C7000E81A60934F027093500280935102909330
:102C80005202C0928301D0928401E0928501F092B9
:102C9000860180915B0190915C01A0915D01B091F2
:102CA0005E0129968CAF9DAFAEAFBFAF299700E014
:102CB00010E019AA1AAA1BAA1CAA21961CAE1DAEC6
:102CC0001EAE1FAE2197412C512C320153014201FF
:102CD000F801E15BFE4F29962CAD3DAD4EAD5FADE9
:102CE000299764857585868597850E949E1C6B0152
:102CF0007C01F801E55EFD4F2485358546855785C5
:102D000025962CAF3DAF4EAF5FAF25970E94471B76
:102D10009B01AC01C501B4010E949F1C4B015C01E9
:102D2000A7019601C301B2010E949F1C2B013C0127
:102D300025962CAD3DAD4EAD5FAD259721966CAD82
:102D40007DAD8EAD9FAD21970E949F1C21966CAFEB
:102D50007DAF8EAF9FAF2197A7019601C701B60146
:102D60000E94471B9B01AC0169A97AA98BA99CA968
:102D70000E949F1C69AB7AAB8BAB9CAB0C5F1F4F67
:102D80000832110509F0A4CF20E030E040E251E420
:102D9000C501B4010E94471B6B017C0121962CAD3B
:102DA0003DAD4EAD5FAD2197C301B2010E94471BFF
:102DB0009B01AC01C701B6010E949E1C20E030E0DF
:102DC0004AE754E40E94471B6B017C0120E030E09D
:102DD00040E251E469A97AA98BA99CA90E94471BEA
:102DE0004B015C01A3019201C301B2010E94471B88
:102DF0009B01AC01C501B4010E949E1C9B01AC016A
:102E0000C701B6010E940B1D0E947D1D6B017C0154
:102E10008090920490909304A0909404B0909504B4
:102E2000A50194010E941B1C2B013C0124E630E00B
:102E300040E050E0281939094A095B09609196047D
:102E40007091970480919804909199040E941B1CA2
:102E5000640D751D861D971D24E630E040E050E0AE
:102E60000E94A51F209396043093970440939804E2
:102E700050939904C0924B01D0924C01E0924D01C5
:102E8000F0924E018091470190914801A091490133
:102E9000B0914A0129AD3AAD4BAD5CAD281B390B61
:102EA0004A0B5B0B2093430130934401409345014F
:102EB00050934601809141019091420184319105E6
:102EC00069F42DA93EA94FA958AD2093470130932D
:102ED00048014093490150934A0103C0883291054B
:102EE000ACF401969093420180934101109243010A
:102EF00010924401109245011092460110924B012C
:102F000010924C0110924D0110924E0180913F01A0
:102F100090914001019709F06EC06091430170915A
:102F2000440180914501909146010E94E81A2FEBDF
:102F30003EE04CE95EE30E940B1D0E947D1D609304
:102F40004301709344018093450190934601609141
:102F50004B0170914C0180914D0190914E010E9466
:102F6000E81A2FEB3EE04CE95EE30E940B1D0E9445
:102F70007D1D60934B0170934C0180934D019093A4
:102F80004E016091EB027091EC028091ED02909104
:102F9000EE020E94E81A2DED38EE41EF5CE30E944C
:102FA000471B0E947D1D6093EB027093EC0280939F
:102FB000ED029093EE026091EF027091F002809129
:102FC000F1029091F2020E94E81A26E636E646EEF9
:102FD0005FE30E94471B20E030E040E052E40E94A3
:102FE0009F1C0E947D1D6093EF027093F0028093FE
:102FF000F1029093F20280913D0190913E01853063
:10300000910521F010923C0110923B0120910001AA
:10301000309101012817390721F090930101809325
:1030200000018230910509F488C02CF40097A9F0C2
:103030000197D1F00FC18330910509F4E7C00497DF
:1030400009F008C119A2198A6AE971E0CE018196D6
:103050000E94981A6BE871E0F2C060E072E08EE0C6
:1030600092E00E94980EF6C019A2198A68EF71E0EA
:10307000CE0181960E94981A198260914301709145
:10308000440180914501909146010E94E81A20E098
:1030900030E040E251E40E940B1DAB01BC0121E095
:1030A00030E0CE0101960E947E06BE016F5F7F4F29
:1030B000CE0181960E94392180913F01909140017B
:1030C000019719F465EF71E002C063EF71E0CE0182
:1030D00081960E94981A6BEE71E0CE0141960E9493
:1030E000981A198260914B0170914C0180914D01A9
:1030F00090914E010E94E81A20E030E040E251E455
:103100000E940B1DAB01BC0121E030E0CE01019615
:103110000E947E06BE016F5F7F4FCE0141960E94E6
:10312000392180913F0190914001019719F466EE99
:1031300071E085C062EE71E082C019A2198A6BED60
:1031400071E0CE0181960E94981A19826091EF0277
:103150007091F0028091F1029091F2020E94E81ABF
:1031600020E030E048EC52E40E940B1DAB01BC01B2
:1031700022E030E0CE0101960E947E06BE016F5F24
:103180007F4FCE0181960E94392180913F0190911D
:103190004001019719F468ED71E002C065ED71E03E
:1031A000CE0181960E94981A6EEC71E0CE01419694
:1031B0000E94981A19826091EB027091EC02809142
:1031C000ED029091EE020E94E81A20E030E048EC17
:1031D00052E40E940B1DAB01BC0122E030E0CE01A5
:1031E00001960E947E06BE016F5F7F4FCE01419621
:1031F0000E94392180913F0190914001019719F47B
:1032000069EC71E01CC065EC71E019C019A2198A63
:103210006CEB71E0CE0181960E94981A80913F017B
:1032200090914001019719F469EB71E002C066EBDF
:1032300071E0CE0181960E94981A6BEA71E0CE018E
:1032400041960E94981ABE016F5E7F4FCE01819613
:103250000E94CE0E8FE694E00E9455060E94580E02
:103260000E94FE0760E080917B040E94F10361E010
:1032700080917B040E94C1030E946A0E0E946A0E24
:103280000E942D046B017C0134E6C30ED11CE11CAD
:10329000F11C00E010E00E942D046C157D058E05E8
:1032A0009F0588F58FE694E00E946C0218161906B7
:1032B00094F78FE694E00E946C021816190614F039
:1032C00010E01AC08FE694E00E948302182F8091CC
:1032D0004B0581137BC08090260590902705A09018
:1032E0002805B09029050E942D0486169706A80689
:1032F000B90608F46BC0E4CF812F90E0009709F085
:103300007DC08C01C8CFC801003F110509F45BC026
:10331000009709F458C08039910509F445C024F498
:1033200080379105C9F04FC0803B910509F1803E7F
:10333000910509F048C080913D0190913E01853092
:10334000910509F440C001968530910561F4109211
:103350003E0110923D0137C080913D0190913E01A8
:10336000009789F1019790933E0180933D012BC016
:1033700080913D0190913E01039729F580913F0195
:1033800090914001892B39F481E090E090934001C5
:1033900080933F0104C01092400110923F0130928F
:1033A0003E0120923D010FC080913D0190913E0170
:1033B000049749F460913F0180E090E00E940D1C69
:1033C000E0E0F0E009950E941C0D91CB0E942D04D5
:1033D000DC01CB0180579E4FAF4FBF4F8093260536
:1033E00090932705A0932805B093290510934B05CA
:1033F000103F09F081CF80EF90E083CF803F9105AF
:1034000009F089CFE0CF8BE291E090937004809334
:103410006F048FE694E00C945506E6ECF3E013821B
:10342000128288EE93E0A0E0B0E084839583A683C7
:10343000B78327E031E03183208325EC30E0358706
:10344000248724EC30E03787268720EC30E0318B6E
:10345000208B21EC30E0338B228B22EC30E0358B5B
:10346000248B26EC30E0378B268B118E128E138E38
:10347000148EE3E6F4E01382128284839583A6839C
:10348000B78329E131E031832083EFE6F4E0138252
:10349000128284839583A683B7838BE291E0918324
:1034A0008083A6E8B4E08C918E7F8C93128E118E6F
:1034B000148E138E168E158E12A211A2E2E5F5E07F
:1034C0008FEF8187828783878487109226051092E9
:1034D00027051092280510922905109224051092B4
:1034E000A3041092A2041092250586E492E0909322
:1034F000510580935005EAE9F4E082E390E0A0E012
:10350000B0E080839183A283B383148215821682F4
:103510001782E2E9F4E080E590E0A0E0B0E080838B
:103520009183A283B3831482158216821782089531
:10353000FB01DC010D900020E9F7119705900D9239
:103540000020E1F70895FC0105900020E9F780953F
:1035500090958E0F9F1F0895BB274A3031F4992311
:1035600022F4BDE2909581959F4F0C94B81ABB2729
:10357000FB015527AA27880F991FAA1FA41710F02F
:10358000A41B83955051B9F7A05DAA3308F0A95D3B
:10359000A193009779F7B111B1931192CB010C94DB
:1035A000D11ADC01FC01672F71917723E1F7329783
:1035B00004C07C916D9370836291AE17BF07C8F30E
:1035C00008950E94231B08F481E00895E89409C03F
:1035D00097FB3EF490958095709561957F4F8F4F46
:1035E0009F4F9923A9F0F92F96E9BB279395F6955C
:1035F000879577956795B795F111F8CFFAF4BB0FDA
:1036000011F460FF1BC06F5F7F4F8F4F9F4F16C03D
:10361000882311F096E911C0772321F09EE8872FC7
:10362000762F05C0662371F096E8862F70E060E083
:103630002AF09A95660F771F881FDAF7880F9695FC
:10364000879597F90895990F0008550FAA0BE0E8A0
:10365000FEEF16161706E807F907C0F01216130654
:10366000E407F50798F0621B730B840B950B39F494
:103670000A2661F0232B242B252B21F408950A26FA
:1036800009F4A140A6958FEF811D811D08950E9428
:103690005A1B0C94CB1B0E94BD1B38F00E94C41B0C
:1036A00020F0952311F00C94B41B0C94BA1B112438
:1036B0000C94FF1B0E94DC1B70F3959FC1F3950FC8
:1036C00050E0551F629FF001729FBB27F00DB11DA6
:1036D000639FAA27F00DB11DAA1F649F6627B00D36
:1036E000A11D661F829F2227B00DA11D621F739F1F
:1036F000B00DA11D621F839FA00D611D221F749F2D
:103700003327A00D611D231F849F600D211D822F73
:10371000762F6A2F11249F5750409AF0F1F088239A
:103720004AF0EE0FFF1FBB1F661F771F881F9150C7
:103730005040A9F79E3F510580F00C94B41B0C94A7
:10374000FF1B5F3FE4F3983ED4F38695779567952A
:10375000B795F795E7959F5FC1F7FE2B880F911DF1
:103760009695879597F9089597F99F6780E870E097
:1037700060E008959FEF80EC089500240A941616E7
:10378000170618060906089500240A94121613064F
:10379000140605060895092E0394000C11F48823DD
:1037A00052F0BB0F40F4BF2B11F460FF04C06F5FF9
:1037B0007F4F8F4F9F4F089557FD9058440F551FCF
:1037C00059F05F3F71F04795880F97FB991F61F0A3
:1037D0009F3F79F087950895121613061406551F1A
:1037E000F2CF4695F1DF08C0161617061806991F86
:1037F000F1CF86957105610508940895E894BB277B
:1038000066277727CB0197F90895F999FECF92BDE6
:1038100081BDF89A992780B50895262FF999FECF92
:103820001FBA92BD81BD20BD0FB6F894FA9AF99ADD
:103830000FBE01960895DB018F939F930E944D1C4C
:10384000BF91AF91A29F800D911DA39F900DB29F3C
:10385000900D11240895A1E21A2EAA1BBB1BFD0195
:103860000DC0AA1FBB1FEE1FFF1FA217B307E4075F
:10387000F50720F0A21BB30BE40BF50B661F771FB7
:10388000881F991F1A9469F7609570958095909597
:103890009B01AC01BD01CF0108950E948F1CA59F23
:1038A000900DB49F900DA49F800D911D112408953B
:1038B0002F923F924F925F926F927F928F929F9240
:1038C000AF92BF92CF92DF92EF92FF920F931F932E
:1038D000CF93DF93CDB7DEB7CA1BDB0B0FB6F894DF
:1038E000DEBF0FBECDBF09942A88398848885F841F
:1038F0006E847D848C849B84AA84B984C884DF8090
:10390000EE80FD800C811B81AA81B981CE0FD11D73
:103910000FB6F894DEBF0FBECDBFED010895A29F94
:10392000B001B39FC001A39F700D811D1124911D93
:10393000B29F700D811D1124911D08955058BB2711
:10394000AA270E94B61C0C94CB1B0E94BD1B38F00A
:103950000E94C41B20F039F49F3F19F426F40C9404
:10396000BA1B0EF4E095E7FB0C94B41BE92F0E9400
:10397000DC1B58F3BA17620773078407950720F01A
:1039800079F4A6F50C94FE1B0EF4E0950B2EBA2FDD
:10399000A02D0B01B90190010C01CA01A001112455
:1039A000FF27591B99F0593F50F4503E68F11A1601
:1039B000F040A22F232F342F4427585FF3CF469592
:1039C00037952795A795F0405395C9F77EF41F16B4
:1039D000BA0B620B730B840BBAF09150A1F0FF0F7E
:1039E000BB1F661F771F881FC2F70EC0BA0F621F6A
:1039F000731F841F48F4879577956795B795F7955A
:103A00009E3F08F0B0CF9395880F08F09927EE0FEE
:103A10009795879508950E941F1D0C94CB1B0E94BB
:103A2000C41B58F00E94BD1B40F029F45F3F29F0F1
:103A30000C94B41B51110C94FF1B0C94BA1B0E94E4
:103A4000DC1B68F39923B1F3552391F3951B550BB8
:103A5000BB27AA2762177307840738F09F5F5F4F61
:103A6000220F331F441FAA1FA9F335D00E2E3AF0A0
:103A7000E0E832D091505040E695001CCAF72BD0B8
:103A8000FE2F29D0660F771F881FBB1F2617370709
:103A90004807AB07B0E809F0BB0B802DBF01FF273B
:103AA00093585F4F3AF09E3F510578F00C94B41B49
:103AB0000C94FF1B5F3FE4F3983ED4F38695779513
:103AC0006795B795F7959F5FC9F7880F911D9695F4
:103AD000879597F90895E1E0660F771F881FBB1F50
:103AE000621773078407BA0720F0621B730B840BFD
:103AF000BA0BEE1F88F7E09508950E94841D689424
:103B0000B1110C94FF1B08950E94E41B88F09F578D
:103B100098F0B92F9927B751B0F0E1F0660F771FF1
:103B2000881F991F1AF0BA95C9F714C0B13091F0E7
:103B30000E94FE1BB1E008950C94FE1B672F782FA6
:103B40008827B85F39F0B93FCCF3869577956795AC
:103B5000B395D9F73EF490958095709561957F4F18
:103B60008F4F9F4F089597FB16F40E94F71D0C94FA
:103B7000BA1DE894F92F96EBFF2381F01216130675
:103B80001406440B9395F695879577956795579509
:103B90004040FF23B9F71BC099270895882351F4AB
:103BA0009850D2F7872B762F652F542F432F322F23
:103BB00020E0B1F3121613061406440B88233AF0E2
:103BC0009A95440F551F661F771F881FCAF7552304
:103BD0004AF4440F551F11F460FF04C06F5F7F4F1C
:103BE0008F4F9F4F880F9695879597F908959095D9
:103BF00080957095609550954095309521953F4FF3
:103C00004F4F5F4F6F4F7F4F8F4F9F4F08950E94D1
:103C1000231B08F48FEF0895FA01EE0FFF1F309673
:103C200021053105A1F16115710561F48038BFE30B
:103C30009B0749F168949038810561F08038BFEFA7
:103C40009B0741F099234AF5FF3FE1053105210526
:103C500019F1E8940894E795D901AA2329F4AB2F28
:103C6000BE2FF85FD0F310C0FF5F70F4A695E0F7A9
:103C7000F73950F019F0FF3A38F49F779F930DD041
:103C80000F9007FC9058089546F00C94BA1B60E022
:103C900070E080E89FE308954FE79F775F934F932D
:103CA0003F932F930E94071F2F913F914F915F9158
:103CB0000E94471B0C94641E29F416F00C94B41B4C
:103CC0000C94FE1B0C94BA1B0E94E41BA8F39638BC
:103CD000A0F707F80F92E8942BE33AEA48EB5FE786
:103CE0000E945D1B0F920F920F924DB75EB70F921D
:103CF0000E944F1FE8E6F0E00E94961E4F915F91F0
:103D0000EF91FF91E595EE1FFF1F49F0FE57E06828
:103D10004427EE0F441FFA95E1F74195550B0E9499
:103D2000C91E0F9007FE0C94BD1E0895DF93CF931C
:103D30001F930F93FF92EF92DF927B018C016894A7
:103D400006C0DA2EEF010E945A1BFE01E894A591ED
:103D50002591359145915591A6F3EF010E94B61C2E
:103D6000FE019701A801DA9469F7DF90EF90FF90C8
:103D70000F911F91CF91DF9108959B01AC0160E0FD
:103D800070E080E89FE30C940B1D0C94B41B0C9422
:103D9000831F0E94E41BD8F39923C9F3940F511D8C
:103DA000A3F39150504094F059F0882332F0660FFD
:103DB000771F881F91505040C1F79E3F51052CF747
:103DC000880F911D9695879597F908955F3FACF000
:103DD000983E9CF0BB27869577956795B79508F434
:103DE000B1609395C1F7BB0F58F711F460FFE8CFAE
:103DF0006F5F7F4F8F4F9F4FE3CF0C94FF1B16F0E9
:103E00000C94831F0C94BA1B68940C94B41B0E94EE
:103E1000E41BA8F39923C1F3AEF3DF93CF931F9371
:103E20000F93FF92C92FDD2788232AF02197660F71
:103E3000771F881FDAF720E030E040E85FEB9FE370
:103E4000883920F0803E38F021968F770E949F1CA1
:103E5000E0E9F0E004C00E949F1CEDEBF0E00E945E
:103E6000961E8B01BE01EC01FB2E6F5771097595F3
:103E7000771F880B990B0E94E81A28E132E741E38B
:103E80005FE30E945A1BAF2D9801AE01FF900F9186
:103E90001F91CF91DF910E94B61C0C94CB1BFA01AD
:103EA000DC01AA0FBB1F9B01AC01BF5728F42227DE
:103EB00033274427507820C0B75190F4AB2F00240B
:103EC000469537952795011CA395D2F3002071F0F4
:103ED000220F331F441FB395DAF30ED00C949E1CAF
:103EE00061307105A0E88A07B94630F49B01AC0146
:103EF0006627772788279078309621F020833183B2
:103F00004283538308959F3F31F0915020F4879569
:103F100077956795B795880F911D9695879597F931
:103F2000089597FB072E16F4009407D077FD09D06B
:103F30000E941A2107FC05D03EF4909581959F4F71
:103F40000895709561957F4F0895052E97FB1EF497
:103F500000940E94BC1F57FD07D00E942B1C07FC39
:103F600003D04EF40C94BC1F50954095309521958C
:103F70003F4F4F4F5F4F0895909580957095619595
:103F80007F4F8F4F9F4F0895B7FF0C944D1C0E9499
:103F90004D1C821B930B0895DF93CF931F930F93B8
:103FA0009A9DF02D219FF00D8B9DF00D8A9DE02DA7
:103FB000F10D039FF00D029FE00DF11D4E9DE00DF0
:103FC000F11D5E9DF00D4F9DF00D7F936F93BF929D
:103FD000AF925F934F93D5010E948F1C8B01AC0170
:103FE000D7010E948F1CEB01E80FF91FD6010E9438
:103FF0001C202F913F91D6010E948F1CC60FD71F06
:10400000E81FF91FAF91BF910E941C202F913F9193
:104010000E948F1CC60FD71FE81FF91FD6010E94F0
:104020008F1CE60FF71F9801BE01CF0111240F91DD
:104030001F91CF91DF9108950E948F1C460F571F4B
:10404000C81FD91F08F431960895689401C0E894F8
:10405000F92FF12B12F00C945920A0E0B0E0E3E32B
:10406000F0E20C945E1C092E059422F40E94B52007
:10407000112392F4F0E80F26FFEFE094F0940095FE
:104080001095B094C094D094A194BF0ACF0ADF0ACF
:10409000EF0AFF0A0F0B1F0B0E94642007FC0E940F
:1040A000B520CDB7DEB7ECE00C947A1C689401C063
:1040B000E8948F929F92CF93DF930E946420DF91C8
:1040C000CF919F908F90089588249924F401E40162
:1040D000B0E49F93AA279A158B049C04ED05FE0576
:1040E000CF05D007A10798F4AD2FDC2FCF2FFE2FDF
:1040F000E92D982C892E982F872F762F652F542FF6
:10410000432F322F2227B85031F7BF9127C01B2EE3
:10411000BF91BB27220F331F441F551F661F771FF8
:10412000881F991F881C991CEE1FFF1FCC1FDD1FC5
:10413000AA1FBB1F8A149B04EC05FD05CE05DF05F5
:10414000A007B10748F08A189B08EC09FD09CE09C1
:10415000DF09A00BB10B21601A94E1F62EF4940153
:10416000AF01BE01CD01000C08956095709580955A
:10417000909530954095509521953F4F4F4F5F4F0B
:104180006F4F7F4F8F4F9F4F08950F93083090F0E0
:10419000982F872F762F652F542F432F322F2227CA
:1041A0000850F4CF220F331F441F551F661F771F7F
:1041B000881F991F0A95B2F70F91089597FB10F881
:1041C000169400080F93083098F00850232F342FCE
:1041D000452F562F672F782F892F902DF4CF0594D8
:1041E000979587957795679557954795379527952F
:1041F0000A95AAF70F9108952A0D3B1D4C1D5D1DD0
:104200006E1D7F1D801F911F08952A193B094C09BF
:104210005D096E097F09800B910B08950024A7FDAD
:1042200000942A173005400550056005700580058B
:1042300090050895AA1BBB1B51E107C0AA1FBB1F15
:10424000A617B70710F0A61BB70B881F991F5A9522
:10425000A9F780959095BC01CD010895EE0FFF1F41
:104260000590F491E02D099481E090E0F8940C948D
:104270004421FB01DC010D900020E9F7119701902A
:104280000D920020E1F7089511E0C3E3D1E004C0EE
:10429000FE010E942E212196C433D107C9F7F8945C
:0242A000FFCF4E
:1042A20001000600000000F6115E01DF0C3D121055
:1042B2000DEE0C020D000000001702E701A502BB83
:1042C20001DF01CB01BC0100000000B4025E01A5C8
:0A42D200026B026C0283025302002B
:00000001FF
