:100000000C9465010C948D010C948D010C94F205F7
:100010000C94F2050C94F2050C948D010C948D0156
:100020000C948D010C948D010C948D010C948D0118
:100030000C948D010C948D010C948D010C948D0108
:100040000C946A040C948D010C9497030C94710326
:100050000C948D010C948D010C948D010C948D01E8
:100060000C94B8040C948D019D18A41807197019EC
:100070007B199519A01907634236B79BD8A71A397F
:10008000685618AEBAAB558C1D3CB7CC5763BD6DE6
:10009000EDFD753EF6177231BF000000803F08008D
:1000A0000000BE922449123EABAAAA2ABECDCCCCF7
:1000B0004C3E00000080BEABAAAAAA3E0000000091
:1000C000BF000000803F0000000000084178D3BB63
:1000D0004387D1133D190E3CC3BD4282AD2B3E6810
:1000E000EC8276BED98FE1A93E4C80EFFFBE01C401
:1000F000FF7F3F00000000000000000025002800F6
:100100002B0000000000240027002A00B046005405
:10011000656D706572617475726500696E4847003F
:1001200050726573737572650066742F7300566143
:1001300072696F00667400416C746974756465005F
:1001400066740052656C2E20416C74697400B04373
:100150000054656D706572617475726500687061D8
:10016000005072657373757265006D2F7300566170
:1001700072696F006D00416C746974756465006D1F
:100180000052656C2E20416C7469740052435420F7
:10019000566172696F00202020566172696F6D652B
:1001A0007465720020524354204A65746920546F6C
:1001B0006F6C73005072657373203C20746F206500
:1001C00078697400416C746974756465207A65722D
:1001D0006F65640050726573733A20555020262075
:1001E000444E005361766520616E642072657374BD
:1001F000617274004368616E67653A20444E004541
:100200005500555300556E6974733A2020005072A2
:1002100065737320444E00416C7469747564652085
:1002200052657365740068506100696E48470050FC
:100230007265733A2000B04300B0460054656D709B
:100240003A20006D2F730066742F73005661726937
:100250006F3A20006D00667400416C7469743A2036
:1002600000202020566172696F6D657465720020F0
:10027000524354204A65746920546F6F6C730000B8
:1002800000000023002600290004040404040404E0
:100290000402020202020203030303030301020435
:1002A00008102040800102040810200102040810F8
:1002B0002000000008000201000003040700000005
:1002C000000000000000B81AAE1A11241FBECFEFC4
:1002D000D8E0DEBFCDBF25E0AAE3B1E001C01D92AA
:1002E000A938B207E1F711E0A0E0B1E0E8EFF3E4EC
:1002F00002C005900D92AA33B107D9F711E0C4E608
:10030000D1E004C02197FE010E946F20C336D107BF
:10031000C9F70E948F120C94EF210C940000CF9229
:10032000DF92EF92FF920F931F93CF93DF936C01B5
:100330007A018B01C0E0D0E0CE15DF0589F0D8014D
:100340006D918D01D601ED91FC910190F081E02D30
:10035000C6010995892B11F47E0102C02196ECCFCC
:10036000C701DF91CF911F910F91FF90EF90DF9028
:10037000CF90089585ED8093BC008091BC0084FDF2
:10038000FCCF1092A703089540912F03262F30E051
:10039000240F311D21323105DCF42091A7032430D4
:1003A000C9F4FC0180E090E0861758F430912F03E7
:1003B0002191DC01A35FBC4FA30FB11D2C930196CB
:1003C000F3CF80912F03680F60932F0380E008958F
:1003D00081E0089582E008950895E091A903809155
:1003E000A803E81730F4F0E0E655FC4F808190E078
:1003F00008958FEF9FEF08959091A9038091A8032E
:10040000981750F4E92FF0E0E655FC4F208130E0DA
:100410009F5F9093A90302C02FEF3FEFC90108959A
:100420008091A80390E02091A903821B910908956F
:10043000CF92DF92EF92FF920F931F93CF93DF93B0
:100440007C01262F972F8A0180915D03882391F0EC
:10045000C62FD72F6E01C40ED51ECC15DD0571F049
:100460006991D701ED91FC910190F081E02DC701D8
:100470000995F3CF642F822F0E94C401C801DF9138
:10048000CF911F910F91FF90EF90DF90CF90089543
:10049000CF93DF931F92CDB7DEB7698320915D03C1
:1004A0002223D1F020918003203240F021E030E07F
:1004B000FC013383228380E090E015C080915E03CD
:1004C000E82FF0E0E15AFC4F998190838F5F809391
:1004D0005E038093800305C061E0CE0101960E9417
:1004E000C40181E090E00F90DF91CF9108950895CD
:1004F000DC015196ED91FC915297908150968C9130
:1005000080958923808308952091870530918805FF
:100510002817390771F49091850580918605981701
:1005200041F0E0918505F0E0E350FD4F808190E0DF
:1005300008958FEF9FEF08950895209187053091DA
:1005400088052817390769F480918605209185056B
:1005500090E04096821B910960E170E00E943C208F
:10056000089580E090E008952091870530918805F6
:1005700028173907B9F49091850580918605981759
:1005800089F0E0918505F0E0E350FD4F80812091F6
:10059000850530E02F5F3F4F2F703327209385056F
:1005A00090E008958FEF9FEF0895089580E090E028
:1005B00008950E94DF218AEC93E00E94400D21E023
:1005C000892B09F420E0822F0895CF92DF92EF92D9
:1005D000FF920F931F93CF93DF93EC0189A19AA110
:1005E000009729F421E030E03B832A8371C00FB7E4
:1005F000F8948F8D98A1892B91F028E030E090E05D
:1006000081E0482F462309F09F5F880F2150310970
:10061000C1F7888D81119F5F192F109501C010E0DF
:10062000F62ECE010E94780289A19AA10197F1F7D6
:1006300088E0C82ED12CEE24E3948E2D8F2139F042
:10064000E989FA8990818889892B808303C0CE014A
:100650000E94780289A19AA10197F1F7EE0C81E03E
:10066000C81AD10851F78E89882389F0888D88238C
:1006700039F0E989FA8990818889892B808303C0C0
:10068000CE010E94780289A19AA10197F1F78F8D7E
:1006900098A1892B81F010FF07C0E989FA89908120
:1006A0008889892B808303C0CE010E9478028F8DB8
:1006B00098A10197F1F7E989FA8990818889892BB6
:1006C00080830FBF8D8D9E8D0197F1F781E090E0C3
:1006D000DF91CF911F910F91FF90EF90DF90CF901E
:1006E00008951F920F920FB60F9211242F933F93EC
:1006F0004F935F936F937F938F939F93AF93BF932A
:10070000EF93FF938AEC93E00E940512FF91EF9123
:10071000BF91AF919F918F917F916F915F914F9119
:100720003F912F910F900FBE0F901F9018951F9221
:100730000F920FB60F9211242F938F939F93EF93E5
:10074000FF93E091DA03F091DB038081E091E00315
:10075000F091E10382FD12C090818091E3038F5FED
:100760008F732091E403821751F0E091E303F0E0EE
:10077000E653FC4F958F8093E30301C08081FF9186
:10078000EF919F918F912F910F900FBE0F901F901F
:100790001895833081F028F4813099F08230A1F0EF
:1007A00008958730A9F08830B9F08430D1F4809171
:1007B00080008F7D03C0809180008F7780938000C0
:1007C000089584B58F7702C084B58F7D84BD089568
:1007D0008091B0008F7703C08091B0008F7D8093AF
:1007E000B00008951F93CF93DF93282F30E0F901D5
:1007F000EF54FD4F8491F901E356FD4FD491F90177
:10080000E757FD4FC491CC23C9F0162F81110E94E8
:10081000C903EC2FF0E0EE0FFF1FE850FF4FA5914A
:10082000B4918FB7F894111105C09C91ED2FE0950C
:10083000E92302C0EC91ED2BEC938FBFDF91CF91B8
:100840001F910895CF93DF9390E0FC01E356FD4F95
:100850002491FC01E757FD4F8491882361F190E0DA
:10086000880F991FFC01EE5FFE4FC591D491FC01EA
:10087000E850FF4FA591B491611109C09FB7F8945A
:100880008881209582238883EC912E230BC06230CF
:1008900061F49FB7F8943881822F809583238883F1
:1008A000EC912E2B2C939FBF06C08FB7F894E88154
:1008B0002E2B28838FBFDF91CF9108952FB7F89407
:1008C0006091590370915A0380915B0390915C038E
:1008D0002FBF08951F920F920FB60F9211242F93DE
:1008E0003F938F939F93AF93BF93809159039091C0
:1008F0005A03A0915B03B0915C033091580326E04A
:10090000230F2D3720F40296A11DB11D05C029E843
:10091000230F0396A11DB11D209358038093590303
:1009200090935A03A0935B03B0935C0380915403AC
:1009300090915503A0915603B09157030196A11DC4
:10094000B11D8093540390935503A0935603B09325
:100950005703BF91AF919F918F913F912F910F902E
:100960000FBE0F901F90189508958CBD9DBD0895E2
:100970001F920F920FB60F9211242F933F934F9314
:100980005F936F937F938F939F93AF93BF93EF93F7
:10099000FF938091B900887F803609F49CC068F588
:1009A000883209F45BC090F4803109F454C038F403
:1009B000882309F4F6C0883009F44DC0F6C08831A8
:1009C00009F44CC0803209F45DC0EFC0803409F4F2
:1009D00068C048F4803309F455C0883309F0E5C095
:1009E0008093A503D8C0803509F44FC0883509F439
:1009F0005DC0883409F0D9C0D6C0883909F4C7C0B1
:100A0000A8F4883709F467C038F4883609F463C05D
:100A1000803709F460C0C9C0883809F4B8C080398B
:100A200009F45FC0803809F0C0C05BC0803B09F4A6
:100A300086C038F4803A09F466C0883A09F47FC069
:100A4000B4C0803C09F4A7C0883C09F4A4C0883B2A
:100A500009F48AC0AAC08091A20310C09091A40397
:100A60008091A303981770F5E091A40381E08E0FA5
:100A70008093A403F0E0EF57FC4F80818093BB008C
:100A800085EC86C08093A5038EC0E091A40381E02D
:100A90008E0F8093A4038091BB00F0E0EF57FC4FD2
:100AA00080839091A4038091A3036EC0E091A4037E
:100AB00081E08E0F8093A4038091BB00F0E0EF579C
:100AC000FC4F80838091A60381116DC081E08093EB
:100AD000A10384EA61C083E08093A70310925303CB
:100AE000CFCF80915303803208F051C0E09153037F
:100AF00081E08E0F809353038091BB00F0E0ED5CAA
:100B0000FC4F8083BDCF85EC8093BC001092A7037F
:100B100080915303803230F4E0915303F0E0ED5CB8
:100B2000FC4F10826091530370E0E0913103F0912B
:100B3000320383E393E009951092530336C084E0B7
:100B40008093A7031092300310922F03E0912D039E
:100B5000F0912E03099580912F03811105C081E04A
:100B600080932F0310920D03E091300381E08E0FEC
:100B700080933003F0E0E35FFC4F80818093BB0003
:100B80009091300380912F03981708F479CF85E86E
:100B90008093BC000AC085EC8093BC001092A70330
:100BA00004C01092A5030E94BA01FF91EF91BF917A
:100BB000AF919F918F917F916F915F914F913F91F5
:100BC0002F910F900FBE0F901F901895862798E0D9
:100BD00027E087FF03C0880F822701C0880F91504C
:100BE000C1F708951F920F920FB60F9211242F9301
:100BF0003F934F935F936F937F938F939F93AF93A5
:100C0000BF93CF93DF93EF93FF93E0918705F0912C
:100C10008805309709F467C0C685D7858881258502
:100C2000822309F060C0818D928D0197F1F7438D89
:100C3000548D68E070E030E081E0DA011197F1F75F
:100C40009881922311F0382B03C0982F9095392367
:100C5000880F6150710989F78091860590E00196AF
:100C60008F70992760918505681749F0A0918605D6
:100C7000B0E0A350BD4F3C938093860503C08789A5
:100C80008160878B86898823F1F0CA010197F1F78B
:100C90008881282381E090E0A0E0B0E004C0880FC4
:100CA000991FAA1FBB1F2A95D2F74091FB025091B2
:100CB000FC0260E070E0842B952BA62BB72B909361
:100CC000FC028093FB02878D90A1009711F00197A1
:100CD000F1F7858D968D0197F1F7A389B4899C91E1
:100CE0008589892B8C93FF91EF91DF91CF91BF91F3
:100CF000AF919F918F917F916F915F914F913F91B4
:100D00002F910F900FBE0F901F901895E0918705BF
:100D1000F0918805E817F90769F4A389B4899C91D3
:100D20008589809589238C93109288051092870578
:100D300081E0089580E008950F931F93CF93C82F0B
:100D400003E714E0F801608F682FC8010E94E502F4
:100D5000F801108E8C2FCF911F910F9108952F9233
:100D60003F924F925F926F927F928F929F92AF923B
:100D7000BF92CF92DF92EF92FF920F931F93CF9388
:100D8000DF93CDB7DEB72A970FB6F894DEBF0FBE5C
:100D9000CDBF8C012A013B013A87298720E030E052
:100DA000A901C301B2010E948C1B87FF05C060E04E
:100DB00070E080E09FEB04C060E070E080E09FE3C3
:100DC000E12CF12CA985BA85EA16FB0654F420E043
:100DD00030E040E251E40E94B61D2FEFE21AF20A21
:100DE000F1CF9B01AC01C301B2010E944A1D6B010E
:100DF0007C0120E030E0A901C301B2010E948C1BFC
:100E000087FF04C0F7FAF094F7F8F094A12CB12C06
:100E1000BDECB983ECECEA83FCECFB832DE32C8383
:100E200020E030E040E251E469817A818B819C814D
:100E30000E94F21B962E872E382E292EA70196018E
:100E40000E948C1B181644F03FEFA31AB30A998234
:100E50008A823B822C82E4CFA114B10429F045019F
:100E60006FEF861A960A03C092E0892E912C20E03B
:100E700030E0A901C301B2010E948C1B87FF03C0AF
:100E80007FEF871A970A89859A850196880E991EA1
:100E90001814190444F081E090E0DC01A819B909A4
:100EA000BE83AD8302C01E821D8220E030E0A90116
:100EB000C301B2010E948C1B87FF07C08DE2F801BD
:100EC000808388248394912C02C0812C912CA114BE
:100ED000B10449F4F801E80DF91D80E38083940121
:100EE0002F5F3F4F4901212C312CB101680D791D35
:100EF00078876F832A143B04D1F129813A814B8191
:100F00005C81C701B6010E94B61D0E94281E2B01FC
:100F10003C016F817885600F711F4AE0C2010E9419
:100F2000571BB201550C880B990B0E94931B29810A
:100F30003A814B815C810E94F21B9B01AC01C7018D
:100F4000B6010E94491D6B017C0120E030E040E2C7
:100F500051E469817A818B819C810E94B61D6983ED
:100F60007A838B839C833FEF231A330ABECF5B01C6
:100F700089859A851816190644F4F801E60FF71FBB
:100F80008EE28083DB0111965D01812C912CE98535
:100F9000FA858E169F064CF520E030E040E251E4E1
:100FA000C701B6010E94F21B2B013C010E94281EC2
:100FB0006B017C01B4016A0D7B1D600F711F4AE05B
:100FC000C6010E94571BB601DD0C880B990B0E94CD
:100FD000931B9B01AC01C301B2010E94491D6B012F
:100FE0007C01BFEF8B1A9B0AD2CFCF01F7FF02C063
:100FF00080E090E0A80EB91E2D813E81232B89F060
:101000009501F801EA0DFB1D40E26FEFA61AB60A42
:101010004193C501821B930BAD81BE818A179B074B
:10102000A4F3F801EA0DFB1D1082C8012A960FB641
:10103000F894DEBF0FBECDBFDF91CF911F910F910E
:10104000FF90EF90DF90CF90BF90AF909F908F90E8
:101050007F906F905F904F903F902F9008952F92C8
:101060003F924F925F926F927F928F929F92AF9238
:10107000BF92CF92DF92EF92FF920F931F93CF9385
:10108000DF93C0905005D0905105E0905205F0904C
:1010900053050E945E04209128052223E9F060E0B8
:1010A0008EE70E949C0661E082E90E949C0661E056
:1010B00083E20E949C0661E0809128050E949C06C4
:1010C00080910201882311F0815003C010922805FD
:1010D00086E08093020170C324EFC20E21E0D21E8D
:1010E000E11CF11C11E0C616D706E806F90608F067
:1010F00010E060E08EE70E949C0661E08FE90E94AC
:101100009C06111170C080912905A091A604B09190
:10111000A704E82FF0E0EE0FFF1FE85FFA4F2081F1
:101120003181232B49F48F5F282F30E02A173B07AA
:1011300084F31092290502C0809329056091290546
:10114000F6E0E0E026E030E0E12C40E050E070E046
:10115000CA01860F971F8A179B07A4F5009709F10C
:10116000E394880F991FFC01E851FB4F80818F7138
:101170008830A1F0813019F4C901039615C081119E
:1011800003C0C901029610C0853019F4C901049644
:101190000BC0893019F0C901019606C0C901059636
:1011A00003C0C9012F2F3E2F4F5F5F4F40315105C4
:1011B00051F08B31910514F0EA9404C0F22FE32F23
:1011C0009C01C6CFC901C82FC06481E080938B0405
:1011D0006C2F83E794E00E94E50260E08C2F0E9470
:1011E000E605C82F1DC0E0918405F0E0EE0FFF1F5B
:1011F000E751FB4F8081C82FCF718295869587700C
:10120000C80FC85F81E080938B046C2F83E794E064
:101210000E94E50260E08C2F0E94E605C82FE12CB9
:10122000D1E0D0938B0461E183E794E00E94E50272
:101230006C2F81E10E94E605C82FD0938B0464EAED
:1012400083E794E00E94E5026C2F84EA0E94E605A1
:10125000C82FD0938B0462E083E794E00E94E502FC
:101260006C2F82E00E94E605C82FD0938B0468E0C3
:1012700083E794E00E94E5026C2F88E00E94E60577
:10128000C82FD0938B0460E083E794E00E94E502CE
:1012900010928B046C2F80E00E94E605F82E11114D
:1012A000EAC1C09129056E2C6C0E2091A6043091E4
:1012B000A704C61551F0772473947C0E709229050B
:1012C0000C2F10E00217130754F08091290590E0CD
:1012D000821793070CF46CC21092290569C2CC23C3
:1012E00009F4C7C1E0915405F09155050995C295DF
:1012F000C07F680131E2C30ED11CC601880F991F5F
:10130000FC01EA55FB4F5F0180818F7190E08530D1
:10131000910509F4BEC0F4F5009709F495C0019752
:1013200009F0A7C1000F111FF801E85FFA4F019003
:10133000F081E02D00811181C160D0938B046C2F6E
:1013400083E794E00E94E5026F2D8C2F0E94E60552
:10135000C82F1F79F501208122952695277030E04E
:10136000322F22273295330F307E022B132BD0934E
:101370008B04602F83E794E00E94E5026C2F802F9E
:101380000E94E605082F912F9F79F501C081C07E4C
:10139000C92B74C08830910521F0099709F4C2C0A7
:1013A00068C1C860D0938B046C2F83E794E00E94DF
:1013B000E5026F2D8C2F0E94E605C82F000F111F2C
:1013C000F801E85FFA4F0190F081E02D8081918172
:1013D000A281B3816C017D01FFE9FF22D0938B04D0
:1013E0006C2D83E794E00E94E5026C2F8C2D0E9407
:1013F000E605C82F2D2C3E2C4F2C552447FC5A9423
:10140000D0938B04622D83E794E00E94E5026C2F59
:10141000822D0E94E605C82F1701552437FC5094F1
:10142000452CD0938B04622D83E794E00E94E50263
:101430006C2F822D0E94E605182F9F2D9F79F501B4
:10144000C081C07EC92B62C0000F111FF801E85F88
:10145000FA4F0190F081E02D1081D0938B046C2F16
:1014600083E794E00E94E5026F2D8C2F0E94E60531
:10147000082F1F79F501C081C07EC12BD0938B044A
:101480006C2F83E794E00E94E50210928B04602F9A
:1014900047C0C560D0938B046C2F83E794E00E9413
:1014A000E50210928B046F2D8C2F0E94E605F82E1A
:1014B000000F111FF801E85FFA4F0190F081E02D55
:1014C000118102819081F501208122952695277056
:1014D000213011F0C0E001C0C0E4C92BD0938B04CF
:1014E000602F83E794E00E94E5026F2D802F0E9419
:1014F000E605082FD0938B04612F83E794E00E94C8
:10150000E502602F812F0E94E605182FD0938B04EF
:101510006C2F83E794E00E94E50210928B04612F08
:101520008C2FA4C0C960D0938B046C2F83E794E008
:101530000E94E5026F2D8C2F0E94E605C82F000F38
:10154000111FF801E85FFA4F0190F081E02D8080D3
:101550009180A280B38020E030E0A901C501B401F0
:101560000E94B21E18161CF4C501B40103C0C501C7
:10157000B40190580E942F1E8B0180E090E00E94E1
:10158000911B9B01AC01C501B4010E94491D2AE9D0
:1015900039E949E15FE30E94F21B20E030E543ECCA
:1015A00057E40E94F21B1B012C0120E030E0A9014E
:1015B0000E94B21E18161CF4C201B10103C0C20180
:1015C000B10190580E942F1E562EF72E812F817048
:1015D000F601EE0FFF1FEA55FB4F9081929596950D
:1015E0009770913011F090E001C090E2192F182B04
:1015F00020E030E0A901C501B4010E948C1B881FC6
:101600008827881F8295880F880F807C182BD0939D
:101610008B04652D83E794E00E94E5026C2F852DF5
:101620000E94E605C82FD0938B046F2D83E794E0CA
:101630000E94E5026C2F8F2D0E94E605C82FD093E3
:101640008B04602F83E794E00E94E5026C2F802FCB
:101650000E94E605C82FD0938B04612F83E794E0A6
:101660000E94E50210928B046C2F812F0E94E605E8
:10167000F82EC72D1ACEC0918405D0938B046C2F01
:1016800083E794E00E94E5026F2D8C2F0E94E6050F
:10169000B82E0C2F10E06801CC0CDD1C96012751F0
:1016A0003B4F4901F9012081922F9F71F8E09F9FE4
:1016B00070011124229526952770E22AD0938B047D
:1016C0006E2D83E794E00E94E50210928B046B2D4F
:1016D0008E2D0E94E605F82EF601E855FB4FD081CD
:1016E000AD2EB180772473942A2D2D1B30E0F401A8
:1016F00080818F7190E028173907A4F4F501E490F8
:1017000070928B046E2D83E794E00E94E5021092A4
:101710008B046F2D8E2D0E94E605F82EFFEFAF1A79
:10172000BF0AE2CF000F111FD801A853BB4FDC91B5
:101730000D2F11961C91960127513B4F6901BB2437
:10174000B394202F2D1B30E0F60180818295869581
:10175000877090E0281739079CF4F801E490B09264
:101760008B046E2D83E794E00E94E50210928B04B7
:101770006F2D8E2D0E94E605F82E0F5F1F4FE1CFD3
:10178000CF5FC09384058C2F90E02091A604309108
:10179000A7048217930714F0109284050E945E0438
:1017A00060935005709351058093520590935305B3
:1017B00061E08F2D0E949C06E0915405F091550543
:1017C000099560E08EEF0E949C06CEE2D5E01C2FCA
:1017D000105E61E089910E949C061C13FACF60E0C4
:1017E0008FEF0E949C0681E0DF91CF911F910F91B6
:1017F000FF90EF90DF90CF90BF90AF909F908F9031
:101800007F906F905F904F903F902F900895CF9270
:10181000DF92EF92FF920F931F93CF93DF939091FC
:1018200062059F3F39F48EBD00000DB407FEFDCF69
:101830008EB544C0E82EC7E0D0E0D12C01E010E026
:10184000DD0C60E0809162050E94F203B8010C2E6D
:1018500001C0660F0A94EAF76E21809160050E942C
:10186000F20361E0809162050E94F203209161051C
:1018700030E0F901EF54FD4F8491F901E356FD4F3B
:10188000C490F901E757FD4FF490FF2071F08111EA
:101890000E94C903EF2DF0E0EE0FFF1FE158FD4F4E
:1018A000A591B491EC91EC2129F4219708F0C8CFCF
:1018B0008D2D04C08D2D8160D82EF7CFDF91CF9173
:1018C0001F910F91FF90EF90DF90CF90089590912E
:1018D000A7039111FCCF613208F060E291E0909390
:1018E000A7039093A6032FEF2093A5031092A403C0
:1018F000260F2093A3039093A2039091A203880F35
:10190000892B8093A2038091A103813061F410920E
:10191000A1038091A2038093BB008091BC0083FD52
:10192000F8CF85EC01C085EE8093BC008091A703C1
:101930008130E1F38091A403861710F46091A40331
:10194000A1E8B3E02AEA33E0F9018E2F821B861763
:1019500018F48D918193F9CF1092A9036093A80395
:10196000862F08952091800390917F03213208F003
:101970004AC08091A7038111FCCF32E03093A703C6
:1019800031E03093A6033FEF3093A5031092A403F8
:101990002093A303AFE5B3E041E853E0FA013E2F03
:1019A000341B321718F43D913193F9CF1092A203F2
:1019B0002091A203990F922B9093A2039091A103DF
:1019C000913061F41092A1039091A2039093BB0017
:1019D0009091BC0093FDF8CF95EC01C095EE9093EB
:1019E000BC009091A7039230E1F39091A5039F3F33
:1019F00079F08091A503803241F08091A503803376
:101A000031F084E005C081E003C082E001C083E0E2
:101A100010925E031092800310925D030895FC0102
:101A2000538D448D252F30E0842F90E0821B930B43
:101A3000541710F0CF96089501970895FC01918DE9
:101A4000828D981761F0828DDF01A80FB11D5D9620
:101A50008C91928D9F5F9F73928F90E008958FEF8E
:101A60009FEF0895FC01918D828D981731F0828D42
:101A7000E80FF11D858D90E008958FEF9FEF089599
:101A8000FC01918D228D892F90E0805C9F4F821BFD
:101A900091098F739927089580E090E0892B29F0B0
:101AA0000E94DB0281110C9400000895CF92DF9216
:101AB000EF92FF92CF93C82F80915F058F3F09F07F
:101AC00040C08091560591E090935D0380937F0321
:101AD00010925E03109280036C2F87E694E00E94C0
:101AE00048020E94B20C63E0809156050E94670C88
:101AF00087E694E00E94FC016C01990FEE08FF0854
:101B0000FE2CED2CDC2CCC2487E694E00E94FC011A
:101B1000AC01990F660B770BC42AD52AE62AF72A5F
:101B2000FE2CED2CDC2CCC2487E694E00E94FC01FA
:101B3000AC01990F660B770BC42AD52AE62AF72A3F
:101B400033C0809162058F3F21F481E590E00E94CF
:101B5000B50460E080915F050E94F2038C2F8068DD
:101B60000E94070C80E00E94070CC82ED12CE12CAB
:101B7000F12CFE2CED2CDC2CCC2480E00E94070CF8
:101B8000C82AFE2CED2CDC2CCC2480E00E94070C13
:101B9000C82A61E080915F050E94F203809162058E
:101BA0008F3F11F40E94B404C701B601CF91FF909A
:101BB000EF90DF90CF900895CF93DF93C82F80915F
:101BC0005F058F3F39F58091560591E090935D0355
:101BD00080937F0310925E03109280036C2F87E640
:101BE00094E00E9448020E94B20C62E08091560587
:101BF0000E94670C87E694E00E94FC01C82F87E6EC
:101C000094E00E94FC0120E030E03C2FE901C82B69
:101C1000D92B29C0809162058F3F21F481E590E0A6
:101C20000E94B50460E080915F050E94F2038C2F52
:101C300080680E94070C80E00E94070CC82F80E09B
:101C40000E94070C2C2F30E0322F2227E901C82BED
:101C500061E080915F050E94F203809162058F3FF1
:101C600011F40E94B4049C2F8D2FDF91CF91089521
:101C7000CF92DF92FF920F931F93CF93DF93209128
:101C8000A6043091A70420313105CCF56B01890100
:101C90000F5F1F4FF801EE0FFF1FEA55FB4F9183B7
:101CA0008083F901EE0FFF1FE853FB4F71836083C0
:101CB000F901EE0FFF1FE85FFA4F11821082220F29
:101CC000331FE901C851DB4F18820E944E1B982F29
:101CD0009F718981807EF82EF92AC6010E944E1BD1
:101CE0008295880F807E9F2D9F71F92EF82AF982A8
:101CF0001093A7040093A6048FEF800F01C08FEF0D
:101D0000DF91CF911F910F91FF90DF90CF900895B9
:101D1000CF93DF9383E794E00E948606C3E7D4E085
:101D200061E08C850E94220461E08C85DF91CF9177
:101D30000C94F2038091900490919104892B31F1DD
:101D4000809187059091880524E083379207F1F010
:101D5000009711F00E94860680918A048E7F8093FE
:101D60008A04109286051092850583E794E090938B
:101D7000880580938705E0918604F091870490811F
:101D800080918804892B808381E0089580E0089504
:101D90000F931F93CF93DF938C01EB010E944E1B97
:101DA000AEE2B5E090E020E2981740F4A8014F5F62
:101DB0005F4FF80104910C938A0101C02C939F5F3F
:101DC0001196903189F7CE010E944E1BAEE3B5E02B
:101DD00090E020E2981740F4AE014F5F5F4FFE01A4
:101DE000C491CC93EA0101C02C939F5F119690316E
:101DF00089F7DF91CF911F910F910895CF93DF93D2
:101E0000FC0101900020E9F73197E81B20E030E069
:101E1000F0E2A90148575F4F2E1748F4EA01CA556E
:101E2000DB4FDC01A20FB31FAC91A88304C0DA0121
:101E3000AA55BB4FFC932F5F3F4F2031310549F727
:101E4000FB0101900020E9F73197E61B80E090E06C
:101E500040E29C0128563F4F8E1748F4E901CA55CD
:101E6000DB4FDB01A80FB91F5C91588304C0D90177
:101E7000AA55BB4F4C9301968031910551F7DF91E4
:101E8000CF9108958F929F92AF92BF92CF92DF929F
:101E9000EF92FF928AEF0E94560DE6E5F5E0458548
:101EA00056854A01A12CB12CC72ED82EE92EFF242D
:101EB000E7FCFA94C818D908EA08FB08DC01CB0152
:101EC00037E0B595A795979587953A95D1F7B501E0
:101ED000A401440F551F661F771F4C015D01841A32
:101EE000950AA60AB70AA5019401A785B0890E94A0
:101EF00075204B015C013BE0B594A79497948794BF
:101F00003A95D1F7A7019601C701B6010E94C61CF8
:101F10009B01AC016CE055954795379527956A95DF
:101F2000D1F7A189B2890E947520DC01CB017EE046
:101F3000B595A795979587957A95D1F7A5019401C1
:101F4000280F391F4A1F5B1F25833683478350871D
:101F5000A5E0B0E00E94F81CDC01CB0180589F4F47
:101F6000AF4FBF4F692F7A2F8B2F992787FD9A95F7
:101F70000E94931B20E030E048EC52E40E94B61D22
:101F8000FF90EF90DF90CF90BF90AF909F908F9099
:101F900008952F923F924F925F926F927F928F920D
:101FA0009F92AF92BF92CF92DF92EF92FF920F93E8
:101FB0001F93CF93DF93CDB7DEB7A2970FB6F894F8
:101FC000DEBF0FBECDBF0E94420F87EF0E94560DAD
:101FD0006A8F7B8F8C8F9D8F80915B0590915C05C4
:101FE000A0915D05B0915E056C017D01FF0CCC08F0
:101FF000DC2C76019C01AD016C2D7C2D8C2D9C2D53
:10200000345F4140510961097109810991092AA38D
:1020100039A349835A836B837C838D839E835901C3
:102020006A017B018C010E947D202A8B3B8B4C8BAB
:102030005D8B6E8B7F8B888F998F809173058E8FD0
:10204000E0917405EF83F0917105FF8F8091720527
:102050008887E0916F05E8A3F0917005F987B0904B
:102060006C05A0906B051B2D110F110BC12ED12EED
:10207000E12EF12E012F2AA139A149815A816B81CC
:102080007C818D819E810E947D200CE00E947621C2
:1020900019012A013B014C01B0906E05A0906D051D
:1020A0001B2D110F110BC12ED12EE12EF12E012F60
:1020B0002A893B894C895D896E897F89888D998DB4
:1020C0000E947D2008E00E948F215101620173016E
:1020D00084010E94AD2170588F4F9F4F2090690559
:1020E00030906A055101C12CD12CE12CF12C00E07B
:1020F00010E00E947D2001E20E948F212A873B8709
:102100004C875D876E877F87888B998BA0E00E94C4
:10211000BF2109F45EC1AE8C1F81110F110BBF806E
:10212000C12ED12EE12EF12E012F2A893B894C8917
:102130005D896E897F89888D998D0E947D20190126
:102140002A013B014C01AF8C1885110F110BB8848B
:10215000C12ED12EE12EF12E012F2AA139A14981C4
:102160005A816B817C818D819E810E947D2001E15D
:102170000E94762159016A017B018C019101A20123
:10218000B301C4010E94AD2119012A013B014C0198
:102190004A8D5B8D6C8D7D8D84E075956795579527
:1021A00047958A95D1F780E090E0A0E1B0E0841BEC
:1021B000950BA60BB70B6C017D01FF0CCC08DC2C3A
:1021C00076019C01AD016C2D7C2D8C2D9C2D0FE199
:1021D0000E947621F901B42FA52F6C837D8389831A
:1021E0009A8328A19985990F990B3985492F592FE1
:1021F000692F792F892F03E20E94762159016A0104
:102200007B018C019101A201B301C4010E94AD21A7
:1022100059016A017B018C019F014B2F5A2F6C8160
:102220007D8189819A810E94B6214901542E652EB3
:10223000B62FA72FF82FE92F03E00E947621540133
:10224000C52CD62CEB2EFA2E0F2F1E2F0E94B62156
:1022500059016A017B01782E192F03E00E94762133
:10226000072D0E94B62103E00E9476215401C52C5F
:10227000D62CEB2EFA2E0F2F1E2F0E94B62102E035
:102280000E9476210F2F0E94B62101E00E94762144
:102290000F2F0E94B621AA84BB84CC84DD84EE84F7
:1022A000FF84088919890E94D82028873F834983A1
:1022B0005A836B837C838D839E830DE00E948F21E4
:1022C000922E832E742E652E562E472E382E292EB2
:1022D00030917A0520917905932F990F990BA92CAC
:1022E000B82CC72CD62CE52CF42C032D122D492FFD
:1022F000592F692F792F892F0E947D200E947D20E0
:1023000009E10E948F2159016A017B018C01288516
:102310003F8149815A816B817C818D819E810E94A0
:10232000AD2119012A013B014C0130917805209122
:102330007705932F990F990BA884BF80C980DA8005
:10234000EB80FC800D811E81492F592F692F792F39
:10235000892F0E947D2003E10E948F2159016A018B
:102360007B018C019101A201B301C4010E94AD2146
:1023700008E00E948F21522E632E742E852E962EF9
:10238000F72FE82FB92F3091760520917505932FFF
:10239000990F990B492F592F692F792F892F04E015
:1023A0000E94762159016A017B018C01252D362D71
:1023B000472D582D692D7F2F8E2F9B2F0E94AD21E9
:1023C0000E945E1E20E030E040E85BE30E94F21BCA
:1023D00003C060E070E0CB01A2960FB6F894DEBFB8
:1023E0000FBECDBFDF91CF911F910F91FF90EF9066
:1023F000DF90CF90BF90AF909F908F907F906F9025
:102400005F904F903F902F900895FC01848DDF01E5
:10241000A80FB11DA35ABF4F2C91848D90E0019657
:102420008F739927848FA689B7892C93A089B18946
:102430008C9180648C93938D848D981306C0028850
:10244000F389E02D80818F7D80830895EF92FF9244
:102450000F931F93CF93DF93EC0181E0888F9B8DC7
:102460008C8D981305C0E889F989808185FD24C089
:10247000F62E0B8D10E00F5F1F4F0F731127E02E0C
:102480008C8DE8120CC00FB607FCFACFE889F989E9
:10249000808185FFF5CFCE010E940512F1CF8B8D93
:1024A000FE01E80FF11DE35AFF4FF0820B8FEA891E
:1024B000FB898081806207C0EE89FF896083E8899B
:1024C000F98980818064808381E090E0DF91CF9101
:1024D0001F910F91FF90EF900895CF93DF93EC0140
:1024E000888D8823C9F0EA89FB89808185FD05C034
:1024F000A889B9898C9186FD0FC00FB607FCF5CF6E
:10250000808185FFF2CFA889B9898C9185FFEDCFB5
:10251000CE010E940512E7CFDF91CF910895CF93AE
:10252000DF93CDB7DEB7C454D1090FB6F894DEBF40
:102530000FBECDBF789484B5826084BD84B58160C0
:1025400084BD85B5826085BD85B5816085BD80917E
:102550006E00816080936E001092810080918100F6
:1025600082608093810080918100816080938100EE
:10257000809180008160809380008091B1008460B0
:102580008093B1008091B00081608093B000809111
:102590007A00846080937A0080917A0082608093D0
:1025A0007A0080917A008E7F80937A0080917A0001
:1025B000806880937A001092C10061E08DE00E94F3
:1025C000220461E08DE00E94F20361E083E00E945A
:1025D000220460E083E00E94F20380913D0190912B
:1025E0003E01909301018093000166E971E084EA65
:1025F00091E00E94C80E8CE891E09093A90480932A
:10260000A8041092C9041092C804109209051092EF
:1026100008051092E80489E08093E90481E090E0E5
:102620009093A7048093A60461E083E00E94F203E4
:1026300061E083E00E94220410EAE12E12E0F12E14
:10264000F7018491809383040CE812E0F8018491EF
:1026500090E0880F991F88509F4FFC01259134917D
:10266000309385042093840460E083E00E94220478
:1026700061E083E00E94F20383E080937F04F7012E
:10268000E490E0928004F8010491E02FF0E0EE0F76
:10269000FF1FE158FD4F85919491909382048093A0
:1026A000810481E08093890487EC90E09093950405
:1026B0008093940422E530E030938D0420938C04C1
:1026C00025EC30E030938F0420938E044FE152E0EC
:1026D0005093910440939004309393042093920478
:1026E000209168002460209368002DE630E030934C
:1026F00087042093860428E0209388040197F1F74B
:102700000E949A0E0E94880E80E090E00E94B01C09
:1027100090E09093400180933F018E5F9109029772
:1027200020F41092400110923F0180913F0190915E
:102730004001892B09F069C06FE771E081E891E001
:102740000E94380E803188F490E0FC01EE0FFF1FEC
:10275000E85FFA4F27E431E031832083880F991F27
:10276000FC01E851FB4F88E0808364E771E086E775
:1027700091E00E94380E803188F490E0FC01EE0F69
:10278000FF1FE85FFA4F23E431E031832083880F95
:10279000991FFC01E851FB4F88E080836AE671E0F5
:1027A0008EE691E00E94380E803188F490E0FC01C2
:1027B000EE0FFF1FE85FFA4F2FE431E031832083F3
:1027C000880F991FFC01E851FB4F88E280836DE57B
:1027D00071E081E691E00E94380E803188F490E04B
:1027E000FC01EE0FFF1FE85FFA4F2FEE32E031835E
:1027F0002083880F991FFC01E851FB4F88E48083F8
:102800006EE471E081E591E068C060E471E083E42A
:1028100091E00E94380E803188F490E0FC01EE0FC8
:10282000FF1FE85FFA4F27E431E031832083880FF0
:10283000991FFC01E851FB4F88E0808364E371E05D
:1028400087E391E00E94380E803188F490E0FC012B
:10285000EE0FFF1FE85FFA4F23E431E0318320835E
:10286000880F991FFC01E851FB4F88E0808369E2E3
:1028700071E08EE291E00E94380E803188F490E0A1
:10288000FC01EE0FFF1FE85FFA4F2FE431E03183C8
:102890002083880F991FFC01E851FB4F88E2808359
:1028A0006BE171E080E291E00E94380E803188F4A3
:1028B00090E0FC01EE0FFF1FE85FFA4F2FEE32E0D1
:1028C00031832083880F991FFC01E851FB4F88E476
:1028D00080836CE071E08FE091E00E94380E8031DF
:1028E00088F490E0FC01EE0FFF1FE85FFA4F23EF42
:1028F00032E031832083880F991FFC01E851FB4FA0
:1029000088E4808386E78093560580915F058F3F3A
:1029100041F51092A9031092A80310925E03109241
:1029200080031092A70381E08093A6031092A10375
:1029300061E082E10E94F20361E083E10E94F20320
:102940008091B9008E7F8093B9008091B9008D7F0E
:102950008093B90080E28093B80085E48093BC0046
:102960004EC061E00E94F20361E080915F050E9429
:102970002204809162058F3F09F034C01FB7F8949C
:1029800080913A01811127C0E3E9F2E08491E7EAFE
:10299000F2E09491E82FF0E0EE0FFF1FEE5FFE4FA4
:1029A000A591B491EC91E92321F461E08AE00E94C1
:1029B000F20361E08AE00E9422048CB580618CBD44
:1029C0008CB580648CBD61E08DE00E94220461E0E2
:1029D0008BE00E94220480913A018F5F80933A013C
:1029E0001FBF0DC061E00E94220461E0809160057C
:1029F0000E94220460E0809161050E94220480917F
:102A00005F058F3FE9F48091560591E090935D0357
:102A100080937F0310925E031092800360ED87E63F
:102A200094E00E9448020E94B20C61E08091560539
:102A30000E94670C87E694E00E94FC01182F1FC0DB
:102A4000809162058F3F21F481E590E00E94B504FA
:102A500060E080915F050E94F20380ED0E94070C08
:102A600080E00E94070C182F61E080915F050E94B2
:102A7000F203809162058F3F11F40E94B40418356F
:102A800009F08EC088E80E94DC0D90936405809365
:102A900063058AE80E94DC0D9093660580936505C6
:102AA0008CE80E94DC0D90936805809367058EE8A2
:102AB0000E94DC0D90936A058093690580E90E946D
:102AC000DC0D90936C0580936B0582E90E94DC0D10
:102AD00090936E0580936D0584E90E94DC0D9093C0
:102AE000700580936F0586E90E94DC0D9093720556
:102AF0008093710588E90E94DC0D909374058093A2
:102B000073058AE90E94DC0D909376058093750524
:102B10008CE90E94DC0D90937805809377058EE90F
:102B20000E94DC0D90937A058093790580915F0572
:102B30008F3FC1F48091560591E090935D0380939F
:102B40007F0310925E031092800364EF87E694E0A7
:102B50000E9448026FE387E694E00E9448020E94C8
:102B6000B20C1EC0809162058F3F21F481E590E098
:102B70000E94B50460E080915F050E94F20384E743
:102B80000E94070C8FE30E94070C61E080915F05B3
:102B90000E94F203809162058F3F11F40E94B404F9
:102BA0000E942F0860E08DE00E94F20386E0282E4C
:102BB000312C0E94C90F20E030E048EC52E40E9422
:102BC000B61D20E030E54DE754E40E94B61D21E03B
:102BD0003EED42E45EE30E94B71E9B01AC0160E063
:102BE00070E080E89FE30E94491D20E03AE24DE258
:102BF00057E40E94F21B0E94281E6B017C01609327
:102C0000F7027093F8028093F9029093FA020E94FF
:102C1000420F20E030E048EC52E40E94F21B0E9498
:102C2000281E6093F3027093F4028093F502909350
:102C3000F6020E94C90F0E94281E6093EF02709353
:102C4000F0028093F1029093F20280909E049090A3
:102C50009F04A090A004B090A104A5019401C70115
:102C6000B6010E94C61C6B017C0124E630E040E006
:102C700050E0281939094A095B096091A204709152
:102C8000A3048091A4049091A5040E94C61C6C0D1D
:102C90007D1D8E1D9F1D24E630E040E050E00E9427
:102CA00050202093A2043093A3044093A404509393
:102CB000A5040E945E040E94911B6B017C0120917F
:102CC000A2043091A3044091A4045091A50429AB1F
:102CD0003AAB4BAB5CAB2093EB023093EC024093EE
:102CE000ED025093EE02EFE1F2E0A3E5B1E04481A2
:102CF00055816681778141935193619371931496C5
:102D00004D915D916D917C9117974D935D936D936E
:102D10007D9332E0E335F30751F7AAE0B0E029A94B
:102D20003AA94BA95CA90E94F81C0E94931B6093CE
:102D30005302709354028093550290935602C092AE
:102D40008701D0928801E0928901F0928A018091F6
:102D50005F0190916001A0916101B091620125969F
:102D60008CAF9DAFAEAFBFAF259700E010E0412C18
:102D7000512C320149AE5AAE6BAE7CAE730162018A
:102D80004DAA5EAA6FAA78AEF801ED5AFE4F2596BD
:102D90002CAD3DAD4EAD5FAD2597648575858685BF
:102DA00097850E94491D4B015C01F801E15EFD4FD2
:102DB000248535854685578521962CAF3DAF4EAF8E
:102DC0005FAF21970E94F21B9B01AC016DA97EA908
:102DD0008FA998AD0E944A1D6DAB7EAB8FAB98AFAB
:102DE000A5019401C701B6010E944A1D6B017C0137
:102DF00021962CAD3DAD4EAD5FAD219769AD7AAD5D
:102E00008BAD9CAD0E944A1D69AF7AAF8BAF9CAF72
:102E1000A5019401C501B4010E94F21B9B01AC0104
:102E2000C301B2010E944A1D2B013C010C5F1F4FE0
:102E30000832110509F0A8CF20E030E040E251E46B
:102E40006DA97EA98FA998AD0E94F21B4B015C0170
:102E500029AD3AAD4BAD5CADC701B6010E94F21B86
:102E60009B01AC01C501B4010E94491D20E030E086
:102E70004AE754E40E94F21B4B015C0120E030E081
:102E800040E251E4C301B2010E94F21B2B013C015C
:102E9000A7019601C701B6010E94F21B9B01AC017C
:102EA000C301B2010E94491D9B01AC01C501B401DF
:102EB0000E94B61D0E94281E6B017C018090960422
:102EC00090909704A0909804B0909904A501940163
:102ED0000E94C61C2B013C0124E630E040E050E09B
:102EE000281939094A095B0960919A0470919B0479
:102EF00080919C0490919D040E94C61C640D751DD8
:102F0000861D971D24E630E040E050E00E945020EE
:102F100020939A0430939B0440939C0450939D0407
:102F2000C0924F01D0925001E0925101F0925201B3
:102F300080914B0190914C01A0914D01B0914E01B7
:102F400029A93AA94BA95CA9281B390B4A0B5B0B91
:102F500020934701309348014093490150934A011F
:102F600089A99AA9ABA9BCA9809343019093440174
:102F7000A0934501B0934601809141019091420197
:102F80008431910569F429A93AA94BA95CA9209338
:102F90004B0130934C0140934D0150934E0103C0BF
:102FA00088329105ECF4019690934201809341019F
:102FB00010924701109248011092490110924A0163
:102FC0001092430110924401109245011092460163
:102FD00010924F0110925001109251011092520123
:102FE00080913F0190914001019709F088C0609164
:102FF0004701709148018091490190914A010E94D6
:10300000931B2FEB3EE04CE95EE30E94B61D0E944D
:10301000281E609347017093480180934901909363
:103020004A01609143017091440180914501909162
:1030300046010E94931B2FEB3EE04CE95EE30E94A9
:10304000B61D0E94281E6093430170934401809333
:1030500045019093460160914F017091500180911C
:103060005101909152010E94931B2FEB3EE04CE9DD
:103070005EE30E94B61D0E94281E60934F0170936C
:10308000500180935101909352016091EF02709131
:10309000F0028091F1029091F2020E94931B2DEDBB
:1030A00038EE41EF5CE30E94F21B0E94281E609301
:1030B000EF027093F0028093F1029093F20260911C
:1030C000F3027091F4028091F5029091F6020E9451
:1030D000931B26E636E646EE5FE30E94F21B20E0F5
:1030E00030E040E052E40E944A1D0E94281E609396
:1030F000F3027093F4028093F5029093F602E0914C
:103100003D01F0913E01E530F10521F010923C01C6
:1031100010923B0180910001909101018E179F0751
:1031200021F0F0930101E0930001E730F10508F090
:103130001CC1EC5CFF4F0C946F2061E672E08FE6DF
:1031400092E00E94C80E11C119A2198A69E572E0C5
:10315000CE0181960E94431B1982609147017091B4
:1031600048018091490190914A010E94931BAB0153
:10317000BC0120E030E0CE0101960E94AF06BE0106
:103180006F5F7F4FCE0181960E94E42180913F01C5
:1031900090914001019719F466E572E002C064E580
:1031A00072E0CE0181960E94431B6CE472E0CE0176
:1031B00041960E94431B198260914F01709150010A
:1031C00080915101909152010E94931B20E030E0C8
:1031D00040E251E40E94B61DAB01BC0121E030E0A9
:1031E000CE0101960E94AF06BE016F5F7F4FCE01F8
:1031F00041960E94E42180913F0190914001019706
:1032000019F467E472E0A6C063E472E0A3C019A2F7
:10321000198A6CE372E0CE0181960E94431B1982E9
:103220006091F3027091F4028091F5029091F602A0
:103230000E94931B20E030E048EC52E40E94B61D4F
:10324000AB01BC0122E030E0CE0101960E94AF0646
:10325000BE016F5F7F4FCE0181960E94E421809175
:103260003F0190914001019719F469E372E002C0B7
:1032700066E372E0CE0181960E94431B6FE272E02A
:10328000CE0141960E94431B19826091EF0270911A
:10329000F0028091F1029091F2020E94931B20E0D3
:1032A00030E048EC52E40E94B61DAB01BC0121E0C5
:1032B00030E0CE0101960E94AF06BE016F5F7F4FE6
:1032C000CE0141960E94E42180913F0190914001FE
:1032D000019719F46AE272E03DC066E272E03AC01A
:1032E00019A2198A67E172E0CE0181960E94431B00
:1032F0006EE072E02FC019A2198A65E072E0CE017B
:1033000081960E94431B80913F019091400101975B
:1033100019F462E072E002C06FEF71E0CE018196B5
:103320000E94431B64EF71E015C019A2198A63EE75
:1033300071E0CE0181960E94431B64ED71E00AC0EA
:1033400019A2198A64EC71E0CE0181960E94431B98
:1033500064EB71E0CE0141960E94431BBE016F5E9B
:103360007F4FCE0181960E94FE0E83E794E00E947B
:1033700086060E94880E0E942F0860E080917F04DC
:103380000E94220461E080917F040E94F2030E9467
:103390009A0E0E949A0E0E945E046B017C0134E634
:1033A000C30ED11CE11CF11C00E010E00E945E0481
:1033B0006C157D058E059F0578F583E794E00E94E6
:1033C0009D021816190694F783E794E00E949D0267
:1033D0001816190614F000E01AC083E794E00E9462
:1033E000B402082F80914F0580139BC080902A055E
:1033F00090902B05A0902C05B0902D050E945E04A6
:1034000086169706A806B90608F48BC0E4CF10E02C
:103410000115110559F29DC0003F110509F47EC048
:103420000115110509F47AC00039110509F467C0C6
:1034300024F40037110591F071C0003B110539F1FA
:10344000003E110509F06AC080913D0190913E0156
:103450008530910509F462C0019614C080913D0148
:1034600090913E01069731F481E090E090933E0107
:1034700080933D0180913D0190913E01009709F4B8
:103480004DC0019790933E0180933D0147C08091CC
:103490003D0190913E010397A1F48091EB02909140
:1034A000EC02A091ED02B091EE0280934B0190935B
:1034B0004C01A0934D01B0934E0130923E012092F9
:1034C0003D0180913D0190913E01049739F5809135
:1034D0003F0190914001892B39F481E090E0909375
:1034E000400180933F0104C01092400110923F01BF
:1034F00044E050E050933E0140933D010FC0809165
:103500003D0190913E01059749F460913F0180E0B3
:1035100090E00E94B81CE0E0F0E009950E944C0D9C
:1035200048CB0E945E04DC01CB0180579E4FAF4F19
:10353000BF4F80932A0590932B05A0932C05B09341
:103540002D0500934F05003F09F061CF00EF10E01B
:103550002DCF003F110509F067CFE0CF8BE291E05E
:10356000909374048093730483E794E00C9486062C
:10357000EAECF3E01382128288EE93E0A0E0B0E080
:1035800084839583A683B78327E031E0318320834A
:1035900025EC30E03587248724EC30E03787268718
:1035A00020EC30E0318B208B21EC30E0338B228B10
:1035B00022EC30E0358B248B26EC30E0378B268BE9
:1035C000118E128E138E148EE7E6F4E013821282AF
:1035D00084839583A683B78329E131E031832083F7
:1035E000E3E7F4E01382128284839583A683B78392
:1035F0008BE291E091838083AAE8B4E08C918E7F86
:103600008C93128E118E148E138E168E158E12A21E
:1036100011A2E6E5F5E08FEF8187828783878487B3
:1036200010922A0510922B0510922C0510922D0550
:10363000109228051092A7041092A6041092290552
:1036400087E792E09093550580935405EEE9F4E006
:1036500082E390E0A0E0B0E080839183A283B38313
:103660001482158216821782E6E9F4E080E590E084
:10367000A0E0B0E080839183A283B383148215829B
:10368000168217820895FB01DC010D900020E9F7F6
:10369000119705900D920020E1F70895FC01059027
:1036A0000020E9F7809590958E0F9F1F0895BB2706
:1036B0004A3031F4992322F4BDE2909581959F4FD1
:1036C0000C94631BBB27FB015527AA27880F991F62
:1036D000AA1FA41710F0A41B83955051B9F7A05D41
:1036E000AA3308F0A95DA193009779F7B111B193BE
:1036F0001192CB010C947C1BDC01FC01672F7191B2
:103700007723E1F7329704C07C916D9370836291C7
:10371000AE17BF07C8F308950E94CE1B08F481E0DE
:103720000895E89409C097FB3EF4909580957095B4
:1037300061957F4F8F4F9F4F9923A9F0F92F96E9FD
:10374000BB279395F695879577956795B795F11172
:10375000F8CFFAF4BB0F11F460FF1BC06F5F7F4F0F
:103760008F4F9F4F16C0882311F096E911C0772321
:1037700021F09EE8872F762F05C0662371F096E82A
:10378000862F70E060E02AF09A95660F771F881FF9
:10379000DAF7880F9695879597F90895990F00089D
:1037A000550FAA0BE0E8FEEF16161706E807F90713
:1037B000C0F012161306E407F50798F0621B730BAE
:1037C000840B950B39F40A2661F0232B242B252B2F
:1037D00021F408950A2609F4A140A6958FEF811DD2
:1037E000811D08950E94051C0C94761C0E94681C83
:1037F00038F00E946F1C20F0952311F00C945F1C90
:103800000C94651C11240C94AA1C0E94871C70F354
:10381000959FC1F3950F50E0551F629FF001729F75
:10382000BB27F00DB11D639FAA27F00DB11DAA1F84
:10383000649F6627B00DA11D661F829F2227B00DD1
:10384000A11D621F739FB00DA11D621F839FA00D5C
:10385000611D221F749F3327A00D611D231F849FAC
:10386000600D211D822F762F6A2F11249F57504003
:103870009AF0F1F088234AF0EE0FFF1FBB1F661F7E
:10388000771F881F91505040A9F79E3F510580F047
:103890000C945F1C0C94AA1C5F3FE4F3983ED4F395
:1038A000869577956795B795F795E7959F5FC1F7EB
:1038B000FE2B880F911D9695879597F9089597F996
:1038C0009F6780E870E060E008959FEF80EC0895C6
:1038D00000240A94161617061806090608950024EF
:1038E0000A9412161306140605060895092E039469
:1038F000000C11F4882352F0BB0F40F4BF2B11F4DD
:1039000060FF04C06F5F7F4F8F4F9F4F089557FD3B
:103910009058440F551F59F05F3F71F04795880F3D
:1039200097FB991F61F09F3F79F0879508951216D4
:1039300013061406551FF2CF4695F1DF08C0161680
:1039400017061806991FF1CF869571056105089431
:103950000895E894BB2766277727CB0197F9089548
:10396000F999FECF92BD81BDF89A992780B5089547
:10397000262FF999FECF1FBA92BD81BD20BD0FB68B
:10398000F894FA9AF99A0FBE01960895DB018F9385
:103990009F930E94F81CBF91AF91A29F800D911D33
:1039A000A39F900DB29F900D11240895A1E21A2EAD
:1039B000AA1BBB1BFD010DC0AA1FBB1FEE1FFF1FD3
:1039C000A217B307E407F50720F0A21BB30BE40B23
:1039D000F50B661F771F881F991F1A9469F760956A
:1039E0007095809590959B01AC01BD01CF01089524
:1039F0000E943A1DA59F900DB49F900DA49F800D2D
:103A0000911D112408952F923F924F925F926F92D1
:103A10007F928F929F92AF92BF92CF92DF92EF925E
:103A2000FF920F931F93CF93DF93CDB7DEB7CA1BDF
:103A3000DB0B0FB6F894DEBF0FBECDBF09942A880A
:103A4000398848885F846E847D848C849B84AA84B2
:103A5000B984C884DF80EE80FD800C811B81AA813F
:103A6000B981CE0FD11D0FB6F894DEBF0FBECDBF0A
:103A7000ED010895A29FB001B39FC001A39F700DF7
:103A8000811D1124911DB29F700D811D1124911D66
:103A900008955058BB27AA270E94611D0C94761CDC
:103AA0000E94681C38F00E946F1C20F039F49F3F80
:103AB00019F426F40C94651C0EF4E095E7FB0C94C5
:103AC0005F1CE92F0E94871C58F3BA17620773071F
:103AD0008407950720F079F4A6F50C94A91C0EF440
:103AE000E0950B2EBA2FA02D0B01B90190010C010E
:103AF000CA01A0011124FF27591B99F0593F50F426
:103B0000503E68F11A16F040A22F232F342F44277D
:103B1000585FF3CF469537952795A795F040539575
:103B2000C9F77EF41F16BA0B620B730B840BBAF045
:103B30009150A1F0FF0FBB1F661F771F881FC2F7B0
:103B40000EC0BA0F621F731F841F48F487957795C4
:103B50006795B795F7959E3F08F0B0CF9395880F7E
:103B600008F09927EE0F9795879508950E94CA1D32
:103B70000C94761C0E946F1C58F00E94681C40F048
:103B800029F45F3F29F00C945F1C51110C94AA1C7E
:103B90000C94651C0E94871C68F39923B1F355238C
:103BA00091F3951B550BBB27AA2762177307840750
:103BB00038F09F5F5F4F220F331F441FAA1FA9F3E6
:103BC00035D00E2E3AF0E0E832D091505040E695D4
:103BD000001CCAF72BD0FE2F29D0660F771F881F35
:103BE000BB1F261737074807AB07B0E809F0BB0B28
:103BF000802DBF01FF2793585F4F3AF09E3F51053C
:103C000078F00C945F1C0C94AA1C5F3FE4F3983E80
:103C1000D4F3869577956795B795F7959F5FC9F724
:103C2000880F911D9695879597F90895E1E0660FA5
:103C3000771F881FBB1F621773078407BA0720F01E
:103C4000621B730B840BBA0BEE1F88F7E095089587
:103C50000E942F1E6894B1110C94AA1C08950E9412
:103C60008F1C88F09F5798F0B92F9927B751B0F063
:103C7000E1F0660F771F881F991F1AF0BA95C9F7F0
:103C800014C0B13091F00E94A91CB1E008950C94C9
:103C9000A91C672F782F8827B85F39F0B93FCCF37C
:103CA000869577956795B395D9F73EF4909580956D
:103CB000709561957F4F8F4F9F4F089597FB16F436
:103CC0000E94A21E0C94651EE894F92F96EBFF2328
:103CD00081F0121613061406440B9395F6958795FA
:103CE0007795679557954040FF23B9F71BC09927F3
:103CF0000895882351F49850D2F7872B762F652F9B
:103D0000542F432F322F20E0B1F31216130614065E
:103D1000440B88233AF09A95440F551F661F771F6E
:103D2000881FCAF755234AF4440F551F11F460FF4A
:103D300004C06F5F7F4F8F4F9F4F880F9695879579
:103D400097F9089590958095709560955095409558
:103D5000309521953F4F4F4F5F4F6F4F7F4F8F4FA4
:103D60009F4F08950E94CE1B08F48FEF0895FA012B
:103D7000EE0FFF1F309621053105A1F16115710588
:103D800061F48038BFE39B0749F16894903881055E
:103D900061F08038BFEF9B0741F099234AF5FF3F60
:103DA000E1053105210519F1E8940894E795D90159
:103DB000AA2329F4AB2FBE2FF85FD0F310C0FF5F0A
:103DC00070F4A695E0F7F73950F019F0FF3A38F49F
:103DD0009F779F930DD00F9007FC9058089546F061
:103DE0000C94651C60E070E080E89FE308954FE765
:103DF0009F775F934F933F932F930E94B21F2F9112
:103E00003F914F915F910E94F21B0C940F1F29F478
:103E100016F00C945F1C0C94A91C0C94651C0E9459
:103E20008F1CA8F39638A0F707F80F92E8942BE3BD
:103E30003AEA48EB5FE70E94081C0F920F920F923C
:103E40004DB75EB70F920E94FA1FE6E7F0E00E94BE
:103E5000411F4F915F91EF91FF91E595EE1FFF1F7D
:103E600049F0FE57E0684427EE0F441FFA95E1F74A
:103E70004195550B0E94741F0F9007FE0C94681F0C
:103E80000895DF93CF931F930F93FF92EF92DF92EA
:103E90007B018C01689406C0DA2EEF010E94051C9C
:103EA000FE01E894A5912591359145915591A6F390
:103EB000EF010E94611DFE019701A801DA9469F7E4
:103EC000DF90EF90FF900F911F91CF91DF910895B8
:103ED0009B01AC0160E070E080E89FE30C94B61DAC
:103EE0000C945F1C0C942E200E948F1CD8F39923F5
:103EF000C9F3940F511DA3F39150504094F059F021
:103F0000882332F0660F771F881F91505040C1F709
:103F10009E3F51052CF7880F911D9695879597F92F
:103F200008955F3FACF0983E9CF0BB27869577954F
:103F30006795B79508F4B1609395C1F7BB0F58F733
:103F400011F460FFE8CF6F5F7F4F8F4F9F4FE3CF3C
:103F50000C94AA1C16F00C942E200C94651C6894EA
:103F60000C945F1C0E948F1CA8F39923C1F3AEF33D
:103F7000DF93CF931F930F93FF92C92FDD278823E1
:103F80002AF02197660F771F881FDAF720E030E0CC
:103F900040E85FEB9FE3883920F0803E38F02196BF
:103FA0008F770E944A1DEEE9F0E004C00E944A1D8E
:103FB000EBECF0E00E94411F8B01BE01EC01FB2EF7
:103FC0006F5771097595771F880B990B0E94931B8A
:103FD00028E132E741E35FE30E94051CAF2D980121
:103FE000AE01FF900F911F91CF91DF910E94611D53
:103FF0000C94761CFA01DC01AA0FBB1F9B01AC01DB
:10400000BF5728F4222733274427507820C0B751C0
:1040100090F4AB2F0024469537952795011CA39566
:10402000D2F3002071F0220F331F441FB395DAF34F
:104030000ED00C94491D61307105A0E88A07B9467D
:1040400030F49B01AC01662777278827907830965B
:1040500021F0208331834283538308959F3F31F0C1
:10406000915020F4879577956795B795880F911DA6
:104070009695879597F9089597FB072E16F4009467
:1040800007D077FD09D00E94CB2107FC05D03EF474
:10409000909581959F4F0895709561957F4F0895F4
:1040A000052E97FB1EF400940E94672057FD07D051
:1040B0000E94D61C07FC03D04EF40C946720509548
:1040C0004095309521953F4F4F4F5F4F0895909504
:1040D0008095709561957F4F8F4F9F4F0895EE0F9C
:1040E000FF1F0590F491E02D0994B7FF0C94F81C84
:1040F0000E94F81C821B930B0895DF93CF931F93AC
:104100000F939A9DF02D219FF00D8B9DF00D8A9DB0
:10411000E02DF10D039FF00D029FE00DF11D4E9D6E
:10412000E00DF11D5E9DF00D4F9DF00D7F936F939F
:10413000BF92AF925F934F93D5010E943A1D8B01BE
:10414000AC01D7010E943A1DEB01E80FF91FD6011F
:104150000E94CD202F913F91D6010E943A1DC60F9B
:10416000D71FE81FF91FAF91BF910E94CD202F915B
:104170003F910E943A1DC60FD71FE81FF91FD601B5
:104180000E943A1DE60FF71F9801BE01CF011124CE
:104190000F911F91CF91DF9108950E943A1D460F14
:1041A000571FC81FD91F08F431960895689401C09D
:1041B000E894F92FF12B12F00C940A21A0E0B0E062
:1041C000E4EEF0E20C94091D092E059422F40E94FD
:1041D0006621112392F4F0E80F26FFEFE094F094AB
:1041E00000951095B094C094D094A194BF0ACF0AC2
:1041F000DF0AEF0AFF0A0F0B1F0B0E94152107FCB5
:104200000E946621CDB7DEB7ECE00C94251D6894C2
:1042100001C0E8948F929F92CF93DF930E94152163
:10422000DF91CF919F908F90089588249924F40175
:10423000E401B0E49F93AA279A158B049C04ED0532
:10424000FE05CF05D007A10798F4AD2FDC2FCF2FA7
:10425000FE2FE92D982C892E982F872F762F652FEA
:10426000542F432F322F2227B85031F7BF9127C048
:104270001B2EBF91BB27220F331F441F551F661FE4
:10428000771F881F991F881C991CEE1FFF1FCC1FCA
:10429000DD1FAA1FBB1F8A149B04EC05FD05CE057C
:1042A000DF05A007B10748F08A189B08EC09FD0953
:1042B000CE09DF09A00BB10B21601A94E1F62EF4B0
:1042C0009401AF01BE01CD01000C08956095709579
:1042D0008095909530954095509521953F4F4F4F43
:1042E0005F4F6F4F7F4F8F4F9F4F08950F93083051
:1042F00090F0982F872F762F652F542F432F322F32
:1043000022270850F4CF220F331F441F551F661F6A
:10431000771F881F991F0A95B2F70F91089597FB91
:1043200010F8169400080F93083098F00850232FC7
:10433000342F452F562F672F782F892F902DF4CFAC
:1043400005949795879577956795579547953795F0
:1043500027950A95AAF70F9108952A0D3B1D4C1D2C
:104360005D1D6E1D7F1D801F911F08952A193B0939
:104370004C095D096E097F09800B910B089500249B
:10438000A7FD00942A17300540055005600570050B
:10439000800590050895AA1BBB1B51E107C0AA1F09
:1043A000BB1FA617B70710F0A61BB70B881F991FD6
:1043B0005A95A9F780959095BC01CD01089581E0AB
:1043C00090E0F8940C94EF21FB01DC010D900020AB
:1043D000E9F7119701900D920020E1F7089511E09F
:1043E000C4E6D1E004C0FE010E946F202196C536CC
:0843F000D107C9F7F894FFCFD3
:1043F8000100060000000026128F010F0D6D12400B
:104408000D1E0D320D0000000048021802D602EC05
:10441800011002FC01ED0100000000E5028F01D649
:0A442800029C029D02B4028402000F
:00000001FF
