:100000000C9457010C947F010C947F010C94E4052F
:100010000C94E4050C94E4050C947F010C947F018E
:100020000C947F010C947F010C947F010C947F0150
:100030000C947F010C947F010C947F010C947F0140
:100040000C945C040C947F010C9489030C9463035E
:100050000C947F010C947F010C947F010C947F0120
:100060000C94AA040C947F01301837189A180319BD
:100070000E192819331907634236B79BD8A71A39C6
:10008000685618AEBAAB558C1D3CB7CC5763BD6DE6
:10009000EDFD753EF6177231BF000000803F08008D
:1000A0000000BE922449123EABAAAA2ABECDCCCCF7
:1000B0004C3E00000080BEABAAAAAA3E0000000091
:1000C000BF000000803F0000000000084178D3BB63
:1000D0004387D1133D190E3CC3BD4282AD2B3E6810
:1000E000EC8276BED98FE1A93E4C80EFFFBE01C401
:1000F000FF7F3F00000000000000000025002800F6
:100100002B0000000000240027002A00B046005405
:10011000656D706572617475726500696E4847003F
:1001200050726573737572650066742F7300566143
:1001300072696F00667400416C746974756465005F
:10014000B0430054656D70657261747572650068C6
:100150007061005072657373757265006D2F730066
:10016000566172696F006D00416C746974756465E5
:100170000052435420566172696F0020202056615E
:1001800072696F6D657465720020524354204A6530
:10019000746920546F6F6C73005072657373203CE8
:1001A00020746F206578697400416C74697475649B
:1001B00065207A65726F65640050726573733A20CA
:1001C0005550202620444E005361766520616E64B0
:1001D0002072657374617274004368616E67653A7A
:1001E00020444E00455500555300556E6974733ACE
:1001F000202000507265737320444E00416C746976
:100200007475646520526573657400685061006997
:100210006E484700507265733A2000B04300B04604
:100220000054656D703A20006D2F730066742F7353
:1002300000566172696F3A20006D00667400416C6F
:100240007469743A2000202020566172696F6D65D0
:100250007465720020524354204A65746920546FBB
:100260006F6C7300000000002300260029000404C6
:10027000040404040404020202020202030303034E
:10028000030301020408102040800102040810202A
:100290000102040810200000000800020100000311
:1002A000040700000000000000004B1A411A11244E
:1002B0001FBECFEFD8E0DEBFCDBF25E0AAE3B1E09F
:1002C00001C01D92A538B207E1F711E0A0E0B1E04E
:1002D000EEE1F3E402C005900D92AA33B107D9F71D
:1002E00011E0C6E5D1E004C02197FE010E94022082
:1002F000C535D107C9F70E9482120C9482210C9453
:100300000000CF92DF92EF92FF920F931F93CF9353
:10031000DF936C017A018B01C0E0D0E0CE15DF05E0
:1003200089F0D8016D918D01D601ED91FC9101907C
:10033000F081E02DC6010995892B11F47E0102C0E0
:100340002196ECCFC701DF91CF911F910F91FF90C4
:10035000EF90DF90CF90089585ED8093BC00809161
:10036000BC0084FDFCCF1092A303089540912B03A1
:10037000262F30E0240F311D21323105DCF420918D
:10038000A3032430C9F4FC0180E090E0861758F400
:1003900030912B032191DC01A75FBC4FA30FB11D4E
:1003A0002C930196F3CF80912B03680F60932B035E
:1003B00080E0089581E0089582E008950895E09135
:1003C000A5038091A403E81730F4F0E0EA55FC4F50
:1003D000808190E008958FEF9FEF08959091A5039D
:1003E0008091A403981750F4E92FF0E0EA55FC4FF0
:1003F000208130E09F5F9093A50302C02FEF3FEF75
:10040000C90108958091A40390E02091A503821B67
:1004100091090895CF92DF92EF92FF920F931F936D
:10042000CF93DF937C01262F972F8A018091590368
:10043000882391F0C62FD72F6E01C40ED51ECC1580
:10044000DD0571F06991D701ED91FC910190F0818A
:10045000E02DC7010995F3CF642F822F0E94B601CA
:10046000C801DF91CF911F910F91FF90EF90DF9026
:10047000CF900895CF93DF931F92CDB7DEB76983F6
:10048000209159032223D1F020917C03203240F0A7
:1004900021E030E0FC013383228380E090E015C04E
:1004A00080915A03E82FF0E0E55AFC4F9981908340
:1004B0008F5F80935A0380937C0305C061E0CE0177
:1004C00001960E94B60181E090E00F90DF91CF91FC
:1004D00008950895DC015196ED91FC915297908119
:1004E00050968C918095892380830895209183056F
:1004F000309184052817390771F490918105809116
:100500008205981741F0E0918105F0E0E750FD4F3A
:10051000808190E008958FEF9FEF089508952091D6
:100520008305309184052817390769F48091820585
:100530002091810590E04096821B910960E170E076
:100540000E94CF1F089580E090E0089520918305D8
:100550003091840528173907B9F49091810580916D
:100560008205981789F0E0918105F0E0E750FD4F92
:1005700080812091810530E02F5F3F4F2F7033271E
:100580002093810590E008958FEF9FEF08950895DF
:1005900080E090E008950E94722186EC93E00E9432
:1005A000330D21E0892B09F420E0822F0895CF92AA
:1005B000DF92EF92FF920F931F93CF93DF93EC01A3
:1005C00089A19AA1009729F421E030E03B832A8396
:1005D00071C00FB7F8948F8D98A1892B91F028E006
:1005E00030E090E081E0482F462309F09F5F880FBC
:1005F00021503109C1F7888D81119F5F192F109506
:1006000001C010E0F62ECE010E946A0289A19AA1D3
:100610000197F1F788E0C82ED12CEE24E3948E2DBB
:100620008F2139F0E989FA8990818889892B808323
:1006300003C0CE010E946A0289A19AA10197F1F735
:10064000EE0C81E0C81AD10851F78E89882389F011
:10065000888D882339F0E989FA8990818889892BE6
:10066000808303C0CE010E946A0289A19AA10197EA
:10067000F1F78F8D98A1892B81F010FF07C0E989D0
:10068000FA8990818889892B808303C0CE010E94DA
:100690006A028F8D98A10197F1F7E989FA89908113
:1006A0008889892B80830FBF8D8D9E8D0197F1F7EF
:1006B00081E090E0DF91CF911F910F91FF90EF903B
:1006C000DF90CF9008951F920F920FB60F921124D2
:1006D0002F933F934F935F936F937F938F939F934A
:1006E000AF93BF93EF93FF9386EC93E00E94F811D2
:1006F000FF91EF91BF91AF919F918F917F916F91FA
:100700005F914F913F912F910F900FBE0F901F90CF
:1007100018951F920F920FB60F9211242F938F935B
:100720009F93EF93FF93E091D603F091D7038081DD
:10073000E091DC03F091DD0382FD12C09081809195
:10074000DF038F5F8F732091E003821751F0E091F8
:10075000DF03F0E0EA53FC4F958F8093DF0301C085
:100760008081FF91EF919F918F912F910F900FBEFC
:100770000F901F901895833081F028F4813099F004
:100780008230A1F008958730A9F08830B9F0843024
:10079000D1F4809180008F7D03C0809180008F779D
:1007A00080938000089584B58F7702C084B58F7DD3
:1007B00084BD08958091B0008F7703C08091B00010
:1007C0008F7D8093B00008951F93CF93DF93282FE0
:1007D00030E0F901EA56FD4F8491F901EE57FD4FE3
:1007E000D491F901E259FD4FC491CC23C9F0162FE1
:1007F00081110E94BB03EC2FF0E0EE0FFF1FE850C9
:10080000FF4FA591B4918FB7F894111105C09C9139
:10081000ED2FE095E92302C0EC91ED2BEC938FBF17
:10082000DF91CF911F910895CF93DF9390E0FC016A
:10083000EE57FD4F2491FC01E259FD4F849188232E
:1008400061F190E0880F991FFC01EE5FFE4FC591AA
:10085000D491FC01E850FF4FA591B491611109C0FA
:100860009FB7F8948881209582238883EC912E236A
:100870000BC0623061F49FB7F8943881822F809565
:1008800083238883EC912E2B2C939FBF06C08FB7B8
:10089000F894E8812E2B28838FBFDF91CF910895A4
:1008A0002FB7F894609155037091560380915703C8
:1008B000909158032FBF08951F920F920FB60F9279
:1008C00011242F933F938F939F93AF93BF93809166
:1008D000550390915603A0915703B091580330915E
:1008E000540326E0230F2D3720F40296A11DB11DDD
:1008F00005C029E8230F0396A11DB11D20935403C1
:100900008093550390935603A0935703B0935803D5
:100910008091500390915103A0915203B0915303E1
:100920000196A11DB11D8093500390935103A09394
:100930005203B0935303BF91AF919F918F913F9119
:100940002F910F900FBE0F901F90189508958CBD9A
:100950009DBD08951F920F920FB60F9211242F93F1
:100960003F934F935F936F937F938F939F93AF9337
:10097000BF93EF93FF938091B900887F803609F48D
:100980009CC068F5883209F45BC090F4803109F4AA
:1009900054C038F4882309F4F6C0883009F44DC0F7
:1009A000F6C0883109F44CC0803209F45DC0EFC054
:1009B000803409F468C048F4803309F455C08833A2
:1009C00009F0E5C08093A103D8C0803509F44FC079
:1009D000883509F45DC0883409F0D9C0D6C088399B
:1009E00009F4C7C0A8F4883709F467C038F488361A
:1009F00009F463C0803709F460C0C9C0883809F4BD
:100A0000B8C0803909F45FC0803809F0C0C05BC04D
:100A1000803B09F486C038F4803A09F466C0883A0D
:100A200009F47FC0B4C0803C09F4A7C0883C09F435
:100A3000A4C0883B09F48AC0AAC080919E0310C05C
:100A40009091A00380919F03981770F5E091A00307
:100A500081E08E0F8093A003F0E0E358FC4F80818B
:100A60008093BB0085EC86C08093A1038EC0E0918B
:100A7000A00381E08E0F8093A0038091BB00F0E083
:100A8000E358FC4F80839091A00380919F036EC038
:100A9000E091A00381E08E0F8093A0038091BB00C2
:100AA000F0E0E358FC4F80838091A20381116DC078
:100AB00081E080939D0384EA61C083E08093A30377
:100AC00010924F03CFCF80914F03803208F051C076
:100AD000E0914F0381E08E0F80934F038091BB0024
:100AE000F0E0E15DFC4F8083BDCF85EC8093BC00DE
:100AF0001092A30380914F03803230F4E0914F03B2
:100B0000F0E0E15DFC4F108260914F0370E0E091F6
:100B10002D03F0912E038FE293E0099510924F037D
:100B200036C084E08093A30310922C0310922B0311
:100B3000E0912903F0912A03099580912B038111FB
:100B400005C081E080932B0310920903E0912C03F0
:100B500081E08E0F80932C03F0E0E75FFC4F8081F3
:100B60008093BB0090912C0380912B03981708F47D
:100B700079CF85E88093BC000AC085EC8093BC00E7
:100B80001092A30304C01092A1030E94AC01FF9134
:100B9000EF91BF91AF919F918F917F916F915F91F5
:100BA0004F913F912F910F900FBE0F901F9018956E
:100BB000862798E027E087FF03C0880F822701C0BF
:100BC000880F9150C1F708951F920F920FB60F92A0
:100BD00011242F933F934F935F936F937F938F9342
:100BE0009F93AF93BF93CF93DF93EF93FF93E091E6
:100BF0008305F0918405309709F467C0C685D785D1
:100C000088812585822309F060C0818D928D0197AE
:100C1000F1F7438D548D68E070E030E081E0DA0157
:100C20001197F1F79881922311F0382B03C0982F78
:100C300090953923880F6150710989F78091820559
:100C400090E001968F70992760918105681749F0AF
:100C5000A0918205B0E0A750BD4F3C9380938205E0
:100C600003C087898160878B86898823F1F0CA0158
:100C70000197F1F78881282381E090E0A0E0B0E0BF
:100C800004C0880F991FAA1FBB1F2A95D2F7409155
:100C9000F7025091F80260E070E0842B952BA62BB0
:100CA000B72B9093F8028093F702878D90A100975D
:100CB00011F00197F1F7858D968D0197F1F7A389D2
:100CC000B4899C918589892B8C93FF91EF91DF9159
:100CD000CF91BF91AF919F918F917F916F915F91D4
:100CE0004F913F912F910F900FBE0F901F9018952D
:100CF000E0918305F0918405E817F90769F4A38969
:100D0000B4899C918589809589238C931092840560
:100D10001092830581E0089580E008950F931F935A
:100D2000CF93C82F0FE614E0F801608F682FC80139
:100D30000E94D702F801108E8C2FCF911F910F9136
:100D400008952F923F924F925F926F927F928F926F
:100D50009F92AF92BF92CF92DF92EF92FF920F934A
:100D60001F93CF93DF93CDB7DEB72A970FB6F894D2
:100D7000DEBF0FBECDBF8C012A013B013A87298718
:100D800020E030E0A901C301B2010E941F1B87FFD0
:100D900005C060E070E080E09FEB04C060E070E0C0
:100DA00080E09FE3E12CF12CA985BA85EA16FB06C9
:100DB00054F420E030E040E251E40E94491D2FEF5E
:100DC000E21AF20AF1CF9B01AC01C301B2010E9409
:100DD000DD1C6B017C0120E030E0A901C301B20100
:100DE0000E941F1B87FF04C0F7FAF094F7F8F094F5
:100DF000A12CB12CBDECB983ECECEA83FCECFB83B9
:100E00002DE32C8320E030E040E251E469817A81D7
:100E10008B819C810E94851B962E872E382E292E31
:100E2000A70196010E941F1B181644F03FEFA31A5A
:100E3000B30A99828A823B822C82E4CFA114B10446
:100E400029F045016FEF861A960A03C092E0892EB9
:100E5000912C20E030E0A901C301B2010E941F1BC8
:100E600087FF03C07FEF871A970A89859A850196C5
:100E7000880E991E1814190444F081E090E0DC01FA
:100E8000A819B909BE83AD8302C01E821D8220E06D
:100E900030E0A901C301B2010E941F1B87FF07C0F8
:100EA0008DE2F801808388248394912C02C0812CE8
:100EB000912CA114B10449F4F801E80DF91D80E367
:100EC000808394012F5F3F4F4901212C312CB101C8
:100ED000680D791D78876F832A143B04D1F129812D
:100EE0003A814B815C81C701B6010E94491D0E9475
:100EF000BB1D2B013C016F817885600F711F4AE09B
:100F0000C2010E94EA1AB201550C880B990B0E948B
:100F1000261B29813A814B815C810E94851B9B01A4
:100F2000AC01C701B6010E94DC1C6B017C0120E012
:100F300030E040E251E469817A818B819C810E949A
:100F4000491D69837A838B839C833FEF231A330A7D
:100F5000BECF5B0189859A851816190644F4F801FD
:100F6000E60FF71F8EE28083DB0111965D01812C75
:100F7000912CE985FA858E169F064CF520E030E02D
:100F800040E251E4C701B6010E94851B2B013C01E0
:100F90000E94BB1D6B017C01B4016A0D7B1D600FBB
:100FA000711F4AE0C6010E94EA1AB601DD0C880BE7
:100FB000990B0E94261B9B01AC01C301B2010E9448
:100FC000DC1C6B017C01BFEF8B1A9B0AD2CFCF01D7
:100FD000F7FF02C080E090E0A80EB91E2D813E818F
:100FE000232B89F09501F801EA0DFB1D40E26FEF1C
:100FF000A61AB60A4193C501821B930BAD81BE812F
:101000008A179B07A4F3F801EA0DFB1D1082C801A3
:101010002A960FB6F894DEBF0FBECDBFDF91CF91F9
:101020001F910F91FF90EF90DF90CF90BF90AF9006
:101030009F908F907F906F905F904F903F902F90F8
:1010400008952F923F924F925F926F927F928F926C
:101050009F92AF92BF92CF92DF92EF92FF920F9347
:101060001F93CF93DF93C0904C05D0904D05E09037
:101070004E05F0904F050E94500420912405222334
:10108000E9F060E08EE70E948E0661E082E90E944E
:101090008E0661E083E20E948E0661E08091240565
:1010A0000E948E0680910201882311F0815003C0B6
:1010B0001092240586E08093020171C324EFC20ED2
:1010C00021E0D21EE11CF11C11E0C616D706E8068D
:1010D000F90608F010E060E08EE70E948E0661E0FD
:1010E0008FE90E948E06111170C080912505A09194
:1010F000A204B091A304E82FF0E0EE0FFF1FEC5F15
:10110000FA4F20813181232B49F48F5F282F30E063
:101110002A173B0784F31092250502C0809325050A
:1011200060912505F6E0E0E026E030E0E12C40E0CB
:1011300050E070E0CA01860F971F8A179B07A4F53D
:10114000009709F1E394880F991FFC01EC51FB4FC4
:1011500080818F718830A1F0813019F4C901039624
:1011600015C0811103C0C901029610C0853019F461
:10117000C90104960BC0893019F0C901019606C057
:10118000C901059603C0C9012F2F3E2F4F5F5F4F46
:101190004031510551F08B31910514F0EA9404C0AF
:1011A000F22FE32F9C01C6CFC901C82FC06481E094
:1011B000809387046C2F8FE694E00E94D70260E052
:1011C0008C2F0E94D805C82F1DC0E0918005F0E04B
:1011D000EE0FFF1FEB51FB4F8081C82FCF7182951F
:1011E00086958770C80FC85F81E0809387046C2F55
:1011F0008FE694E00E94D70260E08C2F0E94D80511
:10120000C82FE12CD1E0D093870461E18FE694E010
:101210000E94D7026C2F81E10E94D805C82FD0937D
:10122000870464EA8FE694E00E94D7026C2F84EA78
:101230000E94D805C82FD093870462E08FE694E01F
:101240000E94D7026C2F82E00E94D805C82FD0934D
:10125000870468E08FE694E00E94D7026C2F88E054
:101260000E94D805C82FD093870460E08FE694E0F1
:101270000E94D702109287046C2F80E00E94D8054C
:10128000F82E1111EBC1C09125056E2C6C0E8091CA
:10129000A2049091A304C61551F0772473947C0E98
:1012A000709225050C2F10E0081719075CF02091AB
:1012B000250530E00197281739070CF46CC210920D
:1012C000250569C2CC2309F4C7C1E0915005F0910E
:1012D00051050995C295C07F680131E2C30ED11C4A
:1012E000C601880F991FFC01EE55FB4F5F018081FD
:1012F0008F7190E08530910509F4BEC0F4F5009738
:1013000009F495C0019709F0A7C1000F111FF8015A
:10131000EC5FFA4F0190F081E02D00811181C160F6
:10132000D09387046C2F8FE694E00E94D7026F2D34
:101330008C2F0E94D805C82F1F79F5012081229596
:101340002695277030E0322F22273295330F307EDA
:10135000022B132BD0938704602F8FE694E00E941A
:10136000D7026C2F802F0E94D805082F912F9F79CC
:10137000F501C081C07EC92B74C08830910521F071
:10138000099709F4C2C068C1C860D09387046C2F64
:101390008FE694E00E94D7026F2D8C2F0E94D80513
:1013A000C82F000F111FF801EC5FFA4F0190F08178
:1013B000E02D80819181A281B3816C017D01FFE9E3
:1013C000FF22D09387046C2D8FE694E00E94D70211
:1013D0006C2F8C2D0E94D805C82F2D2C3E2C4F2C05
:1013E000552447FC5A94D0938704622D8FE694E0ED
:1013F0000E94D7026C2F822D0E94D805C82F17019A
:10140000552437FC5094452CD0938704622D8FE6E9
:1014100094E00E94D7026C2F822D0E94D805182FCD
:101420009F2D9F79F501C081C07EC92B62C0000F3E
:10143000111FF801EC5FFA4F0190F081E02D10814F
:10144000D09387046C2F8FE694E00E94D7026F2D13
:101450008C2F0E94D805082F1F79F501C081C07E0E
:10146000C12BD09387046C2F8FE694E00E94D702A3
:1014700010928704602F47C0C560D09387046C2FFB
:101480008FE694E00E94D702109287046F2D8C2F74
:101490000E94D805F82E000F111FF801EC5FFA4FDB
:1014A0000190F081E02D118102819081F501208170
:1014B000229526952770213011F0C0E001C0C0E4CC
:1014C000C92BD0938704602F8FE694E00E94D70247
:1014D0006F2D802F0E94D805082FD0938704612F8D
:1014E0008FE694E00E94D702602F812F0E94D805DA
:1014F000182FD09387046C2F8FE694E00E94D702B8
:1015000010928704612F8C2FA4C0C960D0938704E8
:101510006C2F8FE694E00E94D7026F2D8C2F0E94D3
:10152000D805C82F000F111FF801EC5FFA4F01908A
:10153000F081E02D80809180A280B38020E030E0B7
:10154000A901C501B4010E94451E18161CF4C5016D
:10155000B40103C0C501B40190580E94C21D8B01A3
:1015600080E090E00E94241B9B01AC01C501B40106
:101570000E94DC1C2AE939E949E15FE30E94851BEE
:1015800020E030E543EC57E40E94851B1B012C0151
:1015900020E030E0A9010E94451E18161CF4C2018B
:1015A000B10103C0C201B10190580E94C21D562E64
:1015B000F72E812F8170F601EE0FFF1FEE55FB4FC6
:1015C0009081929596959770913011F090E001C0BE
:1015D00090E2192F182B20E030E0A901C501B401D9
:1015E0000E941F1B881F8827881F8295880F880FDD
:1015F000807C182BD0938704652D8FE694E00E94A1
:10160000D7026C2F852D0E94D805C82FD093870450
:101610006F2D8FE694E00E94D7026C2F8F2D0E94D1
:10162000D805C82FD0938704602F8FE694E00E94DE
:10163000D7026C2F802F0E94D805C82FD093870423
:10164000612F8FE694E00E94D702109287046C2FDE
:10165000812F0E94D805F82EC72D19CEC091800584
:10166000D09387046C2F8FE694E00E94D7026F2DF1
:101670008C2F0E94D805B82E0C2F10E06801CC0CDE
:10168000DD1C96012B513B4F4901F9012081922F1E
:101690009F71F8E09F9F7001112422952695277075
:1016A000E22AD09387046E2D8FE694E00E94D70241
:1016B000109287046B2D8E2D0E94D805F82EF6010E
:1016C000EC55FB4FD081AD2EB180772473942A2D39
:1016D0002D1B30E0F40180818F7190E028173907CD
:1016E000A4F4F501E490709287046E2D8FE694E0E7
:1016F0000E94D702109287046F2D8E2D0E94D8056C
:10170000F82EFFEFAF1ABF0AE2CF000F111FD8016A
:10171000AC53BB4FDC910D2F11961C9196012B51B0
:101720003B4F6901BB24B394202F2D1B30E0F60101
:10173000808182958695877090E0281739079CF400
:10174000F801E490B09287046E2D8FE694E00E9439
:10175000D702109287046F2D8E2D0E94D805F82E87
:101760000F5F1F4FE1CFCF5FC09380058C2F90E0BC
:101770002091A2043091A3048217930714F01092D1
:1017800080050E94500460934C0570934D05809332
:101790004E0590934F0561E08F2D0E948E06E091DB
:1017A0005005F0915105099560E08EEF0E948E067C
:1017B000CAE2D5E01C2F105E61E089910E948E067E
:1017C0001C13FACF60E08FEF0E948E0681E0DF915C
:1017D000CF911F910F91FF90EF90DF90CF90BF902E
:1017E000AF909F908F907F906F905F904F903F90C1
:1017F0002F900895CF92DF92EF92FF920F931F9355
:10180000CF93DF9390915E059F3F39F48EBD00002A
:101810000DB407FEFDCF8EB544C0E82EC7E0D0E082
:10182000D12C01E010E0DD0C60E080915E050E94AB
:10183000E403B8010C2E01C0660F0A94EAF76E218A
:1018400080915C050E94E40361E080915E050E9446
:10185000E40320915D0530E0F901EA56FD4F8491E3
:10186000F901EE57FD4FC490F901E259FD4FF49094
:10187000FF2071F081110E94BB03EF2DF0E0EE0F0D
:10188000FF1FEC59FD4FA591B491EC91EC2129F487
:10189000219708F0C8CF8D2D04C08D2D8160D82EE2
:1018A000F7CFDF91CF911F910F91FF90EF90DF90D5
:1018B000CF9008959091A3039111FCCF613208F06D
:1018C00060E291E09093A3039093A2032FEF209303
:1018D000A1031092A003260F20939F0390939E03D1
:1018E00090919E03880F892B80939E0380919D0386
:1018F000813061F410929D0380919E038093BB0020
:101900008091BC0083FDF8CF85EC01C085EE80930B
:10191000BC008091A3038130E1F38091A00386177E
:1019200010F46091A003ADE7B3E026EA33E0F901DB
:101930008E2F821B861718F48D918193F9CF109208
:10194000A5036093A403862F089520917C039091B2
:101950007B03213208F04AC08091A3038111FCCFA0
:1019600032E03093A30331E03093A2033FEF309392
:10197000A1031092A00320939F03ABE5B3E04DE7D2
:1019800053E0FA013E2F341B321718F43D91319386
:10199000F9CF10929E0320919E03990F922B909362
:1019A0009E0390919D03913061F410929D0390915C
:1019B0009E039093BB009091BC0093FDF8CF95ECF3
:1019C00001C095EE9093BC009091A3039230E1F397
:1019D0009091A1039F3F79F08091A103803241F063
:1019E0008091A103803331F084E005C081E003C021
:1019F00082E001C083E010925A0310927C0310929F
:101A000059030895FC01538D448D252F30E0842F18
:101A100090E0821B930B541710F0CF960895019716
:101A20000895FC01918D828D981761F0828DDF0100
:101A3000A80FB11D5D968C91928D9F5F9F73928FC1
:101A400090E008958FEF9FEF0895FC01918D828DB6
:101A5000981731F0828DE80FF11D858D90E0089583
:101A60008FEF9FEF0895FC01918D228D892F90E0DB
:101A7000805C9F4F821B91098F739927089580E0A6
:101A800090E0892B29F00E94CD0281110C94000076
:101A90000895CF92DF92EF92FF92CF93C82F80915B
:101AA0005B058F3F09F040C08091520591E0909313
:101AB000590380937B0310925A0310927C036C2F7E
:101AC00083E694E00E943A020E94A50C63E08091B4
:101AD00052050E945A0C83E694E00E94EE016C01CC
:101AE000990FEE08FF08FE2CED2CDC2CCC2483E6AD
:101AF00094E00E94EE01AC01990F660B770BC42AAB
:101B0000D52AE62AF72AFE2CED2CDC2CCC2483E601
:101B100094E00E94EE01AC01990F660B770BC42A8A
:101B2000D52AE62AF72A33C080915E058F3F21F43B
:101B300081E590E00E94A70460E080915B050E942F
:101B4000E4038C2F80680E94FA0B80E00E94FA0B5D
:101B5000C82ED12CE12CF12CFE2CED2CDC2CCC242D
:101B600080E00E94FA0BC82AFE2CED2CDC2CCC2441
:101B700080E00E94FA0BC82A61E080915B050E9418
:101B8000E40380915E058F3F11F40E94A604C70113
:101B9000B601CF91FF90EF90DF90CF900895CF9353
:101BA000DF93C82F80915B058F3F39F580915205F7
:101BB00091E09093590380937B0310925A03109203
:101BC0007C036C2F83E694E00E943A020E94A50CED
:101BD00062E0809152050E945A0C83E694E00E94D4
:101BE000EE01C82F83E694E00E94EE0120E030E091
:101BF0003C2FE901C82BD92B29C080915E058F3F6E
:101C000021F481E590E00E94A70460E080915B05EB
:101C10000E94E4038C2F80680E94FA0B80E00E94EF
:101C2000FA0BC82F80E00E94FA0B2C2F30E0322FE5
:101C30002227E901C82B61E080915B050E94E40343
:101C400080915E058F3F11F40E94A6049C2F8D2F7A
:101C5000DF91CF910895CF92DF92FF920F931F9360
:101C6000CF93DF932091A2043091A304203131055A
:101C7000CCF56B0189010F5F1F4FF801EE0FFF1FBD
:101C8000EE55FB4F91838083F901EE0FFF1FEC535C
:101C9000FB4F71836083F901EE0FFF1FEC5FFA4F7A
:101CA00011821082220F331FE901CC51DB4F1882C1
:101CB0000E94E11A982F9F718981807EF82EF92A5F
:101CC000C6010E94E11A8295880F807E9F2D9F7128
:101CD000F92EF82AF9821093A3040093A2048FEF3F
:101CE000800F01C08FEFDF91CF911F910F91FF9077
:101CF000DF90CF900895CF93DF938FE694E00E941A
:101D00007806CFE6D4E061E08C850E94140461E09F
:101D10008C85DF91CF910C94E40380918C04909199
:101D20008D04892B31F1809183059091840524E005
:101D30008F369207F1F0009711F00E94780680919B
:101D400086048E7F8093860410928205109281050E
:101D50008FE694E09093840580938305E09182045C
:101D6000F0918304908180918404892B808381E0A9
:101D7000089580E008950F931F93CF93DF938C0114
:101D8000EB010E94E11AAAE2B5E090E020E2981788
:101D900040F4A8014F5F5F4FF80104910C938A0152
:101DA00001C02C939F5F1196903189F7CE010E945C
:101DB000E11AAAE3B5E090E020E2981740F4AE0102
:101DC0004F5F5F4FFE01C491CC93EA0101C02C9399
:101DD0009F5F1196903189F7DF91CF911F910F91FD
:101DE0000895CF93DF93FC0101900020E9F731972C
:101DF000E81B20E030E0F0E2A90148575F4F2E17C2
:101E000048F4EA01CE55DB4FDC01A20FB31FAC91C1
:101E1000A88304C0DA01AE55BB4FFC932F5F3F4F40
:101E20002031310549F7FB0101900020E9F7319796
:101E3000E61B80E090E040E29C0128563F4F8E1761
:101E400048F4E901CE55DB4FDB01A80FB91F5C91C7
:101E5000588304C0D901AE55BB4F4C9301968031D5
:101E6000910551F7DF91CF9108958F929F92AF9294
:101E7000BF92CF92DF92EF92FF928AEF0E94490DBC
:101E8000E2E5F5E0458556854A01A12CB12CC72E27
:101E9000D82EE92EFF24E7FCFA94C818D908EA08DE
:101EA000FB08DC01CB0137E0B595A79597958795A1
:101EB0003A95D1F7B501A401440F551F661F771F4E
:101EC0004C015D01841A950AA60AB70AA50194017E
:101ED000A785B0890E9408204B015C013BE0B594C6
:101EE000A794979487943A95D1F7A7019601C701D3
:101EF000B6010E94591C9B01AC016CE055954795B9
:101F0000379527956A95D1F7A189B2890E94082053
:101F1000DC01CB017EE0B595A795979587957A95DD
:101F2000D1F7A5019401280F391F4A1F5B1F258394
:101F3000368347835087A5E0B0E00E948B1CDC010C
:101F4000CB0180589F4FAF4FBF4F692F7A2F8B2FF8
:101F5000992787FD9A950E94261B20E030E048ECE7
:101F600052E40E94491DFF90EF90DF90CF90BF9008
:101F7000AF909F908F9008952F923F924F925F92D3
:101F80006F927F928F929F92AF92BF92CF92DF9289
:101F9000EF92FF920F931F93CF93DF93CDB7DEB7EE
:101FA000A2970FB6F894DEBF0FBECDBF0E94350FCB
:101FB00087EF0E94490D6A8F7B8F8C8F9D8F809158
:101FC000570590915805A0915905B0915A056C019B
:101FD0007D01FF0CCC08DC2C76019C01AD016C2D41
:101FE0007C2D8C2D9C2D345F414051096109710974
:101FF000810991092AA339A349835A836B837C837E
:102000008D839E8359016A017B018C010E941020FF
:102010002A8B3B8B4C8B5D8B6E8B7F8B888F998F44
:1020200080916F058E8FE0917005EF83F0916D05C3
:10203000FF8F80916E058887E0916B05E8A3F09192
:102040006C05F987B0906805A09067051B2D110FEE
:10205000110BC12ED12EE12EF12E012F2AA139A173
:1020600049815A816B817C818D819E810E941020E3
:102070000CE00E94092119012A013B014C01B0909A
:102080006A05A09069051B2D110F110BC12ED12ED1
:10209000E12EF12E012F2A893B894C895D896E89B9
:1020A0007F89888D998D0E94102008E00E9422214E
:1020B00051016201730184010E94402170588F4FC9
:1020C0009F4F20906505309066055101C12CD12CA1
:1020D000E12CF12C00E010E00E94102001E20E94AF
:1020E00022212A873B874C875D876E877F87888B75
:1020F000998BA0E00E94522109F45EC1AE8C1F8131
:10210000110F110BBF80C12ED12EE12EF12E012F08
:102110002A893B894C895D896E897F89888D998D53
:102120000E94102019012A013B014C01AF8C188537
:10213000110F110BB884C12ED12EE12EF12E012FDB
:102140002AA139A149815A816B817C818D819E812F
:102150000E94102001E10E94092159016A017B01BE
:102160008C019101A201B301C4010E944021190117
:102170002A013B014C014A8D5B8D6C8D7D8D84E085
:1021800075956795579547958A95D1F780E090E0CA
:10219000A0E1B0E0841B950BA60BB70B6C017D0191
:1021A000FF0CCC08DC2C76019C01AD016C2D7C2D44
:1021B0008C2D9C2D0FE10E940921F901B42FA52F30
:1021C0006C837D8389839A8328A19985990F990BC4
:1021D0003985492F592F692F792F892F03E20E94C2
:1021E000092159016A017B018C019101A201B3010E
:1021F000C4010E94402159016A017B018C019F01A9
:102200004B2F5A2F6C817D8189819A810E944921AF
:102210004901542E652EB62FA72FF82FE92F03E082
:102220000E9409215401C52CD62CEB2EFA2E0F2F1B
:102230001E2F0E94492159016A017B01782E192F16
:1022400003E00E940921072D0E94492103E00E941A
:1022500009215401C52CD62CEB2EFA2E0F2F1E2F40
:102260000E94492102E00E9409210F2F0E9449216A
:1022700001E00E9409210F2F0E944921AA84BB84FA
:10228000CC84DD84EE84FF84088919890E946B2048
:1022900028873F8349835A836B837C838D839E8306
:1022A0000DE00E942221922E832E742E652E562E32
:1022B000472E382E292E3091760520917505932FC3
:1022C000990F990BA92CB82CC72CD62CE52CF42CE3
:1022D000032D122D492F592F692F792F892F0E94F5
:1022E00010200E94102009E10E94222159016A0158
:1022F0007B018C0128853F8149815A816B817C81DA
:102300008D819E810E94402119012A013B014C01CF
:102310003091740520917305932F990F990BA88420
:10232000BF80C980DA80EB80FC800D811E81492F3F
:10233000592F692F792F892F0E94102003E10E94C5
:10234000222159016A017B018C019101A201B30193
:10235000C4010E94402108E00E942221522E632ED7
:10236000742E852E962EF72FE82FB92F30917205F7
:1023700020917105932F990F990B492F592F692F90
:10238000792F892F04E00E94092159016A017B01FC
:102390008C01252D362D472D582D692D7F2F8E2F01
:1023A0009B2F0E9440210E94F11D20E030E040E878
:1023B0005BE30E94851B03C060E070E0CB01A29646
:1023C0000FB6F894DEBF0FBECDBFDF91CF911F9146
:1023D0000F91FF90EF90DF90CF90BF90AF909F90C4
:1023E0008F907F906F905F904F903F902F900895C7
:1023F000FC01848DDF01A80FB11DA35ABF4F2C91A2
:10240000848D90E001968F739927848FA689B78970
:102410002C93A089B1898C9180648C93938D848D49
:10242000981306C00288F389E02D80818F7D808318
:102430000895EF92FF920F931F93CF93DF93EC01D8
:1024400081E0888F9B8D8C8D981305C0E889F98970
:10245000808185FD24C0F62E0B8D10E00F5F1F4F8D
:102460000F731127E02E8C8DE8120CC00FB607FCFD
:10247000FACFE889F989808185FFF5CFCE010E94E6
:10248000F811F1CF8B8DFE01E80FF11DE35AFF4FDC
:10249000F0820B8FEA89FB898081806207C0EE8918
:1024A000FF896083E889F98980818064808381E085
:1024B00090E0DF91CF911F910F91FF90EF900895E1
:1024C000CF93DF93EC01888D8823C9F0EA89FB89DB
:1024D000808185FD05C0A889B9898C9186FD0FC0D2
:1024E0000FB607FCF5CF808185FFF2CFA889B989A7
:1024F0008C9185FFEDCFCE010E94F811E7CFDF91DF
:10250000CF910895CF93DF93CDB7DEB7C454D109EF
:102510000FB6F894DEBF0FBECDBF789484B582604D
:1025200084BD84B5816084BD85B5826085BD85B577
:10253000816085BD80916E00816080936E001092F5
:102540008100809181008260809381008091810070
:102550008160809381008091800081608093800001
:102560008091B10084608093B1008091B00081605F
:102570008093B00080917A00846080937A0080918B
:102580007A00826080937A0080917A008E7F8093B7
:102590007A0080917A00806880937A001092C1005E
:1025A00061E08DE00E94140461E08DE00E94E4038C
:1025B00061E083E00E94140460E083E00E94E40391
:1025C00080913D0190913E01909301018093000123
:1025D0006BE771E089E891E00E94BB0E81E791E032
:1025E0009093A5048093A4041092C5041092C4048F
:1025F00010920505109204051092E40489E080937E
:10260000E50481E090E09093A3048093A20461E04C
:1026100083E00E94E40361E083E00E94140465E823
:10262000E62E62E0F62EF701849180937F0401E7A5
:1026300012E0F801849190E0880F991F88509F4F15
:10264000FC0125913491309381042093800460E053
:1026500083E00E94140461E083E00E94E40383E0CD
:1026600080937B04F701E490E0927C04F8010491EC
:10267000E02FF0E0EE0FFF1FEC59FD4F8591949194
:1026800090937E0480937D0481E08093850487ECA1
:1026900090E0909391048093900422E530E0309391
:1026A00089042093880425EC30E030938B04209338
:1026B0008A044FE152E050938D0440938C04309390
:1026C0008F0420938E04209168002460209368007A
:1026D0002DE630E0309383042093820428E0209399
:1026E00084040197F1F70E948D0E0E947B0E80E01A
:1026F00090E00E94431C90E09093400180933F0142
:102700008E5F9109029720F41092400110923F01D0
:1027100080913F0190914001892B09F050C066E6FD
:1027200071E088E691E00E942B0E803188F490E001
:10273000FC01EE0FFF1FEC5FFA4F23E431E0318321
:102740002083880F991FFC01EC51FB4F88E08083A8
:102750006CE571E080E691E00E942B0E803188F4F8
:1027600090E0FC01EE0FFF1FEC5FFA4F2BE431E02D
:1027700031832083880F991FFC01EC51FB4F88E2C5
:1027800080836FE471E083E591E00E942B0E80313D
:1027900088F490E0FC01EE0FFF1FEC5FFA4F2BEE88
:1027A00032E031832083880F991FFC01EC51FB4FED
:1027B00088E4808360E471E083E491E04FC064E3E7
:1027C00071E087E391E00E942B0E803188F490E065
:1027D000FC01EE0FFF1FEC5FFA4F23E431E0318381
:1027E0002083880F991FFC01EC51FB4F88E0808308
:1027F00069E271E08EE291E00E942B0E803188F454
:1028000090E0FC01EE0FFF1FEC5FFA4F2BE431E08C
:1028100031832083880F991FFC01EC51FB4F88E224
:1028200080836BE171E080E291E00E942B0E8031A9
:1028300088F490E0FC01EE0FFF1FEC5FFA4F2BEEE7
:1028400032E031832083880F991FFC01EC51FB4F4C
:1028500088E480836CE071E08FE091E00E942B0EB1
:10286000803188F490E0FC01EE0FFF1FEC5FFA4F1F
:102870002FEE32E031832083880F991FFC01EC5149
:10288000FB4F88E4808386E78093520580915B0547
:102890008F3F41F51092A5031092A40310925A03A2
:1028A00010927C031092A30381E08093A203109204
:1028B0009D0361E082E10E94E40361E083E10E9404
:1028C000E4038091B9008E7F8093B9008091B900B4
:1028D0008D7F8093B90080E28093B80085E4809377
:1028E000BC004EC061E00E94E40361E080915B05A2
:1028F0000E94140480915E058F3F09F034C01FB719
:10290000F89480913A01811127C0E8E7F2E08491C0
:10291000ECE8F2E09491E82FF0E0EE0FFF1FEE5F9D
:10292000FE4FA591B491EC91E92321F461E08AE096
:102930000E94E40361E08AE00E9414048CB5806187
:102940008CBD8CB580648CBD61E08DE00E94140468
:1029500061E08BE00E94140480913A018F5F8093C4
:102960003A011FBF0DC061E00E94140461E0809134
:102970005C050E94140460E080915D050E941404CF
:1029800080915B058F3FE9F48091520591E090932F
:10299000590380937B0310925A0310927C0360EDDD
:1029A00083E694E00E943A020E94A50C61E08091C7
:1029B00052050E945A0C83E694E00E94EE01182F03
:1029C0001FC080915E058F3F21F481E590E00E9459
:1029D000A70460E080915B050E94E40380ED0E9403
:1029E000FA0B80E00E94FA0B182F61E080915B05E2
:1029F0000E94E40380915E058F3F11F40E94A604BB
:102A0000183509F08EC088E80E94CF0D90936005BC
:102A100080935F058AE80E94CF0D909362058093B2
:102A200061058CE80E94CF0D909364058093630547
:102A30008EE80E94CF0D909366058093650580E92E
:102A40000E94CF0D909368058093670582E90E94EC
:102A5000CF0D90936A058093690584E90E94CF0D9C
:102A600090936C0580936B0586E90E94CF0D90933F
:102A70006E0580936D0588E90E94CF0D90937005D7
:102A800080936F058AE90E94CF0D90937205809321
:102A900071058CE90E94CF0D9093740580937305A6
:102AA0008EE90E94CF0D90937605809375058091F5
:102AB0005B058F3FC1F48091520591E090935903DB
:102AC00080937B0310925A0310927C0364EF83E699
:102AD00094E00E943A026FE383E694E00E943A0297
:102AE0000E94A50C1EC080915E058F3F21F481E5F8
:102AF00090E00E94A70460E080915B050E94E403DF
:102B000084E70E94FA0B8FE30E94FA0B61E0809148
:102B10005B050E94E40380915E058F3F11F40E94E3
:102B2000A6040E94210860E08DE00E94E40386E094
:102B3000282E312C0E94BC0F20E030E048EC52E4FB
:102B40000E94491D20E030E54DE754E40E94491DF4
:102B500021E03EED42E45EE30E944A1E9B01AC018F
:102B600060E070E080E89FE30E94DC1C20E03AE235
:102B70004DE257E40E94851B0E94BB1D6B017C0146
:102B80006093F3027093F4028093F5029093F6023F
:102B90000E94350F20E030E048EC52E40E94851B93
:102BA0000E94BB1D6093EF027093F0028093F102CC
:102BB0009093F2020E94BC0F0E94BB1D6093EB0237
:102BC0007093EC028093ED029093EE0280909A0451
:102BD00090909B04A0909C04B0909D04A50194014A
:102BE000C701B6010E94591C6B017C0124E630E04C
:102BF00040E050E0281939094A095B0960919E04B8
:102C000070919F048091A0049091A1040E94591C8E
:102C10006C0D7D1D8E1D9F1D24E630E040E050E0D0
:102C20000E94E31F20939E0430939F044093A004CE
:102C30005093A1040E9450040E94241B6B017C014C
:102C400020919E0430919F044091A0045091A104D2
:102C500029AB3AAB4BAB5CAB2093E7023093E80275
:102C60004093E9025093EA02EBE1F2E0AFE4B1E015
:102C7000448155816681778141935193619371932A
:102C800014964D915D916D917C9117974D935D9345
:102C90006D937D9332E0EF34F30751F7AAE0B0E093
:102CA00029A93AA94BA95CA90E948B1C0E94261B4A
:102CB00060934F027093500280935102909352029E
:102CC000C0928301D0928401E0928501F092860146
:102CD00080915B0190915C01A0915D01B0915E01DA
:102CE00025968CAF9DAFAEAFBFAF259700E010E04B
:102CF000412C512C320149AE5AAE6BAE7CAE730101
:102D000062014DAA5EAA6FAA78AEF801E15BFE4FA0
:102D100025962CAD3DAD4EAD5FAD2597648575858F
:102D2000868597850E94DC1C4B015C01F801E55EFD
:102D3000FD4F248535854685578521962CAF3DAFBF
:102D40004EAF5FAF21970E94851B9B01AC016DA91F
:102D50007EA98FA998AD0E94DD1C6DAB7EAB8FABB9
:102D600098AFA5019401C701B6010E94DD1C6B015B
:102D70007C0121962CAD3DAD4EAD5FAD219769AD87
:102D80007AAD8BAD9CAD0E94DD1C69AF7AAF8BAF85
:102D90009CAFA5019401C501B4010E94851B9B0154
:102DA000AC01C301B2010E94DD1C2B013C010C5F90
:102DB0001F4F0832110509F0A8CF20E030E040E2B3
:102DC00051E46DA97EA98FA998AD0E94851B4B0186
:102DD0005C0129AD3AAD4BAD5CADC701B6010E94B7
:102DE000851B9B01AC01C501B4010E94DC1C20E0E5
:102DF00030E04AE754E40E94851B4B015C0120E06F
:102E000030E040E251E4C301B2010E94851B2B0176
:102E10003C01A7019601C701B6010E94851B9B01D9
:102E2000AC01C301B2010E94DC1C9B01AC01C501D5
:102E3000B4010E94491D0E94BB1D6B017C01809062
:102E4000920490909304A0909404B0909504A501EE
:102E500094010E94591C2B013C0124E630E040E023
:102E600050E0281939094A095B096091960470916C
:102E7000970480919804909199040E94591C640DC4
:102E8000751D861D971D24E630E040E050E00E944D
:102E9000E31F209396043093970440939804509333
:102EA0009904C0924B01D0924C01E0924D01F092F6
:102EB0004E018091470190914801A0914901B09144
:102EC0004A0129A93AA94BA95CA9281B390B4A0B2D
:102ED0005B0B209343013093440140934501509391
:102EE000460180914101909142018431910569F43C
:102EF00029A93AA94BA95CA920934701309348011D
:102F00004093490150934A0103C088329105ACF4C3
:102F100001969093420180934101109243011092D7
:102F20004401109245011092460110924B011092FB
:102F30004C0110924D0110924E0180913F019091F1
:102F40004001019709F06EC0609143017091440106
:102F500080914501909146010E94261B2FEB3EE097
:102F60004CE95EE30E94491D0E94BB1D6093430132
:102F700070934401809345019093460160914B0109
:102F800070914C0180914D0190914E010E94261B41
:102F90002FEB3EE04CE95EE30E94491D0E94BB1D01
:102FA00060934B0170934C0180934D0190934E01BF
:102FB0006091EB027091EC028091ED029091EE0233
:102FC0000E94261B2DED38EE41EF5CE30E94851B2D
:102FD0000E94BB1D6093EB027093EC028093ED02A4
:102FE0009093EE026091EF027091F0028091F102F5
:102FF0009091F2020E94261B26E636E646EE5FE33B
:103000000E94851B20E030E040E052E40E94DD1C7D
:103010000E94BB1D6093EF027093F0028093F10257
:103020009093F202E0913D01F0913E01E530F1050F
:1030300021F010923C0110923B018091000190918F
:1030400001018E179F0721F0F0930101E093000129
:10305000E730F10508F01CC1EC5CFF4F0C94022036
:1030600066E472E084E592E00E94BB0E11C119A2F1
:10307000198A6EE372E0CE0181960E94D61A1982F7
:103080006091430170914401809145019091460106
:103090000E94261BAB01BC0120E030E0CE0101966E
:1030A0000E94A106BE016F5F7F4FCE0181960E94F4
:1030B000772180913F0190914001019719F46BE3D2
:1030C00072E002C069E372E0CE0181960E94D61AD6
:1030D00061E372E0CE0141960E94D61A1982609196
:1030E0004B0170914C0180914D0190914E010E94D5
:1030F000261B20E030E040E251E40E94491DAB0174
:10310000BC0121E030E0CE0101960E94A106BE0183
:103110006F5F7F4FCE0141960E94772180913F01E2
:1031200090914001019719F46CE272E0A6C068E248
:1031300072E0A3C019A2198A61E272E0CE01819601
:103140000E94D61A19826091EF027091F00280916C
:10315000F1029091F2020E94261B20E030E048EC40
:1031600052E40E94491DAB01BC0122E030E0CE01D7
:1031700001960E94A106BE016F5F7F4FCE0181962E
:103180000E94772180913F0190914001019719F4AD
:103190006EE172E002C06BE172E0CE0181960E94A6
:1031A000D61A64E172E0CE0141960E94D61A1982C5
:1031B0006091EB027091EC028091ED029091EE0231
:1031C0000E94261B20E030E048EC52E40E94491D9A
:1031D000AB01BC0122E030E0CE0101960E94A106C5
:1031E000BE016F5F7F4FCE0141960E947721809193
:1031F0003F0190914001019719F46FE072E03DC0EA
:103200006BE072E03AC019A2198A6CEF71E0CE014E
:1032100081960E94D61A63EF71E02FC019A2198A15
:103220006AEE71E0CE0181960E94D61A80913F012C
:1032300090914001019719F467EE71E002C064EECD
:1032400071E0CE0181960E94D61A69ED71E015C039
:1032500019A2198A68EC71E0CE0181960E94D61AF3
:1032600069EB71E00AC019A2198A69EA71E0CE011E
:1032700081960E94D61A69E971E0CE0141960E94BA
:10328000D61ABE016F5E7F4FCE0181960E94F10E6D
:103290008FE694E00E9478060E947B0E0E9421082F
:1032A00060E080917B040E94140461E080917B04C3
:1032B0000E94E4030E948D0E0E948D0E0E94500415
:1032C0006B017C0134E6C30ED11CE11CF11C00E053
:1032D00010E00E9450046C157D058E059F0578F561
:1032E0008FE694E00E948F021816190694F78FE675
:1032F00094E00E948F021816190614F000E01AC01C
:103300008FE694E00E94A602082F80914B0580135F
:103310009BC08090260590902705A0902805B0902E
:1033200029050E94500486169706A806B90608F4D7
:103330008BC0E4CF10E00115110559F29DC0003F8C
:10334000110509F47EC00115110509F47AC0003990
:10335000110509F467C024F40037110591F071C01C
:10336000003B110539F1003E110509F06AC080915A
:103370003D0190913E018530910509F462C00196AE
:1033800014C080913D0190913E01069731F481E097
:1033900090E090933E0180933D0180913D0190919A
:1033A0003E01009709F44DC0019790933E01809330
:1033B0003D0147C080913D0190913E010397A1F4EA
:1033C0008091E7029091E802A091E902B091EA02AF
:1033D0008093470190934801A0934901B0934A011B
:1033E00030923E0120923D0180913D0190913E013D
:1033F000049739F580913F0190914001892B39F470
:1034000081E090E09093400180933F0104C01092CE
:10341000400110923F0144E050E050933E01409340
:103420003D010FC080913D0190913E01049749F408
:1034300060913F0180E090E00E944B1CE0E0F0E0F2
:1034400009950E943F0D76CB0E945004DC01CB0110
:1034500080579E4FAF4FBF4F80932605909327050F
:10346000A0932805B093290500934B05003F09F070
:1034700061CF00EF10E02DCF003F110509F067CFBD
:10348000E0CF8BE291E09093700480936F048FE61D
:1034900094E00C947806E6ECF3E01382128288EE56
:1034A00093E0A0E0B0E084839583A683B78327E010
:1034B00031E03183208325EC30E03587248724EC0C
:1034C00030E03787268720EC30E0318B208B21ECF1
:1034D00030E0338B228B22EC30E0358B248B26ECD2
:1034E00030E0378B268B118E128E138E148EE3E60E
:1034F000F4E01382128284839583A683B78329E143
:1035000031E031832083EFE6F4E01382128284837A
:103510009583A683B7838BE291E091838083A6E8AD
:10352000B4E08C918E7F8C93128E118E148E138E3C
:10353000168E158E12A211A2E2E5F5E08FEF8187BB
:103540008287838784871092260510922705109220
:10355000280510922905109224051092A3041092B8
:10356000A2041092250589E692E09093510580937C
:103570005005EAE9F4E082E390E0A0E0B0E0808367
:103580009183A283B3831482158216821782E2E9A3
:10359000F4E080E590E0A0E0B0E080839183A28336
:1035A000B38314821582168217820895FB01DC0111
:1035B0000D900020E9F7119705900D920020E1F79A
:1035C0000895FC0105900020E9F7809590958E0FF5
:1035D0009F1F0895BB274A3031F4992322F4BDE29E
:1035E000909581959F4F0C94F61ABB27FB015527A8
:1035F000AA27880F991FAA1FA41710F0A41B839550
:103600005051B9F7A05DAA3308F0A95DA1930097C6
:1036100079F7B111B1931192CB010C940F1BDC011E
:10362000FC01672F71917723E1F7329704C07C91F9
:103630006D9370836291AE17BF07C8F308950E941F
:10364000611B08F481E00895E89409C097FB3EF4FB
:1036500090958095709561957F4F8F4F9F4F9923DF
:10366000A9F0F92F96E9BB279395F695879577955D
:103670006795B795F111F8CFFAF4BB0F11F460FF1D
:103680001BC06F5F7F4F8F4F9F4F16C0882311F075
:1036900096E911C0772321F09EE8872F762F05C089
:1036A000662371F096E8862F70E060E02AF09A9524
:1036B000660F771F881FDAF7880F9695879597F919
:1036C0000895990F0008550FAA0BE0E8FEEF1616B3
:1036D0001706E807F907C0F012161306E407F50706
:1036E00098F0621B730B840B950B39F40A2661F07A
:1036F000232B242B252B21F408950A2609F4A1401D
:10370000A6958FEF811D811D08950E94981B0C9432
:10371000091C0E94FB1B38F00E94021C20F095231C
:1037200011F00C94F21B0C94F81B11240C943D1C0A
:103730000E941A1C70F3959FC1F3950F50E0551F1E
:10374000629FF001729FBB27F00DB11D639FAA27F6
:10375000F00DB11DAA1F649F6627B00DA11D661F45
:10376000829F2227B00DA11D621F739FB00DA11D66
:10377000621F839FA00D611D221F749F3327A00D20
:10378000611D231F849F600D211D822F762F6A2FBC
:1037900011249F5750409AF0F1F088234AF0EE0F21
:1037A000FF1FBB1F661F771F881F91505040A9F74E
:1037B0009E3F510580F00C94F21B0C943D1C5F3F22
:1037C000E4F3983ED4F3869577956795B795F7958A
:1037D000E7959F5FC1F7FE2B880F911D9695879502
:1037E00097F9089597F99F6780E870E060E0089581
:1037F0009FEF80EC089500240A9416161706180609
:103800000906089500240A941216130614060506E4
:103810000895092E0394000C11F4882352F0BB0F75
:1038200040F4BF2B11F460FF04C06F5F7F4F8F4FD8
:103830009F4F089557FD9058440F551F59F05F3F13
:1038400071F04795880F97FB991F61F09F3F79F0C2
:1038500087950895121613061406551FF2CF469544
:10386000F1DF08C0161617061806991FF1CF8695C6
:103870007105610508940895E894BB2766277727AA
:10388000CB0197F90895F999FECF92BD81BDF89AC1
:10389000992780B50895262FF999FECF1FBA92BDBA
:1038A00081BD20BD0FB6F894FA9AF99A0FBE019621
:1038B0000895DB018F939F930E948B1CBF91AF9162
:1038C000A29F800D911DA39F900DB29F900D11247A
:1038D0000895A1E21A2EAA1BBB1BFD010DC0AA1F51
:1038E000BB1FEE1FFF1FA217B307E407F50720F069
:1038F000A21BB30BE40BF50B661F771F881F991FE4
:103900001A9469F760957095809590959B01AC012C
:10391000BD01CF0108950E94CD1CA59F900DB49FBD
:10392000900DA49F800D911D112408952F923F9218
:103930004F925F926F927F928F929F92AF92BF92BF
:10394000CF92DF92EF92FF920F931F93CF93DF936B
:10395000CDB7DEB7CA1BDB0B0FB6F894DEBF0FBEC8
:10396000CDBF09942A88398848885F846E847D8415
:103970008C849B84AA84B984C884DF80EE80FD8017
:103980000C811B81AA81B981CE0FD11D0FB6F8948D
:10399000DEBF0FBECDBFED010895A29FB001B39F62
:1039A000C001A39F700D811D1124911DB29F700D48
:1039B000811D1124911D08955058BB27AA270E94EC
:1039C000F41C0C94091C0E94FB1B38F00E94021C82
:1039D00020F039F49F3F19F426F40C94F81B0EF4F0
:1039E000E095E7FB0C94F21BE92F0E941A1C58F398
:1039F000BA17620773078407950720F079F4A6F5D4
:103A00000C943C1C0EF4E0950B2EBA2FA02D0B014C
:103A1000B90190010C01CA01A0011124FF27591B13
:103A200099F0593F50F4503E68F11A16F040A22F19
:103A3000232F342F4427585FF3CF4695379527958A
:103A4000A795F0405395C9F77EF41F16BA0B620B89
:103A5000730B840BBAF09150A1F0FF0FBB1F661FD0
:103A6000771F881FC2F70EC0BA0F621F731F841F13
:103A700048F4879577956795B795F7959E3F08F039
:103A8000B0CF9395880F08F09927EE0F97958795FB
:103A900008950E945D1D0C94091C0E94021C58F0A0
:103AA0000E94FB1B40F029F45F3F29F00C94F21BAD
:103AB00051110C943D1C0C94F81B0E941A1C68F3C5
:103AC0009923B1F3552391F3951B550BBB27AA27D7
:103AD00062177307840738F09F5F5F4F220F331F11
:103AE000441FAA1FA9F335D00E2E3AF0E0E832D0D9
:103AF00091505040E695001CCAF72BD0FE2F29D0DC
:103B0000660F771F881FBB1F261737074807AB07AD
:103B1000B0E809F0BB0B802DBF01FF2793585F4F22
:103B20003AF09E3F510578F00C94F21B0C943D1C2A
:103B30005F3FE4F3983ED4F3869577956795B79504
:103B4000F7959F5FC9F7880F911D9695879597F90F
:103B50000895E1E0660F771F881FBB1F6217730788
:103B60008407BA0720F0621B730B840BBA0BEE1F9D
:103B700088F7E09508950E94C21D6894B1110C94D5
:103B80003D1C08950E94221C88F09F5798F0B92F81
:103B90009927B751B0F0E1F0660F771F881F991F82
:103BA0001AF0BA95C9F714C0B13091F00E943C1CCC
:103BB000B1E008950C943C1C672F782F8827B85FDC
:103BC00039F0B93FCCF3869577956795B395D9F7DA
:103BD0003EF490958095709561957F4F8F4F9F4FE4
:103BE000089597FB16F40E94351E0C94F81DE89476
:103BF000F92F96EBFF2381F0121613061406440BDF
:103C00009395F69587957795679557954040FF234F
:103C1000B9F71BC099270895882351F49850D2F71B
:103C2000872B762F652F542F432F322F20E0B1F3AF
:103C3000121613061406440B88233AF09A95440F83
:103C4000551F661F771F881FCAF755234AF4440F74
:103C5000551F11F460FF04C06F5F7F4F8F4F9F4F60
:103C6000880F9695879597F908959095809570950A
:103C7000609550954095309521953F4F4F4F5F4F40
:103C80006F4F7F4F8F4F9F4F08950E94611B08F425
:103C90008FEF0895FA01EE0FFF1F309621053105D1
:103CA000A1F16115710561F48038BFE39B0749F10B
:103CB00068949038810561F08038BFEF9B0741F030
:103CC00099234AF5FF3FE1053105210519F1E894F3
:103CD0000894E795D901AA2329F4AB2FBE2FF85FEA
:103CE000D0F310C0FF5F70F4A695E0F7F73950F0FD
:103CF00019F0FF3A38F49F779F930DD00F9007FC8F
:103D00009058089546F00C94F81B60E070E080E84D
:103D10009FE308954FE79F775F934F933F932F93D0
:103D20000E94451F2F913F914F915F910E94851BEB
:103D30000C94A21E29F416F00C94F21B0C943C1C5B
:103D40000C94F81B0E94221CA8F39638A0F707F8E1
:103D50000F92E8942BE33AEA48EB5FE70E949B1B43
:103D60000F920F920F924DB75EB70F920E948D1F68
:103D7000E6E7F0E00E94D41E4F915F91EF91FF9132
:103D8000E595EE1FFF1F49F0FE57E0684427EE0F50
:103D9000441FFA95E1F74195550B0E94071F0F90BC
:103DA00007FE0C94FB1E0895DF93CF931F930F9390
:103DB000FF92EF92DF927B018C01689406C0DA2EAD
:103DC000EF010E94981BFE01E894A5912591359181
:103DD00045915591A6F3EF010E94F41CFE01970155
:103DE000A801DA9469F7DF90EF90FF900F911F918F
:103DF000CF91DF9108959B01AC0160E070E080E815
:103E00009FE30C94491D0C94F21B0C94C11F0E945B
:103E1000221CD8F39923C9F3940F511DA3F3915099
:103E2000504094F059F0882332F0660F771F881FB6
:103E300091505040C1F79E3F51052CF7880F911DBE
:103E40009695879597F908955F3FACF0983E9CF062
:103E5000BB27869577956795B79508F4B1609395DC
:103E6000C1F7BB0F58F711F460FFE8CF6F5F7F4FCA
:103E70008F4F9F4FE3CF0C943D1C16F00C94C11F45
:103E80000C94F81B68940C94F21B0E94221CA8F35B
:103E90009923C1F3AEF3DF93CF931F930F93FF9258
:103EA000C92FDD2788232AF02197660F771F881FE7
:103EB000DAF720E030E040E85FEB9FE3883920F05C
:103EC000803E38F021968F770E94DD1CEEE9F0E00D
:103ED00004C00E94DD1CEBECF0E00E94D41E8B01BC
:103EE000BE01EC01FB2E6F5771097595771F880B8A
:103EF000990B0E94261B28E132E741E35FE30E9411
:103F0000981BAF2D9801AE01FF900F911F91CF919B
:103F1000DF910E94F41C0C94091CFA01DC01AA0F29
:103F2000BB1F9B01AC01BF5728F42227332744272E
:103F3000507820C0B75190F4AB2F002446953795A8
:103F40002795011CA395D2F3002071F0220F331F97
:103F5000441FB395DAF30ED00C94DC1C613071056C
:103F6000A0E88A07B94630F49B01AC0166277727A1
:103F700088279078309621F02083318342835383C1
:103F800008959F3F31F0915020F48795779567957C
:103F9000B795880F911D9695879597F9089597FB8A
:103FA000072E16F4009407D077FD09D00E945E21F9
:103FB00007FC05D03EF4909581959F4F089570952C
:103FC00061957F4F0895052E97FB1EF400940E9483
:103FD000FA1F57FD07D00E94691C07FC03D04EF45E
:103FE0000C94FA1F50954095309521953F4F4F4FB7
:103FF0005F4F089590958095709561957F4F8F4F95
:104000009F4F0895EE0FFF1F0590F491E02D099446
:10401000B7FF0C948B1C0E948B1C821B930B089582
:10402000DF93CF931F930F939A9DF02D219FF00D57
:104030008B9DF00D8A9DE02DF10D039FF00D029FE9
:10404000E00DF11D4E9DE00DF11D5E9DF00D4F9DAB
:10405000F00D7F936F93BF92AF925F934F93D50113
:104060000E94CD1C8B01AC01D7010E94CD1CEB013D
:10407000E80FF91FD6010E9460202F913F91D601D1
:104080000E94CD1CC60FD71FE81FF91FAF91BF912B
:104090000E9460202F913F910E94CD1CC60FD71F18
:1040A000E81FF91FD6010E94CD1CE60FF71F9801EB
:1040B000BE01CF0111240F911F91CF91DF9108957F
:1040C0000E94CD1C460F571FC81FD91F08F43196F8
:1040D0000895689401C0E894F92FF12B12F00C9424
:1040E0009D20A0E0B0E0E7E7F0E20C949C1C092ED4
:1040F000059422F40E94F920112392F4F0E80F268F
:10410000FFEFE094F09400951095B094C094D09493
:10411000A194BF0ACF0ADF0AEF0AFF0A0F0B1F0B99
:104120000E94A82007FC0E94F920CDB7DEB7ECE082
:104130000C94B81C689401C0E8948F929F92CF931E
:10414000DF930E94A820DF91CF919F908F900895D8
:1041500088249924F401E401B0E49F93AA279A15D6
:104160008B049C04ED05FE05CF05D007A10798F44C
:10417000AD2FDC2FCF2FFE2FE92D982C892E982FD5
:10418000872F762F652F542F432F322F2227B85099
:1041900031F7BF9127C01B2EBF91BB27220F331FC2
:1041A000441F551F661F771F881F991F881C991C65
:1041B000EE1FFF1FCC1FDD1FAA1FBB1F8A149B040D
:1041C000EC05FD05CE05DF05A007B10748F08A180C
:1041D0009B08EC09FD09CE09DF09A00BB10B21609A
:1041E0001A94E1F62EF49401AF01BE01CD01000C4A
:1041F000089560957095809590953095409550956F
:1042000021953F4F4F4F5F4F6F4F7F4F8F4F9F4FC6
:1042100008950F93083090F0982F872F762F652FF1
:10422000542F432F322F22270850F4CF220F331F51
:10423000441F551F661F771F881F991F0A95B2F7E5
:104240000F91089597FB10F8169400080F9308300B
:1042500098F00850232F342F452F562F672F782F93
:10426000892F902DF4CF059497958795779567952D
:1042700057954795379527950A95AAF70F91089571
:104280002A0D3B1D4C1D5D1D6E1D7F1D801F911F46
:1042900008952A193B094C095D096E097F09800BB5
:1042A000910B08950024A7FD00942A1730054005BE
:1042B000500560057005800590050895AA1BBB1B7D
:1042C00051E107C0AA1FBB1FA617B70710F0A61B16
:1042D000B70B881F991F5A95A9F780959095BC0137
:1042E000CD01089581E090E0F8940C948221FB01C7
:1042F000DC010D900020E9F7119701900D9200204C
:10430000E1F7089511E0C6E5D1E004C0FE010E9486
:0E43100002202196C735D107C9F7F894FFCFD8
:10431E000100060000000019128101020D60123327
:10432E000D110D250D000000003A020A02C802DE32
:10433E00010202EE01DF0100000000D7028101C878
:0A434E00028E028F02A60276020022
:00000001FF
