:100000000C94B1010C94D9010C94D9010C943307D0
:100010000C9433070C9433070C94D9010C94D90138
:100020000C94D9010C94D9010C94D9010C94D901E8
:100030000C94D9010C94D9010C94D9010C94D901D8
:100040000C94DC040C94D9010C94D9010C94D901C2
:100050000C94D9010C94D9010C94D9010C94D901B8
:100060000C9460050C94D90127222E22972200239C
:100070000B23362361238623A023DB23E623076398
:100080004236B79BD8A71A39685618AEBAAB558C0A
:100090001D3CB7CC5763BD6DEDFD753EF617723153
:1000A000BF000000803F08000000BE922449123EBD
:1000B000ABAAAA2ABECDCCCC4C3E00000080BEAB81
:1000C000AAAAAA3E00000000BF000000803F000076
:1000D000000000084178D3BB4387D1133D190E3C83
:1000E000C3BD4282AD2B3E68EC8276BED98FE1A9BA
:1000F0003E4C80EFFFBE01C4FF7F3F0000000000C8
:100100000000000023002600290000000000250058
:1001100028002B0004040404040404040202020264
:1001200002020303030303030102040810204080BA
:100130000102040810200102040810202572480062
:1001400048756D696469747900B0460054656D70D6
:100150006572617475726500696E4847005072651A
:1001600073737572650066742F7300566172696FE0
:1001700000667400416C746974756465006674008F
:1001800052656C2E20416C74697400B04300546554
:100190006D706572617475726500685061005072AF
:1001A000657373757265006D2F7300566172696FA8
:1001B000006D00416C746974756465006D00526572
:1001C0006C2E20416C746974005243542056617245
:1001D000696F00202020566172696F6D65746572C9
:1001E0000020524354204A65746920546F6F6C7329
:1001F000005072657373203C20746F2065786974B9
:1002000000416C746974756465207265736574006F
:1002100050726573733A203E005361766520616EBB
:10022000642072657374617274004368672055704E
:10023000446E204E657874203E00424D5031383077
:1002400000424D5030383500424D45323830004282
:100250004D503238300053656E736F723A20004350
:100260006867205570446E204E657874203E0045C6
:100270005500555300556E6974733A202000436849
:1002800067205570446E204E657874203E004465AA
:1002900061647A6F6E653A20004368672055704448
:1002A0006E204E657874203E0046696C746572203D
:1002B000593A2000436867205570446E204E657897
:1002C00074203E0046696C74657220583A200050D4
:1002D0007265737320444E00416C74697475646573
:1002E0002052657365740068506100696E4847006C
:1002F000507265733A2000B04300B0460054656DFB
:10030000703A20006D2F730066742F73005661726F
:10031000696F3A20006D00667400416C7469743A2C
:100320002000202020566172696F6D65746572002F
:1003300020524354204A65746920546F6F6C7300D7
:1003400000000000240027002A000000000800022E
:100350000100000304070000000000000000502816
:10036000462811241FBECFEFD8E0DEBFCDBF11E07D
:10037000A0E0B1E0ECEAFEE502C005900D92A033EA
:10038000B107D9F723E0A0E3B1E001C01D92AE3977
:10039000B207E1F711E0C0EBD1E004C02197FE0104
:1003A0000E94782DCF3AD107C9F70E94CC190C943E
:1003B000492F0C940000CF92DF92EF92FF920F939F
:1003C0001F93CF93DF936C017A018B01C0E0D0E0E3
:1003D000CE15DF0589F0D8016D918D01D601ED9123
:1003E000FC910190F081E02DC6010995892B11F453
:1003F0007E0102C02196ECCFC701DF91CF911F9102
:100400000F91FF90EF90DF90CF900895833081F0AF
:1004100028F4813099F08230A1F008958730A9F056
:100420008830B9F08430D1F4809180008F7D03C092
:10043000809180008F7780938000089584B58F77B6
:1004400002C084B58F7D84BD08958091B0008F7700
:1004500003C08091B0008F7D8093B00008953FB7B6
:10046000F8948091F5019091F601A091F701B09177
:10047000F80126B5A89B05C02F3F19F00196A11DD4
:10048000B11D3FBFBA2FA92F982F8827820F911D2A
:10049000A11DB11DBC01CD0143E0660F771F881F70
:1004A000991F4A95D1F7089585ED8093BC008091FE
:1004B000BC0084FDFCCF1092450208954091CA0112
:1004C000262F30E0240F311D21323105DCF420913C
:1004D00045022430C9F4FC0180E090E0861758F40E
:1004E0003091CA012191DC01A855BE4FA30FB11D67
:1004F0002C930196F3CF8091CA01680F6093CA01D3
:1005000080E0089581E0089582E008950895E091E3
:10051000FE018091FD01E81730F4F0E0E150FE4F5C
:10052000808190E008958FEF9FEF08959091FE01F4
:100530008091FD01981750F4E92FF0E0E150FE4F53
:10054000208130E09F5F9093FE0102C02FEF3FEFCC
:10055000C90108958091FD0190E02091FE01821B68
:1005600091090895CF92DF92EF92FF920F931F931C
:10057000CF93DF937C01262F972F8A018091A701CB
:10058000882391F0C62FD72F6E01C40ED51ECC152F
:10059000DD0571F06991D701ED91FC910190F08139
:1005A000E02DC7010995F3CF642F822F0E945E02D0
:1005B000C801DF91CF911F910F91FF90EF90DF90D5
:1005C000CF900895CF93DF931F92CDB7DEB76983A5
:1005D0002091A7012223D1F02091A601203240F0E2
:1005E00021E030E0FC013383228380E090E015C0FD
:1005F0008091A501E82FF0E0EB57FE4F99819083A1
:100600008F5F8093A5018093A60105C061E0CE01B4
:1006100001960E945E0281E090E00F90DF91CF9101
:1006200008950895DC015196ED91FC9152979081C7
:1006300050968C9180958923808308952091FB01A9
:100640003091FC012817390771F49091F9018091DC
:10065000FA01981741F0E091F901F0E0EC58FE4FF3
:10066000808190E008958FEF9FEF08950895209185
:10067000FB013091FC012817390769F48091FA01D8
:100680002091F90190E04096821B910960E170E0B1
:100690000E94232D089580E090E008952091FB01B1
:1006A0003091FC0128173907B9F49091F901809134
:1006B000FA01981789F0E091F901F0E0EC58FE4F4B
:1006C00080812091F90130E02F5F3F4F2F70332759
:1006D0002093F90190E008958FEF9FEF089508951A
:1006E00080E090E008950E94392FCF92DF92EF9240
:1006F000FF920F931F93CF93DF93EC0189A19AA1EF
:10070000009729F421E030E03B832A8371C00FB7C2
:10071000F8948F8D98A1892B91F028E030E090E03B
:1007200081E0482F462309F09F5F880F215031094F
:10073000C1F7888D81119F5F192F109501C010E0BE
:10074000F62ECE010E94120389A19AA10197F1F71A
:1007500088E0C82ED12CEE24E3948E2D8F2139F021
:10076000E989FA8990818889892B808303C0CE0129
:100770000E94120389A19AA10197F1F7EE0C81E082
:10078000C81AD10851F78E89882389F0888D88236B
:1007900039F0E989FA8990818889892B808303C09F
:1007A000CE010E94120389A19AA10197F1F78F8DC2
:1007B00098A1892B81F010FF07C0E989FA899081FF
:1007C0008889892B808303C0CE010E9412038F8DFC
:1007D00098A10197F1F7E989FA8990818889892B95
:1007E00080830FBF8D8D9E8D0197F1F781E090E0A2
:1007F000DF91CF911F910F91FF90EF90DF90CF90FD
:100800000895CF93DF93282F30E0F901E65BFC4F8A
:100810008491F901E85DFE4FD491F901EC5EFE4F41
:10082000C491CC2391F081110E940602EC2FF0E0DC
:10083000EE0FFF1FE050FF4FA591B491EC91ED2317
:1008400081E090E021F480E002C080E090E0DF9160
:10085000CF9108951F93CF93DF93282F30E0F901B4
:10086000E65BFC4F8491F901E85DFE4FD491F901FC
:10087000EC5EFE4FC491CC23C9F0162F81110E946B
:100880000602EC2FF0E0EE0FFF1FE65FFE4FA59192
:10089000B4918FB7F894111105C09C91ED2FE0959C
:1008A000E92302C0EC91ED2BEC938FBFDF91CF9148
:1008B0001F910895CF93DF9390E0FC01E85DFE4F18
:1008C0002491FC01EC5EFE4F8491882361F190E05D
:1008D000880F991FFC01E05CFC4FC591D491FC018D
:1008E000E65FFE4FA591B491611109C09FB7F894DE
:1008F0008881209582238883EC912E230BC062305F
:1009000061F49FB7F8943881822F80958323888380
:10091000EC912E2B2C939FBF06C08FB7F894E881E3
:100920002E2B28838FBFDF91CF9108958F929F92B6
:10093000AF92BF92CF92DF92EF92FF926B017C0158
:100940000E942F024B015C01C114D104E104F104A7
:10095000F1F00E942F02DC01CB0188199909AA0944
:10096000BB09883E9340A105B10570F321E0C21A8E
:10097000D108E108F10888EE880E83E0981EA11CDA
:10098000B11CC114D104E104F10419F7DDCFFF90CB
:10099000EF90DF90CF90BF90AF909F908F90089591
:1009A0002FB7F8946091F1017091F2018091F301F9
:1009B0009091F4012FBF08951F920F920FB60F92DE
:1009C00011242F933F938F939F93AF93BF93809165
:1009D000F1019091F201A091F301B091F4013091F5
:1009E000F00126E0230F2D3720F40296A11DB11D42
:1009F00005C029E8230F0396A11DB11D2093F00126
:100A00008093F1019093F201A093F301B093F4016C
:100A10008091F5019091F601A091F701B091F80154
:100A20000196A11DB11D8093F5019093F601A0934D
:100A3000F701B093F801BF91AF919F918F913F91D2
:100A40002F910F900FBE0F901F901895CF93CFB797
:100A5000F8948091EF01811127C0EEE1F1E08491DB
:100A6000E2E3F1E09491E82FF0E0EE0FFF1FE05C8D
:100A7000FC4FA591B491EC91E92321F461E08AE067
:100A80000E942A0461E08AE00E945A048CB58061C9
:100A90008CBD8CB580648CBD61E08DE00E945A04F1
:100AA00061E08BE00E945A048091EF018F5F809398
:100AB000EF01CFBFCF91089508958CBD9DBD0895DE
:100AC0001F920F920FB60F9211242F933F934F93C3
:100AD0005F936F937F938F939F93AF93BF93EF93A6
:100AE000FF938091B900887F803609F49CC068F537
:100AF000883209F45BC090F4803109F454C038F4B2
:100B0000882309F4F6C0883009F44DC0F6C0883156
:100B100009F44CC0803209F45DC0EFC0803409F4A0
:100B200068C048F4803309F455C0883309F0E5C043
:100B300080934302D8C0803509F44FC0883509F44A
:100B40005DC0883409F0D9C0D6C0883909F4C7C05F
:100B5000A8F4883709F467C038F4883609F463C00C
:100B6000803709F460C0C9C0883809F4B8C080393A
:100B700009F45FC0803809F0C0C05BC0803B09F455
:100B800086C038F4803A09F466C0883A09F47FC018
:100B9000B4C0803C09F4A7C0883C09F4A4C0883BD9
:100BA00009F48AC0AAC08091400210C0909142020C
:100BB00080914102981770F5E091420281E08E0F1A
:100BC00080934202F0E0E15EFD4F80818093BB00A4
:100BD00085EC86C0809343028EC0E091420281E0A2
:100BE0008E0F809342028091BB00F0E0E15EFD4FEA
:100BF000808390914202809141026EC0E091420256
:100C000081E08E0F809342028091BB00F0E0E15EB4
:100C1000FD4F80838091440281116DC081E08093FB
:100C20003F0284EA61C083E0809345021092EE01A6
:100C3000CFCF8091EE01803208F051C0E091EE01FB
:100C400081E08E0F8093EE018091BB00F0E0E253D3
:100C5000FE4F8083BDCF85EC8093BC00109245028F
:100C60008091EE01803230F4E091EE01F0E0E25349
:100C7000FE4F10826091EE0170E0E091CC01F091A6
:100C8000CD018EEC91E009951092EE0136C084E022
:100C9000809345021092CB011092CA01E091C801E5
:100CA000F091C90109958091CA01811105C081E0C7
:100CB0008093CA011092A801E091CB0181E08E0FD0
:100CC0008093CB01F0E0E855FE4F80818093BB001C
:100CD0009091CB018091CA01981708F479CF85E8EB
:100CE0008093BC000AC085EC8093BC001092450242
:100CF00004C0109243020E945402FF91EF91BF91F1
:100D0000AF919F918F917F916F915F914F913F91A3
:100D10002F910F900FBE0F901F9018952091A60154
:100D200090918401213208F04AC0809145028111DE
:100D3000FCCF32E03093450231E0309344023FEF84
:100D4000309343021092420220934102A5E8B1E0A1
:100D50004FE152E0FA013E2F341B321718F43D9157
:100D60003193F9CF1092400220914002990F922BBB
:100D70009093400290913F02913061F410923F02B3
:100D8000909140029093BB009091BC0093FDF8CFEE
:100D900095EC01C095EE9093BC0090914502923085
:100DA000E1F3909143029F3F79F0809143028032BA
:100DB00041F080914302803331F084E005C081E04E
:100DC00003C082E001C083E01092A5011092A60149
:100DD0001092A701089581E08093A7016093840198
:100DE0001092A5011092A6010895862F413208F0B5
:100DF00040E2642F0E94AC161092FE018093FD0128
:100E000008951092FE011092FD011092A50110921A
:100E1000A6011092450281E08093440210923F02A5
:100E200061E082E10E942A0461E083E10E942A04D9
:100E3000E9EBF0E080818E7F808380818D7F8083ED
:100E400080E28093B80085E48093BC0008958627F3
:100E500098E027E087FF03C0880F822701C0880F32
:100E60009150C1F708951F920F920FB60F9211245F
:100E70002F933F934F935F936F937F938F939F93A2
:100E8000AF93BF93CF93DF93EF93FF93E091FB0179
:100E9000F091FC01309709F467C0C685D785888139
:100EA0002585822309F060C0818D928D0197F1F72D
:100EB000438D548D68E070E030E081E0DA011197F5
:100EC000F1F79881922311F0382B03C0982F909559
:100ED0003923880F6150710989F78091FA0190E0F8
:100EE00001968F7099276091F901681749F0A091D8
:100EF000FA01B0E0AC58BE4F3C938093FA0103C0B6
:100F000087898160878B86898823F1F0CA010197E0
:100F1000F1F78881282381E090E0A0E0B0E004C0F0
:100F2000880F991FAA1FBB1F2A95D2F74091720103
:100F30005091730160E070E0842B952BA62BB72BAA
:100F40009093730180937201878D90A1009711F0A7
:100F50000197F1F7858D968D0197F1F7A389B489F3
:100F60009C918589892B8C93FF91EF91DF91CF9193
:100F7000BF91AF919F918F917F916F915F914F91B1
:100F80003F912F910F900FBE0F901F901895E091F9
:100F9000FB01F091FC01E817F90769F4A389B48912
:100FA0009C918589809589238C931092FC011092E5
:100FB000FB0181E0089580E008950C94EE280C94E4
:100FC000E628CF92DF92EF92FF92CF93C82F8091C5
:100FD00047038F3F09F061C060913E0380913C035D
:100FE00090913D030E94EB0680913C0390913D035C
:100FF000DC01ED91FC910190F081E02D6C2F0995C1
:1010000080913C0390913D030E948E0643E06091E5
:101010003E0380913C0390913D030E94F506809130
:101020003C0390913D03DC01ED91FC910284F3853A
:10103000E02D09956C01990FEE08FF08FE2CED2CB0
:10104000DC2CCC2480913C0390913D03DC01ED919C
:10105000FC910284F385E02D0995AC01990F660B94
:10106000770BC42AD52AE62AF72AFE2CED2CDC2C95
:10107000CC2480913C0390913D03DC01ED91FC91E7
:101080000284F385E02D0995AC01990F660B770B6F
:10109000C42AD52AE62AF72A33C080914A038F3F13
:1010A00021F481E590E00E945D0560E080914703B6
:1010B0000E942A048C2F80680E94501780E00E94B2
:1010C0005017C82ED12CE12CF12CFE2CED2CDC2C51
:1010D000CC2480E00E945017C82AFE2CED2CDC2C7A
:1010E000CC2480E00E945017C82A61E08091470319
:1010F0000E942A0480914A038F3F11F40E945C05EC
:10110000C701B601CF91FF90EF90DF90CF90089587
:10111000CF93DF93D82FC62F809147038F3F41F5A0
:1011200060913E0380913C0390913D030E94EB0649
:1011300080913C0390913D03DC01ED91FC91019085
:10114000F081E02D6D2F099580913C0390913D0336
:10115000DC01ED91FC910190F081E02D6C2F09955F
:1011600080913C0390913D03DF91CF910C948E06CA
:1011700080914A038F3F21F481E590E00E945D0554
:1011800060E0809147030E942A048D2F8F770E9490
:1011900050178C2F0E94501761E0809147030E94E6
:1011A0002A0480914A038F3F21F4DF91CF910C9460
:1011B0005C05DF91CF910895CF93C82F80914703AD
:1011C0008F3F81F560913E0380913C0390913D03F8
:1011D0000E94EB0680913C0390913D03DC01ED9170
:1011E000FC910190F081E02D6C2F099580913C03DA
:1011F00090913D030E948E0641E060913E038091F4
:101200003C0390913D030E94F50680913C03909130
:101210003D03DC01ED91FC910284F385E02D0995FD
:10122000C82F20C080914A038F3F21F481E590E0D0
:101230000E945D0560E0809147030E942A048C2F84
:1012400080680E94501780E00E945017C82F61E00C
:10125000809147030E942A0480914A038F3F11F432
:101260000E945C058C2FCF910895CF93DF93C82FF8
:10127000809147038F3F09F041C060913E03809108
:101280003C0390913D030E94EB0680913C039091BA
:101290003D03DC01ED91FC910190F081E02D6C2F7C
:1012A000099580913C0390913D030E948E0642E097
:1012B00060913E0380913C0390913D030E94F506AE
:1012C00080913C0390913D03DC01ED91FC910284FF
:1012D000F385E02D0995C82F80913C0390913D0343
:1012E000DC01ED91FC910284F385E02D099520E06D
:1012F00030E03C2FE901C82BD92B29C080914A034B
:101300008F3F21F481E590E00E945D0560E08091CF
:1013100047030E942A048C2F80680E94501780E0A7
:101320000E945017C82F80E00E9450172C2F30E0E9
:10133000322F2227E901C82B61E0809147030E94E8
:101340002A0480914A038F3F11F40E945C05CE016C
:10135000DF91CF9108950E94350998278927982712
:101360000895EF92FF920F931F93CF93DF93909185
:101370007B039F3F39F48EBD00000DB407FEFDCF07
:101380008EB528C0D82F07E010E0C0E0EE24E3942B
:10139000F12CCC0F60E080917B030E942A04B701FE
:1013A000002E01C0660F0A94EAF76D23809179033D
:1013B0000E942A0461E080917B030E942A048091AC
:1013C0007A030E940104892B09F0C16001501109C0
:1013D00000F78C2FDF91CF911F910F91FF90EF902D
:1013E0000895CF93DF93C82F809178038F3F31F515
:1013F00060916F0386E492E00E94EB066C2F86E416
:1014000092E00E94E20286E492E00E948E0642E0B0
:1014100060916F0386E492E00E94F50686E492E014
:101420000E949602C82F86E492E00E94960220E075
:1014300030E03C2FE901C82BD92B29C080917B03D8
:101440008F3F21F481E590E00E945D0560E080918E
:1014500078030E942A048C2F80680E94B10980E0E2
:101460000E94B109C82F80E00E94B1092C2F30E002
:10147000322F2227E901C82B61E0809178030E9476
:101480002A0480917B038F3F11F40E945C059C2FFE
:101490008D2FDF91CF910895CF92DF92FF920F931E
:1014A0001F93CF93DF932091750230917602203104
:1014B0003105CCF56B0189010F5F1F4FF801EE0F6D
:1014C000FF1FEB58FD4F91838083F901EE0FFF1F43
:1014D000E956FD4F71836083F901EE0FFF1FE9525A
:1014E000FD4F11821082220F331FE901C954DD4FD5
:1014F00018820E94A828982F9F718981807EF82EDB
:10150000F92AC6010E94A8288295880F807E9F2D07
:101510009F71F92EF82AF9821093760200937502D2
:101520008FEF800F01C08FEFDF91CF911F910F914F
:10153000FF90DF90CF900895CF93DF9382E592E004
:101540000E94C707C2E5D2E061E08C850E945A0480
:1015500061E08C85DF91CF910C942A0480916F0219
:1015600090917002892B31F18091FB019091FC01E7
:1015700022E082359207F1F0009711F00E94C70730
:10158000809169028E7F809369021092FA01109215
:10159000F90182E592E09093FC018093FB01E091D8
:1015A0006502F0916602908180916702892B8083A9
:1015B00081E0089580E008950F931F93CF93DF9308
:1015C0008C01EB010E94A828ADEFB2E090E020E290
:1015D000981740F4A8014F5F5F4FF80104910C93F6
:1015E0008A0101C02C939F5F1196903189F7CE013B
:1015F0000E94A828ADE0B3E090E020E2981740F404
:10160000AE014F5F5F4FFE01C491CC93EA0101C070
:101610002C939F5F1196903189F7DF91CF911F91A5
:101620000F910895CF93DF93FC0101900020E9F71B
:101630003197E81B20E030E0F0E2A90148575F4F06
:101640002E1748F4EA01CB58DD4FDC01A20FB31F7F
:10165000AC91A88304C0DA01AB58BD4FFC932F5F57
:101660003F4F2031310549F7FB0101900020E9F798
:101670003197E61B80E090E040E29C0128563F4F06
:101680008E1748F4E901CB58DD4FDB01A80FB91FD5
:101690005C91588304C0D901AB58BD4F4C9301965F
:1016A0008031910551F7DF91CF91089567E786E486
:1016B00092E00E94EB0664EF86E492E00E94E20270
:1016C0006EE286E492E00E94E20286E492E00E94EA
:1016D0008E0665E070E080E090E00E94960486EF60
:1016E0000C94FC163F924F925F926F927F928F9272
:1016F0009F92AF92BF92CF92DF92EF92FF920F93A1
:101700001F93CF93DF93CDB7DEB728970FB6F8942A
:10171000DEBF0FBECDBF0E94560B6C01E12CF12C39
:10172000109125031295110F110F107C1C5C67E7B7
:1017300086E492E00E94EB0664EF86E492E00E9469
:10174000E202612F86E492E00E94E20286E492E0E7
:101750000E948E0680912503811105C065E070E02E
:1017600080E090E012C0813029F468E070E080E011
:1017700090E00BC0823029F46EE070E080E090E0F1
:1017800004C06AE170E080E090E00E94960486EF79
:101790000E94FC164C01A12CB12CBA2CA92C982C1F
:1017A000882488EF0E942B17882A30902503809187
:1017B0003A0390913B03A7019601281B390B41097D
:1017C0005109A0913803B09139030E947E2D6B011D
:1017D0007C01AFE0F594E794D794C794AA95D1F72C
:1017E0006091320370913303CB01770FAA0BBB0BCF
:1017F000BC01CD01BBE0660F771F881F991FBA950A
:10180000D1F720913403309135038901330F220B36
:10181000330BA90198012C0D3D1D4E1D5F1D0E942B
:10182000592DC20ED31EE41EF51E20EAC21A2FE067
:10183000D20AE108F108A7019601C701B6010E948A
:10184000132D9B01AC011CE05595479537952795C5
:101850001A95D1F729833A834B835C830091260341
:1018600010912703A0912A03B0912B03A7019601A1
:101870000E94892D2B013C018DE07594679457944B
:1018800047948A95D1F7A0912C03B0912D0329811B
:101890003A814B815C810E94892DBB2797FDB095D1
:1018A000AB2F840D951DA61DB71D0296A11DB11D60
:1018B00032E0B595A795979587953A95D1F79C0114
:1018C000AD0130584F4F5F4FA0913603B0913703B1
:1018D0000E947E2D2B013C014FE076946794579433
:1018E00047944A95D1F788E090E083199109A501C2
:1018F000940104C056954795379527958A95D2F758
:101900002D833E834F8358874801110FAA08BB08D7
:1019100052E0880C991CAA1CBB1C5A95D1F7A091C7
:101920002E03B0912F0329813A814B815C810E9463
:10193000892D9B01AC016BE055954795379527950F
:101940006A95D1F729833A834B835C83A09128035E
:10195000B0912903A70196010E94892DDC01CB01DA
:101960007BE0B595A795979587957A95D1F72981CD
:101970003A814B815C81820F931FA41FB51F880D94
:10198000991DAA1DBB1D032C04C0880F991FAA1FF7
:10199000BB1F0A94D2F7BC01CD016E5F7F4F8F4F02
:1019A0009F4F24E030E040E050E00E94592D8D81AF
:1019B0009E81AF81B885821B930BA40BB50B9C0154
:1019C000AD0180E593ECA0E0B0E0BC01CD0104C026
:1019D00096958795779567953A94D2F70E94132D3F
:1019E00097FD0BC0660F771F881F991FA3019201F7
:1019F0000E94372D69017A010AC0A30192010E9459
:101A0000372D69017A01CC0CDD1CEE1CFF1C9927D7
:101A1000F7FC9A958F2D7E2D6D2D9B01AC010E94B8
:101A2000132D9B01AC01AEEDBBE00E947E2D4C015D
:101A3000BB2497FCB094AB2CA3E4B3EEA7019601B2
:101A40000E948C2DBB2797FDB095AB2F880D991D5B
:101A5000AA1DBB1D8153914FAF4FBF4F44E0B595B9
:101A6000A795979587954A95D1F7BC01CD016C0D47
:101A70007D1D8E1D9F1D28960FB6F894DEBF0FBEEC
:101A8000CDBFDF91CF911F910F91FF90EF90DF902D
:101A9000CF90BF90AF909F908F907F906F905F900E
:101AA0004F903F9008958F929F92AF92BF92CF92A6
:101AB000DF92EF92FF928AEF0E94E10761157105B4
:101AC00020E88207910509F47CC040914B035091B6
:101AD0004C034A01A12CB12CC72ED82EE92EFF248D
:101AE000E7FCFA94C818D908EA08FB08DC01CB0126
:101AF00037E0B595A795979587953A95D1F7B501B4
:101B0000A401440F551F661F771F4C015D01841A05
:101B1000950AA60AB70AA5019401A0914D03B091B8
:101B20004E030E94892D4B015C01FBE0B594A79404
:101B300097948794FA95D1F7A7019601C701B6014A
:101B40000E94132D9B01AC01ACE05595479537954C
:101B50002795AA95D1F7A0914F03B09150030E9409
:101B6000892DDC01CB012EE0B595A795979587953A
:101B70002A95D1F7A5019401280F391F4A1F5B1F31
:101B8000209343033093440340934503509346030B
:101B9000A5E0B0E00E947E2DDC01CB0180589F4F74
:101BA000AF4FBF4F692F7A2F8B2F992787FD9A95BB
:101BB0000E941E2A20E030E048EC52E40E946E2988
:101BC00004C060E070E080EC9FE7FF90EF90DF9052
:101BD000CF90BF90AF909F908F9008952F923F929B
:101BE0004F925F926F927F928F929F92AF92BF922D
:101BF000CF92DF92EF92FF920F931F93CF93DF93D9
:101C0000CDB7DEB7A2970FB6F894DEBF0FBECDBF3B
:101C10000E94530D87EF0E94E1076F8378878987C1
:101C20009A87611571058048910509F4FDC180917D
:101C3000430390914403A0914503B09146036C0186
:101C40007D01FF0CCC08DC2C76019C01AD016C2DD4
:101C50007C2D8C2D9C2D345F414051096109710907
:101C6000810991092AA339A349835A836B837C8311
:101C70008D839E8359016A017B018C010E94912D05
:101C80002E8B3F8B488F598F6A8F7B8F8C8F9D8FC8
:101C900080915B038E8F90915C039B87A091590389
:101CA000AF8FB0915A03BC87E0915703E8A3F0913E
:101CB0005803FD87B0905403A09053031B2D110FC0
:101CC000110BC12ED12EE12EF12E012F2AA139A107
:101CD00049815A816B817C818D819E810E94912DE9
:101CE0000CE00E94C12E19012A013B014C01B09069
:101CF0005603A09055031B2D110F110BC12ED12E91
:101D0000E12EF12E012F2E893F89488D598D6A8D44
:101D10007B8D8C8D9D8D0E94912D08E00E94DA2E86
:101D200051016201730184010E94F82E70588F4F97
:101D30009F4F20905103309052035101C12CD12C60
:101D4000E12CF12C00E010E00E94912D01E20E94B4
:101D5000DA2E2E873F87488B598B6A8B7B8B8C8B37
:101D60009D8BA0E00E940A2F09F463C1AE8C1B85F5
:101D7000110F110BBB84C12ED12EE12EF12E012F9C
:101D80002E893F89488D598D6A8D7B8D8C8D9D8DD7
:101D90000E94912D19012A013B014C01AF8C1C8539
:101DA000110F110BBC84C12ED12EE12EF12E012F6B
:101DB0002AA139A149815A816B817C818D819E81C3
:101DC0000E94912D01E10E94C12E59016A017B01FF
:101DD0008C019101A201B301C4010E94F82E1901E6
:101DE0002A013B014C014F81588569857A8584E041
:101DF00075956795579547958A95D1F780E090E05E
:101E0000A0E1B0E0841B950BA60BB70B6C017D0124
:101E1000FF0CCC08DC2C76019C01AD016C2D7C2DD7
:101E20008C2D9C2D0FE10E94C12EF901B42FA52FFE
:101E30006C837D8389839A8328A19D85990F990B53
:101E40003D85492F592F692F792F892F03E20E9451
:101E5000C12E59016A017B018C019101A201B301DC
:101E6000C4010E94F82E59016A017B018C019F0177
:101E70004B2F5A2F6C817D8189819A810E94012F7D
:101E80004901542E652EB62FA72FF82FE92F03E016
:101E90000E94C12E5401C52CD62CEB2EFA2E0F2FEA
:101EA0001E2F0E94012F59016A017B01782E192FE4
:101EB00003E00E94C12E072D0E94012F03E00E9423
:101EC000C12E5401C52CD62CEB2EFA2E0F2F1E2F0F
:101ED0000E94012F02E00E94C12E0F2F0E94012FAD
:101EE00001E00E94C12E0F2F0E94012FAE84BF84FB
:101EF000C888D988EA88FB880C891D890E94EC2D46
:101F00002B873F8349835A836B837C838D839E8396
:101F10000DE00E94DA2E922E832E742E652E562E00
:101F2000472E382E292E3091620320916103932F82
:101F3000990F990BA92CB82CC72CD62CE52CF42C76
:101F4000032D122D492F592F692F792F892F0E9488
:101F5000912D0E94912D09E10E94DA2E59016A010A
:101F60007B018C012B853F8149815A816B817C816A
:101F70008D819E810E94F82E19012A013B014C019E
:101F80003091600320915F03932F990F990BAB84DD
:101F9000BF80C980DA80EB80FC800D811E81492FD3
:101FA000592F692F792F892F0E94912D03E10E94CB
:101FB000DA2E59016A017B018C019101A201B30162
:101FC000C4010E94F82E08E00E94DA2E522E632EE1
:101FD000742E852E962EF72FE82FB92F30915E03A1
:101FE00020915D03932F990F990B492F592F692F3A
:101FF000792F892F04E00E94C12E59016A017B01CB
:102000008C01252D362D472D582D692D7F2F8E2F94
:102010009B2F0E94F82E0E94162A20E030E040E814
:102020005BE30E94212B08C060E070E080EC9FE73A
:1020300003C060E070E0CB01A2960FB6F894DEBF5B
:102040000FBECDBFDF91CF911F910F91FF90EF9009
:10205000DF90CF90BF90AF909F908F907F906F90C8
:102060005F904F903F902F900895CF92DF92EF9224
:10207000FF92CF93C82F809178038F3F09F03FC024
:1020800060916F0386E492E00E94EB066C2F86E479
:1020900092E00E94E20286E492E00E948E0643E013
:1020A00060916F0386E492E00E94F50686E492E078
:1020B0000E9496026C01990FEE08FF08FE2CED2C91
:1020C000DC2CCC2486E492E00E949602AC01990FAD
:1020D000660B770BC42AD52AE62AF72AFE2CED2CAC
:1020E000DC2CCC2486E492E00E949602AC01990F8D
:1020F000660B770BC42AD52AE62AF72A33C08091CB
:102100007B038F3F21F481E590E00E945D0560E054
:10211000809178030E942A048C2F80680E94B10964
:1021200080E00E94B109C82ED12CE12CF12CFE2CAC
:10213000ED2CDC2CCC2480E00E94B109C82AFE2CB6
:10214000ED2CDC2CCC2480E00E94B109C82A61E08F
:10215000809178030E942A0480917B038F3F11F4C1
:102160000E945C05C701B601CF91FF90EF90DF9010
:10217000CF9008958F929F92AF92BF92CF92DF92AD
:10218000EF92FF928AEF0E943510EFE6F3E045856B
:1021900056854A01A12CB12CC72ED82EE92EFF243A
:1021A000E7FCFA94C818D908EA08FB08DC01CB015F
:1021B00037E0B595A795979587953A95D1F7B501ED
:1021C000A401440F551F661F771F4C015D01841A3F
:1021D000950AA60AB70AA5019401A785B0890E94AD
:1021E000892D4B015C013BE0B594A79497948794AB
:1021F0003A95D1F7A7019601C701B6010E94132DA8
:102200009B01AC016CE055954795379527956A95EC
:10221000D1F7A189B2890E94892DDC01CB017EE032
:10222000B595A795979587957A95D1F7A5019401CE
:10223000280F391F4A1F5B1F25833683478350872A
:10224000A5E0B0E00E947E2DDC01CB0180589F4FBD
:10225000AF4FBF4F692F7A2F8B2F992787FD9A9504
:102260000E941E2A20E030E048EC52E40E946E29D1
:10227000FF90EF90DF90CF90BF90AF909F908F90A6
:1022800008950F931F93CF93C82F02E512E0F80132
:10229000608F682FC8010E947503F801108E8C2F83
:1022A000CF911F910F9108952F923F924F925F927D
:1022B0006F927F928F929F92AF92BF92CF92DF9256
:1022C000EF92FF920F931F93CF93DF93CDB7DEB7BB
:1022D0002A970FB6F894DEBF0FBECDBF8C012A013E
:1022E0003B013A87298720E030E0A901C301B20110
:1022F0000E94692987FF05C060E070E080E09FEBE5
:1023000004C060E070E080E09FE3E12CF12CA9853F
:10231000BA85EA16FB0654F420E030E040E251E4CE
:102320000E946E292FEFE21AF20AF1CF9B01AC0155
:10233000C301B2010E94FD286B017C0120E030E066
:10234000A901C301B2010E94692987FF04C0F7FAFD
:10235000F094F7F8F094A12CB12CBDECB983ECEC1F
:10236000EA83FCECFB832DE32C8320E030E040E2A9
:1023700051E469817A818B819C810E94212B962E68
:10238000872E382E292EA70196010E94692918163A
:1023900044F03FEFA31AB30A99828A823B822C82CF
:1023A000E4CFA114B10429F045016FEF861A960A13
:1023B00003C092E0892E912C20E030E0A901C301F6
:1023C000B2010E94692987FF03C07FEF871A970A2D
:1023D00089859A850196880E991E1814190444F06F
:1023E00081E090E0DC01A819B909BE83AD8302C089
:1023F0001E821D8220E030E0A901C301B2010E94CB
:10240000692987FF07C08DE2F801808388248394BF
:10241000912C02C0812C912CA114B10449F4F80133
:10242000E80DF91D80E3808394012F5F3F4F490140
:10243000212C312CB101680D791D78876F832A1406
:102440003B04D1F129813A814B815C81C701B601FE
:102450000E946E290E94E0292B013C016F81788542
:10246000600F711F4AE0C2010E94B128B201550CF1
:10247000880B990B0E941E2A29813A814B815C812D
:102480000E94212B9B01AC01C701B6010E94FC28D0
:102490006B017C0120E030E040E251E469817A8107
:1024A0008B819C810E946E2969837A838B839C83B4
:1024B0003FEF231A330ABECF5B0189859A85181630
:1024C000190644F4F801E60FF71F8EE28083DB0162
:1024D00011965D01812C912CE985FA858E169F0657
:1024E0004CF520E030E040E251E4C701B6010E9423
:1024F000212B2B013C010E94E0296B017C01B401DE
:102500006A0D7B1D600F711F4AE0C6010E94B12851
:10251000B601DD0C880B990B0E941E2A9B01AC01B1
:10252000C301B2010E94FC286B017C01BFEF8B1A32
:102530009B0AD2CFCF01F7FF02C080E090E0A80E47
:10254000B91E2D813E81232B89F09501F801EA0DFA
:10255000FB1D40E26FEFA61AB60A4193C501821B2C
:10256000930BAD81BE818A179B07A4F3F801EA0D96
:10257000FB1D1082C8012A960FB6F894DEBF0FBE6D
:10258000CDBFDF91CF911F910F91FF90EF90DF9022
:10259000CF90BF90AF909F908F907F906F905F9003
:1025A0004F903F902F9008952F923F924F925F92BD
:1025B0006F927F928F929F92AF92BF92CF92DF9253
:1025C000EF92FF920F931F93CF93DF93C0901F035F
:1025D000D0902003E0902103F09022030E94D004C9
:1025E0002091F7022223E9F060E08EE70E9441117A
:1025F00061E082E90E94411161E083E20E944111A1
:1026000061E08091F7020E94411180910A018823C4
:1026100011F0815003C01092F70286E080930A0106
:1026200070C324EFC20E21E0D21EE11CF11C11E0A8
:10263000C616D706E806F90608F010E060E08EE757
:102640000E94411161E08FE90E944111111170C097
:102650008091F802A0917502B0917602E82FF0E027
:10266000EE0FFF1FE952FD4F20813181232B49F4EA
:102670008F5F282F30E02A173B0784F31092F8026F
:1026800002C08093F8026091F802F6E0E0E026E0F4
:1026900030E0E12C40E050E070E0CA01860F971F67
:1026A0008A179B07A4F5009709F1E394880F991FF7
:1026B000FC01E954FD4F80818F718830A1F0813099
:1026C00019F4C901039615C0811103C0C90102960E
:1026D00010C0853019F4C90104960BC0893019F077
:1026E000C901019606C0C901059603C0C9012F2F73
:1026F0003E2F4F5F5F4F4031510551F08B319105B7
:1027000014F0EA9404C0F22FE32F9C01C6CFC90154
:10271000C82FC06481E080936A026C2F82E592E04A
:102720000E94750360E08C2F0E942707C82F1DC0F0
:10273000E0919D03F0E0EE0FFF1FE854FD4F808114
:10274000C82FCF71829586958770C80FC85F81E0CA
:1027500080936A026C2F82E592E00E94750360E02C
:102760008C2F0E942707C82FE12CD1E0D0936A025A
:1027700061E182E592E00E9475036C2F81E10E9485
:102780002707C82FD0936A0264EA82E592E00E948C
:1027900075036C2F84EA0E942707C82FD0936A0222
:1027A00062E082E592E00E9475036C2F82E00E9455
:1027B0002707C82FD0936A0268E082E592E00E9462
:1027C00075036C2F88E00E942707C82FD0936A02F8
:1027D00060E082E592E00E94750310926A026C2F1D
:1027E00080E00E942707F82E1111EAC1C091F8027B
:1027F0006E2C6C0E2091750230917602C61551F048
:10280000772473947C0E7092F8020C2F10E002175C
:10281000130754F08091F80290E0821793070CF4AC
:102820006CC21092F80269C2CC2309F4C7C1E091CE
:102830002303F09124030995C295C07F680131E21A
:10284000C30ED11CC601880F991FFC01EB58FD4F28
:102850005F0180818F7190E08530910509F4BEC0E1
:10286000F4F5009709F495C0019709F0A7C1000F8E
:10287000111FF801E952FD4F0190F081E02D008118
:102880001181C160D0936A026C2F82E592E00E94B0
:1028900075036F2D8C2F0E942707C82F1F79F50114
:1028A000208122952695277030E0322F22273295FD
:1028B000330F307E022B132BD0936A02602F82E5F8
:1028C00092E00E9475036C2F802F0E942707082F2B
:1028D000912F9F79F501C081C07EC92B74C08830CB
:1028E000910521F0099709F4C2C068C1C860D0936E
:1028F0006A026C2F82E592E00E9475036F2D8C2F87
:102900000E942707C82F000F111FF801E952FD4F41
:102910000190F081E02D80819181A281B3816C01D1
:102920007D01FFE9FF22D0936A026C2D82E592E0DF
:102930000E9475036C2F8C2D0E942707C82F2D2C09
:102940003E2C4F2C552447FC5A94D0936A02622D9A
:1029500082E592E00E9475036C2F822D0E9427076A
:10296000C82F1701552437FC5094452CD0936A0288
:10297000622D82E592E00E9475036C2F822D0E94E9
:102980002707182F9F2D9F79F501C081C07EC92B85
:1029900062C0000F111FF801E952FD4F0190F08154
:1029A000E02D1081D0936A026C2F82E592E00E94A4
:1029B00075036F2D8C2F0E942707082F1F79F501B3
:1029C000C081C07EC12BD0936A026C2F82E592E059
:1029D0000E94750310926A02602F47C0C560D093B1
:1029E0006A026C2F82E592E00E94750310926A02DF
:1029F0006F2D8C2F0E942707F82E000F111FF80152
:102A0000E952FD4F0190F081E02D1181028190810A
:102A1000F5012081229526952770213011F0C0E024
:102A200001C0C0E4C92BD0936A02602F82E592E016
:102A30000E9475036F2D802F0E942707082FD093C7
:102A40006A02612F82E592E00E947503602F812F58
:102A50000E942707182FD0936A026C2F82E592E01C
:102A60000E94750310926A02612F8C2FA4C0C96066
:102A7000D0936A026C2F82E592E00E9475036F2D5D
:102A80008C2F0E942707C82F000F111FF801E95251
:102A9000FD4F0190F081E02D80809180A280B38075
:102AA00020E030E0A901C501B4010E941C2B1816DA
:102AB0001CF4C501B40103C0C501B40190580E94C3
:102AC000E7298B0180E090E00E941C2A9B01AC0169
:102AD000C501B4010E94FC282AE939E949E15FE314
:102AE0000E94212B20E030E543EC57E40E94212B8B
:102AF0001B012C0120E030E0A9010E941C2B1816BC
:102B00001CF4C201B10103C0C201B10190580E947E
:102B1000E729562EF72E812F8170F601EE0FFF1F49
:102B2000EB58FD4F9081929596959770913011F0EA
:102B300090E001C090E2192F182B20E030E0A901AD
:102B4000C501B4010E946929881F8827881F8295C2
:102B5000880F880F807C182BD0936A02652D82E540
:102B600092E00E9475036C2F852D0E942707C82FC5
:102B7000D0936A026F2D82E592E00E9475036C2F5C
:102B80008F2D0E942707C82FD0936A02602F82E5FD
:102B900092E00E9475036C2F802F0E942707C82F98
:102BA000D0936A02612F82E592E00E947503109231
:102BB0006A026C2F812F0E942707F82EC72D1ACE8C
:102BC000C0919D03D0936A026C2F82E592E00E942F
:102BD00075036F2D8C2F0E942707B82E0C2F10E045
:102BE0006801CC0CDD1C960128543D4F4901F901C8
:102BF0002081922F9F71F8E09F9F700111242295F0
:102C000026952770E22AD0936A026E2D82E592E023
:102C10000E94750310926A026B2D8E2D0E94270769
:102C2000F82EF601E958FD4FD081AD2EB180772402
:102C300073942A2D2D1B30E0F40180818F7190E078
:102C400028173907A4F4F501E49070926A026E2DFA
:102C500082E592E00E94750310926A026F2D8E2D1C
:102C60000E942707F82EFFEFAF1ABF0AE2CF000F2E
:102C7000111FD801A956BD4FDC910D2F11961C9143
:102C8000960128543D4F6901BB24B394202F2D1B7E
:102C900030E0F601808182958695877090E0281754
:102CA00039079CF4F801E490B0926A026E2D82E537
:102CB00092E00E94750310926A026F2D8E2D0E9481
:102CC0002707F82E0F5F1F4FE1CFCF5FC0939D0303
:102CD0008C2F90E020917502309176028217930735
:102CE00014F010929D030E94D00460931F03709310
:102CF0002003809321039093220361E08F2D0E9493
:102D00004111E0912303F0912403099560E08EEFD7
:102D10000E944111CDEFD2E01C2F105E61E089913D
:102D20000E9441111C13FACF60E08FEF0E94411105
:102D300081E0DF91CF911F910F91FF90EF90DF9095
:102D4000CF90BF90AF909F908F907F906F905F904B
:102D50004F903F902F900895909145029111FCCF94
:102D600091E090934502909344022FEF2093430209
:102D700010924202260F20934102909340029091BC
:102D80004002880F892B8093400280913F0281305E
:102D900061F410923F02809140028093BB008091C9
:102DA000BC0083FDF8CF85EC01C085EE8093BC00AC
:102DB000809145028130E1F380914202861710F440
:102DC00060914202AFE1B2E02FEF31E0F9018E2FC6
:102DD000821B861718F48D918193F9CF862F089561
:102DE000813208F080E2682F87E70E94AC161092CB
:102DF000FE018093FD010895CF93DF93C82F67E70D
:102E000086E492E00E94EB066C2F86E492E00E943A
:102E1000E20286E492E00E948E0667E786E492E092
:102E20000E94EB0682E090E00E94F01686E492E0B9
:102E30000E949602D82F80E0C82F86E492E00E947C
:102E40009602C82BD92B86E492E00E948E06CE0112
:102E5000DF91CF910895CF93C82F67E786E492E082
:102E60000E94EB066C2F86E492E00E94E20286E468
:102E700092E00E948E0667E786E492E00E94EB06ED
:102E800081E090E00E94F01686E492E00E949602B3
:102E9000C82F86E492E00E948E068C2FCF91089571
:102EA000EF92FF920F931F93CF93DF9390914A037A
:102EB0009F3F39F48EBD00000DB407FEFDCF8EB5E7
:102EC00028C0D82F07E010E0C0E0EE24E394F12CF6
:102ED000CC0F60E080914A030E942A04B701002EC3
:102EE00001C0660F0A94EAF76D23809148030E949F
:102EF0002A0461E080914A030E942A0480914903D8
:102F00000E940104892B09F0C1600150110900F7EA
:102F10008C2FDF91CF911F910F91FF90EF9008952B
:102F20002F923F924F925F926F927F928F929F92D9
:102F3000AF92BF92CF92DF92EF92FF920F931F93C7
:102F4000CF93DF93CDB7DEB7A2970FB6F894DEBF6D
:102F50000FBECDBF0E94BA1087EF0E9435106A8F56
:102F60007B8F8C8F9D8F8091740390917503A091BE
:102F70007603B09177036C017D01FF0CCC08DC2C4B
:102F800076019C01AD016C2D7C2D8C2D9C2D345F28
:102F90004140510961097109810991092AA339A3A5
:102FA00049835A836B837C838D839E8359016A0195
:102FB0007B018C010E94912D2A8B3B8B4C8B5D8B6E
:102FC0006E8B7F8B888F998F80918C038E8FE09191
:102FD0008D03EF83F0918A03FF8F80918B038887A5
:102FE000E0918803E8A3F0918903F987B090850305
:102FF000A09084031B2D110F110BC12ED12EE12E99
:10300000F12E012F2AA139A149815A816B817C813E
:103010008D819E810E94912D0CE00E94C12E19018C
:103020002A013B014C01B0908703A09086031B2D21
:10303000110F110BC12ED12EE12EF12E012F2A8955
:103040003B894C895D896E897F89888D998D0E9425
:10305000912D08E00E94DA2E510162017301840172
:103060000E94F82E70588F4F9F4F2090820330900F
:1030700083035101C12CD12CE12CF12C00E010E094
:103080000E94912D01E20E94DA2E2A873B874C870D
:103090005D876E877F87888B998BA0E00E940A2FBF
:1030A00009F45EC1AE8C1F81110F110BBF80C12EC0
:1030B000D12EE12EF12E012F2A893B894C895D8981
:1030C0006E897F89888D998D0E94912D19012A0121
:1030D0003B014C01AF8C1885110F110BB884C12E28
:1030E000D12EE12EF12E012F2AA139A149815A8139
:1030F0006B817C818D819E810E94912D01E10E94D6
:10310000C12E59016A017B018C019101A201B30119
:10311000C4010E94F82E19012A013B014C014A8D7D
:103120005B8D6C8D7D8D84E0759567955795479582
:103130008A95D1F780E090E0A0E1B0E0841B950B88
:10314000A60BB70B6C017D01FF0CCC08DC2C7601C3
:103150009C01AD016C2D7C2D8C2D9C2D0FE10E94CE
:10316000C12EF901B42FA52F6C837D8389839A83A7
:1031700028A19985990F990B3985492F592F692FC6
:10318000792F892F03E20E94C12E59016A017B0128
:103190008C019101A201B301C4010E94F82E5901D2
:1031A0006A017B018C019F014B2F5A2F6C817D811D
:1031B00089819A810E94012F4901542E652EB62FD4
:1031C000A72FF82FE92F03E00E94C12E5401C52C30
:1031D000D62CEB2EFA2E0F2F1E2F0E94012F5901F5
:1031E0006A017B01782E192F03E00E94C12E072D62
:1031F0000E94012F03E00E94C12E5401C52CD62C41
:10320000EB2EFA2E0F2F1E2F0E94012F02E00E949C
:10321000C12E0F2F0E94012F01E00E94C12E0F2FFF
:103220000E94012FAA84BB84CC84DD84EE84FF84B9
:10323000088919890E94EC2D28873F8349835A8386
:103240006B837C838D839E830DE00E94DA2E922E09
:10325000832E742E652E562E472E382E292E309111
:10326000930320919203932F990F990BA92CB82CBB
:10327000C72CD62CE52CF42C032D122D492F592FB9
:10328000692F792F892F0E94912D0E94912D09E19C
:103290000E94DA2E59016A017B018C0128853F8149
:1032A00049815A816B817C818D819E810E94F82E9B
:1032B00019012A013B014C013091910320919003A7
:1032C000932F990F990BA884BF80C980DA80EB8077
:1032D000FC800D811E81492F592F692F792F892F4D
:1032E0000E94912D03E10E94DA2E59016A017B01AF
:1032F0008C019101A201B301C4010E94F82E08E0E3
:103300000E94DA2E522E632E742E852E962EF72FC3
:10331000E82FB92F30918F0320918E03932F990FAF
:10332000990B492F592F692F792F892F04E00E947B
:10333000C12E59016A017B018C01252D362D472DA7
:10334000582D692D7F2F8E2F9B2F0E94F82E0E94C3
:10335000162A20E030E040E85BE30E94212B03C006
:1033600060E070E0CB01A2960FB6F894DEBF0FBE0E
:10337000CDBFDF91CF911F910F91FF90EF90DF9024
:10338000CF90BF90AF909F908F907F906F905F9005
:103390004F903F902F900895CF93DF93CDB7DEB736
:1033A000E0970FB6F894DEBF0FBECDBF789484B51A
:1033B000826084BD84B5816084BD85B5826085BD31
:1033C00085B5816085BD80916E00816080936E00BF
:1033D00010928100809181008260809381008091B1
:1033E0008100816080938100809180008160809362
:1033F00080008091B10084608093B1008091B00022
:1034000081608093B00080917A00846080937A001C
:1034100080917A00826080937A0080917A008E7F1A
:1034200080937A0080917A00806880937A0010926D
:10343000C10061E08DE00E945A0461E08DE00E94CD
:103440002A0461E083E00E945A0460E083E00E9465
:103450002A04809136019091370190930101809365
:10346000000163ED71E081EE91E00E94DC0A89ECDD
:1034700091E09093780280937702109298021092D4
:1034800097021092D8021092D7021092B70289E0E8
:103490008093B80281E090E0909376028093750269
:1034A00061E083E00E942A0461E083E00E945A0404
:1034B0004BE2E42E41E0F42EF70184918093620206
:1034C00007E111E0F801849190E0880F991F865F71
:1034D0009E4FFC0125913491309364022093630246
:1034E00060E083E00E945A0461E083E00E942A04C5
:1034F00083E080935E02F701E490E0925F02F801BE
:103500000491E02FF0E0EE0FFF1FE050FF4F859198
:103510009491909361028093600281E080936802AD
:1035200080EC90E090937402809373022EE430E07C
:1035300030936C0220936B022EEB30E030936E02DE
:1035400020936D024CE052E05093700240936F0262
:1035500030937202209371022091680024602093BE
:1035600068002DE630E0309366022093650228E083
:10357000209367020197F1F70E94AE0A0E949C0A0D
:103580008AE090E00E94DF0790E090933101809301
:103590003001019791F480E090E00E94DF07282F2E
:1035A00030E03093390120933801823008F43DC077
:1035B000109239011092380138C060E080E090E04C
:1035C0000E94DD0760E081E090E00E94DD0763E09B
:1035D00082E090E00E94DD0768E583E090E00E94D1
:1035E000DD076FE084E090E00E94DD0761E08AE0A3
:1035F00090E00E94DD0705E010E061E08DE00E94B0
:103600002A0464E670E080E090E00E94960460E0A6
:103610008DE00E942A0464E670E080E090E00E9461
:1036200096040150110949F7B6CF81E090E00E945D
:10363000DF07282F30E030933301209332018430AC
:1036400020F010923301109232010091320110915A
:103650003301109371010093700182E090E00E94A9
:10366000DF07282F30E030930901209308018630CE
:1036700030F083E090E090930901809308018091FD
:103680000801909109019195819591099093070105
:103690008093060183E090E00E94DF0790E0909322
:1036A00005018093040101978336910530F088E588
:1036B00090E0909305018093040160910401709162
:1036C0000501072E000C880B990B0E941E2A20E092
:1036D00030E048EC52E40E946E29609346017093FA
:1036E0004701809348019093490184E090E00E9453
:1036F000DF0790E0909303018093020101978336E6
:10370000910530F08FE090E09093030180930201E7
:103710006091020170910301072E000C880B990B38
:103720000E941E2A20E030E048EC52E40E946E29FC
:10373000609342017093430180934401909345014B
:103740008091380190913901892B09F069C06CEBA7
:1037500071E08EEB91E00E944C0A803188F490E099
:10376000FC01EE0FFF1FE952FD4F2EE331E03183E4
:103770002083880F991FFC01E954FD4F88E2808364
:1037800061EB71E083EB91E00E944C0A803188F498
:1037900090E0FC01EE0FFF1FE952FD4F2AE331E0FC
:1037A00031832083880F991FFC01E954FD4F88E085
:1037B000808367EA71E08BEA91E00E944C0A8031D5
:1037C00088F490E0FC01EE0FFF1FE952FD4F2AE460
:1037D00031E031832083880F991FFC01E954FD4FAC
:1037E00088E480836AE971E08EE991E00E944C0AE6
:1037F000803188F490E0FC01EE0FFF1FE952FD4F8D
:1038000024E631E031832083880F991FFC01E954BD
:10381000FD4F88E480836BE871E08EE891E068C03A
:103820006DE771E080E891E00E944C0A803188F4F5
:1038300090E0FC01EE0FFF1FE952FD4F2EE331E057
:1038400031832083880F991FFC01E954FD4F88E2E2
:10385000808361E771E084E791E00E944C0A803147
:1038600088F490E0FC01EE0FFF1FE952FD4F2AE3C0
:1038700031E031832083880F991FFC01E954FD4F0B
:1038800088E0808366E671E08BE691E00E944C0A56
:10389000803188F490E0FC01EE0FFF1FE952FD4FEC
:1038A0002AE431E031832083880F991FFC01E95419
:1038B000FD4F88E4808368E571E08DE591E00E942A
:1038C0004C0A803188F490E0FC01EE0FFF1FE952B2
:1038D000FD4F24E631E031832083880F991FFC01DE
:1038E000E954FD4F88E4808369E471E08CE491E061
:1038F0000E944C0A803188F490E0FC01EE0FFF1F1B
:10390000E952FD4F28E631E031832083880F991F6B
:10391000FC01E954FD4F88E280830130110509F074
:103920003CC16CE371E080E491E00E944C0A80317C
:1039300088F490E0FC01EE0FFF1FE952FD4F20E6F6
:1039400031E031832083880F991FFC01E954FD4F3A
:1039500088E2808387E780933E0386E492E0909339
:103960003D0380933C03809147038F3F29F486E415
:1039700092E00E9401071CC061E00E942A0461E0FD
:10398000809147030E945A0480914A038F3F19F4A3
:103990000E9426050DC061E00E945A0461E08091FA
:1039A00048030E945A0460E0809149030E945A042F
:1039B00080ED0E94DC08803609F026C166EB80EEBF
:1039C0000E9488086CE271E080E090E00E9496041A
:1039D00083EF0E94DC0880FF05C064E670E080E0B1
:1039E00090E0F4CF88E80E94AB0990934C03809359
:1039F0004B038AE80E94AB0990934E0380934D03DA
:103A00008CE80E94AB099093500380934F038EE89B
:103A10000E94AB09909352038093510380E90E9466
:103A2000AB09909354038093530382E90E94AB093E
:103A3000909356038093550384E90E94AB099093B9
:103A400058038093570386E90E94AB0990935A0369
:103A50008093590388E90E94AB0990935C0380939B
:103A60005B038AE90E94AB0990935E0380935D0338
:103A70008CE90E94AB099093600380935F038EE909
:103A80000E94AB09909362038093610381EA0E94D4
:103A9000DC088093630381EE0E94AB099093650379
:103AA0008093640383EE0E94DC088093660384EEB7
:103AB0000E94DC08182F85EE0E94DC08282F2F704A
:103AC000F0E11F9FC0011124822B90936803809323
:103AD000670386EE0E94DC08182F85EE0E94DC0842
:103AE00090E0E4E095958795EA95E1F740E1149F31
:103AF00090011124822B932B90936A038093690386
:103B000087EE0E94DC0880936B038DEE80936D033B
:103B100080916E038F71806A80936E0380916C0335
:103B2000807C80936C0365E082EF0E94880890910E
:103B30006C03692F677050E2659F90011124892FF3
:103B40008695869586958770E8E08E9FB001112452
:103B5000622B732B97FB992790F9692B85EF0E94B5
:103B6000880890916D03692F6770F0E26F9F900154
:103B70001124892F869586958695877048E0849FC5
:103B8000B0011124622B732B9295969596959370A4
:103B9000692B84EF0E94880837C00115110511F0C8
:103BA0000C94E42786E780936F03809178038F3F1E
:103BB00011F00C94122786E492E00E940107809194
:103BC00078038F3F11F00C94312760916F0386E4E6
:103BD00092E00E94EB0660ED86E492E00E94E20231
:103BE00086E492E00E948E0641E060916F0386E4D5
:103BF00092E00E94F50686E492E00E949602182F59
:103C0000183511F40C9454270E94D41260E08DE012
:103C10000E942A0405E010E08091700190917101EA
:103C2000009709F049C00E94901720E030E048EC6E
:103C300052E40E946E2920E030E54DE754E40E94F2
:103C40006E2921E03EED42E45EE30E948E2B9B0153
:103C5000AC0160E070E080E89FE30E94FC2820E077
:103C60003AE24DE257E40E94212B20E030E048EC9C
:103C700052E40E94212B0E94E02960936C01709312
:103C80006D0180936E0190936F010E94BA1020E045
:103C900030E040E251E40E94212B0E94E029609331
:103CA00068017093690180936A0190936B010E948F
:103CB00090170E94E029EAC18130910509F04AC1BC
:103CC0000E94EE0D20E030E048EC52E40E946E29A4
:103CD00020E030E54DE754E40E946E2921E03EEDFE
:103CE00042E45EE30E948E2B9B01AC0160E070E039
:103CF00080E89FE30E94FC2820E03AE24DE257E48E
:103D00000E94212B20E030E048EC52E40E94212B5D
:103D10000E94E02960936C0170936D0180936E01A5
:103D200090936F010E94530D20E030E040E251E497
:103D30000E94212B0E94E029609368017093690121
:103D400080936A0190936B010E94EE0D0E94E0291E
:103D5000609364017093650180936601909367019D
:103D60000E94530D8DEF0E9435096C01E12CF12C5E
:103D7000C11450E8D506E104F10409F4D6C08090DE
:103D8000430390904403A0904503B09046038CE217
:103D9000981A81E0A80AB1085EE0CC0CDD1CEE1C8C
:103DA000FF1C5A95D1F78091670390916803092E03
:103DB000000CAA0BBB0B64E1880F991FAA1FBB1F45
:103DC0006A95D1F7C81AD90AEA0AFB0AA0916903D1
:103DD000B0916A03A50194010E94892DC61AD70AE1
:103DE000E80AF90A90E4D90EE11CF11C7FE0F59491
:103DF000E794D794C7947A95D1F7A0916B030A2ED4
:103E0000000CBB0B0E94892D2B013C01EAE075944C
:103E1000679457944794EA95D1F7A0916603B0E070
:103E20000E947E2DDC01CB01FBE0B595A79597950F
:103E30008795FA95D1F7BC01CD0170588F4F9F4FF0
:103E4000A30192010E94132DDC01CB012AE0B5955C
:103E5000A795979587952A95D1F79C01AD01405E6E
:103E60005F4FA0916403B09165030E94892DDC012E
:103E7000CB01905EAF4FBF4FBC01CD013EE09595A9
:103E80008795779567953A95D1F7A70196010E9496
:103E9000132D6B017C014FE095958795779567957C
:103EA0004A95D1F79B01AC010E94132D9B01AC01F7
:103EB00067E055954795379527956A95D1F7A09175
:103EC0006303B0E00E947E2DDC01CB0174E0B59568
:103ED000A795979587957A95D1F7C81AD90AEA0ACE
:103EE000FB0AF7FE03C0C12CD12C7601D701C60115
:103EF000E1E0CE16D104E104E9E1FE0624F080E021
:103F000090E0A0E0B9E1BC01CD014CE0959587952A
:103F1000779567954A95D1F70E941E2A20E030E0F8
:103F200040E85AE30E94212B04C060E070E080EC7E
:103F30009FE720E030E040E251E40E94212B0E9404
:103F4000E029609360017093610180936201909316
:103F50006301A4C005970CF0A1C00E94720B0E94DF
:103F60001E2A20E836EE45EC57E40E946E2921E037
:103F70003EED42E45EE30E948E2B9B01AC0160E0CB
:103F800070E080E89FE30E94FC2820E03AE24DE2E6
:103F900057E40E94212B20E030E048EC52E40E94DC
:103FA000212B0E94E02960936C0170936D01809336
:103FB0006E0190936F010E94560BAC0160E070E0BF
:103FC00080913A0390913B039A01AB01281B390B76
:103FD00041095109A0913803B09139030E947E2D07
:103FE0006B017C019FE0F594E794D794C7949A9570
:103FF000D1F76091320370913303CB01770FAA0B95
:10400000BB0BBC01CD012BE0660F771F881F991FEA
:104010002A95D1F720913403309135034901330FAC
:10402000AA08BB08A7019601280D391D4A1D5B1D72
:104030000E94592DD701C601820F931FA41FB51FDF
:104040000896A11DB11DBC01CD0134E09595879561
:10405000779567953A95D1F70E941E2A20E030E0C7
:1040600040E251E40E946E2920E030E040E251E459
:104070000E94212B0E94E0296093680170936901DE
:1040800080936A0190936B010E94720B60936401AC
:1040900070936501809366019093670120905E01A3
:1040A00030905F01C0906C01D0906D01E0906E0186
:1040B000F0906F01F9E02F16310481F4C0925A019B
:1040C000D0925B01E0925C01F0925D01109256018A
:1040D000109257011092580110925901809152018B
:1040E00090915301A0915401B0915501A7019601FF
:1040F000281B390B4A0B5B0BCA01B9010E941E2A0F
:104100004B015C010E94D00440904E0150904F0141
:1041100060905001709051016419750986099709E2
:104120000E941C2A9B01AC0160E070E08AE794E4E5
:104130000E946E299B01AC01C501B4010E94212B94
:104140000E94E02960934A0170934B0180934C01D7
:1041500090934D010E94D00460934E0170934F01E3
:104160008093500190935101C0925201D09253011B
:10417000E0925401F092550160914A0170914B0117
:1041800080914C0190914D010E941E2A2B013C010F
:104190002091560130915701409158015091590199
:1041A00060914601709147018091480190914901C9
:1041B0000E94212B4B015C0120914201309143016F
:1041C0004091440150914501C301B2010E94212B4D
:1041D0009B01AC01C501B4010E94FD28609356010A
:1041E0007093570180935801909359010E94E029E0
:1041F0008090080190900901092C000CAA08BB08C6
:1042000086169706A806B9066CF080900601909075
:104210000701092C000CAA08BB08681579058A0556
:104220009B057CF4DC01CB0188199909AA09BB091B
:1042300080934A0190934B01A0934C01B0934D01A0
:1042400008C010924A0110924B0110924C0110923A
:104250004D0180915A0190915B01A0915C01B09158
:104260005D01A7019601281B390B4A0B5B0BCA01A4
:10427000B9012AE030E040E050E00E94592D20933F
:104280003E0130933F014093400150934101C701EB
:10429000B60124E630E040E050E00E94592D209322
:1042A0003A0130933B0140933C0150933D013AE089
:1042B00023163104FCF44FEF241A340A30925F01C4
:1042C00020925E0110924A0110924B0110924C0113
:1042D00010924D0110923E0110923F011092400148
:1042E0001092410110923A0110923B0110923C0150
:1042F00010923D018091380190913901019709F0A8
:1043000088C060913E0170913F0180914001909181
:1043100041010E941E2A2FEB3EE04CE95EE30E9421
:104320006E290E94E02960933E0170933F018093C3
:1043300040019093410160913A0170913B0180915D
:104340003C0190913D010E941E2A2FEB3EE04CE97A
:104350005EE30E946E290E94E02960933A01709307
:104360003B0180933C0190933D0160914A01709123
:104370004B0180914C0190914D010E941E2A2FEB20
:104380003EE04CE95EE30E946E290E94E0296093C2
:104390004A0170934B0180934C0190934D016091C1
:1043A00064017091650180916601909167010E949E
:1043B0001E2A2DED38EE41EF5CE30E94212B0E9476
:1043C000E029609364017093650180936601909386
:1043D0006701609168017091690180916A01909113
:1043E0006B010E941E2A26E636E646EE5FE30E9437
:1043F000212B20E030E040E052E40E94FD280E94A2
:10440000E029609368017093690180936A01909339
:104410006B01E0913601F0913701EA30F10521F0AE
:1044200010923501109234018091000190910101A8
:104430008E179F0721F0F0930101E0930001EB300C
:10444000F10508F0D8C1EC5CFF4F0C94782D62E2C6
:1044500073E080E393E00E94DC0ACDC119A2198ABF
:104460006AE173E0CE0181960E949D2819826091D5
:104470003E0170913F0180914001909141010E9465
:104480001E2A20E030E040E251E40E946E29AB0198
:10449000BC0121E030E0CE0101960E945411BE0122
:1044A0006F5F7F4FCE0181960E943E2F8091380131
:1044B00090913901019719F467E173E002C065E159
:1044C00073E0CE0181960E949D286DE073E0CE01DD
:1044D00041960E949D28198260914A0170914B017A
:1044E00080914C0190914D010E941E2A20E030E005
:1044F00048EC52E40E946E29AB01BC0122E030E09E
:10450000CE0101960E945411BE016F5F7F4FCE0114
:1045100041960E943E2F8091380190913901019778
:1045200019F468E073E05CC164E073E059C119A25A
:10453000198A6DEF72E0CE0181960E949D28198242
:10454000609168017091690180916A0190916B019D
:104550000E941E2A20E030E040E251E40E946E29D1
:10456000AB01BC0121E030E0CE0101960E94541164
:10457000BE016F5F7F4FCE0181960E943E2F8091DA
:10458000380190913901019719F46AEF72E002C085
:1045900067EF72E0CE0181960E949D2860EF72E085
:1045A000CE0141960E949D2819826091640170910C
:1045B000650180916601909167010E941E2A20E0AA
:1045C00030E048EC52E40E946E29AB01BC0121E0CE
:1045D00030E0CE0101960E945411BE016F5F7F4F03
:1045E000CE0141960E943E2F809138019091390171
:1045F000019719F46BEE72E0F3C067EE72E0F0C061
:1046000019A2198A68ED72E0CE0181960E949D2858
:104610006FEC72E0E5C019A2198A64EC72E0CE0179
:1046200081960E949D281982609104017091050174
:10463000072E000C880B990B0E941E2A20E030E008
:1046400048EC52E40E946E29AB01BC0122E030E04C
:10465000CE0101960E945411BE016F5F7F4FCE01C3
:1046600081960E943E2F64EB72E0BAC019A2198AAB
:1046700069EA72E0CE0181960E949D2819826091BC
:10468000020170910301072E000C880B990B0E9408
:104690001E2A20E030E048EC52E40E946E29AB0173
:1046A000BC0122E030E0CE0101960E945411BE010F
:1046B0006F5F7F4FCE0181960E943E2F69E972E0C5
:1046C0008FC019A2198A6EE872E0CE0181960E940D
:1046D0009D2819826091080170910901072E000C34
:1046E000880B990B0E941E2AAB01BC0120E030E030
:1046F000CE0101960E945411BE016F5F7F4FCE0123
:1047000081960E943E2F6EE772E06AC019A2198A54
:1047100065E772E0CE0181960E949D288091380164
:1047200090913901019719F462E772E002C06FE6D7
:1047300072E0CE0181960E949D286FE572E050C024
:1047400019A2198A66E572E0CE0181960E949D2821
:104750008091320190913301892B31F46FE472E042
:10476000CE0181960E949D28809132019091330163
:10477000019731F468E472E0CE0181960E949D2891
:104780008091320190913301029731F461E472E03B
:10479000CE0181960E949D28809132019091330133
:1047A000039731F46AE372E0CE0181960E949D285E
:1047B0006AE272E015C019A2198A69E172E0CE01BD
:1047C00081960E949D2860E172E00AC019A2198AB0
:1047D00061E072E0CE0181960E949D2861EF71E058
:1047E000CE0141960E949D28BE016F5E7F4FCE0193
:1047F00081960E94120B82E592E00E94C7070E94F8
:104800009C0A0E94D41260E080915E020E945A04C9
:1048100061E080915E020E942A040E94AE0A0E941A
:10482000AE0A0E94D0044B015C0154E6850E911C37
:10483000A11CB11CE12CF12C0E94D0046815790553
:104840008A059B0580F582E592E00E9437031816E1
:10485000190694F782E592E00E94370318161906AC
:1048600014F0712C1AC082E592E00E944E03782E5B
:1048700080911E038711B7C2C090F902D090FA024E
:10488000E090FB02F090FC020E94D004C616D7060E
:10489000E806F90608F4A7C2E4CFE72CF12CE114EE
:1048A000F10451F2B9C280EFE816F10409F491C2A3
:1048B000E114F10409F48DC290E9E916F10409F458
:1048C000FBC15CF4F0E6EF16F10409F45EC220E7E8
:1048D000E216F10409F451C07CC230EDE316F10494
:1048E00009F460C040EEE416F10431F050EBE51637
:1048F000F10409F06EC2EAC080913601909137014F
:104900008A30910509F465C2099739F5609138013B
:1049100080E090E00E94DD076091320181E090E04C
:104920000E94DD076091080182E090E00E94DD07AF
:104930006091040183E090E00E94DD076091020134
:1049400084E090E00E94DD0764E670E080E090E0A3
:104950000E949604E0E0F0E0099580913601909184
:1049600037010A9721F41092370110923601809195
:1049700036019091370101969AC18091360190914C
:1049800037010A9731F481E090E0909337018093EA
:1049900036018091360190913701009709F419C2D0
:1049A000019785C18091360190913701049779F57F
:1049B000809104019091050101968436910529F0BA
:1049C000909305018093040104C010920501109298
:1049D00004016091040170910501072E000C880B01
:1049E000990B0E941E2A20E030E048EC52E40E941D
:1049F0006E2960934601709347018093480190931C
:104A0000490124E030E03093370120933601809152
:104A1000360190913701059769F5809102019091D7
:104A2000030101968436910529F090930301809348
:104A3000020104C010920301109202016091020170
:104A400070910301072E000C880B990B0E941E2AFF
:104A500020E030E048EC52E40E946E29609342016D
:104A60007093430180934401909345011093370163
:104A7000009336018091360190913701069709F035
:104A8000A8C180910801909109018530910534F405
:104A90000196909309018093080106C0059721F4BF
:104AA000109209011092080180910801909109016A
:104AB000919581959109909307018093060146E0B5
:104AC00050E0509337014093360183C18091360105
:104AD000909137010397B1F480916C0190916D0131
:104AE000A0916E01B0916F0180935A0190935B0188
:104AF000A0935C01B0935D018AE090E09093370150
:104B0000809336018091360190913701049771F5B9
:104B10008091040190910501019797FD05C0909344
:104B200005018093040104C0109205011092040154
:104B30006091040170910501072E000C880B990B00
:104B40000E941E2A20E030E048EC52E40E946E29C8
:104B50006093460170934701809348019093490107
:104B600084E090E090933701809336018091360184
:104B700090913701059761F58091020190910301B1
:104B8000019797FD05C0909303018093020104C033
:104B900010920301109202016091020170910301D1
:104BA000072E000C880B990B0E941E2A20E030E093
:104BB00048EC52E40E946E296093420170934301D5
:104BC000809344019093450110933701009336017F
:104BD0008091360190913701069721F58091080167
:104BE000909109011816190634F401979093090160
:104BF0008093080106C0892B21F4109309010093CA
:104C00000801809108019091090191958195910980
:104C10009093070180930601E6E0F0E0F0933701FE
:104C2000E093360180913601909137010797B9F4EE
:104C30008091380190913901892B39F481E090E01D
:104C4000909339018093380104C010923901109279
:104C5000380187E090E0909337018093360180918E
:104C6000360190913701089709F0B3C08091320165
:104C700090913301009719F481E090E005C08130F4
:104C8000910539F482E090E09093330180933201F2
:104C90000CC08230910519F483E090E0F5CF0397C2
:104CA00021F4109233011092320188E090E0909349
:104CB0003701809336018DC0809136019091370184
:104CC000049789F580910401909105010A96843634
:104CD00091052CF4909305018093040106C023E60E
:104CE00030E030930501209304016091040170913C
:104CF0000501072E000C880B990B0E941E2A20E04C
:104D000030E048EC52E40E946E29609346017093B3
:104D10004701809348019093490144E050E050934B
:104D20003701409336018091360190913701059704
:104D300009F04FC080910201909103010A968436D8
:104D4000910514F083E690E09093030180930201B3
:104D50006091020170910301072E000C880B990BE2
:104D60000E941E2A20E030E048EC52E40E946E29A6
:104D700060934201709343018093440190934501F5
:104D8000109337010093360124C080913601909131
:104D90003701049761F410920501109204011092FA
:104DA00046011092470110924801109249018091EA
:104DB000360190913701059761F41092030110922A
:104DC000020110924201109243011092440110928C
:104DD000450180E090E0892B11F40C940C1E0E9498
:104DE00000000C940A1E0E94D004DC01CB01805705
:104DF0009E4FAF4FBF4F8093F9029093FA02A0935A
:104E0000FB02B093FC0270921E0390EF791245CD25
:104E100080EFE82EF12C10CDE0EFEE16F10409F052
:104E20004BCDD7CF61E00E942A0461E080917803E6
:104E30000E945A0480917B038F3F21F40E94260533
:104E40000C94DF1D61E00E945A0461E080917903B7
:104E50000E945A0460E080917A030E945A040C94E4
:104E6000DF1D80917B038F3F21F481E590E00E945C
:104E70005D0560E0809178030E942A0480ED0E9425
:104E8000B10980E00E94B109182F61E08091780398
:104E90000E942A0480917B038F3F11F00C94001E26
:104EA0000E945C050C94001E88E80E94F109909312
:104EB0007D0380937C038AE80E94F10990937F032D
:104EC00080937E038CE80E94F10990938103809384
:104ED00080038EE80E94F1099093830380938203FC
:104EE00080E90E94F109909385038093840382E90D
:104EF0000E94F109909387038093860384E90E94BE
:104F0000F109909389038093880386E90E94F1094F
:104F100090938B0380938A0388E90E94F109909310
:104F20008D0380938C038AE90E94F10990938F038B
:104F300080938E038CE90E94F109909391038093F2
:104F400090038EE90E94F10990939303809392035A
:104F5000809178038F3FB1F460916F0386E492E013
:104F60000E94EB0664EF86E492E00E94E2026FE3A7
:104F700086E492E00E94E20286E492E00E948E06BD
:104F80000C94041E80917B038F3F21F481E590E017
:104F90000E945D0560E0809178030E942A0484E706
:104FA0000E94B1098FE30E94B10961E0809178030A
:104FB0000E942A0480917B038F3F11F00C94041E01
:104FC0000E945C050C94041E0430110514F00C942E
:104FD000041E83E08093250386E492E00E9401078B
:104FE00080ED0E942B17853511F00C94041E8AEA7F
:104FF0000E94FC1690932703809326038CEA0E945C
:10500000FC1690932903809328038EEA0E94FC16D5
:1050100090932B0380932A0380EB0E94FC169093BD
:1050200037038093360382EB0E94FC16909339037A
:105030008093380384EB0E94FC1690933B0380938B
:105040003A0386EB0E94FC1690932D0380932C0369
:1050500088EB0E94FC1690932F0380932E038AEB1B
:105060000E94FC1690933103809330038CEB0E94D6
:10507000FC1690933303809332038EEB0E94FC1650
:1050800090933503809334030C94041E81E291E0E5
:10509000909353028093520282E592E00C94C707EA
:1050A000E6E4F2E01382128288EE93E0A0E0B0E042
:1050B00084839583A683B7832FE031E031832083F7
:1050C000E2E5F2E01382128284839583A683B7839C
:1050D00081E291E091838083A9E6B2E08C918E7F9A
:1050E0008C93128E118E148E138E168E158E12A224
:1050F00011A2EFE6F3E08FEF8187828783878487B1
:10510000ECE3F3E083878487858786871092F90232
:105110001092FA021092FB021092FC021092F70217
:1051200010927602109275021092F80281E193E0DB
:1051300090932403809323030895FB01DC010D90D9
:105140000020E9F7119705900D920020E1F70895EE
:10515000FC0105900020E9F7809590958E0F9F1F28
:105160000895BB274A3031F4992322F4BDE290958B
:1051700081959F4F0C94BD28BB27FB015527AA277B
:10518000880F991FAA1FA41710F0A41B83955051D4
:10519000B9F7A05DAA3308F0A95DA193009779F74C
:1051A000B111B1931192CB010C94D628DC01FC0112
:1051B000672F71917723E1F7329704C07C916D934B
:1051C00070836291AE17BF07C8F30895F999FECFB7
:1051D00092BD81BDF89A992780B50895262FF99937
:1051E000FECF1FBA92BD81BD20BD0FB6F894FA9ACA
:1051F000F99A0FBE019608955058BB27AA270E941E
:1052000014290C94E22A0E94D42A38F00E94DB2A46
:1052100020F039F49F3F19F426F40C94C12A0EF4BF
:10522000E095E7FB0C94BB2AE92F0E94F32A58F380
:10523000BA17620773078407950720F079F4A6F57B
:105240000C94152B0EF4E0950B2EBA2FA02D0B010C
:10525000B90190010C01CA01A0011124FF27591BBB
:1052600099F0593F50F4503E68F11A16F040A22FC1
:10527000232F342F4427585FF3CF46953795279532
:10528000A795F0405395C9F77EF41F16BA0B620B31
:10529000730B840BBAF09150A1F0FF0FBB1F661F78
:1052A000771F881FC2F70EC0BA0F621F731F841FBB
:1052B00048F4879577956795B795F7959E3F08F0E1
:1052C000B0CF9395880F08F09927EE0F97958795A3
:1052D00008950E94972A08F481E008950E94822987
:1052E0000C94E22A0E94DB2A58F00E94D42A40F053
:1052F00029F45F3F29F00C94BB2A51110C94162B12
:105300000C94C12A0E94F32A68F39923B1F3552320
:1053100091F3951B550BBB27AA27621773078407C8
:1053200038F09F5F5F4F220F331F441FAA1FA9F35E
:1053300035D00E2E3AF0E0E832D091505040E6954C
:10534000001CCAF72BD0FE2F29D0660F771F881FAD
:10535000BB1F261737074807AB07B0E809F0BB0BA0
:10536000802DBF01FF2793585F4F3AF09E3F5105B4
:1053700078F00C94BB2A0C94162B5F3FE4F3983E14
:10538000D4F3869577956795B795F7959F5FC9F79D
:10539000880F911D9695879597F90895E1E0660F1E
:1053A000771F881FBB1F621773078407BA0720F097
:1053B000621B730B840BBA0BEE1F88F7E095089500
:1053C0000E94E7296894B1110C94162B08950E944D
:1053D000FB2A88F09F5798F0B92F9927B751B0F062
:1053E000E1F0660F771F881F991F1AF0BA95C9F769
:1053F00014C0B13091F00E94152BB1E008950C94C7
:10540000152B672F782F8827B85F39F0B93FCCF379
:10541000869577956795B395D9F73EF490958095E5
:10542000709561957F4F8F4F9F4F089597FB16F4AE
:105430000E94C42A0C945A2AE89409C097FB3EF4AF
:1054400090958095709561957F4F8F4F9F4F9923D1
:10545000A9F0F92F96E9BB279395F695879577954F
:105460006795B795F111F8CFFAF4BB0F11F460FF0F
:105470001BC06F5F7F4F8F4F9F4F16C0882311F067
:1054800096E911C0772321F09EE8872F762F05C07B
:10549000662371F096E8862F70E060E02AF09A9516
:1054A000660F771F881FDAF7880F9695879597F90B
:1054B0000895E894F92F96EBFF2381F01216130656
:1054C0001406440B9395F6958795779567955795B0
:1054D0004040FF23B9F71BC099270895882351F452
:1054E0009850D2F7872B762F652F542F432F322FCA
:1054F00020E0B1F3121613061406440B88233AF089
:105500009A95440F551F661F771F881FCAF75523AA
:105510004AF4440F551F11F460FF04C06F5F7F4FC2
:105520008F4F9F4F880F9695879597F90895990FFC
:105530000008550FAA0BE0E8FEEF16161706E8075D
:10554000F907C0F012161306E407F50798F0621B7E
:10555000730B840B950B39F40A2661F0232B242B53
:10556000252B21F408950A2609F4A140A6958FEF72
:10557000811D811D089597F99F6780E870E060E0C4
:1055800008959FEF80EC08959095809570956095B3
:1055900050954095309521953F4F4F4F5F4F6F4F3E
:1055A0007F4F8F4F9F4F089500240A9416161706B9
:1055B00018060906089500240A9412161306140604
:1055C00005060895092E0394000C11F4882352F067
:1055D000BB0F40F4BF2B11F460FF04C06F5F7F4F1F
:1055E0008F4F9F4F089557FD9058440F551F59F006
:1055F0005F3F71F04795880F97FB991F61F09F3FC0
:1056000079F087950895121613061406551FF2CFE8
:105610004695F1DF08C0161617061806991FF1CF38
:1056200086957105610508940895E894BB2766275F
:105630007727CB0197F908950E94972A08F48FEFF6
:1056400008950E94342B0C94E22A0E94D42A38F048
:105650000E94DB2A20F0952311F00C94BB2A0C94B5
:10566000C12A11240C94162B0E94F32A70F3959FE3
:10567000C1F3950F50E0551F629FF001729FBB2749
:10568000F00DB11D639FAA27F00DB11DAA1F649FE5
:105690006627B00DA11D661F829F2227B00DA11D98
:1056A000621F739FB00DA11D621F839FA00D611D1E
:1056B000221F749F3327A00D611D231F849F600D3F
:1056C000211D822F762F6A2F11249F5750409AF068
:1056D000F1F088234AF0EE0FFF1FBB1F661F771FF4
:1056E000881F91505040A9F79E3F510580F00C94BF
:1056F000BB2A0C94162B5F3FE4F3983ED4F38695B7
:1057000077956795B795F795E7959F5FC1F7FE2B5E
:10571000880F911D9695879597F90895FA01EE0FD8
:10572000FF1F309621053105A1F16115710561F466
:105730008038BFE39B0749F168949038810561F098
:105740008038BFEF9B0741F099234AF5FF3FE10501
:105750003105210519F1E8940894E795D901AA23A8
:1057600029F4AB2FBE2FF85FD0F310C0FF5F70F4A9
:10577000A695E0F7F73950F019F0FF3A38F49F7723
:105780009F930DD00F9007FC9058089546F00C940D
:10579000C12A60E070E080E89FE308954FE79F77BB
:1057A0005F934F933F932F930E94892C2F913F91AA
:1057B0004F915F910E94212B0C94E62B29F416F057
:1057C0000C94BB2A0C94152B0C94C12A0E94FB2A22
:1057D000A8F39638A0F707F80F92E8942BE33AEA7B
:1057E00048EB5FE70E94372B0F920F920F924DB755
:1057F0005EB70F920E94D12CEEE7F0E00E94182CC9
:105800004F915F91EF91FF91E595EE1FFF1F49F0DA
:10581000FE57E0684427EE0F441FFA95E1F74195E3
:10582000550B0E944B2C0F9007FE0C943F2C0895B3
:10583000DF93CF931F930F93FF92EF92DF927B0141
:105840008C01689406C0DA2EEF010E94342BFE0111
:10585000E894A5912591359145915591A6F3EF01D5
:105860000E941429FE019701A801DA9469F7DF90DC
:10587000EF90FF900F911F91CF91DF9108959B01C1
:10588000AC0160E070E080E89FE30C946E290C941A
:10589000BB2A0C94052D0E94FB2AD8F39923C9F347
:1058A000940F511DA3F39150504094F059F0882368
:1058B00032F0660F771F881F91505040C1F79E3F0E
:1058C00051052CF7880F911D9695879597F90895A6
:1058D0005F3FACF0983E9CF0BB2786957795679527
:1058E000B79508F4B1609395C1F7BB0F58F711F461
:1058F00060FFE8CF6F5F7F4F8F4F9F4FE3CF0C94D8
:10590000162B16F00C94052D0C94C12A68940C9457
:10591000BB2A0E94FB2AA8F39923C1F3AEF3DF93BD
:10592000CF931F930F93FF92C92FDD2788232AF06F
:105930002197660F771F881FDAF720E030E040E8F4
:105940005FEB9FE3883920F0803E38F021968F7717
:105950000E94FD28E6EAF0E004C00E94FD28E3ED85
:10596000F0E00E94182C8B01BE01EC01FB2E6F575A
:1059700071097595771F880B990B0E941E2A28E1E3
:1059800032E741E35FE30E94342BAF2D9801AE0173
:10599000FF900F911F91CF91DF910E9414290C94D9
:1059A000E22AFA01DC01AA0FBB1F9B01AC01BF5721
:1059B00028F4222733274427507820C0B75190F489
:1059C000AB2F0024469537952795011CA395D2F35C
:1059D000002071F0220F331F441FB395DAF30ED06D
:1059E0000C94FC2861307105A0E88A07B94630F4B0
:1059F0009B01AC016627772788279078309621F0A5
:105A0000208331834283538308959F3F31F0915027
:105A100020F4879577956795B795880F911D969592
:105A2000879597F90895DB018F939F930E947E2DB0
:105A3000BF91AF91A29F800D911DA39F900DB29F2A
:105A4000900D1124089597FB072E16F4009407D0AB
:105A500077FD09D00E94162F07FC05D03EF49095E3
:105A600081959F4F0895709561957F4F0895A1E2AC
:105A70001A2EAA1BBB1BFD010DC0AA1FBB1FEE1FC8
:105A8000FF1FA217B307E407F50720F0A21BB30B13
:105A9000E40BF50B661F771F881F991F1A9469F78F
:105AA00060957095809590959B01AC01BD01CF01EB
:105AB0000895052E97FB1EF400940E94702D57FD4B
:105AC00007D00E94372D07FC03D04EF40C94702DA4
:105AD00050954095309521953F4F4F4F5F4F08951A
