:100000000C940D020C9435020C9435020C948F075D
:100010000C948F070C948F070C9435020C943502C6
:100020000C9435020C9435020C9435020C94350274
:100030000C9435020C9435020C9435020C94350264
:100040000C9438050C9435020C9435020C9435024E
:100050000C9435020C9435020C9435020C94350244
:100060000C94BC050C9435022D28342827298A29A4
:100070009529B329D129F329212A3B2A532A5E2A1B
:1000800007634236B79BD8A71A39685618AEBAAB81
:10009000558C1D3CB7CC5763BD6DEDFD753EF61715
:1000A0007231BF000000803F08000000BE9224496A
:1000B000123EABAAAA2ABECDCCCC4C3E000000809A
:1000C000BEABAAAAAA3E00000000BF000000803F0D
:1000D0000000000000084178D3BB4387D1133D19CD
:1000E0000E3CC3BD4282AD2B3E68EC8276BED98FFA
:1000F000E1A93E4C80EFFFBE01C4FF7F3F0000003E
:10010000000000000000230026002900000000007D
:10011000250028002B000404040404040404020243
:100120000202020203030303030301020408102076
:1001300040800102040810200102040810202572EA
:10014000480048756D69646974790066742F73009E
:10015000566172696F2052617700B0460054656D38
:10016000706572617475726500696E4847005072FF
:100170006573737572650066742F730056617269DA
:100180006F00667400416C74697475646500667410
:100190000052656C2E20416C746974006D2F7300E1
:1001A000566172696F2052617700B0430054656DEB
:1001B0007065726174757265006850610050726597
:1001C0007373757265006D2F7300566172696F00ED
:1001D0006D00416C746974756465006D0052656CE6
:1001E0002E20416C74697400524354205661726928
:1001F0006F0020566172696F6D6574657220312ED3
:10020000340020524354204A65746920546F6F6C47
:10021000730052657365743A20446F776E005265BF
:100220007365742044656661756C74730053617600
:10023000653A20446F776E005361766520616E6485
:100240002052657374617274004368616E67653A29
:1002500020446F776E004F6666004F6E00526177E4
:1002600020566172696F3A20004368616E67653A93
:1002700020446F776E004555286D2CDF43290055CB
:10028000532866742CDF462900556E6974733A2032
:1002900000466F756E64204C505300466F756E6457
:1002A000204D533536313100466F756E6420424D16
:1002B0004532383000466F756E6420424D503238FA
:1002C0003000466F756E6420424D503038352F3106
:1002D0003830004E6F742044657465637465642122
:1002E0000044657465637465642053656E736F7252
:1002F0003A004368616E67653A2055702F446F7706
:100300006E00446561647A6F6E653A2000436861EF
:100310006E67653A2055702F446F776E0046696CA2
:1003200074657220593A20004368616E67653A200F
:1003300055702F446F776E0046696C746572205853
:100340003A200050726573733A20446F776E004113
:100350006C7469747564652052657365743F0068D8
:10036000506100696E484700507265733A2000B0D2
:100370004300B0460054656D703A200066742F73D8
:10038000006D2F730020002020002020200020205E
:1003900020200020200020202000202020200020DD
:1003A00020202020005661723A005661723A2000E7
:1003B0006674006D00002000202000202020000036
:1003C000202000202020002020202000416C743AB2
:1003D00000416C743A200020566172696F6D65743B
:1003E000657220312E340020524354204A657469CE
:1003F00020546F6F6C730000000000240027002A57
:1004000000000000080002010000030407000000D3
:10041000000000000000462F3C2F11241FBECFEF2C
:10042000D8E0DEBFCDBF11E0A0E0B1E0E4E3FDE63F
:1004300002C005900D92A633B107D9F723E0A6E3D9
:10044000B1E001C01D92AB3CB207E1F712E0CCE095
:10045000D2E004C02197FE010E947634CB30D10750
:10046000C9F70E94C71A0C948D360C940000CF92E5
:10047000DF92EF92FF920F931F93CF93DF936C0164
:100480007A018B01C0E0D0E0CE15DF0589F0D801FC
:100490006D918D01D601ED91FC910190F081E02DDF
:1004A000C6010995892B11F47E0102C02196ECCF7B
:1004B000C701DF91CF911F910F91FF90EF90DF90D7
:1004C000CF900895833081F028F4813099F0823004
:1004D000A1F008958730A9F08830B9F08430D1F4C4
:1004E000809180008F7D03C0809180008F77809302
:1004F0008000089584B58F7702C084B58F7D84BD58
:1005000008958091B0008F7703C08091B0008F7DF7
:100510008093B00008953FB7F8948091F3019091D3
:10052000F401A091F501B091F60126B5A89B05C094
:100530002F3F19F00196A11DB11D3FBFBA2FA92F62
:10054000982F8827820F911DA11DB11DBC01CD01DF
:1005500043E0660F771F881F991F4A95D1F70895CA
:1005600085ED8093BC008091BC0084FDFCCF10928F
:10057000650208954091C801262F30E0240F311DF7
:1005800021323105DCF4209165022430C9F4FC01EC
:1005900080E090E0861758F43091C8012191DC0189
:1005A000AA55BE4FA30FB11D2C930196F3CF809196
:1005B000C801680F6093C80180E0089581E0089544
:1005C00082E008950895E0911E0280911D02E817CF
:1005D00030F4F0E0E15EFD4F808190E008958FEF10
:1005E0009FEF089590911E0280911D02981750F47C
:1005F000E92FF0E0E15EFD4F208130E09F5F9093B6
:100600001E0202C02FEF3FEFC901089580911D0225
:1006100090E020911E02821B91090895CF92DF92F3
:10062000EF92FF920F931F93CF93DF937C01262FBE
:10063000972F8A018091A501882391F0C62FD72F8B
:100640006E01C40ED51ECC15DD0571F06991D70180
:10065000ED91FC910190F081E02DC7010995F3CF58
:10066000642F822F0E94BA02C801DF91CF911F919F
:100670000F91FF90EF90DF90CF900895CF93DF938D
:100680001F92CDB7DEB769832091A5012223D1F057
:100690002091A401203240F021E030E0FC013383BE
:1006A000228380E090E015C08091A301E82FF0E064
:1006B000ED57FE4F998190838F5F8093A3018093C4
:1006C000A40105C061E0CE0101960E94BA0281E05A
:1006D00090E00F90DF91CF9108950895DC0151963D
:1006E000ED91FC915297908150968C918095892341
:1006F0008083089520911B0230911C02281739072E
:1007000071F49091190280911A02981741F0E091CA
:100710001902F0E0EE58FE4F808190E008958FEFCF
:100720009FEF0895089520911B0230911C02281715
:10073000390769F480911A022091190290E04096DD
:10074000821B910960E170E00E942134089580E0ED
:1007500090E0089520911B0230911C022817390760
:10076000B9F49091190280911A02981789F0E091DA
:100770001902F0E0EE58FE4F80812091190230E01E
:100780002F5F3F4F2F7033272093190290E0089579
:100790008FEF9FEF0895089580E090E008950E9404
:1007A0007D36CF92DF92EF92FF920F931F93CF93FC
:1007B000DF93EC0189A19AA1009729F421E030E0B0
:1007C0003B832A8371C00FB7F8948F8D98A1892B32
:1007D00091F028E030E090E081E0482F462309F0D6
:1007E0009F5F880F21503109C1F7888D81119F5F6C
:1007F000192F109501C010E0F62ECE010E946E0355
:1008000089A19AA10197F1F788E0C82ED12CEE2496
:10081000E3948E2D8F2139F0E989FA8990818889B6
:10082000892B808303C0CE010E946E0389A19AA107
:100830000197F1F7EE0C81E0C81AD10851F78E89C3
:10084000882389F0888D882339F0E989FA89908195
:100850008889892B808303C0CE010E946E0389A101
:100860009AA10197F1F78F8D98A1892B81F010FF44
:1008700007C0E989FA8990818889892B808303C020
:10088000CE010E946E038F8D98A10197F1F7E9893F
:10089000FA8990818889892B80830FBF8D8D9E8DE9
:1008A0000197F1F781E090E0DF91CF911F910F91D7
:1008B000FF90EF90DF90CF900895CF93DF93282F94
:1008C00030E0F901EF5FFB4F8491F901E65DFE4FE7
:1008D000D491F901EA5EFE4FC491CC2391F08111CD
:1008E0000E946202EC2FF0E0EE0FFF1FEE5FFE4F62
:1008F000A591B491EC91ED2381E090E021F480E0AA
:1009000002C080E090E0DF91CF9108951F93CF93D4
:10091000DF93282F30E0F901EF5FFB4F8491F9015D
:10092000E65DFE4FD491F901EA5EFE4FC491CC23FF
:10093000C9F0162F81110E946202EC2FF0E0EE0F39
:10094000FF1FE45FFE4FA591B4918FB7F89411118A
:1009500005C09C91ED2FE095E92302C0EC91ED2BB1
:10096000EC938FBFDF91CF911F910895CF93DF93C9
:1009700090E0FC01E65DFE4F2491FC01EA5EFE4F33
:100980008491882361F190E0880F991FFC01E95060
:10099000FC4FC591D491FC01E45FFE4FA591B49149
:1009A000611109C09FB7F8948881209582238883BC
:1009B000EC912E230BC0623061F49FB7F89438811C
:1009C000822F809583238883EC912E2B2C939FBFBD
:1009D00006C08FB7F894E8812E2B28838FBFDF9154
:1009E000CF9108958F929F92AF92BF92CF92DF9254
:1009F000EF92FF926B017C010E948B024B015C0124
:100A0000C114D104E104F104F1F00E948B02DC0175
:100A1000CB0188199909AA09BB09883E9340A10511
:100A2000B10570F321E0C21AD108E108F10888EE9F
:100A3000880E83E0981EA11CB11CC114D104E104EE
:100A4000F10419F7DDCFFF90EF90DF90CF90BF90CA
:100A5000AF909F908F9008952FB7F8946091EF0119
:100A60007091F0018091F1019091F2012FBF0895F2
:100A70001F920F920FB60F9211242F933F938F93D3
:100A80009F93AF93BF938091EF019091F001A0915C
:100A9000F101B091F2013091EE0126E0230F2D37E4
:100AA00020F40296A11DB11D05C029E8230F03966D
:100AB000A11DB11D2093EE018093EF019093F001F1
:100AC000A093F101B093F2018091F3019091F401B0
:100AD000A091F501B091F6010196A11DB11D809381
:100AE000F3019093F401A093F501B093F601BF9147
:100AF000AF919F918F913F912F910F900FBE0F90CB
:100B00001F901895CF93CFB7F8948091ED01811184
:100B100027C0E0E2F1E08491E4E3F1E09491E82F72
:100B2000F0E0EE0FFF1FE950FC4FA591B491EC915E
:100B3000E92321F461E08AE00E94860461E08AE012
:100B40000E94B6048CB580618CBD8CB580648CBD70
:100B500061E08DE00E94B60461E08BE00E94B60483
:100B60008091ED018F5F8093ED01CFBFCF9108950C
:100B700008958CBD9DBD08951F920F920FB60F92E0
:100B800011242F933F934F935F936F937F938F9392
:100B90009F93AF93BF93EF93FF938091B900887FAA
:100BA000803609F49CC068F5883209F45BC090F483
:100BB000803109F454C038F4882309F4F6C0883031
:100BC00009F44DC0F6C0883109F44CC0803209F4F4
:100BD0005DC0EFC0803409F468C048F4803309F484
:100BE00055C0883309F0E5C080936302D8C08035D2
:100BF00009F44FC0883509F45DC0883409F0D9C0C4
:100C0000D6C0883909F4C7C0A8F4883709F467C08A
:100C100038F4883609F463C0803709F460C0C9C06D
:100C2000883809F4B8C0803909F45FC0803809F009
:100C3000C0C05BC0803B09F486C038F4803A09F438
:100C400066C0883A09F47FC0B4C0803C09F4A7C0EC
:100C5000883C09F4A4C0883B09F48AC0AAC08091EA
:100C6000600210C09091620280916102981770F545
:100C7000E091620281E08E0F80936202F0E0E15C1D
:100C8000FD4F80818093BB0085EC86C0809363021A
:100C90008EC0E091620281E08E0F809362028091AB
:100CA000BB00F0E0E15CFD4F808390916202809197
:100CB00061026EC0E091620281E08E0F8093620259
:100CC0008091BB00F0E0E15CFD4F80838091640285
:100CD00081116DC081E080935F0284EA61C083E08E
:100CE000809365021092EC01CFCF8091EC018032AD
:100CF00008F051C0E091EC0181E08E0F8093EC018F
:100D00008091BB00F0E0E453FE4F8083BDCF85ECC3
:100D10008093BC00109265028091EC01803230F427
:100D2000E091EC01F0E0E453FE4F10826091EC01A1
:100D300070E0E091CA01F091CB018CEC91E0099553
:100D40001092EC0136C084E0809365021092C901D4
:100D50001092C801E091C601F091C70109958091F8
:100D6000C801811105C081E08093C8011092A601DD
:100D7000E091C90181E08E0F8093C901F0E0EA554E
:100D8000FE4F80818093BB009091C9018091C80182
:100D9000981708F479CF85E88093BC000AC085ECE9
:100DA0008093BC001092650204C0109263020E94FE
:100DB000B002FF91EF91BF91AF919F918F917F9181
:100DC0006F915F914F913F912F910F900FBE0F90B8
:100DD0001F9018952091A40190918201213208F072
:100DE0004AC0809165028111FCCF32E030936502E8
:100DF00031E0309364023FEF30936302109262025D
:100E000020936102A3E8B1E04FE352E0FA013E2FE4
:100E1000341B321718F43D913193F9CF10926002D0
:100E200020916002990F922B9093600290915F0243
:100E3000913061F410925F02909160029093BB0038
:100E40009091BC0093FDF8CF95EC01C095EE909386
:100E5000BC00909165029230E1F3909163029F3F54
:100E600079F080916302803241F080916302803397
:100E700031F084E005C081E003C082E001C083E07E
:100E80001092A3011092A4011092A501089581E08F
:100E90008093A501609382011092A3011092A40196
:100EA0000895862F413208F040E2642F0E94E61236
:100EB00010921E0280931D02089510921E0210923D
:100EC0001D021092A3011092A4011092650281E00C
:100ED0008093640210925F0261E082E10E948604C6
:100EE00061E083E10E948604E9EBF0E080818E7F7F
:100EF000808380818D7F808380E28093B80085E449
:100F00008093BC000895862798E027E087FF03C000
:100F1000880F822701C0880F9150C1F708951F9252
:100F20000F920FB60F9211242F933F934F935F931D
:100F30006F937F938F939F93AF93BF93CF93DF93E1
:100F4000EF93FF93E0911B02F0911C02309709F49C
:100F500067C0C685D78588812585822309F060C052
:100F6000818D928D0197F1F7438D548D68E070E08B
:100F700030E081E0DA011197F1F79881922311F0C6
:100F8000382B03C0982F90953923880F6150710931
:100F900089F780911A0290E001968F7099276091ED
:100FA0001902681749F0A0911A02B0E0AE58BE4F7E
:100FB0003C9380931A0203C087898160878B86895E
:100FC0008823F1F0CA010197F1F78881282381E095
:100FD00090E0A0E0B0E004C0880F991FAA1FBB1FDB
:100FE0002A95D2F7409170015091710160E070E054
:100FF000842B952BA62BB72B9093710180937001B6
:10100000878D90A1009711F00197F1F7858D968D4E
:101010000197F1F7A389B4899C918589892B8C93D9
:10102000FF91EF91DF91CF91BF91AF919F918F9100
:101030007F916F915F914F913F912F910F900FBED4
:101040000F901F901895E0911B02F0911C02E81779
:10105000F90769F4A389B4899C91858980958923CE
:101060008C9310921C0210921B0281E0089580E084
:1010700008950C94EC2F0C94E42FEF92FF920F93B1
:101080001F93CF93DF93909177039F3F39F48EBDE9
:1010900000000DB407FEFDCF8EB528C0D82F07E0A5
:1010A00010E0C0E0EE24E394F12CCC0F60E08091DE
:1010B00077030E948604B701002E01C0660F0A94D0
:1010C000EAF76D23809175030E94860461E08091A8
:1010D00077030E948604809176030E945D04892B29
:1010E00009F0C1600150110900F78C2FDF91CF91F9
:1010F0001F910F91FF90EF900895CF93C82F6091AB
:10110000470386E692E00E94470780E290E00E9453
:1011100036136C2F86E692E00E943E0386E692E04C
:10112000CF910C94EA06CF93C82F682F86E692E001
:101130000E9447078FE090E00E94361386E692E017
:101140000E94EA0641E06C2F86E692E00E94510779
:1011500090911D0280911E02981729F086E692E078
:10116000CF910C94F2028FEF9FEFCF910895CF9320
:10117000DF93D82FC62F809174038F3F41F5609184
:101180006B038091690390916A030E9447078091E5
:10119000690390916A03DC01ED91FC910190F0816B
:1011A000E02D6D2F09958091690390916A03DC0110
:1011B000ED91FC910190F081E02D6C2F09958091CB
:1011C000690390916A03DF91CF910C94EA068091B4
:1011D00077038F3F21F481E590E00E94B90560E03C
:1011E000809174030E9486048D2F8F770E943D08A2
:1011F0008C2F0E943D0861E0809174030E94860458
:10120000809177038F3F21F4DF91CF910C94B80543
:10121000DF91CF910895CF93C82F809174038F3FB2
:1012200081F560916B038091690390916A030E943C
:1012300047078091690390916A03DC01ED91FC916D
:101240000190F081E02D6C2F0995809169039091B8
:101250006A030E94EA0641E060916B038091690392
:1012600090916A030E9451078091690390916A03EB
:10127000DC01ED91FC910284F385E02D0995C82FE6
:1012800020C0809177038F3F21F481E590E00E9498
:10129000B90560E0809174030E9486048C2F8068F9
:1012A0000E943D0880E00E943D08C82F61E08091C7
:1012B00074030E948604809177038F3F11F40E948B
:1012C000B8058C2FCF910895CF93DF93C82F8091CD
:1012D00074038F3F09F041C060916B0380916903F3
:1012E00090916A030E9447078091690390916A0375
:1012F000DC01ED91FC910190F081E02D6C2F0995BE
:101300008091690390916A030E94EA0642E060912D
:101310006B038091690390916A030E945107809149
:10132000690390916A03DC01ED91FC910284F385DD
:10133000E02D0995C82F8091690390916A03DC0123
:10134000ED91FC910284F385E02D099520E030E0D9
:101350003C2FE901C82BD92B29C0809177038F3FFF
:1013600021F481E590E00E94B90560E0809174036A
:101370000E9486048C2F80680E943D0880E00E94B5
:101380003D08C82F80E00E943D082C2F30E0322F0E
:101390002227E901C82B61E0809174030E94860432
:1013A000809177038F3F11F40E94B805CE01DF9141
:1013B000CF9108950E946409982789279827089556
:1013C000EF92FF920F931F93CF93DF939091A80317
:1013D0009F3F39F48EBD00000DB407FEFDCF8EB5E2
:1013E00028C0D82F07E010E0C0E0EE24E394F12CF1
:1013F000CC0F60E08091A8030E948604B701002E04
:1014000001C0660F0A94EAF76D238091A6030E943B
:10141000860461E08091A8030E9486048091A7035E
:101420000E945D04892B09F0C1600150110900F789
:101430008C2FDF91CF911F910F91FF90EF90089526
:10144000CF93DF93C82F8091A5038F3F31F5609133
:101450009C0386E692E00E9447076C2F86E692E0A6
:101460000E943E0386E692E00E94EA0642E0609116
:101470009C0386E692E00E94510786E692E00E9475
:10148000F202C82F86E692E00E94F20220E030E0ED
:101490003C2FE901C82BD92B29C08091A8038F3F8D
:1014A00021F481E590E00E94B90560E08091A503F8
:1014B0000E9486048C2F80680E94E00980E00E94D0
:1014C000E009C82F80E00E94E0092C2F30E0322F85
:1014D0002227E901C82B61E08091A5030E948604C0
:1014E0008091A8038F3F11F40E94B8059C2F8D2F87
:1014F000DF91CF910895CF93DF93C82F67E786E6FA
:1015000092E00E9447076C2F86E692E00E943E031D
:1015100086E692E00E94EA0667E786E692E00E948D
:10152000470782E090E00E942A1386E692E00E943C
:10153000F202D82F80E0C82F86E692E00E94F202E5
:10154000C82BD92B86E692E00E94EA06CE01DF91F5
:10155000CF910895CF93C82F67E786E692E00E9467
:1015600047076C2F86E692E00E943E0386E692E0F3
:101570000E94EA0667E786E692E00E94470781E05C
:1015800090E00E942A1386E692E00E94F202C82FA1
:1015900086E692E00E94EA068C2FCF910895CF93C1
:1015A000DF9382E792E00E942308C2E7D2E061E085
:1015B0008C850E94B60461E08C85DF91CF910C94FC
:1015C000860480918F0290919002892B31F1809155
:1015D0001B0290911C0222E082379207F1F00097E3
:1015E00011F00E942308809189028E7F80938902E6
:1015F00010921A021092190282E792E090931C0254
:1016000080931B02E0918502F09186029081809187
:101610008702892B808381E0089580E008950F93ED
:101620001F93CF93DF938C01EB010E94A62FADE1B6
:10163000B3E090E020E2981740F4A8014F5F5F4FBD
:10164000F80104910C938A0101C02C939F5F1196BD
:10165000903189F7CE010E94A62FADE2B3E090E071
:1016600020E2981740F4AE014F5F5F4FFE01C49136
:10167000CC93EA0101C02C939F5F1196903189F7BA
:10168000DF91CF911F910F910895CF93DF93FC01CC
:1016900001900020E9F73197E81B20E030E0F0E20C
:1016A000A90148575F4F2E1748F4EA01CB56DD4F8A
:1016B000DC01A20FB31FAC91A88304C0DA01AB56C2
:1016C000BD4FFC932F5F3F4F2031310549F7FB01A0
:1016D00001900020E9F73197E61B80E090E040E2BE
:1016E0009C0128563F4F8E1748F4E901CB56DD4F39
:1016F000DB01A80FB91F5C91588304C0D901AB5618
:10170000BD4F4C9301968031910551F7DF91CF91F8
:1017100008951F93CF93DF9367E786E692E00E94D8
:10172000470760E086E692E00E943E0386E692E08C
:101730000E94EA0667E786E692E00E94470783E098
:1017400090E00E942A1390911D0280911E0298172A
:10175000F1F386E692E00E94F202D82F86E692E04C
:101760000E94F202182F86E692E00E94F202C82F31
:1017700086E692E00E94EA06812F90E0A0E0B0E0C9
:10178000BA2FA92F982F8827AD2BBC01CD016C2B28
:10179000DF91CF911F910895CF93DF9367E786E69E
:1017A00092E00E944707C7EFD1E08D8590E0805B13
:1017B0009F4F0E94361386E692E00E94EA066C85EF
:1017C00070E080E090E00E94F204DF91CF910C94F1
:1017D000890BCF92DF92EF92FF92CF93C82F809127
:1017E00074038F3F09F061C060916B0380916903BE
:1017F00090916A030E9447078091690390916A0360
:10180000DC01ED91FC910190F081E02D6C2F0995A8
:101810008091690390916A030E94EA0643E0609117
:101820006B038091690390916A030E945107809134
:10183000690390916A03DC01ED91FC910284F385C8
:10184000E02D09956C01990FEE08FF08FE2CED2C98
:10185000DC2CCC248091690390916A03DC01ED912A
:10186000FC910284F385E02D0995AC01990F660B7C
:10187000770BC42AD52AE62AF72AFE2CED2CDC2C7D
:10188000CC248091690390916A03DC01ED91FC9175
:101890000284F385E02D0995AC01990F660B770B57
:1018A000C42AD52AE62AF72A33C0809177038F3FCE
:1018B00021F481E590E00E94B90560E08091740315
:1018C0000E9486048C2F80680E943D0880E00E9460
:1018D0003D08C82ED12CE12CF12CFE2CED2CDC2C5B
:1018E000CC2480E00E943D08C82AFE2CED2CDC2C84
:1018F000CC2480E00E943D08C82A61E080917403F6
:101900000E948604809177038F3F11F40E94B805EE
:10191000C701B601CF91FF90EF90DF90CF9008956F
:101920008F929F92AF92BF92CF92DF92EF92FF92EF
:101930008AEF0E94E90B6115710520E88207910585
:1019400009F47CC040917803509179034A01A12C9D
:10195000B12CC72ED82EE92EFF24E7FCFA94C81824
:10196000D908EA08FB08DC01CB0137E0B595A7955B
:10197000979587953A95D1F7B501A401440F551F66
:10198000661F771F4C015D01841A950AA60AB70AE3
:10199000A5019401A0917A03B0917B030E94873442
:1019A0004B015C01FBE0B594A79497948794FA955A
:1019B000D1F7A7019601C701B6010E9411349B011E
:1019C000AC01ACE05595479537952795AA95D1F789
:1019D000A0917C03B0917D030E948734DC01CB0190
:1019E0002EE0B595A795979587952A95D1F7A501EE
:1019F0009401280F391F4A1F5B1F209370033093F7
:101A000071034093720350937303A5E0B0E00E940A
:101A10007C34DC01CB0180589F4FAF4FBF4F692F03
:101A20007A2F8B2F992787FD9A950E941C3120E0F1
:101A300030E048EC52E40E946C3004C060E070E09A
:101A400080EC9FE7FF90EF90DF90CF90BF90AF903A
:101A50009F908F9008950F931F93CF93C82F02E705
:101A600012E0F801608F682FC8010E94D103F801CD
:101A7000108E8C2FCF911F910F9108952F923F922E
:101A80004F925F926F927F928F929F92AF92BF928E
:101A9000CF92DF92EF92FF920F931F93CF93DF933A
:101AA000CDB7DEB72A970FB6F894DEBF0FBECDBF15
:101AB0008C012A013B013A87298720E030E0A90107
:101AC000C301B2010E94673087FF05C060E070E08B
:101AD00080E09FEB04C060E070E080E09FE3E12CD9
:101AE000F12CA985BA85EA16FB0654F420E030E013
:101AF00040E251E40E946C302FEFE21AF20AF1CF7B
:101B00009B01AC01C301B2010E94FB2F6B017C0160
:101B100020E030E0A901C301B2010E94673087FFD5
:101B200004C0F7FAF094F7F8F094A12CB12CBDECB6
:101B3000B983ECECEA83FCECFB832DE32C8320E0FF
:101B400030E040E251E469817A818B819C810E947E
:101B50001F32962E872E382E292EA70196010E941D
:101B60006730181644F03FEFA31AB30A99828A82AD
:101B70003B822C82E4CFA114B10429F045016FEF20
:101B8000861A960A03C092E0892E912C20E030E05C
:101B9000A901C301B2010E94673087FF03C07FEF34
:101BA000871A970A89859A850196880E991E1814B6
:101BB000190444F081E090E0DC01A819B909BE8362
:101BC000AD8302C01E821D8220E030E0A901C30166
:101BD000B2010E94673087FF07C08DE2F801808361
:101BE00088248394912C02C0812C912CA114B104DF
:101BF00049F4F801E80DF91D80E3808394012F5F1B
:101C00003F4F4901212C312CB101680D791D788796
:101C10006F832A143B04D1F129813A814B815C8185
:101C2000C701B6010E946C300E94DE302B013C01DE
:101C30006F817885600F711F4AE0C2010E94AF2F4B
:101C4000B201550C880B990B0E941C3129813A81F5
:101C50004B815C810E941F329B01AC01C701B60120
:101C60000E94FA2F6B017C0120E030E040E251E459
:101C700069817A818B819C810E946C3069837A832F
:101C80008B839C833FEF231A330ABECF5B01898588
:101C90009A851816190644F4F801E60FF71F8EE22C
:101CA0008083DB0111965D01812C912CE985FA85F9
:101CB0008E169F064CF520E030E040E251E4C7016B
:101CC000B6010E941F322B013C010E94DE306B01E5
:101CD0007C01B4016A0D7B1D600F711F4AE0C601D3
:101CE0000E94AF2FB601DD0C880B990B0E941C31AE
:101CF0009B01AC01C301B2010E94FA2F6B017C0170
:101D0000BFEF8B1A9B0AD2CFCF01F7FF02C080E052
:101D100090E0A80EB91E2D813E81232B89F09501FC
:101D2000F801EA0DFB1D40E26FEFA61AB60A4193D7
:101D3000C501821B930BAD81BE818A179B07A4F35B
:101D4000F801EA0DFB1D1082C8012A960FB6F8941F
:101D5000DEBF0FBECDBFDF91CF911F910F91FF90DE
:101D6000EF90DF90CF90BF90AF909F908F907F903B
:101D70006F905F904F903F902F9008952F923F92D9
:101D80004F925F926F927F928F929F92AF92BF928B
:101D9000CF92DF92EF92FF920F931F93CF93DF9337
:101DA000C0903F03D0904003E0904103F090420385
:101DB0000E942C05209117032223E9F060E08EE7B2
:101DC0000E942B0D61E082E90E942B0D61E083E20D
:101DD0000E942B0D61E0809117030E942B0D8091D2
:101DE0001001882311F0815003C01092170386E080
:101DF0008093100170C324EFC20E21E0D21EE11CBB
:101E0000F11C11E0C616D706E806F90608F010E046
:101E100060E08EE70E942B0D61E08FE90E942B0DA0
:101E2000111170C080911803A0919502B091960293
:101E3000E82FF0E0EE0FFF1FE950FD4F20813181C8
:101E4000232B49F48F5F282F30E02A173B0784F3B8
:101E50001092180302C08093180360911803F6E0F3
:101E6000E0E026E030E0E12C40E050E070E0CA0124
:101E7000860F971F8A179B07A4F5009709F1E39433
:101E8000880F991FFC01E952FD4F80818F718830C6
:101E9000A1F0813019F4C901039615C0811103C066
:101EA000C901029610C0853019F4C90104960BC00F
:101EB000893019F0C901019606C0C901059603C011
:101EC000C9012F2F3E2F4F5F5F4F4031510551F019
:101ED0008B31910514F0EA9404C0F22FE32F9C019A
:101EE000C6CFC901C82FC06481E080938A026C2FDD
:101EF00082E792E00E94D10360E08C2F0E9483076A
:101F0000C82F1DC0E091CA03F0E0EE0FFF1FE8529A
:101F1000FD4F8081C82FCF71829586958770C80F3D
:101F2000C85F81E080938A026C2F82E792E00E9472
:101F3000D10360E08C2F0E948307C82FE12CD1E0F1
:101F4000D0938A0261E182E792E00E94D1036C2F74
:101F500081E10E948307C82FD0938A0264EA82E756
:101F600092E00E94D1036C2F84EA0E948307C82F5D
:101F7000D0938A0262E082E792E00E94D1036C2F44
:101F800082E00E948307C82FD0938A0268E082E72C
:101F900092E00E94D1036C2F88E00E948307C82F33
:101FA000D0938A0260E082E792E00E94D10310920F
:101FB0008A026C2F80E00E948307F82E1111EAC17B
:101FC000C09118036E2C6C0E2091950230919602F0
:101FD000C61551F0772473947C0E709218030C2F61
:101FE00010E00217130754F08091180390E0821755
:101FF00093070CF46CC21092180369C2CC2309F445
:10200000C7C1E0914303F09144030995C295C07F95
:10201000680131E2C30ED11CC601880F991FFC0173
:10202000EB56FD4F5F0180818F7190E08530910507
:1020300009F4BEC0F4F5009709F495C0019709F0C2
:10204000A7C1000F111FF801E950FD4F0190F08169
:10205000E02D00811181C160D0938A026C2F82E74C
:1020600092E00E94D1036F2D8C2F0E948307C82F0E
:102070001F79F501208122952695277030E0322FB7
:1020800022273295330F307E022B132BD0938A02F6
:10209000602F82E792E00E94D1036C2F802F0E9474
:1020A0008307082F912F9F79F501C081C07EC92B2E
:1020B00074C08830910521F0099709F4C2C068C145
:1020C000C860D0938A026C2F82E792E00E94D1030D
:1020D0006F2D8C2F0E948307C82F000F111FF8014E
:1020E000E950FD4F0190F081E02D80819181A28126
:1020F000B3816C017D01FFE9FF22D0938A026C2D30
:1021000082E792E00E94D1036C2F8C2D0E948307FE
:10211000C82F2D2C3E2C4F2C552447FC5A94D0937D
:102120008A02622D82E792E00E94D1036C2F822DF9
:102130000E948307C82F1701552437FC5094452C63
:10214000D0938A02622D82E792E00E94D1036C2F25
:10215000822D0E948307182F9F2D9F79F501C08142
:10216000C07EC92B62C0000F111FF801E950FD4F5E
:102170000190F081E02D1081D0938A026C2F82E7CC
:1021800092E00E94D1036F2D8C2F0E948307082FAD
:102190001F79F501C081C07EC12BD0938A026C2FBC
:1021A00082E792E00E94D10310928A02602F47C01A
:1021B000C560D0938A026C2F82E792E00E94D1031F
:1021C00010928A026F2D8C2F0E948307F82E000F29
:1021D000111FF801E950FD4F0190F081E02D1181B0
:1021E00002819081F501208122952695277021306A
:1021F00011F0C0E001C0C0E4C92BD0938A02602F67
:1022000082E792E00E94D1036F2D802F0E94830706
:10221000082FD0938A02612F82E792E00E94D103B7
:10222000602F812F0E948307182FD0938A026C2F72
:1022300082E792E00E94D10310928A02612F8C2FD4
:10224000A4C0C960D0938A026C2F82E792E00E94FA
:10225000D1036F2D8C2F0E948307C82F000F111FF1
:10226000F801E950FD4F0190F081E02D80809180D0
:10227000A280B38020E030E0A901C501B4010E9432
:102280001A3218161CF4C501B40103C0C501B4010B
:1022900090580E94E5308B0180E090E00E941A3156
:1022A0009B01AC01C501B4010E94FA2F2AE939E96A
:1022B00049E15FE30E941F3220E030E543EC57E440
:1022C0000E941F321B012C0120E030E0A9010E9476
:1022D0001A3218161CF4C201B10103C0C201B101C7
:1022E00090580E94E530562EF72E812F8170F6010E
:1022F000EE0FFF1FEB56FD4F9081929596959770CC
:10230000913011F090E001C090E2192F182B20E0DD
:1023100030E0A901C501B4010E946730881F8827F9
:10232000881F8295880F880F807C182BD0938A0293
:10233000652D82E792E00E94D1036C2F852D0E94CB
:102340008307C82FD0938A026F2D82E792E00E9404
:10235000D1036C2F8F2D0E948307C82FD0938A0240
:10236000602F82E792E00E94D1036C2F802F0E94A1
:102370008307C82FD0938A02612F82E792E00E94E0
:10238000D10310928A026C2F812F0E948307F82EAE
:10239000C72D1ACEC091CA03D0938A026C2F82E750
:1023A00092E00E94D1036F2D8C2F0E948307B82EDC
:1023B0000C2F10E06801CC0CDD1C960128523D4F1B
:1023C0004901F9012081922F9F71F8E09F9F7001D0
:1023D0001124229526952770E22AD0938A026E2D29
:1023E00082E792E00E94D10310928A026B2D8E2D1B
:1023F0000E948307F82EF601E956FD4FD081AD2EDD
:10240000B180772473942A2D2D1B30E0F401808154
:102410008F7190E028173907A4F4F501E4907092C9
:102420008A026E2D82E792E00E94D10310928A0206
:102430006F2D8E2D0E948307F82EFFEFAF1ABF0A73
:10244000E2CF000F111FD801A954BD4FDC910D2F11
:1024500011961C91960128523D4F6901BB24B394FB
:10246000202F2D1B30E0F6018081829586958770A4
:1024700090E0281739079CF4F801E490B0928A02A2
:102480006E2D82E792E00E94D10310928A026F2D96
:102490008E2D0E948307F82E0F5F1F4FE1CFCF5F75
:1024A000C093CA038C2F90E0209195023091960240
:1024B0008217930714F01092CA030E942C056093B0
:1024C0003F0370934003809341039093420361E084
:1024D0008F2D0E942B0DE0914303F0914403099549
:1024E00060E08EEF0E942B0DCDE1D3E01C2F105E3B
:1024F00061E089910E942B0D1C13FACF60E08FEFF1
:102500000E942B0D81E0DF91CF911F910F91FF90E1
:10251000EF90DF90CF90BF90AF909F908F907F9083
:102520006F905F904F903F902F900895CF92DF92E1
:10253000FF920F931F93CF93DF93209195023091D9
:10254000960220313105CCF56B0189010F5F1F4FD9
:10255000F801EE0FFF1FEB56FD4F91838083F901C9
:10256000EE0FFF1FE954FD4F71836083F901EE0FF9
:10257000FF1FE950FD4F11821082220F331FE90126
:10258000C952DD4F18820E94A62F982F9F71898112
:10259000807EF82EF92AC6010E94A62F8295880F08
:1025A000807E9F2D9F71F92EF82AF9821093960252
:1025B000009395028FEF800F01C08FEFDF91CF91D5
:1025C0001F910F91FF90DF90CF9008959091650239
:1025D0009111FCCF91E090936502909364022FEFEC
:1025E0002093630210926202260F2093610290935F
:1025F000600290916002880F892B80936002809125
:102600005F02813061F410925F02809160028093DA
:10261000BB008091BC0083FDF8CF85EC01C085EE46
:102620008093BC00809165028130E1F38091620269
:10263000861710F460916202AFE3B2E02FE132E05E
:10264000F9018E2F821B861718F48D918193F9CF93
:10265000862F0895813208F080E2682F87E70E9474
:10266000E61210921E0280931D020895682F86E6DE
:1026700092E00C943E03CF92DF92EF92FF92CF93C1
:10268000C82F8091A5038F3F09F03FC060919C0344
:1026900086E692E00E9447076C2F86E692E00E9451
:1026A0003E0386E692E00E94EA0643E060919C03C6
:1026B00086E692E00E94510786E692E00E94F202CE
:1026C0006C01990FEE08FF08FE2CED2CDC2CCC24BD
:1026D00086E692E00E94F202AC01990F660B770B3E
:1026E000C42AD52AE62AF72AFE2CED2CDC2CCC2491
:1026F00086E692E00E94F202AC01990F660B770B1E
:10270000C42AD52AE62AF72A33C08091A8038F3F2E
:1027100021F481E590E00E94B90560E08091A50375
:102720000E9486048C2F80680E94E00980E00E944D
:10273000E009C82ED12CE12CF12CFE2CED2CDC2C48
:10274000CC2480E00E94E009C82AFE2CED2CDC2C71
:10275000CC2480E00E94E009C82A61E08091A503B2
:102760000E9486048091A8038F3F11F40E94B8054F
:10277000C701B601CF91FF90EF90DF90CF90089501
:102780002F923F924F925F926F927F928F929F9281
:10279000AF92BF92CF92DF92EF92FF920F931F936F
:1027A000CF93DF93CDB7DEB7A2970FB6F894DEBF15
:1027B0000FBECDBF0E94900C87EF0E94E90B6F8384
:1027C000788789879A87611571058048910509F492
:1027D000FDC18091700390917103A0917203B0913B
:1027E00073036C017D01FF0CCC08DC2C76019C018D
:1027F000AD016C2D7C2D8C2D9C2D345F41405109F9
:1028000061097109810991092AA339A349835A836E
:102810006B837C838D839E8359016A017B018C01CC
:102820000E948F342E8B3F8B488F598F6A8F7B8FFE
:102830008C8F9D8F809188038E8F909189039B87C9
:10284000A0918603AF8FB0918703BC87E09184038A
:10285000E8A3F0918503FD87B0908103A0908003E9
:102860001B2D110F110BC12ED12EE12EF12E012F98
:102870002AA139A149815A816B817C818D819E81F8
:102880000E948F340CE00E94F93519012A013B01A6
:102890004C01B0908303A09082031B2D110F110BEC
:1028A000C12ED12EE12EF12E012F2E893F89488D88
:1028B000598D6A8D7B8D8C8D9D8D0E948F3408E0A3
:1028C0000E94123651016201730184010E94303668
:1028D00070588F4F9F4F20907E0330907F0351019F
:1028E000C12CD12CE12CF12C00E010E00E948F349F
:1028F00001E20E9412362E873F87488B598B6A8BE4
:102900007B8B8C8B9D8BA0E00E944E3609F463C1BB
:10291000AE8C1B85110F110BBB84C12ED12EE12E65
:10292000F12E012F2E893F89488D598D6A8D7B8D1F
:102930008C8D9D8D0E948F3419012A013B014C0121
:10294000AF8C1C85110F110BBC84C12ED12EE12E32
:10295000F12E012F2AA139A149815A816B817C81F5
:102960008D819E810E948F3401E10E94F9355901C9
:102970006A017B018C019101A201B301C4010E9493
:10298000303619012A013B014C014F815885698578
:102990007A8584E075956795579547958A95D1F71F
:1029A00080E090E0A0E1B0E0841B950BA60BB70B94
:1029B0006C017D01FF0CCC08DC2C76019C01AD0183
:1029C0006C2D7C2D8C2D9C2D0FE10E94F935F90189
:1029D000B42FA52F6C837D8389839A8328A19D853D
:1029E000990F990B3D85492F592F692F792F892FE1
:1029F00003E20E94F93559016A017B018C019101C2
:102A0000A201B301C4010E94303659016A017B0161
:102A10008C019F014B2F5A2F6C817D8189819A8176
:102A20000E9445364901542E652EB62FA72FF82F48
:102A3000E92F03E00E94F9355401C52CD62CEB2E6A
:102A4000FA2E0F2F1E2F0E94453659016A017B0175
:102A5000782E192F03E00E94F935072D0E94453684
:102A600003E00E94F9355401C52CD62CEB2EFA2E2A
:102A70000F2F1E2F0E94453602E00E94F9350F2FBE
:102A80000E94453601E00E94F9350F2F0E9445361D
:102A9000AE84BF84C888D988EA88FB880C891D89E0
:102AA0000E9424352B873F8349835A836B837C8321
:102AB0008D839E830DE00E941236922E832E742EFB
:102AC000652E562E472E382E292E30918F032091B9
:102AD0008E03932F990F990BA92CB82CC72CD62CA9
:102AE000E52CF42C032D122D492F592F692F792F06
:102AF000892F0E948F340E948F3409E10E94123680
:102B000059016A017B018C012B853F8149815A81E2
:102B10006B817C818D819E810E94303619012A0152
:102B20003B014C0130918D0320918C03932F990F21
:102B3000990BAB84BF80C980DA80EB80FC800D816B
:102B40001E81492F592F692F792F892F0E948F3489
:102B500003E10E94123659016A017B018C01910147
:102B6000A201B301C4010E94303608E00E9412366F
:102B7000522E632E742E852E962EF72FE82FB92F06
:102B800030918B0320918A03932F990F990B492F32
:102B9000592F692F792F892F04E00E94F9355901A7
:102BA0006A017B018C01252D362D472D582D692D6D
:102BB0007F2F8E2F9B2F0E9430360E94143120E0F1
:102BC00030E040E85BE30E941F3208C060E070E044
:102BD00080EC9FE703C060E070E0CB01A2960FB6E7
:102BE000F894DEBF0FBECDBFDF91CF911F910F9143
:102BF000FF90EF90DF90CF90BF90AF909F908F901D
:102C00007F906F905F904F903F902F9008958F929C
:102C10009F92AF92BF92CF92DF92EF92FF928AEF94
:102C20000E943B13ECE9F3E0458556854A01A12C4F
:102C3000B12CC72ED82EE92EFF24E7FCFA94C81831
:102C4000D908EA08FB08DC01CB0137E0B595A79568
:102C5000979587953A95D1F7B501A401440F551F73
:102C6000661F771F4C015D01841A950AA60AB70AF0
:102C7000A5019401A785B0890E9487344B015C01AE
:102C80003BE0B594A794979487943A95D1F7A70120
:102C90009601C701B6010E9411349B01AC016CE0A2
:102CA00055954795379527956A95D1F7A189B289AA
:102CB0000E948734DC01CB017EE0B595A7959795FE
:102CC00087957A95D1F7A5019401280F391F4A1FDE
:102CD0005B1F2583368347835087A5E0B0E00E94C1
:102CE0007C34DC01CB0180589F4FAF4FBF4F692F21
:102CF0007A2F8B2F992787FD9A950E941C3120E00F
:102D000030E048EC52E40E946C30FF90EF90DF908E
:102D1000CF90BF90AF909F908F9008952F923F9249
:102D20004F925F926F927F928F929F92AF92BF92DB
:102D3000CF92DF92EF92FF920F931F93CF93DF9387
:102D4000CDB7DEB7A2970FB6F894DEBF0FBECDBFEA
:102D50000E94071687EF0E943B136A8F7B8F8C8F30
:102D60009D8F8091A1039091A203A091A303B091A4
:102D7000A4036C017D01FF0CCC08DC2C76019C01C6
:102D8000AD016C2D7C2D8C2D9C2D345F4140510963
:102D900061097109810991092AA339A349835A83D9
:102DA0006B837C838D839E8359016A017B018C0137
:102DB0000E948F342A8B3B8B4C8B5D8B6E8B7F8B71
:102DC000888F998F8091B9038E8FE091BA03EF833A
:102DD000F091B703FF8F8091B8038887E091B50326
:102DE000E8A3F091B603F987B090B203A090B103C5
:102DF0001B2D110F110BC12ED12EE12EF12E012F03
:102E00002AA139A149815A816B817C818D819E8162
:102E10000E948F340CE00E94F93519012A013B0110
:102E20004C01B090B403A090B3031B2D110F110BF4
:102E3000C12ED12EE12EF12E012F2A893B894C89FA
:102E40005D896E897F89888D998D0E948F3408E015
:102E50000E94123651016201730184010E943036D2
:102E600070588F4F9F4F2090AF033090B0035101A7
:102E7000C12CD12CE12CF12C00E010E00E948F3409
:102E800001E20E9412362A873B874C875D876E8756
:102E90007F87888B998BA0E00E944E3609F45EC133
:102EA000AE8C1F81110F110BBF80C12ED12EE12ED0
:102EB000F12E012F2A893B894C895D896E897F8992
:102EC000888D998D0E948F3419012A013B014C0194
:102ED000AF8C1885110F110BB884C12ED12EE12EA5
:102EE000F12E012F2AA139A149815A816B817C8160
:102EF0008D819E810E948F3401E10E94F935590134
:102F00006A017B018C019101A201B301C4010E94FD
:102F1000303619012A013B014C014A8D5B8D6C8DC5
:102F20007D8D84E075956795579547958A95D1F77E
:102F300080E090E0A0E1B0E0841B950BA60BB70BFE
:102F40006C017D01FF0CCC08DC2C76019C01AD01ED
:102F50006C2D7C2D8C2D9C2D0FE10E94F935F901F3
:102F6000B42FA52F6C837D8389839A8328A19985AB
:102F7000990F990B3985492F592F692F792F892F4F
:102F800003E20E94F93559016A017B018C0191012C
:102F9000A201B301C4010E94303659016A017B01CC
:102FA0008C019F014B2F5A2F6C817D8189819A81E1
:102FB0000E9445364901542E652EB62FA72FF82FB3
:102FC000E92F03E00E94F9355401C52CD62CEB2ED5
:102FD000FA2E0F2F1E2F0E94453659016A017B01E0
:102FE000782E192F03E00E94F935072D0E944536EF
:102FF00003E00E94F9355401C52CD62CEB2EFA2E95
:103000000F2F1E2F0E94453602E00E94F9350F2F28
:103010000E94453601E00E94F9350F2F0E94453687
:10302000AA84BB84CC84DD84EE84FF84088919895A
:103030000E94243528873F8349835A836B837C838E
:103040008D839E830DE00E941236922E832E742E65
:10305000652E562E472E382E292E3091C0032091F2
:10306000BF03932F990F990BA92CB82CC72CD62CE2
:10307000E52CF42C032D122D492F592F692F792F70
:10308000892F0E948F340E948F3409E10E941236EA
:1030900059016A017B018C0128853F8149815A8150
:1030A0006B817C818D819E810E94303619012A01BD
:1030B0003B014C013091BE032091BD03932F990F2A
:1030C000990BA884BF80C980DA80EB80FC800D81D9
:1030D0001E81492F592F692F792F892F0E948F34F4
:1030E00003E10E94123659016A017B018C019101B2
:1030F000A201B301C4010E94303608E00E941236DA
:10310000522E632E742E852E962EF72FE82FB92F70
:103110003091BC032091BB03932F990F990B492F3A
:10312000592F692F792F892F04E00E94F935590111
:103130006A017B018C01252D362D472D582D692DD7
:103140007F2F8E2F9B2F0E9430360E94143120E05B
:1031500030E040E85BE30E941F3203C060E070E0B3
:10316000CB01A2960FB6F894DEBF0FBECDBFDF91A4
:10317000CF911F910F91FF90EF90DF90CF90BF9074
:10318000AF909F908F907F906F905F904F903F9007
:103190002F90089567E786E692E00E94470764EF64
:1031A00086E692E00E943E036EE286E692E00E948E
:1031B0003E0386E692E00E94EA0665E070E080E069
:1031C00090E00E94F20486EF0C947B0A3F924F92AB
:1031D0005F926F927F928F929F92AF92BF92CF92A7
:1031E000DF92EF92FF920F931F93CF93DF93CDB7B0
:1031F000DEB728970FB6F894DEBF0FBECDBF0E9492
:10320000CA186C01E12CF12C109152031295110F88
:10321000110F107C1C5C67E786E692E00E9447076E
:1032200064EF86E692E00E943E03612F86E692E01C
:103230000E943E0386E692E00E94EA0680915203D5
:10324000811105C065E070E080E090E012C081303F
:1032500029F468E070E080E090E00BC0823029F44F
:103260006EE070E080E090E004C06AE170E080E031
:1032700090E00E94F20486EF0E947B0A4C01A12C90
:10328000B12CBA2CA92C982C882488EF0E94AA0A69
:10329000882A309052038091670390916803A701B8
:1032A0009601281B390B41095109A0916503B09182
:1032B00066030E947C346B017C01AFE0F594E794D7
:1032C000D794C794AA95D1F760915F03709160037A
:1032D000CB01770FAA0BBB0BBC01CD01BBE0660F86
:1032E000771F881F991FBA95D1F7209161033091FC
:1032F00062038901330F220B330BA90198012C0DB6
:103300003D1D4E1D5F1D0E945734C20ED31EE41E8C
:10331000F51E20EAC21A2FE0D20AE108F108A7013F
:103320009601C701B6010E9411349B01AC011CE05B
:1033300055954795379527951A95D1F729833A835F
:103340004B835C830091530310915403A091570366
:10335000B0915803A70196010E9487342B013C01CC
:103360008DE075946794579447948A95D1F7A0910E
:103370005903B0915A0329813A814B815C810E94A3
:103380008734BB2797FDB095AB2F840D951DA61DE7
:10339000B71D0296A11DB11D32E0B595A795979571
:1033A00087953A95D1F79C01AD0130584F4F5F4F4B
:1033B000A0916303B09164030E947C342B013C0113
:1033C0004FE076946794579447944A95D1F788E0F4
:1033D00090E083199109A501940104C05695479581
:1033E000379527958A95D2F72D833E834F8358874B
:1033F0004801110FAA08BB0852E0880C991CAA1CAE
:10340000BB1C5A95D1F7A0915B03B0915C03298155
:103410003A814B815C810E9487349B01AC016BE057
:1034200055954795379527956A95D1F729833A831E
:103430004B835C83A0915503B0915603A70196017D
:103440000E948734DC01CB017BE0B595A795979569
:1034500087957A95D1F729813A814B815C81820FDA
:10346000931FA41FB51F880D991DAA1DBB1D032CFA
:1034700004C0880F991FAA1FBB1F0A94D2F7BC0172
:10348000CD016E5F7F4F8F4F9F4F24E030E040E0D3
:1034900050E00E9457348D819E81AF81B885821B98
:1034A000930BA40BB50B9C01AD0180E593ECA0E060
:1034B000B0E0BC01CD0104C09695879577956795DE
:1034C0003A94D2F70E94113497FD0BC0660F771F14
:1034D000881F991FA30192010E94353469017A0166
:1034E0000AC0A30192010E94353469017A01CC0C13
:1034F000DD1CEE1CFF1C9927F7FC9A958F2D7E2D65
:103500006D2D9B01AC010E9411349B01AC01AEED0D
:10351000BBE00E947C344C01BB2497FCB094AB2CE4
:10352000A3E4B3EEA70196010E948A34BB2797FD5E
:10353000B095AB2F880D991DAA1DBB1D8153914FCE
:10354000AF4FBF4F44E0B595A795979587954A959E
:10355000D1F7BC01CD016C0D7D1D8E1D9F1D2896E0
:103560000FB6F894DEBF0FBECDBFDF91CF911F9194
:103570000F91FF90EF90DF90CF90BF90AF909F9012
:103580008F907F906F905F904F903F900895CF9372
:10359000DF93CDB7DEB7C855D1090FB6F894DEBFBB
:1035A0000FBECDBF789484B5826084BD84B5816040
:1035B00084BD85B5826085BD85B5816085BD8091FE
:1035C0006E00816080936E00109281008091810076
:1035D000826080938100809181008160809381006E
:1035E000809180008160809380008091B100846030
:1035F0008093B1008091B00081608093B000809191
:103600007A00846080937A0080917A00826080934F
:103610007A0080917A008E7F80937A0080917A0080
:10362000806880937A001092C10061E08DE00E9472
:10363000B60461E08DE00E94860461E083E00E94B0
:10364000B60460E083E00E94860480913A01909184
:103650003B01909301018093000162EF71E082E0F1
:1036600092E00E940F0B88EE91E090939802809375
:1036700097021092B8021092B7021092F8021092BC
:10368000F7021092D70289E08093D802CC24C39429
:10369000D12CD0929602C092950261E083E00E9404
:1036A000860461E083E00E94B6046DE2A62E61E02C
:1036B000B62EF50184918093820209E111E0F801B0
:1036C000849190E0880F991F845F9E4FFC012591A3
:1036D0003491309384022093830260E083E00E945F
:1036E000B60461E083E00E948604E3E09E2E90929F
:1036F0007E02F501A490A0927F02F8010491E02FD0
:10370000F0E0EE0FFF1FEE5FFE4F859194919093D6
:1037100081028093800281E08093880287EC90E0B0
:10372000909394028093930222E530E030938C02D0
:1037300020938B0225EC30E030938E0220938D0293
:103740004FE152E05093900240938F0230939202E7
:1037500020939102209168002460209368002DE658
:1037600030E0309386022093850228E02093870280
:103770000197F1F70E94E10A0E94CF0A909252034A
:1037800086E692E00E945D0780ED0E94AA0A8535D8
:1037900011F00C94062D8AEA0E947B0A9093540340
:1037A000809353038CEA0E947B0A90935603809384
:1037B00055038EEA0E947B0A909358038093570327
:1037C00080EB0E947B0A909364038093630382EBF7
:1037D0000E947B0A909366038093650384EB0E94AA
:1037E0007B0A909368038093670386EB0E947B0AB1
:1037F00090935A038093590388EB0E947B0A90931D
:103800005C0380935B038AEB0E947B0A90935E03C8
:1038100080935D038CEB0E947B0A909360038093FE
:103820005F038EEB0E947B0A909362038093610397
:10383000D0920301C0920201E0C088E80E94DA0938
:1038400090937903809378038AE80E94DA09909331
:103850007B0380937A038CE80E94DA0990937D03BE
:1038600080937C038EE80E94DA0990937F03809313
:103870007E0380E90E94DA0990938103809380039C
:1038800082E90E94DA09909383038093820384E99A
:103890000E94DA09909385038093840386E90E944D
:1038A000DA09909387038093860388E90E94DA09F6
:1038B00090938903809388038AE90E94DA099093A0
:1038C0008B0380938A038CE90E94DA0990938D031D
:1038D00080938C038EE90E94DA0990938F03809382
:1038E0008E0381EA0E940B098093900381EE0E946F
:1038F000DA09909392038093910383EE0E940B095F
:103900008093930384EE0E940B09182F85EE0E948A
:103910000B09282F2F70F0E11F9FC0011124822B6B
:10392000909395038093940386EE0E940B09182FC1
:1039300085EE0E940B0990E044E0959587954A95A5
:10394000E1F700E1109F90011124822B932B9093BB
:1039500097038093960387EE0E940B098093980348
:103960008DEE80939A0380919B038F71806A809380
:103970009B0380919903807C8093990365E082EF9B
:103980000E94B70890919903692F677010E2619FB8
:1039900090011124892F869586958695877048E039
:1039A000849FB0011124622B732B97FB992790F908
:1039B000692B85EF0E94B70890919A03692F677071
:1039C00050E2659F90011124892F869586958695F2
:1039D0008770A8E08A9FB0011124622B732B929507
:1039E000969596959370692B84EF0E94B70883E0B3
:1039F00090E090930301809302018AE090E00E949E
:103A00003B08813009F059C080E090E00E943B08FB
:103A1000E82EF12CF0923D01E0923C0181E090E033
:103A20000E943B0811E0811101C010E010933601A3
:103A30001093370182E090E00E943B0890E0A0E004
:103A4000B0E080930C0190930D01A0930E01B09310
:103A50000F0183E090E00E943B08682F70E080E057
:103A600090E00E941A3120E030E048EC52E40E94DD
:103A70006C3060930401709305018093060190936C
:103A8000070184E090E00E943B08682F70E080E02E
:103A900090E00E941A3120E030E048EC52E40E94AD
:103AA0006C30609308017093090180930A01909330
:103AB0000B01EF2809F4ADC031C180910201909152
:103AC00003018330910569F034F48130910571F17F
:103AD000029739F047C08430910541F1059731F1E3
:103AE00041C08EEA97E4A1E6BFE38093040190937E
:103AF0000501A0930601B09307018AE999E9A9E1BC
:103B0000BEE38093080190930901A0930A01B0934A
:103B10000B0183E090E0A0E0B0E080930C01909373
:103B20000D01A0930E01B0930F011CC080E090E046
:103B3000A0E0BFE38093040190930501A0930601E8
:103B4000B09307018093080190930901A0930A01A3
:103B5000B0930B0110920C0110920D0110920E0106
:103B600010920F0160E080E090E00E94390860E070
:103B700081E090E00E94390860910C0182E090E0C1
:103B80000E94390820E030E048EC52E460910401E2
:103B90007091050180910601909107010E941F32EA
:103BA0000E94DE3083E090E00E94390820E030E09F
:103BB00048EC52E4609108017091090180910A017A
:103BC00090910B010E941F320E94DE3084E090E051
:103BD0000E94390861E08AE090E00E94390805E01F
:103BE00010E061E08DE00E94860464E670E080E011
:103BF00090E00E94F20460E08DE00E94860464E69A
:103C000070E080E090E00E94F2040150110949F751
:103C1000FBCE6BED71E08DED91E00E94961280314C
:103C200088F490E0FC01EE0FFF1FE950FD4F22E405
:103C300031E031832083880F991FFC01E952FD4F49
:103C400088E2808360ED71E082ED91E00E9496123F
:103C5000803188F490E0FC01EE0FFF1FE950FD4F2A
:103C60002EE331E031832083880F991FFC01E95254
:103C7000FD4F88E0808366EC71E08AEC91E00E9461
:103C80009612803188F490E0FC01EE0FFF1FE9509E
:103C9000FD4F2AE431E031832083880F991FFC0116
:103CA000E952FD4F88E4808369EB71E08DEB91E090
:103CB0000E949612803188F490E0FC01EE0FFF1F05
:103CC000E950FD4F2CE631E031832083880F991FA6
:103CD000FC01E952FD4F88E480836AEA71E08DEAD5
:103CE00091E00E949612803188F490E0FC01EE0F82
:103CF000FF1FE950FD4F24E631E031832083880F18
:103D0000991FFC01E952FD4F88E28083112309F4D9
:103D10009DC06CE971E080EA91E083C06EE871E0DB
:103D200081E991E00E949612803188F490E0FC01D4
:103D3000EE0FFF1FE950FD4F22E431E03183208375
:103D4000880F991FFC01E952FD4F88E2808362E8E9
:103D500071E085E891E00E949612803188F490E04D
:103D6000FC01EE0FFF1FE950FD4F2EE331E03183E0
:103D70002083880F991FFC01E952FD4F88E0808362
:103D800067E771E08CE791E00E949612803188F439
:103D900090E0FC01EE0FFF1FE950FD4F2AE431E0F7
:103DA00031832083880F991FFC01E952FD4F88E47D
:103DB000808369E671E08EE691E00E949612803180
:103DC00088F490E0FC01EE0FFF1FE950FD4F2CE658
:103DD00031E031832083880F991FFC01E952FD4FA8
:103DE00088E480836AE571E08DE591E00E94961297
:103DF000803188F490E0FC01EE0FFF1FE950FD4F89
:103E000024E631E031832083880F991FFC01E952B9
:103E1000FD4F88E280831123C9F06BE471E080E5F7
:103E200091E00E949612803188F490E0FC01EE0F40
:103E3000FF1FE950FD4F26E431E031832083880FD6
:103E4000991FFC01E952FD4F88E4808380910201B3
:103E5000909103010397C9F46EE371E082E491E06D
:103E60000E949612803188F490E0FC01EE0FFF1F53
:103E7000E950FD4F20E631E031832083880F991F00
:103E8000FC01E952FD4F88E280830E94BE0E60E093
:103E90008DE00E9486041E01F3E22F0E311C8091FA
:103EA0000201909103018330910509F4FEC00CF0EA
:103EB00048C08130910509F468C0029709F0CFC667
:103EC0000E948E160E94DE3060936C0170936D012B
:103ED00080936E0190936F010E948E1620E030E077
:103EE00048EC52E40E946C3020E030E54DE754E4A9
:103EF0000E946C3021E03EED42E45EE30E948C3291
:103F00009B01AC0160E070E080E89FE30E94FA2F23
:103F100020E03AE24DE257E40E941F3220E030E018
:103F200048EC52E40E941F320E94DE306093680128
:103F30007093690180936A0190936B010E94071648
:103F40007EC68430910509F4FEC1059709F087C645
:103F50006091470386E692E00E94470788EA90E076
:103F60000E94361386E692E00E94EA0643E06091E2
:103F7000470386E692E00E94510780911D0290E07F
:103F800020911E02821B9109AFC50E94E618609322
:103F90006C0170936D0180936E0190936F010E948C
:103FA000E6180E941C3120E836EE45EC57E40E94EA
:103FB0006C3021E03EED42E45EE30E948C329B01D6
:103FC000AC0160E070E080E89FE30E94FA2F20E0FF
:103FD0003AE24DE257E40E941F3220E030E048EC24
:103FE00052E40E941F320E94DE3060936801709399
:103FF000690180936A0190936B010E94CA18AC0119
:1040000060E070E080916703909168039A01AB01D2
:10401000281B390B41095109A0916503B091660332
:104020000E947C346B017C01EFE0F594E794D79417
:10403000C794EA95D1F760915F0370916003CB015B
:10404000770FAA0BBB0BBC01CD01FBE0660F771FFE
:10405000881F991FFA95D1F720916103309162036F
:104060008901330F220B330BA90198012C0D3D1D43
:104070004E1D5F1D0E945734D701C601820F931F4A
:10408000A41FB51F0896A11DB11DBC01CD01A4E060
:104090009595879577956795AA95D1F70E941C31DC
:1040A00020E030E040E251E41CC50E94C0130E94B1
:1040B000DE3060936C0170936D0180936E0190937C
:1040C0006F010E94C01320E030E048EC52E40E94EF
:1040D0006C3020E030E54DE754E40E946C3021E084
:1040E0003EED42E45EE30E948C329B01AC0160E055
:1040F00070E080E89FE30E94FA2F20E03AE24DE270
:1041000057E40E941F3220E030E048EC52E40E9465
:104110001F320E94DE3060936801709369018093C2
:104120006A0190936B010E94900C20E030E040E225
:1041300051E40E941F320E94DE306093640170934C
:10414000650180936601909367010E94900C8DEF4A
:104150000E946409A0E0B0E0811500E89007A10585
:10416000B10509F4DBC08090700390907103A090BA
:104170007203B09073031CE2911A11E0A10AB10816
:104180006EE0880F991FAA1FBB1F6A95D1F7409157
:10419000940350919503052E000C660B770BE4E118
:1041A000440F551F661F771FEA95D1F76C017D01FB
:1041B000C41AD50AE60AF70AA0919603B0919703AC
:1041C000A50194010E948734C61AD70AE80AF90AA1
:1041D00020E4D20EE11CF11CFFE0F594E794D794A3
:1041E000C794FA95D1F7A09198030A2E000CBB0B47
:1041F000A50194010E9487342B013C01AAE075942B
:10420000679457944794AA95D1F7A0919303B0E08F
:104210000E947C34DC01CB011BE0B595A7959795F6
:1042200087951A95D1F7BC01CD0170588F4F9F4FDC
:10423000A30192010E941134DC01CB010AE0B59583
:10424000A795979587950A95D1F79C01AD01405E9A
:104250005F4FA0919103B09192030E948734DC01DB
:10426000CB01905EAF4FBF4FBC01CD012EE09595C5
:104270008795779567952A95D1F7A70196010E94B2
:1042800011346B017C013FE0959587957795679593
:104290003A95D1F79B01AC010E9411349B01AC010E
:1042A00067E055954795379527956A95D1F7A09181
:1042B0009003B0E00E947C34DC01CB0174E0B59542
:1042C000A795979587957A95D1F7B701A601481BD1
:1042D000590B6A0B7B0BDB01CA0177FF03C080E03F
:1042E00090E0DC0181309105A10559E1B50724F08A
:1042F00080E090E0A0E0B9E1BC01CD015CE09595E3
:104300008795779567955A95D1F70E941C3120E0E3
:1043100030E040E85AE30E941F3204C060E070E0E1
:1043200080EC9FE720E030E040E251E40E941F3241
:104330000E94DE306093600170936101809362019E
:10434000909363018CC467E786E692E00E9447077A
:104350008091040290E0805C9F4F0E94361386E6B5
:1043600092E00E94EA066091030270E080E090E033
:104370000E94F2040E94890B29966CAF7DAF8EAF2C
:104380009FAF29970E94CC0B2091FF013091000232
:10439000890120E030E0322F212F102F00272B0140
:1043A0003C01401A510A620A730AE091FD01F09142
:1043B000FE018090F9019090FA01940140E050E0F4
:1043C00060E070E080E090E000E10E94F935D22EDC
:1043D000E32EF42E5BAB6BAF872E982E9FAF9F0121
:1043E00040E050E0C301B2010E94E834C22E032F26
:1043F000142FB52FF62FE72F5C01A0E00E944E3658
:1044000054F4AFE70E943936C22E032F142FB52F74
:10441000F62FE72F5C012C2D302F412F5B2F6F2FB4
:104420007E2FC50107E00E9412365901C42EA52F28
:10443000F62FE72F8C012D2D3E2D4F2D5BA96BAD57
:10444000782D892D9FADDA2EEF2EFE2E0E9430366C
:104450002A962FAF2A972B963FAF2B972C964FAFCC
:104460002C972D965FAF2D972E966FAF2E972F9688
:104470007FAF2F9760968FAF609761969FAF6197E0
:104480006091F7017091F8010091FB011091FC011E
:1044900080E090E020E030E840E050E00E94F73417
:1044A000B22EE32EF42E5BAB6BAF872E982E9FAF10
:1044B000980140E050E0C301B2010E94E834A22E0E
:1044C000032F142FB52FF62FE72F6C01A0E00E94C9
:1044D0004E367CF421503F4F4F4F5F4F6F4F7F4F11
:1044E0008F4F9F4FA22E032F142FB52FF62FE72F9C
:1044F0006C012A2D302F412F5B2F6F2F7E2FC6018D
:1045000008E00E941236A22EA32F6A01F62FE72F91
:104510008C012B2D3E2D4F2D5BA96BAD782D892D58
:104520009FADBA2EEF2EFE2E0E94303662962FAF30
:10453000629763963FAF639764964FAF64976596B3
:104540005FAF659766966FAF669767967FAF679721
:1045500068968FAF689769969FAF6997209101021F
:104560003091020240E050E0C301B2010E94E83401
:10457000F22E032F142FB52FF62FE72FD82EE92E6A
:10458000A0E00E944E3684F42150310940485F4F2C
:104590006F4F7F4F8F4F9F4FF22E032F142FB52F4A
:1045A000F62FE72FD82EE92E2F2D302F412F5B2FFE
:1045B0006F2F7E2F8D2D9E2D07E10E9412362BAB83
:1045C0003CAB4DAB5EABCBA8DCA8EDA8FEA860ED84
:1045D000C60E67E0D61EE11CF11C10920902109273
:1045E0000A0210920B0210920C0210920D0210920D
:1045F0000E0210920F0210921002109211021092ED
:1046000012021092130210921402109215021092CC
:104610001602109217021092180270EDC71677E07A
:10462000D706E104F1040CF0CCC02BA93CA94DA99C
:104630005EA9CA01B9010E9411349B01AC01A5E039
:10464000B0E00E947C344B015C01B594A794979430
:1046500087942B013C01770C4408542C3201809242
:10466000090290920A02A0920B02B0920C024092B0
:104670000D0240920E0240920F02409210028B01F6
:104680009C0182E035952795179507958A95D1F776
:104690000BAF1CAF2DAF3EAF00931102109312026F
:1046A0002093130230931402409215024092160296
:1046B000409217024092180214E2C1161AEFD10676
:1046C0001FEFE106F1060CF07CC06BA97CA98DA957
:1046D0009EA96455724F8F4F9F4F9B01AC010E9462
:1046E000113423966CAF7DAF8EAF9FAF2397A7E0B9
:1046F000B0E09B01AC010E947C347B018C019B01EA
:10470000AC01550F220B322FA9012BAB3CAB4DABAB
:104710005EAB9401A501642D742D842D942D570159
:104720006801EBA8FE2C0E2D1E2D0E943036209322
:10473000090230930A0240930B0250930C026093DB
:104740000D0270930E0280930F0290931002ABE063
:10475000B0E023962CAD3DAD4EAD5FAD23970E94EA
:104760007C347B018C0115950795F794E7949B01A8
:10477000AC01550F220B322FA9012BAB3CAB4DAB3B
:104780005EAB2BAD3CAD4DAD5EAD642D742D842D77
:10479000942D57016801EBA8FE2C0E2D1E2D0E94B2
:1047A000303620931102309312024093130250933B
:1047B000140260931502709316028093170290936F
:1047C000180229966CAD7DAD8EAD9FAD2997AB01DA
:1047D000BC0180E090E0DC014BAB5CAB6DAB7EAB31
:1047E0008FAB98AFA9AFBAAF62962FAD62976396C1
:1047F0003FAD639764964FAD649765965FAD6597DF
:1048000066966FAD669767967FAD679768968FAD32
:10481000689769969FAD6997A0901102B0901202B7
:10482000C0901302D0901402E0901502F09016028E
:1048300000911702109118020E94453659016A0131
:104840007B018C012BA93CA94DA95EA960E070E019
:1048500080E090E00E948F34F22E032F142FB52FAA
:10486000F62FE72FD82EE92EA0E00E944E3684F4D2
:1048700021503109404E5F4F6F4F7F4F8F4F9F4FF9
:10488000F22E032F142FB52FF62FE72FD82EE92E57
:104890002F2D302F412F5B2F6F2F7E2F8D2D9E2D93
:1048A00005E10E94123639014A01B62FA72FF82FD1
:1048B000E92F2A962FAD2A972B963FAD2B972C9652
:1048C0004FAD2C972D965FAD2D972E966FAD2E97F1
:1048D0002F967FAD2F9760968FAD609761969FADB5
:1048E0006197A0900902B0900A02C0900B02D0908C
:1048F0000C02E0900D02F0900E0200910F02109158
:1049000010020E94453659016A017B018C01930116
:10491000A4016B2F7A2F8F2F9E2F0E944536F22EE7
:10492000032F142FB52FF62FE72FD82EE92EA0E056
:104930000E944E3684F4215030484F4F5F4F6F4FE6
:104940007F4F8F4F9F4FF22E032F142FB52FF62F2F
:10495000E72FD82EE92E2F2D302F412F5B2F6F2FD1
:104960007E2F8D2D9E2D0FE00E941236B901CA01B7
:1049700020936C0170936D0140936E0190936F01D1
:104980000E941C3120E836EE45EC57E40E946C3062
:104990002BEA3CED42E45EE30E948C329B01AC01C9
:1049A00060E070E080E89FE30E94FA2F20E03AE2A6
:1049B0004DE257E40E941F3220E030E048EC52E420
:1049C0000E941F320E94DE3060936801709369017B
:1049D00080936A0190936B010E94CC0B2091FF01A0
:1049E00030910002890120E030E0322F212F102F7A
:1049F00000276B017C01C01AD10AE20AF30A209158
:104A000001023091020240E050E0C701B6010E946D
:104A1000E834B22E032F142FB52FF62FE72F982E40
:104A2000A92EA0E00E944E3684F42150310940485E
:104A30005F4F6F4F7F4F8F4F9F4FB22E032F142F1B
:104A4000B52FF62FE72F982EA92E2B2D302F412F83
:104A50005B2F6F2F7E2F892D9A2D07E10E94123632
:104A600029013A0170ED470E77E0571E611C711C59
:104A700080ED481687E05806610471044CF01092EE
:104A8000050210920602109207021092080213C04B
:104A9000A7019601C701B6010E94113420E030E061
:104AA000A9010E94573420930502309306024093D7
:104AB0000702509308028091050290910602A0918E
:104AC0000702B091080293018201081B190B2A0BFF
:104AD0003B0BC901B8010E941C3120E030E048ECDA
:104AE00052E40E946C30ABC083309105ECF386E653
:104AF00092E00E94F202082F86E692E00E94F20203
:104B0000182F86E692E00E94F202482F880F550B7C
:104B1000660B770BBA0155274427402B25961FAF0C
:104B2000259724961FAE249725962EAD3FAD259749
:104B3000C901A0E0B0E08A019B01082B192B2A2BA8
:104B40003B2BC901B8010E941C3120E030E040E855
:104B500059E30E941F320E94DE3060936C01709313
:104B60006D0180936E0190936F010E941C3120E0D3
:104B700030E54DE754E40E946C302EE434ED42E41D
:104B80005EE30E948C329B01AC0160E070E080E843
:104B90009FE30E94FA2F2DEC3AE24DE257E40E9487
:104BA0001F3220E030E048EC52E40E941F320E94A5
:104BB000DE30609368017093690180936A0190937D
:104BC0006B016091470386E692E00E9447078BEAFB
:104BD00090E00E94361386E692E00E94EA0642E0E8
:104BE0006091470386E692E00E94510780911D0282
:104BF00090E020911E02821B910982309105ECF316
:104C000086E692E00E94F202182F86E692E00E9469
:104C1000F202982F8827BC01612B072E000C880B0D
:104C2000990B0E941C3120E030E040EF53E40E94D9
:104C30006C3020E030E04AE252E40E94FB2F20E09A
:104C400030E040E251E40E941F320E94DE30609367
:104C500064017093650180936601909367010091F0
:104C60005E0110915F01C0906801D0906901E090F1
:104C70006A01F0906B010930110581F4C0925A016C
:104C8000D0925B01E0925C01F0925D0110925601BE
:104C900010925701109258011092590180915201BF
:104CA00090915301A0915401B0915501A701960133
:104CB000281B390B4A0B5B0BCA01B9010E941C313E
:104CC0004B015C010E942C0540904E0150904F0119
:104CD0006090500170905101641975098609970917
:104CE0000E941A319B01AC0160E070E08AE794E415
:104CF0000E946C309B01AC01C501B4010E941F32BF
:104D00000E94DE3060934A0170934B0180934C0106
:104D100090934D0160934601709347018093480141
:104D2000909349010E942C0560934E0170934F01AE
:104D30008093500190935101C0925201D09253013F
:104D4000E0925401F092550160914A0170914B013B
:104D500080914C0190914D010E941C312B013C012E
:104D600020915601309157014091580150915901BD
:104D700060910401709105018091060190910701F5
:104D80000E941F324B015C01209108013091090102
:104D900040910A0150910B01C301B2010E941F32E0
:104DA0009B01AC01C501B4010E94FB2F6093560129
:104DB0007093570180935801909359010E94DE30FF
:104DC00040900C0150900D0160900E0170900F0109
:104DD00046165706680679063CF4DC01CB018419B7
:104DE0009509A609B70912C088249924540184188A
:104DF0009508A608B708681579058A059B057CF40F
:104E0000DC01CB01840D951DA61DB71D80934A01C1
:104E100090934B01A0934C01B0934D0108C01092A8
:104E20004A0110924B0110924C0110924D01809159
:104E30005A0190915B01A0915C01B0915D01A701C5
:104E40009601281B390B4A0B5B0BCA01B9012AE0FA
:104E500030E040E050E00E9457342093420130930C
:104E600043014093440150934501C701B60124E634
:104E700030E040E050E00E94573420933E013093F0
:104E80003F0140934001509341010A301105F4F471
:104E90000F5F1F4F10935F0100935E0110924A0154
:104EA00010924B0110924C0110924D011092420150
:104EB00010924301109244011092450110923E015C
:104EC00010923F01109240011092410180913C01EB
:104ED00090913D01019709F0A2C06091420170914B
:104EE000430180914401909145010E941C312FEBB8
:104EF0003EE04CE95EE30E946C300E94DE3060933D
:104F00004201709343018093440190934501609165
:104F10003E0170913F0180914001909141010E94BA
:104F20001C312FEB3EE04CE95EE30E946C300E94A6
:104F3000DE3060933E0170933F0180934001909377
:104F4000410160914A0170914B0180914C01909117
:104F50004D010E941C312FEB3EE04CE95EE30E94C4
:104F60006C300E94DE3060934A0170934B01809355
:104F70004C0190934D0160914601709147018091E1
:104F80004801909149010E941C312FEB3EE04CE911
:104F90005EE30E946C300E94DE30609346017093A5
:104FA0004701809348019093490160916C01709191
:104FB0006D0180916E0190916F010E941C312DED69
:104FC00038EE41EF5CE30E941F320E94DE306093B6
:104FD0006C0170936D0180936E0190936F016091ED
:104FE00064017091650180916601909167010E9452
:104FF0001C3126E636E646EE5FE30E941F3220E0D3
:1050000030E040E052E40E94FB2F0E94DE306093CB
:105010006401709365018093660190936701E0914C
:105020003A01F0913B01EB30F10521F0109239018A
:105030001092380180910001909101018E179F0715
:1050400021F0F0930101E0930001EC30F10508F04C
:105050004AC2EC5CFF4F0C94763467ED73E087EE48
:1050600093E00E940F0B3FC21A8A19821BA2609123
:1050700042017091430180914401909145010E9449
:105080001C3120E030E040E251E40E946C30AB0182
:10509000BC0121E030E0C1010E943E0DF101019010
:1050A0000020E9F731978F010219130980913C0123
:1050B00090913D01892B19F461ED73E002C06CEC15
:1050C00073E0CE0142960E949B2F80914201909105
:1050D0004301A0914401B0914501B7FD15C00330D3
:1050E000110519F467EC73E023C00430110519F4BD
:1050F00063EC73E01DC00530110519F460EC73E03A
:1051000017C06FEB73E014C00430110519F46BEB9A
:1051100073E00EC00530110519F468EB73E008C0A8
:105120000630110519F466EB73E002C065EB73E01D
:10513000CE0142960E949B2FB101CE0142960E9461
:10514000823680913C0190913D01892B19F463EBEB
:1051500073E002C060EB73E0CE0142960E949B2F89
:105160001BA260914A0170914B0180914C0190917A
:105170004D010E941C3120E030E048EC52E40E94D6
:105180006C30AB01BC0122E030E0C1010E943E0D59
:10519000F10101900020E9F731978F0102191309FD
:1051A00080913C0190913D01892B19F46AEA73E0EA
:1051B00002C065EA73E0CE0101960E949B2F8091A8
:1051C0004A0190914B01A0914C01B0914D01B7FD66
:1051D00015C00330110519F46FE973E023C00430E2
:1051E000110519F46AE973E01DC00530110519F4C1
:1051F00066E973E017C063E973E014C00430110579
:1052000019F46EE873E00EC00530110519F46AE870
:1052100073E008C00630110519F467E873E002C0B6
:1052200065E873E0CE0101960E949B2FB101CE018B
:1052300001960E94823680913C0190913D01892B1C
:1052400019F461E873E044C16CE773E041C11A8A64
:10525000198265E773E0CE0142960E949B2F1BA244
:105260006091640170916501809166019091670180
:105270000E941C3120E030E040E251E40E946C309A
:10528000AB01BC0121E030E0C1010E943E0DB10143
:10529000CE0142960E94823680913C0190913D0160
:1052A000019719F462E773E002C06FE673E0CE0184
:1052B00042960E949B2F68E673E0CE0101960E9401
:1052C0009B2F1BA260916C0170916D0180916E010A
:1052D00090916F010E941C3120E030E048EC52E4D4
:1052E0000E946C30AB01BC0121E030E0C1010E94A2
:1052F0003E0DB101CE0101960E94823680913C01A3
:1053000090913D01019719F463E673E0E1C06FE508
:1053100073E0DEC01A8A19826FE473E0CE01429610
:105320000E949B2F63E473E0D3C01A8A198268E35A
:1053300073E0CE0142960E949B2F1BA24091040174
:1053400050910501609106017091070122E030E063
:10535000C1010E943E0DB101CE0142960E948236EB
:1053600068E273E0B5C01A8A19826DE173E0CE017C
:1053700042960E949B2F1BA2409108015091090167
:1053800060910A0170910B0122E030E0C1010E949E
:105390003E0DB101CE0142960E9482366DE073E06F
:1053A00097C01A8A198262E073E0CE0142960E9489
:1053B0009B2F1BA260910C0170910D0180910E0139
:1053C00090910F010E941C31AB01BC0120E030E044
:1053D000C1010E943E0DB101CE0142960E9482366B
:1053E00062EF72E075C01A8A198261EE72E0CE0136
:1053F00042960E949B2F809102019091030182307E
:105400009105B1F044F4009781F0019709F064C070
:1054100062EC72E05DC08430910581F064F0059724
:1054200009F05AC061E972E053C063ED72E050C008
:1054300065EB72E04DC068EA72E04AC06BE972E069
:1054400047C01A8A198269E872E0CE0142960E942A
:105450009B2F80913C0190913D01019719F46FE7DA
:1054600072E002C066E772E0CE0142960E949B2F76
:1054700069E672E02DC01A8A19826DE572E0CE01EC
:1054800042960E949B2F80913701882319F06AE58C
:1054900072E002C066E572E0CE0142960E949B2F48
:1054A00069E472E015C01A8A198268E372E0CE01DD
:1054B00042960E949B2F6DE272E00AC01A8A1982FE
:1054C0006EE172E0CE0142960E949B2F62E172E093
:1054D000CE0101960E949B2FBE016F5F7F4FCE01D0
:1054E00042960E94450B82E792E00E9423080E94A8
:1054F000CF0A0E94BE0E60E080917E020E94B60438
:1055000061E080917E020E9486040E94E10A0E946E
:10551000E10A0E942C056B017C0134E6C30ED11C0C
:10552000E11CF11C00E010E00E942C056C157D05CB
:105530008E059F0588F582E792E00E949303181676
:10554000190694F782E792E00E9493031816190651
:1055500014F010E01AC082E792E00E94AA03182F0C
:1055600080913E0381136BC48090190390901A03BD
:10557000A0901B03B0901C030E942C058616970672
:10558000A806B90608F45BC4E4CF812F90E0009729
:1055900009F06DC48C01C8CFC801003F110509F4A2
:1055A0002BC2009709F428C28039910509F48AC1F9
:1055B00044F48036910509F4F1C180379105D1F0AA
:1055C0001BC2803D910551F1803E910529F0803B41
:1055D000910509F011C26FC080913A0190913B0191
:1055E0008B30910514F401960DC010923B0110927E
:1055F0003A0102C280913A0190913B0182309105BB
:1056000034F0019790933B0180933A01F5C14BE050
:1056100050E050933B0140933A01EEC180913A0132
:1056200090913B0184309105B9F4C0900401D09071
:105630000501E0900601F090070128E431EE4AE709
:105640005FE3C701B6010E94673087FFD5C12AE03A
:1056500037ED43E25CE353C185309105B9F4C09066
:105660000801D0900901E0900A01F0900B0128E4B4
:1056700031EE4AE75FE3C701B6010E94673087FF5A
:10568000BBC12AE037ED43E25CE35FC1069709F056
:10569000B3C180910C0190910D01A0910E01B091C8
:1056A0000F0184369105A105B1050CF0A5C1019645
:1056B000A11DB11D6AC180913A0190913B010397F0
:1056C000B1F48091680190916901A0916A01B09153
:1056D0006B0180935A0190935B01A0935C01B0939E
:1056E0005D0181E090E090933B0180933A0100914D
:1056F0003A0110913B010430110521F5C0900401DD
:10570000D0900501E0900601F09007012AE037ED06
:1057100043E25CE3C701B6010E941A3218160CF08E
:1057200074C02AE037ED43E25CE3C701B6010E9492
:10573000FA2F609304017093050180930601909302
:10574000070163C00530110521F5C0900801D09014
:105750000901E0900A01F0900B012AE037ED43E2E5
:105760005CE3C701B6010E941A3218160CF04DC056
:105770002AE037ED43E25CE3C701B6010E94FA2F4D
:10578000609308017093090180930A0190930B01C3
:105790003CC006301105D1F480910C0190910D01AF
:1057A000A0910E01B0910F01181619061A061B06DA
:1057B0000CF072C00197A109B10980930C0190937C
:1057C0000D01A0930E01B0930F0166C008301105C2
:1057D00091F480913C0190913D01892B39F481E055
:1057E00090E090933D0180933C0156C010923D01A2
:1057F00010923C0151C00930110539F490913701E4
:1058000081E089278093370147C00A30110509F0EC
:1058100043C060913C0180E090E00E9439086091B3
:10582000370181E090E00E94390860910C0182E02C
:1058300090E00E94390820E030E048EC52E46091AA
:1058400004017091050180910601909107010E9469
:105850001F320E94DE3083E090E00E94390820E091
:1058600030E048EC52E460910801709109018091A8
:105870000A0190910B010E941F320E94DE3084E0E9
:1058800090E00E94390864E670E080E090E00E94B9
:10589000F204E0E0F0E0099580913A0190913B013B
:1058A0000B9709F0A9C060E08AE090E00E943908F7
:1058B00064E670E080E090E00E94F204E0E0F0E056
:1058C00009959AC080913A0190913B0184309105ED
:1058D00019F5C0900401D0900501E0900601F09008
:1058E000070124EA30E74DE75FE3C701B6010E94F4
:1058F000673087FF81C02DEC3CEC4CEC5DE3C701C9
:10590000B6010E94FB2F6093040170930501809300
:1059100006019093070170C08530910519F5C0907C
:105920000801D0900901E0900A01F0900B0124EAEF
:1059300030E74DE75FE3C701B6010E94673087FF9C
:105940005BC02DEC3CEC4CEC5DE3C701B6010E9462
:10595000FB2F609308017093090180930A019093D3
:105960000B014AC0069709F047C080910C01909145
:105970000D01A0910E01B0910F0184369105A10592
:10598000B105D4F50A96A11DB11D80930C01909329
:105990000D01A0930E01B0930F012EC080913A012A
:1059A00090913B018430910569F48AE097EDA3E280
:1059B000BCE38093040190930501A0930601B0938A
:1059C00007011AC08530910569F48AE097EDA3E2DA
:1059D000BCE38093080190930901A0930A01B0935E
:1059E0000B010AC0069741F410920C0110920D01B0
:1059F00010920E0110920F0100E010E0012B11F443
:105A00000C944F1F0E9400000C944B1F86E780935C
:105A10009C038091A5038F3F29F486E692E00E94C3
:105A20005D071CC061E00E94860461E08091A503CF
:105A30000E94B6048091A8038F3F19F40E9482054A
:105A40000DC061E00E94B60461E08091A6030E944F
:105A5000B60460E08091A7030E94B6048091A5037C
:105A60008F3FE1F460919C0386E692E00E94470735
:105A700060ED86E692E00E943E0386E692E00E9498
:105A8000EA0641E060919C0386E692E00E9451079D
:105A900086E692E00E94F202182F1FC08091A803B0
:105AA0008F3F21F481E590E00E94B90560E080918C
:105AB000A5030E94860480ED0E94E00980E00E9418
:105AC000E009182F61E08091A5030E94860480916F
:105AD000A8038F3F11F40E94B805183509F08FC054
