:100000000C940E020C9436020C9436020C94900759
:100010000C9490070C9490070C9436020C943602C2
:100020000C9436020C9436020C9436020C94360270
:100030000C9436020C9436020C9436020C94360260
:100040000C9439050C9436020C9436020C9436024A
:100050000C9436020C9436020C9436020C94360240
:100060000C94BD050C94360263296A29632AC62ABA
:10007000D12AEF2A0D2B2F2B5D2B772B8F2B9A2B31
:1000800007634236B79BD8A71A39685618AEBAAB81
:10009000558C1D3CB7CC5763BD6DEDFD753EF61715
:1000A0007231BF000000803F08000000BE9224496A
:1000B000123EABAAAA2ABECDCCCC4C3E000000809A
:1000C000BEABAAAAAA3E00000000BF000000803F0D
:1000D0000000000000084178D3BB4387D1133D19CD
:1000E0000E3CC3BD4282AD2B3E68EC8276BED98FFA
:1000F000E1A93E4C80EFFFBE01C4FF7F3F0000003E
:10010000000000000000230026002900000000007D
:10011000250028002B000404040404040404020243
:100120000202020203030303030301020408102076
:1001300040800102040810200102040810202572EA
:10014000480048756D69646974790066742F73009E
:10015000566172696F2052617700B0460054656D38
:10016000706572617475726500696E4847005072FF
:100170006573737572650066742F730056617269DA
:100180006F00667400416C74697475646500667410
:100190000052656C2E20416C746974006D2F7300E1
:1001A000566172696F2052617700B0430054656DEB
:1001B0007065726174757265006850610050726597
:1001C0007373757265006D2F7300566172696F00ED
:1001D0006D00416C746974756465006D0052656CE6
:1001E0002E20416C74697400524354205661726928
:1001F0006F0020566172696F6D6574657220312ED3
:10020000350020524354204A65746920546F6F6C46
:10021000730052657365743A20446F776E005265BF
:100220007365742044656661756C74730053617600
:10023000653A20446F776E005361766520616E6485
:100240002052657374617274004368616E67653A29
:1002500020446F776E004F6666004F6E00526177E4
:1002600020566172696F3A20004368616E67653A93
:1002700020446F776E004555286D2CDF43290055CB
:10028000532866742CDF462900556E6974733A2032
:1002900000466F756E64204C505300466F756E6457
:1002A000204D533536313100466F756E6420424D16
:1002B0004532383000466F756E6420424D503238FA
:1002C0003000466F756E6420424D503038352F3106
:1002D0003830004E6F742044657465637465642122
:1002E0000044657465637465642053656E736F7252
:1002F0003A004368616E67653A2055702F446F7706
:100300006E00446561647A6F6E653A2000436861EF
:100310006E67653A2055702F446F776E0046696CA2
:1003200074657220593A20004368616E67653A200F
:1003300055702F446F776E0046696C746572205853
:100340003A200050726573733A20446F776E004113
:100350006C7469747564652052657365743F0068D8
:10036000506100696E484700507265733A2000B0D2
:100370004300B0460054656D703A200066742F73D8
:10038000006D2F730020002020002020200020205E
:1003900020200020200020202000202020200020DD
:1003A00020202020005661723A005661723A2000E7
:1003B0006674006D00002000202000202020000036
:1003C0002000202000202020002020202000416C40
:1003D000743A00416C743A200020566172696F6D66
:1003E0006574657220312E350020524354204A65D1
:1003F000746920546F6F6C730000000000240027A4
:10040000002A0000000008000201000003040700A9
:100410000000000000000000702F502F11241FBEAC
:10042000CFEFD8E0DEBFCDBF11E0A0E0B1E0E8E85B
:10043000FDE602C005900D92A633B107D9F723E07F
:10044000A6E3B1E001C01D92AB3CB207E1F712E0B8
:10045000CDE0D2E004C02197FE010E94A034CC3050
:10046000D107C9F70E94CE1C0C94B7360C9400003B
:10047000CF92DF92EF92FF920F931F93CF93DF9370
:100480006C017A018B01C0E0D0E0CE15DF0589F068
:10049000D8016D918D01D601ED91FC910190F08113
:1004A000E02DC6010995892B11F47E0102C0219629
:1004B000ECCFC701DF91CF911F910F91FF90EF908B
:1004C000DF90CF900895833081F028F4813099F047
:1004D0008230A1F008958730A9F08830B9F08430D7
:1004E000D1F4809180008F7D03C0809180008F7750
:1004F00080938000089584B58F7702C084B58F7D86
:1005000084BD08958091B0008F7703C08091B000C2
:100510008F7D8093B00008953FB7F8948091F301E8
:100520009091F401A091F501B091F60126B5A89B38
:1005300005C02F3F19F00196A11DB11D3FBFBA2F75
:10054000A92F982F8827820F911DA11DB11DBC01D5
:10055000CD0143E0660F771F881F991F4A95D1F799
:10056000089585ED8093BC008091BC0084FDFCCF94
:1005700010923F0208954091C801262F30E0240FC9
:10058000311D21323105DCF420913F022430C9F4C1
:10059000FC0180E090E0861758F43091C801219169
:1005A000DC01AA55BE4FA30FB11D2C930196F3CFCA
:1005B0008091C801680F6093C80180E0089581E0D0
:1005C000089582E008950895E091F8018091F7017F
:1005D000E81730F4F0E0E750FE4F808190E0089596
:1005E0008FEF9FEF08959091F8018091F701981790
:1005F00050F4E92FF0E0E750FE4F208130E09F5F9C
:100600009093F80102C02FEF3FEFC9010895809148
:10061000F70190E02091F801821B91090895CF9293
:10062000DF92EF92FF920F931F93CF93DF937C01A2
:10063000262F972F8A018091A501882391F0C62F3C
:10064000D72F6E01C40ED51ECC15DD0571F0699152
:10065000D701ED91FC910190F081E02DC701099542
:10066000F3CF642F822F0E94BB02C801DF91CF918C
:100670001F910F91FF90EF90DF90CF900895CF934F
:10068000DF931F92CDB7DEB769832091A5012223A6
:10069000D1F02091A401203240F021E030E0FC01B3
:1006A0003383228380E090E015C08091A301E82F7E
:1006B000F0E0ED57FE4F998190838F5F8093A30107
:1006C0008093A40105C061E0CE0101960E94BB02A7
:1006D00081E090E00F90DF91CF9108950895DC01C3
:1006E0005196ED91FC915297908150968C91809506
:1006F0008923808308952091C9033091CA03281764
:10070000390771F49091C7038091C803981741F09D
:10071000E091C703F0E0EE58FE4F808190E008952D
:100720008FEF9FEF089508952091C9033091CA0378
:100730002817390769F48091C8032091C70390E016
:100740004096821B910960E170E00E944B3408954D
:1007500080E090E008952091C9033091CA032817E2
:100760003907B9F49091C7038091C803981789F0AD
:10077000E091C703F0E0EE58FE4F80812091C7035F
:1007800030E02F5F3F4F2F7033272093C70390E057
:1007900008958FEF9FEF0895089580E090E0089509
:1007A0000E94A736CF92DF92EF92FF920F931F9392
:1007B000CF93DF93EC0189A19AA1009729F421E05E
:1007C00030E03B832A8371C00FB7F8948F8D98A1D6
:1007D000892B91F028E030E090E081E0482F46231B
:1007E00009F09F5F880F21503109C1F7888D811171
:1007F0009F5F192F109501C010E0F62ECE010E94C8
:100800006F0389A19AA10197F1F788E0C82ED12C36
:10081000EE24E3948E2D8F2139F0E989FA899081B5
:100820008889892B808303C0CE010E946F0389A130
:100830009AA10197F1F7EE0C81E0C81AD10851F79F
:100840008E89882389F0888D882339F0E989FA898F
:1008500090818889892B808303C0CE010E946F0319
:1008600089A19AA10197F1F78F8D98A1892B81F029
:1008700010FF07C0E989FA8990818889892B8083D4
:1008800003C0CE010E946F038F8D98A10197F1F7ED
:10089000E989FA8990818889892B80830FBF8D8DA2
:1008A0009E8D0197F1F781E090E0DF91CF911F914C
:1008B0000F91FF90EF90DF90CF900895CF93DF934B
:1008C000282F30E0F901ED5FFB4F8491F901E65DDF
:1008D000FE4FD491F901EA5EFE4FC491CC2391F012
:1008E00081110E946302EC2FF0E0EE0FFF1FEE5F1C
:1008F000FE4FA591B491EC91ED2381E090E021F4BD
:1009000080E002C080E090E0DF91CF9108951F93D6
:10091000CF93DF93282F30E0F901ED5FFB4F8491F7
:10092000F901E65DFE4FD491F901EA5EFE4FC491F4
:10093000CC23C9F0162F81110E946302EC2FF0E046
:10094000EE0FFF1FE45FFE4FA591B4918FB7F894AF
:10095000111105C09C91ED2FE095E92302C0EC91A7
:10096000ED2BEC938FBFDF91CF911F910895CF9323
:10097000DF9390E0FC01E65DFE4F2491FC01EA5E0E
:10098000FE4F8491882361F190E0880F991FFC014C
:10099000E750FC4FC591D491FC01E45FFE4FA59157
:1009A000B491611109C09FB7F89488812095822382
:1009B0008883EC912E230BC0623061F49FB7F894CA
:1009C0003881822F809583238883EC912E2B2C9362
:1009D0009FBF06C08FB7F894E8812E2B28838FBF66
:1009E000DF91CF9108958F929F92AF92BF92CF9255
:1009F000DF92EF92FF926B017C010E948C024B010F
:100A00005C01C114D104E104F104F1F00E948C02F4
:100A1000DC01CB0188199909AA09BB09883E9340DA
:100A2000A105B10570F321E0C21AD108E108F1086F
:100A300088EE880E83E0981EA11CB11CC114D1045D
:100A4000E104F10419F7DDCFFF90EF90DF90CF9034
:100A5000BF90AF909F908F9008952FB7F8946091BA
:100A6000EF017091F0018091F1019091F2012FBF9F
:100A700008951F920F920FB60F9211242F933F9358
:100A80008F939F93AF93BF938091EF019091F0016B
:100A9000A091F101B091F2013091EE0126E0230F17
:100AA0002D3720F40296A11DB11D05C029E8230FA2
:100AB0000396A11DB11D2093EE018093EF01909349
:100AC000F001A093F101B093F2018091F3019091B4
:100AD000F401A091F501B091F6010196A11DB11D9F
:100AE0008093F3019093F401A093F501B093F60184
:100AF000BF91AF919F918F913F912F910F900FBE1A
:100B00000F901F901895CF93CFB7F8948091ED0177
:100B1000811127C0E0E2F1E08491E4E3F1E09491F7
:100B2000E82FF0E0EE0FFF1FE750FC4FA591B491C6
:100B3000EC91E92321F461E08AE00E94870461E0FE
:100B40008AE00E94B7048CB580618CBD8CB580644E
:100B50008CBD61E08DE00E94B70461E08BE00E94F3
:100B6000B7048091ED018F5F8093ED01CFBFCF91EE
:100B7000089508958CBD9DBD08951F920F920FB6E4
:100B80000F9211242F933F934F935F936F937F9313
:100B90008F939F93AF93BF93EF93FF938091B9008F
:100BA000887F803609F49CC068F5883209F45BC000
:100BB00090F4803109F454C038F4882309F4F6C065
:100BC000883009F44DC0F6C0883109F44CC0803239
:100BD00009F45DC0EFC0803409F468C048F4803384
:100BE00009F455C0883309F0E5C080933D02D8C0B0
:100BF000803509F44FC0883509F45DC0883409F0A8
:100C0000D9C0D6C0883909F4C7C0A8F4883709F418
:100C100067C038F4883609F463C0803709F460C0CF
:100C2000C9C0883809F4B8C0803909F45FC0803879
:100C300009F0C0C05BC0803B09F486C038F4803A3C
:100C400009F466C0883A09F47FC0B4C0803C09F456
:100C5000A7C0883C09F4A4C0883B09F48AC0AAC094
:100C600080913A0210C090913C0280913B0298170B
:100C700070F5E0913C0281E08E0F80933C02F0E041
:100C8000E75EFD4F80818093BB0085EC86C080933A
:100C90003D028EC0E0913C0281E08E0F80933C02C9
:100CA0008091BB00F0E0E75EFD4F808390913C02B5
:100CB00080913B026EC0E0913C0281E08E0F8093F8
:100CC0003C028091BB00F0E0E75EFD4F80838091A5
:100CD0003E0281116DC081E08093390284EA61C0D7
:100CE00083E080933F021092EC01CFCF8091EC0122
:100CF000803208F051C0E091EC0181E08E0F8093CA
:100D0000EC018091BB00F0E0E453FE4F8083BDCF47
:100D100085EC8093BC0010923F028091EC01803200
:100D200030F4E091EC01F0E0E453FE4F108260916A
:100D3000EC0170E0E091CA01F091CB018CEC91E004
:100D400009951092EC0136C084E080933F02109226
:100D5000C9011092C801E091C601F091C70109953F
:100D60008091C801811105C081E08093C801109273
:100D7000A601E091C90181E08E0F8093C901F0E0E6
:100D8000EA55FE4F80818093BB009091C90180910C
:100D9000C801981708F479CF85E88093BC000AC091
:100DA00085EC8093BC0010923F0204C010923D027B
:100DB0000E94B102FF91EF91BF91AF919F918F91EE
:100DC0007F916F915F914F913F912F910F900FBE47
:100DD0000F901F9018952091A401909182012132CB
:100DE00008F04AC080913F028111FCCF32E030937D
:100DF0003F0231E030933E023FEF30933D021092CC
:100E00003C0220933B02A3E8B1E049E152E0FA0141
:100E10003E2F341B321718F43D913193F9CF1092C5
:100E20003A0220913A02990F922B90933A029091B4
:100E30003902913061F41092390290913A02909304
:100E4000BB009091BC0093FDF8CF95EC01C095EEEE
:100E50009093BC0090913F029230E1F390913D025B
:100E60009F3F79F080913D02803241F080913D02B8
:100E7000803331F084E005C081E003C082E001C02E
:100E800083E01092A3011092A4011092A50108958D
:100E900081E08093A501609382011092A3011092DA
:100EA000A4010895862F413208F040E2642F0E9489
:100EB0006C121092F8018093F70108951092F801D6
:100EC0001092F7011092A3011092A40110923F0218
:100ED00081E080933E021092390261E082E10E943B
:100EE000870461E083E10E948704E9EBF0E0808100
:100EF0008E7F808380818D7F808380E28093B800A5
:100F000085E48093BC000895862798E027E087FF5A
:100F100003C0880F822701C0880F9150C1F7089540
:100F20001F920F920FB60F9211242F933F934F935E
:100F30005F936F937F938F939F93AF93BF93CF9361
:100F4000DF93EF93FF93E091C903F091CA033097C9
:100F500009F467C0C685D78588812585822309F075
:100F600060C0818D928D0197F1F7438D548D68E0BB
:100F700070E030E081E0DA011197F1F79881922377
:100F800011F0382B03C0982F90953923880F6150AA
:100F9000710989F78091C80390E001968F709927B5
:100FA0006091C703681749F0A091C803B0E0AE583C
:100FB000BE4F3C938093C80303C087898160878BB1
:100FC00086898823F1F0CA010197F1F788812823E7
:100FD00081E090E0A0E0B0E004C0880F991FAA1F54
:100FE000BB1F2A95D2F7409170015091710160E0CA
:100FF00070E0842B952BA62BB72B909371018093D7
:101000007001878D90A1009711F00197F1F7858D00
:10101000968D0197F1F7A389B4899C918589892BD5
:101020008C93FF91EF91DF91CF91BF91AF919F9101
:101030008F917F916F915F914F913F912F910F9081
:101040000FBE0F901F901895E091C903F091CA034D
:10105000E817F90769F4A389B4899C91858980957B
:1010600089238C931092CA031092C90381E00895DA
:1010700080E008950C9416300C940E30CF93C82F56
:10108000682F80E492E00E9448078FE090E00E9481
:10109000BC1280E492E00E94EB0641E06C2F80E4F9
:1010A00092E00E9452079091F7018091F801981701
:1010B00029F080E492E0CF910C94F3028FEF9FEF40
:1010C000CF910895EF92FF920F931F93CF93DF93E9
:1010D000909151039F3F39F48EBD00000DB407FE7F
:1010E000FDCF8EB528C0D82F07E010E0C0E0EE2479
:1010F000E394F12CCC0F60E0809151030E948704AF
:10110000B701002E01C0660F0A94EAF76D238091A3
:101110004F030E94870461E0809151030E9487047D
:10112000809150030E945E04892B09F0C160015038
:10113000110900F78C2FDF91CF911F910F91FF9034
:10114000EF900895CF93DF93D82FC62F80914E0351
:101150008F3F41F560914503809143039091440393
:101160000E9448078091430390914403DC01ED9174
:10117000FC910190F081E02D6D2F09958091430342
:1011800090914403DC01ED91FC910190F081E02D00
:101190006C2F09958091430390914403DF91CF9187
:1011A0000C94EB06809151038F3F21F481E590E090
:1011B0000E94BA0560E080914E030E9487048D2F43
:1011C0008F770E9462088C2F0E94620861E08091F4
:1011D0004E030E948704809151038F3F21F4DF91D9
:1011E000CF910C94B905DF91CF910895CF93C82F7B
:1011F00080914E038F3F81F56091450380914303B9
:10120000909144030E9448078091430390914403C6
:10121000DC01ED91FC910190F081E02D6C2F09959E
:1012200080914303909144030E94EB0641E060915A
:10123000450380914303909144030E94520780919B
:10124000430390914403DC01ED91FC910284F3850A
:10125000E02D0995C82F20C0809151038F3F21F4C4
:1012600081E590E00E94BA0560E080914E030E9403
:1012700087048C2F80680E94620880E00E946208C8
:10128000C82F61E080914E030E9487048091510332
:101290008F3F11F40E94B9058C2FCF910895CF9301
:1012A000DF93C82F80914E038F3F09F041C06091BA
:1012B000450380914303909144030E944807809125
:1012C000430390914403DC01ED91FC910190F08186
:1012D000E02D6C2F099580914303909144030E9467
:1012E000EB0642E0609145038091430390914403F3
:1012F0000E9452078091430390914403DC01ED91D9
:10130000FC910284F385E02D0995C82F8091430359
:1013100090914403DC01ED91FC910284F385E02D72
:10132000099520E030E03C2FE901C82BD92B29C0DA
:10133000809151038F3F21F481E590E00E94BA052E
:1013400060E080914E030E9487048C2F80680E9489
:10135000620880E00E946208C82F80E00E94620854
:101360002C2F30E0322F2227E901C82B61E0809139
:101370004E030E948704809151038F3F11F40E9415
:10138000B905CE01DF91CF9108950E944F099827AA
:10139000892798270895CF9380914E038F3F39F482
:1013A00080914303909144030E945E071CC061E05A
:1013B0000E94870461E080914E030E94B7048091EF
:1013C00051038F3F19F40E9483050DC061E00E9414
:1013D000B70461E080914F030E94B70460E0809100
:1013E00050030E94B70480ED0E94F608803609F091
:1013F000F0C066EB80EE0E94A2086CE271E080E033
:1014000090E00E94F30483EF0E94F60880FF05C07D
:1014100064E670E080E090E0F4CF88E80E94C509BF
:1014200090935303809352038AE80E94C5099093D6
:101430005503809354038CE80E94C5099093570389
:10144000809356038EE80E94C509909359038093B8
:10145000580380E90E94C50990935B0380935A0367
:1014600082E90E94C50990935D0380935C0384E93F
:101470000E94C50990935F0380935E0386E90E94F2
:10148000C509909361038093600388E90E94C509B0
:1014900090936303809362038AE90E94C509909345
:1014A0006503809364038CE90E94C50990936703E8
:1014B000809366038EE90E94C50990936903809327
:1014C000680381EA0E94F60880936A0381EE0E9415
:1014D000C50990936C0380936B0383EE0E94F6081A
:1014E00080936D0384EE0E94F608C82F85EE0E945B
:1014F000F608282F2F7030E1C39FC0011124822BE2
:1015000090936F0380936E0386EE0E94F608C82FB7
:1015100085EE0E94F60890E024E0959587952A953F
:10152000E1F740E1C49F90011124822B932B90930B
:1015300071038093700387EE0E94F6088093720314
:101540008DEE80937403809175038F71806A809310
:10155000750380917303807C8093730365E082EF51
:101560000E94A20890917303692F677080E2689FC0
:1015700090011124892F869586958695877048E07D
:10158000849FB0011124622B732B97FB992790F94C
:10159000692B85EF0E94A20890917403692F6770F0
:1015A00080E2689F90011124892F86958695869503
:1015B000877048E0849FB0011124622B732B9295B1
:1015C000969596959370692B84EF0E94A20881E00E
:1015D00001C080E0CF910895EF92FF920F931F9387
:1015E000CF93DF93909182039F3F39F48EBD00002B
:1015F0000DB407FEFDCF8EB528C0D82F07E010E050
:10160000C0E0EE24E394F12CCC0F60E080918203E3
:101610000E948704B701002E01C0660F0A94EAF702
:101620006D23809180030E94870461E08091820392
:101630000E948704809181030E945E04892B09F037
:10164000C1600150110900F78C2FDF91CF911F91DC
:101650000F91FF90EF900895CF93DF93C82F809163
:101660007F038F3F31F56091760380E492E00E9422
:1016700048076C2F80E492E00E943F0380E492E0F0
:101680000E94EB0642E06091760380E492E00E94C3
:10169000520780E492E00E94F302C82F80E492E0B7
:1016A0000E94F30220E030E03C2FE901C82BD92B47
:1016B00029C0809182038F3F21F481E590E00E9450
:1016C000BA0560E080917F030E9487048C2F8068B8
:1016D0000E94EC0A80E00E94EC0AC82F80E00E9481
:1016E000EC0A2C2F30E0322F2227E901C82B61E0D1
:1016F00080917F030E948704809182038F3F11F4C1
:101700000E94B9059C2F8D2FDF91CF910895CF9323
:101710008093760380917F038F3F29F480E492E0E9
:101720000E945E071CC061E00E94870461E0809116
:101730007F030E94B704809182038F3F19F40E94B7
:1017400083050DC061E00E94B70461E080918003D1
:101750000E94B70460E0809181030E94B7048091E9
:101760007F038F3FE1F46091760380E492E00E9472
:10177000480760ED80E492E00E943F0380E492E03D
:101780000E94EB0641E06091760380E492E00E94C3
:10179000520780E492E00E94F302C82F1FC080919C
:1017A00082038F3F21F481E590E00E94BA0560E05A
:1017B00080917F030E94870480ED0E94EC0A80E004
:1017C0000E94EC0AC82F61E080917F030E94870489
:1017D000809182038F3F11F40E94B905C83509F04A
:1017E0008CC088E80E942C0B909384038093830321
:1017F0008AE80E942C0B90938603809385038CE8E3
:101800000E942C0B90938803809387038EE80E949C
:101810002C0B90938A038093890380E90E942C0B00
:1018200090938C0380938B0382E90E942C0B9093FE
:101830008E0380938D0384E90E942C0B9093900378
:1018400080938F0386E90E942C0B909392038093E0
:10185000910388E90E942C0B909394038093930347
:101860008AE90E942C0B90939603809395038CE950
:101870000E942C0B90939803809397038EE90E940B
:101880002C0B90939A038093990380917F038F3F51
:10189000A9F46091760380E492E00E94480764EF27
:1018A00080E492E00E943F036FE380E492E00E94B4
:1018B0003F0380E492E00E94EB0621C08091820306
:1018C0008F3F21F481E590E00E94BA0560E08091AD
:1018D0007F030E94870484E70E94EC0A8FE30E9442
:1018E000EC0A61E080917F030E948704809182036B
:1018F0008F3F29F40E94B90502C080E001C081E059
:10190000CF910895CF93DF93C82F67E780E492E0EB
:101910000E9448076C2F80E492E00E943F0380E41D
:1019200092E00E94EB0667E780E492E00E9448079D
:1019300082E090E00E94B01280E492E00E94F30204
:10194000D82F80E0C82F80E492E00E94F302C82BD9
:10195000D92B80E492E00E94EB06CE01DF91CF917B
:1019600008950F931F93CF93C82F0CE412E0F80152
:10197000608F682FC8010E94D203F801108E8C2F4F
:10198000CF911F910F9108952F923F924F925F92A6
:101990006F927F928F929F92AF92BF92CF92DF927F
:1019A000EF92FF920F931F93CF93DF93CDB7DEB7E4
:1019B0002A970FB6F894DEBF0FBECDBF8C012A0167
:1019C0003B013A87298720E030E0A901C301B20139
:1019D0000E94913087FF05C060E070E080E09FEBDF
:1019E00004C060E070E080E09FE3E12CF12CA98569
:1019F000BA85EA16FB0654F420E030E040E251E4F8
:101A00000E9496302FEFE21AF20AF1CF9B01AC014F
:101A1000C301B2010E9425306B017C0120E030E05F
:101A2000A901C301B2010E94913087FF04C0F7FAF7
:101A3000F094F7F8F094A12CB12CBDECB983ECEC48
:101A4000EA83FCECFB832DE32C8320E030E040E2D2
:101A500051E469817A818B819C810E944932962E62
:101A6000872E382E292EA70196010E949130181634
:101A700044F03FEFA31AB30A99828A823B822C82F8
:101A8000E4CFA114B10429F045016FEF861A960A3C
:101A900003C092E0892E912C20E030E0A901C3011F
:101AA000B2010E94913087FF03C07FEF871A970A27
:101AB00089859A850196880E991E1814190444F098
:101AC00081E090E0DC01A819B909BE83AD8302C0B2
:101AD0001E821D8220E030E0A901C301B2010E94F4
:101AE000913087FF07C08DE2F801808388248394BA
:101AF000912C02C0812C912CA114B10449F4F8015D
:101B0000E80DF91D80E3808394012F5F3F4F490169
:101B1000212C312CB101680D791D78876F832A142F
:101B20003B04D1F129813A814B815C81C701B60127
:101B30000E9496300E9408312B013C016F8178850C
:101B4000600F711F4AE0C2010E94D92FB201550CEB
:101B5000880B990B0E94463129813A814B815C8127
:101B60000E9449329B01AC01C701B6010E9424309A
:101B70006B017C0120E030E040E251E469817A8130
:101B80008B819C810E94963069837A838B839C83AE
:101B90003FEF231A330ABECF5B0189859A85181659
:101BA000190644F4F801E60FF71F8EE28083DB018B
:101BB00011965D01812C912CE985FA858E169F0680
:101BC0004CF520E030E040E251E4C701B6010E944C
:101BD00049322B013C010E9408316B017C01B401A8
:101BE0006A0D7B1D600F711F4AE0C6010E94D92F4C
:101BF000B601DD0C880B990B0E9446319B01AC01AC
:101C0000C301B2010E9424306B017C01BFEF8B1A2B
:101C10009B0AD2CFCF01F7FF02C080E090E0A80E70
:101C2000B91E2D813E81232B89F09501F801EA0D23
:101C3000FB1D40E26FEFA61AB60A4193C501821B55
:101C4000930BAD81BE818A179B07A4F3F801EA0DBF
:101C5000FB1D1082C8012A960FB6F894DEBF0FBE96
:101C6000CDBFDF91CF911F910F91FF90EF90DF904B
:101C7000CF90BF90AF909F908F907F906F905F902C
:101C80004F903F902F9008952F923F924F925F92E6
:101C90006F927F928F929F92AF92BF92CF92DF927C
:101CA000EF92FF920F931F93CF93DF93C09019038E
:101CB000D0901A03E0901B03F0901C030E942D05A6
:101CC0002091F1022223E9F060E08EE70E94B10C3E
:101CD00061E082E90E94B10C61E083E20E94B10CF4
:101CE00061E08091F1020E94B10C80911001882383
:101CF00011F0815003C01092F10286E08093100130
:101D000070C324EFC20E21E0D21EE11CF11C11E0D1
:101D1000C616D706E806F90608F010E060E08EE780
:101D20000E94B10C61E08FE90E94B10C111170C0EA
:101D30008091F202A0916F02B0917002E82FF0E062
:101D4000EE0FFF1FEF52FD4F20813181232B49F40D
:101D50008F5F282F30E02A173B0784F31092F2029E
:101D600002C08093F2026091F202F6E0E0E026E029
:101D700030E0E12C40E050E070E0CA01860F971F90
:101D80008A179B07A4F5009709F1E394880F991F20
:101D9000FC01EF54FD4F80818F718830A1F08130BC
:101DA00019F4C901039615C0811103C0C901029637
:101DB00010C0853019F4C90104960BC0893019F0A0
:101DC000C901019606C0C901059603C0C9012F2F9C
:101DD0003E2F4F5F5F4F4031510551F08B319105E0
:101DE00014F0EA9404C0F22FE32F9C01C6CFC9017E
:101DF000C82FC06481E0809364026C2F8CE492E071
:101E00000E94D20360E08C2F0E948407C82F1DC05F
:101E1000E091A403F0E0EE0FFF1FEE54FD4F808130
:101E2000C82FCF71829586958770C80FC85F81E0F3
:101E3000809364026C2F8CE492E00E94D20360E0F5
:101E40008C2F0E948407C82FE12CD1E0D09364022C
:101E500061E18CE492E00E94D2036C2F81E10E9448
:101E60008407C82FD093640264EA8CE492E00E9455
:101E7000D2036C2F84EA0E948407C82FD093640297
:101E800062E08CE492E00E94D2036C2F82E00E9418
:101E90008407C82FD093640268E08CE492E00E942B
:101EA000D2036C2F88E00E948407C82FD09364026D
:101EB00060E08CE492E00E94D203109264026C2FE6
:101EC00080E00E948407F82E1111EAC1C091F2024D
:101ED0006E2C6C0E20916F0230917002C61551F07D
:101EE000772473947C0E7092F2020C2F10E002178C
:101EF000130754F08091F20290E0821793070CF4DC
:101F00006CC21092F20269C2CC2309F4C7C1E091FD
:101F10001D03F0911E030995C295C07F680131E24F
:101F2000C30ED11CC601880F991FFC01E159FD4F5A
:101F30005F0180818F7190E08530910509F4BEC00A
:101F4000F4F5009709F495C0019709F0A7C1000FB7
:101F5000111FF801EF52FD4F0190F081E02D00813B
:101F60001181C160D09364026C2F8CE492E00E94D6
:101F7000D2036F2D8C2F0E948407C82F1F79F50183
:101F8000208122952695277030E0322F2227329526
:101F9000330F307E022B132BD0936402602F8CE41E
:101FA00092E00E94D2036C2F802F0E948407082F9A
:101FB000912F9F79F501C081C07EC92B74C08830F4
:101FC000910521F0099709F4C2C068C1C860D09397
:101FD00064026C2F8CE492E00E94D2036F2D8C2F50
:101FE0000E948407C82F000F111FF801EF52FD4F08
:101FF0000190F081E02D80819181A281B3816C01FB
:102000007D01FFE9FF22D09364026C2D8CE492E005
:102010000E94D2036C2F8C2D0E948407C82F2D2C78
:102020003E2C4F2C552447FC5A94D0936402622DC9
:102030008CE492E00E94D2036C2F822D0E948407D0
:10204000C82F1701552437FC5094452CD0936402B7
:10205000622D8CE492E00E94D2036C2F822D0E94AC
:102060008407182F9F2D9F79F501C081C07EC92B51
:1020700062C0000F111FF801EF52FD4F0190F08177
:10208000E02D1081D09364026C2F8CE492E00E94CA
:10209000D2036F2D8C2F0E948407082F1F79F50122
:1020A000C081C07EC12BD09364026C2F8CE492E07F
:1020B0000E94D20310926402602F47C0C560D09383
:1020C00064026C2F8CE492E00E94D20310926402AE
:1020D0006F2D8C2F0E948407F82E000F111FF8011E
:1020E000EF52FD4F0190F081E02D1181028190812E
:1020F000F5012081229526952770213011F0C0E04E
:1021000001C0C0E4C92BD0936402602F8CE492E03C
:102110000E94D2036F2D802F0E948407082FD09336
:102120006402612F8CE492E00E94D203602F812F21
:102130000E948407182FD09364026C2F8CE492E0E5
:102140000E94D20310926402612F8C2FA4C0C96038
:10215000D09364026C2F8CE492E00E94D2036F2D26
:102160008C2F0E948407C82F000F111FF801EF5217
:10217000FD4F0190F081E02D80809180A280B3809E
:1021800020E030E0A901C501B4010E9444321816D4
:102190001CF4C501B40103C0C501B40190580E94EC
:1021A0000F318B0180E090E00E9444319B01AC0133
:1021B000C501B4010E9424302AE939E949E15FE30D
:1021C0000E94493220E030E543EC57E40E94493256
:1021D0001B012C0120E030E0A9010E9444321816B6
:1021E0001CF4C201B10103C0C201B10190580E94A8
:1021F0000F31562EF72E812F8170F601EE0FFF1F43
:10220000E159FD4F9081929596959770913011F01C
:1022100090E001C090E2192F182B20E030E0A901D6
:10222000C501B4010E949130881F8827881F8295BC
:10223000880F880F807C182BD0936402652D8CE466
:1022400092E00E94D2036C2F852D0E948407C82F34
:10225000D09364026F2D8CE492E00E94D2036C2F25
:102260008F2D0E948407C82FD0936402602F8CE4C6
:1022700092E00E94D2036C2F802F0E948407C82F07
:10228000D0936402612F8CE492E00E94D2031092FA
:1022900064026C2F812F0E948407F82EC72D1ACE5E
:1022A000C091A403D09364026C2F8CE492E00E944E
:1022B000D2036F2D8C2F0E948407B82E0C2F10E0B4
:1022C0006801CC0CDD1C96012E543D4F4901F901EB
:1022D0002081922F9F71F8E09F9F70011124229519
:1022E00026952770E22AD09364026E2D8CE492E04A
:1022F0000E94D203109264026B2D8E2D0E948407DF
:10230000F82EF601EF58FD4FD081AD2EB180772425
:1023100073942A2D2D1B30E0F40180818F7190E0A1
:1023200028173907A4F4F501E490709264026E2D29
:102330008CE492E00E94D203109264026F2D8E2DE5
:102340000E948407F82EFFEFAF1ABF0AE2CF000FFA
:10235000111FD801AF56BD4FDC910D2F11961C9166
:1023600096012E543D4F6901BB24B394202F2D1BA1
:1023700030E0F601808182958695877090E028177D
:1023800039079CF4F801E490B09264026E2D8CE45D
:1023900092E00E94D203109264026F2D8E2D0E9453
:1023A0008407F82E0F5F1F4FE1CFCF5FC093A403C8
:1023B0008C2F90E020916F0230917002821793076A
:1023C00014F01092A4030E942D05609319037093DA
:1023D0001A0380931B0390931C0361E08F2D0E94CE
:1023E000B10CE0911D03F0911E03099560E08EEFA2
:1023F0000E94B10CC7EFD2E01C2F105E61E0899102
:102400000E94B10C1C13FACF60E08FEF0E94B10C58
:1024100081E0DF91CF911F910F91FF90EF90DF90BE
:10242000CF90BF90AF909F908F907F906F905F9074
:102430004F903F902F900895CF92DF92FF920F938D
:102440001F93CF93DF9320916F0230917002203160
:102450003105CCF56B0189010F5F1F4FF801EE0FBD
:10246000FF1FE159FD4F91838083F901EE0FFF1F9C
:10247000EF56FD4F71836083F901EE0FFF1FEF529E
:10248000FD4F11821082220F331FE901CF54DD4F1F
:1024900018820E94D02F982F9F718981807EF82EFC
:1024A000F92AC6010E94D02F8295880F807E9F2D29
:1024B0009F71F92EF82AF9821093700200936F022F
:1024C0008FEF800F01C08FEFDF91CF911F910F91A0
:1024D000FF90DF90CF90089590913F029111FCCF33
:1024E00091E090933F0290933E022FEF20933D02A4
:1024F00010923C02260F20933B0290933A02909157
:102500003A02880F892B80933A02809139028130F8
:1025100061F41092390280913A028093BB0080915D
:10252000BC0083FDF8CF85EC01C085EE8093BC0034
:1025300080913F028130E1F380913C02861710F4D4
:1025400060913C02A9E1B2E029EF31E0F9018E2F60
:10255000821B861718F48D918193F9CF862F0895E9
:10256000813208F080E2682F87E70E946C12109297
:10257000F8018093F7010895682F80E492E00C94AD
:102580003F03CF92DF92EF92FF92CF93C82F8091BB
:102590004E038F3F09F061C0609145038091430372
:1025A000909144030E944807809143039091440313
:1025B000DC01ED91FC910190F081E02D6C2F0995EB
:1025C00080914303909144030E94EB0643E06091A5
:1025D000450380914303909144030E9452078091E8
:1025E000430390914403DC01ED91FC910284F38557
:1025F000E02D09956C01990FEE08FF08FE2CED2CDB
:10260000DC2CCC248091430390914403DC01ED91B8
:10261000FC910284F385E02D0995AC01990F660BBE
:10262000770BC42AD52AE62AF72AFE2CED2CDC2CBF
:10263000CC248091430390914403DC01ED91FC9103
:102640000284F385E02D0995AC01990F660B770B99
:10265000C42AD52AE62AF72A33C0809151038F3F36
:1026600021F481E590E00E94BA0560E080914E037C
:102670000E9487048C2F80680E94620880E00E947C
:102680006208C82ED12CE12CF12CFE2CED2CDC2C78
:10269000CC2480E00E946208C82AFE2CED2CDC2CA1
:1026A000CC2480E00E946208C82A61E080914E0339
:1026B0000E948704809151038F3F11F40E94B90555
:1026C000C701B601CF91FF90EF90DF90CF900895B2
:1026D000CF92DF92EF92FF92CF93C82F80917F032A
:1026E0008F3F09F03FC06091760380E492E00E9442
:1026F00048076C2F80E492E00E943F0380E492E060
:102700000E94EB0643E06091760380E492E00E9431
:10271000520780E492E00E94F3026C01990FEE08E8
:10272000FF08FE2CED2CDC2CCC2480E492E00E94EF
:10273000F302AC01990F660B770BC42AD52AE62A5F
:10274000F72AFE2CED2CDC2CCC2480E492E00E94B5
:10275000F302AC01990F660B770BC42AD52AE62A3F
:10276000F72A33C0809182038F3F21F481E590E006
:102770000E94BA0560E080917F030E9487048C2F3D
:1027800080680E94EC0A80E00E94EC0AC82ED12CDE
:10279000E12CF12CFE2CED2CDC2CCC2480E00E94D2
:1027A000EC0AC82AFE2CED2CDC2CCC2480E00E9404
:1027B000EC0AC82A61E080917F030E94870480911F
:1027C00082038F3F11F40E94B905C701B601CF9172
:1027D000FF90EF90DF90CF900895CF93C82F67E7D9
:1027E00080E492E00E9448076C2F80E492E00E940F
:1027F0003F0380E492E00E94EB0667E780E492E00A
:102800000E94480781E090E00E94B01280E492E0CC
:102810000E94F302C82F80E492E00E94EB068C2F06
:10282000CF910895CF93DF938CE492E00E94240827
:10283000CCE4D2E061E08C850E94B70461E08C8535
:10284000DF91CF910C9487048091690290916A0284
:10285000892B31F18091C9039091CA0322E08C3415
:102860009207F1F0009711F00E9424088091630212
:102870008E7F809363021092C8031092C7038CE48A
:1028800092E09093CA038093C903E0915F02F091B4
:102890006002908180916102892B808381E008959C
:1028A00080E008950F931F93CF93DF938C01EB018A
:1028B0000E94D02FA7EFB2E090E020E2981740F4FA
:1028C000A8014F5F5F4FF80104910C938A0101C08A
:1028D0002C939F5F1196903189F7CE010E94D02FE3
:1028E000A7E0B3E090E020E2981740F4AE014F5F1C
:1028F0005F4FFE01C491CC93EA0101C02C939F5F0E
:102900001196903189F7DF91CF911F910F91089522
:10291000CF93DF93FC0101900020E9F73197E81B8A
:1029200020E030E0F0E2A90148575F4F2E1748F44D
:10293000EA01C159DD4FDC01A20FB31FAC91A8839E
:1029400004C0DA01A159BD4FFC932F5F3F4F2031E6
:10295000310549F7FB0101900020E9F73197E61BAB
:1029600080E090E040E29C0128563F4F8E1748F4EB
:10297000E901C159DD4FDB01A80FB91F5C915883F4
:1029800004C0D901A159BD4F4C93019680319105E6
:1029900051F7DF91CF9108951F93CF93DF9367E7AE
:1029A00080E492E00E94480760E080E492E00E94A8
:1029B0003F0380E492E00E94EB0667E780E492E048
:1029C0000E94480783E090E00E94B0129091F701C6
:1029D0008091F8019817F1F380E492E00E94F302ED
:1029E000D82F80E492E00E94F302182F80E492E056
:1029F0000E94F302C82F80E492E00E94EB06812F30
:102A000090E0A0E0B0E0BA2FA92F982F8827AD2B37
:102A1000BC01CD016C2BDF91CF911F910895CF9315
:102A2000DF9367E780E492E00E944807C5EAD3E0BD
:102A30008D8590E0805B9F4F0E94BC1280E492E005
:102A40000E94EB066C8570E080E090E00E94F30449
:102A5000DF91CF910C94CC148F929F92AF92BF9242
:102A6000CF92DF92EF92FF928AEF0E94C11261151E
:102A7000710520E88207910509F47CC0409152035A
:102A8000509153034A01A12CB12CC72ED82EE92E08
:102A9000FF24E7FCFA94C818D908EA08FB08DC010F
:102AA000CB0137E0B595A795979587953A95D1F7DE
:102AB000B501A401440F551F661F771F4C015D012E
:102AC000841A950AA60AB70AA5019401A091540395
:102AD000B09155030E94B1344B015C01FBE0B59409
:102AE000A79497948794FA95D1F7A7019601C70107
:102AF000B6010E943B349B01AC01ACE05595479573
:102B000037952795AA95D1F7A0915603B091570311
:102B10000E94B134DC01CB012EE0B595A7959795C5
:102B200087952A95D1F7A5019401280F391F4A1FCF
:102B30005B1F20934A0330934B0340934C03509305
:102B40004D03A5E0B0E00E94A634DC01CB01805823
:102B50009F4FAF4FBF4F692F7A2F8B2F992787FD3C
:102B60009A950E94463120E030E048EC52E40E9401
:102B7000963004C060E070E080EC9FE7FF90EF903B
:102B8000DF90CF90BF90AF909F908F9008952F923D
:102B90003F924F925F926F927F928F929F92AF92ED
:102BA000BF92CF92DF92EF92FF920F931F93CF933A
:102BB000DF93CDB7DEB7A2970FB6F894DEBF0FBE96
:102BC000CDBF0E942C1587EF0E94C1126F837887BA
:102BD00089879A87611571058048910509F4FDC1BF
:102BE00080914A0390914B03A0914C03B0914D0307
:102BF0006C017D01FF0CCC08DC2C76019C01AD0141
:102C00006C2D7C2D8C2D9C2D345F41405109610928
:102C10007109810991092AA339A349835A836B83D6
:102C20007C838D839E8359016A017B018C010E9404
:102C3000B9342E8B3F8B488F598F6A8F7B8F8C8F47
:102C40009D8F809162038E8F909163039B87A091EB
:102C50006003AF8FB0916103BC87E0915E03E8A38E
:102C6000F0915F03FD87B0905B03A0905A031B2D8A
:102C7000110F110BC12ED12EE12EF12E012F2AA101
:102C800039A149815A816B817C818D819E810E940D
:102C9000B9340CE00E94233619012A013B014C0192
:102CA000B0905D03A0905C031B2D110F110BC12E82
:102CB000D12EE12EF12E012F2E893F89488D598D7D
:102CC0006A8D7B8D8C8D9D8D0E94B93408E00E94A9
:102CD0003C3651016201730184010E945A367058DA
:102CE0008F4F9F4F20905803309059035101C12CB2
:102CF000D12CE12CF12C00E010E00E94B93401E26B
:102D00000E943C362E873F87488B598B6A8B7B8B82
:102D10008C8B9D8BA0E00E94783609F463C1AE8C49
:102D20001B85110F110BBB84C12ED12EE12EF12E6C
:102D3000012F2E893F89488D598D6A8D7B8D8C8D11
:102D40009D8D0E94B93419012A013B014C01AF8CC1
:102D50001C85110F110BBC84C12ED12EE12EF12E3A
:102D6000012F2AA139A149815A816B817C818D81F2
:102D70009E810E94B93401E10E94233659016A0103
:102D80007B018C019101A201B301C4010E945A365A
:102D900019012A013B014C014F81588569857A85CB
:102DA00084E075956795579547958A95D1F780E0AA
:102DB00090E0A0E1B0E0841B950BA60BB70B6C0173
:102DC0007D01FF0CCC08DC2C76019C01AD016C2D43
:102DD0007C2D8C2D9C2D0FE10E942336F901B42F00
:102DE000A52F6C837D8389839A8328A19D85990F64
:102DF000990B3D85492F592F692F792F892F03E290
:102E00000E94233659016A017B018C019101A201C4
:102E1000B301C4010E945A3659016A017B018C0139
:102E20009F014B2F5A2F6C817D8189819A810E944D
:102E30006F364901542E652EB62FA72FF82FE92F94
:102E400003E00E9423365401C52CD62CEB2EFA2E1B
:102E50000F2F1E2F0E946F3659016A017B01782EB9
:102E6000192F03E00E942336072D0E946F3603E0DE
:102E70000E9423365401C52CD62CEB2EFA2E0F2F90
:102E80001E2F0E946F3602E00E9423360F2F0E94F1
:102E90006F3601E00E9423360F2F0E946F36AE84FA
:102EA000BF84C888D988EA88FB880C891D890E945C
:102EB0004E352B873F8349835A836B837C838D8375
:102EC0009E830DE00E943C36922E832E742E652E3A
:102ED000562E472E382E292E3091690320916803F3
:102EE000932F990F990BA92CB82CC72CD62CE52C15
:102EF000F42C032D122D492F592F692F792F892F4B
:102F00000E94B9340E94B93409E10E943C3659014B
:102F10006A017B018C012B853F8149815A816B813C
:102F20007C818D819E810E945A3619012A013B01C4
:102F30004C013091670320916603932F990F990BF1
:102F4000AB84BF80C980DA80EB80FC800D811E815C
:102F5000492F592F692F792F892F0E94B93403E106
:102F60000E943C3659016A017B018C019101A2014A
:102F7000B301C4010E945A3608E00E943C36522E2A
:102F8000632E742E852E962EF72FE82FB92F3091B1
:102F9000650320916403932F990F990B492F592FA3
:102FA000692F792F892F04E00E94233659016A0185
:102FB0007B018C01252D362D472D582D692D7F2F16
:102FC0008E2F9B2F0E945A360E943E3120E030E027
:102FD00040E85BE30E94493208C060E070E080ECAA
:102FE0009FE703C060E070E0CB01A2960FB6F894B3
:102FF000DEBF0FBECDBFDF91CF911F910F91FF902C
:10300000EF90DF90CF90BF90AF909F908F907F9088
:103010006F905F904F903F902F9008958F929F9266
:10302000AF92BF92CF92DF92EF92FF928AEF0E940F
:103030006813E6E7F3E0458556854A01A12CB12CDB
:10304000C72ED82EE92EFF24E7FCFA94C818D90819
:10305000EA08FB08DC01CB0137E0B595A795979509
:1030600087953A95D1F7B501A401440F551F661F06
:10307000771F4C015D01841A950AA60AB70AA501BB
:103080009401A785B0890E94B1344B015C013BE0FB
:10309000B594A794979487943A95D1F7A701960190
:1030A000C701B6010E943B349B01AC016CE0559511
:1030B0004795379527956A95D1F7A189B2890E94DE
:1030C000B134DC01CB017EE0B595A7959795879546
:1030D0007A95D1F7A5019401280F391F4A1F5B1F6C
:1030E0002583368347835087A5E0B0E00E94A6344D
:1030F000DC01CB0180589F4FAF4FBF4F692F7A2F14
:103100008B2F992787FD9A950E94463120E030E069
:1031100048EC52E40E949630FF90EF90DF90CF9001
:10312000BF90AF909F908F9008952F923F924F92B3
:103130005F926F927F928F929F92AF92BF92CF9247
:10314000DF92EF92FF920F931F93CF93DF93CDB750
:10315000DEB7A2970FB6F894DEBF0FBECDBF0E94B8
:103160000E1887EF0E9468136A8F7B8F8C8F9D8F5C
:1031700080917B0390917C03A0917D03B0917E03AD
:103180006C017D01FF0CCC08DC2C76019C01AD01AB
:103190006C2D7C2D8C2D9C2D345F41405109610993
:1031A0007109810991092AA339A349835A836B8341
:1031B0007C838D839E8359016A017B018C010E946F
:1031C000B9342A8B3B8B4C8B5D8B6E8B7F8B888FBE
:1031D000998F809193038E8FE0919403EF83F09108
:1031E0009103FF8F809192038887E0918F03E8A37A
:1031F000F0919003F987B0908C03A0908B031B2D66
:10320000110F110BC12ED12EE12EF12E012F2AA16B
:1032100039A149815A816B817C818D819E810E9477
:10322000B9340CE00E94233619012A013B014C01FC
:10323000B0908E03A0908D031B2D110F110BC12E8A
:10324000D12EE12EF12E012F2A893B894C895D89EF
:103250006E897F89888D998D0E94B93408E00E941B
:103260003C3651016201730184010E945A36705844
:103270008F4F9F4F2090890330908A035101C12CBA
:10328000D12CE12CF12C00E010E00E94B93401E2D5
:103290000E943C362A873B874C875D876E877F87F5
:1032A000888B998BA0E00E94783609F45EC1AE8CC1
:1032B0001F81110F110BBF80C12ED12EE12EF12ED7
:1032C000012F2A893B894C895D896E897F89888D88
:1032D000998D0E94B93419012A013B014C01AF8C30
:1032E0001885110F110BB884C12ED12EE12EF12EAD
:1032F000012F2AA139A149815A816B817C818D815D
:103300009E810E94B93401E10E94233659016A016D
:103310007B018C019101A201B301C4010E945A36C4
:1033200019012A013B014C014A8D5B8D6C8D7D8D0D
:1033300084E075956795579547958A95D1F780E014
:1033400090E0A0E1B0E0841B950BA60BB70B6C01DD
:103350007D01FF0CCC08DC2C76019C01AD016C2DAD
:103360007C2D8C2D9C2D0FE10E942336F901B42F6A
:10337000A52F6C837D8389839A8328A19985990FD2
:10338000990B3985492F592F692F792F892F03E2FE
:103390000E94233659016A017B018C019101A2012F
:1033A000B301C4010E945A3659016A017B018C01A4
:1033B0009F014B2F5A2F6C817D8189819A810E94B8
:1033C0006F364901542E652EB62FA72FF82FE92FFF
:1033D00003E00E9423365401C52CD62CEB2EFA2E86
:1033E0000F2F1E2F0E946F3659016A017B01782E24
:1033F000192F03E00E942336072D0E946F3603E049
:103400000E9423365401C52CD62CEB2EFA2E0F2FFA
:103410001E2F0E946F3602E00E9423360F2F0E945B
:103420006F3601E00E9423360F2F0E946F36AA8468
:10343000BB84CC84DD84EE84FF84088919890E94D2
:103440004E3528873F8349835A836B837C838D83E2
:103450009E830DE00E943C36922E832E742E652EA4
:10346000562E472E382E292E30919A0320919903FB
:10347000932F990F990BA92CB82CC72CD62CE52C7F
:10348000F42C032D122D492F592F692F792F892FB5
:103490000E94B9340E94B93409E10E943C365901B6
:1034A0006A017B018C0128853F8149815A816B81AA
:1034B0007C818D819E810E945A3619012A013B012F
:1034C0004C013091980320919703932F990F990BFA
:1034D000A884BF80C980DA80EB80FC800D811E81CA
:1034E000492F592F692F792F892F0E94B93403E171
:1034F0000E943C3659016A017B018C019101A201B5
:10350000B301C4010E945A3608E00E943C36522E94
:10351000632E742E852E962EF72FE82FB92F30911B
:10352000960320919503932F990F990B492F592FAB
:10353000692F792F892F04E00E94233659016A01EF
:103540007B018C01252D362D472D582D692D7F2F80
:103550008E2F9B2F0E945A360E943E3120E030E091
:1035600040E85BE30E94493203C060E070E0CB01B9
:10357000A2960FB6F894DEBF0FBECDBFDF91CF91FC
:103580001F910F91FF90EF90DF90CF90BF90AF9081
:103590009F908F907F906F905F904F903F902F9073
:1035A000089567E780E492E00E94480764EF80E4B2
:1035B00092E00E943F036EE280E492E00E943F03AB
:1035C00080E492E00E94EB0665E070E080E090E02D
:1035D0000E94F30486EF0C94820C3F924F925F920C
:1035E0006F927F928F929F92AF92BF92CF92DF9213
:1035F000EF92FF920F931F93CF93DF93CDB7DEB778
:1036000028970FB6F894DEBF0FBECDBF0E94D11A27
:103610006C01E12CF12C10912C031295110F110F5C
:10362000107C1C5C67E780E492E00E94480764EF2E
:1036300080E492E00E943F03612F80E492E00E94C8
:103640003F0380E492E00E94EB0680912C038111FD
:1036500005C065E070E080E090E012C0813029F4A0
:1036600068E070E080E090E00BC0823029F46EE00A
:1036700070E080E090E004C06AE170E080E090E0FB
:103680000E94F30486EF0E94820C4C01A12CB12C05
:10369000BA2CA92C982C882488EF0E94ED13882A34
:1036A00030902C038091410390914203A701960131
:1036B000281B390B41095109A0913F03B0914003E8
:1036C0000E94A6346B017C01AFE0F594E794D79497
:1036D000C794AA95D1F76091390370913A03CB0151
:1036E000770FAA0BBB0BBC01CD01BBE0660F771FA8
:1036F000881F991FBA95D1F720913B0330913C0365
:103700008901330F220B330BA90198012C0D3D1DAC
:103710004E1D5F1D0E948134C20ED31EE41EF51E95
:1037200020EAC21A2FE0D20AE108F108A7019601A7
:10373000C701B6010E943B349B01AC011CE05595CA
:103740004795379527951A95D1F729833A834B8367
:103750005C8300912D0310912E03A0913103B09151
:103760003203A70196010E94B1342B013C018DE088
:1037700075946794579447948A95D1F7A091330331
:10378000B091340329813A814B815C810E94B1342C
:10379000BB2797FDB095AB2F840D951DA61DB71DBA
:1037A0000296A11DB11D32E0B595A7959795879515
:1037B0003A95D1F79C01AD0130584F4F5F4FA09122
:1037C0003D03B0913E030E94A6342B013C014FE023
:1037D00076946794579447944A95D1F788E090E09F
:1037E00083199109A501940104C056954795379511
:1037F00027958A95D2F72D833E834F8358874801BA
:10380000110FAA08BB0852E0880C991CAA1CBB1C0B
:103810005A95D1F7A0913503B091360329813A81A9
:103820004B815C810E94B1349B01AC016BE05595EA
:103830004795379527956A95D1F729833A834B8326
:103840005C83A0912F03B0913003A70196010E94E1
:10385000B134DC01CB017BE0B595A79597958795B1
:103860007A95D1F729813A814B815C81820F931F30
:10387000A41FB51F880D991DAA1DBB1D032C04C0D4
:10388000880F991FAA1FBB1F0A94D2F7BC01CD0154
:103890006E5F7F4F8F4F9F4F24E030E040E050E05D
:1038A0000E9481348D819E81AF81B885821B930BEC
:1038B000A40BB50B9C01AD0180E593ECA0E0B0E05A
:1038C000BC01CD0104C096958795779567953A948C
:1038D000D2F70E943B3497FD0BC0660F771F881FFD
:1038E000991FA30192010E945F3469017A010AC005
:1038F000A30192010E945F3469017A01CC0CDD1CA6
:10390000EE1CFF1C9927F7FC9A958F2D7E2D6D2DAF
:103910009B01AC010E943B349B01AC01AEEDBBE0CE
:103920000E94A6344C01BB2497FCB094AB2CA3E4BA
:10393000B3EEA70196010E94B434BB2797FDB09562
:10394000AB2F880D991DAA1DBB1D8153914FAF4F01
:10395000BF4F44E0B595A795979587954A95D1F7C0
:10396000BC01CD016C0D7D1D8E1D9F1D28960FB6CF
:10397000F894DEBF0FBECDBFDF91CF911F910F91A5
:10398000FF90EF90DF90CF90BF90AF909F908F907F
:103990007F906F905F904F903F900895CF93DF930B
:1039A000CDB7DEB7C855D1090FB6F894DEBF0FBE4C
:1039B000CDBF789484B5826084BD84B5816084BDB8
:1039C00085B5826085BD85B5816085BD80916E00BD
:1039D000816080936E0010928100809181008260EE
:1039E000809381008091810081608093810080912B
:1039F00080008160809380008091B100846080931A
:103A0000B1008091B00081608093B00080917A0015
:103A1000846080937A0080917A00826080937A003B
:103A200080917A008E7F80937A0080917A008068FE
:103A300080937A001092C10061E08DE00E94B7048B
:103A400061E08DE00E94870461E083E00E94B7049A
:103A500060E083E00E94870480913A0190913B01ED
:103A6000909301018093000162EF71E082E092E0A7
:103A70000E94521488EE91E090937202809371023A
:103A800010929202109291021092D2021092D102E0
:103A90001092B10289E08093B202CC24C394D12C5D
:103AA000D0927002C0926F0261E083E00E948704AE
:103AB00061E083E00E94B7045DE2A52E51E0B52EDF
:103AC000F501849180935C0209E111E0F801849191
:103AD00090E0880F991F845F9E4FFC0125913491DF
:103AE00030935E0220935D0260E083E00E94B704A1
:103AF00061E083E00E94870473E0972E9092580261
:103B0000F501A490A0925902F8010491E02FF0E091
:103B1000EE0FFF1FEE5FFE4F8591949190935B0235
:103B200080935A0281E08093620287EC90E0909348
:103B30006E0280936D0222E530E03093660220939E
:103B4000650225EC30E030936802209367024FE174
:103B500052E050936A024093690230936C022093C2
:103B60006B02209168002460209368002DE630E00D
:103B70003093600220935F0228E020936102019756
:103B8000F1F70E9424140E94121490922C0380E4F6
:103B900092E00E945E0780ED0E94ED13853509F0EA
:103BA00052C08AEA0E94820C90932E0380932D03C8
:103BB0008CEA0E94820C9093300380932F038EEA4C
:103BC0000E94820C909332038093310380EB0E9419
:103BD000820C90933E0380933D0382EB0E94820C03
:103BE0009093400380933F0384EB0E94820C909358
:103BF00042038093410386EB0E94820C909334032E
:103C00008093330388EB0E94820C90933603809359
:103C100035038AEB0E94820C90933803809337031C
:103C20008CEB0E94820C90933A03809339038EEBC5
:103C30000E94820C90933C0380933B03D09203013B
:103C4000C092020112C087E70E94870B811107C052
:103C500086E70E94870B882311F40C94402E82E0A3
:103C600090E090930301809302018AE090E00E942B
:103C70003C08813009F059C080E090E00E943C0887
:103C8000E82EF12CF0923D01E0923C0181E090E0C1
:103C90000E943C0811E0811101C010E01093360130
:103CA0001093370182E090E00E943C0890E0A0E091
:103CB000B0E080930C0190930D01A0930E01B0939E
:103CC0000F0183E090E00E943C08682F70E080E0E4
:103CD00090E00E94443120E030E048EC52E40E9441
:103CE00096306093040170930501809306019093D0
:103CF000070184E090E00E943C08682F70E080E0BB
:103D000090E00E94443120E030E048EC52E40E9410
:103D10009630609308017093090180930A01909393
:103D20000B01EF2809F4ADC031C1809102019091DF
:103D300003018330910569F034F48130910571F10C
:103D4000029739F047C08430910541F1059731F170
:103D500041C08EEA97E4A1E6BFE38093040190930B
:103D60000501A0930601B09307018AE999E9A9E149
:103D7000BEE38093080190930901A0930A01B093D8
:103D80000B0183E090E0A0E0B0E080930C01909301
:103D90000D01A0930E01B0930F011CC080E090E0D4
:103DA000A0E0BFE38093040190930501A093060176
:103DB000B09307018093080190930901A0930A0131
:103DC000B0930B0110920C0110920D0110920E0194
:103DD00010920F0160E080E090E00E943A0860E0FD
:103DE00081E090E00E943A0860910C0182E090E04E
:103DF0000E943A0820E030E048EC52E4609104016F
:103E00007091050180910601909107010E9449324D
:103E10000E94083183E090E00E943A0820E030E000
:103E200048EC52E4609108017091090180910A0107
:103E300090910B010E9449320E94083184E090E089
:103E40000E943A0861E08AE090E00E943A0805E0AA
:103E500010E061E08DE00E94870464E670E080E09D
:103E600090E00E94F30460E08DE00E94870464E625
:103E700070E080E090E00E94F3040150110949F7DE
:103E8000FBCE6BED71E08DED91E00E941C12803154
:103E900088F490E0FC01EE0FFF1FEF52FD4F22E48B
:103EA00031E031832083880F991FFC01EF54FD4FCF
:103EB00088E2808360ED71E082ED91E00E941C1247
:103EC000803188F490E0FC01EE0FFF1FEF52FD4FB0
:103ED0002EE331E031832083880F991FFC01EF54DA
:103EE000FD4F88E0808366EC71E08AEC91E00E94EF
:103EF0001C12803188F490E0FC01EE0FFF1FEF529E
:103F0000FD4F2AE431E031832083880F991FFC01A3
:103F1000EF54FD4F88E4808369EB71E08DEB91E015
:103F20000E941C12803188F490E0FC01EE0FFF1F0C
:103F3000EF52FD4F2CE631E031832083880F991F2B
:103F4000FC01EF54FD4F88E480836AEA71E08DEA5A
:103F500091E00E941C12803188F490E0FC01EE0F89
:103F6000FF1FEF52FD4F24E631E031832083880F9D
:103F7000991FFC01EF54FD4F88E28083112309F45F
:103F80009DC06CE971E080EA91E083C06EE871E069
:103F900081E991E00E941C12803188F490E0FC01DC
:103FA000EE0FFF1FEF52FD4F22E431E031832083FB
:103FB000880F991FFC01EF54FD4F88E2808362E86F
:103FC00071E085E891E00E941C12803188F490E055
:103FD000FC01EE0FFF1FEF52FD4F2EE331E0318366
:103FE0002083880F991FFC01EF54FD4F88E08083E8
:103FF00067E771E08CE791E00E941C12803188F441
:1040000090E0FC01EE0FFF1FEF52FD4F2AE431E07C
:1040100031832083880F991FFC01EF54FD4F88E402
:10402000808369E671E08EE691E00E941C12803187
:1040300088F490E0FC01EE0FFF1FEF52FD4F2CE6DD
:1040400031E031832083880F991FFC01EF54FD4F2D
:1040500088E480836AE571E08DE591E00E941C129E
:10406000803188F490E0FC01EE0FFF1FEF52FD4F0E
:1040700024E631E031832083880F991FFC01EF543F
:10408000FD4F88E280831123C9F06BE471E080E585
:1040900091E00E941C12803188F490E0FC01EE0F48
:1040A000FF1FEF52FD4F26E431E031832083880F5C
:1040B000991FFC01EF54FD4F88E480838091020139
:1040C000909103010397C9F46EE371E082E491E0FB
:1040D0000E941C12803188F490E0FC01EE0FFF1F5B
:1040E000EF52FD4F20E631E031832083880F991F86
:1040F000FC01EF54FD4F88E280830E94440E60E093
:104100008DE00E9487041E01B3E22B0E311C8091CA
:104110000201909103018330910509F4FEC00CF077
:1041200048C08130910509F468C0029709F0CDC6F6
:104130000E9495180E94083160936C0170936D0184
:1041400080936E0190936F010E94951820E030E0FB
:1041500048EC52E40E94963020E030E54DE754E40C
:104160000E94963021E03EED42E45EE30E94B632CA
:104170009B01AC0160E070E080E89FE30E94243086
:1041800020E03AE24DE257E40E94493220E030E07C
:1041900048EC52E40E9449320E9408316093680161
:1041A0007093690180936A0190936B010E940E18CD
:1041B0007CC68430910509F4FCC1059709F085C6D9
:1041C0006091210380E492E00E94480788EA90E031
:1041D0000E94BC1280E492E00E94EB0643E06091F2
:1041E000210380E492E00E9452078091F70190E061
:1041F0002091F801821B9109ADC50E94ED1A6093D0
:104200006C0170936D0180936E0190936F010E9419
:10421000ED1A0E94463120E836EE45EC57E40E9444
:10422000963021E03EED42E45EE30E94B6329B010F
:10423000AC0160E070E080E89FE30E94243020E061
:104240003AE24DE257E40E94493220E030E048EC87
:1042500052E40E9449320E940831609368017093D1
:10426000690180936A0190936B010E94D11AAC019D
:1042700060E070E080914103909142039A01AB01AC
:10428000281B390B41095109A0913F03B09140030C
:104290000E94A6346B017C01EFE0F594E794D7947B
:1042A000C794EA95D1F76091390370913A03CB0135
:1042B000770FAA0BBB0BBC01CD01FBE0660F771F8C
:1042C000881F991FFA95D1F720913B0330913C0349
:1042D0008901330F220B330BA90198012C0D3D1DD1
:1042E0004E1D5F1D0E948134D701C601820F931FAE
:1042F000A41FB51F0896A11DB11DBC01CD01A4E0EE
:104300009595879577956795AA95D1F70E9446313F
:1043100020E030E040E251E41AC50E94C7150E9437
:10432000083160936C0170936D0180936E019093DE
:104330006F010E94C71520E030E048EC52E40E9473
:10434000963020E030E54DE754E40E94963021E0BD
:104350003EED42E45EE30E94B6329B01AC0160E0B8
:1043600070E080E89FE30E94243020E03AE24DE2D2
:1043700057E40E94493220E030E048EC52E40E94C9
:1043800049320E94083160936801709369018093FB
:104390006A0190936B010E942C1520E030E040E20E
:1043A00051E40E9449320E94083160936401709385
:1043B000650180936601909367010E942C158DEF33
:1043C0000E944F09A0E0B0E08115E0E89E07A1053A
:1043D000B10509F4D9C080904A0390904B03A09096
:1043E0004C03B0904D03FCE29F1AF1E0AF0AB10814
:1043F0006EE0880F991FAA1FBB1F6A95D1F74091E5
:104400006E0350916F03052E000C660B770BE4E1F1
:10441000440F551F661F771FEA95D1F76C017D0188
:10442000C41AD50AE60AF70AA0917003B091710385
:10443000A50194010E94B134C61AD70AE80AF90A04
:1044400000E4D00EE11CF11CFFE0F594E794D79452
:10445000C794FA95D1F7A09172030A2E000CBB0BFA
:104460000E94B1342B013C01AAE0759467945794E3
:104470004794AA95D1F7A0916D03B0E00E94A634AD
:10448000DC01CB011BE0B595A795979587951A950B
:10449000D1F7BC01CD0170588F4F9F4FA3019201FE
:1044A0000E943B34DC01CB010AE0B595A7959795B6
:1044B00087950A95D1F79C01AD01405E5F4FA091B1
:1044C0006B03B0916C030E94B134DC01CB01905EB0
:1044D000AF4FBF4FBC01CD012EE0959587957795E5
:1044E00067952A95D1F7A70196010E943B346B018D
:1044F0007C013FE095958795779567953A95D1F73B
:104500009B01AC010E943B349B01AC0167E05595D7
:104510004795379527956A95D1F7A0916A03B0E042
:104520000E94A634DC01CB0174E0B595A795979560
:1045300087957A95D1F7A7019601281B390B4A0B6D
:104540005B0BDA01C90157FF03C080E090E0DC019A
:1045500081309105A10539E1B30724F080E090E0B6
:10456000A0E0B9E1BC01CD015CE095958795779518
:1045700067955A95D1F70E94463120E030E040E837
:104580005AE30E94493204C060E070E080EC9FE78B
:1045900020E030E040E251E40E9449320E940831BC
:1045A0006093600170936101809362019093630155
:1045B0008CC467E780E492E00E9448078091B203D0
:1045C00090E0805C9F4F0E94BC1280E492E00E94C9
:1045D000EB066091B10370E080E090E00E94F3048C
:1045E0000E94CC1429966CAF7DAF8EAF9FAF2997F8
:1045F0000E940F152091AD033091AE03890120E098
:1046000030E0322F212F102F00272B013C01401AC0
:10461000510A620A730AE091AB03F091AC038090F7
:10462000A7039090A803940140E050E060E070E0A0
:1046300080E090E000E10E942336D22EE32EF42E9B
:104640005BAB6BAF872E982E9FAF9F0140E050E091
:10465000C301B2010E941235C22E032F142FB52FB1
:10466000F62FE72F5C01A0E00E94783654F4AFE704
:104670000E946336C22E032F142FB52FF62FE72F7B
:104680005C012C2D302F412F5B2F6F2F7E2FC5010A
:1046900007E00E943C365901C42EA52FF62FE72FC4
:1046A0008C012D2D3E2D4F2D5BA96BAD782D892DC5
:1046B0009FADDA2EEF2EFE2E0E945A362A962FAF8D
:1046C0002A972B963FAF2B972C964FAF2C972D9672
:1046D0005FAF2D972E966FAF2E972F967FAF2F97A8
:1046E00060968FAF609761969FAF61976091A503C9
:1046F0007091A6030091A9031091AA0380E090E0B5
:1047000020E030E840E050E00E942135B22EE32E58
:10471000F42E5BAB6BAF872E982E9FAF980140E0D5
:1047200050E0C301B2010E941235A22E032F142FB4
:10473000B52FF62FE72F6C01A0E00E9478367CF4AD
:1047400021503F4F4F4F5F4F6F4F7F4F8F4F9F4FC6
:10475000A22E032F142FB52FF62FE72F6C012A2D31
:10476000302F412F5B2F6F2F7E2FC60108E00E9454
:104770003C36A22EA32F6A01F62FE72F8C012B2D9A
:104780003E2D4F2D5BA96BAD782D892D9FADBA2E97
:10479000EF2EFE2E0E945A3662962FAF62976396D6
:1047A0003FAF639764964FAF649765965FAF659729
:1047B00066966FAF669767967FAF679768968FAF7D
:1047C000689769969FAF69972091AF033091B003C6
:1047D00040E050E0C301B2010E941235F22E032FD7
:1047E000142FB52FF62FE72FD82EE92EA0E00E9428
:1047F000783684F42150310940485F4F6F4F7F4F26
:104800008F4F9F4FF22E032F142FB52FF62FE72F28
:10481000D82EE92E2F2D302F412F5B2F6F2F7E2F7B
:104820008D2D9E2D07E10E943C362BAB3CAB4DAB52
:104830005EABCBA8DCA8EDA8FEA840EDC40E47E017
:10484000D41EE11CF11C1092B7031092B803109211
:10485000B9031092BA031092BB031092BC031092DA
:10486000BD031092BE031092BF031092C0031092BA
:10487000C1031092C2031092C3031092C40310929A
:10488000C5031092C60350EDC51657E0D506E104E6
:10489000F1040CF0CCC02BA93CA94DA95EA9CA011A
:1048A000B9010E943B349B01AC01A5E0B0E00E943D
:1048B000A6344B015C01B594A794979487942B017F
:1048C0003C01770C4408542C32018092B70390923B
:1048D000B803A092B903B092BA034092BB034092CE
:1048E000BC034092BD034092BE038B019C0182E059
:1048F00035952795179507958A95D1F70BAF1CAF7E
:104900002DAF3EAF0093BF031093C0032093C103AC
:104910003093C2034092C3034092C4034092C50344
:104920004092C60314E2C1161AEFD1061FEFE1064A
:10493000F1060CF07CC06BA97CA98DA99EA96455D9
:10494000724F8F4F9F4F9B01AC010E943B342396C7
:104950006CAF7DAF8EAF9FAF2397A7E0B0E09B0118
:10496000AC010E94A6347B018C019B01AC01550F68
:10497000220B322FA9012BAB3CAB4DAB5EAB9401AC
:10498000A501642D742D842D942D57016801EBA889
:10499000FE2C0E2D1E2D0E945A362093B703309305
:1049A000B8034093B9035093BA036093BB03709369
:1049B000BC038093BD039093BE03ABE0B0E02396AD
:1049C0002CAD3DAD4EAD5FAD23970E94A6347B016B
:1049D0008C0115950795F794E7949B01AC01550F51
:1049E000220B322FA9012BAB3CAB4DAB5EAB2BADF9
:1049F0003CAD4DAD5EAD642D742D842D942D5701CD
:104A00006801EBA8FE2C0E2D1E2D0E945A36209315
:104A1000BF033093C0034093C1035093C20360931C
:104A2000C3037093C4038093C5039093C603299670
:104A30006CAD7DAD8EAD9FAD2997AB01BC0180E023
:104A400090E0DC014BAB5CAB6DAB7EAB8FAB98AF5A
:104A5000A9AFBAAF62962FAD629763963FAD6397E9
:104A600064964FAD649765965FAD659766966FAD3A
:104A7000669767967FAD679768968FAD68976996DA
:104A80009FAD6997A090BF03B090C003C090C103D1
:104A9000D090C203E090C303F090C4030091C5031B
:104AA0001091C6030E946F3659016A017B018C0187
:104AB0002BA93CA94DA95EA960E070E080E090E0E0
:104AC0000E94B934F22E032F142FB52FF62FE72FA3
:104AD000D82EE92EA0E00E94783684F421503109C6
:104AE000404E5F4F6F4F7F4F8F4F9F4FF22E032FE0
:104AF000142FB52FF62FE72FD82EE92E2F2D302F7C
:104B0000412F5B2F6F2F7E2F8D2D9E2D05E10E9453
:104B10003C3639014A01B62FA72FF82FE92F2A96E4
:104B20002FAD2A972B963FAD2B972C964FAD2C97F8
:104B30002D965FAD2D972E966FAD2E972F967FAD4C
:104B40002F9760968FAD609761969FAD6197A0900B
:104B5000B703B090B803C090B903D090BA03E09007
:104B6000BB03F090BC030091BD031091BE030E94F3
:104B70006F3659016A017B018C019301A4016B2FEF
:104B80007A2F8F2F9E2F0E946F36F22E032F142F15
:104B9000B52FF62FE72FD82EE92EA0E00E94783609
:104BA00084F4215030484F4F5F4F6F4F7F4F8F4FEE
:104BB0009F4FF22E032F142FB52FF62FE72FD82E4D
:104BC000E92E2F2D302F412F5B2F6F2F7E2F8D2D14
:104BD0009E2D0FE00E943C36B901CA0120936C0162
:104BE00070936D0140936E0190936F010E94463166
:104BF00020E836EE45EC57E40E9496302BEA3CED77
:104C000042E45EE30E94B6329B01AC0160E070E0DA
:104C100080E89FE30E94243020E03AE24DE257E42E
:104C20000E94493220E030E048EC52E40E944932D0
:104C30000E940831609368017093690180936A0152
:104C400090936B010E940F152091AD033091AE033C
:104C5000890120E030E0322F212F102F00276B0137
:104C60007C01C01AD10AE20AF30A2091AF03309105
:104C7000B00340E050E0C701B6010E941235B22EE9
:104C8000032F142FB52FF62FE72F982EA92EA0E073
:104C90000E94783684F42150310940485F4F6F4FAD
:104CA0007F4F8F4F9F4FB22E032F142FB52FF62F0C
:104CB000E72F982EA92E2B2D302F412F5B2F6F2FF2
:104CC0007E2F892D9A2D07E10E943C3629013A0159
:104CD00070ED470E77E0571E611C711C80ED481681
:104CE00087E05806610471044CF01092B3031092EF
:104CF000B4031092B5031092B60313C0A701960136
:104D0000C701B6010E943B3420E030E0A9010E94B7
:104D100081342093B3033093B4034093B50350938D
:104D2000B6038091B3039091B403A091B503B09101
:104D3000B60393018201081B190B2A0B3B0BC90117
:104D4000B8010E94463120E030E048EC52E40E9475
:104D50009630ABC083309105ECF380E492E00E9482
:104D6000F302082F80E492E00E94F302182F80E4FF
:104D700092E00E94F302482F880F550B660B770BC9
:104D8000BA0155274427402B25961FAF2597249617
:104D90001FAE249725962EAD3FAD2597C901A0E003
:104DA000B0E08A019B01082B192B2A2B3B2BC90150
:104DB000B8010E94463120E030E040E859E30E940B
:104DC00049320E94083160936C0170936D018093A9
:104DD0006E0190936F010E94463120E030E54DE76F
:104DE00054E40E9496302EE434ED42E45EE30E94E7
:104DF000B6329B01AC0160E070E080E89FE30E9466
:104E000024302DEC3AE24DE257E40E94493220E092
:104E100030E048EC52E40E9449320E94083160932D
:104E200068017093690180936A0190936B016091AE
:104E3000210380E492E00E9448078BEA90E00E9400
:104E4000BC1280E492E00E94EB0642E060912103F4
:104E500080E492E00E9452078091F70190E0209157
:104E6000F801821B910982309105ECF380E492E015
:104E70000E94F302182F80E492E00E94F302982F20
:104E80008827BC01612B072E000C880B990B0E9410
:104E9000463120E030E040EF53E40E94963020E0BD
:104EA00030E04AE252E40E94253020E030E040E267
:104EB00051E40E9449320E9408316093640170936A
:104EC0006501809366019093670100915E011091E6
:104ED0005F01C0906801D0906901E0906A01F09094
:104EE0006B010930110581F4C0925A01D0925B0127
:104EF000E0925C01F0925D01109256011092570110
:104F000010925801109259018091520190915301D1
:104F1000A0915401B0915501A7019601281B390BAE
:104F20004A0B5B0BCA01B9010E9446314B015C017F
:104F30000E942D0540904E0150904F01609050010D
:104F40007090510164197509860997090E944431CE
:104F50009B01AC0160E070E08AE794E40E94963027
:104F60009B01AC01C501B4010E9449320E94083185
:104F700060934A0170934B0180934C0190934D01D3
:104F800060934601709347018093480190934901D3
:104F90000E942D0560934E0170934F018093500144
:104FA00090935101C0925201D0925301E09254016A
:104FB000F092550160914A0170914B0180914C0132
:104FC00090914D010E9446312B013C0120915601E8
:104FD000309157014091580150915901609104015D
:104FE0007091050180910601909107010E9449325C
:104FF0004B015C01209108013091090140910A01A7
:1050000050910B01C301B2010E9449329B01AC01D6
:10501000C501B4010E942530609356017093570179
:1050200080935801909359010E94083140900C01DF
:1050300050900D0160900E0170900F0146165706BA
:10504000680679063CF4DC01CB0184199509A609B0
:10505000B70912C088249924540184189508A60819
:10506000B708681579058A059B057CF4DC01CB013E
:10507000840D951DA61DB71D80934A0190934B0189
:10508000A0934C01B0934D0108C010924A011092B8
:105090004B0110924C0110924D0180915A01909158
:1050A0005B01A0915C01B0915D01A7019601281BF5
:1050B000390B4A0B5B0BCA01B9012AE030E040E032
:1050C00050E00E9481342093420130934301409389
:1050D000440150934501C701B60124E630E040E0A9
:1050E00050E00E94813420933E0130933F01409371
:1050F0004001509341010A301105F4F40F5F1F4F36
:1051000010935F0100935E0110924A0110924B01CF
:1051100010924C0110924D011092420110924301E5
:10512000109244011092450110923E0110923F01ED
:10513000109240011092410180913C0190913D01FB
:10514000019709F0A2C060914201709143018091E2
:105150004401909145010E9446312FEB3EE04CE91D
:105160005EE30E9496300E94083160934201709382
:105170004301809344019093450160913E017091F9
:105180003F0180914001909141010E9446312FEBF7
:105190003EE04CE95EE30E9496300E940831609345
:1051A0003E0170933F0180934001909341016091D3
:1051B0004A0170914B0180914C0190914D010E94E8
:1051C00046312FEB3EE04CE95EE30E9496300E94B0
:1051D000083160934A0170934B0180934C01909386
:1051E0004D01609146017091470180914801909175
:1051F00049010E9446312FEB3EE04CE95EE30E94FC
:1052000096300E9408316093460170934701809365
:1052100048019093490160916C0170916D018091FA
:105220006E0190916F010E9446312DED38EE41EFF5
:105230005CE30E9449320E94083160936C017093D4
:105240006D0180936E0190936F0160916401709184
:10525000650180916601909167010E94463126E6C2
:1052600036E646EE5FE30E94493220E030E040EA55
:1052700053E40E9425300E940831609364017093CA
:1052800065018093660190936701E0913A01F09186
:105290003B01EB30F10521F01092390110923801F9
:1052A00080910001909101018E179F0721F0F093EA
:1052B0000101E0930001EC30F10508F050C2EC5C14
:1052C000FF4F0C94A03469ED73E089EE93E00E94E7
:1052D000521445C21A8A19821BA260914201709130
:1052E000430180914401909145010E94463120E0A4
:1052F00030E040E251E40E949630AB01BC0121E075
:1053000030E0C1010E94C40CF10101900020E9F7D6
:1053100031978F010219130980913C0190913D0151
:10532000892B19F463ED73E002C06EEC73E0CE01DB
:1053300042960E94C52F8091420190914301A09115
:105340004401B0914501B7FD1BC00330110519F4AC
:1053500069EC73E029C00430110519F465EC73E0C1
:1053600023C00530110519F462EC73E01DC008304C
:10537000110519F460EC73E017C06FEB73E014C013
:105380000430110519F46BEB73E00EC00530110504
:1053900019F468EB73E008C00630110519F466EBE8
:1053A00073E002C065EB73E0CE0142960E94C52F08
:1053B000B101CE0142960E94AC3680913C019091A1
:1053C0003D01892B19F463EB73E002C060EB73E0DD
:1053D000CE0142960E94C52F1BA260914A01709196
:1053E0004B0180914C0190914D010E94463120E08B
:1053F00030E048EC52E40E949630AB01BC0122E060
:1054000030E0C1010E94C40CF10101900020E9F7D5
:1054100031978F010219130980913C0190913D0150
:10542000892B19F46AEA73E002C065EA73E0CE01E1
:1054300001960E94C52F80914A0190914B01A09145
:105440004C01B0914D01B7FD15C00330110519F4A1
:105450006FE973E023C00430110519F46AE973E0C1
:105460001DC00530110519F466E973E017C063E942
:1054700073E014C00430110519F46EE873E00EC037
:105480000530110519F46AE873E008C0063011050B
:1054900019F467E873E002C065E873E0CE01019695
:1054A0000E94C52FB101CE0101960E94AC368091B9
:1054B0003C0190913D01892B19F461E873E044C1EE
:1054C0006CE773E041C11A8A198265E773E0CE0187
:1054D00042960E94C52F1BA26091640170916501E4
:1054E00080916601909167010E94463120E030E092
:1054F00040E251E40E949630AB01BC0121E030E073
:10550000C1010E94C40CB101CE0142960E94AC368A
:1055100080913C0190913D01019719F462E773E09D
:1055200002C06FE673E0CE0142960E94C52F68E686
:1055300073E0CE0101960E94C52F1BA260916C0101
:1055400070916D0180916E0190916F010E944631C2
:1055500020E030E048EC52E40E949630AB01BC0100
:1055600021E030E0C1010E94C40CB101CE010196DE
:105570000E94AC3680913C0190913D01019719F455
:1055800063E673E0E1C06FE573E0DEC01A8A19825A
:105590006FE473E0CE0142960E94C52F63E473E08E
:1055A000D3C01A8A198268E373E0CE0142960E9442
:1055B000C52F1BA240910401509105016091060185
:1055C0007091070122E030E0C1010E94C40CB101DA
:1055D000CE0142960E94AC3668E273E0B5C01A8AEA
:1055E00019826DE173E0CE0142960E94C52F1BA285
:1055F000409108015091090160910A0170910B01DD
:1056000022E030E0C1010E94C40CB101CE014296FB
:105610000E94AC366DE073E097C01A8A198262E08E
:1056200073E0CE0142960E94C52F1BA260910C012F
:1056300070910D0180910E0190910F010E944631F1
:10564000AB01BC0120E030E0C1010E94C40CB101FB
:10565000CE0142960E94AC3662EF72E075C01A8AA3
:10566000198261EE72E0CE0142960E94C52F8091B0
:1056700002019091030182309105B1F044F400974A
:1056800081F0019709F064C062EC72E05DC0843083
:10569000910581F064F0059709F05AC061E972E064
:1056A00053C063ED72E050C065EB72E04DC068EA34
:1056B00072E04AC06BE972E047C01A8A198269E851
:1056C00072E0CE0142960E94C52F80913C019091DC
:1056D0003D01019719F46FE772E002C066E772E0DE
:1056E000CE0142960E94C52F69E672E02DC01A8A4B
:1056F00019826DE572E0CE0142960E94C52F80911D
:105700003701882319F06AE572E002C066E572E0AD
:10571000CE0142960E94C52F69E472E015C01A8A34
:10572000198268E372E0CE0142960E94C52F6DE2B5
:1057300072E00AC01A8A19826EE172E0CE014296C6
:105740000E94C52F62E172E0CE0101960E94C52F32
:10575000BE016F5F7F4FCE0142960E9488148CE499
:1057600092E00E9424080E9412140E94440E60E0FD
:10577000809158020E94B70461E0809158020E9413
:1057800087040E9424140E9424140E942D056B019A
:105790007C0134E6C30ED11CE11CF11C00E010E0DA
:1057A0000E942D056C157D058E059F0578F58CE40E
:1057B00092E00E9494031816190694F78CE492E084
:1057C0000E9494031816190614F000E01AC08CE425
:1057D00092E00E94AB03082F80911803801343C30B
:1057E0008090F3029090F402A090F502B090F6023F
:1057F0000E942D0586169706A806B90608F433C33D
:10580000E4CF10E00115110559F245C3003F110521
:1058100009F42CC20115110509F428C2003911053B
:1058200009F48AC144F40036110509F4F1C10037C6
:105830001105D1F01BC2003D110551F1003E1105CB
:1058400029F0003B110509F011C26FC080913A01A7
:1058500090913B018B30910514F401960DC010928C
:105860003B0110923A0102C280913A0190913B01B2
:105870008230910534F0019790933B0180933A0177
:10588000F5C14BE050E050933B0140933A01EEC12B
:1058900080913A0190913B0184309105B9F4C09018
:1058A0000401D0900501E0900601F090070128E482
:1058B00031EE4AE75FE3C701B6010E94913087FFEE
:1058C000D5C12AE037ED43E25CE353C18530910551
:1058D000B9F4C0900801D0900901E0900A01F0905D
:1058E0000B0128E431EE4AE75FE3C701B6010E94ED
:1058F000913087FFBBC12AE037ED43E25CE35FC133
:10590000069709F0B3C180910C0190910D01A0910F
:105910000E01B0910F0184369105A105B1050CF07F
:10592000A5C10196A11DB11D6AC180913A01909156
:105930003B010397B1F48091680190916901A091B6
:105940006A01B0916B0180935A0190935B01A0931F
:105950005C01B0935D0181E090E090933B01809306
:105960003A0100913A0110913B010430110521F5F3
:10597000C0900401D0900501E0900601F09007016D
:105980002AE037ED43E25CE3C701B6010E944432EE
:1059900018160CF074C02AE037ED43E25CE3C7014F
:1059A000B6010E9424306093040170930501809336
:1059B00006019093070163C00530110521F5C090E1
:1059C0000801D0900901E0900A01F0900B012AE053
:1059D00037ED43E25CE3C701B6010E94443218167A
:1059E0000CF04DC02AE037ED43E25CE3C701B6019D
:1059F0000E942430609308017093090180930A018A
:105A000090930B013CC006301105D1F480910C013C
:105A100090910D01A0910E01B0910F011816190679
:105A20001A061B060CF072C00197A109B1098093F8
:105A30000C0190930D01A0930E01B0930F0166C06D
:105A40000830110591F480913C0190913D01892B22
:105A500039F481E090E090933D0180933C0156C081
:105A600010923D0110923C0151C00930110539F4EA
:105A70009091370181E089278093370147C00A3030
:105A8000110509F043C060913C0180E090E00E9464
:105A90003A086091370181E090E00E943A086091F5
:105AA0000C0182E090E00E943A0820E030E048ECEF
:105AB00052E460910401709105018091060190917A
:105AC00007010E9449320E94083183E090E00E9461
:105AD0003A0820E030E048EC52E46091080170910F
