:100000000C9480010C94A8010C94A8010C94020794
:100010000C9402070C9402070C94A8010C94A801FC
:100020000C94A8010C94A8010C94A8010C94A801AC
:100030000C94A8010C94A8010C94A8010C94A8019C
:100040000C94AB040C94A8010C94A8010C94A80186
:100050000C94A8010C94A8010C94A8010C94A8017C
:100060000C942F050C94A801FF2106226F22D822A0
:10007000E322FD222C23372307634236B79BD8A700
:100080001A39685618AEBAAB558C1D3CB7CC5763BD
:10009000BD6DEDFD753EF6177231BF000000803F6B
:1000A00008000000BE922449123EABAAAA2ABECD87
:1000B000CCCC4C3E00000080BEABAAAAAA3E0000F9
:1000C0000000BF000000803F0000000000084178F1
:1000D000D3BB4387D1133D190E3CC3BD4282AD2B28
:1000E0003E68EC8276BED98FE1A93E4C80EFFFBE20
:1000F00001C4FF7F3F00000000000000000023005B
:100100002600290000000000250028002B00040420
:1001100004040404040402020202020203030303AF
:10012000030301020408102040800102040810208B
:100130000102040810202572480048756D69646941
:10014000747900B0460054656D70657261747572A3
:100150006500696E4847005072657373757265007B
:1001600066742F7300566172696F00667400416C8B
:100170007469747564650066740052656C2E204164
:100180006C74697400B0430054656D70657261747D
:1001900075726500685061005072657373757265A1
:1001A000006D2F7300566172696F006D00416C74B1
:1001B0006974756465006D0052656C2E20416C7425
:1001C00069740052435420566172696F00202020E8
:1001D000566172696F6D65746572002052435420D8
:1001E0004A65746920546F6F6C7300507265737345
:1001F000203C20746F206578697400416C746974C8
:100200007564652072657365740050726573733A26
:10021000205550202620444E005361766520616EA3
:10022000642072657374617274004368616E6765FF
:100230003A20444E00424D5030383500424D453250
:10024000383000424D503238300053656E736F7253
:100250003A20004368616E67653A20444E00455578
:1002600000555300556E6974733A20200050726532
:10027000737320444E00416C746974756465205238
:10028000657365740068506100696E48470050727C
:1002900065733A2000B04300B0460054656D703A73
:1002A00020006D2F730066742F7300566172696FA2
:1002B0003A20006D00667400416C7469743A200045
:1002C000202020566172696F6D657465720020523E
:1002D0004354204A65746920546F6F6C73000000AA
:1002E0000000240027002A0000000008000201008E
:1002F000000304070000000000000000E124D724F0
:1003000011241FBECFEFD8E0DEBFCDBF11E0A0E0CB
:10031000B1E0EEECF7E502C005900D92A832B1070E
:10032000D9F723E0A8E2B1E001C01D92AC38B207D2
:10033000E1F711E0CFE7D1E004C02197FE010E9470
:10034000092ACE37D107C9F70E94931A0C94DA2BE9
:100350000C940000CF92DF92EF92FF920F931F93C5
:10036000CF93DF936C017A018B01C0E0D0E0CE1512
:10037000DF0589F0D8016D918D01D601ED91FC91D9
:100380000190F081E02DC6010995892B11F47E01C1
:1003900002C02196ECCFC701DF91CF911F910F9141
:1003A000FF90EF90DF90CF900895833081F028F494
:1003B000813099F08230A1F008958730A9F088301B
:1003C000B9F08430D1F4809180008F7D03C080919A
:1003D00080008F7780938000089584B58F7702C066
:1003E00084B58F7D84BD08958091B0008F7703C060
:1003F0008091B0008F7D8093B00008953FB7F8944E
:100400008091E3019091E401A091E501B091E601B2
:1004100026B5A89B05C02F3F19F00196A11DB11D5F
:100420003FBFBA2FA92F982F8827820F911DA11D9A
:10043000B11DBC01CD0143E0660F771F881F991FD6
:100440004A95D1F7089585ED8093BC008091BC005A
:1004500084FDFCCF1092330208954091B801262FFD
:1004600030E0240F311D21323105DCF420913302BC
:100470002430C9F4FC0180E090E0861758F43091F4
:10048000B8012191DC01AA56BE4FA30FB11D2C93D8
:100490000196F3CF8091B801680F6093B80180E0B6
:1004A000089581E0089582E008950895E091EC01B7
:1004B0008091EB01E81730F4F0E0E351FE4F8081CA
:1004C00090E008958FEF9FEF08959091EC01809157
:1004D000EB01981750F4E92FF0E0E351FE4F208133
:1004E00030E09F5F9093EC0102C02FEF3FEFC90116
:1004F00008958091EB0190E02091EC01821B91091D
:100500000895CF92DF92EF92FF920F931F93CF93B4
:10051000DF937C01262F972F8A01809195018823F4
:1005200091F0C62FD72F6E01C40ED51ECC15DD0558
:1005300071F06991D701ED91FC910190F081E02D6E
:10054000C7010995F3CF642F822F0E942D02C801A5
:10055000DF91CF911F910F91FF90EF90DF90CF909F
:100560000895CF93DF931F92CDB7DEB769832091B3
:1005700095012223D1F020919401203240F021E016
:1005800030E0FC013383228380E090E015C080914D
:100590009301E82FF0E0ED58FE4F998190838F5F33
:1005A000809393018093940105C061E0CE01019690
:1005B0000E942D0281E090E00F90DF91CF9108958D
:1005C0000895DC015196ED91FC91529790815096DF
:1005D0008C9180958923808308952091E901309141
:1005E000EA012817390771F49091E7018091E80139
:1005F000981741F0E091E701F0E0EE59FE4F80815D
:1006000090E008958FEF9FEF089508952091E901FC
:100610003091EA012817390769F48091E8012091A7
:10062000E70190E04096821B910960E170E00E9432
:10063000B429089580E090E008952091E901309177
:10064000EA0128173907B9F49091E7018091E80190
:10065000981789F0E091E701F0E0EE59FE4F8081B4
:100660002091E70130E02F5F3F4F2F703327209319
:10067000E70190E008958FEF9FEF0895089580E0DF
:1006800090E008950E94CA2BCF92DF92EF92FF92E2
:100690000F931F93CF93DF93EC0189A19AA1009749
:1006A00029F421E030E03B832A8371C00FB7F8942E
:1006B0008F8D98A1892B91F028E030E090E081E0C7
:1006C000482F462309F09F5F880F21503109C1F759
:1006D000888D81119F5F192F109501C010E0F62EB3
:1006E000CE010E94E10289A19AA10197F1F788E069
:1006F000C82ED12CEE24E3948E2D8F2139F0E98978
:10070000FA8990818889892B808303C0CE010E9459
:10071000E10289A19AA10197F1F7EE0C81E0C81AD4
:10072000D10851F78E89882389F0888D882339F084
:10073000E989FA8990818889892B808303C0CE0159
:100740000E94E10289A19AA10197F1F78F8D98A1EA
:10075000892B81F010FF07C0E989FA899081888987
:10076000892B808303C0CE010E94E1028F8D98A166
:100770000197F1F7E989FA8990818889892B80832B
:100780000FBF8D8D9E8D0197F1F781E090E0DF9195
:10079000CF911F910F91FF90EF90DF90CF90089530
:1007A000CF93DF93282F30E0F901E851FD4F84917A
:1007B000F901EE5DFE4FD491F901E25FFE4FC49165
:1007C000CC2391F081110E94D501EC2FF0E0EE0FC7
:1007D000FF1FE650FF4FA591B491EC91ED2381E00E
:1007E00090E021F480E002C080E090E0DF91CF91C2
:1007F00008951F93CF93DF93282F30E0F901E8513C
:10080000FD4F8491F901EE5DFE4FD491F901E25F55
:10081000FE4FC491CC23C9F0162F81110E94D5013F
:10082000EC2FF0E0EE0FFF1FEC5FFE4FA591B491AF
:100830008FB7F894111105C09C91ED2FE095E92335
:1008400002C0EC91ED2BEC938FBFDF91CF911F9104
:100850000895CF93DF9390E0FC01EE5DFE4F24916D
:10086000FC01E25FFE4F8491882361F190E0880FE4
:10087000991FFC01E252FD4FC591D491FC01EC5F40
:10088000FE4FA591B491611109C09FB7F89488817A
:10089000209582238883EC912E230BC0623061F473
:1008A0009FB7F8943881822F809583238883EC91B9
:1008B0002E2B2C939FBF06C08FB7F894E8812E2B68
:1008C00028838FBFDF91CF9108958F929F92AF922F
:1008D000BF92CF92DF92EF92FF926B017C010E9458
:1008E000FE014B015C01C114D104E104F104F1F0FB
:1008F0000E94FE01DC01CB0188199909AA09BB09F4
:10090000883E9340A105B10570F321E0C21AD108D9
:10091000E108F10888EE880E83E0981EA11CB11C46
:10092000C114D104E104F10419F7DDCFFF90EF9079
:10093000DF90CF90BF90AF909F908F9008952FB78A
:10094000F8946091DF017091E0018091E101909154
:10095000E2012FBF08951F920F920FB60F9211243C
:100960002F933F938F939F93AF93BF938091DF011A
:100970009091E001A091E101B091E2013091DE019E
:1009800026E0230F2D3720F40296A11DB11D05C0CE
:1009900029E8230F0396A11DB11D2093DE0180934A
:1009A000DF019093E001A093E101B093E201809117
:1009B000E3019091E401A091E501B091E601019677
:1009C000A11DB11D8093E3019093E401A093E50183
:1009D000B093E601BF91AF919F918F913F912F917D
:1009E0000F900FBE0F901F901895CF93CFB7F8942C
:1009F0008091DD01811127C0E8E1F1E08491ECE212
:100A0000F1E09491E82FF0E0EE0FFF1FE252FD4F6E
:100A1000A591B491EC91E92321F461E08AE00E9470
:100A2000F90361E08AE00E9429048CB580618CBDE5
:100A30008CB580648CBD61E08DE00E94290461E08A
:100A40008BE00E9429048091DD018F5F8093DD019E
:100A5000CFBFCF91089508958CBD9DBD08951F927D
:100A60000F920FB60F9211242F933F934F935F93E2
:100A70006F937F938F939F93AF93BF93EF93FF9366
:100A80008091B900887F803609F49CC068F588326F
:100A900009F45BC090F4803109F454C038F4882321
:100AA00009F4F6C0883009F44DC0F6C0883109F465
:100AB0004CC0803209F45DC0EFC0803409F468C0D6
:100AC00048F4803309F455C0883309F0E5C08093B9
:100AD0003102D8C0803509F44FC0883509F45DC0B3
:100AE000883409F0D9C0D6C0883909F4C7C0A8F441
:100AF000883709F467C038F4883609F463C0803752
:100B000009F460C0C9C0883809F4B8C0803909F454
:100B10005FC0803809F0C0C05BC0803B09F486C06C
:100B200038F4803A09F466C0883A09F47FC0B4C04A
:100B3000803C09F4A7C0883C09F4A4C0883B09F4B0
:100B40008AC0AAC080912E0210C09091300280917C
:100B50002F02981770F5E091300281E08E0F80939C
:100B60003002F0E0E35FFD4F80818093BB0085ECB5
:100B700086C0809331028EC0E091300281E08E0FFA
:100B8000809330028091BB00F0E0E35FFD4F8083F3
:100B90009091300280912F026EC0E091300281E08E
:100BA0008E0F809330028091BB00F0E0E35FFD4F39
:100BB00080838091320281116DC081E080932D028B
:100BC00084EA61C083E0809333021092DC01CFCFCE
:100BD0008091DC01803208F051C0E091DC0181E0BD
:100BE0008E0F8093DC018091BB00F0E0E454FE4F57
:100BF0008083BDCF85EC8093BC001092330280913E
:100C0000DC01803230F4E091DC01F0E0E454FE4F8E
:100C100010826091DC0170E0E091BA01F091BB01BB
:100C20008CEB91E009951092DC0136C084E0809352
:100C300033021092B9011092B801E091B601F0911F
:100C4000B70109958091B801811105C081E08093B9
:100C5000B80110929601E091B90181E08E0F809366
:100C6000B901F0E0EA56FE4F80818093BB0090917D
:100C7000B9018091B801981708F479CF85E880937D
:100C8000BC000AC085EC8093BC001092330204C003
:100C9000109231020E942302FF91EF91BF91AF9118
:100CA0009F918F917F916F915F914F913F912F9184
:100CB0000F900FBE0F901F90189520919401909166
:100CC0007201213208F04AC0809133028111FCCFB9
:100CD00032E03093330231E0309332023FEF309311
:100CE00031021092300220932F02A3E7B1E04DE0D1
:100CF00052E0FA013E2F341B321718F43D91319324
:100D0000F9CF10922E0220912E02990F922B9093E0
:100D10002E0290912D02913061F410922D0290914B
:100D20002E029093BB009091BC0093FDF8CF95EC00
:100D300001C095EE9093BC00909133029230E1F3A4
:100D4000909131029F3F79F080913102803241F0E1
:100D500080913102803331F084E005C081E003C02E
:100D600082E001C083E010929301109294011092EE
:100D70009501089581E0809395016093720110922E
:100D80009301109294010895862F413208F040E2B9
:100D9000642F0E9442111092EC018093EB010895A0
:100DA0001092EC011092EB011092930110929401B9
:100DB0001092330281E08093320210922D0261E0A2
:100DC00082E10E94F90361E083E10E94F903E9EB0B
:100DD000F0E080818E7F808380818D7F808380E2C0
:100DE0008093B80085E48093BC000895862798E03E
:100DF00027E087FF03C0880F822701C0880F91502A
:100E0000C1F708951F920F920FB60F9211242F93DE
:100E10003F934F935F936F937F938F939F93AF9382
:100E2000BF93CF93DF93EF93FF93E091E901F091AC
:100E3000EA01309709F467C0C685D7858881258582
:100E4000822309F060C0818D928D0197F1F7438D67
:100E5000548D68E070E030E081E0DA011197F1F73D
:100E60009881922311F0382B03C0982F9095392345
:100E7000880F6150710989F78091E80190E001962F
:100E80008F7099276091E701681749F0A091E801F8
:100E9000B0E0AE59BE4F3C938093E80103C0878910
:100EA0008160878B86898823F1F0CA010197F1F769
:100EB0008881282381E090E0A0E0B0E004C0880FA2
:100EC000991FAA1FBB1F2A95D2F74091600150912C
:100ED000610160E070E0842B952BA62BB72B9093DB
:100EE000610180936001878D90A1009711F00197B7
:100EF000F1F7858D968D0197F1F7A389B4899C91BF
:100F00008589892B8C93FF91EF91DF91CF91BF91D0
:100F1000AF919F918F917F916F915F914F913F9191
:100F20002F910F900FBE0F901F901895E091E9013F
:100F3000F091EA01E817F90769F4A389B4899C9153
:100F40008589809589238C931092EA011092E9019A
:100F500081E0089580E00895813208F080E2682FF2
:100F600087E70E9442111092EC018093EB010895F3
:100F7000CF9386E780935D03809166038F3F29F4CA
:100F800084E392E00E94D0061CC061E00E94F90355
:100F900061E0809166030E942904809169038F3F7C
:100FA00019F40E94F5040DC061E00E94290461E07B
:100FB000809167030E94290460E0809168030E9489
:100FC0002904809166038F3FE1F460915D0384E31F
:100FD00092E00E94BA0660ED84E392E00E94B102C2
:100FE00084E392E00E945D0641E060915D0384E34A
:100FF00092E00E94C40684E392E00E946502C82F3A
:101000001FC0809169038F3F21F481E590E00E9429
:101010002C0560E0809166030E94F90380ED0E9438
:10102000021180E00E940211C82F61E080916603E6
:101030000E94F903809169038F3F11F40E942B05F0
:10104000C83509F08CC088E80E94861190936B0324
:1010500080936A038AE80E94861190936D038093BF
:101060006C038CE80E94861190936F0380936E034B
:101070008EE80E948611909371038093700380E93B
:101080000E948611909373038093720382E90E94F9
:101090008611909375038093740384E90E948611EE
:1010A000909377038093760386E90E94861190934C
:1010B00079038093780388E90E94861190937B03DB
:1010C00080937A038AE90E94861190937D0380932E
:1010D0007C038CE90E94861190937F0380937E03AA
:1010E0008EE90E9486119093810380938003809102
:1010F00066038F3FA9F460915D0384E392E00E9450
:10110000BA0664EF84E392E00E94B1026FE384E3E5
:1011100092E00E94B10284E392E00E945D0621C049
:10112000809169038F3F21F481E590E00E942C05B6
:1011300060E0809166030E94F90384E70E94021137
:101140008FE30E94021161E0809166030E94F9031F
:10115000809169038F3F29F40E942B0502C080E033
:1011600001C081E0CF910895CF93DF93C82F67E747
:1011700084E392E00E94BA066C2F84E392E00E941E
:10118000B10284E392E00E945D0667E784E392E0A7
:101190000E94BA0682E090E00E94AC0784E392E0ED
:1011A0000E946502D82F80E0C82F84E392E00E945D
:1011B0006502C82BD92B84E392E00E945D06CE0124
:1011C000DF91CF910895CF93C82F67E784E392E032
:1011D0000E94BA066C2F84E392E00E94B10284E37D
:1011E00092E00E945D0667E784E392E00E94BA06FF
:1011F00081E090E00E94AC0784E392E00E946502E7
:10120000C82F84E392E00E945D068C2FCF91089551
:10121000EF92FF920F931F93CF93DF939091380338
:101220009F3F39F48EBD00000DB407FEFDCF8EB593
:1012300028C0D82F07E010E0C0E0EE24E394F12CA2
:10124000CC0F60E0809138030E94F903B701002EB3
:1012500001C0660F0A94EAF76D23809136030E945D
:10126000F90361E0809138030E94F903809137030C
:101270000E94D003892B09F0C1600150110900F7C9
:101280008C2FDF91CF911F910F91FF90EF900895D8
:10129000CF93DF93D82FC62F809135038F3F41F531
:1012A00060912C0380912A0390912B030E94BA062F
:1012B00080912A0390912B03DC01ED91FC91019028
:1012C000F081E02D6D2F099580912A0390912B03D9
:1012D000DC01ED91FC910190F081E02D6C2F0995DE
:1012E00080912A0390912B03DF91CF910C945D069E
:1012F000809138038F3F21F481E590E00E942C0516
:1013000060E0809135030E94F9038D2F8F770E9452
:1013100008098C2F0E94080961E0809135030E9422
:10132000F903809138038F3F21F4DF91CF910C9422
:101330002B05DF91CF910895CF93C82F809135036E
:101340008F3F81F560912C0380912A0390912B03AC
:101350000E94BA0680912A0390912B03DC01ED9143
:10136000FC910190F081E02D6C2F099580912A036A
:1013700090912B030E945D0641E060912C038091C7
:101380002A0390912B030E94C40680912A03909116
:101390002B03DC01ED91FC910284F385E02D09958E
:1013A000C82F20C0809138038F3F21F481E590E061
:1013B0000E942C0560E0809135030E94F9038C2F78
:1013C00080680E94080980E00E940809C82F61E037
:1013D000809135030E94F903809138038F3F11F407
:1013E0000E942B058C2FCF910895CF93DF93C82FA8
:1013F000809135038F3F09F041C060912C038091AB
:101400002A0390912B030E94BA0680912A0390919F
:101410002B03DC01ED91FC910190F081E02D6C2F0C
:10142000099580912A0390912B030E945D0642E06A
:1014300060912C0380912A0390912B030E94C40693
:1014400080912A0390912B03DC01ED91FC910284A1
:10145000F385E02D0995C82F80912A0390912B03E5
:10146000DC01ED91FC910284F385E02D099520E0EB
:1014700030E03C2FE901C82BD92B29C080913803DB
:101480008F3F21F481E590E00E942C0560E080917F
:1014900035030E94F9038C2F80680E94080980E0C0
:1014A0000E940809C82F80E00E9408092C2F30E014
:1014B000322F2227E901C82B61E0809135030E9479
:1014C000F903809138038F3F11F40E942B05CE0160
:1014D000DF91CF9108950E94F509982789279827D1
:1014E0000895CF92DF92FF920F931F93CF93DF93D4
:1014F000209163023091640220313105CCF56B01FB
:1015000089010F5F1F4FF801EE0FFF1FED59FD4FCF
:1015100091838083F901EE0FFF1FEB57FD4F71831D
:101520006083F901EE0FFF1FEB53FD4F1182108214
:10153000220F331FE901CB55DD4F18820E94392558
:10154000982F9F718981807EF82EF92AC6010E940A
:1015500039258295880F807E9F2D9F71F92EF82A5C
:10156000F98210936402009363028FEF800F01C031
:101570008FEFDF91CF911F910F91FF90DF90CF9070
:101580000895CF93DF9380E492E00E949607C0E431
:10159000D2E061E08C850E94290461E08C85DF91B6
:1015A000CF910C94F90380915D0290915E02892B9A
:1015B00031F18091E9019091EA0122E080349207B3
:1015C000F1F0009711F00E949607809157028E7FEC
:1015D000809357021092E8011092E70180E492E0B4
:1015E0009093EA018093E901E0915302F091540253
:1015F000908180915502892B808381E0089580E05D
:1016000008950F931F93CF93DF938C01EB010E94FA
:101610003925ABEEB2E090E020E2981740F4A80143
:101620004F5F5F4FF80104910C938A0101C02C9326
:101630009F5F1196903189F7CE010E943925ABEF5B
:10164000B2E090E020E2981740F4AE014F5F5F4FA8
:10165000FE01C491CC93EA0101C02C939F5F1196C7
:10166000903189F7DF91CF911F910F910895CF931A
:10167000DF93FC0101900020E9F73197E81B20E09F
:1016800030E0F0E2A90148575F4F2E1748F4EA0115
:10169000CD59DD4FDC01A20FB31FAC91A88304C06C
:1016A000DA01AD59BD4FFC932F5F3F4F203131051B
:1016B00049F7FB0101900020E9F73197E61B80E034
:1016C00090E040E29C0128563F4F8E1748F4E90114
:1016D000CD59DD4FDB01A80FB91F5C91588304C0C1
:1016E000D901AD59BD4F4C9301968031910551F709
:1016F000DF91CF91089567E784E392E00E94BA06F4
:1017000064EF84E392E00E94B1026EE284E392E02F
:101710000E94B10284E392E00E945D0665E070E001
:1017200080E090E00E94650486EF0C94B4080F936B
:101730001F93CF93C82F00E412E0F801608F682F49
:10174000C8010E944403F801108E8C2FCF911F9185
:101750000F9108952F923F924F925F926F927F92D6
:101760008F929F92AF92BF92CF92DF92EF92FF92B1
:101770000F931F93CF93DF93CDB7DEB72A970FB6A2
:10178000F894DEBF0FBECDBF8C012A013B013A8722
:10179000298720E030E0A901C301B2010E94FA25A7
:1017A00087FF05C060E070E080E09FEB04C060E070
:1017B00070E080E09FE3E12CF12CA985BA85EA1660
:1017C000FB0654F420E030E040E251E40E94FF25A3
:1017D0002FEFE21AF20AF1CF9B01AC01C301B20173
:1017E0000E948E256B017C0120E030E0A901C3013D
:1017F000B2010E94FA2587FF04C0F7FAF094F7F8C7
:10180000F094A12CB12CBDECB983ECECEA83FCEC98
:10181000FB832DE32C8320E030E040E251E469813A
:101820007A818B819C810E94B227962E872E382E3A
:10183000292EA70196010E94FA25181644F03FEFC1
:10184000A31AB30A99828A823B822C82E4CFA11424
:10185000B10429F045016FEF861A960A03C092E0A1
:10186000892E912C20E030E0A901C301B2010E9431
:10187000FA2587FF03C07FEF871A970A89859A8523
:101880000196880E991E1814190444F081E090E026
:10189000DC01A819B909BE83AD8302C01E821D8276
:1018A00020E030E0A901C301B2010E94FA2587FFC0
:1018B00007C08DE2F801808388248394912C02C0B4
:1018C000812C912CA114B10449F4F801E80DF91D03
:1018D00080E3808394012F5F3F4F4901212C312CFD
:1018E000B101680D791D78876F832A143B04D1F10B
:1018F00029813A814B815C81C701B6010E94FF2595
:101900000E9471262B013C016F817885600F711F49
:101910004AE0C2010E944225B201550C880B990B86
:101920000E94AF2629813A814B815C810E94B227B7
:101930009B01AC01C701B6010E948D256B017C01A2
:1019400020E030E040E251E469817A818B819C8122
:101950000E94FF2569837A838B839C833FEF231A40
:10196000330ABECF5B0189859A851816190644F49F
:10197000F801E60FF71F8EE28083DB0111965D010F
:10198000812C912CE985FA858E169F064CF520E076
:1019900030E040E251E4C701B6010E94B2272B01BA
:1019A0003C010E9471266B017C01B4016A0D7B1D14
:1019B000600F711F4AE0C6010E944225B601DD0C8E
:1019C000880B990B0E94AF269B01AC01C301B201A9
:1019D0000E948D256B017C01BFEF8B1A9B0AD2CF31
:1019E000CF01F7FF02C080E090E0A80EB91E2D8164
:1019F0003E81232B89F09501F801EA0DFB1D40E2A1
:101A00006FEFA61AB60A4193C501821B930BAD81F5
:101A1000BE818A179B07A4F3F801EA0DFB1D108213
:101A2000C8012A960FB6F894DEBF0FBECDBFDF9176
:101A3000CF911F910F91FF90EF90DF90CF90BF90CB
:101A4000AF909F908F907F906F905F904F903F905E
:101A50002F9008952F923F924F925F926F927F92B4
:101A60008F929F92AF92BF92CF92DF92EF92FF92AE
:101A70000F931F93CF93DF93C0900D03D0900E036D
:101A8000E0900F03F09010030E949F042091E50264
:101A90002223E9F060E08EE70E94970B61E082E983
:101AA0000E94970B61E083E20E94970B61E08091B6
:101AB000E5020E94970B80910201882311F081506A
:101AC00003C01092E50286E08093020170C324EF08
:101AD000C20E21E0D21EE11CF11C11E0C616D70691
:101AE000E806F90608F010E060E08EE70E94970B28
:101AF00061E08FE90E94970B111170C08091E6029E
:101B0000A0916302B0916402E82FF0E0EE0FFF1F96
:101B1000EB53FD4F20813181232B49F48F5F282F18
:101B200030E02A173B0784F31092E60202C080934C
:101B3000E6026091E602F6E0E0E026E030E0E12C2B
:101B400040E050E070E0CA01860F971F8A179B079C
:101B5000A4F5009709F1E394880F991FFC01EB5558
:101B6000FD4F80818F718830A1F0813019F4C90157
:101B7000039615C0811103C0C901029610C08530BB
:101B800019F4C90104960BC0893019F0C9010196F6
:101B900006C0C901059603C0C9012F2F3E2F4F5F14
:101BA0005F4F4031510551F08B31910514F0EA94AB
:101BB00004C0F22FE32F9C01C6CFC901C82FC06417
:101BC00081E0809358026C2F80E492E00E944403ED
:101BD00060E08C2F0E94F606C82F1DC0E0918B0399
:101BE000F0E0EE0FFF1FEA55FD4F8081C82FCF7147
:101BF000829586958770C80FC85F81E080935802F0
:101C00006C2F80E492E00E94440360E08C2F0E94DD
:101C1000F606C82FE12CD1E0D093580261E180E4B0
:101C200092E00E9444036C2F81E10E94F606C82FC7
:101C3000D093580264EA80E492E00E9444036C2F3F
:101C400084EA0E94F606C82FD093580262E080E42E
:101C500092E00E9444036C2F82E00E94F606C82F97
:101C6000D093580268E080E492E00E9444036C2F15
:101C700088E00E94F606C82FD093580260E080E406
:101C800092E00E944403109258026C2F80E00E9460
:101C9000F606F82E1111EAC1C091E6026E2C6C0E08
:101CA0002091630230916402C61551F07724739439
:101CB0007C0E7092E6020C2F10E00217130754F00E
:101CC0008091E60290E0821793070CF46CC21092A8
:101CD000E60269C2CC2309F4C7C1E0911103F09177
:101CE00012030995C295C07F680131E2C30ED11C71
:101CF000C601880F991FFC01ED59FD4F5F018081DE
:101D00008F7190E08530910509F4BEC0F4F500971D
:101D100009F495C0019709F0A7C1000F111FF80140
:101D2000EB53FD4F0190F081E02D00811181C160E6
:101D3000D09358026C2F80E492E00E9444036F2DF0
:101D40008C2F0E94F606C82F1F79F501208122955D
:101D50002695277030E0322F22273295330F307EC0
:101D6000022B132BD0935802602F80E492E00E9444
:101D700044036C2F802F0E94F606082F912F9F7925
:101D8000F501C081C07EC92B74C08830910521F057
:101D9000099709F4C2C068C1C860D09358026C2F7B
:101DA00080E492E00E9444036F2D8C2F0E94F6067F
:101DB000C82F000F111FF801EB53FD4F0190F08168
:101DC000E02D80819181A281B3816C017D01FFE9C9
:101DD000FF22D09358026C2D80E492E00E944403CD
:101DE0006C2F8C2D0E94F606C82F2D2C3E2C4F2CCC
:101DF000552447FC5A94D0935802622D80E492E017
:101E00000E9444036C2F822D0E94F606C82F1701F2
:101E1000552437FC5094452CD0935802622D80E411
:101E200092E00E9444036C2F822D0E94F606182F28
:101E30009F2D9F79F501C081C07EC92B62C0000F24
:101E4000111FF801EB53FD4F0190F081E02D10813F
:101E5000D09358026C2F80E492E00E9444036F2DCF
:101E60008C2F0E94F606082F1F79F501C081C07ED5
:101E7000C12BD09358026C2F80E492E00E9444035F
:101E800010925802602F47C0C560D09358026C2F43
:101E900080E492E00E944403109258026F2D8C2F30
:101EA0000E94F606F82E000F111FF801EB53FD4FAC
:101EB0000190F081E02D118102819081F501208156
:101EC000229526952770213011F0C0E001C0C0E4B2
:101ED000C92BD0935802602F80E492E00E94440303
:101EE0006F2D802F0E94F606082FD0935802612F85
:101EF00080E492E00E944403602F812F0E94F60646
:101F0000182FD09358026C2F80E492E00E94440373
:101F100010925802612F8C2FA4C0C960D093580230
:101F20006C2F80E492E00E9444036F2D8C2F0E945E
:101F3000F606C82F000F111FF801EB53FD4F01905B
:101F4000F081E02D80809180A280B38020E030E09D
:101F5000A901C501B4010E94AD2718161CF4C501E2
:101F6000B40103C0C501B40190580E9478268B01CA
:101F700080E090E00E94AD269B01AC01C501B40158
:101F80000E948D252AE939E949E15FE30E94B227E1
:101F900020E030E543EC57E40E94B2271B012C01FE
:101FA00020E030E0A9010E94AD2718161CF4C20100
:101FB000B10103C0C201B10190580E947826562E8B
:101FC000F72E812F8170F601EE0FFF1FED59FD4FA7
:101FD0009081929596959770913011F090E001C0A4
:101FE00090E2192F182B20E030E0A901C501B401BF
:101FF0000E94FA25881F8827881F8295880F880FDE
:10200000807C182BD0935802652D80E492E00E94CA
:1020100044036C2F852D0E94F606C82FD0935802DA
:102020006F2D80E492E00E9444036C2F8F2D0E945C
:10203000F606C82FD0935802602F80E492E00E94E9
:1020400044036C2F802F0E94F606C82FD0935802AD
:10205000612F80E492E00E944403109258026C2F9A
:10206000812F0E94F606F82EC72D1ACEC0918B0341
:10207000D09358026C2F80E492E00E9444036F2DAD
:102080008C2F0E94F606B82E0C2F10E06801CC0CA5
:10209000DD1C96012A553D4F4901F9012081922FFF
:1020A0009F71F8E09F9F700111242295269527705B
:1020B000E22AD09358026E2D80E492E00E944403FD
:1020C000109258026B2D8E2D0E94F606F82EF60106
:1020D000EB59FD4FD081AD2EB180772473942A2D1A
:1020E0002D1B30E0F40180818F7190E028173907B3
:1020F000A4F4F501E490709258026E2D80E492E011
:102100000E944403109258026F2D8E2D0E94F606F5
:10211000F82EFFEFAF1ABF0AE2CF000F111FD80150
:10212000AB57BD4FDC910D2F11961C9196012A558E
:102130003D4F6901BB24B394202F2D1B30E0F601E5
:10214000808182958695877090E0281739079CF4E6
:10215000F801E490B09258026E2D80E492E00E9463
:102160004403109258026F2D8E2D0E94F606F82E11
:102170000F5F1F4FE1CFCF5FC0938B038C2F90E099
:1021800020916302309164028217930714F0109239
:102190008B030E949F0460930D0370930E03809342
:1021A0000F039093100361E08F2D0E94970BE09135
:1021B0001103F0911203099560E08EEF0E94970BD6
:1021C000CBEED2E01C2F105E61E089910E94970B4C
:1021D0001C13FACF60E08FEF0E94970B81E0DF9134
:1021E000CF911F910F91FF90EF90DF90CF90BF9014
:1021F000AF909F908F907F906F905F904F903F90A7
:102200002F900895EF92FF920F931F93CF93DF9338
:10221000909169039F3F39F48EBD00000DB407FE15
:10222000FDCF8EB528C0D82F07E010E0C0E0EE2427
:10223000E394F12CCC0F60E0809169030E94F903D4
:10224000B701002E01C0660F0A94EAF76D23809152
:1022500067030E94F90361E0809169030E94F9031A
:10226000809168030E94D003892B09F0C16001505E
:10227000110900F78C2FDF91CF911F910F91FF90E3
:10228000EF900895909133029111FCCF91E09093DB
:102290003302909332022FEF2093310210923002DA
:1022A000260F20932F0290932E0290912E02880FDA
:1022B000892B80932E0280912D02813061F410923F
:1022C0002D0280912E028093BB008091BC0083FD83
:1022D000F8CF85EC01C085EE8093BC00809133027D
:1022E0008130E1F380913002861710F46091300262
:1022F000ADE0B2E02DEE31E0F9018E2F821B8617A2
:1023000018F48D918193F9CF862F0895CF93DF93A1
:10231000C82F809166038F3F31F560915D0384E3A0
:1023200092E00E94BA066C2F84E392E00E94B10210
:1023300084E392E00E945D0642E060915D0384E3E5
:1023400092E00E94C40684E392E00E946502C82FD6
:1023500084E392E00E94650220E030E03C2FE90136
:10236000C82BD92B29C0809169038F3F21F481E5C7
:1023700090E00E942C0560E0809166030E94F903C2
:102380008C2F80680E94021180E00E940211C82FE9
:1023900080E00E9402112C2F30E0322F2227E90129
:1023A000C82B61E0809166030E94F9038091690364
:1023B0008F3F11F40E942B059C2F8D2FDF91CF9121
:1023C0000895CF92DF92EF92FF92CF93C82F809122
:1023D00035038F3F09F061C060912C0380912A037F
:1023E00090912B030E94BA0680912A0390912B03AF
:1023F000DC01ED91FC910190F081E02D6C2F0995AD
:1024000080912A0390912B030E945D0643E0609126
:102410002C0380912A0390912B030E94C406809183
:102420002A0390912B03DC01ED91FC910284F3854A
:10243000E02D09956C01990FEE08FF08FE2CED2C9C
:10244000DC2CCC2480912A0390912B03DC01ED91AC
:10245000FC910284F385E02D0995AC01990F660B80
:10246000770BC42AD52AE62AF72AFE2CED2CDC2C81
:10247000CC2480912A0390912B03DC01ED91FC91F7
:102480000284F385E02D0995AC01990F660B770B5B
:10249000C42AD52AE62AF72A33C0809138038F3F11
:1024A00021F481E590E00E942C0560E080913503E5
:1024B0000E94F9038C2F80680E94080980E00E9426
:1024C0000809C82ED12CE12CF12CFE2CED2CDC2C93
:1024D000CC2480E00E940809C82AFE2CED2CDC2CBC
:1024E000CC2480E00E940809C82A61E0809135036D
:1024F0000E94F903809138038F3F11F40E942B054D
:10250000C701B601CF91FF90EF90DF90CF90089573
:10251000CF92DF92EF92FF92CF93C82F8091660304
:102520008F3F09F03FC060915D0384E392E00E9419
:10253000BA066C2F84E392E00E94B10284E392E039
:102540000E945D0643E060915D0384E392E00E9497
:10255000C40684E392E00E9465026C01990FEE08C4
:10256000FF08FE2CED2CDC2CCC2484E392E00E94AE
:102570006502AC01990F660B770BC42AD52AE62AAF
:10258000F72AFE2CED2CDC2CCC2484E392E00E9474
:102590006502AC01990F660B770BC42AD52AE62A8F
:1025A000F72A33C0809169038F3F21F481E590E0E1
:1025B0000E942C0560E0809166030E94F9038C2F35
:1025C00080680E94021180E00E940211C82ED12C66
:1025D000E12CF12CFE2CED2CDC2CCC2480E00E9494
:1025E0000211C82AFE2CED2CDC2CCC2480E00E94A9
:1025F0000211C82A61E0809166030E94F90380916C
:1026000069038F3F11F40E942B05C701B601CF91DA
:10261000FF90EF90DF90CF9008953F924F925F929E
:102620006F927F928F929F92AF92BF92CF92DF92E2
:10263000EF92FF920F931F93CF93DF93CDB7DEB747
:1026400028970FB6F894DEBF0FBECDBF0E947B0B5C
:102650006C01E12CF12C109113031295110F110F45
:10266000107C1C5C67E784E392E00E94BA0664EF8A
:1026700084E392E00E94B102612F84E392E00E9421
:10268000B10284E392E00E945D0680911303811100
:1026900005C065E070E080E090E012C0813029F470
:1026A00068E070E080E090E00BC0823029F46EE0DA
:1026B00070E080E090E004C06AE170E080E090E0CB
:1026C0000E94650486EF0E94B4084C01A12CB12C35
:1026D000BA2CA92C982C882488EF0E94E308882A19
:1026E000309013038091280390912903A70196014C
:1026F000281B390B41095109A0912603B0912703EA
:102700000E940F2A6B017C01AFE0F594E794D79407
:10271000C794AA95D1F76091200370912103CB0152
:10272000770FAA0BBB0BBC01CD01BBE0660F771F77
:10273000881F991FBA95D1F7209122033091230366
:102740008901330F220B330BA90198012C0D3D1D7C
:102750004E1D5F1D0E94EA29C20ED31EE41EF51E07
:1027600020EAC21A2FE0D20AE108F108A701960177
:10277000C701B6010E94A4299B01AC011CE055953C
:102780004795379527951A95D1F729833A834B8337
:102790005C830091140310911503A0911803B0916C
:1027A0001903A70196010E941A2A2B013C018DE012
:1027B00075946794579447948A95D1F7A0911A031A
:1027C000B0911B0329813A814B815C810E941A2AB6
:1027D000BB2797FDB095AB2F840D951DA61DB71D8A
:1027E0000296A11DB11D32E0B595A79597958795E5
:1027F0003A95D1F79C01AD0130584F4F5F4FA091F2
:102800002403B09125030E940F2A2B013C014FE0C5
:1028100076946794579447944A95D1F788E090E06E
:1028200083199109A501940104C0569547953795E0
:1028300027958A95D2F72D833E834F835887480189
:10284000110FAA08BB0852E0880C991CAA1CBB1CDB
:102850005A95D1F7A0911C03B0911D0329813A81AB
:102860004B815C810E941A2A9B01AC016BE055955B
:102870004795379527956A95D1F729833A834B83F6
:102880005C83A0911603B0911703A70196010E94E3
:102890001A2ADC01CB017BE0B595A7959795879522
:1028A0007A95D1F729813A814B815C81820F931F00
:1028B000A41FB51F880D991DAA1DBB1D032C04C0A4
:1028C000880F991FAA1FBB1F0A94D2F7BC01CD0124
:1028D0006E5F7F4F8F4F9F4F24E030E040E050E02D
:1028E0000E94EA298D819E81AF81B885821B930B5E
:1028F000A40BB50B9C01AD0180E593ECA0E0B0E02A
:10290000BC01CD0104C096958795779567953A945B
:10291000D2F70E94A42997FD0BC0660F771F881F6E
:10292000991FA30192010E94C82969017A010AC076
:10293000A30192010E94C82969017A01CC0CDD1C17
:10294000EE1CFF1C9927F7FC9A958F2D7E2D6D2D7F
:102950009B01AC010E94A4299B01AC01AEEDBBE040
:102960000E940F2A4C01BB2497FCB094AB2CA3E42B
:10297000B3EEA70196010E941D2ABB2797FDB095D3
:10298000AB2F880D991DAA1DBB1D8153914FAF4FD1
:10299000BF4F44E0B595A795979587954A95D1F790
:1029A000BC01CD016C0D7D1D8E1D9F1D28960FB69F
:1029B000F894DEBF0FBECDBFDF91CF911F910F9175
:1029C000FF90EF90DF90CF90BF90AF909F908F904F
:1029D0007F906F905F904F903F9008958F929F925D
:1029E000AF92BF92CF92DF92EF92FF928AEF0E9456
:1029F000E1116115710520E88207910509F47CC099
:102A00004091390350913A034A01A12CB12CC72EB1
:102A1000D82EE92EFF24E7FCFA94C818D908EA0852
:102A2000FB08DC01CB0137E0B595A7959795879515
:102A30003A95D1F7B501A401440F551F661F771FC2
:102A40004C015D01841A950AA60AB70AA5019401F2
:102A5000A0913B03B0913C030E941A2A4B015C01F8
:102A6000FBE0B594A79497948794FA95D1F7A701C2
:102A70009601C701B6010E94A4299B01AC01ACE0FC
:102A80005595479537952795AA95D1F7A0913D0380
:102A9000B0913E030E941A2ADC01CB012EE0B595CD
:102AA000A795979587952A95D1F7A5019401280FA9
:102AB000391F4A1F5B1F2093310330933203409329
:102AC000330350933403A5E0B0E00E940F2ADC01E9
:102AD000CB0180589F4FAF4FBF4F692F7A2F8B2F5D
:102AE000992787FD9A950E94AF2620E030E048ECB8
:102AF00052E40E94FF2504C060E070E080EC9FE794
:102B0000FF90EF90DF90CF90BF90AF909F908F900D
:102B100008952F923F924F925F926F927F928F9281
:102B20009F92AF92BF92CF92DF92EF92FF920F935C
:102B30001F93CF93DF93CDB7DEB7A2970FB6F8946C
:102B4000DEBF0FBECDBF0E94EE1487EF0E94E111E1
:102B50006F83788789879A87611571058048910509
:102B600009F4FDC18091310390913203A0913303A8
:102B7000B09134036C017D01FF0CCC08DC2C760194
:102B80009C01AD016C2D7C2D8C2D9C2D345F414022
:102B9000510961097109810991092AA339A349835E
:102BA0005A836B837C838D839E8359016A017B01E9
:102BB0008C010E94222A2E8B3F8B488F598F6A8F5F
:102BC0007B8F8C8F9D8F809149038E8F90914A03CC
:102BD0009B87A0914703AF8FB0914803BC87E091DA
:102BE0004503E8A3F0914603FD87B0904203A0900F
:102BF00041031B2D110F110BC12ED12EE12EF12EF1
:102C0000012F2AA139A149815A816B817C818D8153
:102C10009E810E94222A0CE00E94522B19012A0157
:102C20003B014C01B0904403A09043031B2D110FB6
:102C3000110BC12ED12EE12EF12E012F2E893F89AD
:102C4000488D598D6A8D7B8D8C8D9D8D0E94222A99
:102C500008E00E946B2B51016201730184010E9404
:102C6000892B70588F4F9F4F20903F033090400327
:102C70005101C12CD12CE12CF12C00E010E00E947C
:102C8000222A01E20E946B2B2E873F87488B598BAB
:102C90006A8B7B8B8C8B9D8BA0E00E949B2B09F415
:102CA00063C1AE8C1B85110F110BBB84C12ED12EBD
:102CB000E12EF12E012F2E893F89488D598D6A8D85
:102CC0007B8D8C8D9D8D0E94222A19012A013B014A
:102CD0004C01AF8C1C85110F110BBC84C12ED12E61
:102CE000E12EF12E012F2AA139A149815A816B8150
:102CF0007C818D819E810E94222A01E10E94522BBB
:102D000059016A017B018C019101A201B301C40147
:102D10000E94892B19012A013B014C014F815885E2
:102D200069857A8584E075956795579547958A9565
:102D3000D1F780E090E0A0E1B0E0841B950BA60BFA
:102D4000B70B6C017D01FF0CCC08DC2C76019C01DB
:102D5000AD016C2D7C2D8C2D9C2D0FE10E94522BF2
:102D6000F901B42FA52F6C837D8389839A8328A1D1
:102D70009D85990F990B3D85492F592F692F792FE3
:102D8000892F03E20E94522B59016A017B018C01B9
:102D90009101A201B301C4010E94892B59016A016A
:102DA0007B018C019F014B2F5A2F6C817D81898182
:102DB0009A810E94922B4901542E652EB62FA72F7F
:102DC000F82FE92F03E00E94522B5401C52CD62C7A
:102DD000EB2EFA2E0F2F1E2F0E94922B59016A0103
:102DE0007B01782E192F03E00E94522B072D0E94A1
:102DF000922B03E00E94522B5401C52CD62CEB2EB3
:102E0000FA2E0F2F1E2F0E94922B02E00E94522BAF
:102E10000F2F0E94922B01E00E94522B0F2F0E9435
:102E2000922BAE84BF84C888D988EA88FB880C8935
:102E30001D890E947D2A2B873F8349835A836B8398
:102E40007C838D839E830DE00E946B2B922E832EBC
:102E5000742E652E562E472E382E292E3091500373
:102E600020914F03932F990F990BA92CB82CC72CA5
:102E7000D62CE52CF42C032D122D492F592F692F18
:102E8000792F892F0E94222A0E94222A09E10E947A
:102E90006B2B59016A017B018C012B853F81498194
:102EA0005A816B817C818D819E810E94892B1901C1
:102EB0002A013B014C0130914E0320914D03932F89
:102EC000990F990BAB84BF80C980DA80EB80FC80BE
:102ED0000D811E81492F592F692F792F892F0E942B
:102EE000222A03E10E946B2B59016A017B018C01AC
:102EF0009101A201B301C4010E94892B08E00E9444
:102F00006B2B522E632E742E852E962EF72FE82FC4
:102F1000B92F30914C0320914B03932F990F990BAC
:102F2000492F592F692F792F892F04E00E94522BA6
:102F300059016A017B018C01252D362D472D582D15
:102F4000692D7F2F8E2F9B2F0E94892B0E94A726F1
:102F500020E030E040E85BE30E94B22708C060E078
:102F600070E080EC9FE703C060E070E0CB01A296C8
:102F70000FB6F894DEBF0FBECDBFDF91CF911F918A
:102F80000F91FF90EF90DF90CF90BF90AF909F9008
:102F90008F907F906F905F904F903F902F9008950B
:102FA0008F929F92AF92BF92CF92DF92EF92FF9259
:102FB0008AEF0E948812EDE5F3E0458556854A01C7
:102FC000A12CB12CC72ED82EE92EFF24E7FCFA94B1
:102FD000C818D908EA08FB08DC01CB0137E0B59531
:102FE000A795979587953A95D1F7B501A401440F18
:102FF000551F661F771F4C015D01841A950AA60AAA
:10300000B70AA5019401A785B0890E941A2A4B012D
:103010005C013BE0B594A794979487943A95D1F7D7
:10302000A7019601C701B6010E94A4299B01AC012A
:103030006CE055954795379527956A95D1F7A18905
:10304000B2890E941A2ADC01CB017EE0B595A795D2
:10305000979587957A95D1F7A5019401280F391F87
:103060004A1F5B1F2583368347835087A5E0B0E066
:103070000E940F2ADC01CB0180589F4FAF4FBF4FFA
:10308000692F7A2F8B2F992787FD9A950E94AF265B
:1030900020E030E048EC52E40E94FF25FF90EF90E2
:1030A000DF90CF90BF90AF909F908F9008952F9218
:1030B0003F924F925F926F927F928F929F92AF92C8
:1030C000BF92CF92DF92EF92FF920F931F93CF9315
:1030D000DF93CDB7DEB7A2970FB6F894DEBF0FBE71
:1030E000CDBF0E94D01787EF0E9488126A8F7B8F16
:1030F0008C8F9D8F8091620390916303A0916403F4
:10310000B09165036C017D01FF0CCC08DC2C7601CD
:103110009C01AD016C2D7C2D8C2D9C2D345F41408C
:10312000510961097109810991092AA339A34983C8
:103130005A836B837C838D839E8359016A017B0153
:103140008C010E94222A2A8B3B8B4C8B5D8B6E8BD1
:103150007F8B888F998F80917A038E8FE0917B038C
:10316000EF83F0917803FF8F809179038887E09156
:103170007603E8A3F0917703F987B0907303A090EA
:1031800072031B2D110F110BC12ED12EE12EF12E2A
:10319000012F2AA139A149815A816B817C818D81BE
:1031A0009E810E94222A0CE00E94522B19012A01C2
:1031B0003B014C01B0907503A09074031B2D110FBF
:1031C000110BC12ED12EE12EF12E012F2A893B8920
:1031D0004C895D896E897F89888D998D0E94222A0C
:1031E00008E00E946B2B51016201730184010E946F
:1031F000892B70588F4F9F4F209070033090710330
:103200005101C12CD12CE12CF12C00E010E00E94E6
:10321000222A01E20E946B2B2A873B874C875D871D
:103220006E877F87888B998BA0E00E949B2B09F487
:103230005EC1AE8C1F81110F110BBF80C12ED12E2C
:10324000E12EF12E012F2A893B894C895D896E89F7
:103250007F89888D998D0E94222A19012A013B01BC
:103260004C01AF8C1885110F110BB884C12ED12ED3
:10327000E12EF12E012F2AA139A149815A816B81BA
:103280007C818D819E810E94222A01E10E94522B25
:1032900059016A017B018C019101A201B301C401B2
:1032A0000E94892B19012A013B014C014A8D5B8D3B
:1032B0006C8D7D8D84E075956795579547958A95BA
:1032C000D1F780E090E0A0E1B0E0841B950BA60B65
:1032D000B70B6C017D01FF0CCC08DC2C76019C0146
:1032E000AD016C2D7C2D8C2D9C2D0FE10E94522B5D
:1032F000F901B42FA52F6C837D8389839A8328A13C
:103300009985990F990B3985492F592F692F792F55
:10331000892F03E20E94522B59016A017B018C0123
:103320009101A201B301C4010E94892B59016A01D4
:103330007B018C019F014B2F5A2F6C817D818981EC
:103340009A810E94922B4901542E652EB62FA72FE9
:10335000F82FE92F03E00E94522B5401C52CD62CE4
:10336000EB2EFA2E0F2F1E2F0E94922B59016A016D
:103370007B01782E192F03E00E94522B072D0E940B
:10338000922B03E00E94522B5401C52CD62CEB2E1D
:10339000FA2E0F2F1E2F0E94922B02E00E94522B1A
:1033A0000F2F0E94922B01E00E94522B0F2F0E94A0
:1033B000922BAA84BB84CC84DD84EE84FF840889AC
:1033C00019890E947D2A28873F8349835A836B830A
:1033D0007C838D839E830DE00E946B2B922E832E27
:1033E000742E652E562E472E382E292E30918103AD
:1033F00020918003932F990F990BA92CB82CC72CDF
:10340000D62CE52CF42C032D122D492F592F692F82
:10341000792F892F0E94222A0E94222A09E10E94E4
:103420006B2B59016A017B018C0128853F81498101
:103430005A816B817C818D819E810E94892B19012B
:103440002A013B014C0130917F0320917E03932F91
:10345000990F990BA884BF80C980DA80EB80FC802B
:103460000D811E81492F592F692F792F892F0E9495
:10347000222A03E10E946B2B59016A017B018C0116
:103480009101A201B301C4010E94892B08E00E94AE
:103490006B2B522E632E742E852E962EF72FE82F2F
:1034A000B92F30917D0320917C03932F990F990BB5
:1034B000492F592F692F792F892F04E00E94522B11
:1034C00059016A017B018C01252D362D472D582D80
:1034D000692D7F2F8E2F9B2F0E94892B0E94A7265C
:1034E00020E030E040E85BE30E94B22703C060E0E8
:1034F00070E0CB01A2960FB6F894DEBF0FBECDBF31
:10350000DF91CF911F910F91FF90EF90DF90CF90BF
:10351000BF90AF909F908F907F906F905F904F90F3
:103520003F902F900895CF93DF93CDB7DEB7E0970C
:103530000FB6F894DEBF0FBECDBF789484B582601D
:1035400084BD84B5816084BD85B5826085BD85B547
:10355000816085BD80916E00816080936E001092C5
:103560008100809181008260809381008091810040
:1035700081608093810080918000816080938000D1
:103580008091B10084608093B1008091B00081602F
:103590008093B00080917A00846080937A0080915B
:1035A0007A00826080937A0080917A008E7F809387
:1035B0007A0080917A00806880937A001092C1002E
:1035C00061E08DE00E94290461E08DE00E94F90332
:1035D00061E083E00E94290460E083E00E94F90337
:1035E00080912C0190912D01909301018093000115
:1035F0006DEC71E08BED91E00E94010B83EC91E0AA
:103600009093660280936502109286021092850262
:103610001092C6021092C5021092A50289E0809312
:10362000A60281E090E0909364028093630261E0DF
:1036300083E00E94F90361E083E00E94290445E2EF
:10364000E42E41E0F42EF70184918093500201E1D1
:1036500011E0F801849190E0880F991F8C5F9E4FD4
:10366000FC0125913491309352022093510260E085
:1036700083E00E94290461E083E00E94F90383E073
:1036800080934C02F701E490E0924D02F80104911E
:10369000E02FF0E0EE0FFF1FE650FF4F8591949171
:1036A00090934F0280934E0281E08093560287EC04
:1036B00090E0909362028093610222E530E03093C3
:1036C0005A022093590225EC30E030935C0220939B
:1036D0005B024FE152E050935E0240935D023093F3
:1036E000600220935F0220916800246020936800AC
:1036F0002DE630E0309354022093530228E02093CB
:1037000055020197F1F70E94D30A0E94C10A80E096
:1037100090E00E947725282F30E030932F012093EE
:103720002E01823020F010922F0110922E0181E0A4
:1037300090E00E947725282F30E0309329012093D4
:103740002801833020F01092290110922801009165
:1037500028011091290110935F0100935E0180916F
:103760002E0190912F01892B09F069C066EB71E061
:1037700088EB91E00E94710A803188F490E0FC01AE
:10378000EE0FFF1FEB53FD4F24E331E03183208325
:10379000880F991FFC01EB55FD4F88E280836BEA8F
:1037A00071E08DEA91E00E94710A803188F490E026
:1037B000FC01EE0FFF1FEB53FD4F20E331E031839F
:1037C0002083880F991FFC01EB55FD4F88E0808313
:1037D00061EA71E085EA91E00E94710A803188F423
:1037E00090E0FC01EE0FFF1FEB53FD4F28E331E0AB
:1037F00031832083880F991FFC01EB55FD4F88E42E
:10380000808364E971E088E991E00E94710A803167
:1038100088F490E0FC01EE0FFF1FEB53FD4F22E513
:1038200031E031832083880F991FFC01EB55FD4F58
:1038300088E4808365E871E088E891E068C067E724
:1038400071E08AE791E00E94710A803188F490E08B
:10385000FC01EE0FFF1FEB53FD4F24E331E03183FA
:103860002083880F991FFC01EB55FD4F88E2808370
:103870006BE671E08EE691E00E94710A803188F477
:1038800090E0FC01EE0FFF1FEB53FD4F20E331E012
:1038900031832083880F991FFC01EB55FD4F88E091
:1038A000808360E671E085E691E00E94710A8031D4
:1038B00088F490E0FC01EE0FFF1FEB53FD4F28E36F
:1038C00031E031832083880F991FFC01EB55FD4FB8
:1038D00088E4808362E571E087E591E00E94710AE7
:1038E000803188F490E0FC01EE0FFF1FEB53FD4F99
:1038F00022E531E031832083880F991FFC01EB55CD
:10390000FD4F88E4808363E471E086E491E00E94E7
:10391000710A803188F490E0FC01EE0FFF1FEB5339
:10392000FD4F26E531E031832083880F991FFC018C
:10393000EB55FD4F88E280830130110509F03CC151
:1039400066E371E08AE391E00E94710A803188F4B5
:1039500090E0FC01EE0FFF1FEB53FD4F2EE431E032
:1039600031832083880F991FFC01EB55FD4F88E2BE
:10397000808387E780932C0384E392E090932B036A
:1039800080932A03809135038F3F29F484E392E0EA
:103990000E94D0061CC061E00E94F90361E08091A2
:1039A00035030E942904809138038F3F19F40E9447
:1039B000F5040DC061E00E94290461E080913603A6
:1039C0000E94290460E0809137030E94290480ED61
:1039D0000E949C09803609F0F5C066EB80EE0E94DB
:1039E00048096CE271E080E090E00E94650483EF9A
:1039F0000E949C0980FF05C064E670E080E090E0D2
:103A0000F4CF88E80E946B0A90933A0380933903BD
:103A10008AE80E946B0A90933C0380933B038CE8F6
:103A20000E946B0A90933E0380933D038EE80E94B0
:103A30006B0A9093400380933F0380E90E946B0AD6
:103A4000909342038093410382E90E946B0A909312
:103A500044038093430384E90E946B0A90934603D6
:103A60008093450386E90E946B0A909348038093F4
:103A7000470388E90E946B0A90934A0380934903A5
:103A80008AE90E946B0A90934C0380934B038CE964
:103A90000E946B0A90934E0380934D038EE90E941F
:103AA0006B0A9093500380934F0381EA0E949C0914
:103AB0008093510381EE0E946B0A9093530380938D
:103AC000520383EE0E949C098093540384EE0E946B
:103AD0009C09182F85EE0E949C09282F2F70F0E179
:103AE0001F9FC0011124822B90935603809355038E
:103AF00086EE0E949C09182F85EE0E949C0990E09A
:103B0000F4E095958795FA95E1F740E1149F9001CF
:103B10001124822B932B909358038093570387EEA5
:103B20000E949C09809359038DEE80935B038091E2
:103B30005C038F71806A80935C0380915A03807C60
:103B400080935A0365E082EF0E94480990915A03DE
:103B5000692F677050E2659F90011124892F869527
:103B6000869586958770E8E08E9FB0011124622BC0
:103B7000732B97FB992790F9692B85EF0E944809D1
:103B800090915B03692F6770F0E26F9F90011124A1
:103B9000892F869586958695877048E0849FB00129
:103BA0001124622B732B9295969596959370692BA1
:103BB00084EF0E94480906C00230110509F49CC632
:103BC0000E94B8070E942A0D60E08DE00E94F90370
:103BD000E0E02E2EE0E03E2E80915E0190915F01AC
:103BE000892B09F050C00E94571820E030E048ECC3
:103BF00052E40E94FF2520E030E54DE754E40E94A6
:103C0000FF2521E03EED42E45EE30E941F289B0178
:103C1000AC0160E070E080E89FE30E948D2520E029
:103C20003AE24DE257E40E94B22720E030E048EC4F
:103C300052E40E94B2270E94712660935A01709349
:103C40005B0180935C0190935D010E94D01720E09E
:103C500030E040E251E40E94B2270E947126609356
:103C600056017093570180935801909359010E9417
:103C700057180E94712660935201709353018093EC
:103C800054019093550180915E0190915F010197DD
:103C900009F049C10E94891520E030E048EC52E467
:103CA0000E94FF2520E030E54DE754E40E94FF2507
:103CB00021E03EED42E45EE30E941F289B01AC013F
:103CC00060E070E080E89FE30E948D2520E03AE20A
:103CD0004DE257E40E94B22720E030E048EC52E485
:103CE0000E94B2270E94712660935A0170935B0173
:103CF00080935C0190935D010E94EE1420E030E01F
:103D000040E251E40E94B2270E947126609356015E
:103D10007093570180935801909359010E9489151F
:103D20000E94712660935201709353018093540155
:103D3000909355010E94EE148DEF0E94F5096C01DD
:103D4000E12CF12CC11450E8D506E104F10409F48A
:103D5000D6C08090310390903203A0903303B0908E
:103D600034038CE2981A81E0A80AB1085EE0CC0C1A
:103D7000DD1CEE1CFF1C5A95D1F7809155039091E4
:103D80005603092E000CAA0BBB0B64E1880F991F88
:103D9000AA1FBB1F6A95D1F7C81AD90AEA0AFB0AFB
:103DA000A0915703B0915803A50194010E941A2ACB
:103DB000C61AD70AE80AF90A90E4D90EE11CF11CE8
:103DC0007FE0F594E794D794C7947A95D1F7A091C2
:103DD00059030A2E000CBB0B0E941A2A2B013C012E
:103DE000EAE07594679457944794EA95D1F7A091C7
:103DF0005403B0E00E940F2ADC01CB01FBE0B59533
:103E0000A79597958795FA95D1F7BC01CD01705884
:103E10008F4F9F4FA30192010E94A429DC01CB0187
:103E20001AE0B595A795979587951A95D1F79C01B6
:103E3000AD01405E5F4FA0915203B09153030E94C9
:103E40001A2ADC01CB01905EAF4FBF4FBC01CD0100
:103E50000EE095958795779567950A95D1F7A70117
:103E600096010E94A4296B017C012FE0959587950E
:103E7000779567952A95D1F79B01AC010E94A429FB
:103E80009B01AC0167E055954795379527956A9555
:103E9000D1F7A0915103B0E00E940F2ADC01CB01C1
:103EA00074E0B595A795979587957A95D1F7C81A37
:103EB000D90AEA0AFB0AF7FE03C0C12CD12C76010D
:103EC000D701C601E1E0CE16D104E104E9E1FE0626
:103ED00024F080E090E0A0E0B9E1BC01CD014CE02D
:103EE00095958795779567954A95D1F70E94AF2666
:103EF00020E030E040E85AE30E94B22704C060E0CE
:103F000070E080EC9FE720E030E040E251E40E9466
:103F1000B2270E94712660934E0170934F018093E7
:103F200050019093510180915E0190915F01029741
:103F300009F0A1C00E940D130E94AF2620E030E5D9
:103F40004DE754E40E94FF2521E03EED42E45EE3AC
:103F50000E941F289B01AC0160E070E080E89FE3B5
:103F60000E948D2520E03AE24DE257E40E94B227FC
:103F700020E030E048EC52E40E94B2270E94712613
:103F800060935A0170935B0180935C0190935D0193
:103F90000E947B0BAC0160E070E08091280390915F
:103FA00029039A01AB01281B390B41095109A09142
:103FB0002603B09127030E940F2A6B017C018FE03A
:103FC000F594E794D794C7948A95D1F7609120032C
:103FD00070912103CB01770FAA0BBB0BBC01CD0164
:103FE0002BE0660F771F881F991F2A95D1F7209124
:103FF0002203309123038901330F220B330BA901D4
:1040000098012C0D3D1D4E1D5F1D0E94EA29D70110
:10401000C601820F931FA41FB51F0896A11DB11DD5
:10402000BC01CD0134E095958795779567953A95D4
:10403000D1F70E94AF2620E030E040E251E40E9438
:10404000FF2520E030E040E251E40E94B2270E94C8
:104050007126609356017093570180935801909395
:1040600059010E940D136093520170935301809384
:1040700054019093550100914C0110914D01C09055
:104080005A01D0905B01E0905C01F0905D01093035
:10409000110581F4C0924801D0924901E0924A0191
:1040A000F0924B011092440110924501109246018A
:1040B000109247018091400190914101A0914201ED
:1040C000B0914301A7019601281B390B4A0B5B0BEA
:1040D000CA01B9010E94AF264B015C010E949F04F6
:1040E00040903C0150903D0160903E0170903F0136
:1040F00064197509860997090E94AD269B01AC01D8
:1041000060E070E08AE794E40E94FF259B01AC0127
:10411000C501B4010E94B2270E9471266093380144
:104120007093390180933A0190933B010E949F0460
:1041300060933C0170933D0180933E0190933F0159
:10414000C0924001D0924101E0924201F0924301BD
:10415000609138017091390180913A0190913B0151
:104160000E94AF262B013C012EEA37E441E65FE3D3
:104170006091440170914501809146019091470101
:104180000E94B2274B015C012AE939E949E15EE36B
:10419000C301B2010E94B2279B01AC01C501B40169
:1041A0000E948E25609344017093450180934601DF
:1041B000909347010E9471266A317105810591052E
:1041C00034F0DC01CB014997A109B1090BC0673E6E
:1041D0003FEF73078307930774F4DC01CB01499623
:1041E000A11DB11D8093380190933901A0933A012C
:1041F000B0933B0108C0109238011092390110921F
:104200003A0110923B018091480190914901A0919F
:104210004A01B0914B01A7019601281B390B4A0BAB
:104220005B0BCA01B9012AE030E040E050E00E9497
:10423000EA2920933401309335014093360150939D
:104240003701C701B60124E630E040E050E00E94AB
:10425000EA29209330013093310140933201509389
:1042600033010A301105F4F40F5F1F4F10934D0115
:1042700000934C01109238011092390110923A01CA
:1042800010923B01109234011092350110923601C8
:1042900010923701109230011092310110923201C8
:1042A0001092330180912E0190912F01019709F016
:1042B00088C06091340170913501809136019091F0
:1042C00037010E94AF262FEB3EE04CE95EE30E94EF
:1042D000FF250E947126609334017093350180930D
:1042E00036019093370160913001709131018091D6
:1042F0003201909133010E94AF262FEB3EE04CE952
:104300005EE30E94FF250E94712660933001709346
:1043100031018093320190933301609138017091A3
:10432000390180913A0190913B010E94AF262FEB19
:104330003EE04CE95EE30E94FF250E9471266093F7
:1043400038017093390180933A0190933B01609159
:1043500052017091530180915401909155010E9436
:10436000AF262DED38EE41EF5CE30E94B2270E94AC
:10437000712660935201709353018093540190937E
:1043800055016091560170915701809158019091AB
:1043900059010E94AF2626E636E646EE5FE30E940C
:1043A000B22720E030E040E052E40E948E250E94D7
:1043B0007126609356017093570180935801909332
:1043C0005901E0912C01F0912D01E630F10521F029
:1043D00010922B0110922A0180910001909101010D
:1043E0008E179F0721F0F0930101E0930001E83060
:1043F000F10508F051C1EC5CFF4F0C94092A60EC08
:1044000072E08EEC92E00E94010B46C119A2198A5B
:1044100068EB72E0CE0181960E942E251982609190
:1044200034017091350180913601909137010E94DD
:10443000AF2620E030E040E251E40E94FF25AB01CE
:10444000BC0121E030E0CE0101960E94AA0BBE0122
:104450006F5F7F4FCE0181960E94CF2B80912E01FE
:1044600090912F01019719F465EB72E002C063EBA4
:1044700072E0CE0181960E942E256BEA72E0CE0199
:1044800041960E942E251982609138017091390160
:1044900080913A0190913B010E94AF2620E030E0EC
:1044A00048EC52E40E94FF25AB01BC0122E030E061
:1044B000CE0101960E94AA0BBE016F5F7F4FCE0115
:1044C00041960E94CF2B80912E0190912F01019750
:1044D00019F466EA72E0D5C062EA72E0D2C019A2AD
:1044E000198A6BE972E0CE0181960E942E2519820D
:1044F0006091560170915701809158019091590136
:104500000E94AF2620E030E040E251E40E94FF2507
:10451000AB01BC0121E030E0CE0101960E94AA0B64
:10452000BE016F5F7F4FCE0181960E94CF2B80919D
:104530002E0190912F01019719F468E972E002C0F1
:1045400065E972E0CE0181960E942E256EE872E048
:10455000CE0141960E942E251982609152017091E0
:10456000530180915401909155010E94AF2620E0A3
:1045700030E048EC52E40E94FF25AB01BC0121E091
:1045800030E0CE0101960E94AA0BBE016F5F7F4F03
:10459000CE0141960E94CF2B80912E0190912F0148
:1045A000019719F469E872E06CC065E872E069C0CF
:1045B00019A2198A66E772E0CE0181960E942E2523
:1045C0006DE672E05EC019A2198A64E672E0CE015F
:1045D00081960E942E2580912E0190912F010197A6
:1045E00019F461E672E002C06EE572E0CE018196D8
:1045F0000E942E2563E572E044C019A2198A6AE47C
:1046000072E0CE0181960E942E2580912801909122
:104610002901892B31F463E472E0CE0181960E9476
:104620002E258091280190912901019731F46CE3A6
:1046300072E0CE0181960E942E25809128019091F2
:104640002901029731F465E372E0CE0181960E9460
:104650002E256AE272E015C019A2198A69E172E09A
:10466000CE0181960E942E256AE072E00AC019A24E
:10467000198A6BEF71E0CE0181960E942E256BEEB8
:1046800071E0CE0141960E942E25BE016F5E7F4FE4
:10469000CE0181960E94370B80E492E00E9496073B
:1046A0000E94C10A0E942A0D60E080914C020E9483
:1046B000290461E080914C020E94F9030E94D30A10
:1046C0000E94D30A0E949F046B017C0134E6C30E52
:1046D000D11CE11CF11C00E010E00E949F046C154D
:1046E0007D058E059F0578F580E492E00E94060323
:1046F0001816190694F780E492E00E940603181633
:10470000190614F000E01AC080E492E00E941D0334
:10471000082F80910C038013D2C08090E702909004
:10472000E802A090E902B090EA020E949F04861677
:104730009706A806B90608F4C2C0E4CF10E0011538
:10474000110559F2D4C0003F110509F4B1C001159B
:10475000110509F4ADC00039110509F48EC024F427
:104760000037110591F0A4C0003B110539F1003E5E
:10477000110509F09DC080912C0190912D0186308A
:10478000910509F495C0019614C080912C01909177
:104790002D01079731F481E090E090932D018093F3
:1047A0002C0180912C0190912D01009709F480C07B
:1047B000019790932D0180932C017AC080912C0158
:1047C00090912D010397B1F480915A0190915B0172
:1047D000A0915C01B0915D018093480190934901E3
:1047E000A0934A01B0934B0146E050E050932D0155
:1047F00040932C0180912C0190912D010497B9F4E4
:1048000080912E0190912F01892B39F481E090E065
:1048100090932F0180932E0104C010922F011092CB
:104820002E0184E090E090932D0180932C018091E3
:104830002C0190912D010597D9F580912801909137
:104840002901009719F481E090E005C081309105BD
:1048500039F482E090E0909329018093280106C00A
:10486000029721F41092290110922801E5E0F0E06E
:10487000F0932D01E0932C011BC080912C019091AD
:104880002D010697A9F460912E0180E090E00E942E
:104890007F256091280181E090E00E947F2564E6F9
:1048A00070E080E090E00E946504E0E0F0E00995AF
:1048B0002114310409F490C90E94000089C90E94A2
:1048C0009F04DC01CB0180579E4FAF4FBF4F8093B9
:1048D000E7029093E802A093E902B093EA02009302
:1048E0000C03003F09F02ACF00EF10E0F6CE003FA6
:1048F000110509F030CFDCCF83E08093130384E30C
:1049000092E00E94D00680ED0E94E308853509F010
:1049100059C98AEA0E94B40890931503809314033E
:104920008CEA0E94B40890931703809316038EEAD2
:104930000E94B408909319038093180380EB0E949F
:10494000B408909325038093240382EB0E94B4085B
:10495000909327038093260384EB0E94B4089093DE
:1049600029038093280386EB0E94B40890931B03CD
:1049700080931A0388EB0E94B40890931D038093E0
:104980001C038AEB0E94B40890931F0380931E03BC
:104990008CEB0E94B40890932103809320038EEB4C
:1049A0000E94B40890932303809322030BC989E1EA
:1049B00091E0909341028093400280E492E00C9455
:1049C0009607E4E3F2E01382128288EE93E0A0E01F
:1049D000B0E084839583A683B78327E031E03183F9
:1049E0002083E0E4F2E01382128284839583A6831D
:1049F000B78389E191E091838083A7E5B2E08C9150
:104A00008E7F8C93128E118E148E138E168E158EB1
:104A100012A211A2EDE5F3E08FEF818782878387F1
:104A20008487EAE2F3E0838784878587868710920C
:104A3000E7021092E8021092E9021092EA02109244
:104A4000E50210926402109263021092E60280EE78
:104A500092E090931203809311030895FB01DC010F
:104A60000D900020E9F7119705900D920020E1F7D5
:104A70000895FC0105900020E9F7809590958E0F30
:104A80009F1F0895BB274A3031F4992322F4BDE2D9
:104A9000909581959F4F0C944E25BB27FB01552780
:104AA000AA27880F991FAA1FA41710F0A41B83958B
:104AB0005051B9F7A05DAA3308F0A95DA193009702
:104AC00079F7B111B1931192CB010C946725DC01F8
:104AD000FC01672F71917723E1F7329704C07C9135
:104AE0006D9370836291AE17BF07C8F30895F9996B
:104AF000FECF92BD81BDF89A992780B50895262FE3
:104B0000F999FECF1FBA92BD81BD20BD0FB6F894B2
:104B1000FA9AF99A0FBE019608955058BB27AA2712
:104B20000E94A5250C9473270E94652738F00E94E7
:104B30006C2720F039F49F3F19F426F40C94522787
:104B40000EF4E095E7FB0C944C27E92F0E94842794
:104B500058F3BA17620773078407950720F079F4B2
:104B6000A6F50C94A6270EF4E0950B2EBA2FA02DD7
:104B70000B01B90190010C01CA01A0011124FF270A
:104B8000591B99F0593F50F4503E68F11A16F04005
:104B9000A22F232F342F4427585FF3CF4695379504
:104BA0002795A795F0405395C9F77EF41F16BA0BC9
:104BB000620B730B840BBAF09150A1F0FF0FBB1F77
:104BC000661F771F881FC2F70EC0BA0F621F731FC0
:104BD000841F48F4879577956795B795F7959E3F1D
:104BE00008F0B0CF9395880F08F09927EE0F9795AE
:104BF000879508950E94282708F481E008950E946F
:104C000013260C9473270E946C2758F00E94652786
:104C100040F029F45F3F29F00C944C2751110C947B
:104C2000A7270C9452270E94842768F39923B1F395
:104C3000552391F3951B550BBB27AA2762177307C2
:104C4000840738F09F5F5F4F220F331F441FAA1F56
:104C5000A9F335D00E2E3AF0E0E832D09150504012
:104C6000E695001CCAF72BD0FE2F29D0660F771FC0
:104C7000881FBB1F261737074807AB07B0E809F0A6
:104C8000BB0B802DBF01FF2793585F4F3AF09E3F2B
:104C9000510578F00C944C270C94A7275F3FE4F360
:104CA000983ED4F3869577956795B795F7959F5F6E
:104CB000C9F7880F911D9695879597F90895E1E0BA
:104CC000660F771F881FBB1F621773078407BA0719
:104CD00020F0621B730B840BBA0BEE1F88F7E09574
:104CE00008950E9478266894B1110C94A72708951E
:104CF0000E948C2788F09F5798F0B92F9927B751B9
:104D0000B0F0E1F0660F771F881F991F1AF0BA956F
:104D1000C9F714C0B13091F00E94A627B1E0089500
:104D20000C94A627672F782F8827B85F39F0B93FF2
:104D3000CCF3869577956795B395D9F73EF4909522
:104D40008095709561957F4F8F4F9F4F089597FB8A
:104D500016F40E9455270C94EB26E89409C097FBA3
:104D60003EF490958095709561957F4F8F4F9F4F42
:104D70009923A9F0F92F96E9BB279395F695879586
:104D800077956795B795F111F8CFFAF4BB0F11F449
:104D900060FF1BC06F5F7F4F8F4F9F4F16C08823F0
:104DA00011F096E911C0772321F09EE8872F762F26
:104DB00005C0662371F096E8862F70E060E02AF067
:104DC0009A95660F771F881FDAF7880F9695879553
:104DD00097F90895E894F92F96EBFF2381F01216C6
:104DE00013061406440B9395F6958795779567956A
:104DF00057954040FF23B9F71BC099270895882392
:104E000051F49850D2F7872B762F652F542F432FCC
:104E1000322F20E0B1F3121613061406440B882338
:104E20003AF09A95440F551F661F771F881FCAF7DF
:104E300055234AF4440F551F11F460FF04C06F5FFF
:104E40007F4F8F4F9F4F880F9695879597F90895BD
:104E5000990F0008550FAA0BE0E8FEEF161617068B
:104E6000E807F907C0F012161306E407F50798F0F3
:104E7000621B730B840B950B39F40A2661F0232B0C
:104E8000242B252B21F408950A2609F4A140A69588
:104E90008FEF811D811D089597F99F6780E870E06D
:104EA00060E008959FEF80EC08959095809570954F
:104EB000609550954095309521953F4F4F4F5F4FEE
:104EC0006F4F7F4F8F4F9F4F089500240A941616FF
:104ED000170618060906089500240A9412161306E8
:104EE000140605060895092E0394000C11F4882376
:104EF00052F0BB0F40F4BF2B11F460FF04C06F5F92
:104F00007F4F8F4F9F4F089557FD9058440F551F67
:104F100059F05F3F71F04795880F97FB991F61F03B
:104F20009F3F79F087950895121613061406551FB2
:104F3000F2CF4695F1DF08C0161617061806991F1E
:104F4000F1CF86957105610508940895E894BB2713
:104F500066277727CB0197F908950E94282708F440
:104F60008FEF08950E94C5270C9473270E94652730
:104F700038F00E946C2720F0952311F00C944C27F8
:104F80000C94522711240C94A7270E94842770F3B5
:104F9000959FC1F3950F50E0551F629FF001729FDE
:104FA000BB27F00DB11D639FAA27F00DB11DAA1FED
:104FB000649F6627B00DA11D661F829F2227B00D3A
:104FC000A11D621F739FB00DA11D621F839FA00DC5
:104FD000611D221F749F3327A00D611D231F849F15
:104FE000600D211D822F762F6A2F11249F5750406C
:104FF0009AF0F1F088234AF0EE0FFF1FBB1F661FE7
:10500000771F881F91505040A9F79E3F510580F0AF
:105010000C944C270C94A7275F3FE4F3983ED4F3FD
:10502000869577956795B795F795E7959F5FC1F753
:10503000FE2B880F911D9695879597F90895FA0193
:10504000EE0FFF1F309621053105A1F161157105A5
:1050500061F48038BFE39B0749F16894903881057B
:1050600061F08038BFEF9B0741F099234AF5FF3F7D
:10507000E1053105210519F1E8940894E795D90176
:10508000AA2329F4AB2FBE2FF85FD0F310C0FF5F27
:1050900070F4A695E0F7F73950F019F0FF3A38F4BC
:1050A0009F779F930DD00F9007FC9058089546F07E
:1050B0000C94522760E070E080E89FE308954FE78A
:1050C0009F775F934F933F932F930E941A292F91BD
:1050D0003F914F915F910E94B2270C94772829F459
:1050E00016F00C944C270C94A6270C9452270E947F
:1050F0008C27A8F39638A0F707F80F92E8942BE3D3
:105100003AEA48EB5FE70E94C8270F920F920F928E
:105110004DB75EB70F920E946229E8E7F0E00E9467
:10512000A9284F915F91EF91FF91E595EE1FFF1F29
:1051300049F0FE57E0684427EE0F441FFA95E1F767
:105140004195550B0E94DC280F9007FE0C94D02847
:105150000895DF93CF931F930F93FF92EF92DF9207
:105160007B018C01689406C0DA2EEF010E94C527EE
:10517000FE01E894A5912591359145915591A6F3AD
:10518000EF010E94A525FE019701A801DA9469F7B5
:10519000DF90EF90FF900F911F91CF91DF910895D5
:1051A0009B01AC0160E070E080E89FE30C94FF2578
:1051B0000C944C270C9496290E948C27D8F39923A1
:1051C000C9F3940F511DA3F39150504094F059F03E
:1051D000882332F0660F771F881F91505040C1F727
:1051E0009E3F51052CF7880F911D9695879597F94D
:1051F00008955F3FACF0983E9CF0BB27869577956D
:105200006795B79508F4B1609395C1F7BB0F58F750
:1052100011F460FFE8CF6F5F7F4F8F4F9F4FE3CF59
:105220000C94A72716F00C9496290C945227689496
:105230000C944C270E948C27A8F39923C1F3AEF35A
:10524000DF93CF931F930F93FF92C92FDD278823FE
:105250002AF02197660F771F881FDAF720E030E0E9
:1052600040E85FEB9FE3883920F0803E38F02196DC
:105270008F770E948E25E0EAF0E004C00E948E2520
:10528000EDECF0E00E94A9288B01BE01EC01FB2EA1
:105290006F5771097595771F880B990B0E94AF2680
:1052A00028E132E741E35FE30E94C527AF2D980173
:1052B000AE01FF900F911F91CF91DF910E94A52524
:1052C0000C947327FA01DC01AA0FBB1F9B01AC01F0
:1052D000BF5728F4222733274427507820C0B751DE
:1052E00090F4AB2F0024469537952795011CA39584
:1052F000D2F3002071F0220F331F441FB395DAF36D
:105300000ED00C948D2561307105A0E88A07B9464E
:1053100030F49B01AC016627772788279078309678
:1053200021F0208331834283538308959F3F31F0DE
:10533000915020F4879577956795B795880F911DC3
:105340009695879597F90895DB018F939F930E9417
:105350000F2ABF91AF91A29F800D911DA39F900D29
:10536000B29F900D1124089597FB072E16F4009418
:1053700007D077FD09D00E94A72B07FC05D03EF48B
:10538000909581959F4F0895709561957F4F0895F1
:10539000A1E21A2EAA1BBB1BFD010DC0AA1FBB1F39
:1053A000EE1FFF1FA217B307E407F50720F0A21BAB
:1053B000B30BE40BF50B661F771F881F991F1A9418
:1053C00069F760957095809590959B01AC01BD0142
:1053D000CF010895052E97FB1EF400940E94012A28
:1053E00057FD07D00E94C82907FC03D04EF40C9447
:1053F000012A50954095309521953F4F4F4F5F4F73
:10540000089590958095709561957F4F8F4F9F4F30
:105410000895EE0FFF1F0590F491E02D09940E946E
:10542000BB2BA59F900DB49F900DA49F800D911D47
:1054300011240895B7FF0C940F2A0E940F2A821B93
:10544000930B0895DF93CF931F930F939A9DF02DA5
:10545000219FF00D8B9DF00D8A9DE02DF10D039F96
:10546000F00D029FE00DF11D4E9DE00DF11D5E9DC2
:10547000F00D4F9DF00D7F936F93BF92AF925F93AE
:105480004F93D5010E94BB2B8B01AC01D7010E9429
:10549000BB2BEB01E80FF91FD6010E94722A2F9156
:1054A0003F91D6010E94BB2BC60FD71FE81FF91FE3
:1054B000AF91BF910E94722A2F913F910E94BB2B06
:1054C000C60FD71FE81FF91FD6010E94BB2BE60F9E
:1054D000F71F9801BE01CF0111240F911F91CF91A9
:1054E000DF9108950E94BB2B460F571FC81FD91F7D
:1054F00008F431960895689401C0E894F92FF12BCF
:1055000012F00C94AF2AA0E0B0E0E9E8FAE20C94C3
:10551000212B092E059422F40E940B2B112392F4C7
:10552000F0E80F26FFEFE094F09400951095B0940A
:10553000C094D094A194BF0ACF0ADF0AEF0AFF0AF1
:105540000F0B1F0B0E94BA2A07FC0E940B2BCDB732
:10555000DEB7ECE00C943D2B689401C0E8948F9288
:105560009F92CF93DF930E94BA2ADF91CF919F90B1
:105570008F90089588249924F401E401B0E49F9366
:10558000AA279A158B049C04ED05FE05CF05D007CC
:10559000A10798F4AD2FDC2FCF2FFE2FE92D982CEB
:1055A000892E982F872F762F652F542F432F322F38
:1055B0002227B85031F7BF9127C01B2EBF91BB27C0
:1055C000220F331F441F551F661F771F881F991F07
:1055D000881C991CEE1FFF1FCC1FDD1FAA1FBB1FBD
:1055E0008A149B04EC05FD05CE05DF05A007B10775
:1055F00048F08A189B08EC09FD09CE09DF09A00BC9
:10560000B10B21601A94E1F62EF49401AF01BE01B2
:10561000CD01000C0895609570958095909530951A
:105620004095509521953F4F4F4F5F4F6F4F7F4FA4
:105630008F4F9F4F08952F923F924F925F926F929C
:105640007F928F929F92AF92BF92CF92DF92EF9212
:10565000FF920F931F93CF93DF93CDB7DEB7CA1B93
:10566000DB0B0FB6F894DEBF0FBECDBF09942A88BE
:10567000398848885F846E847D848C849B84AA8466
:10568000B984C884DF80EE80FD800C811B81AA81F3
:10569000B981CE0FD11D0FB6F894DEBF0FBECDBFBE
:1056A000ED0108950F93083090F0982F872F762FF3
:1056B000652F542F432F322F22270850F4CF220F6B
:1056C000331F441F551F661F771F881F991F0A9598
:1056D000B2F70F91089597FB10F8169400080F93F6
:1056E000083098F00850232F342F452F562F672F5E
:1056F000782F892F902DF4CF0594979587957795DE
:10570000679557954795379527950A95AAF70F916D
:1057100008952A0D3B1D4C1D5D1D6E1D7F1D801FB4
:10572000911F08952A193B094C095D096E097F09EB
:10573000800B910B08950024A7FD00942A173005D3
:105740004005500560057005800590050895AA1B69
:10575000BB1B51E107C0AA1FBB1FA617B70710F05C
:10576000A61BB70B881F991F5A95A9F7809590958E
:10577000BC01CD010895A29FB001B39FC001A39FBA
:10578000700D811D1124911DB29F700D811D11247A
:10579000911D089581E090E0F8940C94DA2BFB01C0
:1057A000DC010D900020E9F7119701900D92002087
:1057B000E1F7089511E0CFE7D1E004C0FE010E94B7
:0E57C000092A2196C038D107C9F7F894FFCF07
:1057CE0001000600000000B10281023F035502797C
:1057DE000265025602000000004403AA013F0305C1
:0857EE000306031D03ED020098
:00000001FF
