:100000000C940E020C9436020C9436020C946E0E74
:100010000C946E0E0C946E0E0C9436020C943602F8
:100020000C9436020C9436020C9436020C94360270
:100030000C9436020C9436020C9436020C94360260
:100040000C940C0C0C9436020C9436020C94360270
:100050000C9436020C9436020C9436020C94360240
:100060000C94900C0C9436027E2985297E2AE12A74
:10007000EC2A0A2B282B4A2B782B922BAA2BB52B58
:1000800007634236B79BD8A71A39685618AEBAAB81
:10009000558C1D3CB7CC5763BD6DEDFD753EF61715
:1000A0007231BF000000803F08000000BE9224496A
:1000B000123EABAAAA2ABECDCCCC4C3E000000809A
:1000C000BEABAAAAAA3E00000000BF000000803F0D
:1000D0000000000000084178D3BB4387D1133D19CD
:1000E0000E3CC3BD4282AD2B3E68EC8276BED98FFA
:1000F000E1A93E4C80EFFFBE01C4FF7F3F0000003E
:10010000000000000000230026002900000000007D
:10011000250028002B000404040404040404020243
:100120000202020203030303030301020408102076
:1001300040800102040810200102040810202572EA
:10014000480048756D69646974790066742F73009E
:10015000566172696F2052617700B0460054656D38
:10016000706572617475726500696E4847005072FF
:100170006573737572650066742F730056617269DA
:100180006F00667400416C74697475646500667410
:100190000052656C2E20416C746974006D2F7300E1
:1001A000566172696F2052617700B0430054656DEB
:1001B0007065726174757265006850610050726597
:1001C0007373757265006D2F7300566172696F00ED
:1001D0006D00416C746974756465006D0052656CE6
:1001E0002E20416C74697400524354205661726928
:1001F0006F0020566172696F6D6574657220312ED3
:10020000360020524354204A65746920546F6F6C45
:10021000730052657365743A20446F776E005265BF
:100220007365742044656661756C74730053617600
:10023000653A20446F776E005361766520616E6485
:100240002052657374617274004368616E67653A29
:1002500020446F776E004F6666004F6E00526177E4
:1002600020566172696F3A20004368616E67653A93
:1002700020446F776E004555286D2CDF43290055CB
:10028000532866742CDF462900556E6974733A2032
:1002900000466F756E64204C505300466F756E6457
:1002A000204D533536313100466F756E6420424D16
:1002B0004532383000466F756E6420424D503238FA
:1002C0003000466F756E6420424D503038352F3106
:1002D0003830004E6F742044657465637465642122
:1002E0000044657465637465642053656E736F7252
:1002F0003A004368616E67653A2055702F446F7706
:100300006E00446561647A6F6E653A2000436861EF
:100310006E67653A2055702F446F776E0046696CA2
:1003200074657220593A20004368616E67653A200F
:1003300055702F446F776E0046696C746572205853
:100340003A200050726573733A20446F776E004113
:100350006C7469747564652052657365743F0068D8
:10036000506100696E484700507265733A2000B0D2
:100370004300B0460054656D703A200066742F73D8
:10038000006D2F730020002020002020200020205E
:1003900020200020200020202000202020200020DD
:1003A00020202020005661723A005661723A2000E7
:1003B0006674006D00002000202000202020000036
:1003C0002000202000202020002020202000416C40
:1003D000743A00416C743A200020566172696F6D66
:1003E0006574657220312E360020524354204A65D0
:1003F000746920546F6F6C730000000000240027A4
:10040000002A0000000008000201000003040700A9
:1004100000000000000000008E2F6E2F11241FBE70
:10042000CFEFD8E0DEBFCDBF11E0A0E0B1E0E4EC5B
:10043000FDE602C005900D92A633B107D9F723E07F
:10044000A6E3B1E001C01D92A93CB207E1F712E0BA
:10045000CDE0D2E004C02197FE010E94BE34CC3032
:10046000D107C9F70E94F71C0C94D5360C940000F4
:100470000F931F93CF93DF9300D0CDB7DEB7082F34
:10048000162F809173038F3F39F560916A03809135
:100490006803909169030E941A0E809168039091FD
:1004A0006903DC01ED91FC910190F081E02D602F5A
:1004B00009958091680390916903DC01ED91FC91AD
:1004C0000190F081E02D612F099580916803909152
:1004D00069030E94BE0D23C0809176038F3F41F4D3
:1004E000CE0101960E94381489819A810E948D0C58
:1004F00060E0809173030E945B0B802F8F770E94D6
:10050000F813812F0E94F81361E0809173030E9419
:100510005B0B809176038F3F11F40E948C0C0F903F
:100520000F90DF91CF911F910F9108951F93CF935B
:10053000DF9300D0CDB7DEB7182F809173038F3FC4
:1005400081F560916A0380916803909169030E942C
:100550001A0E8091680390916903DC01ED91FC9182
:100560000190F081E02D612F0995809168039091B1
:1005700069030E94BE0D41E060916A0380916803A7
:10058000909169030E94240E809168039091690301
:10059000DC01ED91FC910284F385E02D0995182F83
:1005A00024C0809176038F3F41F4CE0101960E94D2
:1005B000381489819A810E948D0C60E080917303C8
:1005C0000E945B0B812F80680E94F81380E00E94DC
:1005D000F813182F61E0809173030E945B0B8091E8
:1005E00076038F3F11F40E948C0C812F0F900F9097
:1005F000DF91CF911F9108950F931F93CF93DF93B6
:1006000000D0CDB7DEB7182F809173038F3F09F06C
:1006100041C060916A0380916803909169030E94D0
:100620001A0E8091680390916903DC01ED91FC91B1
:100630000190F081E02D612F0995809168039091E0
:1006400069030E94BE0D42E060916A0380916803D5
:10065000909169030E94240E809168039091690330
:10066000DC01ED91FC910284F385E02D0995182FB2
:100670008091680390916903DC01ED91FC91028403
:10068000F385E02D099520E030E0312F8901082B1A
:10069000192B2DC0809176038F3F41F4CE01019636
:1006A0000E94381489819A810E948D0C60E08091AB
:1006B00073030E945B0B812F80680E94F81380E017
:1006C0000E94F813082F80E00E94F813202F30E0DA
:1006D000322F22278901082B61E0809173030E9449
:1006E0005B0B809176038F3F11F40E948C0CC80144
:1006F0000F900F90DF91CF911F910F9108950E945D
:10070000FC029827892798270895CF938091730337
:100710008F3F39F480916803909169030E94300EF5
:100720001CC061E00E945B0B61E0809173030E943A
:100730008A0B809176038F3F19F40E94560C0DC0EE
:1007400061E00E948A0B61E0809174030E948A0B31
:1007500060E0809175030E948A0B80ED0E949602F2
:10076000803609F0F5C066EB80EE0E9438026CE23C
:1007700071E080E090E00E94C60B83EF0E94960239
:1007800080FF05C064E670E080E090E0F4CF88E888
:100790000E947F0390937803809377038AE80E94F6
:1007A0007F0390937A03809379038CE80E947F0300
:1007B00090937C0380937B038EE80E947F03909349
:1007C0007E0380937D0380E90E947F0390938003E2
:1007D00080937F0382E90E947F039093820380933A
:1007E000810384E90E947F039093840380938303B1
:1007F00086E90E947F03909386038093850388E9AE
:100800000E947F0390938803809387038AE90E9464
:100810007F0390938A03809389038CE90E947F036E
:1008200090938C0380938B038EE90E947F039093B7
:100830008E0380938D0381EA0E94960280938F033A
:1008400081EE0E947F03909391038093900383EE47
:100850000E9496028093920384EE0E949602C82F13
:1008600085EE0E94960240E1C49F900111248F7092
:10087000282B309394032093930386EE0E949602D4
:10088000C82F85EE0E94960290E1C99F9001112425
:1008900090E044E0959587954A95E1F7822B932B5C
:1008A000909396038093950387EE0E94960280931F
:1008B00097038DEE8093990380919A038F71806ADC
:1008C00080939A0380919803807C8093980365E0DD
:1008D00082EF0E94380290919803692F677040E27E
:1008E000649F90011124892F86958695869587703F
:1008F00048E0849FB0011124622B732B97FB99274A
:1009000090F9692B85EF0E94380290919903692F25
:10091000677080E2689F90011124892F86958695E3
:100920008695877048E0849FB0011124622B732B59
:100930009295969596959370692B84EF0E94380254
:1009400064E670E080E090E00E94C60B81E001C0A8
:1009500080E0CF910895EF92FF920F931F93CF9372
:10096000DF939091A7039F3F39F48EBD00000DB433
:1009700007FEFDCF8EB528C0D82FC0E007E010E0FD
:10098000EE24E394F12CCC0F60E08091A7030E9449
:100990005B0BB701002E01C0660F0A94EAF76D23C6
:1009A0008091A5030E945B0B61E08091A7030E94E8
:1009B0005B0B8091A6030E94320B892B09F0C1606A
:1009C0000150110900F78C2FDF91CF911F910F91EA
:1009D000FF90EF9008950F931F93CF93DF9300D074
:1009E000CDB7DEB7182F8091A4038F3F31F560910A
:1009F0009B0385E692E00E941A0E612F85E692E045
:100A00000E94200A85E692E00E94BE0D42E06091BD
:100A10009B0385E692E00E94240E85E692E00E9408
:100A2000D709182F85E692E00E94D70920E030E030
:100A3000312F8901082B192B2DC08091A7038F3FDF
:100A400041F4CE0101960E94381489819A810E9456
:100A50008D0C60E08091A4030E945B0B812F806865
:100A60000E94AB0480E00E94AB04082F80E00E944B
:100A7000AB04202F30E0322F22278901082B61E0C0
:100A80008091A4030E945B0B8091A7038F3F11F418
:100A90000E948C0C902F812F0F900F90DF91CF919F
:100AA0001F910F9108951F93CF93DF9300D0CDB77F
:100AB000DEB780939B038091A4038F3F29F485E6E2
:100AC00092E00E94300E1CC061E00E945B0B61E06E
:100AD0008091A4030E948A0B8091A7038F3F19F491
:100AE0000E94560C0DC061E00E948A0B61E080916B
:100AF000A5030E948A0B60E08091A6030E948A0BE6
:100B00008091A4038F3FE1F460919B0385E692E01E
:100B10000E941A0E60ED85E692E00E94200A85E6AA
:100B200092E00E94BE0D41E060919B0385E692E059
:100B30000E94240E85E692E00E94D709182F23C058
:100B40008091A7038F3F41F4CE0101960E94381493
:100B500089819A810E948D0C60E08091A4030E949B
:100B60005B0B80ED0E94AB0480E00E94AB04182F69
:100B700061E08091A4030E945B0B8091A7038F3FEB
:100B800011F40E948C0C183509F090C088E80E947E
:100B9000EB049093A9038093A8038AE80E94EB04D6
:100BA0009093AB038093AA038CE80E94EB0490938C
:100BB000AD038093AC038EE80E94EB049093AF03E7
:100BC0008093AE0380E90E94EB049093B10380937D
:100BD000B00382E90E94EB049093B3038093B203C5
:100BE00084E90E94EB049093B5038093B40386E9F3
:100BF0000E94EB049093B7038093B60388E90E94A8
:100C0000EB049093B9038093B8038AE90E94EB0444
:100C10009093BB038093BA038CE90E94EB049093FA
:100C2000BD038093BC038EE90E94EB049093BF0345
:100C30008093BE038091A4038F3FA9F460919B032E
:100C400085E692E00E941A0E64EF85E692E00E942B
:100C5000200A6FE385E692E00E94200A85E692E092
:100C60000E94BE0D25C08091A7038F3F41F4CE01A5
:100C700001960E94381489819A810E948D0C60E04F
:100C80008091A4030E945B0B84E70E94AB048FE376
:100C90000E94AB0461E08091A4030E945B0B8091F1
:100CA000A7038F3F29F40E948C0C02C080E001C092
:100CB00081E00F900F90DF91CF911F910895CF9316
:100CC000DF93C82F67E785E692E00E941A0E6C2F2B
:100CD00085E692E00E94200A85E692E00E94BE0D21
:100CE00067E785E692E00E941A0E82E090E00E949B
:100CF000C31385E692E00E94D709D82F80E0C82F61
:100D000085E692E00E94D709C82BD92B85E692E0B0
:100D10000E94BE0DCE01DF91CF910895CF93C82FD1
:100D200067E785E692E00E941A0E6C2F85E692E056
:100D30000E94200A85E692E00E94BE0D67E785E6E4
:100D400092E00E941A0E81E090E00E94C31385E6B3
:100D500092E00E94D709C82F85E692E00E94BE0D5E
:100D60008C2FCF910895CF93DF9381E792E00E947B
:100D7000FE0EC1E7D2E061E08C850E948A0B61E043
:100D80008C85DF91CF910C945B0B80918E029091BA
:100D90008F02892B31F1809192019091930122E091
:100DA00081379207F1F0009711F00E94FE0E8091BA
:100DB00088028E7F80938802109291011092900198
:100DC00081E792E09093930180939201E0918402F5
:100DD000F0918502908180918602892B808381E049
:100DE000089580E008950F931F93CF93DF938C01B4
:100DF000EB010E94EE2FACE1B3E090E020E2981707
:100E000040F4A8014F5F5F4FF80104910C938A01F1
:100E100001C02C939F5F1196903189F7CE010E94FB
:100E2000EE2FACE2B3E090E020E2981740F4AE0180
:100E30004F5F5F4FFE01C491CC93EA0101C02C9338
:100E40009F5F1196903189F7DF91CF911F910F919C
:100E50000895CF93DF93FC0101900020E9F73197CB
:100E6000E81BEC01ACE1B3E020E030E22E1718F40F
:100E700048814C9301C03C932F5F219611962031FD
:100E8000A9F7FB0101900020E9F731978E2F861B0F
:100E9000FB01ACE2B3E090E020E2981718F4308157
:100EA0003C9301C02C939F5F319611969031A9F726
:100EB000DF91CF9108951F93CF93DF9367E785E686
:100EC00092E00E941A0E60E085E692E00E94200AFD
:100ED00085E692E00E94BE0D67E785E692E00E94FB
:100EE0001A0E83E090E00E94C31390911B02809140
:100EF0001C029817F1F385E692E00E94D709182F9B
:100F000085E692E00E94D709C82F85E692E00E940C
:100F1000D709D82F85E692E00E94BE0D8C2F90E075
:100F2000A0E0B0E0BA2FA92F982F8827A12BBC01F1
:100F3000CD016D2BDF91CF911F910895CF93DF935A
:100F400067E785E692E00E941A0ECEE6D1E08D8535
:100F500090E0805B9F4F0E94CF1385E692E00E9455
:100F6000BE0D6C8570E080E090E00E94C60BDF91C2
:100F7000CF910C945B074F925F926F927F928F920A
:100F80009F92AF92BF92CF92DF92EF92FF921F9308
:100F9000CF93DF9300D0CDB7DEB7182F80917303C6
:100FA0008F3F09F061C060916A038091680390915E
:100FB00069030E941A0E8091680390916903DC0115
:100FC000ED91FC910190F081E02D612F09958091C8
:100FD0006803909169030E94BE0D43E060916A032B
:100FE00080916803909169030E94240E80916803A8
:100FF00090916903DC01ED91FC910284F385E02D71
:1010000009952C01990F66087708762C652C542CCD
:1010100044248091680390916903DC01ED91FC9177
:101020000284F385E02D09956C01990FEE08FF0805
:10103000C428D528E628F72888249C2CAD2CBE2C63
:101040008091680390916903DC01ED91FC91028429
:10105000F385E02D09956C01990FEE08FF08C8286B
:10106000D928EA28FB2837C0809176038F3F41F4C6
:10107000CE0101960E94381489819A810E948D0CBC
:1010800060E0809173030E945B0B812F80680E9457
:10109000F81380E00E94F813C82ED12CE12CF12C1B
:1010A000FE2CED2CDC2CCC2480E00E94F813C82A06
:1010B000FE2CED2CDC2CCC2480E00E94F813C82AF6
:1010C00061E0809173030E945B0B809176038F3FF8
:1010D00011F40E948C0CC701B6010F900F90DF91A4
:1010E000CF911F91FF90EF90DF90CF90BF90AF9086
:1010F0009F908F907F906F905F904F9008958F9208
:101100009F92AF92BF92CF92DF92EF92FF920F9396
:101110001F938AEF0E94BB076115710520E88207C3
:10112000910509F479C0009177031091780320E0CC
:1011300030E0C72ED82EE92EFF24E7FCFA94C01A1F
:10114000D10AE20AF30ADC01CB0157E0B595A79575
:10115000979587955A95D1F7000F111F221F331FBE
:101160004C015D01801A910AA20AB30AA5019401FB
:10117000A0917903B0917A030E94CF344B015C01B6
:101180007BE0B594A794979487947A95D1F7A701BB
:101190009601C701B6010E9459349B01AC01ECE0F5
:1011A0005595479537952795EA95D1F7A0917B03FB
:1011B000B0917C030E94CF34DC01CB01FEE0B595F9
:1011C000A79597958795FA95D1F7A5019401280FD2
:1011D000391F4A1F5B1F20936F03309370034093A6
:1011E000710350937203A5E0B0E00E94C434DC01A7
:1011F000CB0180589F4FAF4FBF4F692F7A2F8B2F56
:10120000992787FD9A950E94643120E030E048ECF0
:1012100052E40E94B43004C060E070E080EC9FE7CC
:101220001F910F91FF90EF90DF90CF90BF90AF9004
:101230009F908F900895CF92DF92EF92FF920F933D
:101240001F93CF93DF936C017A018B01C0E0D0E054
:10125000CE15DF0581F0D8016D918D01D601ED919C
:10126000FC910190F081E02DC6010995892B11F0C8
:101270002196EECF7E01C701DF91CF911F910F9193
:10128000FF90EF90DF90CF900895833081F028F4A5
:10129000813099F08230A1F008958730A9F088302C
:1012A000B9F08430D1F4809180008F7D03C08091AB
:1012B00080008F7780938000089584B58F7702C077
:1012C00084B58F7D84BD08958091B0008F7703C071
:1012D0008091B0008F7D8093B00008953FB7F8945F
:1012E0008091170290911802A0911902B0911A02F0
:1012F00026B5A89B05C02F3F19F00196A11DB11D71
:101300003FBFBA2FA92F982F8827820F911DA11DAB
:10131000B11DBC01CD0143E0660F771F881F991FE7
:101320004A95D1F7089585ED8093BC008091BC006B
:1013300084FDFCCF1092630208954091EC01262FAA
:1013400030E0240F311D21323105DCF4209163029D
:101350002430C9F4FC0180E090E0861758F4309105
:10136000EC012191DC01A653BE4FA30FB11D2C93BC
:101370000196F3CF8091EC01680F6093EC0180E05F
:10138000089581E0089582E00895089508950895EC
:10139000E0911C0280911B02E81730F4F0E0E35E5C
:1013A000FD4F808190E008958FEF9FEF0895909119
:1013B0001C0280911B02981750F4E92FF0E0E35EC5
:1013C000FD4F208130E09F5F90931C0202C02FEF01
:1013D0003FEFC901089580911B0290E020911C020B
:1013E000821B91090895CF92DF92EF92FF920F93A3
:1013F0001F93CF93DF937C01CB018A012091C7011A
:10140000222389F0EB016B01C40ED51ECC15DD053E
:1014100069F06991D701ED91FC910190F081E02D87
:10142000C7010995F3CF642F0E949D09C801DF9180
:10143000CF911F910F91FF90EF90DF90CF90089583
:10144000CF93DF931F92CDB7DEB769832091C70199
:101450002223D1F02091C801203240F021E030E079
:10146000FC013383228380E090E015C08091C901A4
:10147000E82FF0E0E955FE4F998190838F5F8093CC
:10148000C9018093C80105C061E0CE0101960E94A8
:101490009D0981E090E00F90DF91CF91089508952C
:1014A00020919201309193012817390771F490919E
:1014B000900180919101981741F0E0919001F0E046
:1014C000EA56FE4F808190E008958FEF9FEF0895D8
:1014D00020919201309193012817390769F4809186
:1014E00091012091900190E04096821B910960E16A
:1014F00070E00E946934089580E090E008952091A2
:1015000092013091930128173907B9F49091900115
:1015100080919101981789F0E0919001F0E0EA56EE
:10152000FE4F80812091900130E02F5F3F4F2F7060
:1015300033272093900190E008958FEF9FEF089557
:10154000089580E090E008950E94C536CF92DF9222
:10155000EF92FF920F931F93CF93DF93EC0189A13A
:101560009AA1009729F421E030E03B832A8371C0DF
:101570000FB7F8948F8D98A1892B91F028E030E077
:1015800080E091E0462F492309F08F5F990F2150A9
:101590003109C1F7988D91118F5F182F109501C0F7
:1015A00010E0F62ECE010E94D81C89A19AA10197C5
:1015B000F1F788E0C82ED12CEE24E3948F2D8E21F4
:1015C00039F0E989FA8990818889892B808303C061
:1015D000CE010E94D81C89A19AA10197F1F7EE0CC7
:1015E00081E0C81AD10851F78E89882389F0888D47
:1015F000882339F0E989FA8990818889892B808349
:1016000003C0CE010E94D81C89A19AA10197F1F7CD
:101610008F8D98A1892B81F010FF07C0E989FA8985
:1016200090818889892B808303C0CE010E94D81CB9
:101630008F8D98A10197F1F7E989FA8990818889BE
:10164000892B80830FBF8D8D9E8D0197F1F781E0EF
:1016500090E0DF91CF911F910F91FF90EF90DF907D
:10166000CF900895CF93DF93282F30E0F901ED5FFD
:10167000FB4F8491F901E65DFE4FD491F901EA5EDA
:10168000FE4FC491CC2391F081110E944509EC2FAB
:10169000F0E0EE0FFF1FEE5FFE4FA591B491EC91CD
:1016A000ED2381E090E021F480E002C080E090E052
:1016B000DF91CF9108951F93CF93DF93282F30E0D0
:1016C000F901ED5FFB4F8491F901E65DFE4FD49186
:1016D000F901EA5EFE4FC491CC23C1F0162F8111AF
:1016E0000E944509EC2FF0E0EE0FFF1FE45FFE4F74
:1016F000A591B4919FB7F894111104C08C91D09525
:10170000D82302C0EC91DE2BDC939FBFDF91CF91F9
:101710001F910895CF93DF9390E0FC01E65DFE4FAB
:101720002491FC01EA5EFE4F8491882361F190E0F0
:10173000880F991FFC01E750FC4FC591D491FC0123
:10174000E45FFE4FA591B491611109C09FB7F89471
:101750008881209582238883EC912E230BC06230F0
:1017600061F49FB7F8948881322F30958323888362
:10177000EC912E2B2C939FBF06C08FB7F894E88175
:101780002E2B28838FBFDF91CF9108958F929F9248
:10179000AF92BF92CF92DF92EF92FF926B017C01EA
:1017A0000E946E094B015C01C114D104E104F104F3
:1017B000F1F00E946E09DC01CB0188199909AA0990
:1017C000BB09883E9340A105B10570F321E0C21A20
:1017D000D108E108F10888EE880E83E0981EA11C6C
:1017E000B11CC114D104E104F10419F7DDCFFF905D
:1017F000EF90DF90CF90BF90AF909F908F90089523
:101800002FB7F89460911302709114028091150221
:10181000909116022FBF08951F920F920FB60F924C
:1018200011242F933F938F939F93AF93BF938091F6
:10183000130290911402A0911502B09116023091FA
:10184000120226E0230F2D3720F40296A11DB11DB0
:1018500005C029E8230F0396A11DB11D2093120294
:101860008093130290931402A0931502B093160272
:101870008091170290911802A0911902B0911A025A
:101880000196A11DB11D8093170290931802A09399
:101890001902B0931A02BF91AF919F918F913F911E
:1018A0002F910F900FBE0F901F901895CF93CFB729
:1018B000F89480911102811127C0E0E2F1E0849157
:1018C000E4E3F1E09491E82FF0E0EE0FFF1FE75022
:1018D000FC4FA591B491EC91E92321F461E08AE0F9
:1018E0000E945B0B61E08AE00E948A0B8CB58061EC
:1018F0008CBD8CB580648CBD61E08DE00E948A0B4C
:1019000061E08BE00E948A0B809111028F5F8093CF
:101910001102CFBFCF91089508958CBD9DBD08954C
:101920001F920F920FB60F9211242F933F934F9354
:101930005F936F937F938F939F93AF93BF93EF9337
:10194000FF938091B900887F803609F49CC068F5C8
:10195000883209F45BC090F4803109F454C038F443
:10196000882309F4F6C0883009F44DC0F6C08831E8
:1019700009F44CC0803209F45DC0EFC0803409F432
:1019800068C048F4803309F455C0883309F0E5C0D5
:1019900080936102D8C0803509F44FC0883509F4BE
:1019A0005DC0883409F0D9C0D6C0883909F4C7C0F1
:1019B000A8F4883709F467C038F4883609F463C09E
:1019C000803709F460C0C9C0883809F4B8C08039CC
:1019D00009F45FC0803809F0C0C05BC0803B09F4E7
:1019E00086C038F4803A09F466C0883A09F47FC0AA
:1019F000B4C0803C09F4A7C0883C09F4A4C0883B6B
:101A000009F48AC0AAC080915E0210C09091600261
:101A100080915F02981770F5E091600281E08E0F6F
:101A200080936002F0E0E35CFD4F80818093BB0017
:101A300085EC86C0809361028EC0E091600281E0F7
:101A40008E0F809360028091BB00F0E0E35CFD4F5D
:101A500080839091600280915F026EC0E09160028D
:101A600081E08E0F809360028091BB00F0E0E35C28
:101A7000FD4F80838091620281116DC081E080936F
:101A80005D0284EA61C083E08093630210921002D9
:101A9000CFCF80911002803208F051C0E091100247
:101AA00081E08E0F809310028091BB00F0E0E05146
:101AB000FE4F8083BDCF85EC8093BC001092630203
:101AC00080911002803230F4E0911002F0E0E05199
:101AD000FE4F10826091100270E0E091EE01F091F3
:101AE000EF0180EF91E009951092100236C084E07A
:101AF000809363021092ED011092EC01E091EA01F3
:101B0000F091EB0109958091EC01811105C081E014
:101B10008093EC011092CA01E091ED0181E08E0FFB
:101B20008093ED01F0E0E653FE4F80818093BB008F
:101B30009091ED018091EC01981708F479CF85E838
:101B40008093BC000AC085EC8093BC0010926302B5
:101B500004C0109261020E949309FF91EF91BF911E
:101B6000AF919F918F917F916F915F914F913F9135
:101B70002F910F900FBE0F901F9018953091C801B4
:101B8000313208F04BC0809163028111FCCF9091FB
:101B9000A60122E02093630221E0209362022FEF4E
:101BA000209361021092600230935F02E7EAF1E055
:101BB000ADE3B2E020E0321721F041914D932F5F69
:101BC000FACF10925E0220915E02990F922B9093B1
:101BD0005E0290915D02913061F410925D029091ED
:101BE0005E029093BB009091BC0093FDF8CF95EC02
:101BF00001C095EE9093BC00909163029230E1F3A6
:101C0000909161029F3F79F080916102803241F0B2
:101C100080916102803331F084E005C081E003C02F
:101C200082E001C083E01092C9011092C8011092B5
:101C3000C701089581E08093C7016093A6011092C7
:101C4000C9011092C8010895862F413208F040E280
:101C5000642F0E94811310921C0280931B0208952E
:101C600010921C0210921B021092C9011092C8011E
:101C70001092630281E08093620210925D0261E043
:101C800082E10E945B0B61E083E10E945B0BE9EB68
:101C9000F0E080818E7F808380818D7F808380E2F1
:101CA0008093B80085E48093BC0085EC99E0909324
:101CB000EB018093EA0186EC99E09093EF01809329
:101CC000EE010895862798E027E087FF03C0880F7C
:101CD000822701C0880F9150C1F708951F920F927B
:101CE0000FB60F9211242F933F934F935F936F93EF
:101CF0007F938F939F93AF93BF93CF93DF93EF9394
:101D0000FF93E0919201F0919301309709F463C041
:101D1000C685D78588812585822309F05CC0818DA1
:101D2000928D0197F1F7438D548D68E070E030E0BB
:101D300081E0DA011197F1F79881922311F0382BA5
:101D400003C0982F90953923880F6150710989F746
:101D50008091910190E001968F7099276091900198
:101D6000681749F0A0919101B0E0AA56BE4F3C938C
:101D70008093910103C087898160878B868988233E
:101D8000D1F0CA010197F1F78881282381E090E022
:101D9000A0E0B0E004C0880F991FAA1FBB1F2A95BE
:101DA000D2F72091940130919501822B932B90933F
:101DB000950180939401878D90A1009711F0019770
:101DC000F1F7858D968D0197F1F7A389B4899C91E0
:101DD0008589892B8C93FF91EF91DF91CF91BF91F2
:101DE000AF919F918F917F916F915F914F913F91B3
:101DF0002F910F900FBE0F901F901895E0919201B8
:101E0000F0919301E817F90769F4A389B4899C91CB
:101E10008589809589238C93109293011092920169
:101E200081E0089580E008950C9434300C942C30B7
:101E30002F923F924F925F926F927F928F929F92DA
:101E4000AF92BF92CF92DF92EF92FF920F931F93C8
:101E5000CF93DF9300D000D01F92CDB7DEB7C090F4
:101E60003E03D0903F03E0904003F09041030E9476
:101E7000000C2B013C01809116038823E9F060E0FF
:101E80008EE70E94E41C61E082E90E94E41C61E0AC
:101E900083E20E94E41C61E0809116030E94E41C2E
:101EA00080911001882311F0815003C01092160315
:101EB00086E0809310019DC324EFC20E21E0D21E64
:101EC000E11CF11C60E08EE70E94E41C61E08FE9F8
:101ED0000E94E41CC414D504E604F70408F477C097
:101EE00080911703E0919402F0919502A82FB0E041
:101EF000AA0FBB1FAA50BD4F2D913C91232B19F067
:101F00008093170308C08F5F282F30E02E173F07FC
:101F10006CF3109217036091170340E050E010E05B
:101F200086E090E0B6E0A0E070E09A01260F371F4F
:101F30002E173F07DCF52115310531F11F5F220F08
:101F4000331FD901AA52BD4F2C912F712830C1F0F7
:101F5000213021F49C012D5F3F4F19C0211104C095
:101F60009C012E5F3F4F13C0253021F49C012C5F54
:101F70003F4F0DC0293021F09C012F5F3F4F07C01C
:101F80009C012B5F3F4F03C09C018B2F9A2F4F5F0B
:101F90005F4F4031510549F02B31310514F011509C
:101FA00005C0B82FA92FC901C0CFC901382F30648F
:101FB000398381E080938902632F81E792E00E9458
:101FC000A60A60E089810E94620E89831EC0E091AA
:101FD0006402F0E0EE0FFF1FE952FD4F8081982F61
:101FE0009F71829586958770980F985F998381E09D
:101FF00080938902692F81E792E00E94A60A60E03F
:1020000089810E94620E898310E0BB24B394B09250
:10201000890261E181E792E00E94A60A698181E17B
:102020000E94620E8983B092890264EA81E792E09D
:102030000E94A60A698184EA0E94620E8983B09296
:10204000890262E081E792E00E94A60A698182E04B
:102050000E94620E8983B092890268E081E792E073
:102060000E94A60A698188E00E94620E8983B0926C
:10207000890260E081E792E00E94A60A109289023C
:10208000698180E00E94620E8D83C414D504E60449
:10209000F70408F40CC2A0911703A983EA2EE10EFD
:1020A000FF24F3942091940230919502B981EB16AC
:1020B00009F4F3C13B2E3394309217030B2F10E039
:1020C000021713070CF0E9C1BB2309F4E4C1E09146
:1020D0004203F09143030995E981E295E07FE983AA
:1020E0006801F1E2CF0ED11CC601880F991F9C0137
:1020F0002C563D4F5901D9018C918F71782EB5E046
:102100008B1709F4CCC0B81708F443C0882309F42E
:10211000A7C0E1E08E13BFC1000F111FF801EA5004
:10212000FD4F0190F081E02D008111812981216016
:10213000298380938902622F81E792E00E94A60A98
:102140006D8189810E94620E8983D5018C9182956F
:102150008695877090E0982F88279295990F907EAA
:102160001F79082B192B70928902602F81E792E06A
:102170000E94A60A6981802F0E94620E8D83812FA2
:102180008F79F501F081F07EF82BF9837092890246
:1021900084C0F8E08F1729F029E0821709F4CDC038
:1021A0007AC1398138603983F0928902632F81E7DF
:1021B00092E00E94A60A6D8189810E94620E898345
:1021C000000F111FF801EA50FD4F0190F081E02D42
:1021D00040805180628073808FE97822F09289027A
:1021E000642D81E792E00E94A60A6981842D0E94F5
:1021F000620E8D83BB2777FCBA95A72D962D852D72
:1022000089839A83AB83BC83F0928902698181E7D9
:1022100092E00E94A60A6D8189810E94620E8D83E0
:10222000C301BB2797FDB095AB2F89839A83AB83FE
:10223000BC83F0928902698181E792E00E94A60A3C
:102240006D8189810E94620E8D83872D8F79D501E2
:10225000BC91B07EB82BB983F09289026B2F64C019
:10226000000F111FF801EA50FD4F0190F081E02DA1
:102270001081F0928902698181E792E00E94A60AAA
:102280006D8189810E94620E8D831F79F501F08135
:10229000F07EF12BF983F09289026F2F45C02981DE
:1022A00025602983F0928902622F81E792E00E94E3
:1022B000A60A109289026D8189810E94620E8D8327
:1022C000000F111FF801EA50FD4F0190F081E02D41
:1022D0003081398311810281D5018C918295869557
:1022E0008770813011F080E001C080E4B981B82BA3
:1022F000B983F0928902602F81E792E00E94A60ADA
:102300006D81802F0E94620E8D83F0928902612F71
:1023100081E792E00E94A60A6D81812F0E94620EE1
:102320008D83F0928902698181E792E00E94A60A7A
:10233000109289026D818981ABC0E981E960E983EE
:10234000F09289026E2F81E792E00E94A60A6D81C9
:1023500089810E94620E282E000F111FF801EA5099
:10236000FD4F0190F081E02D4080518062807380AC
:1023700020E030E0A901C301B2010E9462321816C8
:102380001CF4C301B20103C0C301B20190580E9402
:102390002D317A83698329813A81B90180E090E007
:1023A0000E9462319B01AC01C301B2010E94423024
:1023B0002AE939E949E15FE30E94673220E030E52C
:1023C00043EC57E40E9467324B015C0120E030E0AF
:1023D000A9010E94623218161CF4C501B40103C0A1
:1023E000C501B40190580E942D318B012A812170C2
:1023F000F601EE0FFF1FEC56FD4F908192959695DA
:102400009770913011F080E001C080E2282B2D837D
:1024100020E030E0A901C301B2010E94AF30881F63
:102420008827881F8295880F880F807C3D81382BF4
:102430003D83F0928902602F81E792E00E94A60A14
:10244000622D802F0E94620E082FF0928902612F68
:1024500081E792E00E94A60A602F812F0E94620EFF
:10246000182FF0928902698181E792E00E94A60A02
:10247000612F89810E94620E8983F09289026D81A9
:1024800081E792E00E94A60A1092890269818D81FB
:102490000E94620E8D83398205CE8091170390E0F1
:1024A000821793070CF4A1C0109217039EC080916D
:1024B00064028983B0928902682F81E792E00E94CA
:1024C000A60A6D8189810E94620E8D839981092FF0
:1024D00010E07801EE0CFF1CD701A952BD4F3D0161
:1024E0008C91982F9F71B8E09B9F60011124829579
:1024F00086958770C82AB09289026C2D81E792E098
:102500000E94A60A109289026D818C2D0E94620E93
:102510008D83F701EA56FD4FB080CB2CD180AA24E1
:10252000A3942C2D2B1930E0F30180818F7190E062
:1025300028173907A4F4F6019490A0928902692D16
:1025400081E792E00E94A60A109289026D81892D8E
:102550000E94620E8D83FFEFCF1ADF0AE2CF000FD9
:10256000111FF801EA54FD4FD0800D2D1181970104
:1025700029523D4F7901BB24B394202F2D1930E00F
:10258000D7018C9182958695877090E0281739073E
:102590009CF4F801C490B09289026C2D81E792E01E
:1025A0000E94A60A109289026D818C2D0E94620EF3
:1025B0008D830F5F1F4FE1CFF981FF5FF0936402BE
:1025C0008F2F90E02091940230919502821793070B
:1025D00014F0109264020E94000C60933E0370930A
:1025E0003F03809340039093410361E08D810E94FB
:1025F000E41CE0914203F0914303099560E08EEF03
:102600000E94E41C2CE133E03A8329830CE313E0BD
:1026100061E0A981BA818D91BA83A9830E94E41CEB
:10262000E981FA810E171F0799F760E08FEF0E948A
:10263000E41C81E00F900F900F900F900F90DF91AE
:10264000CF911F910F91FF90EF90DF90CF90BF90AF
:10265000AF909F908F907F906F905F904F903F9042
:102660002F900895CF92DF92FF920F931F93CF93F5
:10267000DF93209194023091950220313105C4F509
:102680006B0189010F5F1F4FF801EE0FFF1FEC5622
:10269000FD4F91838083F901EE0FFF1FEA54FD4F38
:1026A00071836083F901EE0FFF1FEA50FD4F118225
:1026B0001082220F331FE901CA52DD4F18820E9497
:1026C000EE2F8F719981907EF92EF82AC6010E9413
:1026D000EE2F8295880F807E9F2D9F71F92EF82A0C
:1026E000F98210939502009394028FEF800F01C03E
:1026F0008FEFDF91CF911F910F91FF90DF90CF90DF
:102700000895909163029111FCCF91E09093630240
:10271000909362022FEF2093610210926002260FC5
:1027200020935F0290935E0290915E02880F892B46
:1027300080935E0280915D02813061F410925D02AF
:1027400080915E028093BB008091BC0083FDF8CF36
:1027500085EC01C085EE8093BC00809163028130DE
:10276000E1F380916002861710F460916002ADE39E
:10277000B2E0EDE1F2E080E0861721F09D919193C7
:102780008F5FFACF0895813208F080E2682F87E7E3
:102790000E94811310921C0280931B020895682FDF
:1027A00085E692E00C94200ACF93C82F682F85E627
:1027B00092E00E941A0E8FE090E00E94CF1385E60F
:1027C00092E00E94BE0D41E06C2F85E692E00E94EF
:1027D000240E90911B0280911C02981729F085E627
:1027E00092E0CF910C94D7098FEF9FEFCF9108958E
:1027F000EF92FF920F931F93CF93DF939091760305
:102800009F3F39F48EBD00000DB407FEFDCF8EB59D
:1028100028C0D82FC0E007E010E0EE24E394F12CAC
:10282000CC0F60E0809176030E945B0BB701002E15
:1028300001C0660F0A94EAF76D23809174030E9429
:102840005B0B61E0809176030E945B0B80917503C6
:102850000E94320B892B09F0C1600150110900F769
:102860008C2FDF91CF911F910F91FF90EF900895E2
:1028700021E5FC012083118208954F925F926F92AF
:102880007F928F929F92AF92BF92CF92DF92EF9200
:10289000FF921F93CF93DF9300D0CDB7DEB7182FF1
:1028A0008091A4038F3F09F03FC060919B0385E6B0
:1028B00092E00E941A0E612F85E692E00E94200AA3
:1028C00085E692E00E94BE0D43E060919B0385E6A1
:1028D00092E00E94240E85E692E00E94D7092C0126
:1028E000990F66087708762C652C542C442485E6CD
:1028F00092E00E94D7096C01990FEE08FF08C428E6
:10290000D528E628F72888249C2CAD2CBE2C85E6FB
:1029100092E00E94D7096C01990FEE08FF08C828C1
:10292000D928EA28FB2837C08091A7038F3F41F4BC
:10293000CE0101960E94381489819A810E948D0CE3
:1029400060E08091A4030E945B0B812F80680E944D
:10295000AB0480E00E94AB04C82ED12CE12CF12CFA
:10296000FE2CED2CDC2CCC2480E00E94AB04C82A89
:10297000FE2CED2CDC2CCC2480E00E94AB04C82A79
:1029800061E08091A4030E945B0B8091A7038F3FBD
:1029900011F40E948C0CC701B6010F900F90DF91CB
:1029A000CF911F91FF90EF90DF90CF90BF90AF90AD
:1029B0009F908F907F906F905F904F9008952F928F
:1029C0003F924F925F926F927F928F929F92AF92BF
:1029D000BF92CF92DF92EF92FF920F931F93CF930C
:1029E000DF93CDB7DEB768970FB6F894DEBF0FBEA2
:1029F000CDBF0E947F0887EF0E94BB076B877C8753
:102A00008D879E87611571058048910509F4A5C1E0
:102A100080916F0390917003A0917103B091720344
:102A20006C017D01FF0CCC08DC2C76019C01AD0112
:102A30006C2D7C2D8C2D9C2D345F414051096109FA
:102A400071098109910929833A834B835C836D83E2
:102A50007E83888F9F8B59016A017B018C010E94C4
:102A6000D7342F83388749875A876B8B7C8B8D8B24
:102A70009E8B3091800320917F03932F990F990BA8
:102A8000492F592F692F792F892F0E94D7340CE0B5
:102A90000E9441361901942E852E762E672E582ECF
:102AA000492E3091820320918103932F990F990B26
:102AB000AF80B884C984DA84EB88FC880D891E89CC
:102AC000492F592F692F792F892F0E94D73408E079
:102AD0000E945A365101C92CD82CE72CF62C052D12
:102AE000142D0E94783670588F4F9F4F20907D0391
:102AF00030907E035101C12CD12CE12CF12C00E04F
:102B000010E00E94D73401E20E945A36322E232E62
:102B10004F87588B698B472E582E9A8BA0E00E94C6
:102B2000963609F41FC13091880320918703932FB3
:102B3000990F990BAF80B884C984DA84EB88FC883C
:102B40000D891E89492F592F692F792F892F0E94AE
:102B5000D7342F8338873A014B0189879A87309180
:102B6000860320918503932F990F990BA980BA8032
:102B7000CB80DC80ED80FE80088D1F89492F592F86
:102B8000692F792F892F0E94D73401E10E944136A5
:102B9000AF80B8846301740109851A850E94783674
:102BA00059016A017B018983192F4B855C856D85ED
:102BB0007E8584E075956795579547958A95D1F7F9
:102BC00080E090E0A0E1B0E0841B950BA60BB70B72
:102BD0003C014D01990C6608762C43019C01AD0126
:102BE000662D762D862D962D0FE10E9441364901E6
:102BF0004B835A83B62FA72FF82FE92F30918403E8
:102C000020918303932F990F990B492F592F692FE7
:102C1000792F892F03E20E94413609810E9478367C
:102C200059016A017B018C0194014B815A816B2F00
:102C30007A2F8F2F9E2F0E948D36E5E3AE2EFCE07B
:102C4000BF2EC12CD12CE12CF12C00E010E00E9411
:102C5000D734A32CB22CCF84D888E988F42C052D46
:102C60001A890E946C3528873F8349835A836B8376
:102C70007C838D839E830DE00E945A36922E832E94
:102C8000742E652E562E472E382E292E30918E0307
:102C900020918D03932F990F990BA92CB82CC72C39
:102CA000D62CE52CF42C032D122D492F592F692FEA
:102CB000792F892F0E94D7340E94D73409E10E94CE
:102CC0005A36A884BF80C980DA80EB80FC800D81F1
:102CD0001E810E94783619012A013B014C01309176
:102CE0008C0320918B03932F990F990B492F592F08
:102CF000692F792F892F0E94D73403E10E945A3619
:102D000059016A017B018C019101A201B301C40147
:102D10000E94783608E00E945A3659016A017B0108
:102D2000E82F192F30918A0320918903932F990F4F
:102D3000990B492F592F692F792F892F04E00E9471
:102D400041360E2F0E9478360E945C3120E030E040
:102D500040E85BE30E94673208C060E070E080EC0E
:102D60009FE703C060E070E0CB0168960FB6F8946F
:102D7000DEBF0FBECDBFDF91CF911F910F91FF90AE
:102D8000EF90DF90CF90BF90AF909F908F907F900B
:102D90006F905F904F903F902F9008958F929F92E9
:102DA000AF92BF92CF92DF92EF92FF920F931F9359
:102DB0008AEF0E943D14EBE9F3E00585168520E0DB
:102DC00030E0C72ED82EE92EFF24E7FCFA94C01A73
:102DD000D10AE20AF30ADC01CB0157E0B595A795C9
:102DE000979587955A95D1F7000F111F221F331F12
:102DF0004C015D01801A910AA20AB30AA50194014F
:102E0000A785B0890E94CF344B015C017BE0B5946B
:102E1000A794979487947A95D1F7A7019601C70153
:102E2000B6010E9459349B01AC01ACE05595479521
:102E300037952795AA95D1F7A189B2890E94CF34F9
:102E4000DC01CB011EE0B595A795979587951A955E
:102E5000D1F7A5019401280F391F4A1F5B1F258355
:102E6000368347835087A5E0B0E00E94C434DC017C
:102E7000CB0180589F4FAF4FBF4F692F7A2F8B2FB9
:102E8000992787FD9A950E94643120E030E048EC54
:102E900052E40E94B4301F910F91FF90EF90DF90A9
:102EA000CF90BF90AF909F908F9008952F923F92B8
:102EB0004F925F926F927F928F929F92AF92BF924A
:102EC000CF92DF92EF92FF920F931F93CF93DF93F6
:102ED000CDB7DEB76B970FB6F894DEBF0FBECDBF90
:102EE0000E94CE1687EF0E943D146E8B7F8B888FD9
:102EF000998F8091A0039091A103A091A203B0911A
:102F0000A3036C017D01FF0CCC08DC2C76019C0135
:102F1000AD016C2D7C2D8C2D9C2D345F41405109D1
:102F2000610971098109910929873A874B87652EC3
:102F3000762E872E982E9B8F5901C42ED52EE62EE5
:102F4000F72E082F192F0E94D734322E232E488BAC
:102F5000598B6A8B7B8B8C8B9D8B3091B10320912D
:102F6000B003932F990F990B492F592F692F792F60
:102F7000892F0E94D7340CE00E94413629833C8778
:102F80004A8F5D876E877F87582E492E3091B30315
:102F90002091B203932F990F990BA32CB22CC888C0
:102FA000D988EA88FB880C891D89492F592F692FF8
:102FB000792F892F0E94D73408E00E945A36A980C1
:102FC000BC84CA8CDD84EE84FF84052D142D0E9400
:102FD000783670588F4F9F4FE091AE03F091AF035A
:102FE0005F01C12CD12CE12CF12C8701E983BA823D
:102FF000CB82DC82ED82FE820F831887C12CD12C1C
:10300000E12CF12C00E010E00E94D73401E20E9494
:103010005A362A8F532E49835C876D877E878F8728
:10302000492EA0E00E94963609F41EC13091B903E2
:103030002091B803932F990F990BA32CB22CC88819
:10304000D988EA88FB880C891D89492F592F692F57
:10305000792F892F0E94D7341901488B598B6A8B9D
:103060007B8B8C8B9D8B3091B7032091B603932F74
:10307000990F990BA984BA84CB84D62CE72CF82C11
:10308000092D1B8D492F592F692F792F892F0E94C8
:10309000D73401E10E9441365101C888D988EA88B5
:1030A000FB880C891D890E94783659016A017B01D1
:1030B000382E192F4E895F89688D798D84E075953A
:1030C0006795579547958A95D1F780E090E0A0E104
:1030D000B0E0841B950BA60BB70B3C014D01990C7E
:1030E0006608762C43019C01AD01662D762D862D58
:1030F000962D0FE10E944136722E832E942E598711
:10310000B62FA72FF82FE92F3091B5032091B403E4
:10311000932F990F990B492F592F692F792F892FA9
:1031200003E20E944136032D0E94783659016A015C
:103130007B018C01272D382D492D59856B2F7A2F36
:103140008F2F9E2F0E948D36E5E3AE2EFCE0BF2E22
:10315000C12CD12CE12CF12C00E010E00E94D734DE
:10316000AA8CB52CC980DC84ED84FE840F85142DD7
:103170000E946C352F873E8749875A876B877983F2
:103180008C879D870DE00E945A36922E832E742ED6
:10319000652E562E472E382E292E3091BF032091B2
:1031A000BE03932F990F990BA92CB82CC72CD62CA2
:1031B000E52CF42C032D122D492F592F692F792F2F
:1031C000892F0E94D7340E94D73409E10E945A36D1
:1031D000AF84BE84C984DA84EB84F9800C851D85B4
:1031E0000E94783619012A013B014C013091BD0340
:1031F0002091BC03932F990F990B492F592F692FB9
:10320000792F892F0E94D73403E10E945A36590141
:103210006A017B018C019101A201B301C4010E94EA
:10322000783608E00E945A3659016A017B01E82F7E
:10323000192F3091BB032091BA03932F990F990B4B
:10324000492F592F692F792F892F04E00E94413689
:103250000E2F0E9478360E945C3120E030E040E87A
:103260005BE30E94673203C060E070E0CB016B96C5
:103270000FB6F894DEBF0FBECDBFDF91CF911F9187
:103280000F91FF90EF90DF90CF90BF90AF909F9005
:103290008F907F906F905F904F903F902F90089508
:1032A00067E785E692E00E941A0E64EF85E692E0F9
:1032B0000E94200A6EE285E692E00E94200A85E6DE
:1032C00092E00E94BE0D65E070E080E090E00E9418
:1032D000C60B86EF0C945F064F925F926F927F92BF
:1032E0008F929F92AF92BF92CF92DF92EF92FF9216
:1032F0000F931F93CF93DF9300D000D01F92CDB7D1
:10330000DEB70E9450194C01A12CB12C2091510321
:103310002295220F220F207C2C5C298367E785E60B
:1033200092E00E941A0E64EF85E692E00E94200A65
:10333000698185E692E00E94200A85E692E00E947B
:10334000BE0D80915103811105C065E070E080E001
:1033500090E012C0813029F468E070E080E090E0F5
:103360000BC0823029F46EE070E080E090E004C091
:103370006AE170E080E090E00E94C60B86EF0E9458
:103380005F066C01E12CF12CFE2CED2CDC2CCC2406
:1033900088EF0E948E06C82A309151033D838091A8
:1033A000660390916703A5019401281B390B41091D
:1033B0005109A0916403B09165030E94C4342B01AC
:1033C0003C01AFE07594679457944794AA95D1F760
:1033D00060915E0370915F03CB01770FAA0BBB0B6B
:1033E000BC01CD01BBE0660F771F881F991FBA95FE
:1033F000D1F720916003309161038901330F220BD3
:10340000330BA9019801240D351D461D571D0E943F
:103410009F34420E531E641E751E40EA441A4FE04C
:10342000540A61087108A3019201C301B2010E940C
:1034300059349B01AC011CE055954795379527956C
:103440001A95D1F729833A834B835C83E091520329
:10345000F0915303A0915603B0915703A301920139
:103460000E94CF344B015C010DE0B594A794979472
:1034700087940A95D1F7A0915803B09159032981F7
:103480003A814B815C810E94CF34BB2797FDB09578
:10349000AB2F880D991DAA1DBB1D0296A11DB11D44
:1034A00032E0B595A795979587953A95D1F79C0108
:1034B000AD0130584F4F5F4FA0916203B09163034D
:1034C0000E94C4344B015C014FE0B694A7949794DA
:1034D00087944A95D1F788E090E03D81831B91095C
:1034E00004C0F694E794D794C7948A95D2F7A09134
:1034F0005A03B0915B0329813A814B815C810E9420
:10350000CF349B01AC016BE05595479537952795D6
:103510006A95D1F729833A834B835C83A091540346
:10352000B0915503A30192010E94CF34DC01CB017D
:103530007BE0B595A795979587957A95D1F74981C1
:103540005A816B817C81480F591F6A1F7B1FCF01F5
:10355000FF0FAA0BBB0BE2E0880F991FAA1FBB1F2E
:10356000EA95D1F7840F951FA61FB71F0D8004C0E1
:10357000880F991FAA1FBB1F0A94D2F7BC01CD0167
:103580006E5F7F4F8F4F9F4F24E030E040E050E070
:103590000E949F34D701C601821B930BA40BB50B6D
:1035A0009C01AD0180E593ECA0E0B0E0BC01CD0151
:1035B0000D8004C096958795779567950A94D2F704
:1035C0000E94593497FD0BC0660F771F881F991F03
:1035D000A50194010E947D3449015A010AC0A50148
:1035E00094010E947D3449015A01880C991CAA1C3F
:1035F000BB1C9927B7FC9A958B2D7A2D692D9B01C1
:10360000AC010E9459349B01AC01AEEDBBE00E94BD
:10361000C4346B017C01A3E4B3EEA50194010E94C4
:10362000D234BB2797FDB095AB2F6701FF24D7FCA1
:10363000F094EF2C8C0D9D1DAE1DBF1D8153914F3D
:10364000AF4FBF4F44E0B595A795979587954A959D
:10365000D1F7BC01CD01680D791D8A1D9B1D0F900E
:103660000F900F900F900F90DF91CF911F910F91BE
:10367000FF90EF90DF90CF90BF90AF909F908F9092
:103680007F906F905F904F9008952F923F924F924E
:103690005F926F927F928F929F92AF92BF92CF92E2
:1036A000DF92EF92FF920F931F93CF93DF93CDB7EB
:1036B000DEB72A970FB6F894DEBF0FBECDBF4C0120
:1036C0002A013B013C832B8320E030E0A901C301A8
:1036D000B2010E94AF3087FF05C060E070E080E07B
:1036E0009FEB04C060E070E080E09FE31E821D82DB
:1036F0002D813E814B815C812417350764F420E0E5
:1037000030E040E251E40E94B430ED81FE81319618
:10371000FE83ED83EDCF9B01AC01C301B2010E949A
:1037200043306B017C0120E030E0A901C301B2010C
:103730000E94AF3087FF04C0F7FAF094F7F8F094D6
:10374000A12CB12CFDECF9832CEC2A830CEC1DE3AD
:1037500020E030E040E251E469817A81C8010E94B2
:1037600067321B018F839D83A70196010E94AF30B2
:10377000181644F03FEFA31AB30A29823A820F8148
:103780001D81E6CFA114B10431F0A5014F5F5F4F59
:103790005E834D8304C062E070E07E836D8320E031
:1037A00030E0A901C301B2010E94AF3087FF05C01C
:1037B0008D819E8101969E838D83EB81FC81319664
:1037C000F887EF832D813E812E0F3F1F12161306BF
:1037D00044F081E090E0AC01421B530B5E834D83CB
:1037E00002C01E821D8220E030E0A901C301B201A7
:1037F0000E94AF3087FF07C08DE2F401808322244E
:103800002394312C02C0212C312CA114B10459F481
:1038100091012F5F3F4F3A872987F401E20DF31D95
:1038200080E3808344C01A86198629813A81A801E1
:10383000C701B6010E94B4300E9426312B013C0121
:1038400069857A85620D731D680D791D4AE0C20194
:103850000E94F72FB201550C880B990B0E9464311E
:1038600029813A81A8010E9467329B01AC01C701FE
:10387000B6010E9442306B017C0120E030E040E262
:1038800051E469817A81C8010E94B43069837A83E6
:103890008C0149855A854F5F5F4F5A874987A41627
:1038A000B50619F6B501620D731D7A8769878B819C
:1038B0009C81181619060CF042C0A984BA849FEFA7
:1038C000A91AB90A8EE2E985FA85E80DF91D808307
:1038D00000E010E00F5F1F4FEF81F885E017F10760
:1038E00039F42B813C812A0D3B1D3A87298727C05B
:1038F00020E030E040E251E4C701B6010E946732A7
:103900002B013C010E9426316B017C0169857A857F
:10391000600F711F680D791D4AE0C6010E94F72FE4
:10392000B601DD0C880B990B0E9464319B01AC0140
:10393000C301B2010E9442306B017C01CBCF4D81AB
:103940005E81452BA9F029853A85F901E80DF91D1D
:1039500040E269857A856F5F7F4F7A8769874193F7
:10396000CB01821B930B6D817E81861797078CF3A9
:1039700089859A85880D991DFC011082C4012A96BB
:103980000FB6F894DEBF0FBECDBFDF91CF911F9170
:103990000F91FF90EF90DF90CF90BF90AF909F90EE
:1039A0008F907F906F905F904F903F902F900895F1
:1039B000DC015196ED91FC915297908150968C913B
:1039C00080958923808308950F931F93CF93C82FE9
:1039D00001E712E0F801608F682FC8010E94A60A73
:1039E000F801108E8C2FCF911F910F910895CF93D6
:1039F000DF93CDB7DEB7C855D1090FB6F894DEBF57
:103A00000FBECDBF789484B5826084BD84B58160DB
:103A100084BD85B5826085BD85B5816085BD809199
:103A20006E00816080936E00109281008091810011
:103A30008260809381008091810081608093810009
:103A4000809180008160809380008091B1008460CB
:103A50008093B1008091B00081608093B00080912C
:103A60007A00846080937A0080917A0082608093EB
:103A70007A0080917A008E7F80937A0080917A001C
:103A8000806880937A001092C10061E08DE00E940E
:103A90008A0B61E08DE00E945B0B61E083E00E9495
:103AA0008A0B60E083E00E945B0B8091380190916B
:103AB0003901909301018093000162EF71E082E08F
:103AC00092E00E94F30688EE91E090939702809333
:103AD00096021092B7021092B6021092F70210925C
:103AE000F6021092D60289E08093D702CC24C394C8
:103AF000D12CD0929502C092940261E083E00E94A2
:103B00005B0B61E083E00E948A0B5DE2A52E51E031
:103B1000B52EF50184918093810209E111E0F8014D
:103B20008491E82FF0E0EE0FFF1FE45FFE4F8591D8
:103B30009491909383028093820260E083E00E94DC
:103B40008A0B61E083E00E945B0B73E0972E9092FA
:103B50007D02F501A490A0927E02F8010491E02F6D
:103B6000F0E0EE0FFF1FEE5FFE4F85919491909372
:103B7000800280937F0281E08093870288EC90E04E
:103B8000909393028093920222E530E030938B026F
:103B900020938A0226EC30E030938D0220938C0231
:103BA00042E252E050938F0240938E023093910292
:103BB00020939002209168002460209368002DE6F5
:103BC00030E0309385022093840228E0209386021F
:103BD0000197F1F70E94C5060E94B3069092510327
:103BE00085E692E00E94300E80ED0E948E068535BB
:103BF00009F052C08AEA0E945F06909353038093B3
:103C000052038CEA0E945F069093550380935403FD
:103C10008EEA0E945F06909357038093560380EBD1
:103C20000E945F06909363038093620382EB0E947D
:103C30005F06909365038093640384EB0E945F06A4
:103C4000909367038093660386EB0E945F069093D0
:103C500059038093580388EB0E945F0690935B039F
:103C600080935A038AEB0E945F0690935D038093D2
:103C70005C038CEB0E945F0690935F0380935E036E
:103C80008EEB0E945F069093610380936003D09255
:103C90000301C092020112C087E70E9453058111FF
:103CA00007C086E70E945305882311F40C94042E64
:103CB00082E090E090930301809302018AE090E01B
:103CC0000E94160F813009F05AC080E090E00E94F7
:103CD000160FE82EF12CF0923B01E0923A0181E0C0
:103CE00090E00E94160F182F81E0111101C080E0B2
:103CF000809336018093370182E090E00E94160F96
:103D000090E0A0E0B0E080930C0190930D01A093AF
:103D10000E01B0930F0183E090E00E94160F682F10
:103D200070E080E090E00E94623120E030E048ECFA
:103D300052E40E94B43060930401709305018093B3
:103D400006019093070184E090E00E94160F682F0F
:103D500070E080E090E00E94623120E030E048ECCA
:103D600052E40E94B430609308017093090180937B
:103D70000A0190930B01EF2809F4ADC031C1809185
:103D80000201909103018330910569F030F4813094
:103D9000910571F1029739F047C08430910541F1E6
:103DA000059731F141C08EEA97E4A1E6BFE3809325
:103DB000040190930501A0930601B09307018AE9DD
:103DC00099E9A9E1BEE38093080190930901A093CA
:103DD0000A01B0930B0183E090E0A0E0B0E0809393
:103DE0000C0190930D01A0930E01B0930F011CC024
:103DF00080E090E0A0E0BFE3809304019093050190
:103E0000A0930601B09307018093080190930901E4
:103E1000A0930A01B0930B0110920C0110920D01B6
:103E200010920E0110920F0160E080E090E00E947D
:103E3000140F60E081E090E00E94140F60910C018B
:103E400082E090E00E94140F20E030E048EC52E461
:103E50006091040170910501809106019091070124
:103E60000E9467320E94263183E090E00E94140F86
:103E700020E030E048EC52E46091080170910901C3
:103E800080910A0190910B010E9467320E942631B5
:103E900084E090E00E94140F61E08AE090E00E94CC
:103EA000140F05E010E061E08DE00E945B0B64E61A
:103EB00070E080E090E00E94C60B60E08DE00E9420
:103EC0005B0B64E670E080E090E00E94C60B01505E
:103ED000110949F7FACE6BED71E08DED91E00E948A
:103EE0003213803188F490E0FC01EE0FFF1FEA509E
:103EF000FD4F20E431E031832083880F991FFC01BE
:103F0000EA52FD4F88E2808360ED71E082ED91E03E
:103F10000E943213803188F490E0FC01EE0FFF1F05
:103F2000EA50FD4F2CE331E031832083880F991F45
:103F3000FC01EA52FD4F88E0808366EC71E08AEC78
:103F400091E00E943213803188F490E0FC01EE0F82
:103F5000FF1FEA50FD4F28E431E031832083880FB2
:103F6000991FFC01EA52FD4F88E4808369EB71E000
:103F70008DEB91E00E943213803188F490E0FC01D7
:103F8000EE0FFF1FEA50FD4F2AE631E03183208318
:103F9000880F991FFC01EA52FD4F88E480836AEA8A
:103FA00071E08DEA91E00E943213803188F490E054
:103FB000FC01EE0FFF1FEA50FD4F22E631E0318396
:103FC0002083880F991FFC01EA52FD4F88E280830D
:103FD000112309F49DC06CE971E080EA91E083C08F
:103FE0006EE871E081E991E00E943213803188F43B
:103FF00090E0FC01EE0FFF1FEA50FD4F20E431E09E
:1040000031832083880F991FFC01EA52FD4F88E21B
:10401000808362E871E085E891E00E94321380318C
:1040200088F490E0FC01EE0FFF1FEA50FD4F2CE3F7
:1040300031E031832083880F991FFC01EA52FD4F44
:1040400088E0808367E771E08CE791E00E9432139B
:10405000803188F490E0FC01EE0FFF1FEA50FD4F25
:1040600028E431E031832083880F991FFC01EA5254
:10407000FD4F88E4808369E671E08EE691E00E945E
:104080003213803188F490E0FC01EE0FFF1FEA50FC
:10409000FD4F2AE631E031832083880F991FFC0110
:1040A000EA52FD4F88E480836AE571E08DE591E096
:1040B0000E943213803188F490E0FC01EE0FFF1F64
:1040C000EA50FD4F22E631E031832083880F991FAB
:1040D000FC01EA52FD4F88E280831123C9F06BE4B2
:1040E00071E080E591E00E943213803188F490E025
:1040F000FC01EE0FFF1FEA50FD4F24E431E0318355
:104100002083880F991FFC01EA52FD4F88E48083C9
:1041100080910201909103010397C9F46EE371E06D
:1041200082E491E00E943213803188F490E0FC0137
:10413000EE0FFF1FEA50FD4F2EE531E03183208363
:10414000880F991FFC01EA52FD4F88E280830E948C
:10415000180F60E08DE00E945B0B1E01B3E22B0E96
:10416000311C80910201909103018330910509F483
:10417000FEC008F048C08130910509F468C002977C
:1041800009F0C7C60E9456170E94263160936A0143
:1041900070936B0180936C0190936D010E94561790
:1041A00020E030E048EC52E40E94B43020E030E5FA
:1041B0004DE754E40E94B43021E03EED42E45EE37A
:1041C0000E94D4329B01AC0160E070E080E89FE384
:1041D0000E94423020E03AE24DE257E40E9467320A
:1041E00020E030E048EC52E40E9467320E94263121
:1041F00060936601709367018093680190936901F1
:104200000E94CE1676C68430910509F4F9C105974F
:1042100009F07FC66091460385E692E00E941A0E7F
:1042200088EA90E00E94CF1385E692E00E94BE0DDE
:1042300043E06091460385E692E00E94240E80915F
:104240001B0290E020911C02821B910999C50E94DB
:104250006C1960936A0170936B0180936C01909369
:104260006D010E946C190E94643120E836EE45EC25
:1042700057E40E94B43021E03EED42E45EE30E9448
:10428000D4329B01AC0160E070E080E89FE30E94C3
:10429000423020E03AE24DE257E40E94673220E0EB
:1042A00030E048EC52E40E9467320E94263160936D
:1042B00066017093670180936801909369010E9481
:1042C0005019AC0160E070E0809166039091670343
:1042D0009A01AB01281B390B41095109A0916403D4
:1042E000B09165030E94C4346B017C01EFE0F5944A
:1042F000E794D794C794EA95D1F760915E037091E3
:104300005F03CB01770FAA0BBB0BBC01CD01FBE018
:10431000660F771F881F991FFA95D1F720916003C8
:10432000309161038901330F220B330BA9019801EE
:104330002C0D3D1D4E1D5F1D0E949F34DA01C901E9
:104340008C0D9D1DAE1DBF1D0896A11DB11DBC018C
:10435000CD01A4E09595879577956795AA95D1F7B6
:104360000E94643120E030E040E251E406C50E9442
:10437000DF140E94263160936A0170936B01809371
:104380006C0190936D010E94DF1420E030E048EC56
:1043900052E40E94B43020E030E54DE754E40E943E
:1043A000B43021E03EED42E45EE30E94D4329B0152
:1043B000AC0160E070E080E89FE30E94423020E0C2
:1043C0003AE24DE257E40E94673220E030E048ECE8
:1043D00052E40E9467320E94263160936601709316
:1043E000670180936801909369010E947F0820E033
:1043F00030E040E251E40E9467320E94263160932F
:1044000062017093630180936401909365010E943F
:104410007F088DEF0E94FC02A0E0B0E08115E0E88B
:104420009E07A105B10509F4D6C040906F035090D6
:1044300070036090710370907203FCE25F1AF1E008
:104440006F0A71086EE0880F991FAA1FBB1F6A953B
:10445000D1F74091930350919403052E000C660B05
:10446000770BE4E1440F551F661F771FEA95D1F7DC
:104470006C017D01C41AD50AE60AF70AA0919503DA
:10448000B0919603A30192010E94CF34C61AD70AB5
:10449000E80AF90A00E4D00EE11CF11CFFE0F594F3
:1044A000E794D794C794FA95D1F7A0919203B0E01E
:1044B0000E94C4344B015C01ABE0B594A79497947F
:1044C0008794AA95D1F710E8910EA11CB11CA09178
:1044D00097030A2E000CBB0B0E94CF34BAE09595CF
:1044E000879577956795BA95D1F7A50194010E94B4
:1044F0005934DC01CB011AE0B595A79597958795BE
:104500001A95D1F79C01AD01405E5F4FA0919003D9
:10451000B09191030E94CF34DC01CB01905EAF4F8C
:10452000BF4FBC01CD010EE09595879577956795B6
:104530000A95D1F7A70196010E9459346B017C01BD
:104540002FE095958795779567952A95D1F79B01EB
:10455000AC010E9459349B01AC0167E05595479529
:10456000379527956A95D1F7A0918F03B0E00E9407
:10457000C434DC01CB0174E0B595A7959795879578
:104580007A95D1F7A7019601281B390B4A0B5B0BD3
:10459000DA01C90157FF03C080E090E0DC018130FF
:1045A0009105A10539E1B30724F080E090E0A0E097
:1045B000B9E1BC01CD015CE095958795779567954C
:1045C0005A95D1F70E94643120E030E040E85AE388
:1045D0000E94673204C060E070E080EC9FE720E05A
:1045E00030E040E251E40E9467320E94263160933D
:1045F0005E0170935F01809360019093610189C4B3
:1046000067E785E692E00E941A0E80917B0190E0B8
:10461000805C9F4F0E94CF1385E692E00E94BE0D02
:1046200060917A0170E080E090E00E94C60B0E94E9
:104630005B072C966CAF7DAF8EAF9FAF2C970E941F
:104640009E072091760130917701890120E030E0CA
:10465000322F212F102F00272B013C01401A510A25
:10466000620A730AE0917401F09175018090700103
:1046700090907101940140E050E060E070E080E0D3
:1046800090E000E10E9441362BAB3BAF4FAF249648
:104690005FAF24974B0125968FAF259726969FAF46
:1046A0002697BF0180E090E0A30192010E9430357F
:1046B0008901D42EB52FF62FE72F7C01A0E00E94B0
:1046C00096364CF4AFE70E9481368901D42EB52F7F
:1046D000F62FE72F7C0198014D2D5B2F6F2F7E2F3A
:1046E000C70107E00E945A3659016A017B018C011B
:1046F0002BA93BAD4FAD24965FAD2497B401259611
:104700008FAD259726969FAD26970E9478362496E2
:104710002FAF249725963FAF259726964FAF269724
:104720002D965FAF2D972E966FAF2E972F967FAF5A
:104730002F9760968FAF609761969FAF6197E090DB
:104740006E01F0906F01609172017091730180E0D1
:1047500090E0A30192010E943035D22E032F142F36
:10476000B52FF62FE72FB82EC92EA0E00E9496365F
:1047700084F421503F4F4F4F5F4F6F4F7F4F8F4F0C
:104780009F4FD22E032F142FB52FF62FE72FB82EC1
:10479000C92E2D2D302F412F5B2F6F2F7E2F8B2D6C
:1047A0009C2D08E00E945A362BAB3BAF4A01B62F36
:1047B000A72FF82FE92FC12CD12C9701A60160E07B
:1047C00070E080E090E00FE00E94413659016A01FC
:1047D0007B018C012BA93BADA4016B2F7A2F8F2F6E
:1047E0009E2F0E94783662962FAF629763963FAFF6
:1047F000639764964FAF649765965FAF65976696CB
:104800006FAF669767967FAF679768968FAF689729
:1048100069969FAF6997609178017091790180E006
:1048200090E0A30192010E943035F22E032F142F45
:10483000B52FF62FE72FD82EE92EA0E00E9496364E
:1048400084F42150310940485F4F6F4F7F4F8F4FA5
:104850009F4FF22E032F142FB52FF62FE72FD82EB0
:10486000E92E2F2D302F412F5B2F6F2F7E2F8D2D77
:104870009E2D07E10E945A3649015A019501840193
:104880000053184F2F4F3F4F23960CAF1DAF2EAF45
:104890003FAF239710928001109281011092820104
:1048A000109283011092840110928501109286016A
:1048B00010928701109288011092890110928A014A
:1048C00010928B0110928C0110928D0110928E012A
:1048D00010928F01003D1740210531050CF0C5C035
:1048E000A5019401C501B4010E9459349B01AC019A
:1048F000A5E0B0E00E94C4348B019C01359527955A
:10490000179507950BAB1CAB2DAB3EAB2B013C01B8
:10491000770C4408542C32010093800110938101DC
:10492000209382013093830140928401409285015B
:1049300040928601409287019B01AC0112E055959F
:104940004795379527951A95D1F72BAF3CAF4DAFCB
:104950005EAF209388013093890140938A01509380
:104960008B0140928C0140928D0140928E014092C9
:104970008F0123960CAD1DAD2EAD3FAD23970432B4
:104980001A4F2F4F3F4F0CF070C0C501B401645552
:10499000724F8F4F9F4F9B01AC010E945934239659
:1049A0006CAF7DAF8EAF9FAF2397A7E0B0E09B01C8
:1049B000AC010E94C4344B015C01BB0C8808982CEC
:1049C00054019B01AC01682D782D882D982DABA842
:1049D000BCA8CDA8DEA8E42CF42C042D142D0E9434
:1049E0007836209380013093810140938201509367
:1049F0008301609384017093850180938601909375
:104A00008701ABE0B0E023962CAD3DAD4EAD5FAD80
:104A100023970E94C4344B015C01B594A7949794EA
:104A200087946B017C01FF0CCC08DC2C760194018F
:104A3000A5016C2D7C2D8C2D9C2DABACBCACCDACD4
:104A4000DEACE42CF42C0E9478362093880130935D
:104A5000890140938A0150938B0160938C0170937C
:104A60008D0180938E0190938F0162962FAD629796
:104A700063963FAD639764964FAD649765965FAD5F
:104A8000659766966FAD669767967FAD67976896F0
:104A90008FAD689769969FAD6997A0908801B09097
:104AA0008901C0908A01D0908B01E0908C01F09038
:104AB0008D0100918E0110918F010E948D362C96F0
:104AC000CCACDDACEEACFFAC2C9756016701E12C11
:104AD000F12C8701ABAABCAACDAADEAAEFAAF8AE38
:104AE00009AF1AAFE12CF12C00E010E00E94D7349E
:104AF000F22E032F142FB52FF62FE72FD82EE92EE5
:104B0000A0E00E94963684F421503109404E5F4F58
:104B10006F4F7F4F8F4F9F4FF22E032F142FB52FC4
:104B2000F62FE72FD82EE92E2F2D302F412F5B2F78
:104B30006F2F7E2F8D2D9E2D05E10E945A36390153
:104B40004A01B62FA72FF82FE92F24962FAD2497CF
:104B500025963FAD259726964FAD26972D965FADAE
:104B60002D972E966FAD2E972F967FAD2F9760962F
:104B70008FAD609761969FAD6197A0908001B090D6
:104B80008101C0908201D0908301E0908401F09077
:104B9000850100918601109187010E948D3659018F
:104BA0006A017B018C019301A4016B2F7A2F8F2F57
:104BB0009E2F0E948D36F22E032F142FB52FF62F25
:104BC000E72FD82EE92EA0E00E94963684F42150DB
:104BD00030484F4F5F4F6F4F7F4F8F4F9F4FF22E99
:104BE000032F142FB52FF62FE72FD82EE92E2F2DB8
:104BF000302F412F5B2F6F2F7E2F8D2D9E2D0FE09D
:104C00000E945A36B901CA0120936A0170936B0160
:104C100040936C0190936D010E94643120E836EE60
:104C200045EC57E40E94B4302BEA3CED42E45EE3ED
:104C30000E94D4329B01AC0160E070E080E89FE309
:104C40000E94423020E03AE24DE257E40E9467328F
:104C500020E030E048EC52E40E9467320E942631A6
:104C60006093660170936701809368019093690176
:104C70000E949E072091760130917701890120E002
:104C800030E0322F212F102F00276B017C01C01A3A
:104C9000D10AE20AF30A609178017091790180E00B
:104CA00090E0A70196010E943035B22E032F142FF9
:104CB000B52FF62FE72F982EA92EA0E00E9496364A
:104CC00084F42150310940485F4F6F4F7F4F8F4F21
:104CD0009F4FB22E032F142FB52FF62FE72F982EAC
:104CE000A92E2B2D302F412F5B2F6F2F7E2F892D3B
:104CF0009A2D07E10E945A3629013A0100ED400E33
:104D000007E0501E611C711C10ED411617E05106A2
:104D1000610471044CF010927C0110927D0110929C
:104D20007E0110927F0113C0A7019601C701B60151
:104D30000E94593420E030E0A9010E949F34209362
:104D40007C0130937D0140937E0150937F018091DF
:104D50007C0190917D01A0917E01B0917F01A30122
:104D60009201281B390B4A0B5B0BCA01B9010E9447
:104D7000643120E030E048EC52E40E94B430B9C025
:104D800083309105ECF385E692E00E94D709182F55
:104D900085E692E00E94D709082F85E692E00E94FE
:104DA000D70928960FAF289727961FAE27972896E2
:104DB000AEADBFAD2897AD0160E070E0082E000CED
:104DC000990BAA0BBB0BDC0199278827812B5A0171
:104DD0006B01A82AB92ACA2ADB2AC601B5010E949A
:104DE000643120E030E040E859E30E94673220E07F
:104DF00030E048EC52E40E9467320E942631609312
:104E00006A0170936B0180936C0190936D0124E6AD
:104E100030E040E050E00E949F34CA01B9010E9496
:104E2000643120E030E54DE754E40E94B4302EE4D4
:104E300034ED42E45EE30E94D4329B01AC0160E0B9
:104E400070E080E89FE30E9442302DEC3AE24DE2B0
:104E500057E40E94673220E030E048EC52E40E94C0
:104E600067320E94263160936601709367018093D8
:104E70006801909369016091460385E692E00E9483
:104E80001A0E8BEA90E00E94CF1385E692E00E9412
:104E9000BE0D42E06091460385E692E00E94240E3A
:104EA00080911B0290E020911C02821B91098230AC
:104EB0009105ECF385E692E00E94D709182F85E66C
:104EC00092E00E94D709982F8827BC01612B072EFA
:104ED000000C880B990B0E94643120E030E040EF19
:104EE00053E40E94B43020E030E04AE252E40E94F1
:104EF000433020E030E040E251E40E9467320E94FB
:104F000026316093620170936301809364019093F2
:104F1000650100915C0110915D01C0906601D09027
:104F20006701E0906801F09069010930110581F492
:104F3000C0925801D0925901E0925A01F0925B015F
:104F4000109254011092550110925601109257017F
:104F50008091500190915101A0915201B091530163
:104F6000A7019601281B390B4A0B5B0BCA01B9013B
:104F70000E9464314B015C010E94000C40904C0186
:104F800050904D0160904E0170904F016419750969
:104F9000860997090E9462319B01AC0160E070E0D4
:104FA0008AE794E40E94B430A50194010E9467321C
:104FB0000E942631609348017093490180934A0111
:104FC00090934B0160934401709345018093460197
:104FD000909347010E94000C60934C0170934D0127
:104FE00080934E0190934F01C0925001D092510195
:104FF000E0925201F0925301609148017091490191
:1050000080914A0190914B010E9464312B013C0137
:105010002091540130915501409156015091570112
:105020006091040170910501809106019091070142
:105030000E9467324B015C01209108013091090107
:1050400040910A0150910B01C301B2010E946732E5
:105050009B01AC01C501B4010E944330609354012F
:105060007093550180935601909357010E94263109
:1050700040900C0150900D0160900E0170900F0156
:1050800046165706680679063CF4DC01CB01841904
:105090009509A609B70912C08824992454018418D7
:1050A0009508A608B708681579058A059B057CF45C
:1050B000DC01CB01840D951DA61DB71D8093480111
:1050C00090934901A0934A01B0934B0108C01092FC
:1050D00048011092490110924A0110924B018091AF
:1050E000580190915901A0915A01B0915B01A7011B
:1050F0009601281B390B4A0B5B0BCA01B9012AE048
:1051000030E040E050E00E949F3420934001309313
:1051100041014093420150934301C701B60124E687
:1051200030E040E050E00E949F3420933C013093F7
:105130003D0140933E0150933F010A301105F4F4C4
:105140000F5F1F4F10935D0100935C0110924801A7
:105150001092490110924A0110924B0110924001A5
:1051600010924101109242011092430110923C01B1
:1051700010923D0110923E0110923F0180913A0140
:1051800090913B01019709F0A2C06091400170919C
:10519000410180914201909143010E9464312FEBC3
:1051A0003EE04CE95EE30E94B4300E9426316093F9
:1051B00040017093410180934201909343016091BB
:1051C0003C0170913D0180913E0190913F010E9410
:1051D00064312FEB3EE04CE95EE30E94B4300E9464
:1051E000263160933C0170933D0180933E01909382
:1051F0003F01609148017091490180914A0190916D
:105200004B010E9464312FEB3EE04CE95EE30E94CB
:10521000B4300E9426316093480170934901809315
:105220004A0190934B016091440170914501809136
:105230004601909147010E9464312FEB3EE04CE91A
:105240005EE30E94B4300E94263160934401709363
:105250004501809346019093470160916A017091E6
:105260006B0180916C0190916D010E9464312DED74
:1052700038EE41EF5CE30E9467320E942631609372
:105280006A0170936B0180936C0190936D01609142
:1052900062017091630180916401909165010E94A7
:1052A000643126E636E646EE5FE30E94673220E090
:1052B00030E040EA53E40E9443300E94263160937C
:1052C0006201709363018093640190936501E091A2
:1052D0003801F091390180910001909101018E1700
:1052E0009F0721F0F0930101E0930001EC30F105FC
:1052F00008F050C2EC5CFF4F0C94BE3469ED73E0D3
:1053000089EE93E00E94F30645C21A8A19821BA215
:10531000609140017091410180914201909143015F
:105320000E94643120E030E040E251E40E94B43059
:10533000AB01BC0121E030E0C1010E94451BF1013D
:1053400001900020E9F731978F010219130980912C
:105350003A0190913B01892B19F463ED73E002C08F
:105360006EEC73E0CE0142960E94E32F80914001E3
:1053700090914101A0914201B0914301B7FD1BC042
:105380000330110519F469EC73E029C004301105EC
:1053900019F465EC73E023C00530110519F462ECD3
:1053A00073E01DC00830110519F460EC73E017C0FC
:1053B0006FEB73E014C00430110519F46BEB73E06C
:1053C0000EC00530110519F468EB73E008C0063013
:1053D000110519F466EB73E002C065EB73E0CE01D2
:1053E00042960E94E32FB101CE0142960E94CA3636
:1053F00080913A0190913B01892B19F463EB73E0A2
:1054000002C060EB73E0CE0142960E94E32F1BA224
:10541000609148017091490180914A0190914B013E
:105420000E94643120E030E048EC52E40E94B43045
:10543000AB01BC0122E030E0C1010E94451BF1013B
:1054400001900020E9F731978F010219130980912B
:105450003A0190913B01892B19F46AEA73E002C08A
:1054600065EA73E0CE0101960E94E32F8091480126
:1054700090914901A0914A01B0914B01B7FD15C02F
:105480000330110519F46FE973E023C004301105EE
:1054900019F46AE973E01DC00530110519F466E9D5
:1054A00073E017C063E973E014C00430110519F408
:1054B0006EE873E00EC00530110519F46AE873E078
:1054C00008C00630110519F467E873E002C065E80A
:1054D00073E0CE0101960E94E32FB101CE01019647
:1054E0000E94CA3680913A0190913B01892B19F4B0
:1054F00061E873E044C16CE773E041C11A8A198224
:1055000065E773E0CE0142960E94E32F1BA26091F3
:1055100062017091630180916401909165010E9424
:10552000643120E030E040E251E40E94B430AB014D
:10553000BC0121E030E0C1010E94451BB101CE0158
:1055400042960E94CA3680913A0190913B010197A0
:1055500019F462E773E002C06FE673E0CE01429691
:105560000E94E32F68E673E0CE0101960E94E32FCC
:105570001BA260916A0170916B0180916C01909106
:105580006D010E94643120E030E048EC52E40E945A
:10559000B430AB01BC0121E030E0C1010E94451BE9
:1055A000B101CE0101960E94CA3680913A019091D4
:1055B0003B01019719F463E673E0E1C06FE573E026
:1055C000DEC01A8A19826FE473E0CE0142960E940F
:1055D000E32F63E473E0D3C01A8A198268E373E0AF
:1055E000CE0142960E94E32F1BA2409104015091EC
:1055F0000501609106017091070122E030E0C101D0
:105600000E94451BB101CE0142960E94CA3668E253
:1056100073E0B5C01A8A19826DE173E0CE0142963B
:105620000E94E32F1BA24091080150910901609153
:105630000A0170910B0122E030E0C1010E94451B7C
:10564000B101CE0142960E94CA366DE073E097C068
:105650001A8A198262E073E0CE0142960E94E32F1B
:105660001BA260910C0170910D0180910E0190912F
:105670000F010E946431AB01BC0120E030E0C101A8
:105680000E94451BB101CE0142960E94CA3662EFCC
:1056900072E075C01A8A198261EE72E0CE014296FC
:1056A0000E94E32F809102019091030182309105C5
:1056B000B1F040F4009781F0019709F064C062EC0A
:1056C00072E05DC08430910581F060F0059709F0CB
:1056D0005AC061E972E053C063ED72E050C065EBFF
:1056E00072E04DC068EA72E04AC06BE972E047C000
:1056F0001A8A198269E872E0CE0142960E94E32F6D
:1057000080913A0190913B01019719F46FE772E0A3
:1057100002C066E772E0CE0142960E94E32F69E67E
:1057200072E02DC01A8A19826DE572E0CE014296B0
:105730000E94E32F80913701882319F06AE572E017
:1057400002C066E572E0CE0142960E94E32F69E452
:1057500072E015C01A8A198268E372E0CE0142969F
:105760000E94E32F6DE272E00AC01A8A19826EE18C
:1057700072E0CE0142960E94E32F62E172E0CE0118
:1057800001960E94E32FBE016F5F7F4FCE014296CC
:105790000E94290781E792E00E94FE0E0E94B30654
:1057A0000E94180F60E080917D020E948A0B61E0E8
:1057B00080917D020E945B0B0E94C5060E94C50677
:1057C0000E94000C6B017C0134E6C30ED11CE11C6D
:1057D000F11C00E010E00E94000C6C157D058E05A8
:1057E0009F0578F581E792E00E94680A181619066D
:1057F00094F781E792E00E94680A1816190614F0DF
:1058000000E01AC081E792E00E947F0A082F809191
:105810003D030813ECC28090180390901903A090E8
:105820001A03B0901B030E94000C86169706A80668
:10583000B90608F4DCC2E4CF10E00115110559F2F5
:10584000EEC2003F110509F4D3C10115110509F499
:10585000CFC10039110509F431C144F400361105F6
:1058600009F498C100371105D1F0C2C1003D1105FE
:1058700051F1003E110529F0003B110509F0B8C1B6
:105880006FC080913801909139018B30910514F4EB
:1058900001960DC01092390110923801A9C1809172
:1058A0003801909139018230910534F0019790933D
:1058B0003901809338019CC14BE050E0509339018D
:1058C0004093380195C1809138019091390184301D
:1058D0009105B9F4C0900401D0900501E090060153
:1058E000F090070128E431EE4AE75FE3C701B60113
:1058F0000E94AF3087FF7CC12AE037ED43E25CE3D2
:10590000FAC085309105B9F4C0900801D090090122
:10591000E0900A01F0900B0128E431EE4AE75FE3E2
:10592000C701B6010E94AF3087FF62C12AE037EDA0
:1059300043E25CE306C1069709F05AC180910C016D
:1059400090910D01A0910E01B0910F018436910547
:10595000A105B1050CF04CC10196A11DB11D11C1ED
:1059600080913801909139010397B1F480916601DB
:1059700090916701A0916801B091690180935801ED
:1059800090935901A0935A01B0935B0181E090E09C
:1059900090933901809338010091380110913901B9
:1059A0000430110521F5C0900401D0900501E0906C
:1059B0000601F09007012AE037ED43E25CE3C701FE
:1059C000B6010E94623218160CF040C22AE037ED90
:1059D00043E25CE3C701B6010E94423060930401D8
:1059E0007093050180930601909307012FC2053043
:1059F000110521F5C0900801D0900901E0900A013D
:105A0000F0900B012AE037ED43E25CE3C701B601F9
:105A10000E94623218160CF019C22AE037ED43E2F8
:105A20005CE3C701B6010E944230609308017093A5
:105A3000090180930A0190930B0108C206301105F9
:105A4000C9F480910C0190910D01A0910E01B091CB
:105A50000F01181619061A061B06D4F40197A1099E
:105A6000B10980930C0190930D01A0930E01B093A6
:105A70000F010EC00830110509F4D6C10930110517
:105A800009F0E4C19091370181E0892780933701C3
:105A900080913801909139010B9709F0A9C060E01D
:105AA0008AE090E00E94140F64E670E080E090E0ED
:105AB0000E94C60BE0E0F0E009959AC080913801A1
:105AC000909139018430910519F5C0900401D0906E
:105AD0000501E0900601F090070124EA30E74DE768
