:100000000C940E020C9436020C9436020C94900759
:100010000C9490070C9490070C9436020C943602C2
:100020000C9436020C9436020C9436020C94360270
:100030000C9436020C9436020C9436020C94360260
:100040000C9439050C9436020C9436020C9436024A
:100050000C9436020C9436020C9436020C94360240
:100060000C94BD050C9436022E2835282E29912992
:100070009C29BA29D829FA29282A422A5A2A652AE3
:1000800007634236B79BD8A71A39685618AEBAAB81
:10009000558C1D3CB7CC5763BD6DEDFD753EF61715
:1000A0007231BF000000803F08000000BE9224496A
:1000B000123EABAAAA2ABECDCCCC4C3E000000809A
:1000C000BEABAAAAAA3E00000000BF000000803F0D
:1000D0000000000000084178D3BB4387D1133D19CD
:1000E0000E3CC3BD4282AD2B3E68EC8276BED98FFA
:1000F000E1A93E4C80EFFFBE01C4FF7F3F0000003E
:10010000000000000000230026002900000000007D
:10011000250028002B000404040404040404020243
:100120000202020203030303030301020408102076
:1001300040800102040810200102040810202572EA
:10014000480048756D69646974790066742F73009E
:10015000566172696F2052617700B0460054656D38
:10016000706572617475726500696E4847005072FF
:100170006573737572650066742F730056617269DA
:100180006F00667400416C74697475646500667410
:100190000052656C2E20416C746974006D2F7300E1
:1001A000566172696F2052617700B0430054656DEB
:1001B0007065726174757265006850610050726597
:1001C0007373757265006D2F7300566172696F00ED
:1001D0006D00416C746974756465006D0052656CE6
:1001E0002E20416C74697400524354205661726928
:1001F0006F0020566172696F6D6574657220312ED3
:10020000340020524354204A65746920546F6F6C47
:10021000730052657365743A20446F776E005265BF
:100220007365742044656661756C74730053617600
:10023000653A20446F776E005361766520616E6485
:100240002052657374617274004368616E67653A29
:1002500020446F776E004F6666004F6E00526177E4
:1002600020566172696F3A20004368616E67653A93
:1002700020446F776E004555286D2CDF43290055CB
:10028000532866742CDF462900556E6974733A2032
:1002900000466F756E64204C505300466F756E6457
:1002A000204D533536313100466F756E6420424D16
:1002B0004532383000466F756E6420424D503238FA
:1002C0003000466F756E6420424D503038352F3106
:1002D0003830004E6F742044657465637465642122
:1002E0000044657465637465642053656E736F7252
:1002F0003A004368616E67653A2055702F446F7706
:100300006E00446561647A6F6E653A2000436861EF
:100310006E67653A2055702F446F776E0046696CA2
:1003200074657220593A20004368616E67653A200F
:1003300055702F446F776E0046696C746572205853
:100340003A200050726573733A20446F776E004113
:100350006C7469747564652052657365743F0068D8
:10036000506100696E484700507265733A2000B0D2
:100370004300B0460054656D703A200066742F73D8
:10038000006D2F730020002020002020200020205E
:1003900020200020200020202000202020200020DD
:1003A00020202020005661723A005661723A2000E7
:1003B0006674006D00002000202000202020000036
:1003C0002000202000202020002020202000416C40
:1003D000743A00416C743A200020566172696F6D66
:1003E0006574657220312E340020524354204A65D2
:1003F000746920546F6F6C730000000000240027A4
:10040000002A0000000008000201000003040700A9
:1004100000000000000000004B2F412F11241FBEE0
:10042000CFEFD8E0DEBFCDBF11E0A0E0B1E0EEE35A
:10043000FDE602C005900D92A633B107D9F723E07F
:10044000A6E3B1E001C01D92AB3CB207E1F712E0B8
:10045000CDE0D2E004C02197FE010E947B34CC3075
:10046000D107C9F70E94C81A0C9492360C94000068
:10047000CF92DF92EF92FF920F931F93CF93DF9370
:100480006C017A018B01C0E0D0E0CE15DF0589F068
:10049000D8016D918D01D601ED91FC910190F08113
:1004A000E02DC6010995892B11F47E0102C0219629
:1004B000ECCFC701DF91CF911F910F91FF90EF908B
:1004C000DF90CF900895833081F028F4813099F047
:1004D0008230A1F008958730A9F08830B9F08430D7
:1004E000D1F4809180008F7D03C0809180008F7750
:1004F00080938000089584B58F7702C084B58F7D86
:1005000084BD08958091B0008F7703C08091B000C2
:100510008F7D8093B00008953FB7F8948091F301E8
:100520009091F401A091F501B091F60126B5A89B38
:1005300005C02F3F19F00196A11DB11D3FBFBA2F75
:10054000A92F982F8827820F911DA11DB11DBC01D5
:10055000CD0143E0660F771F881F991F4A95D1F799
:10056000089585ED8093BC008091BC0084FDFCCF94
:100570001092650208954091C801262F30E0240FA3
:10058000311D21323105DCF4209165022430C9F49B
:10059000FC0180E090E0861758F43091C801219169
:1005A000DC01AA55BE4FA30FB11D2C930196F3CFCA
:1005B0008091C801680F6093C80180E0089581E0D0
:1005C000089582E008950895E0911E0280911D0231
:1005D000E81730F4F0E0E15EFD4F808190E008958F
:1005E0008FEF9FEF089590911E0280911D02981742
:1005F00050F4E92FF0E0E15EFD4F208130E09F5F95
:1006000090931E0202C02FEF3FEFC9010895809121
:100610001D0290E020911E02821B91090895CF9245
:10062000DF92EF92FF920F931F93CF93DF937C01A2
:10063000262F972F8A018091A501882391F0C62F3C
:10064000D72F6E01C40ED51ECC15DD0571F0699152
:10065000D701ED91FC910190F081E02DC701099542
:10066000F3CF642F822F0E94BB02C801DF91CF918C
:100670001F910F91FF90EF90DF90CF900895CF934F
:10068000DF931F92CDB7DEB769832091A5012223A6
:10069000D1F02091A401203240F021E030E0FC01B3
:1006A0003383228380E090E015C08091A301E82F7E
:1006B000F0E0ED57FE4F998190838F5F8093A30107
:1006C0008093A40105C061E0CE0101960E94BB02A7
:1006D00081E090E00F90DF91CF9108950895DC01C3
:1006E0005196ED91FC915297908150968C91809506
:1006F00089238083089520911B0230911C022817C2
:10070000390771F49091190280911A02981741F0FB
:10071000E0911902F0E0EE58FE4F808190E00895DC
:100720008FEF9FEF0895089520911B0230911C02D6
:100730002817390769F480911A022091190290E074
:100740004096821B910960E170E00E942634089572
:1007500080E090E0089520911B0230911C02281740
:100760003907B9F49091190280911A02981789F00B
:10077000E0911902F0E0EE58FE4F808120911902BD
:1007800030E02F5F3F4F2F7033272093190290E006
:1007900008958FEF9FEF0895089580E090E0089509
:1007A0000E948236CF92DF92EF92FF920F931F93B7
:1007B000CF93DF93EC0189A19AA1009729F421E05E
:1007C00030E03B832A8371C00FB7F8948F8D98A1D6
:1007D000892B91F028E030E090E081E0482F46231B
:1007E00009F09F5F880F21503109C1F7888D811171
:1007F0009F5F192F109501C010E0F62ECE010E94C8
:100800006F0389A19AA10197F1F788E0C82ED12C36
:10081000EE24E3948E2D8F2139F0E989FA899081B5
:100820008889892B808303C0CE010E946F0389A130
:100830009AA10197F1F7EE0C81E0C81AD10851F79F
:100840008E89882389F0888D882339F0E989FA898F
:1008500090818889892B808303C0CE010E946F0319
:1008600089A19AA10197F1F78F8D98A1892B81F029
:1008700010FF07C0E989FA8990818889892B8083D4
:1008800003C0CE010E946F038F8D98A10197F1F7ED
:10089000E989FA8990818889892B80830FBF8D8DA2
:1008A0009E8D0197F1F781E090E0DF91CF911F914C
:1008B0000F91FF90EF90DF90CF900895CF93DF934B
:1008C000282F30E0F901ED5FFB4F8491F901E65DDF
:1008D000FE4FD491F901EA5EFE4FC491CC2391F012
:1008E00081110E946302EC2FF0E0EE0FFF1FEE5F1C
:1008F000FE4FA591B491EC91ED2381E090E021F4BD
:1009000080E002C080E090E0DF91CF9108951F93D6
:10091000CF93DF93282F30E0F901ED5FFB4F8491F7
:10092000F901E65DFE4FD491F901EA5EFE4FC491F4
:10093000CC23C9F0162F81110E946302EC2FF0E046
:10094000EE0FFF1FE45FFE4FA591B4918FB7F894AF
:10095000111105C09C91ED2FE095E92302C0EC91A7
:10096000ED2BEC938FBFDF91CF911F910895CF9323
:10097000DF9390E0FC01E65DFE4F2491FC01EA5E0E
:10098000FE4F8491882361F190E0880F991FFC014C
:10099000E750FC4FC591D491FC01E45FFE4FA59157
:1009A000B491611109C09FB7F89488812095822382
:1009B0008883EC912E230BC0623061F49FB7F894CA
:1009C0003881822F809583238883EC912E2B2C9362
:1009D0009FBF06C08FB7F894E8812E2B28838FBF66
:1009E000DF91CF9108958F929F92AF92BF92CF9255
:1009F000DF92EF92FF926B017C010E948C024B010F
:100A00005C01C114D104E104F104F1F00E948C02F4
:100A1000DC01CB0188199909AA09BB09883E9340DA
:100A2000A105B10570F321E0C21AD108E108F1086F
:100A300088EE880E83E0981EA11CB11CC114D1045D
:100A4000E104F10419F7DDCFFF90EF90DF90CF9034
:100A5000BF90AF909F908F9008952FB7F8946091BA
:100A6000EF017091F0018091F1019091F2012FBF9F
:100A700008951F920F920FB60F9211242F933F9358
:100A80008F939F93AF93BF938091EF019091F0016B
:100A9000A091F101B091F2013091EE0126E0230F17
:100AA0002D3720F40296A11DB11D05C029E8230FA2
:100AB0000396A11DB11D2093EE018093EF01909349
:100AC000F001A093F101B093F2018091F3019091B4
:100AD000F401A091F501B091F6010196A11DB11D9F
:100AE0008093F3019093F401A093F501B093F60184
:100AF000BF91AF919F918F913F912F910F900FBE1A
:100B00000F901F901895CF93CFB7F8948091ED0177
:100B1000811127C0E0E2F1E08491E4E3F1E09491F7
:100B2000E82FF0E0EE0FFF1FE750FC4FA591B491C6
:100B3000EC91E92321F461E08AE00E94870461E0FE
:100B40008AE00E94B7048CB580618CBD8CB580644E
:100B50008CBD61E08DE00E94B70461E08BE00E94F3
:100B6000B7048091ED018F5F8093ED01CFBFCF91EE
:100B7000089508958CBD9DBD08951F920F920FB6E4
:100B80000F9211242F933F934F935F936F937F9313
:100B90008F939F93AF93BF93EF93FF938091B9008F
:100BA000887F803609F49CC068F5883209F45BC000
:100BB00090F4803109F454C038F4882309F4F6C065
:100BC000883009F44DC0F6C0883109F44CC0803239
:100BD00009F45DC0EFC0803409F468C048F4803384
:100BE00009F455C0883309F0E5C080936302D8C08A
:100BF000803509F44FC0883509F45DC0883409F0A8
:100C0000D9C0D6C0883909F4C7C0A8F4883709F418
:100C100067C038F4883609F463C0803709F460C0CF
:100C2000C9C0883809F4B8C0803909F45FC0803879
:100C300009F0C0C05BC0803B09F486C038F4803A3C
:100C400009F466C0883A09F47FC0B4C0803C09F456
:100C5000A7C0883C09F4A4C0883B09F48AC0AAC094
:100C60008091600210C09091620280916102981799
:100C700070F5E091620281E08E0F80936202F0E0F5
:100C8000E15CFD4F80818093BB0085EC86C0809342
:100C900063028EC0E091620281E08E0F8093620257
:100CA0008091BB00F0E0E15CFD4F80839091620297
:100CB000809161026EC0E091620281E08E0F8093AC
:100CC00062028091BB00F0E0E15CFD4F8083809187
:100CD000640281116DC081E080935F0284EA61C08B
:100CE00083E0809365021092EC01CFCF8091EC01FC
:100CF000803208F051C0E091EC0181E08E0F8093CA
:100D0000EC018091BB00F0E0E453FE4F8083BDCF47
:100D100085EC8093BC00109265028091EC018032DA
:100D200030F4E091EC01F0E0E453FE4F108260916A
:100D3000EC0170E0E091CA01F091CB018CEC91E004
:100D400009951092EC0136C084E080936502109200
:100D5000C9011092C801E091C601F091C70109953F
:100D60008091C801811105C081E08093C801109273
:100D7000A601E091C90181E08E0F8093C901F0E0E6
:100D8000EA55FE4F80818093BB009091C90180910C
:100D9000C801981708F479CF85E88093BC000AC091
:100DA00085EC8093BC001092650204C0109263022F
:100DB0000E94B102FF91EF91BF91AF919F918F91EE
:100DC0007F916F915F914F913F912F910F900FBE47
:100DD0000F901F9018952091A401909182012132CB
:100DE00008F04AC0809165028111FCCF32E0309357
:100DF000650231E0309364023FEF3093630210925A
:100E0000620220936102A3E8B1E04FE352E0FA01ED
:100E10003E2F341B321718F43D913193F9CF1092C5
:100E2000600220916002990F922B90936002909142
:100E30005F02913061F410925F0290916002909392
:100E4000BB009091BC0093FDF8CF95EC01C095EEEE
:100E50009093BC00909165029230E1F3909163020F
:100E60009F3F79F080916302803241F0809163026C
:100E7000803331F084E005C081E003C082E001C02E
:100E800083E01092A3011092A4011092A50108958D
:100E900081E08093A501609382011092A3011092DA
:100EA000A4010895862F413208F040E2642F0E9489
:100EB000E71210921E0280931D02089510921E02E6
:100EC00010921D021092A3011092A40110926502CB
:100ED00081E08093640210925F0261E082E10E94EF
:100EE000870461E083E10E948704E9EBF0E0808100
:100EF0008E7F808380818D7F808380E28093B800A5
:100F000085E48093BC000895862798E027E087FF5A
:100F100003C0880F822701C0880F9150C1F7089540
:100F20001F920F920FB60F9211242F933F934F935E
:100F30005F936F937F938F939F93AF93BF93CF9361
:100F4000DF93EF93FF93E0911B02F0911C02309727
:100F500009F467C0C685D78588812585822309F075
:100F600060C0818D928D0197F1F7438D548D68E0BB
:100F700070E030E081E0DA011197F1F79881922377
:100F800011F0382B03C0982F90953923880F6150AA
:100F9000710989F780911A0290E001968F70992764
:100FA00060911902681749F0A0911A02B0E0AE589A
:100FB000BE4F3C9380931A0203C087898160878B60
:100FC00086898823F1F0CA010197F1F788812823E7
:100FD00081E090E0A0E0B0E004C0880F991FAA1F54
:100FE000BB1F2A95D2F7409170015091710160E0CA
:100FF00070E0842B952BA62BB72B909371018093D7
:101000007001878D90A1009711F00197F1F7858D00
:10101000968D0197F1F7A389B4899C918589892BD5
:101020008C93FF91EF91DF91CF91BF91AF919F9101
:101030008F917F916F915F914F913F912F910F9081
:101040000FBE0F901F901895E0911B02F0911C02AB
:10105000E817F90769F4A389B4899C91858980957B
:1010600089238C9310921C0210921B0281E0089538
:1010700080E008950C94F12F0C94E92FEF92FF92E9
:101080000F931F93CF93DF93909177039F3F39F492
:101090008EBD00000DB407FEFDCF8EB528C0D82F41
:1010A00007E010E0C0E0EE24E394F12CCC0F60E008
:1010B000809177030E948704B701002E01C0660F5C
:1010C0000A94EAF76D23809175030E94870461E01A
:1010D000809177030E948704809176030E945E04CA
:1010E000892B09F0C1600150110900F78C2FDF91A5
:1010F000CF911F910F91FF90EF900895CF93C82F3C
:101100006091470386E692E00E94480780E290E003
:101110000E9437136C2F86E692E00E943F0386E61A
:1011200092E0CF910C94EB06CF93C82F682F86E600
:1011300092E00E9448078FE090E00E94371386E615
:1011400092E00E94EB0641E06C2F86E692E00E945E
:10115000520790911D0280911E02981729F086E691
:1011600092E0CF910C94F3028FEF9FEFCF9108950F
:10117000CF93DF93D82FC62F809174038F3F41F513
:1011800060916B038091690390916A030E94480704
:101190008091690390916A03DC01ED91FC910190CB
:1011A000F081E02D6D2F09958091690390916A037C
:1011B000DC01ED91FC910190F081E02D6C2F0995FF
:1011C0008091690390916A03DF91CF910C94EB06B3
:1011D000809177038F3F21F481E590E00E94BA056A
:1011E00060E0809174030E9487048D2F8F770E94A6
:1011F0003E088C2F0E943E0861E0809174030E949B
:101200008704809177038F3F21F4DF91CF910C9475
:10121000B905DF91CF910895CF93C82F80917403C2
:101220008F3F81F560916B038091690390916A0310
:101230000E9448078091690390916A03DC01ED9157
:10124000FC910190F081E02D6C2F0995809169034C
:1012500090916A030E94EB0641E060916B038091DC
:10126000690390916A030E945207809169039091EB
:101270006A03DC01ED91FC910284F385E02D099570
:10128000C82F20C0809177038F3F21F481E590E043
:101290000E94BA0560E0809174030E9487048C2F3D
:1012A00080680E943E0880E00E943E08C82F61E0EE
:1012B000809174030E948704809177038F3F11F41B
:1012C0000E94B9058C2FCF910895CF93DF93C82F3B
:1012D000809174038F3F09F041C060916B0380914E
:1012E000690390916A030E94480780916903909175
:1012F0006A03DC01ED91FC910190F081E02D6C2FEF
:1013000009958091690390916A030E94EB0642E07F
:1013100060916B038091690390916A030E94520768
:101320008091690390916A03DC01ED91FC91028444
:10133000F385E02D0995C82F8091690390916A0388
:10134000DC01ED91FC910284F385E02D099520E00C
:1013500030E03C2FE901C82BD92B29C080917703BD
:101360008F3F21F481E590E00E94BA0560E0809112
:1013700074030E9487048C2F80680E943E0880E0DE
:101380000E943E08C82F80E00E943E082C2F30E0CB
:10139000322F2227E901C82B61E0809174030E945B
:1013A0008704809177038F3F11F40E94B905CE0125
:1013B000DF91CF9108950E94650998278927982782
:1013C0000895EF92FF920F931F93CF93DF93909125
:1013D000A8039F3F39F48EBD00000DB407FEFDCF7A
:1013E0008EB528C0D82F07E010E0C0E0EE24E394CB
:1013F000F12CCC0F60E08091A8030E948704B70114
:10140000002E01C0660F0A94EAF76D238091A603AF
:101410000E94870461E08091A8030E948704809164
:10142000A7030E945E04892B09F0C16001501109D5
:1014300000F78C2FDF91CF911F910F91FF90EF90CC
:101440000895CF93DF93C82F8091A5038F3F31F587
:1014500060919C0386E692E00E9448076C2F86E626
:1014600092E00E943F0386E692E00E94EB0642E093
:1014700060919C0386E692E00E94520786E692E025
:101480000E94F302C82F86E692E00E94F30220E059
:1014900030E03C2FE901C82BD92B29C08091A8034B
:1014A0008F3F21F481E590E00E94BA0560E08091D1
:1014B000A5030E9487048C2F80680E94E10980E0C8
:1014C0000E94E109C82F80E00E94E1092C2F30E042
:1014D000322F2227E901C82B61E08091A5030E94E9
:1014E00087048091A8038F3F11F40E94B9059C2FB7
:1014F0008D2FDF91CF910895CF93DF93C82F67E7AA
:1015000086E692E00E9448076C2F86E692E00E94F1
:101510003F0386E692E00E94EB0667E786E692E0EC
:101520000E94480782E090E00E942B1386E692E03A
:101530000E94F302D82F80E0C82F86E692E00E9436
:10154000F302C82BD92B86E692E00E94EB06CE016F
:10155000DF91CF910895CF93C82F67E786E692E099
:101560000E9448076C2F86E692E00E943F0386E6C1
:1015700092E00E94EB0667E786E692E00E94480749
:1015800081E090E00E942B1386E692E00E94F30235
:10159000C82F86E692E00E94EB068C2FCF9108952B
:1015A000CF93DF9382E792E00E942408C2E7D2E063
:1015B00061E08C850E94B70461E08C85DF91CF915A
:1015C0000C94870480918F0290919002892B31F1C5
:1015D00080911B0290911C0222E082379207F1F069
:1015E000009711F00E942408809189028E7F8093D9
:1015F000890210921A021092190282E792E09093E7
:101600001C0280931B02E0918502F091860290817A
:1016100080918702892B808381E0089580E008957E
:101620000F931F93CF93DF938C01EB010E94AB2F9D
:10163000ADE1B3E090E020E2981740F4A8014F5FDD
:101640005F4FF80104910C938A0101C02C939F5FB6
:101650001196903189F7CE010E94AB2FADE2B3E035
:1016600090E020E2981740F4AE014F5F5F4FFE011B
:10167000C491CC93EA0101C02C939F5F11969031E5
:1016800089F7DF91CF911F910F910895CF93DF9349
:10169000FC0101900020E9F73197E81B20E030E0E1
:1016A000F0E2A90148575F4F2E1748F4EA01CB56E4
:1016B000DD4FDC01A20FB31FAC91A88304C0DA0197
:1016C000AB56BD4FFC932F5F3F4F2031310549F79B
:1016D000FB0101900020E9F73197E61B80E090E0E4
:1016E00040E29C0128563F4F8E1748F4E901CB5643
:1016F000DD4FDB01A80FB91F5C91588304C0D901ED
:10170000AB56BD4F4C9301968031910551F7DF9157
:10171000CF9108951F93CF93DF9367E786E692E01A
:101720000E94480760E086E692E00E943F0386E65A
:1017300092E00E94EB0667E786E692E00E94480787
:1017400083E090E00E942B1390911D0280911E0275
:101750009817F1F386E692E00E94F302D82F86E60E
:1017600092E00E94F302182F86E692E00E94F302B4
:10177000C82F86E692E00E94EB06812F90E0A0E061
:10178000B0E0BA2FA92F982F8827AD2BBC01CD012F
:101790006C2BDF91CF911F910895CF93DF9367E773
:1017A00086E692E00E944807C7EFD1E08D8590E081
:1017B000805B9F4F0E94371386E692E00E94EB0603
:1017C0006C8570E080E090E00E94F304DF91CF919F
:1017D0000C948A0BCF92DF92EF92FF92CF93C82F97
:1017E000809174038F3F09F061C060916B03809119
:1017F000690390916A030E94480780916903909160
:101800006A03DC01ED91FC910190F081E02D6C2FD9
:1018100009958091690390916A030E94EB0643E069
:1018200060916B038091690390916A030E94520753
:101830008091690390916A03DC01ED91FC9102842F
:10184000F385E02D09956C01990FEE08FF08FE2C39
:10185000ED2CDC2CCC248091690390916A03DC018F
:10186000ED91FC910284F385E02D0995AC01990F6F
:10187000660B770BC42AD52AE62AF72AFE2CED2C14
:10188000DC2CCC248091690390916A03DC01ED91FA
:10189000FC910284F385E02D0995AC01990F660B4C
:1018A000770BC42AD52AE62AF72A33C0809177031A
:1018B0008F3F21F481E590E00E94BA0560E08091BD
:1018C00074030E9487048C2F80680E943E0880E089
:1018D0000E943E08C82ED12CE12CF12CFE2CED2CC0
:1018E000DC2CCC2480E00E943E08C82AFE2CED2C83
:1018F000DC2CCC2480E00E943E08C82A61E0809164
:1019000074030E948704809177038F3F11F40E9433
:10191000B905C701B601CF91FF90EF90DF90CF904E
:1019200008958F929F92AF92BF92CF92DF92EF92E3
:10193000FF928AEF0E94EA0B6115710520E8820789
:10194000910509F47CC040917803509179034A01D4
:10195000A12CB12CC72ED82EE92EFF24E7FCFA9437
:10196000C818D908EA08FB08DC01CB0137E0B595B7
:10197000A795979587953A95D1F7B501A401440F9E
:10198000551F661F771F4C015D01841A950AA60A30
:10199000B70AA5019401A0917A03B0917B030E943C
:1019A0008C344B015C01FBE0B594A7949794879429
:1019B000FA95D1F7A7019601C701B6010E94163426
:1019C0009B01AC01ACE05595479537952795AA95B5
:1019D000D1F7A0917C03B0917D030E948C34DC018F
:1019E000CB012EE0B595A795979587952A95D1F7C8
:1019F000A5019401280F391F4A1F5B1F2093700314
:101A0000309371034093720350937303A5E0B0E0E9
:101A10000E948134DC01CB0180589F4FAF4FBF4FF4
:101A2000692F7A2F8B2F992787FD9A950E94213154
:101A300020E030E048EC52E40E94713004C060E0E5
:101A400070E080EC9FE7FF90EF90DF90CF90BF9029
:101A5000AF909F908F9008950F931F93CF93C82FAF
:101A600002E712E0F801608F682FC8010E94D203DC
:101A7000F801108E8C2FCF911F910F9108952F9206
:101A80003F924F925F926F927F928F929F92AF920E
:101A9000BF92CF92DF92EF92FF920F931F93CF935B
:101AA000DF93CDB7DEB72A970FB6F894DEBF0FBE2F
:101AB000CDBF8C012A013B013A87298720E030E025
:101AC000A901C301B2010E946C3087FF05C060E02C
:101AD00070E080E09FEB04C060E070E080E09FE396
:101AE000E12CF12CA985BA85EA16FB0654F420E016
:101AF00030E040E251E40E9471302FEFE21AF20A26
:101B0000F1CF9B01AC01C301B2010E9400306B0117
:101B10007C0120E030E0A901C301B2010E946C30D9
:101B200087FF04C0F7FAF094F7F8F094A12CB12CD9
:101B3000BDECB983ECECEA83FCECFB832DE32C8356
:101B400020E030E040E251E469817A818B819C8120
:101B50000E942432962E872E382E292EA701960118
:101B60000E946C30181644F03FEFA31AB30A998212
:101B70008A823B822C82E4CFA114B10429F0450172
:101B80006FEF861A960A03C092E0892E912C20E00E
:101B900030E0A901C301B2010E946C3087FF03C08D
:101BA0007FEF871A970A89859A850196880E991E74
:101BB0001814190444F081E090E0DC01A819B90977
:101BC000BE83AD8302C01E821D8220E030E0A901E9
:101BD000C301B2010E946C3087FF07C08DE2F8019B
:101BE000808388248394912C02C0812C912CA11491
:101BF000B10449F4F801E80DF91D80E380839401F4
:101C00002F5F3F4F4901212C312CB101680D791D07
:101C100078876F832A143B04D1F129813A814B8163
:101C20005C81C701B6010E9471300E94E3302B0134
:101C30003C016F817885600F711F4AE0C2010E94EC
:101C4000B42FB201550C880B990B0E9421312981C8
:101C50003A814B815C810E9424329B01AC01C70117
:101C6000B6010E94FF2F6B017C0120E030E040E2D2
:101C700051E469817A818B819C810E9471306983F2
:101C80007A838B839C833FEF231A330ABECF5B0199
:101C900089859A851816190644F4F801E60FF71F8E
:101CA0008EE28083DB0111965D01812C912CE98508
:101CB000FA858E169F064CF520E030E040E251E4B4
:101CC000C701B6010E9424322B013C010E94E3307F
:101CD0006B017C01B4016A0D7B1D600F711F4AE02E
:101CE000C6010E94B42FB601DD0C880B990B0E942F
:101CF00021319B01AC01C301B2010E94FF2F6B0196
:101D00007C01BFEF8B1A9B0AD2CFCF01F7FF02C035
:101D100080E090E0A80EB91E2D813E81232B89F032
:101D20009501F801EA0DFB1D40E26FEFA61AB60A15
:101D30004193C501821B930BAD81BE818A179B071E
:101D4000A4F3F801EA0DFB1D1082C8012A960FB614
:101D5000F894DEBF0FBECDBFDF91CF911F910F91E1
:101D6000FF90EF90DF90CF90BF90AF909F908F90BB
:101D70007F906F905F904F903F902F9008952F929B
:101D80003F924F925F926F927F928F929F92AF920B
:101D9000BF92CF92DF92EF92FF920F931F93CF9358
:101DA000DF93C0903F03D0904003E0904103F09058
:101DB00042030E942D05209117032223E9F060E0E1
:101DC0008EE70E942C0D61E082E90E942C0D61E0FB
:101DD00083E20E942C0D61E0809117030E942C0D7C
:101DE00080911001882311F0815003C010921703D5
:101DF00086E08093100170C324EFC20E21E0D21E52
:101E0000E11CF11C11E0C616D706E806F90608F039
:101E100010E060E08EE70E942C0D61E08FE90E94E7
:101E20002C0D111170C080911803A0919502B091F2
:101E30009602E82FF0E0EE0FFF1FE950FD4F2081E2
:101E40003181232B49F48F5F282F30E02A173B077D
:101E500084F31092180302C0809318036091180352
:101E6000F6E0E0E026E030E0E12C40E050E070E019
:101E7000CA01860F971F8A179B07A4F5009709F1DF
:101E8000E394880F991FFC01E952FD4F80818F7107
:101E90008830A1F0813019F4C901039615C0811171
:101EA00003C0C901029610C0853019F4C901049617
:101EB0000BC0893019F0C901019606C0C901059609
:101EC00003C0C9012F2F3E2F4F5F5F4F4031510597
:101ED00051F08B31910514F0EA9404C0F22FE32FF6
:101EE0009C01C6CFC901C82FC06481E080938A02DB
:101EF0006C2F82E792E00E94D20360E08C2F0E9458
:101F00008407C82F1DC0E091CA03F0E0EE0FFF1F49
:101F1000E852FD4F8081C82FCF71829586958770DA
:101F2000C80FC85F81E080938A026C2F82E792E03D
:101F30000E94D20360E08C2F0E948407C82FE12CFE
:101F4000D1E0D0938A0261E182E792E00E94D2035D
:101F50006C2F81E10E948407C82FD0938A0264EA23
:101F600082E792E00E94D2036C2F84EA0E948407E9
:101F7000C82FD0938A0262E082E792E00E94D203E7
:101F80006C2F82E00E948407C82FD0938A0268E0F9
:101F900082E792E00E94D2036C2F88E00E948407BF
:101FA000C82FD0938A0260E082E792E00E94D203B9
:101FB00010928A026C2F80E00E948407F82E111183
:101FC000EAC1C09118036E2C6C0E209195023091DD
:101FD0009602C61551F0772473947C0E7092180304
:101FE0000C2F10E00217130754F08091180390E0B3
:101FF000821793070CF46CC21092180369C2CC23A9
:1020000009F4C7C1E0914303F09144030995C295D7
:10201000C07F680131E2C30ED11CC601880F991F31
:10202000FC01EB56FD4F5F0180818F7190E08530A0
:10203000910509F4BEC0F4F5009709F495C0019725
:1020400009F0A7C1000F111FF801E950FD4F0190E1
:10205000F081E02D00811181C160D0938A026C2F44
:1020600082E792E00E94D2036F2D8C2F0E9484079A
:10207000C82F1F79F501208122952695277030E021
:10208000322F22273295330F307E022B132BD09321
:102090008A02602F82E792E00E94D2036C2F802F89
:1020A0000E948407082F912F9F79F501C081C07E7F
:1020B000C92B74C08830910521F0099709F4C2C07A
:1020C00068C1C860D0938A026C2F82E792E00E94B8
:1020D000D2036F2D8C2F0E948407C82F000F111F71
:1020E000F801E950FD4F0190F081E02D8081918150
:1020F000A281B3816C017D01FFE9FF22D0938A02A6
:102100006C2D82E792E00E94D2036C2F8C2D0E94EE
:102110008407C82F2D2C3E2C4F2C552447FC5A9455
:10212000D0938A02622D82E792E00E94D2036C2F44
:10213000822D0E948407C82F1701552437FC509424
:10214000452CD0938A02622D82E792E00E94D2034E
:102150006C2F822D0E948407182F9F2D9F79F501E7
:10216000C081C07EC92B62C0000F111FF801E95069
:10217000FD4F0190F081E02D1081D0938A026C2FE9
:1021800082E792E00E94D2036F2D8C2F0E94840779
:10219000082F1F79F501C081C07EC12BD0938A0220
:1021A0006C2F82E792E00E94D20310928A02602F85
:1021B00047C0C560D0938A026C2F82E792E00E94EC
:1021C000D20310928A026F2D8C2F0E948407F82E62
:1021D000000F111FF801E950FD4F0190F081E02D33
:1021E000118102819081F501208122952695277029
:1021F000213011F0C0E001C0C0E4C92BD0938A02A5
:10220000602F82E792E00E94D2036F2D802F0E9400
:102210008407082FD0938A02612F82E792E00E9400
:10222000D203602F812F0E948407182FD0938A0237
:102230006C2F82E792E00E94D20310928A02612FF3
:102240008C2FA4C0C960D0938A026C2F82E792E0E1
:102250000E94D2036F2D8C2F0E948407C82F000F7D
:10226000111FF801E950FD4F0190F081E02D8080B1
:102270009180A280B38020E030E0A901C501B401C3
:102280000E941F3218161CF4C501B40103C0C50119
:10229000B40190580E94EA308B0180E090E00E94E7
:1022A0001F319B01AC01C501B4010E94FF2F2AE937
:1022B00039E949E15FE30E94243220E030E543EC54
:1022C00057E40E9424321B012C0120E030E0A901D8
:1022D0000E941F3218161CF4C201B10103C0C201D2
:1022E000B10190580E94EA30562EF72E812F81704E
:1022F000F601EE0FFF1FEB56FD4F908192959695DC
:102300009770913011F090E001C090E2192F182BD6
:1023100020E030E0A901C501B4010E946C30881FA3
:102320008827881F8295880F880F807C182BD09370
:102330008A02652D82E792E00E94D2036C2F852DE0
:102340000E948407C82FD0938A026F2D82E792E003
:102350000E94D2036C2F8F2D0E948407C82FD09328
:102360008A02602F82E792E00E94D2036C2F802FB6
:102370000E948407C82FD0938A02612F82E792E0DF
:102380000E94D20310928A026C2F812F0E94840730
:10239000F82EC72D1ACEC091CA03D0938A026C2F93
:1023A00082E792E00E94D2036F2D8C2F0E94840757
:1023B000B82E0C2F10E06801CC0CDD1C96012852C1
:1023C0003D4F4901F9012081922F9F71F8E09F9FB5
:1023D00070011124229526952770E22AD0938A0253
:1023E0006E2D82E792E00E94D20310928A026B2D3A
:1023F0008E2D0E948407F82EF601E956FD4FD081FC
:10240000AD2EB180772473942A2D2D1B30E0F4017A
:1024100080818F7190E028173907A4F4F501E490CA
:1024200070928A026E2D82E792E00E94D20310928F
:102430008A026F2D8E2D0E948407F82EFFEFAF1AAF
:10244000BF0AE2CF000F111FD801A954BD4FDC9184
:102450000D2F11961C91960128523D4F6901BB2406
:10246000B394202F2D1B30E0F60180818295869554
:10247000877090E0281739079CF4F801E490B09237
:102480008A026E2D82E792E00E94D20310928A02A5
:102490006F2D8E2D0E948407F82E0F5F1F4FE1CF06
:1024A000CF5FC093CA038C2F90E0209195023091AA
:1024B00096028217930714F01092CA030E942D050A
:1024C00060933F03709340038093410390934203D2
:1024D00061E08F2D0E942C0DE0914303F0914403A5
:1024E000099560E08EEF0E942C0DCDE1D3E01C2F0A
:1024F000105E61E089910E942C0D1C13FACF60E000
:102500008FEF0E942C0D81E0DF91CF911F910F91F1
:10251000FF90EF90DF90CF90BF90AF909F908F9003
:102520007F906F905F904F903F902F900895CF9243
:10253000DF92FF920F931F93CF93DF932091950229
:102540003091960220313105CCF56B0189010F5F86
:102550001F4FF801EE0FFF1FEB56FD4F9183808355
:10256000F901EE0FFF1FE954FD4F71836083F901FC
:10257000EE0FFF1FE950FD4F11821082220F331F13
:10258000E901C952DD4F18820E94AB2F982F9F712D
:102590008981807EF82EF92AC6010E94AB2F829590
:1025A000880F807E9F2D9F71F92EF82AF982109353
:1025B0009602009395028FEF800F01C08FEFDF919D
:1025C000CF911F910F91FF90DF90CF900895909140
:1025D00065029111FCCF91E09093650290936402A3
:1025E0002FEF2093630210926202260F2093610264
:1025F0009093600290916002880F892B8093600213
:1026000080915F02813061F410925F0280916002DC
:102610008093BB008091BC0083FDF8CF85EC01C0A6
:1026200085EE8093BC00809165028130E1F380915A
:102630006202861710F460916202AFE3B2E02FE10C
:1026400032E0F9018E2F821B861718F48D91819349
:10265000F9CF862F0895813208F080E2682F87E74E
:102660000E94E71210921E0280931D020895682FA7
:1026700086E692E00C943F03CF92DF92EF92FF92B6
:10268000CF93C82F8091A5038F3F09F03FC0609181
:102690009C0386E692E00E9448076C2F86E692E053
:1026A0000E943F0386E692E00E94EB0643E06091C1
:1026B0009C0386E692E00E94520786E692E00E9422
:1026C000F3026C01990FEE08FF08FE2CED2CDC2CB8
:1026D000CC2486E692E00E94F302AC01990F660BCF
:1026E000770BC42AD52AE62AF72AFE2CED2CDC2CFF
:1026F000CC2486E692E00E94F302AC01990F660BAF
:10270000770BC42AD52AE62AF72A33C08091A8037A
:102710008F3F21F481E590E00E94BA0560E080914E
:10272000A5030E9487048C2F80680E94E10980E045
:102730000E94E109C82ED12CE12CF12CFE2CED2CAD
:10274000DC2CCC2480E00E94E109C82AFE2CED2C70
:10275000DC2CCC2480E00E94E109C82A61E0809151
:10276000A5030E9487048091A8038F3F11F40E9463
:10277000B905C701B601CF91FF90EF90DF90CF90E0
:1027800008952F923F924F925F926F927F928F9215
:102790009F92AF92BF92CF92DF92EF92FF920F93F0
:1027A0001F93CF93DF93CDB7DEB7A2970FB6F89400
:1027B000DEBF0FBECDBF0E94910C87EF0E94EA0BD7
:1027C0006F83788789879A8761157105804891059D
:1027D00009F4FDC18091700390917103A09172037F
:1027E000B09173036C017D01FF0CCC08DC2C7601E9
:1027F0009C01AD016C2D7C2D8C2D9C2D345F4140B6
:10280000510961097109810991092AA339A34983F1
:102810005A836B837C838D839E8359016A017B017C
:102820008C010E9494342E8B3F8B488F598F6A8F76
:102830007B8F8C8F9D8F809188038E8F90918903E1
:102840009B87A0918603AF8FB0918703BC87E091EF
:102850008403E8A3F0918503FD87B0908103A090E5
:1028600080031B2D110F110BC12ED12EE12EF12E45
:10287000012F2AA139A149815A816B817C818D81E7
:102880009E810E9494340CE00E94FE3519012A01B9
:102890003B014C01B0908303A09082031B2D110FCC
:1028A000110BC12ED12EE12EF12E012F2E893F8941
:1028B000488D598D6A8D7B8D8C8D9D8D0E949434B1
:1028C00008E00E94173651016201730184010E94E1
:1028D000353670588F4F9F4F20907E0330907F0386
:1028E0005101C12CD12CE12CF12C00E010E00E9410
:1028F000943401E20E9417362E873F87488B598B0C
:102900006A8B7B8B8C8B9D8BA0E00E94533609F4E5
:1029100063C1AE8C1B85110F110BBB84C12ED12E50
:10292000E12EF12E012F2E893F89488D598D6A8D18
:102930007B8D8C8D9D8D0E94943419012A013B0161
:102940004C01AF8C1C85110F110BBC84C12ED12EF4
:10295000E12EF12E012F2AA139A149815A816B81E3
:102960007C818D819E810E94943401E10E94FE351C
:1029700059016A017B018C019101A201B301C401DB
:102980000E94353619012A013B014C014F815885BF
:1029900069857A8584E075956795579547958A95F9
:1029A000D1F780E090E0A0E1B0E0841B950BA60B8E
:1029B000B70B6C017D01FF0CCC08DC2C76019C016F
:1029C000AD016C2D7C2D8C2D9C2D0FE10E94FE35D0
:1029D000F901B42FA52F6C837D8389839A8328A165
:1029E0009D85990F990B3D85492F592F692F792F77
:1029F000892F03E20E94FE3559016A017B018C0197
:102A00009101A201B301C4010E94353659016A0146
:102A10007B018C019F014B2F5A2F6C817D81898115
:102A20009A810E944A364901542E652EB62FA72F4F
:102A3000F82FE92F03E00E94FE355401C52CD62C57
:102A4000EB2EFA2E0F2F1E2F0E944A3659016A01D3
:102A50007B01782E192F03E00E94FE35072D0E947E
:102A60004A3603E00E94FE355401C52CD62CEB2ECD
:102A7000FA2E0F2F1E2F0E944A3602E00E94FE35CA
:102A80000F2F0E944A3601E00E94FE350F2F0E9450
:102A90004A36AE84BF84C888D988EA88FB880C8906
:102AA0001D890E9429352B873F8349835A836B8375
:102AB0007C838D839E830DE00E941736922E832E99
:102AC000742E652E562E472E382E292E30918F03C8
:102AD00020918E03932F990F990BA92CB82CC72CFA
:102AE000D62CE52CF42C032D122D492F592F692FAC
:102AF000792F892F0E9494340E94943409E10E9416
:102B0000173659016A017B018C012B853F81498170
:102B10005A816B817C818D819E810E94353619019D
:102B20002A013B014C0130918D0320918C03932F9E
:102B3000990F990BAB84BF80C980DA80EB80FC8051
:102B40000D811E81492F592F692F792F892F0E94BE
:102B5000943403E10E94173659016A017B018C010C
:102B60009101A201B301C4010E94353608E00E9420
:102B70001736522E632E742E852E962EF72FE82FA1
:102B8000B92F30918B0320918A03932F990F990BC2
:102B9000492F592F692F792F892F04E00E94FE3584
:102BA00059016A017B018C01252D362D472D582DA9
:102BB000692D7F2F8E2F9B2F0E9435360E94193151
:102BC00020E030E040E85BE30E94243208C060E08F
:102BD00070E080EC9FE703C060E070E0CB01A2965C
:102BE0000FB6F894DEBF0FBECDBFDF91CF911F911E
:102BF0000F91FF90EF90DF90CF90BF90AF909F909C
:102C00008F907F906F905F904F903F902F9008959E
:102C10008F929F92AF92BF92CF92DF92EF92FF92EC
:102C20008AEF0E943C13ECE9F3E0458556854A01A2
:102C3000A12CB12CC72ED82EE92EFF24E7FCFA9444
:102C4000C818D908EA08FB08DC01CB0137E0B595C4
:102C5000A795979587953A95D1F7B501A401440FAB
:102C6000551F661F771F4C015D01841A950AA60A3D
:102C7000B70AA5019401A785B0890E948C344B0145
:102C80005C013BE0B594A794979487943A95D1F76B
:102C9000A7019601C701B6010E9416349B01AC0141
:102CA0006CE055954795379527956A95D1F7A18999
:102CB000B2890E948C34DC01CB017EE0B595A795EA
:102CC000979587957A95D1F7A5019401280F391F1B
:102CD0004A1F5B1F2583368347835087A5E0B0E0FA
:102CE0000E948134DC01CB0180589F4FAF4FBF4F12
:102CF000692F7A2F8B2F992787FD9A950E94213172
:102D000020E030E048EC52E40E947130FF90EF90F8
:102D1000DF90CF90BF90AF909F908F9008952F92AB
:102D20003F924F925F926F927F928F929F92AF925B
:102D3000BF92CF92DF92EF92FF920F931F93CF93A8
:102D4000DF93CDB7DEB7A2970FB6F894DEBF0FBE04
:102D5000CDBF0E94081687EF0E943C136A8F7B8FBD
:102D60008C8F9D8F8091A1039091A203A091A303CA
:102D7000B091A4036C017D01FF0CCC08DC2C760122
:102D80009C01AD016C2D7C2D8C2D9C2D345F414020
:102D9000510961097109810991092AA339A349835C
:102DA0005A836B837C838D839E8359016A017B01E7
:102DB0008C010E9494342A8B3B8B4C8B5D8B6E8BE9
:102DC0007F8B888F998F8091B9038E8FE091BA03A2
:102DD000EF83F091B703FF8F8091B8038887E0916C
:102DE000B503E8A3F091B603F987B090B203A090C1
:102DF000B1031B2D110F110BC12ED12EE12EF12E7F
:102E0000012F2AA139A149815A816B817C818D8151
:102E10009E810E9494340CE00E94FE3519012A0123
:102E20003B014C01B090B403A090B3031B2D110FD4
:102E3000110BC12ED12EE12EF12E012F2A893B89B3
:102E40004C895D896E897F89888D998D0E94943423
:102E500008E00E94173651016201730184010E944B
:102E6000353670588F4F9F4F2090AF033090B0038E
:102E70005101C12CD12CE12CF12C00E010E00E947A
:102E8000943401E20E9417362A873B874C875D877E
:102E90006E877F87888B998BA0E00E94533609F458
:102EA0005EC1AE8C1F81110F110BBF80C12ED12EC0
:102EB000E12EF12E012F2A893B894C895D896E898B
:102EC0007F89888D998D0E94943419012A013B01D4
:102ED0004C01AF8C1885110F110BB884C12ED12E67
:102EE000E12EF12E012F2AA139A149815A816B814E
:102EF0007C818D819E810E94943401E10E94FE3587
:102F000059016A017B018C019101A201B301C40145
:102F10000E94353619012A013B014C014A8D5B8D17
:102F20006C8D7D8D84E075956795579547958A954D
:102F3000D1F780E090E0A0E1B0E0841B950BA60BF8
:102F4000B70B6C017D01FF0CCC08DC2C76019C01D9
:102F5000AD016C2D7C2D8C2D9C2D0FE10E94FE353A
:102F6000F901B42FA52F6C837D8389839A8328A1CF
:102F70009985990F990B3985492F592F692F792FE9
:102F8000892F03E20E94FE3559016A017B018C0101
:102F90009101A201B301C4010E94353659016A01B1
:102FA0007B018C019F014B2F5A2F6C817D81898180
:102FB0009A810E944A364901542E652EB62FA72FBA
:102FC000F82FE92F03E00E94FE355401C52CD62CC2
:102FD000EB2EFA2E0F2F1E2F0E944A3659016A013E
:102FE0007B01782E192F03E00E94FE35072D0E94E9
:102FF0004A3603E00E94FE355401C52CD62CEB2E38
:10300000FA2E0F2F1E2F0E944A3602E00E94FE3534
:103010000F2F0E944A3601E00E94FE350F2F0E94BA
:103020004A36AA84BB84CC84DD84EE84FF8408897C
:1030300019890E94293528873F8349835A836B83E6
:103040007C838D839E830DE00E941736922E832E03
:10305000742E652E562E472E382E292E3091C00301
:103060002091BF03932F990F990BA92CB82CC72C33
:10307000D62CE52CF42C032D122D492F592F692F16
:10308000792F892F0E9494340E94943409E10E9480
:10309000173659016A017B018C0128853F814981DE
:1030A0005A816B817C818D819E810E943536190108
:1030B0002A013B014C013091BE032091BD03932FA7
:1030C000990F990BA884BF80C980DA80EB80FC80BF
:1030D0000D811E81492F592F692F792F892F0E9429
:1030E000943403E10E94173659016A017B018C0177
:1030F0009101A201B301C4010E94353608E00E948B
:103100001736522E632E742E852E962EF72FE82F0B
:10311000B92F3091BC032091BB03932F990F990BCA
:10312000492F592F692F792F892F04E00E94FE35EE
:1031300059016A017B018C01252D362D472D582D13
:10314000692D7F2F8E2F9B2F0E9435360E941931BB
:1031500020E030E040E85BE30E94243203C060E0FE
:1031600070E0CB01A2960FB6F894DEBF0FBECDBFC4
:10317000DF91CF911F910F91FF90EF90DF90CF9053
:10318000BF90AF909F908F907F906F905F904F9087
:103190003F902F90089567E786E692E00E944807E7
:1031A00064EF86E692E00E943F036EE286E692E0DC
:1031B0000E943F0386E692E00E94EB0665E070E025
:1031C00080E090E00E94F30486EF0C947C0A3F922A
:1031D0004F925F926F927F928F929F92AF92BF9227
:1031E000CF92DF92EF92FF920F931F93CF93DF93D3
:1031F000CDB7DEB728970FB6F894DEBF0FBECDBFB0
:103200000E94CB186C01E12CF12C10915203129505
:10321000110F110F107C1C5C67E786E692E00E949C
:10322000480764EF86E692E00E943F03612F86E63E
:1032300092E00E943F0386E692E00E94EB068091B6
:103240005203811105C065E070E080E090E012C09B
:10325000813029F468E070E080E090E00BC08230BB
:1032600029F46EE070E080E090E004C06AE170E074
:1032700080E090E00E94F30486EF0E947C0A4C01FB
:10328000A12CB12CBA2CA92C982C882488EF0E9450
:10329000AB0A882A309052038091670390916803AB
:1032A000A7019601281B390B41095109A09165031B
:1032B000B09166030E9481346B017C01AFE0F5940C
:1032C000E794D794C794AA95D1F760915F03709162
:1032D0006003CB01770FAA0BBB0BBC01CD01BBE098
:1032E000660F771F881F991FBA95D1F72091610348
:1032F000309162038901330F220B330BA90198012E
:103300002C0D3D1D4E1D5F1D0E945C34C20ED31E50
:10331000E41EF51E20EAC21A2FE0D20AE108F108E5
:10332000A7019601C701B6010E9416349B01AC01AA
:103330001CE055954795379527951A95D1F7298320
:103340003A834B835C830091530310915403A09103
:103350005703B0915803A70196010E948C342B01AA
:103360003C018DE075946794579447948A95D1F702
:10337000A0915903B0915A0329813A814B815C8114
:103380000E948C34BB2797FDB095AB2F840D951D03
:10339000A61DB71D0296A11DB11D32E0B595A795DA
:1033A000979587953A95D1F79C01AD0130584F4FCD
:1033B0005F4FA0916303B09164030E9481342B019D
:1033C0003C014FE076946794579447944A95D1F71F
:1033D00088E090E083199109A501940104C05695F5
:1033E0004795379527958A95D2F72D833E834F834E
:1033F00058874801110FAA08BB0852E0880C991C95
:10340000AA1CBB1C5A95D1F7A0915B03B0915C0339
:1034100029813A814B815C810E948C349B01AC01F3
:103420006BE055954795379527956A95D1F7298390
:103430003A834B835C83A0915503B0915603A70157
:1034400096010E948C34DC01CB017BE0B595A795F9
:10345000979587957A95D1F729813A814B815C813F
:10346000820F931FA41FB51F880D991DAA1DBB1D98
:10347000032C04C0880F991FAA1FBB1F0A94D2F700
:10348000BC01CD016E5F7F4F8F4F9F4F24E030E036
:1034900040E050E00E945C348D819E81AF81B88510
:1034A000821B930BA40BB50B9C01AD0180E593EC43
:1034B000A0E0B0E0BC01CD0104C09695879577955A
:1034C00067953A94D2F70E94163497FD0BC0660FA9
:1034D000771F881F991FA30192010E943A34690146
:1034E0007A010AC0A30192010E943A3469017A016B
:1034F000CC0CDD1CEE1CFF1C9927F7FC9A958F2D38
:103500007E2D6D2D9B01AC010E9416349B01AC01F8
:10351000AEEDBBE00E9481344C01BB2497FCB0941B
:10352000AB2CA3E4B3EEA70196010E948F34BB2716
:1035300097FDB095AB2F880D991DAA1DBB1D81531A
:10354000914FAF4FBF4F44E0B595A795979587959D
:103550004A95D1F7BC01CD016C0D7D1D8E1D9F1DBF
:1035600028960FB6F894DEBF0FBECDBFDF91CF9186
:103570001F910F91FF90EF90DF90CF90BF90AF9091
:103580009F908F907F906F905F904F903F900895A5
:10359000CF93DF93CDB7DEB7C855D1090FB6F894F6
:1035A000DEBF0FBECDBF789484B5826084BD84B584
:1035B000816084BD85B5826085BD85B5816085BD2E
:1035C00080916E00816080936E00109281008091E6
:1035D000810082608093810080918100816080936E
:1035E0008100809180008160809380008091B10093
:1035F00084608093B1008091B00081608093B000BE
:1036000080917A00846080937A0080917A00826051
:1036100080937A0080917A008E7F80937A008091E7
:103620007A00806880937A001092C10061E08DE09A
:103630000E94B70461E08DE00E94870461E083E0AE
:103640000E94B70460E083E00E94870480913A0101
:1036500090913B01909301018093000162EF71E032
:1036600082E092E00E94100B88EE91E09093980225
:10367000809397021092B8021092B7021092F8024B
:103680001092F7021092D70289E08093D802CC24DE
:10369000C394D12CD0929602C092950261E083E04F
:1036A0000E94870461E083E00E94B7046DE2A62EC9
:1036B00061E0B62EF50184918093820209E111E068
:1036C000F801849190E0880F991F845F9E4FFC0160
:1036D00025913491309384022093830260E083E04B
:1036E0000E94B70461E083E00E948704E3E09E2E1D
:1036F00090927E02F501A490A0927F02F8010491BD
:10370000E02FF0E0EE0FFF1FEE5FFE4F85919491EA
:10371000909381028093800281E08093880287ECFD
:1037200090E0909394028093930222E530E03093EE
:103730008C0220938B0225EC30E030938E02209394
:103740008D024FE152E05093900240938F023093EC
:1037500092022093910220916800246020936800D7
:103760002DE630E0309386022093850228E02093F6
:1037700087020197F1F70E94E20A0E94D00A909214
:10378000520386E692E00E945E0780ED0E94AB0A3B
:10379000853511F00C940B2D8AEA0E947C0A9093D7
:1037A0005403809353038CEA0E947C0A909356033F
:1037B000809355038EEA0E947C0A9093580380936D
:1037C000570380EB0E947C0A909364038093630309
:1037D00082EB0E947C0A909366038093650384EBDE
:1037E0000E947C0A909368038093670386EB0E9493
:1037F0007C0A90935A038093590388EB0E947C0AB9
:1038000090935C0380935B038AEB0E947C0A909305
:103810005E0380935D038CEB0E947C0A90936003AF
:1038200080935F038EEB0E947C0A909362038093E7
:103830006103D0920301C0920201E0C088E80E94B7
:10384000DB0990937903809378038AE80E94DB096F
:1038500090937B0380937A038CE80E94DB0990931A
:103860007D0380937C038EE80E94DB0990937F03A5
:1038700080937E0380E90E94DB099093810380930B
:10388000800382E90E94DB09909383038093820383
:1038900084E90E94DB09909385038093840386E981
:1038A0000E94DB09909387038093860388E90E9436
:1038B000DB0990938903809388038AE90E94DB09DE
:1038C00090938B0380938A038CE90E94DB09909389
:1038D0008D0380938C038EE90E94DB0990938F0304
:1038E00080938E0381EA0E940C098093900381EEFD
:1038F0000E94DB09909392038093910383EE0E94D0
:103900000C098093930384EE0E940C09182F85EE16
:103910000E940C09282F2F70F0E11F9FC001112475
:10392000822B909395038093940386EE0E940C095A
:10393000182F85EE0E940C0990E044E0959587953C
:103940004A95E1F700E1109F90011124822B932BFF
:10395000909397038093960387EE0E940C098093BF
:1039600098038DEE80939A0380919B038F71806AF8
:1039700080939B0380919903807C8093990365E0F9
:1039800082EF0E94B80890919903692F677010E246
:10399000619F90011124892F869586958695877061
:1039A00048E0849FB0011124622B732B97FB992769
:1039B00090F9692B85EF0E94B80890919A03692FBE
:1039C000677050E2659F90011124892F8695869536
:1039D00086958770A8E08A9FB0011124622B732B13
:1039E0009295969596959370692B84EF0E94B808EE
:1039F00083E090E090930301809302018AE090E0DD
:103A00000E943C08813009F059C080E090E00E949B
:103A10003C08E82EF12CF0923D01E0923C0181E05F
:103A200090E00E943C0811E0811101C010E0109369
:103A300036011093370182E090E00E943C0890E04C
:103A4000A0E0B0E080930C0190930D01A0930E01D3
:103A5000B0930F0183E090E00E943C08682F70E073
:103A600080E090E00E941F3120E030E048EC52E41A
:103A70000E947130609304017093050180930601E8
:103A80009093070184E090E00E943C08682F70E06A
:103A900080E090E00E941F3120E030E048EC52E4EA
:103AA0000E947130609308017093090180930A01AC
:103AB00090930B01EF2809F4ADC031C18091020150
:103AC000909103018330910569F034F481309105C0
:103AD00071F1029739F047C08430910541F10597A3
:103AE00031F141C08EEA97E4A1E6BFE3809304017F
:103AF00090930501A0930601B09307018AE999E923
:103B0000A9E1BEE38093080190930901A0930A0103
:103B1000B0930B0183E090E0A0E0B0E080930C0153
:103B200090930D01A0930E01B0930F011CC080E093
:103B300090E0A0E0BFE38093040190930501A0937F
:103B40000601B09307018093080190930901A093A7
:103B50000A01B0930B0110920C0110920D0110920A
:103B60000E0110920F0160E080E090E00E943A08A0
:103B700060E081E090E00E943A0860910C0182E0F0
:103B800090E00E943A0820E030E048EC52E4609176
:103B900004017091050180910601909107010E9436
:103BA00024320E94E33083E090E00E943A0820E053
:103BB00030E048EC52E46091080170910901809175
:103BC0000A0190910B010E9424320E94E33084E0AC
:103BD00090E00E943A0861E08AE090E00E943A0892
:103BE00005E010E061E08DE00E94870464E670E08B
:103BF00080E090E00E94F30460E08DE00E94870482
:103C000064E670E080E090E00E94F3040150110946
:103C100049F7FBCE6BED71E08DED91E00E949712BC
:103C2000803188F490E0FC01EE0FFF1FE950FD4F5A
:103C300022E431E031832083880F991FFC01E9528F
:103C4000FD4F88E2808360ED71E082ED91E00E949B
:103C50009712803188F490E0FC01EE0FFF1FE950CD
:103C6000FD4F2EE331E031832083880F991FFC0143
:103C7000E952FD4F88E0808366EC71E08AEC91E0C8
:103C80000E949712803188F490E0FC01EE0FFF1F34
:103C9000E950FD4F2AE431E031832083880F991FDA
:103CA000FC01E952FD4F88E4808369EB71E08DEB04
:103CB00091E00E949712803188F490E0FC01EE0FB1
:103CC000FF1FE950FD4F2CE631E031832083880F40
:103CD000991FFC01E952FD4F88E480836AEA71E094
:103CE0008DEA91E00E949712803188F490E0FC0107
:103CF000EE0FFF1FE950FD4F24E631E031832083B2
:103D0000880F991FFC01E952FD4F88E2808311233F
:103D100009F49DC06CE971E080EA91E083C06EE82F
:103D200071E081E991E00E949712803188F490E07F
:103D3000FC01EE0FFF1FE950FD4F22E431E031831B
:103D40002083880F991FFC01E952FD4F88E2808390
:103D500062E871E085E891E00E949712803188F472
:103D600090E0FC01EE0FFF1FE950FD4F2EE331E024
:103D700031832083880F991FFC01E952FD4F88E0B1
:103D8000808367E771E08CE791E00E9497128031B1
:103D900088F490E0FC01EE0FFF1FE950FD4F2AE48C
:103DA00031E031832083880F991FFC01E952FD4FD8
:103DB00088E4808369E671E08EE691E00E949712C4
:103DC000803188F490E0FC01EE0FFF1FE950FD4FB9
:103DD0002CE631E031832083880F991FFC01E952E2
:103DE000FD4F88E480836AE571E08DE591E00E94F3
:103DF0009712803188F490E0FC01EE0FFF1FE9502C
:103E0000FD4F24E631E031832083880F991FFC01A8
:103E1000E952FD4F88E280831123C9F06BE471E021
:103E200080E591E00E949712803188F490E0FC01D7
:103E3000EE0FFF1FE950FD4F26E431E03183208370
:103E4000880F991FFC01E952FD4F88E4808380911F
:103E50000201909103010397C9F46EE371E082E4DB
:103E600091E00E949712803188F490E0FC01EE0FFF
:103E7000FF1FE950FD4F20E631E031832083880F9A
:103E8000991FFC01E952FD4F88E280830E94BF0E1A
:103E900060E08DE00E9487041E01F3E22F0E311CCA
:103EA00080910201909103018330910509F4FEC0D5
:103EB0000CF048C08130910509F468C0029709F000
:103EC000CFC60E948F160E94E33060936C017093FE
:103ED0006D0180936E0190936F010E948F1620E018
:103EE00030E048EC52E40E94713020E030E54DE7CC
:103EF00054E40E94713021E03EED42E45EE30E9412
:103F000091329B01AC0160E070E080E89FE30E9489
:103F1000FF2F20E03AE24DE257E40E94243220E0F5
:103F200030E048EC52E40E9424320E94E330609377
:103F300068017093690180936A0190936B010E94FC
:103F400008167EC68430910509F4FEC1059709F074
:103F500087C66091470386E692E00E94480788EA98
:103F600090E00E94371386E692E00E94EB0643E061
:103F70006091470386E692E00E94520780911D02FD
:103F800090E020911E02821B9109AFC50E94E718A4
:103F900060936C0170936D0180936E0190936F013B
:103FA0000E94E7180E94213120E836EE45EC57E4E4
:103FB0000E94713021E03EED42E45EE30E949132C6
:103FC0009B01AC0160E070E080E89FE30E94FF2F5E
:103FD00020E03AE24DE257E40E94243220E030E053
:103FE00048EC52E40E9424320E94E330609368015E
:103FF0007093690180936A0190936B010E94CB18C2
:10400000AC0160E070E080916703909168039A01D1
:10401000AB01281B390B41095109A0916503B091EF
:1040200066030E9481346B017C01EFE0F594E79414
:10403000D794C794EA95D1F760915F0370916003BC
:10404000CB01770FAA0BBB0BBC01CD01FBE0660FC8
:10405000771F881F991FFA95D1F72091610330913E
:1040600062038901330F220B330BA90198012C0D38
:104070003D1D4E1D5F1D0E945C34D701C601820F9D
:10408000931FA41FB51F0896A11DB11DBC01CD0132
:10409000A4E09595879577956795AA95D1F70E94A5
:1040A000213120E030E040E251E41CC50E94C11300
:1040B0000E94E33060936C0170936D0180936E01F8
:1040C00090936F010E94C11320E030E048EC52E46D
:1040D0000E94713020E030E54DE754E40E947130D9
:1040E00021E03EED42E45EE30E9491329B01AC018F
:1040F00060E070E080E89FE30E94FF2F20E03AE25A
:104100004DE257E40E94243220E030E048EC52E4D3
:104110000E9424320E94E330609368017093690129
:1041200080936A0190936B010E94910C20E030E033
:1041300040E251E40E9424320E94E3306093640123
:104140007093650180936601909367010E94910CC2
:104150008DEF0E946509A0E0B0E0811500E89007AE
:10416000A105B10509F4DBC0809070039090710344
:10417000A0907203B09073031CE2911A11E0A10A9F
:10418000B1086EE0880F991FAA1FBB1F6A95D1F76F
:104190004091940350919503052E000C660B770B0C
:1041A000E4E1440F551F661F771FEA95D1F76C01B4
:1041B0007D01C41AD50AE60AF70AA0919603B091C8
:1041C0009703A50194010E948C34C61AD70AE80A05
:1041D000F90A20E4D20EE11CF11CFFE0F594E7940B
:1041E000D794C794FA95D1F7A09198030A2E000CA2
:1041F000BB0BA50194010E948C342B013C01AAE069
:104200007594679457944794AA95D1F7A091930316
:10421000B0E00E948134DC01CB011BE0B595A7958D
:10422000979587951A95D1F7BC01CD0170588F4F9E
:104230009F4FA30192010E941634DC01CB010AE0DA
:10424000B595A795979587950A95D1F79C01AD01EE
:10425000405E5F4FA0919103B09192030E948C3415
:10426000DC01CB01905EAF4FBF4FBC01CD012EE012
:1042700095958795779567952A95D1F7A70196012A
:104280000E9416346B017C013FE0959587957795E8
:1042900067953A95D1F79B01AC010E9416349B01BA
:1042A000AC0167E055954795379527956A95D1F705
:1042B000A0919003B0E00E948134DC01CB0174E056
:1042C000B595A795979587957A95D1F7B701A601EA
:1042D000481B590B6A0B7B0BDB01CA0177FF03C03C
:1042E00080E090E0DC0181309105A10559E1B5073E
:1042F00024F080E090E0A0E0B9E1BC01CD015CE0F9
:1043000095958795779567955A95D1F70E942131B4
:1043100020E030E040E85AE30E94243204C060E02C
:1043200070E080EC9FE720E030E040E251E40E9442
:1043300024320E94E33060936001709361018093A6
:104340006201909363018CC467E786E692E00E9465
:1043500048078091040290E0805C9F4F0E943713D1
:1043600086E692E00E94EB066091030270E080E036
:1043700090E00E94F3040E948A0B29966CAF7DAFF7
:104380008EAF9FAF29970E94CD0B2091FF013091F6
:104390000002890120E030E0322F212F102F00276A
:1043A0002B013C01401A510A620A730AE091FD0197
:1043B000F091FE018090F9019090FA01940140E0A3
:1043C00050E060E070E080E090E000E10E94FE35A7
:1043D000D22EE32EF42E5BAB6BAF872E982E9FAFC1
:1043E0009F0140E050E0C301B2010E94ED34C22EB3
:1043F000032F142FB52FF62FE72F5C01A0E00E94AA
:10440000533654F4AFE70E943E36C22E032F142FCA
:10441000B52FF62FE72F5C012C2D302F412F5B2F6E
:104420006F2F7E2FC50107E00E9417365901C42E59
:10443000A52FF62FE72F8C012D2D3E2D4F2D5BA99B
:104440006BAD782D892D9FADDA2EEF2EFE2E0E94BA
:1044500035362A962FAF2A972B963FAF2B972C965F
:104460004FAF2C972D965FAF2D972E966FAF2E974F
:104470002F967FAF2F9760968FAF609761969FAF13
:1044800061976091F7017091F8010091FB01109123
:10449000FC0180E090E020E030E840E050E00E9445
:1044A000FC34B22EE32EF42E5BAB6BAF872E982E2E
:1044B0009FAF980140E050E0C301B2010E94ED348B
:1044C000A22E032F142FB52FF62FE72F6C01A0E09B
:1044D0000E9453367CF421503F4F4F4F5F4F6F4F38
:1044E0007F4F8F4F9F4FA22E032F142FB52FF62FE4
:1044F000E72F6C012A2D302F412F5B2F6F2F7E2F3E
:10450000C60108E00E941736A22EA32F6A01F62FDB
:10451000E72F8C012B2D3E2D4F2D5BA96BAD782DF8
:10452000892D9FADBA2EEF2EFE2E0E943536629653
:104530002FAF629763963FAF639764964FAF6497D0
:1045400065965FAF659766966FAF669767967FAF24
:10455000679768968FAF689769969FAF6997209124
:1045600001023091020240E050E0C301B2010E941A
:10457000ED34F22E032F142FB52FF62FE72FD82E60
:10458000E92EA0E00E94533684F4215031094048BE
:104590005F4F6F4F7F4F8F4F9F4FF22E032F142F80
:1045A000B52FF62FE72FD82EE92E2F2D302F412FA4
:1045B0005B2F6F2F7E2F8D2D9E2D07E10E941736CA
:1045C0002BAB3CAB4DAB5EABCBA8DCA8EDA8FEA8FB
:1045D00060EDC60E67E0D61EE11CF11C10920902C8
:1045E00010920A0210920B0210920C0210920D020D
:1045F00010920E0210920F021092100210921102ED
:1046000010921202109213021092140210921502CC
:1046100010921602109217021092180270EDC7162F
:1046200077E0D706E104F1040CF0CCC02BA93CA93B
:104630004DA95EA9CA01B9010E9416349B01AC01C3
:10464000A5E0B0E00E9481344B015C01B594A794D1
:10465000979487942B013C01770C4408542C320129
:104660008092090290920A02A0920B02B0920C0270
:1046700040920D0240920E0240920F0240921002B0
:104680008B019C0182E035952795179507958A95B2
:10469000D1F70BAF1CAF2DAF3EAF009311021093BB
:1046A000120220931302309314024092150240929A
:1046B0001602409217024092180214E2C1161AEF35
:1046C000D1061FEFE106F1060CF07CC06BA97CA9B6
:1046D0008DA99EA96455724F8F4F9F4F9B01AC01CE
:1046E0000E94163423966CAF7DAF8EAF9FAF239799
:1046F000A7E0B0E09B01AC010E9481347B018C01FA
:104700009B01AC01550F220B322FA9012BAB3CAB07
:104710004DAB5EAB9401A501642D742D842D942DB9
:1047200057016801EBA8FE2C0E2D1E2D0E94353678
:104730002093090230930A0240930B0250930C021B
:1047400060930D0270930E0280930F0290931002FB
:10475000ABE0B0E023962CAD3DAD4EAD5FAD239701
:104760000E9481347B018C0115950795F794E7949D
:104770009B01AC01550F220B322FA9012BAB3CAB97
:104780004DAB5EAB2BAD3CAD4DAD5EAD642D742D30
:10479000842D942D57016801EBA8FE2C0E2D1E2DA3
:1047A0000E94353620931102309312024093130277
:1047B00050931402609315027093160280931702AF
:1047C0009093180229966CAD7DAD8EAD9FAD299763
:1047D000AB01BC0180E090E0DC014BAB5CAB6DABAE
:1047E0007EAB8FAB98AFA9AFBAAF62962FAD629791
:1047F00063963FAD639764964FAD649765965FADE2
:10480000659766966FAD669767967FAD6797689672
:104810008FAD689769969FAD6997A0901102B0908F
:104820001202C0901302D0901402E0901502F09092
:10483000160200911702109118020E944A3659017F
:104840006A017B018C012BA93CA94DA95EA960E0FE
:1048500070E080E090E00E949434F22E032F142F39
:10486000B52FF62FE72FD82EE92EA0E00E94533661
:1048700084F421503109404E5F4F6F4F7F4F8F4F6F
:104880009F4FF22E032F142FB52FF62FE72FD82E80
:10489000E92E2F2D302F412F5B2F6F2F7E2F8D2D47
:1048A0009E2D05E10E94173639014A01B62FA72F28
:1048B000F82FE92F2A962FAD2A972B963FAD2B97ED
:1048C0002C964FAD2C972D965FAD2D972E966FADF4
:1048D0002E972F967FAD2F9760968FAD609761963C
:1048E0009FAD6197A0900902B0900A02C0900B02A0
:1048F000D0900C02E0900D02F0900E0200910F0299
:10490000109110020E944A3659016A017B018C0104
:104910009301A4016B2F7A2F8F2F9E2F0E944A366E
:10492000F22E032F142FB52FF62FE72FD82EE92EB6
:10493000A0E00E94533684F4215030484F4F5F4F1F
:104940006F4F7F4F8F4F9F4FF22E032F142FB52F96
:10495000F62FE72FD82EE92E2F2D302F412F5B2F4A
:104960006F2F7E2F8D2D9E2D0FE00E941736B901DF
:10497000CA0120936C0170936D0140936E01909376
:104980006F010E94213120E836EE45EC57E40E9489
:1049900071302BEA3CED42E45EE30E9491329B01D0
:1049A000AC0160E070E080E89FE30E94FF2F20E010
:1049B0003AE24DE257E40E94243220E030E048EC35
:1049C00052E40E9424320E94E330609368017093A5
:1049D000690180936A0190936B010E94CD0B209135
:1049E000FF0130910002890120E030E0322F212FB9
:1049F000102F00276B017C01C01AD10AE20AF30ACA
:104A0000209101023091020240E050E0C701B6015E
:104A10000E94ED34B22E032F142FB52FF62FE72F5F
:104A2000982EA92EA0E00E94533684F4215031091B
:104A300040485F4F6F4F7F4F8F4F9F4FB22E032FD6
:104A4000142FB52FF62FE72F982EA92E2B2D302FB0
:104A5000412F5B2F6F2F7E2F892D9A2D07E10E940A
:104A6000173629013A0170ED470E77E0571E611C99
:104A7000711C80ED481687E05806610471044CF003
:104A8000109205021092060210920702109208027C
:104A900013C0A7019601C701B6010E94163420E099
:104AA00030E0A9010E945C34209305023093060295
:104AB00040930702509308028091050290910602EC
:104AC000A0910702B091080293018201081B190B03
:104AD0002A0B3B0BC901B8010E94213120E030E0D4
:104AE00048EC52E40E947130ABC083309105ECF386
:104AF00086E692E00E94F302082F86E692E00E948A
:104B0000F302182F86E692E00E94F302482F880FE6
:104B1000550B660B770BBA0155274427402B25967A
:104B20001FAF259724961FAE249725962EAD3FAD37
:104B30002597C901A0E0B0E08A019B01082B192B41
:104B40002A2B3B2BC901B8010E94213120E030E023
:104B500040E859E30E9424320E94E33060936C01E4
:104B600070936D0180936E0190936F010E942131CB
:104B700020E030E54DE754E40E9471302EE434ED3E
:104B800042E45EE30E9491329B01AC0160E070E080
:104B900080E89FE30E94FF2F2DEC3AE24DE257E4BC
:104BA0000E94243220E030E048EC52E40E9424329B
:104BB0000E94E330609368017093690180936A01F9
:104BC00090936B016091470386E692E00E9448074C
:104BD0008BEA90E00E94371386E692E00E94EB0693
:104BE00042E06091470386E692E00E94520780917E
:104BF0001D0290E020911E02821B910982309105D6
:104C0000ECF386E692E00E94F302182F86E692E02B
:104C10000E94F302982F8827BC01612B072E000CFD
:104C2000880B990B0E94213120E030E040EF53E4E3
:104C30000E94713020E030E04AE252E40E940030ED
:104C400020E030E040E251E40E9424320E94E33050
:104C5000609364017093650180936601909367018E
:104C600000915E0110915F01C0906801D0906901D0
:104C7000E0906A01F0906B010930110581F4C09257
:104C80005A01D0925B01E0925C01F0925D011092BA
:104C900056011092570110925801109259018091BB
:104CA000520190915301A0915401B0915501A70177
:104CB0009601281B390B4A0B5B0BCA01B9010E94F4
:104CC00021314B015C010E942D0540904E01509016
:104CD0004F01609050017090510164197509860967
:104CE00097090E941F319B01AC0160E070E08AE7E8
:104CF00094E40E9471309B01AC01C501B4010E9493
:104D000024320E94E33060934A0170934B018093F8
:104D10004C0190934D01609346017093470180933D
:104D20004801909349010E942D0560934E017093B4
:104D30004F018093500190935101C0925201D09243
:104D40005301E0925401F092550160914A01709133
:104D50004B0180914C0190914D010E9421312B011A
:104D60003C012091560130915701409158015091DA
:104D700059016091040170910501809106019091A3
:104D800007010E9424324B015C01209108013091FF
:104D9000090140910A0150910B01C301B2010E9427
:104DA00024329B01AC01C501B4010E940030609324
:104DB00056017093570180935801909359010E94B6
:104DC000E33040900C0150900D0160900E01709006
:104DD0000F0146165706680679063CF4DC01CB0144
:104DE00084199509A609B70912C088249924540189
:104DF00084189508A608B708681579058A059B05E3
:104E00007CF4DC01CB01840D951DA61DB71D80939C
:104E10004A0190934B01A0934C01B0934D0108C0FF
:104E200010924A0110924B0110924C0110924D01C8
:104E300080915A0190915B01A0915C01B0915D015C
:104E4000A7019601281B390B4A0B5B0BCA01B9015C
:104E50002AE030E040E050E00E945C3420934201C0
:104E6000309343014093440150934501C701B6017B
:104E700024E630E040E050E00E945C3420933E01A4
:104E800030933F0140934001509341010A30110596
:104E9000F4F40F5F1F4F10935F0100935E011092B7
:104EA0004A0110924B0110924C0110924D01109248
:104EB0004201109243011092440110924501109258
:104EC0003E0110923F0110924001109241018091E9
:104ED0003C0190913D01019709F0A2C0609142010F
:104EE0007091430180914401909145010E942131CC
:104EF0002FEB3EE04CE95EE30E9471300E94E3300C
:104F00006093420170934301809344019093450163
:104F100060913E0170913F0180914001909141016B
:104F20000E9421312FEB3EE04CE95EE30E9471309C
:104F30000E94E33060933E0170933F0180934001F3
:104F40009093410160914A0170914B0180914C0115
:104F500090914D010E9421312FEB3EE04CE95EE340
:104F60000E9471300E94E33060934A0170934B01BC
:104F700080934C0190934D016091460170914701DF
:104F800080914801909149010E9421312FEB3EE030
:104F90004CE95EE30E9471300E94E3306093460169
:104FA00070934701809348019093490160916C018F
:104FB00070916D0180916E0190916F010E9421317D
:104FC0002DED38EE41EF5CE30E9424320E94E33085
:104FD00060936C0170936D0180936E0190936F01EB
:104FE0006091640170916501809166019091670103
:104FF0000E94213126E636E646EE5FE30E94243227
:1050000020E030E040EA53E40E9400300E94E330A8
:1050100060936401709365018093660190936701CA
:10502000E0913A01F0913B01EB30F10521F0109253
:1050300039011092380180910001909101018E1781
:105040009F0721F0F0930101E0930001EC30F1059E
:1050500008F050C2EC5CFF4F0C947B3469ED73E0B8
:1050600089EE93E00E94100B45C21A8A19821BA296
:1050700060914201709143018091440190914501FA
:105080000E94213120E030E040E251E40E94713082
:10509000AB01BC0121E030E0C1010E943F0DF101F4
:1050A00001900020E9F731978F01021913098091CF
:1050B0003C0190913D01892B19F463ED73E002C02E
:1050C0006EEC73E0CE0142960E94A02F80914201C7
:1050D00090914301A0914401B0914501B7FD1BC0DF
:1050E0000330110519F469EC73E029C0043011058F
:1050F00019F465EC73E023C00530110519F462EC76
:1051000073E01DC00830110519F460EC73E017C09E
:105110006FEB73E014C00430110519F46BEB73E00E
:105120000EC00530110519F468EB73E008C00630B5
:10513000110519F466EB73E002C065EB73E0CE0174
:1051400042960E94A02FB101CE0142960E9487365E
:1051500080913C0190913D01892B19F463EB73E040
:1051600002C060EB73E0CE0142960E94A02F1BA20A
:1051700060914A0170914B0180914C0190914D01D9
:105180000E94213120E030E048EC52E40E9471306E
:10519000AB01BC0122E030E0C1010E943F0DF101F2
:1051A00001900020E9F731978F01021913098091CE
:1051B0003C0190913D01892B19F46AEA73E002C029
:1051C00065EA73E0CE0101960E94A02F80914A010A
:1051D00090914B01A0914C01B0914D01B7FD15C0CC
:1051E0000330110519F46FE973E023C00430110591
:1051F00019F46AE973E01DC00530110519F466E978
:1052000073E017C063E973E014C00430110519F4AA
:105210006EE873E00EC00530110519F46AE873E01A
:1052200008C00630110519F467E873E002C065E8AC
:1052300073E0CE0101960E94A02FB101CE0101962C
:105240000E94873680913C0190913D01892B19F491
:1052500061E873E044C16CE773E041C11A8A1982C6
:1052600065E773E0CE0142960E94A02F1BA26091D9
:1052700064017091650180916601909167010E94BF
:10528000213120E030E040E251E40E947130AB0176
:10529000BC0121E030E0C1010E943F0DB101CE010F
:1052A00042960E94873680913C0190913D01019782
:1052B00019F462E773E002C06FE673E0CE01429634
:1052C0000E94A02F68E673E0CE0101960E94A02FF5
:1052D0001BA260916C0170916D0180916E019091A3
:1052E0006F010E94213120E030E048EC52E40E943E
:1052F0007130AB01BC0121E030E0C1010E943F0DE3
:10530000B101CE0101960E94873680913C019091B7
:105310003D01019719F463E673E0E1C06FE573E0C6
:10532000DEC01A8A19826FE473E0CE0142960E94B1
:10533000A02F63E473E0D3C01A8A198268E373E094
:10534000CE0142960E94A02F1BA2409104015091D1
:105350000501609106017091070122E030E0C10172
:105360000E943F0DB101CE0142960E94873668E24D
:1053700073E0B5C01A8A19826DE173E0CE014296DE
:105380000E94A02F1BA24091080150910901609139
:105390000A0170910B0122E030E0C1010E943F0D33
:1053A000B101CE0142960E9487366DE073E097C04E
:1053B0001A8A198262E073E0CE0142960E94A02F01
:1053C0001BA260910C0170910D0180910E019091D2
:1053D0000F010E942131AB01BC0120E030E0C1018E
:1053E0000E943F0DB101CE0142960E94873662EFC6
:1053F00072E075C01A8A198261EE72E0CE0142969F
:105400000E94A02F809102019091030182309105AA
:10541000B1F044F4009781F0019709F064C062ECA8
:1054200072E05DC08430910581F064F0059709F069
:105430005AC061E972E053C063ED72E050C065EBA1
:1054400072E04DC068EA72E04AC06BE972E047C0A2
:105450001A8A198269E872E0CE0142960E94A02F52
:1054600080913C0190913D01019719F46FE772E042
:1054700002C066E772E0CE0142960E94A02F69E664
:1054800072E02DC01A8A19826DE572E0CE01429653
:105490000E94A02F80913701882319F06AE572E0FD
:1054A00002C066E572E0CE0142960E94A02F69E438
:1054B00072E015C01A8A198268E372E0CE01429642
:1054C0000E94A02F6DE272E00AC01A8A19826EE172
:1054D00072E0CE0142960E94A02F62E172E0CE01FE
:1054E00001960E94A02FBE016F5F7F4FCE014296B2
:1054F0000E94460B82E792E00E9424080E94D00A94
:105500000E94BF0E60E080917E020E94B70461E0BD
:1055100080917E020E9487040E94E20A0E94E20AB1
:105520000E942D056B017C0134E6C30ED11CE11CE9
:10553000F11C00E010E00E942D056C157D058E0524
:105540009F0578F582E792E00E94940318161906E9
:1055500094F782E792E00E9494031816190614F05B
:1055600000E01AC082E792E00E94AB03082F80910E
:105570003E03801369C48090190390901A03A09091
:105580001B03B0901C030E942D0586169706A806E3
:10559000B90608F459C4E4CF10E00115110559F219
:1055A0006BC4003F110509F42CC20115110509F463
:1055B00028C20039110509F48AC144F400361105E6
:1055C00009F4F1C100371105D1F01BC2003D1105EE
:1055D00051F1003E110529F0003B110509F011C2FF
:1055E0006FC080913A0190913B018B30910514F48A
:1055F00001960DC010923B0110923A0102C28091B7
:105600003A0190913B018230910534F001979093DB
:105610003B0180933A01F5C14BE050E050933B01D0
:1056200040933A01EEC180913A0190913B01843060
:105630009105B9F4C0900401D0900501E0900601F5
:10564000F090070128E431EE4AE75FE3C701B601B5
:105650000E946C3087FFD5C12AE037ED43E25CE35E
:1056600053C185309105B9F4C0900801D09009016B
:10567000E0900A01F0900B0128E431EE4AE75FE385
:10568000C701B6010E946C3087FFBBC12AE037ED2D
:1056900043E25CE35FC1069709F0B3C180910C015E
:1056A00090910D01A0910E01B0910F0184369105EA
:1056B000A105B1050CF0A5C10196A11DB11D6AC1DE
:1056C00080913A0190913B010397B1F48091680178
:1056D00090916901A0916A01B0916B0180935A0188
:1056E00090935B01A0935C01B0935D0181E090E039
:1056F00090933B0180933A0100913A0110913B0154
:105700000430110521F5C0900401D0900501E0900E
:105710000601F09007012AE037ED43E25CE3C701A0
:10572000B6010E941F3218160CF074C02AE037ED43
:1057300043E25CE3C701B6010E94FF2F60930401BE
:1057400070930501809306019093070163C00530B3
:10575000110521F5C0900801D0900901E0900A01DF
:10576000F0900B012AE037ED43E25CE3C701B6019C
:105770000E941F3218160CF04DC02AE037ED43E2AC
:105780005CE3C701B6010E94FF2F6093080170938C
:10579000090180930A0190930B013CC0063011056A
:1057A000D1F480910C0190910D01A0910E01B09166
:1057B0000F01181619061A061B060CF072C0019785
:1057C000A109B10980930C0190930D01A0930E01E2
:1057D000B0930F0166C00830110591F480913C012F
:1057E00090913D01892B39F481E090E090933D0147
:1057F00080933C0156C010923D0110923C0151C073
:105800000930110539F49091370181E0892780939F
:10581000370147C00A30110509F043C060913C01CF
:1058200080E090E00E943A086091370181E090E0CA
:105830000E943A0860910C0182E090E00E943A08D0
:1058400020E030E048EC52E46091040170910501E1
:1058500080910601909107010E9424320E94E3305A
:1058600083E090E00E943A0820E030E048EC52E407
:10587000609108017091090180910A0190910B01DA
:105880000E9424320E94E33084E090E00E943A08B3
:1058900064E670E080E090E00E94F304E0E0F0E075
:1058A000099580913A0190913B010B9709F0A9C0AD
:1058B00060E08AE090E00E943A0864E670E080E0F0
:1058C00090E00E94F304E0E0F0E009959AC0809136
:1058D0003A0190913B018430910519F5C090040183
:1058E000D0900501E0900601F090070124EA30E72E
:1058F0004DE75FE3C701B6010E946C3087FF81C0AE
:105900002DEC3CEC4CEC5DE3C701B6010E9400308D
:105910006093040170930501809306019093070141
:1059200070C08530910519F5C0900801D09009012B
:10593000E0900A01F0900B0124EA30E74DE75FE3C5
:10594000C701B6010E946C3087FF5BC02DEC3CECB8
:105950004CEC5DE3C701B6010E9400306093080182
:105960007093090180930A0190930B014AC0069736
:1059700009F047C080910C0190910D01A0910E019A
:10598000B0910F0184369105A105B105D4F50A96B1
:10599000A11DB11D80930C0190930D01A0930E01E8
:1059A000B0930F012EC080913A0190913B01843059
:1059B000910569F48AE097EDA3E2BCE380930401CA
:1059C00090930501A0930601B09307011AC085309A
:1059D000910569F48AE097EDA3E2BCE380930801A6
:1059E00090930901A0930A01B0930B010AC0069796
:1059F00041F410920C0110920D0110920E011092C0
:105A00000F0100E010E0012B11F40C94501F0E94D4
:105A100000000C944C1F86E780939C038091A503A3
:105A20008F3F29F486E692E00E945E071CC061E089
:105A30000E94870461E08091A5030E94B7048091D1
:105A4000A8038F3F19F40E9483050DC061E00E94F6
:105A5000B70461E08091A6030E94B70460E08091E2
:105A6000A7030E94B7048091A5038F3FE1F46091E2
:105A70009C0386E692E00E94480760ED86E692E08D
:105A80000E943F0386E692E00E94EB0641E06091AF
:105A90009C0386E692E00E94520786E692E00E940E
:105AA000F302182F1FC08091A8038F3F21F481E5D6
:105AB00090E00E94BA0560E08091A5030E948704EF
:105AC00080ED0E94E10980E00E94E109182F61E069
:105AD0008091A5030E9487048091A8038F3F11F451
