:100000000C9434010C945C010C945C010C94A60DCE
:100010000C94A60D0C94A60D0C945C010C945C0140
:100020000C945C010C945C010C945C010C945C01DC
:100030000C945C010C945C010C945C010C945C01CC
:100040000C94220C0C945C010C9452090C942C0915
:100050000C945C010C945C010C945C010C945C01AC
:100060000C946C0C0C945C0107634236B79BD8A7C8
:100070001A39685618AEBAAB558C1D3CB7CC5763CD
:10008000BD6DEDFD753EF6177231BF000000803F7B
:1000900008000000BE922449123EABAAAA2ABECD97
:1000A000CCCC4C3E00000080BEABAAAAAA3E000009
:1000B0000000BF000000803F000000000008417801
:1000C000D3BB4387D1133D190E3CC3BD4282AD2B38
:1000D0003E68EC8276BED98FE1A93E4C80EFFFBE30
:1000E00001C4FF7F3F00000000000000000024006A
:1000F00027002A0000000008000201000003040796
:1001000000000000000000000000000023002600A6
:10011000290000000000250028002B00040404042E
:1001200004040404020202020202030303030303A1
:10013000010204081020408001020408102001027E
:1001400004081020B0460054656D706572617475C6
:10015000726500696E484700507265737375726509
:100160000066742F7300566172696F0066740041F7
:100170006C74697475646500B0430054656D706596
:100180007261747572650068706100507265737396
:10019000757265006D2F7300566172696F006D0096
:1001A000416C7469747564650052435420566172E1
:1001B000696F00202020566172696F6D65746572E9
:1001C0000020524354204A65746920546F6F6C7349
:1001D0000050726573733A205550202620444E001B
:1001E0005361766520616E64207265737461727408
:1001F000004368616E67653A20444E0045550055DE
:100200005300556E6974733A20200068506100698C
:100210006E484700507265733A2000B04300B04604
:100220000054656D703A20006D2F730066742F7353
:1002300000566172696F3A20006D00667400416C6F
:100240007469743A2000202020566172696F6D65D0
:100250007465720020524354204A65746920546FBB
:100260006F6C7300F110991811241FBECFEFD8E006
:10027000DEBFCDBF25E0AAE3B1E001C01D92AD36DF
:10028000B207E1F711E0A0E0B1E0E6E0FBE302C075
:1002900005900D92AA33B107D9F711E0C3E3D1E07D
:1002A00004C02197FE010E94601DC233D107C9F727
:1002B0000E9475110C94761D0C9400002091A901E8
:1002C00090914D03213208F04AC08091860181113E
:1002D000FCCF32E03093860131E0309385013FEF6F
:1002E000309384011092830120938201A9E8B1E048
:1002F00042E651E0FA013E2F341B321718F43D91CB
:100300003193F9CF1092610120916101990F922BE5
:100310009093610190916001913061F410926001BD
:10032000909161019093BB009091BC0093FDF8CF38
:1003300095EC01C095EE9093BC00909186019230AF
:10034000E1F3909184019F3F79F0809184018032A4
:1003500041F080918401803331F084E005C081E078
:1003600003C082E001C083E0109288011092A901CD
:100370001092870108950F931F93CF93C82F03E521
:1003800012E0F801608F682FC8010E94500BF8013D
:10039000108E8C2FCF911F910F910895909186010F
:1003A0009111FCCF813208F080E291E090938601B8
:1003B000909385012FEF2093840110928301280FE1
:1003C0002093820190936101909161019E6E9093C0
:1003D000610190916001913061F4109260019091FF
:1003E00061019093BB009091BC0093FDF8CF95EC18
:1003F00001C095EE9093BC00909186019130E1F39D
:1004000090918301981710F480918301A2E6B1E0E6
:1004100020E431E0F9019E2F921B981718F49D916A
:100420009193F9CF10923F0180933E0108952F924E
:100430003F924F925F926F927F928F929F92AF9274
:10044000BF92CF92DF92EF92FF920F931F93CF93C1
:10045000DF93CDB7DEB72A970FB6F894DEBF0FBE95
:10046000CDBF8C012A013B013A87298720E030E08B
:10047000A901C301B2010E94EC1887FF05C060E02A
:1004800070E080E09FEB04C060E070E080E09FE3FC
:10049000E12CF12CA985BA85EA16FB0654F420E07C
:1004A00030E040E251E40E94DF1A2FEFE21AF20A34
:1004B000F1CF9B01AC01C301B2010E94731A6B0121
:1004C0007C0120E030E0A901C301B2010E94EC18D8
:1004D00087FF04C0F7FAF094F7F8F094A12CB12C40
:1004E000BDECB983ECECEA83FCECFB832DE32C83BD
:1004F00020E030E040E251E469817A818B819C8187
:100500000E945219962E872E382E292EA701960169
:100510000E94EC18181644F03FEFA31AB30A998210
:100520008A823B822C82E4CFA114B10429F04501D8
:100530006FEF861A960A03C092E0892E912C20E074
:1005400030E0A901C301B2010E94EC1887FF03C08B
:100550007FEF871A970A89859A850196880E991EDA
:100560001814190444F081E090E0DC01A819B909DD
:10057000BE83AD8302C01E821D8220E030E0A9014F
:10058000C301B2010E94EC1887FF07C08DE2F80199
:10059000808388248394912C02C0812C912CA114F7
:1005A000B10449F4F801E80DF91D80E3808394015A
:1005B0002F5F3F4F4901212C312CB101680D791D6E
:1005C00078876F832A143B04D1F129813A814B81CA
:1005D0005C81C701B6010E94DF1A0E94511B2B01EA
:1005E0003C016F817885600F711F4AE0C2010E9453
:1005F000B718B201550C880B990B0E94F31829818A
:100600003A814B815C810E9452199B01AC01C70168
:10061000B6010E94721A6B017C0120E030E040E2DA
:1006200051E469817A818B819C810E94DF1A698300
:100630007A838B839C833FEF231A330ABECF5B01FF
:1006400089859A851816190644F4F801E60FF71FF4
:100650008EE28083DB0111965D01812C912CE9856E
:10066000FA858E169F064CF520E030E040E251E41A
:10067000C701B6010E9452192B013C010E94511B77
:100680006B017C01B4016A0D7B1D600F711F4AE094
:10069000C6010E94B718B601DD0C880B990B0E94A9
:1006A000F3189B01AC01C301B2010E94721A6B01E5
:1006B0007C01BFEF8B1A9B0AD2CFCF01F7FF02C09C
:1006C00080E090E0A80EB91E2D813E81232B89F099
:1006D0009501F801EA0DFB1D40E26FEFA61AB60A7C
:1006E0004193C501821B930BAD81BE818A179B0785
:1006F000A4F3F801EA0DFB1D1082C8012A960FB67B
:10070000F894DEBF0FBECDBFDF91CF911F910F9147
:10071000FF90EF90DF90CF90BF90AF909F908F9021
:100720007F906F905F904F903F902F9008952F9201
:100730003F924F925F926F927F928F929F92AF9271
:10074000BF92CF92DF92EF92FF920F931F93CF93BE
:10075000DF93C0903003D0903103E0903203F090EB
:1007600033030E94160C209108032223E9F060E075
:100770008EE70E94BB0161E082E90E94BB0161E05B
:1007800083E20E94BB0161E0809108030E94BB01EB
:1007900080910001882311F0815003C0109208035A
:1007A00086E08093000171C324EFC20E21E0D21EC7
:1007B000E11CF11C11E0C616D706E806F90608F0A0
:1007C00010E060E08EE70E94BB0161E08FE90E94CB
:1007D000BB01111170C080910903A0918602B091F4
:1007E0008702E82FF0E0EE0FFF1FE851FD4F208158
:1007F0003181232B49F48F5F282F30E02A173B07E4
:1008000084F31092090302C08093090360910903E5
:10081000F6E0E0E026E030E0E12C40E050E070E07F
:10082000CA01860F971F8A179B07A4F5009709F145
:10083000E394880F991FFC01E853FD4F80818F716D
:100840008830A1F0813019F4C901039615C08111D7
:1008500003C0C901029610C0853019F4C90104967D
:100860000BC0893019F0C901019606C0C90105966F
:1008700003C0C9012F2F3E2F4F5F5F4F40315105FD
:1008800051F08B31910514F0EA9404C0F22FE32F5C
:100890009C01C6CFC901C82FC06481E080936B0260
:1008A0006C2F83E592E00E94500B60E08C2F0E9439
:1008B0009A0DC82F1DC0E0914E03F0E0EE0FFF1F10
:1008C000E753FD4F8081C82FCF7182958695877041
:1008D000C80FC85F81E080936B026C2F83E592E0C4
:1008E0000E94500B60E08C2F0E949A0DC82FE12CC3
:1008F000D1E0D0936B0261E183E592E00E94500B5E
:100900006C2F81E10E949A0DC82FD0936B0264EA8C
:1009100083E592E00E94500B6C2F84EA0E949A0DAE
:10092000C82FD0936B0262E083E592E00E94500BE7
:100930006C2F82E00E949A0DC82FD0936B0268E062
:1009400083E592E00E94500B6C2F88E00E949A0D84
:10095000C82FD0936B0260E083E592E00E94500BB9
:1009600010926B026C2F80E00E949A0DF82E1111EC
:10097000EBC1C09109036E2C6C0E809186029091A0
:100980008702C61551F0772473947C0E7092090388
:100990000C2F10E0081719075CF02091090330E0D4
:1009A0000197281739070CF46CC21092090369C229
:1009B000CC2309F4C7C1E0913403F09135030995C4
:1009C000C295C07F680131E2C30ED11CC601880FF9
:1009D000991FFC01EA57FD4F5F0180818F7190E004
:1009E0008530910509F4BEC0F4F5009709F495C06F
:1009F000019709F0A7C1000F111FF801E851FD4F41
:100A00000190F081E02D00811181C160D0936B02D3
:100A10006C2F83E592E00E94500B6F2D8C2F0E946B
:100A20009A0DC82F1F79F5012081229526952770F0
:100A300030E0322F22273295330F307E022B132BDA
:100A4000D0936B02602F83E592E00E94500B6C2FD5
:100A5000802F0E949A0D082F912F9F79F501C08158
:100A6000C07EC92B74C08830910521F0099709F424
:100A7000C2C068C1C860D0936B026C2F83E592E05E
:100A80000E94500B6F2D8C2F0E949A0DC82F000FC3
:100A9000111FF801E851FD4F0190F081E02D808198
:100AA0009181A281B3816C017D01FFE9FF22D09386
:100AB0006B026C2D83E592E00E94500B6C2F8C2D05
:100AC0000E949A0DC82F2D2C3E2C4F2C552447FCEC
:100AD0005A94D0936B02622D83E592E00E94500BF2
:100AE0006C2F822D0E949A0DC82F1701552437FCB8
:100AF0005094452CD0936B02622D83E592E00E94C6
:100B0000500B6C2F822D0E949A0D182F9F2D9F79CC
:100B1000F501C081C07EC92B62C0000F111FF80112
:100B2000E851FD4F0190F081E02D1081D0936B02D0
:100B30006C2F83E592E00E94500B6F2D8C2F0E944A
:100B40009A0D082F1F79F501C081C07EC12BD0936B
:100B50006B026C2F83E592E00E94500B10926B02A7
:100B6000602F47C0C560D0936B026C2F83E592E085
:100B70000E94500B10926B026F2D8C2F0E949A0DC9
:100B8000F82E000F111FF801E851FD4F0190F08180
:100B9000E02D118102819081F50120812295269519
:100BA0002770213011F0C0E001C0C0E4C92BD09300
:100BB0006B02602F83E592E00E94500B6F2D802F17
:100BC0000E949A0D082FD0936B02612F83E592E06B
:100BD0000E94500B602F812F0E949A0D182FD093E6
:100BE0006B026C2F83E592E00E94500B10926B0217
:100BF000612F8C2FA4C0C960D0936B026C2F83E54A
:100C000092E00E94500B6F2D8C2F0E949A0DC82FDE
:100C1000000F111FF801E851FD4F0190F081E02D08
:100C200080809180A280B38020E030E0A901C501DE
:100C3000B4010E94871B18161CF4C501B40103C03F
:100C4000C501B40190580E94581B8B0180E090E0D0
:100C50000E94F1189B01AC01C501B4010E94721AF7
:100C60002AE939E949E15FE30E94521920E030E5C1
:100C700043EC57E40E9452191B012C0120E030E0A4
:100C8000A9010E94871B18161CF4C201B10103C000
:100C9000C201B10190580E94581B562EF72E812F89
:100CA0008170F601EE0FFF1FEA57FD4F908192957C
:100CB00096959770913011F090E001C090E2192F55
:100CC000182B20E030E0A901C501B4010E94EC1806
:100CD000881F8827881F8295880F880F807C182B93
:100CE000D0936B02652D83E592E00E94500B6C2F30
:100CF000852D0E949A0DC82FD0936B026F2D83E52E
:100D000092E00E94500B6C2F8F2D0E949A0DC82FDD
:100D1000D0936B02602F83E592E00E94500B6C2F02
:100D2000802F0E949A0DC82FD0936B02612F83E50C
:100D300092E00E94500B10926B026C2F812F0E9448
:100D40009A0DF82EC72D19CEC0914E03D0936B0289
:100D50006C2F83E592E00E94500B6F2D8C2F0E9428
:100D60009A0DB82E0C2F10E06801CC0CDD1C9601FA
:100D700027533D4F4901F9012081922F9F71F8E0DF
:100D80009F9F70011124229526952770E22AD09307
:100D90006B026E2D83E592E00E94500B10926B0265
:100DA0006B2D8E2D0E949A0DF82EF601E857FD4FFF
:100DB000D081AD2EB180772473942A2D2D1B30E085
:100DC000F40180818F7190E028173907A4F4F501B0
:100DD000E49070926B026E2D83E592E00E94500BBE
:100DE00010926B026F2D8E2D0E949A0DF82EFFEF40
:100DF000AF1ABF0AE2CF000F111FD801A855BD4F8F
:100E0000DC910D2F11961C91960127533D4F6901DE
:100E1000BB24B394202F2D1B30E0F60180818295F6
:100E20008695877090E0281739079CF4F801E490C4
:100E3000B0926B026E2D83E592E00E94500B1092EF
:100E40006B026F2D8E2D0E949A0DF82E0F5F1F4F93
:100E5000E1CFCF5FC0934E038C2F90E020918602AC
:100E6000309187028217930714F010924E030E946C
:100E7000160C609330037093310380933203909388
:100E8000330361E08F2D0E94BB01E0913403F091A8
:100E90003503099560E08EEF0E94BB01CEE0D3E000
:100EA0001C2F105E61E089910E94BB011C13FACFD8
:100EB00060E08FEF0E94BB0181E0DF91CF911F9135
:100EC0000F91FF90EF90DF90CF90BF90AF909F90E9
:100ED0008F907F906F905F904F903F902F900895EC
:100EE000CF93DF93C1E0C093870197E790934D03C1
:100EF000109288011092A901682F87E492E00E9465
:100F0000BF0A0E945E01C09387011092880110926F
:100F1000A90182E090E00E94CE0187E492E00E9465
:100F2000730AD82F80E0C82F87E492E00E94730AEA
:100F3000C82BD92B0E945E01CE01DF91CF9108957D
:100F4000CF93C1E0C093870197E790934D03109230
:100F500088011092A901682F87E492E00E94BF0ADD
:100F60000E945E01C0938701109288011092A9012E
:100F700081E090E00E94CE0187E492E00E94730A33
:100F8000C82F0E945E018C2FCF910895CF92DF92DF
:100F9000FF920F931F93CF93DF932091860230919E
:100FA000870220313105CCF56B0189010F5F1F4F9E
:100FB000F801EE0FFF1FEA57FD4F91838083F9017F
:100FC000EE0FFF1FE855FD4F71836083F901EE0FAF
:100FD000FF1FE851FD4F11821082220F331FE901DC
:100FE000C853DD4F18820E94AE18982F9F718981D7
:100FF000807EF82EF92AC6010E94AE188295880FCD
:10100000807E9F2D9F71F92EF82AF9821093870216
:10101000009386028FEF800F01C08FEFDF91CF9199
:101020001F910F91FF90DF90CF900895CF93DF93A2
:1010300083E592E00E943A0EC3E5D2E061E08C8540
:101040000E94D00961E08C85DF91CF910C948409D6
:101050008091700290917102892B31F180913C0155
:1010600090913D0122E083359207F1F0009711F055
:101070000E943A0E80916A028E7F80936A021092DB
:101080003B0110923A0183E592E090933D018093F9
:101090003C01E0916602F0916702908180916802C4
:1010A000892B808381E0089580E008950F931F933A
:1010B000CF93DF938C01EB010E94AE18AEE0B3E05A
:1010C00090E020E2981740F4A8014F5F5F4FF801CD
:1010D00004910C938A0101C02C939F5F119690316B
:1010E00089F7CE010E94AE18AEE1B3E090E020E2B5
:1010F000981740F4AE014F5F5F4FFE01C491CC934F
:10110000EA0101C02C939F5F1196903189F7DF911E
:10111000CF911F910F910895CF93DF93FC01019020
:101120000020E9F73197E81B20E030E0F0E2A90168
:1011300048575F4F2E1748F4EA01CA57DD4FDC01CC
:10114000A20FB31FAC91A88304C0DA01AA57BD4F08
:10115000FC932F5F3F4F2031310549F7FB01019090
:101160000020E9F73197E61B80E090E040E29C0127
:1011700028563F4F8E1748F4E901CA57DD4FDB016F
:10118000A80FB91F5C91588304C0D901AA57BD4F5D
:101190004C9301968031910551F7DF91CF910895DD
:1011A000CF93C82F81E08093870187E780934D0319
:1011B000109288011092A90164EF87E492E00E94E6
:1011C000BF0A6C2F87E492E00E94BF0ACF910C9473
:1011D0005E018EE20E94D00865E070E080E090E061
:1011E0000E94DC0B86EF0C947007CF92DF92EF9297
:1011F000FF920F931F93CF93DF936C017A018B01C2
:10120000C0E0D0E0CE15DF0589F0D8016D918D01E9
:10121000D601ED91FC910190F081E02DC601099578
:10122000892B11F47E0102C02196ECCFC701DF911A
:10123000CF911F910F91FF90EF90DF90CF90089585
:101240000E94661D8AEA91E00E94810E21E0892BAE
:1012500009F420E0822F08951F920F920FB60F928B
:1012600011242F933F934F935F936F937F938F93AB
:101270009F93AF93BF93EF93FF938AEA91E00E940D
:101280006710FF91EF91BF91AF919F918F917F91E7
:101290006F915F914F913F912F910F900FBE0F90E3
:1012A0001F9018951F920F920FB60F9211242F9333
:1012B0008F939F93EF93FF93E091BA01F091BB015D
:1012C0008081E091C001F091C10182FD12C0908146
:1012D0008091C3018F5F8F732091C401821751F0F9
:1012E000E091C301F0E0E655FE4F958F8093C30176
:1012F00001C08081FF91EF919F918F912F910F906D
:101300000FBE0F901F90189590E0FC01EC50FF4F1E
:101310003491FC01E05DFE4F2491FC01E45EFE4F40
:10132000E491EE2309F43BC0332339F1333091F0DB
:1013300038F43130A9F0323001F584B58F7D12C018
:10134000373091F03830A1F03430B9F4809180001A
:101350008F7D03C0809180008F77809380000DC0C7
:1013600084B58F7784BD09C08091B0008F7703C0AA
:101370008091B0008F7D8093B000F0E0EE0FFF1FF2
:10138000EE5EFE4FA591B4918FB7F894EC91611188
:1013900003C020952E2301C02E2B2C938FBF0895C0
:1013A000CF93DF9390E0FC01E05DFE4F2491FC01C0
:1013B000E45EFE4F8491882361F190E0880F991FCD
:1013C000FC01E651FF4FC591D491FC01EE5EFE4F4A
:1013D000A591B491611109C09FB7F89488812095B7
:1013E00082238883EC912E230BC0623061F49FB777
:1013F000F8943881822F809583238883EC912E2B5B
:101400002C939FBF06C08FB7F894E8812E2B2883BA
:101410008FBFDF91CF9108953FB7F8948091690510
:1014200090916A05A0916B05B0916C0526B5A89BBB
:1014300005C02F3F19F00196A11DB11D3FBFBA2F66
:10144000A92F982F8827820F911DA11DB11DBC01C6
:10145000CD0143E0660F771F881F991F4A95D1F78A
:10146000089585ED8093BC008091BC0084FDFCCF85
:1014700010928601089540913F05262F30E0240FF9
:10148000311D21323105DCF4209186012430C9F46C
:10149000FC0180E090E0861758F430913F052191DF
:1014A000DC01A35EBA4FA30FB11D2C930196F3CFBD
:1014B00080913F05680F60933F0580E0089581E0CB
:1014C000089582E008950895E0913F0180913E01E2
:1014D000E81730F4F0E0E05CFE4F808190E0089582
:1014E0008FEF9FEF089590913F0180913E019817F3
:1014F00050F4E92FF0E0E05CFE4F208130E09F5F88
:1015000090933F0102C02FEF3FEFC90108958091F2
:101510003E0190E020913F01821B91090895CF92F6
:10152000DF92EF92FF920F931F93CF93DF937C0193
:10153000262F972F8A0180918701882391F0C62F4B
:10154000D72F6E01C40ED51ECC15DD0571F0699143
:10155000D701ED91FC910190F081E02DC701099533
:10156000F3CF642F822F0E943B0AC801DF91CF91F5
:101570001F910F91FF90EF90DF90CF900895CF9340
:10158000DF931F92CDB7DEB76983209187012223B5
:10159000D1F02091A901203240F021E030E0FC019F
:1015A0003383228380E090E015C080918801E82F8A
:1015B000F0E0E757FE4F998190838F5F8093880119
:1015C0008093A90105C061E0CE0101960E943B0A0B
:1015D00081E090E00F90DF91CF9108950895DC01B4
:1015E0005196ED91FC915297908150968C918095F7
:1015F00089238083089520913C0130913D01281773
:10160000390771F490913A0180913B01981741F0AC
:10161000E0913A01F0E0E35FFA4F808190E00895B5
:101620008FEF9FEF0895089520913C0130913D0187
:101630002817390769F480913B0120913A0190E025
:101640004096821B910960E170E00E94111D08958F
:1016500080E090E0089520913C0130913D012817F1
:101660003907B9F490913A0180913B01981789F0BC
:10167000E0913A01F0E0E35FFA4F808120913A0176
:1016800030E02F5F3F4F2F70332720933A0190E0D7
:1016900008958FEF9FEF0895089580E090E00895FA
:1016A000CF92DF92EF92FF920F931F93CF93DF932E
:1016B000EC0189A19AA1009729F421E030E03B8355
:1016C0002A8371C00FB7F8948F8D98A1892B91F060
:1016D00028E030E090E081E0482F462309F09F5F4A
:1016E000880F21503109C1F7888D81119F5F192F13
:1016F000109501C010E0F62ECE010E94EF0A89A1DC
:101700009AA10197F1F788E0C82ED12CEE24E3943A
:101710008E2D8F2139F0E989FA8990818889892B6A
:10172000808303C0CE010E94EF0A89A19AA101978C
:10173000F1F7EE0C81E0C81AD10851F78E898823A1
:1017400089F0888D882339F0E989FA899081888920
:10175000892B808303C0CE010E94EF0A89A19AA140
:101760000197F1F78F8D98A1892B81F010FF07C0A9
:10177000E989FA8990818889892B808303C0CE0109
:101780000E94EF0A8F8D98A10197F1F7E989FA89F4
:1017900090818889892B80830FBF8D8D9E8D0197C5
:1017A000F1F781E090E0DF91CF911F910F91FF90D1
:1017B000EF90DF90CF9008958F929F92AF92BF925B
:1017C000CF92DF92EF92FF926B017C010E940C0A94
:1017D0004B015C01C114D104E104F104F1F00E9459
:1017E0000C0ADC01CB0188199909AA09BB09883EBA
:1017F0009340A105B10570F321E0C21AD108E108B8
:10180000F10888EE880E83E0981EA11CB11CC1145B
:10181000D104E104F10419F7DDCFFF90EF90DF90E0
:10182000CF90BF90AF909F908F9008952FB7F8946E
:1018300060916505709166058091670590916805D6
:101840002FBF08951F920F920FB60F9211242F935E
:101850003F938F939F93AF93BF9380916505909132
:101860006605A0916705B09168053091640526E092
:10187000230F2D3720F40296A11DB11D05C029E8C4
:10188000230F0396A11DB11D209364058093650568
:1018900090936605A0936705B093680580916905EC
:1018A00090916A05A0916B05B0916C050196A11D00
:1018B000B11D8093690590936A05A0936B05B09361
:1018C0006C05BF91AF919F918F913F912F910F9098
:1018D0000FBE0F901F9018951F920F920FB60F9288
:1018E00011242F933F934F935F936F937F938F9325
:1018F0009F93AF93BF93EF93FF938091B900887F3D
:10190000803609F49CC068F5883209F45BC090F415
:10191000803109F454C038F4882309F4F6C08830C3
:1019200009F44DC0F6C0883109F44CC0803209F486
:101930005DC0EFC0803409F468C048F4803309F416
:1019400055C0883309F0E5C080938401D8C0803544
:1019500009F44FC0883509F45DC0883409F0D9C056
:10196000D6C0883909F4C7C0A8F4883709F467C01D
:1019700038F4883609F463C0803709F460C0C9C000
:10198000883809F4B8C0803909F45FC0803809F09C
:10199000C0C05BC0803B09F486C038F4803A09F4CB
:1019A00066C0883A09F47FC0B4C0803C09F4A7C07F
:1019B000883C09F4A4C0883B09F48AC0AAC080917D
:1019C000610110C09091830180918201981770F598
:1019D000E091830181E08E0F80938301F0E0EE5966
:1019E000FE4F80818093BB0085EC86C0809384018C
:1019F0008EC0E091830181E08E0F809383018091FE
:101A0000BB00F0E0EE59FE4F8083909183018091FE
:101A100082016EC0E091830181E08E0F809383018B
:101A20008091BB00F0E0EE59FE4F808380918501EC
:101A300081116DC081E08093600184EA61C083E020
:101A40008093860110926305CFCF80916305803229
:101A500008F051C0E091630581E08E0F809363052B
:101A60008091BB00F0E0ED5BFA4F8083BDCF85EC49
:101A70008093BC001092860180916305803230F41F
:101A8000E0916305F0E0ED5BFA4F10826091630531
:101A900070E0E0914105F091420583E495E00995FD
:101AA0001092630536C084E0809386011092400551
:101AB00010923F05E0913D05F0913E05099580911A
:101AC0003F05811105C081E080933F0510921D05FF
:101AD000E091400581E08E0F80934005F0E0E35EE9
:101AE000FA4F80818093BB009091400580913F0523
:101AF000981708F479CF85E88093BC000AC085EC7C
:101B00008093BC001092860104C0109284010E9450
:101B1000310AFF91EF91BF91AF919F918F917F918A
:101B20006F915F914F913F912F910F900FBE0F904A
:101B30001F901895862798E027E087FF03C0880F3D
:101B4000822701C0880F9150C1F708951F920F920C
:101B50000FB60F9211242F933F934F935F936F9380
:101B60007F938F939F93AF93BF93CF93DF93EF9325
:101B7000FF93E0913C01F0913D01309709F467C07B
:101B8000C685D78588812585822309F060C0818D2F
:101B9000928D0197F1F7438D548D68E070E030E04D
:101BA00081E0DA011197F1F79881922311F0382B37
:101BB00003C0982F90953923880F6150710989F7D8
:101BC00080913B0190E001968F70992760913A01D6
:101BD000681749F0A0913B01B0E0A35FBA4F3C9376
:101BE00080933B0103C087898160878B8689882326
:101BF000F1F0CA010197F1F78881282381E090E094
:101C0000A0E0B0E004C0880F991FAA1FBB1F2A954F
:101C1000D2F740910B0550910C0560E070E0842BE9
:101C2000952BA62BB72B90930C0580930B05878DD6
:101C300090A1009711F00197F1F7858D968D01978E
:101C4000F1F7A389B4899C918589892B8C93FF91A5
:101C5000EF91DF91CF91BF91AF919F918F917F9144
:101C60006F915F914F913F912F910F900FBE0F9009
:101C70001F901895E0913C01F0913D01E817F9079C
:101C800069F4A389B4899C918589809589238C9373
:101C900010923D0110923C0181E0089580E008958A
:101CA000FC01538D448D252F30E0842F90E0821B62
:101CB000930B541710F0CF96089501970895FC01E7
:101CC000918D828D981761F0828DDF01A80FB11D73
:101CD0005D968C91928D9F5F9F73928F90E0089597
:101CE0008FEF9FEF0895FC01918D828D981731F051
:101CF000828DE80FF11D858D90E008958FEF9FEFA5
:101D00000895FC01918D228D892F90E0805C9F4F7A
:101D1000821B91098F739927089580E090E0892BA9
:101D200029F00E94220981110C94000008953F922D
:101D30004F925F926F927F928F929F92AF92BF92DB
:101D4000CF92DF92EF92FF920F931F93CF93DF9387
:101D5000CDB7DEB728970FB6F894DEBF0FBECDBF64
:101D60000E94E9086C01E12CF12C809136038295E8
:101D7000880F880F807C8C5C0E94D008809136038D
:101D8000811105C065E070E080E090E012C0813014
:101D900029F468E070E080E090E00BC0823029F424
:101DA0006EE070E080E090E004C06AE170E080E006
:101DB00090E00E94DC0B86EF0E9470074C01A12C82
:101DC000B12CBA2CA92C982C882488EF0E94A0074B
:101DD000882A3090360380914B0390914C03A701E1
:101DE0009601281B390B41095109A0914903B09173
:101DF0004A030E94581A6B017C01AFE0F594E79406
:101E0000D794C794AA95D1F7609143037091440386
:101E1000CB01770FAA0BBB0BBC01CD01BBE0660F5A
:101E2000771F881F991FBA95D1F7209145033091EC
:101E300046038901330F220B330BA90198012C0DA6
:101E40003D1D4E1D5F1D0E94251DC20ED31EE41EAA
:101E5000F51E20EAC21A2FE0D20AE108F108A70114
:101E60009601C701B6010E94261A9B01AC011CE035
:101E700055954795379527951A95D1F729833A8334
:101E80004B835C830091370310913803A0913B038F
:101E9000B0913C03A70196010E94441D2B013C0117
:101EA0008DE075946794579447948A95D1F7A091E3
:101EB0003D03B0913E0329813A814B815C810E94B0
:101EC000441DBB2797FDB095AB2F840D951DA61D16
:101ED000B71D0296A11DB11D32E0B595A795979546
:101EE00087953A95D1F79C01AD0130584F4F5F4F20
:101EF000A0914703B09148030E94581A2B013C015E
:101F00004FE076946794579447944A95D1F788E0C8
:101F100090E083199109A501940104C05695479555
:101F2000379527958A95D2F72D833E834F8358871F
:101F30004801110FAA08BB0852E0880C991CAA1C82
:101F4000BB1C5A95D1F7A0913F03B0914003298162
:101F50003A814B815C810E94441D9B01AC016BE086
:101F600055954795379527956A95D1F729833A83F3
:101F70004B835C83A0913903B0913A03A70196018A
:101F80000E94441DDC01CB017BE0B595A795979598
:101F900087957A95D1F729813A814B815C81820FAF
:101FA000931FA41FB51F880D991DAA1DBB1D032CCF
:101FB00004C0880F991FAA1FBB1F0A94D2F7BC0147
:101FC000CD016E5F7F4F8F4F9F4F24E030E040E0A8
:101FD00050E00E94251D8D819E81AF81B885821BB6
:101FE000930BA40BB50B9C01AD0180E593ECA0E035
:101FF000B0E0BC01CD0104C09695879577956795B3
:102000003A94D2F70E94261A97FD0BC0660F771FED
:10201000881F991FA30192010E94361A69017A0153
:102020000AC0A30192010E94361A69017A01CC0C00
:10203000DD1CEE1CFF1C9927F7FC9A958F2D7E2D39
:102040006D2D9B01AC010E94261A9B01AC01AEEDE7
:10205000BBE00E94581A4C01BB2497FCB094AB2CF7
:10206000A3E4B3EEA70196010E94471DBB2797FD8D
:10207000B095AB2F880D991DAA1DBB1D8153914FA3
:10208000AF4FBF4F44E0B595A795979587954A9573
:10209000D1F7BC01CD016C0D7D1D8E1D9F1D2896B5
:1020A0000FB6F894DEBF0FBECDBFDF91CF911F9169
:1020B0000F91FF90EF90DF90CF90BF90AF909F90E7
:1020C0008F907F906F905F904F903F900895FC01AC
:1020D000848DDF01A80FB11DA35ABF4F2C91848DB1
:1020E00090E001968F739927848FA689B7892C93E6
:1020F000A089B1898C9180648C93938D848D981381
:1021000006C00288F389E02D80818F7D8083089549
:10211000EF92FF920F931F93CF93DF93EC0181E037
:10212000888F9B8D8C8D981305C0E889F9898081F3
:1021300085FD24C0F62E0B8D10E00F5F1F4F0F732F
:102140001127E02E8C8DE8120CC00FB607FCFACFD9
:10215000E889F989808185FFF5CFCE010E9467105B
:10216000F1CF8B8DFE01E80FF11DE35AFF4FF08296
:102170000B8FEA89FB898081806207C0EE89FF8925
:102180006083E889F98980818064808381E090E0C0
:10219000DF91CF911F910F91FF90EF900895CF9312
:1021A000DF93EC01888D8823C9F0EA89FB8980815F
:1021B00085FD05C0A889B9898C9186FD0FC00FB631
:1021C00007FCF5CF808185FFF2CFA889B9898C9172
:1021D00085FFEDCFCE010E946710E7CFDF91CF9151
:1021E0000895EAEAF1E01382128288EE93E0A0E01B
:1021F000B0E084839583A683B78327E031E0318301
:10220000208325EC30E03587248724EC30E03787C5
:10221000268720EC30E0318B208B21EC30E0338BB3
:10222000228B22EC30E0358B248B26EC30E0378B90
:10223000268B118E128E138E148EE7E4F2E0138239
:10224000128284839583A683B78329E131E03183A9
:102250002083E3E5F2E01382128284839583A683D0
:10226000B7838BE291E091838083AAE6B2E08C9100
:102270008E7F8C93128E118E148E138E168E158E69
:1022800012A211A210920A0310920B0310920C03D7
:1022900010920D031092080310928702109286028A
:1022A000109209038EEE9AE09093350380933403E5
:1022B000EEE7F2E082E390E0A0E0B0E0808391837B
:1022C000A283B3831482158216821782E6E7F2E0B6
:1022D00080E590E0A0E0B0E080839183A283B383A7
:1022E00014821582168217820895CF93DF93CDB79B
:1022F000DEB7C854D1090FB6F894DEBF0FBECDBF0C
:10230000789484B5826084BD84B5816084BD85B5D0
:10231000826085BD85B5816085BD80916E008160DC
:1023200080936E0010928100809181008260809382
:102330008100809181008160809381008091800084
:102340008160809380008091B10084608093B100AF
:102350008091B00081608093B00080917A008460A9
:1023600080937A0080917A00826080937A008091D5
:102370007A008E7F80937A0080917A0080688093C3
:102380007A001092C10061E08DE00E94D00961E006
:102390008DE00E94840961E083E00E94D00960E042
:1023A00083E00E948409809151039091520390939D
:1023B00002018093010163EB71E081EC91E00E94E6
:1023C000560889EA91E090938902809388021092DE
:1023D000A9021092A8021092E9021092E80210924B
:1023E000C80289E08093C90281E090E0909387025F
:1023F0008093860261E083E00E94840961E083E0CB
:102400000E94D009E3E3EE2EE1E0FE2EF701849175
:10241000809363020FE111E0F801849190E0880F4E
:10242000991F8E5E9E4FFC01259134913093650279
:102430002093640260E083E00E94D00961E083E0C1
:102440000E94840983E080935F02F701E490E092A8
:102450006002F8010491E02FF0E0EE0FFF1FE85F4B
:10246000FE4F85919491909362028093610281E086
:102470008093690287EC90E09093750280937402D8
:1024800022E530E030936D0220936C0225EC30E0C1
:1024900030936F0220936E024FE152E0509371022D
:1024A000409370023093730220937202209168006F
:1024B0002460209368002DE630E03093670220937B
:1024C000660228E0209368020197F1F70E9428082D
:1024D0000E94160880E090E00E94101A90E090930D
:1024E0005403809353038E5F9109029720F4109256
:1024F0005403109253038091530390915403892BFA
:1025000009F050C06EE971E080EA91E00E94C607D0
:10251000803188F490E0FC01EE0FFF1FE851FD4F81
:1025200027E533E031832083880F991FFC01E853AE
:10253000FD4F88E0808364E971E088E991E00E94C2
:10254000C607803188F490E0FC01EE0FFF1FE851D0
:10255000FD4F2FE533E031832083880F991FFC0165
:10256000E853FD4F88E2808367E871E08BE891E0F3
:102570000E94C607803188F490E0FC01EE0FFF1F37
:10258000E851FD4F2FEF34E031832083880F991FEE
:10259000FC01E853FD4F88E4808368E771E08BE736
:1025A00091E04FC06CE671E08FE691E00E94C607B3
:1025B000803188F490E0FC01EE0FFF1FE851FD4FE1
:1025C00027E533E031832083880F991FFC01E8530E
:1025D000FD4F88E0808361E671E086E691E00E942D
:1025E000C607803188F490E0FC01EE0FFF1FE85130
:1025F000FD4F2FE533E031832083880F991FFC01C5
:10260000E853FD4F88E2808363E571E088E591E05F
:102610000E94C607803188F490E0FC01EE0FFF1F96
:10262000E851FD4F2FEF34E031832083880F991F4D
:10263000FC01E853FD4F88E4808364E471E087E4A3
:1026400091E00E94C607803188F490E0FC01EE0F13
:10265000FF1FE851FD4F23E035E031832083880FD1
:10266000991FFC01E853FD4F88E4808383E0809349
:10267000360310923F0110923E0110928801109291
:10268000A9011092860181E080938501109260017A
:1026900061E082E10E94840961E083E10E94840993
:1026A0008091B9008E7F8093B9008091B9008D7FB1
:1026B0008093B90080E28093B80085E48093BC00E9
:1026C00080ED0E94A007853509F04DC08AEA0E947E
:1026D000700790933803809337038CEA0E94700749
:1026E00090933A03809339038EEA0E947007909387
:1026F0003C0380933B0380EB0E9470079093480358
:102700008093470382EB0E94700790934A03809363
:10271000490384EB0E94700790934C0380934B0312
:1027200086EB0E94700790933E0380933D0388EBF5
:102730000E9470079093400380933F038AEB0E94AE
:10274000700790934203809341038CEB0E947007C3
:1027500090934403809343038EEB0E947007909301
:102760004603809345030E94970360E08DE00E943A
:10277000840943E0242E312C0E94970E0E94F31806
:1027800020E836EE45EC57E40E94DF1A21E03EEDEA
:1027900042E45EE30E948C1B9B01AC0160E070E0B0
:1027A00080E89FE30E94721A20E03AE24DE257E48B
:1027B0000E9452190E94511B6DAB7EAB8FAB98AF3C
:1027C00060930705709308058093090590930A05A7
:1027D0000E94E908AC0160E070E080914B039091A9
:1027E0004C039A01AB01281B390B41095109A091F7
:1027F0004903B0914A030E94581A6B017C018FE093
:10280000F594E794D794C7948A95D1F760914303E0
:1028100070914403CB01770FAA0BBB0BBC01CD0118
:102820002BE0660F771F881F991F2A95D1F72091FB
:102830004503309146038901330F220B330BA90165
:1028400098012C0D3D1D4E1D5F1D0E94251DD701B9
:10285000C601820F931FA41FB51F0896A11DB11DAD
:10286000BC01CD0134E095958795779567953A95AC
:10287000D1F70E94F31820E030E040E251E40E94DA
:10288000DF1A20E030E048EC52E40E9452190E9426
:10289000511B609303057093040580930505909385
:1028A00006050E94970E6093FF04709300058093C5
:1028B000010590930205C0907E02D0907F02E090C7
:1028C0008002F0908102A70196016DA97EA98FA9CF
:1028D00098AD0E94261A4B015C0124E630E040E0EE
:1028E00050E02C193D094E095F09609182027091F8
:1028F000830280918402909185020E94261A680DBD
:10290000791D8A1D9B1D24E630E040E050E00E94C6
:10291000251D2093820230938302409384025093BA
:1029200085020E94160C0E94F1186B017C01209117
:10293000820230918302409184025091850229AF36
:102940003AAF4BAF5CAF2093FB043093FC04409351
:10295000FD045093FE04EFE2F4E0A3E6B3E044810B
:102960005581668177814193519361937193149658
:102970004D915D916D917C9117974D935D936D9302
:102980007D9334E0E336F30751F7AAE0B0E029ADD8
:102990003AAD4BAD5CAD0E94581A0E94F31860939B
:1029A0006304709364048093650490936604C092FA
:1029B0009703D0929803E0929903F0929A03809142
:1029C0006F0390917003A0917103B09172032996E7
:1029D0008CAF9DAFAEAFBFAF299700E010E019AA52
:1029E0001AAA1BAA1CAA21961CAE1DAE1EAE1FAEB3
:1029F0002197412C512C320153014201F801ED592C
:102A0000FC4F29962CAD3DAD4EAD5FAD2997648549
:102A10007585868597850E94721A6B017C01F80185
:102A2000E15DFB4F248535854685578525962CAF7E
:102A30003DAF4EAF5FAF25970E9452199B01AC018D
:102A4000C501B4010E94731A4B015C01A7019601F4
:102A5000C301B2010E94731A2B013C0125962CADD3
:102A60003DAD4EAD5FAD259721966CAD7DAD8EAD84
:102A70009FAD21970E94731A21966CAF7DAF8EAFE8
:102A80009FAF2197A7019601C701B6010E94521975
:102A90009B01AC0169A97AA98BA99CA90E94731A10
:102AA00069AB7AAB8BAB9CAB0C5F1F4F0832110547
:102AB00009F0A4CF20E030E040E251E4C501B401C8
:102AC0000E9452196B017C0121962CAD3DAD4EAD9B
:102AD0005FAD2197C301B2010E9452199B01AC0165
:102AE000C701B6010E94721A20E030E04AE754E4C0
:102AF0000E9452196B017C0120E030E040E251E479
:102B000069A97AA98BA99CA90E9452194B015C0161
:102B1000A3019201C301B2010E9452199B01AC01B1
:102B2000C501B4010E94721A9B01AC01C701B60134
:102B30000E94DF1A0E94511B6B017C01809076027B
:102B400090907702A0907802B0907902A50194014C
:102B50000E94261A2B013C0124E630E040E050E0C0
:102B6000281939094A095B0960917A0270917B0240
:102B700080917C0290917D020E94261A640D751D41
:102B8000861D971D24E630E040E050E00E94251DA0
:102B900020937A0230937B0240937C0250937D0213
:102BA000C0925F03D0926003E0926103F0926203EF
:102BB00080915B0390915C03A0915D03B0915E03F3
:102BC00029AD3AAD4BAD5CAD281B390B4A0B5B0B05
:102BD00020935703309358034093590350935A035B
:102BE00080915503909156038431910569F42DA984
:102BF0003EA94FA958AD20935B0330935C034093EB
:102C00005D0350935E0303C088329105ACF40196D6
:102C100090935603809355031092570310925803D4
:102C20001092590310925A0310925F03109260039E
:102C300010926103109262038091530390915403A8
:102C4000019709F06EC0609157037091580380910D
:102C5000590390915A030E94F3182FEB3EE04CE980
:102C60005EE30E94DF1A0E94511B6093570370932A
:102C700058038093590390935A0360915F037091B6
:102C8000600380916103909162030E94F3182FEB1F
:102C90003EE04CE95EE30E94DF1A0E94511B609304
:102CA0005F0370936003809361039093620360916C
:102CB000FF047091000580910105909102050E942A
:102CC000F3182DED38EE41EF5CE30E9452190E949B
:102CD000511B6093FF04709300058093010590934E
:102CE000020560910305709104058091050590919E
:102CF00006050E94F31826E636E646EE5FE30E94DC
:102D0000521920E030E040E052E40E94731A0E9421
:102D1000511B609303057093040580930505909300
:102D2000060580915103909152038530910521F061
:102D30001092500310924F03209101013091020133
:102D40002817390721F09093020180930101823006
:102D5000910509F488C02CF40097A9F00197D1F0EF
:102D60000FC18330910509F4E7C0049709F008C149
:102D700019A2198A60EE71E0CE0181960E94A31813
:102D800061ED71E0F2C066E472E084E592E00E94D9
:102D90005608F6C019A2198A6EE372E0CE01819638
:102DA0000E94A31819826091570370915803809173
:102DB000590390915A030E94F31820E030E040E25A
:102DC00051E40E94DF1AAB01BC0121E030E0CE01EA
:102DD00001960E941702BE016F5F7F4FCE01819660
:102DE0000E946B1D8091530390915403019719F435
:102DF0006BE372E002C069E372E0CE0181960E944B
:102E0000A31861E372E0CE0141960E94A3181982D3
:102E100060915F0370916003809161039091620300
:102E20000E94F31820E030E040E251E40E94DF1AF3
:102E3000AB01BC0121E030E0CE0101960E941702F7
:102E4000BE016F5F7F4FCE0141960E946B1D809146
:102E5000530390915403019719F46CE272E085C01A
:102E600068E272E082C019A2198A61E272E0CE01C2
:102E700081960E94A3181982609103057091040540
:102E800080910505909106050E94F31820E030E03E
:102E900048EC52E40E94DF1AAB01BC0122E030E0B2
:102EA000CE0101960E941702BE016F5F7F4FCE01D7
:102EB00081960E946B1D809153039091540301975A
:102EC00019F46EE172E002C06BE172E0CE0181960E
:102ED0000E94A31864E172E0CE0141960E94A318FB
:102EE00019826091FF047091000580910105909115
:102EF00002050E94F31820E030E048EC52E40E9402
:102F0000DF1AAB01BC0122E030E0CE0101960E9445
:102F10001702BE016F5F7F4FCE0141960E946B1D6D
:102F20008091530390915403019719F46FE072E07C
:102F30001CC06BE072E019C019A2198A62E072E04D
:102F4000CE0181960E94A31880915303909154035F
:102F5000019719F46FEF71E002C06CEF71E0CE01E0
:102F600081960E94A31861EF71E0CE0141960E9404
:102F7000A318BE016F5E7F4FCE0181960E948C0820
:102F800083E592E00E943A0E0E9416080E94970381
:102F900060E080915F020E94D00961E080915F0251
:102FA0000E9484090E9428080E9428080E94160C8A
:102FB0006B017C0134E6C30ED11CE11CF11C00E066
:102FC00010E00E94160C6C157D058E059F0588F596
:102FD00083E592E00E94140B1816190694F783E516
:102FE00092E00E94140B1816190614F010E01AC093
:102FF00083E592E00E942B0B182F80912F03811301
:103000007BC080900A0390900B03A0900C03B090BB
:103010000D030E94160C86169706A806B90608F43A
:103020006BC0E4CF812F90E0009709F07DC08C0148
:10303000C8CFC801003F110509F45BC0009709F42F
:1030400058C08039910509F445C024F480379105B2
:10305000C9F04FC0803B910509F1803E910509F010
:1030600048C080915103909152038530910509F435
:1030700040C001968530910561F410925203109280
:10308000510337C08091510390915203009789F109
:10309000019790935203809351032BC08091510369
:1030A00090915203039729F5809153039091540313
:1030B000892B39F481E090E090935403809353037B
:1030C00004C0109254031092530330925203209282
:1030D00051030FC08091510390915203049749F41A
:1030E0006091530380E090E00E94181AE0E0F0E065
:1030F00009950E948D0E40CB0E94160CDC01CB017D
:1031000080579E4FAF4FBF4F80930A0390930B039E
:10311000A0930C03B0930D0310932F03103F09F0FD
:1031200081CF80EF90E083CF803F910509F089CF78
:10313000E0CF8BE291E0909354028093530283E5B9
:1031400092E00C943A0EFB01DC010D900020E9F7AF
:10315000119705900D920020E1F70895FC0105906C
:103160000020E9F7809590958E0F9F1F0895BB274B
:103170004A3031F4992322F4BDE2909581959F4F16
:103180000C94C318BB27FB015527AA27880F991F4A
:10319000AA1FA41710F0A41B83955051B9F7A05D86
:1031A000AA3308F0A95DA193009779F7B111B19303
:1031B0001192CB010C94DC18DC01FC01672F71919A
:1031C0007723E1F7329704C07C916D93708362910D
:1031D000AE17BF07C8F308950E942E1908F481E0C6
:1031E0000895E89409C097FB3EF4909580957095FA
:1031F00061957F4F8F4F9F4F9923A9F0F92F96E943
:10320000BB279395F695879577956795B795F111B7
:10321000F8CFFAF4BB0F11F460FF1BC06F5F7F4F54
:103220008F4F9F4F16C0882311F096E911C0772366
:1032300021F09EE8872F762F05C0662371F096E86F
:10324000862F70E060E02AF09A95660F771F881F3E
:10325000DAF7880F9695879597F90895990F0008E2
:10326000550FAA0BE0E8FEEF16161706E807F90758
:10327000C0F012161306E407F50798F0621B730BF3
:10328000840B950B39F40A2661F0232B242B252B74
:1032900021F408950A2609F4A140A6958FEF811D17
:1032A000811D08950E9465190C94D6190E94C819B1
:1032B00038F00E94CF1920F0952311F00C94BF191B
:1032C0000C94C51911240C940A1A0E94E71970F382
:1032D000959FC1F3950F50E0551F629FF001729FBB
:1032E000BB27F00DB11D639FAA27F00DB11DAA1FCA
:1032F000649F6627B00DA11D661F829F2227B00D17
:10330000A11D621F739FB00DA11D621F839FA00DA1
:10331000611D221F749F3327A00D611D231F849FF1
:10332000600D211D822F762F6A2F11249F57504048
:103330009AF0F1F088234AF0EE0FFF1FBB1F661FC3
:10334000771F881F91505040A9F79E3F510580F08C
:103350000C94BF190C940A1A5F3FE4F3983ED4F31F
:10336000869577956795B795F795E7959F5FC1F730
:10337000FE2B880F911D9695879597F9089597F9DB
:103380009F6780E870E060E008959FEF80EC08950B
:1033900000240A9416161706180609060895002434
:1033A0000A9412161306140605060895092E0394AE
:1033B000000C11F4882352F0BB0F40F4BF2B11F422
:1033C00060FF04C06F5F7F4F8F4F9F4F089557FD81
:1033D0009058440F551F59F05F3F71F04795880F83
:1033E00097FB991F61F09F3F79F08795089512161A
:1033F00013061406551FF2CF4695F1DF08C01616C6
:1034000017061806991FF1CF869571056105089476
:103410000895E894BB2766277727CB0197F908958D
:10342000F999FECF92BD81BDF89A992780B508958C
:10343000262FF999FECF1FBA92BD81BD20BD0FB6D0
:10344000F894FA9AF99A0FBE01960895DB018F93CA
:103450009F930E94581ABF91AF91A29F800D911D1A
:10346000A39F900DB29F900D11240895A1E21A2EF2
:10347000AA1BBB1BFD010DC0AA1FBB1FEE1FFF1F18
:10348000A217B307E407F50720F0A21BB30BE40B68
:10349000F50B661F771F881F991F1A9469F76095AF
:1034A0007095809590959B01AC01BD01CF01089569
:1034B0000E94631AA59F900DB49F900DA49F800D4C
:1034C000911D11240895A29FB001B39FC001A39F35
:1034D000700D811D1124911DB29F700D811D11244D
:1034E000911D08955058BB27AA270E948A1A0C9450
:1034F000D6190E94C81938F00E94CF1920F039F46B
:103500009F3F19F426F40C94C5190EF4E095E7FBDF
:103510000C94BF19E92F0E94E71958F3BA176207F4
:1035200073078407950720F079F4A6F50C94091A1F
:103530000EF4E0950B2EBA2FA02D0B01B9019001CE
:103540000C01CA01A0011124FF27591B99F0593F12
:1035500050F4503E68F11A16F040A22F232F342F5A
:103560004427585FF3CF469537952795A795F040A8
:103570005395C9F77EF41F16BA0B620B730B840BBD
:10358000BAF09150A1F0FF0FBB1F661F771F881F75
:10359000C2F70EC0BA0F621F731F841F48F48795CD
:1035A00077956795B795F7959E3F08F0B0CF9395BF
:1035B000880F08F09927EE0F9795879508950E9438
:1035C000F31A0C94D6190E94CF1958F00E94C8190A
:1035D00040F029F45F3F29F00C94BF1951110C946D
:1035E0000A1A0C94C5190E94E71968F39923B1F3DC
:1035F000552391F3951B550BBB27AA276217730719
:10360000840738F09F5F5F4F220F331F441FAA1FAC
:10361000A9F335D00E2E3AF0E0E832D09150504068
:10362000E695001CCAF72BD0FE2F29D0660F771F16
:10363000881FBB1F261737074807AB07B0E809F0FC
:10364000BB0B802DBF01FF2793585F4F3AF09E3F81
:10365000510578F00C94BF190C940A1A5F3FE4F3FB
:10366000983ED4F3869577956795B795F7959F5FC4
:10367000C9F7880F911D9695879597F90895E1E010
:10368000660F771F881FBB1F621773078407BA076F
:1036900020F0621B730B840BBA0BEE1F88F7E095CA
:1036A00008950E94581B6894B1110C940A1A089549
:1036B0000E94EF1988F09F5798F0B92F9927B751BA
:1036C000B0F0E1F0660F771F881F991F1AF0BA95C6
:1036D000C9F714C0B13091F00E94091AB1E0089501
:1036E0000C94091A672F782F8827B85F39F0B93FF3
:1036F000CCF3869577956795B395D9F73EF4909579
:103700008095709561957F4F8F4F9F4F08950E94D0
:103710002E1908F48FEF0895FA01EE0FFF1F30966F
:1037200021053105A1F16115710561F48038BFE310
:103730009B0749F168949038810561F08038BFEFAC
:103740009B0741F099234AF5FF3FE105310521052B
:1037500019F1E8940894E795D901AA2329F4AB2F2D
:10376000BE2FF85FD0F310C0FF5F70F4A695E0F7AE
:10377000F73950F019F0FF3A38F49F779F930DD046
:103780000F9007FC9058089546F00C94C51960E01E
:1037900070E080E89FE308954FE79F775F934F9332
:1037A0003F932F930E94871C2F913F914F915F91E0
:1037B0000E9452190C94E41B29F416F00C94BF19C2
:1037C0000C94091A0C94C5190E94EF19A8F39638A5
:1037D000A0F707F80F92E8942BE33AEA48EB5FE78B
:1037E0000E9468190F920F920F924DB75EB70F9219
:1037F0000E94CF1CE8E6F0E00E94161C4F915F91FA
:10380000EF91FF91E595EE1FFF1F49F0FE57E0682D
:103810004427EE0F441FFA95E1F74195550B0E949E
:10382000491C0F9007FE0C943D1C0895DF93CF9325
:103830001F930F93FF92EF92DF927B018C016894AC
:1038400006C0DA2EEF010E946519FE01E894A591E9
:103850002591359145915591A6F3EF010E948A1A61
:10386000FE019701A801DA9469F7DF90EF90FF90CD
:103870000F911F91CF91DF9108959B01AC0160E002
:1038800070E080E89FE30C94DF1A0C94BF190C944D
:10389000031D0E94EF19D8F39923C9F3940F511D0A
:1038A000A3F39150504094F059F0882332F0660F02
:1038B000771F881F91505040C1F79E3F51052CF74C
:1038C000880F911D9695879597F908955F3FACF005
:1038D000983E9CF0BB27869577956795B79508F439
:1038E000B1609395C1F7BB0F58F711F460FFE8CFB3
:1038F0006F5F7F4F8F4F9F4FE3CF0C940A1A16F0E4
:103900000C94031D0C94C51968940C94BF190E9463
:10391000EF19A8F39923C1F3AEF3DF93CF931F936D
:103920000F93FF92C92FDD2788232AF02197660F76
:10393000771F881FDAF720E030E040E85FEB9FE375
:10394000883920F0803E38F021968F770E94731AD4
:10395000E0E9F0E004C00E94731AEDEBF0E00E9491
:10396000161C8B01BE01EC01FB2E6F57710975957A
:10397000771F880B990B0E94F31828E132E741E387
:103980005FE30E946519AF2D9801AE01FF900F9182
:103990001F91CF91DF910E948A1A0C94D619FA01D7
:1039A000DC01AA0FBB1F9B01AC01BF5728F42227E3
:1039B00033274427507820C0B75190F4AB2F002410
:1039C000469537952795011CA395D2F3002071F0F9
:1039D000220F331F441FB395DAF30ED00C94721AE2
:1039E00061307105A0E88A07B94630F49B01AC014B
:1039F0006627772788279078309621F020833183B7
:103A00004283538308959F3F31F0915020F487956E
:103A100077956795B795880F911D9695879597F936
:103A2000089597FB072E16F4009407D077FD09D070
:103A30000E944C1D07FC05D03EF4909581959F4F48
:103A40000895709561957F4F0895052E97FB1EF49C
:103A500000940E943C1D57FD07D00E94361A07FCB7
:103A600003D04EF40C943C1D509540953095219513
:103A70003F4F4F4F5F4F089590958095709561959A
:103A80007F4F8F4F9F4F0895B7FF0C94581A0E9495
:103A9000581A821B930B0895AA1BBB1B51E107C048
:103AA000AA1FBB1FA617B70710F0A61BB70B881FCE
:103AB000991F5A95A9F780959095BC01CD0108955D
:103AC000EE0FFF1F0590F491E02D099481E090E046
:103AD000F8940C94761DFB01DC010D900020E9F7B1
:103AE000119701900D920020E1F7089511E0C3E3D2
:103AF000D1E004C0FE010E94601D2196C433D107AD
:063B0000C9F7F894FFCFA5
:103B0600060100000000008810F508500ECF108155
:103B16000E5F0E730E00000000BF0A8F0A4D0B6386
:103B26000A870A730A640A00000000500BF5084D64
:0A3B36000B130B140B2B0BFB0A0002
:00000001FF
