:100000000C9457010C947F010C947F010C94C90D42
:100010000C94C90D0C94C90D0C947F010C947F01B4
:100020000C947F010C947F010C947F010C947F0150
:100030000C947F010C947F010C947F010C947F0140
:100040000C94450C0C947F010C94450B0C941F0BE5
:100050000C947F010C947F010C947F010C947F0120
:100060000C948F0C0C947F01C616CD16301799177F
:10007000A417BE17C91707634236B79BD8A71A390A
:10008000685618AEBAAB558C1D3CB7CC5763BD6DE6
:10009000EDFD753EF6177231BF000000803F08008D
:1000A0000000BE922449123EABAAAA2ABECDCCCCF7
:1000B0004C3E00000080BEABAAAAAA3E0000000091
:1000C000BF000000803F0000000000084178D3BB63
:1000D0004387D1133D190E3CC3BD4282AD2B3E6810
:1000E000EC8276BED98FE1A93E4C80EFFFBE01C401
:1000F000FF7F3F00000000000000000023002600FA
:10010000290000000000250028002B00040404043E
:1001100004040404020202020202030303030303B1
:10012000010204081020408001020408102001028E
:1001300004081020B0460054656D706572617475D6
:10014000726500696E484700507265737375726519
:100150000066742F7300566172696F006674004107
:100160006C74697475646500B0430054656D7065A6
:1001700072617475726500687061005072657373A6
:10018000757265006D2F7300566172696F006D00A6
:10019000416C7469747564650052435420566172F1
:1001A000696F00202020566172696F6D65746572F9
:1001B0000020524354204A65746920546F6F6C7359
:1001C000005072657373203C20746F2065786974E9
:1001D00000416C746974756465207A65726F65643A
:1001E0000050726573733A205550202620444E000B
:1001F0005361766520616E642072657374617274F8
:10020000004368616E67653A20444E0045550055CD
:100210005300556E6974733A2020005072657373F1
:1002200020444E00416C7469747564652052657396
:1002300065740068506100696E48470050726573CC
:100240003A2000B04300B0460054656D703A20007B
:100250006D2F730066742F7300566172696F3A20B8
:10026000006D00667400416C7469743A20002020AF
:1002700020566172696F6D65746572002052435437
:10028000204A65746920546F6F6C73000000000091
:10029000240027002A0000000008000201000003DB
:1002A000040700000000000000001411D9181124F8
:1002B0001FBECFEFD8E0DEBFCDBF25E0AAE3B1E09F
:1002C00001C01D92AD36B207E1F711E0A0E0B1E048
:1002D000E6E8FBE302C005900D92AA33B107D9F717
:1002E00011E0C6E5D1E004C02197FE010E94841D03
:1002F000C535D107C9F70E9498110C94B61D0C940E
:1003000000002091A90190914D03213208F04AC0CC
:10031000809186018111FCCF32E03093860131E07B
:10032000309385013FEF3093840110928301209335
:100330008201A9E8B1E042E651E0FA013E2F341B08
:10034000321718F43D913193F9CF10926101209149
:100350006101990F922B909361019091600191300E
:1003600061F410926001909161019093BB009091B3
:10037000BC0093FDF8CF95EC01C095EE9093BC00C6
:10038000909186019230E1F3909184019F3F79F042
:1003900080918401803241F080918401803331F07A
:1003A00084E005C081E003C082E001C083E01092D8
:1003B00088011092A9011092870108950F931F934D
:1003C000CF93C82F03E512E0F801608F682FC801B2
:1003D0000E94930AF801108E8C2FCF911F910F91DC
:1003E0000895909186019111FCCF813208F080E24E
:1003F00091E090938601909385012FEF20938401E3
:1004000010928301280F20938201909361019091B3
:1004100061019E6E9093610190916001913061F451
:1004200010926001909161019093BB009091BC008B
:1004300093FDF8CF95EC01C095EE9093BC009091A0
:1004400086019130E1F390918301981710F4809127
:100450008301A2E6B1E020E431E0F9019E2F921B76
:10046000981718F49D919193F9CF10923F018093C2
:100470003E0108952F923F924F925F926F927F922A
:100480008F929F92AF92BF92CF92DF92EF92FF92A4
:100490000F931F93CF93DF93CDB7DEB72A970FB695
:1004A000F894DEBF0FBECDBF8C012A013B013A8715
:1004B000298720E030E0A901C301B2010E942C1974
:1004C00087FF05C060E070E080E09FEB04C060E063
:1004D00070E080E09FE3E12CF12CA985BA85EA1653
:1004E000FB0654F420E030E040E251E40E941F1B80
:1004F0002FEFE21AF20AF1CF9B01AC01C301B20166
:100500000E94B31A6B017C0120E030E0A901C30115
:10051000B2010E942C1987FF04C0F7FAF094F7F893
:10052000F094A12CB12CBDECB983ECECEA83FCEC8B
:10053000FB832DE32C8320E030E040E251E469812D
:100540007A818B819C810E949219962E872E382E5B
:10055000292EA70196010E942C19181644F03FEF8E
:10056000A31AB30A99828A823B822C82E4CFA11417
:10057000B10429F045016FEF861A960A03C092E094
:10058000892E912C20E030E0A901C301B2010E9424
:100590002C1987FF03C07FEF871A970A89859A85F0
:1005A0000196880E991E1814190444F081E090E019
:1005B000DC01A819B909BE83AD8302C01E821D8269
:1005C00020E030E0A901C301B2010E942C1987FF8D
:1005D00007C08DE2F801808388248394912C02C0A7
:1005E000812C912CA114B10449F4F801E80DF91DF6
:1005F00080E3808394012F5F3F4F4901212C312CF0
:10060000B101680D791D78876F832A143B04D1F1FD
:1006100029813A814B815C81C701B6010E941F1B71
:100620000E94911B2B013C016F817885600F711F27
:100630004AE0C2010E94F718B201550C880B990BD1
:100640000E94331929813A814B815C810E94921961
:100650009B01AC01C701B6010E94B21A6B017C017B
:1006600020E030E040E251E469817A818B819C8115
:100670000E941F1B69837A838B839C833FEF231A1D
:10068000330ABECF5B0189859A851816190644F492
:10069000F801E60FF71F8EE28083DB0111965D0102
:1006A000812C912CE985FA858E169F064CF520E069
:1006B00030E040E251E4C701B6010E9492192B01DB
:1006C0003C010E94911B6B017C01B4016A0D7B1DF2
:1006D000600F711F4AE0C6010E94F718B601DD0CD9
:1006E000880B990B0E9433199B01AC01C301B20125
:1006F0000E94B21A6B017C01BFEF8B1A9B0AD2CF0A
:10070000CF01F7FF02C080E090E0A80EB91E2D8156
:100710003E81232B89F09501F801EA0DFB1D40E293
:100720006FEFA61AB60A4193C501821B930BAD81E8
:10073000BE818A179B07A4F3F801EA0DFB1D108206
:10074000C8012A960FB6F894DEBF0FBECDBFDF9169
:10075000CF911F910F91FF90EF90DF90CF90BF90BE
:10076000AF909F908F907F906F905F904F903F9051
:100770002F9008952F923F924F925F926F927F92A7
:100780008F929F92AF92BF92CF92DF92EF92FF92A1
:100790000F931F93CF93DF93C0903003D09031031A
:1007A000E0903203F09033030E94390C209108034B
:1007B0002223E9F060E08EE70E94DE0161E082E939
:1007C0000E94DE0161E083E20E94DE0161E080912F
:1007D00008030E94DE0180910001882311F08150FE
:1007E00003C01092080386E08093000171C324EFD8
:1007F000C20E21E0D21EE11CF11C11E0C616D70684
:10080000E806F90608F010E060E08EE70E94DE01DD
:1008100061E08FE90E94DE01111170C0809109032F
:10082000A0918602B0918702E82FF0E0EE0FFF1F43
:10083000E851FD4F20813181232B49F48F5F282F10
:1008400030E02A173B0784F31092090302C080931B
:10085000090360910903F6E0E0E026E030E0E12CD6
:1008600040E050E070E0CA01860F971F8A179B078F
:10087000A4F5009709F1E394880F991FFC01E85350
:10088000FD4F80818F718830A1F0813019F4C9014A
:10089000039615C0811103C0C901029610C08530AE
:1008A00019F4C90104960BC0893019F0C9010196E9
:1008B00006C0C901059603C0C9012F2F3E2F4F5F07
:1008C0005F4F4031510551F08B31910514F0EA949E
:1008D00004C0F22FE32F9C01C6CFC901C82FC0640A
:1008E00081E080936B026C2F83E592E00E94930A73
:1008F00060E08C2F0E94BD0DC82F1DC0E0914E03FB
:10090000F0E0EE0FFF1FE753FD4F8081C82FCF713E
:10091000829586958770C80FC85F81E080936B02CF
:100920006C2F83E592E00E94930A60E08C2F0E9476
:10093000BD0DC82FE12CD1E0D0936B0261E183E5BE
:1009400092E00E94930A6C2F81E10E94BD0DC82F96
:10095000D0936B0264EA83E592E00E94930A6C2FC5
:1009600084EA0E94BD0DC82FD0936B0262E083E53C
:1009700092E00E94930A6C2F82E00E94BD0DC82F66
:10098000D0936B0268E083E592E00E94930A6C2F9B
:1009900088E00E94BD0DC82FD0936B0260E083E514
:1009A00092E00E94930A10926B026C2F80E00E94EA
:1009B000BD0DF82E1111EBC1C09109036E2C6C0E08
:1009C0008091860290918702C61551F07724739426
:1009D0007C0E709209030C2F10E0081719075CF0C9
:1009E0002091090330E00197281739070CF46CC2F5
:1009F0001092090369C2CC2309F4C7C1E091340302
:100A0000F09135030995C295C07F680131E2C30EAC
:100A1000D11CC601880F991FFC01EA57FD4F5F01E9
:100A200080818F7190E08530910509F4BEC0F4F5A6
:100A3000009709F495C0019709F0A7C1000F111F95
:100A4000F801E851FD4F0190F081E02D0081118106
:100A5000C160D0936B026C2F83E592E00E94930AF1
:100A60006F2D8C2F0E94BD0DC82F1F79F50120819D
:100A700022952695277030E0322F22273295330FAA
:100A8000307E022B132BD0936B02602F83E592E014
:100A90000E94930A6C2F802F0E94BD0D082F912F6A
:100AA0009F79F501C081C07EC92B74C08830910543
:100AB00021F0099709F4C2C068C1C860D0936B02E5
:100AC0006C2F83E592E00E94930A6F2D8C2F0E9479
:100AD000BD0DC82F000F111FF801E851FD4F019007
:100AE000F081E02D80819181A281B3816C017D0133
:100AF000FFE9FF22D0936B026C2D83E592E00E9408
:100B0000930A6C2F8C2D0E94BD0DC82F2D2C3E2CCE
:100B10004F2C552447FC5A94D0936B02622D83E5E9
:100B200092E00E94930A6C2F822D0E94BD0DC82F67
:100B30001701552437FC5094452CD0936B02622D3D
:100B400083E592E00E94930A6C2F822D0E94BD0DD6
:100B5000182F9F2D9F79F501C081C07EC92B62C0DF
:100B6000000F111FF801E851FD4F0190F081E02DB9
:100B70001081D0936B026C2F83E592E00E94930A60
:100B80006F2D8C2F0E94BD0D082F1F79F501C0819C
:100B9000C07EC12BD0936B026C2F83E592E00E9444
:100BA000930A10926B02602F47C0C560D0936B020E
:100BB0006C2F83E592E00E94930A10926B026F2DD6
:100BC0008C2F0E94BD0DF82E000F111FF801E85167
:100BD000FD4F0190F081E02D118102819081F5019E
:100BE0002081229526952770213011F0C0E001C0A8
:100BF000C0E4C92BD0936B02602F83E592E00E9482
:100C0000930A6F2D802F0E94BD0D082FD0936B0289
:100C1000612F83E592E00E94930A602F812F0E944A
:100C2000BD0D182FD0936B026C2F83E592E00E94CC
:100C3000930A10926B02612F8C2FA4C0C960D093CD
:100C40006B026C2F83E592E00E94930A6F2D8C2F2C
:100C50000E94BD0DC82F000F111FF801E851FD4F74
:100C60000190F081E02D80809180A280B38020E00F
:100C700030E0A901C501B4010E94C71B18161CF47D
:100C8000C501B40103C0C501B40190580E94981B6E
:100C90008B0180E090E00E9431199B01AC01C501FD
:100CA000B4010E94B21A2AE939E949E15FE30E94DE
:100CB000921920E030E543EC57E40E9492191B01A1
:100CC0002C0120E030E0A9010E94C71B18161CF47B
:100CD000C201B10103C0C201B10190580E94981B2A
:100CE000562EF72E812F8170F601EE0FFF1FEA5767
:100CF000FD4F9081929596959770913011F090E00C
:100D000001C090E2192F182B20E030E0A901C501A5
:100D1000B4010E942C19881F8827881F8295880F8C
:100D2000880F807C182BD0936B02652D83E592E0B1
:100D30000E94930A6C2F852D0E94BD0DC82FD09361
:100D40006B026F2D83E592E00E94930A6C2F8F2D2A
:100D50000E94BD0DC82FD0936B02602F83E592E0F7
:100D60000E94930A6C2F802F0E94BD0DC82FD09334
:100D70006B02612F83E592E00E94930A10926B024E
:100D80006C2F812F0E94BD0DF82EC72D19CEC0915A
:100D90004E03D0936B026C2F83E592E00E94930A7E
:100DA0006F2D8C2F0E94BD0DB82E0C2F10E0680106
:100DB000CC0CDD1C960127533D4F4901F9012081E0
:100DC000922F9F71F8E09F9F700111242295269524
:100DD0002770E22AD0936B026E2D83E592E00E9489
:100DE000930A10926B026B2D8E2D0E94BD0DF82E72
:100DF000F601E857FD4FD081AD2EB1807724739472
:100E00002A2D2D1B30E0F40180818F7190E028178E
:100E10003907A4F4F501E49070926B026E2D83E51E
:100E200092E00E94930A10926B026F2D8E2D0E9409
:100E3000BD0DF82EFFEFAF1ABF0AE2CF000F111F52
:100E4000D801A855BD4FDC910D2F11961C9196012C
:100E500027533D4F6901BB24B394202F2D1B30E055
:100E6000F601808182958695877090E02817390772
:100E70009CF4F801E490B0926B026E2D83E592E051
:100E80000E94930A10926B026F2D8E2D0E94BD0D51
:100E9000F82E0F5F1F4FE1CFCF5FC0934E038C2F13
:100EA00090E020918602309187028217930714F018
:100EB00010924E030E94390C6093300370933103FB
:100EC000809332039093330361E08F2D0E94DE0103
:100ED000E0913403F0913503099560E08EEF0E94B4
:100EE000DE01CEE0D3E01C2F105E61E089910E940C
:100EF000DE011C13FACF60E08FEF0E94DE0181E07B
:100F0000DF91CF911F910F91FF90EF90DF90CF90E5
:100F1000BF90AF909F908F907F906F905F904F9019
:100F20003F902F900895CF93DF93C1E0C093870146
:100F300097E790934D03109288011092A901682FB2
:100F400087E492E00E94020A0E948101C093870117
:100F5000109288011092A90182E090E00E94F101B4
:100F600087E492E00E94B609D82F80E0C82F87E47A
:100F700092E00E94B609C82BD92B0E948101CE01B4
:100F8000DF91CF910895CF93C1E0C093870197E798
:100F900090934D03109288011092A901682F87E465
:100FA00092E00E94020A0E948101C0938701109280
:100FB00088011092A90181E090E00E94F10187E48C
:100FC00092E00E94B609C82F0E9481018C2FCF9118
:100FD0000895CF92DF92FF920F931F93CF93DF93E9
:100FE000209186023091870220313105CCF56B01CA
:100FF00089010F5F1F4FF801EE0FFF1FEA57FD4FEA
:1010000091838083F901EE0FFF1FE855FD4F718337
:101010006083F901EE0FFF1FE851FD4F118210822E
:10102000220F331FE901C853DD4F18820E94EE18CA
:10103000982F9F718981807EF82EF92AC6010E941F
:10104000EE188295880F807E9F2D9F71F92EF82AC9
:10105000F98210938702009386028FEF800F01C000
:101060008FEFDF91CF911F910F91FF90DF90CF9085
:101070000895CF93DF9383E592E00E945D0EC3E570
:10108000D2E061E08C850E94C30B61E08C85DF912A
:10109000CF910C94770B8091700290917102892B03
:1010A00031F180913C0190913D0122E0833592071E
:1010B000F1F0009711F00E945D0E80916A028E7F20
:1010C00080936A0210923B0110923A0183E592E00C
:1010D00090933D0180933C01E0916602F09167029C
:1010E000908180916802892B808381E0089580E05F
:1010F00008950F931F93CF93DF938C01EB010E9410
:10110000EE18AEE0B3E090E020E2981740F4A801BA
:101110004F5F5F4FF80104910C938A0101C02C933B
:101120009F5F1196903189F7CE010E94EE18AEE1D3
:10113000B3E090E020E2981740F4AE014F5F5F4FBC
:10114000FE01C491CC93EA0101C02C939F5F1196DC
:10115000903189F7DF91CF911F910F910895CF932F
:10116000DF93FC0101900020E9F73197E81B20E0B4
:1011700030E0F0E2A90148575F4F2E1748F4EA012A
:10118000CA57DD4FDC01A20FB31FAC91A88304C086
:10119000DA01AA57BD4FFC932F5F3F4F2031310535
:1011A00049F7FB0101900020E9F73197E61B80E049
:1011B00090E040E29C0128563F4F8E1748F4E90129
:1011C000CA57DD4FDB01A80FB91F5C91588304C0DB
:1011D000D901AA57BD4F4C9301968031910551F723
:1011E000DF91CF910895CF93C82F81E0809387013D
:1011F00087E780934D03109288011092A90164EF54
:1012000087E492E00E94020A6C2F87E492E00E9439
:10121000020ACF910C9481018EE20E94F30865E0EE
:1012200070E080E090E00E94FF0B86EF0C94930743
:10123000CF92DF92EF92FF920F931F93CF93DF93A2
:101240006C017A018B01C0E0D0E0CE15DF0589F09A
:10125000D8016D918D01D601ED91FC910190F08145
:10126000E02DC6010995892B11F47E0102C021965B
:10127000ECCFC701DF91CF911F910F91FF90EF90BD
:10128000DF90CF9008950E94A61D8AEA91E00E9407
:10129000A40E21E0892B09F420E0822F08953FB7A6
:1012A000F8948091690590916A05A0916B05B091C1
:1012B0006C0526B5A89B05C02F3F19F00196A11D0E
:1012C000B11D3FBFBA2FA92F982F8827820F911DDC
:1012D000A11DB11DBC01CD0143E0660F771F881F22
:1012E000991F4A95D1F7089585ED8093BC008091B0
:1012F000BC0084FDFCCF10928601089540913F050B
:10130000262F30E0240F311D21323105DCF42091ED
:1013100086012430C9F4FC0180E090E0861758F47F
:1013200030913F052191DC01A35EBA4FA30FB11D9F
:101330002C930196F3CF80913F05680F60933F0592
:1013400080E0089581E0089582E008950895E09195
:101350003F0180913E01E81730F4F0E0E05CFE4F81
:10136000808190E008958FEF9FEF089590913F0165
:1013700080913E01981750F4E92FF0E0E05CFE4FB9
:10138000208130E09F5F90933F0102C02FEF3FEF3D
:10139000C901089580913E0190E020913F01821B98
:1013A00091090895CF92DF92EF92FF920F931F93CE
:1013B000CF93DF937C01262F972F8A01809187019D
:1013C000882391F0C62FD72F6E01C40ED51ECC15E1
:1013D000DD0571F06991D701ED91FC910190F081EB
:1013E000E02DC7010995F3CF642F822F0E947E095B
:1013F000C801DF91CF911F910F91FF90EF90DF9087
:10140000CF900895CF93DF931F92CDB7DEB7698356
:10141000209187012223D1F02091A901203240F0B0
:1014200021E030E0FC013383228380E090E015C0AE
:1014300080918801E82FF0E0E757FE4F9981908373
:101440008F5F809388018093A90105C061E0CE0180
:1014500001960E947E0981E090E00F90DF91CF918C
:1014600008950895DC015196ED91FC915297908179
:1014700050968C91809589238083089520913C011A
:1014800030913D012817390771F490913A0180910C
:101490003B01981741F0E0913A01F0E0E35FFA4F29
:1014A000808190E008958FEF9FEF08950895209137
:1014B0003C0130913D012817390769F480913B01C7
:1014C00020913A0190E04096821B910960E170E022
:1014D0000E94511D089580E090E0089520913C0104
:1014E00030913D0128173907B9F490913A01809164
:1014F0003B01981789F0E0913A01F0E0E35FFA4F81
:10150000808120913A0130E02F5F3F4F2F703327C9
:1015100020933A0190E008958FEF9FEF089508958A
:1015200080E090E00895CF92DF92EF92FF920F93C8
:101530001F93CF93DF93EC0189A19AA1009729F41F
:1015400021E030E03B832A8371C00FB7F8948F8D80
:1015500098A1892B91F028E030E090E081E0482FBD
:10156000462309F09F5F880F21503109C1F7888D0C
:1015700081119F5F192F109501C010E0F62ECE014A
:101580000E94320A89A19AA10197F1F788E0C82E3A
:10159000D12CEE24E3948E2D8F2139F0E989FA893C
:1015A00090818889892B808303C0CE010E94320AF2
:1015B00089A19AA10197F1F7EE0C81E0C81AD10830
:1015C00051F78E89882389F0888D882339F0E9893D
:1015D000FA8990818889892B808303C0CE010E947B
:1015E000320A89A19AA10197F1F78F8D98A1892BD1
:1015F00081F010FF07C0E989FA8990818889892BD9
:10160000808303C0CE010E94320A8F8D98A101977A
:10161000F1F7E989FA8990818889892B80830FBF46
:101620008D8D9E8D0197F1F781E090E0DF91CF9154
:101630001F910F91FF90EF90DF90CF9008951F9230
:101640000F920FB60F9211242F933F934F935F93F6
:101650006F937F938F939F93AF93BF93EF93FF937A
:101660008AEA91E00E948A10FF91EF91BF91AF91B9
:101670009F918F917F916F915F914F913F912F91AA
:101680000F900FBE0F901F9018951F920F920FB6DC
:101690000F9211242F938F939F93EF93FF93E091D9
:1016A000BA01F091BB018081E091C001F091C101CC
:1016B00082FD12C090818091C3018F5F8F73209152
:1016C000C401821751F0E091C301F0E0E655FE4FEE
:1016D000958F8093C30101C08081FF91EF919F910D
:1016E0008F912F910F900FBE0F901F90189590E043
:1016F000FC01EA56FD4F3491FC01E05EFE4F24915F
:10170000FC01E45FFE4FE491EE2309F43BC0332378
:1017100039F1333091F038F43130A9F0323001F53D
:1017200084B58F7D12C0373091F03830A1F034305D
:10173000B9F4809180008F7D03C0809180008F7705
:10174000809380000DC084B58F7784BD09C08091DF
:10175000B0008F7703C08091B0008F7D8093B00080
:10176000F0E0EE0FFF1FEE5FFE4FA591B4918FB733
:10177000F894EC91611103C020952E2301C02E2B0B
:101780002C938FBF0895CF93DF9390E0FC01E05E30
:10179000FE4F2491FC01E45FFE4F8491882361F1A8
:1017A00090E0880F991FFC01E457FD4FC591D4913B
:1017B000FC01EE5FFE4FA591B491611109C09FB786
:1017C000F8948881209582238883EC912E230BC086
:1017D000623061F49FB7F8943881822F809583231B
:1017E0008883EC912E2B2C939FBF06C08FB7F89463
:1017F000E8812E2B28838FBFDF91CF9108958F92A0
:101800009F92AF92BF92CF92DF92EF92FF926B01C5
:101810007C010E944F094B015C01C114D104E10419
:10182000F104F1F00E944F09DC01CB0188199909FC
:10183000AA09BB09883E9340A105B10570F321E0D8
:10184000C21AD108E108F10888EE880E83E0981EDC
:10185000A11CB11CC114D104E104F10419F7DDCFBE
:10186000FF90EF90DF90CF90BF90AF909F908F90C0
:1018700008952FB7F8946091650570916605809181
:101880006705909168052FBF08951F920F920FB6BC
:101890000F9211242F933F938F939F93AF93BF93F6
:1018A0008091650590916605A0916705B0916805E6
:1018B0003091640526E0230F2D3720F40296A11DF8
:1018C000B11D05C029E8230F0396A11DB11D20936A
:1018D00064058093650590936605A0936705B093B2
:1018E00068058091690590916A05A0916B05B0919A
:1018F0006C050196A11DB11D8093690590936A0541
:10190000A0936B05B0936C05BF91AF919F918F91A0
:101910003F912F910F900FBE0F901F9018951F921F
:101920000F920FB60F9211242F933F934F935F9313
:101930006F937F938F939F93AF93BF93EF93FF9397
:101940008091B900887F803609F49CC068F58832A0
:1019500009F45BC090F4803109F454C038F4882352
:1019600009F4F6C0883009F44DC0F6C0883109F496
:101970004CC0803209F45DC0EFC0803409F468C007
:1019800048F4803309F455C0883309F0E5C08093EA
:101990008401D8C0803509F44FC0883509F45DC092
:1019A000883409F0D9C0D6C0883909F4C7C0A8F472
:1019B000883709F467C038F4883609F463C0803783
:1019C00009F460C0C9C0883809F4B8C0803909F486
:1019D0005FC0803809F0C0C05BC0803B09F486C09E
:1019E00038F4803A09F466C0883A09F47FC0B4C07C
:1019F000803C09F4A7C0883C09F4A4C0883B09F4E2
:101A00008AC0AAC08091610110C090918301809129
:101A10008201981770F5E091830181E08E0F809329
:101A20008301F0E0EE59FE4F80818093BB0085EC8E
:101A300086C0809384018EC0E091830181E08E0F87
:101A4000809383018091BB00F0E0EE59FE4F8083CC
:101A500090918301809182016EC0E091830181E0C9
:101A60008E0F809383018091BB00F0E0EE59FE4F12
:101A700080838091850181116DC081E08093600138
:101A800084EA61C083E08093860110926305CFCF22
:101A900080916305803208F051C0E091630581E0D8
:101AA0008E0F809363058091BB00F0E0ED5BFA4FF1
:101AB0008083BDCF85EC8093BC001092860180911D
:101AC0006305803230F4E0916305F0E0ED5BFA4F9E
:101AD00010826091630570E0E0914105F09142054C
:101AE00083E495E009951092630536C084E0809305
:101AF00086011092400510923F05E0913D05F0915E
:101B00003E05099580913F05811105C081E08093D4
:101B10003F0510921D05E091400581E08E0F8093F6
:101B20004005F0E0E35EFA4F80818093BB00909126
:101B3000400580913F05981708F479CF85E8809398
:101B4000BC000AC085EC8093BC001092860104C0E2
:101B5000109284010E947409FF91EF91BF91AF919F
:101B60009F918F917F916F915F914F913F912F91B5
:101B70000F900FBE0F901F901895862798E027E0D2
:101B800087FF03C0880F822701C0880F9150C1F7DB
:101B900008951F920F920FB60F9211242F933F9327
:101BA0004F935F936F937F938F939F93AF93BF9365
:101BB000CF93DF93EF93FF93E0913C01F0913D01D0
:101BC000309709F467C0C685D7858881258582232B
:101BD00009F060C0818D928D0197F1F7438D548D8E
:101BE00068E070E030E081E0DA011197F1F7988168
:101BF000922311F0382B03C0982F90953923880F2A
:101C00006150710989F780913B0190E001968F70D6
:101C1000992760913A01681749F0A0913B01B0E023
:101C2000A35FBA4F3C9380933B0103C087898160D7
:101C3000878B86898823F1F0CA010197F1F78881A3
:101C4000282381E090E0A0E0B0E004C0880F991F55
:101C5000AA1FBB1F2A95D2F740910B0550910C0586
:101C600060E070E0842B952BA62BB72B90930C058E
:101C700080930B05878D90A1009711F00197F1F7E4
:101C8000858D968D0197F1F7A389B4899C918589FB
:101C9000892B8C93FF91EF91DF91CF91BF91AF9101
:101CA0009F918F917F916F915F914F913F912F9174
:101CB0000F900FBE0F901F901895E0913C01F0918E
:101CC0003D01E817F90769F4A389B4899C918589D6
:101CD000809589238C9310923D0110923C0181E004
:101CE000089580E00895FC01538D448D252F30E048
:101CF000842F90E0821B930B541710F0CF96089519
:101D000001970895FC01918D828D981761F0828D65
:101D1000DF01A80FB11D5D968C91928D9F5F9F731F
:101D2000928F90E008958FEF9FEF0895FC01918DC1
:101D3000828D981731F0828DE80FF11D858D90E02E
:101D400008958FEF9FEF0895FC01918D228D892FCB
:101D500090E0805C9F4F821B91098F7399270895B3
:101D600080E090E0892B29F00E94450981110C94B4
:101D7000000008953F924F925F926F927F928F92F0
:101D80009F92AF92BF92CF92DF92EF92FF920F930A
:101D90001F93CF93DF93CDB7DEB728970FB6F89494
:101DA000DEBF0FBECDBF0E940C096C01E12CF12CEF
:101DB000809136038295880F880F807C8C5C0E940E
:101DC000F30880913603811105C065E070E080E082
:101DD00090E012C0813029F468E070E080E090E08B
:101DE0000BC0823029F46EE070E080E090E004C027
:101DF0006AE170E080E090E00E94FF0B86EF0E94B5
:101E000093074C01A12CB12CBA2CA92C982C882416
:101E100088EF0E94C307882A3090360380914B03D5
:101E200090914C03A7019601281B390B41095109D8
:101E3000A0914903B0914A030E94981A6B017C015A
:101E4000AFE0F594E794D794C794AA95D1F7609141
:101E5000430370914403CB01770FAA0BBB0BBC016A
:101E6000CD01BBE0660F771F881F991FBA95D1F788
:101E700020914503309146038901330F220B330B28
:101E8000A90198012C0D3D1D4E1D5F1D0E94651D71
:101E9000C20ED31EE41EF51E20EAC21A2FE0D20A9B
:101EA000E108F108A7019601C701B6010E94661A70
:101EB0009B01AC011CE055954795379527951A95E0
:101EC000D1F729833A834B835C83009137031091C8
:101ED0003803A0913B03B0913C03A70196010E94F7
:101EE0008A1D2B013C018DE07594679457944794AB
:101EF0008A95D1F7A0913D03B0913E0329813A81A3
:101F00004B815C810E948A1DBB2797FDB095AB2F4A
:101F1000840D951DA61DB71D0296A11DB11D32E0B1
:101F2000B595A795979587953A95D1F79C01AD0101
:101F300030584F4F5F4FA0914703B09148030E9424
:101F4000981A2B013C014FE076946794579447947C
:101F50004A95D1F788E090E083199109A501940191
:101F600004C056954795379527958A95D2F72D83C6
:101F70003E834F8358874801110FAA08BB0852E0DF
:101F8000880C991CAA1CBB1C5A95D1F7A0913F0341
:101F9000B091400329813A814B815C810E948A1D66
:101FA0009B01AC016BE055954795379527956A9550
:101FB000D1F729833A834B835C83A0913903B09195
:101FC0003A03A70196010E948A1DDC01CB017BE048
:101FD000B595A795979587957A95D1F729813A81F7
:101FE0004B815C81820F931FA41FB51F880D991D23
:101FF000AA1DBB1D032C04C0880F991FAA1FBB1F5D
:102000000A94D2F7BC01CD016E5F7F4F8F4F9F4F77
:1020100024E030E040E050E00E94651D8D819E810B
:10202000AF81B885821B930BA40BB50B9C01AD014E
:1020300080E593ECA0E0B0E0BC01CD0104C0969532
:102040008795779567953A94D2F70E94661A97FD1F
:102050000BC0660F771F881F991FA30192010E9472
:10206000761A69017A010AC0A30192010E94761AC8
:1020700069017A01CC0CDD1CEE1CFF1C9927F7FCD2
:102080009A958F2D7E2D6D2D9B01AC010E94661AB5
:102090009B01AC01AEEDBBE00E94981A4C01BB2441
:1020A00097FCB094AB2CA3E4B3EEA70196010E9479
:1020B0008D1DBB2797FDB095AB2F880D991DAA1DCF
:1020C000BB1D8153914FAF4FBF4F44E0B595A795CE
:1020D000979587954A95D1F7BC01CD016C0D7D1D73
:1020E0008E1D9F1D28960FB6F894DEBF0FBECDBF84
:1020F000DF91CF911F910F91FF90EF90DF90CF90E4
:10210000BF90AF909F908F907F906F905F904F9017
:102110003F900895FC01848DDF01A80FB11DA35AE3
:10212000BF4F2C91848D90E001968F739927848FF7
:10213000A689B7892C93A089B1898C9180648C93EE
:10214000938D848D981306C00288F389E02D8081D9
:102150008F7D80830895EF92FF920F931F93CF930B
:10216000DF93EC0181E0888F9B8D8C8D981305C0E7
:10217000E889F989808185FD24C0F62E0B8D10E059
:102180000F5F1F4F0F731127E02E8C8DE8120CC0CC
:102190000FB607FCFACFE889F989808185FFF5CF72
:1021A000CE010E948A10F1CF8B8DFE01E80FF11D48
:1021B000E35AFF4FF0820B8FEA89FB8980818062AE
:1021C00007C0EE89FF896083E889F989808180648E
:1021D000808381E090E0DF91CF911F910F91FF907C
:1021E000EF900895CF93DF93EC01888D8823C9F099
:1021F000EA89FB89808185FD05C0A889B9898C9110
:1022000086FD0FC00FB607FCF5CF808185FFF2CFAA
:10221000A889B9898C9185FFEDCFCE010E948A10E3
:10222000E7CFDF91CF910895EAEAF1E013821282BD
:1022300088EE93E0A0E0B0E084839583A683B78323
:1022400027E031E03183208325EC30E03587248797
:1022500024EC30E03787268720EC30E0318B208B70
:1022600021EC30E0338B228B22EC30E0358B248B59
:1022700026EC30E0378B268B118E128E138E148E47
:10228000E7E4F2E01382128284839583A683B78306
:1022900029E131E031832083E3E5F2E01382128209
:1022A00084839583A683B7838BE291E091838083B7
:1022B000AAE6B2E08C918E7F8C93128E118E148ED2
:1022C000138E168E158E12A211A210920A0310926E
:1022D0000B0310920C0310920D031092080310923E
:1022E0008702109286021092090381E39AE090938C
:1022F000350380933403EEE7F2E082E390E0A0E060
:10230000B0E080839183A283B38314821582168206
:102310001782E6E7F2E080E590E0A0E0B0E080839D
:102320009183A283B3831482158216821782089543
:10233000CF93DF93CDB7DEB7C454D1090FB6F8946D
:10234000DEBF0FBECDBF789484B5826084BD84B5F6
:10235000816084BD85B5826085BD85B5816085BDA0
:1023600080916E00816080936E0010928100809158
:1023700081008260809381008091810081608093E0
:102380008100809180008160809380008091B10005
:1023900084608093B1008091B00081608093B00030
:1023A00080917A00846080937A0080917A008260C4
:1023B00080937A0080917A008E7F80937A0080915A
:1023C0007A00806880937A001092C10061E08DE00D
:1023D0000E94C30B61E08DE00E94770B61E083E017
:1023E0000E94C30B60E083E00E94770B8091510351
:1023F00090915203909302018093010163EA71E08E
:1024000081EB91E00E94790889E991E0909389023B
:10241000809388021092A9021092A8021092E902F9
:102420001092E8021092C80289E08093C90281E00C
:1024300090E0909387028093860261E083E00E949F
:10244000770B61E083E00E94C30BE3E2EE2EE1E054
:10245000FE2EF7018491809363020FE011E0F801F2
:10246000849190E0880F991F8E5F9E4FFC0125910B
:102470003491309365022093640260E083E00E940F
:10248000C30B61E083E00E94770B83E080935F02DF
:10249000F701E490E0926002F8010491E02FF0E08F
:1024A000EE0FFF1FE850FF4F8591949190936202C9
:1024B0008093610281E08093690287EC90E09093C1
:1024C00075028093740222E530E030936D02209310
:1024D0006C0225EC30E030936F0220936E024FE1E6
:1024E00052E0509371024093700230937302209334
:1024F0007202209168002460209368002DE630E08D
:10250000309367022093660228E0209368020197C7
:10251000F1F70E944B080E94390880E090E00E9489
:10252000501A90E090935403809353038E5F910967
:10253000029720F410925403109253038091530396
:1025400090915403892B09F050C06EE871E080E946
:1025500091E00E94E907803188F490E0FC01EE0FE1
:10256000FF1FE851FD4F27E533E031832083880FBB
:10257000991FFC01E853FD4F88E0808364E871E017
:1025800088E891E00E94E907803188F490E0FC013E
:10259000EE0FFF1FE851FD4F2FE533E0318320831D
:1025A000880F991FFC01E853FD4F88E2808367E79D
:1025B00071E08BE791E00E94E907803188F490E0B8
:1025C000FC01EE0FFF1FE851FD4F2FEF34E0318388
:1025D0002083880F991FFC01E853FD4F88E4808316
:1025E00068E671E08BE691E04FC06CE571E08FE545
:1025F00091E00E94E907803188F490E0FC01EE0F41
:10260000FF1FE851FD4F27E533E031832083880F1A
:10261000991FFC01E853FD4F88E0808361E571E07C
:1026200086E591E00E94E907803188F490E0FC01A2
:10263000EE0FFF1FE851FD4F2FE533E0318320837C
:10264000880F991FFC01E853FD4F88E2808363E403
:1026500071E088E491E00E94E907803188F490E01D
:10266000FC01EE0FFF1FE851FD4F2FEF34E03183E7
:102670002083880F991FFC01E853FD4F88E4808375
:1026800064E371E087E391E00E94E907803188F418
:1026900090E0FC01EE0FFF1FE851FD4F23E035E015
:1026A00031832083880F991FFC01E853FD4F88E494
:1026B000808383E08093360310923F0110923E01A5
:1026C000109288011092A9011092860181E08093F6
:1026D00085011092600161E082E10E94770B61E068
:1026E00083E10E94770B8091B9008E7F8093B900BF
:1026F0008091B9008D7F8093B90080E28093B8000B
:1027000085E48093BC0080ED0E94C307853509F005
:102710004DC08AEA0E949307909338038093370351
:102720008CEA0E94930790933A03809339038EEAD0
:102730000E94930790933C0380933B0380EB0E949D
:102740009307909348038093470382EB0E9493077B
:1027500090934A038093490384EB0E9493079093DC
:102760004C0380934B0386EB0E94930790933E03A8
:1027700080933D0388EB0E949307909340038093DE
:102780003F038AEB0E949307909342038093410397
:102790008CEB0E94930790934403809343038EEB4A
:1027A0000E94930790934603809345030E94BA03C7
:1027B00060E08DE00E94770B46E0242E312C0E94D1
:1027C000BA0E0E94331920E836EE45EC57E40E9419
:1027D0001F1B21E03EED42E45EE30E94CC1B9B0107
:1027E000AC0160E070E080E89FE30E94B21A20E054
:1027F0003AE24DE257E40E9492190E94911B6B014C
:102800007C016093070570930805809309059093F8
:102810000A050E940C09AC0160E070E080914B0356
:1028200090914C039A01AB01281B390B41095109C6
:10283000A0914903B0914A030E94981A4B015C0190
:102840008FE0B594A794979487948A95D1F7609177
:10285000430370914403CB01770FAA0BBB0BBC0160
:10286000CD012BE0660F771F881F991F2A95D1F79E
:1028700020914503309146038901330F220B330B1E
:10288000A9019801280D391D4A1D5B1D0E94651D77
:10289000D501C401820F931FA41FB51F0896A11D67
:1028A000B11DBC01CD0134E095958795779567956D
:1028B0003A95D1F70E94331920E030E040E251E42C
:1028C0000E941F1B20E030E048EC52E40E94921965
:1028D0000E94911B60930305709304058093050586
:1028E000909306050E94BA0E6093FF047093000552
:1028F000809301059093020580907E0290907F0264
:10290000A0908002B0908102A5019401C701B60198
:102910000E94661A6B017C0124E630E040E050E042
:10292000281939094A095B09609182027091830272
:1029300080918402909185020E94661A6C0D7D1D23
:102940008E1D9F1D24E630E040E050E00E94651D92
:102950002093820230938302409384025093850235
:102960000E94390C0E9431196B017C012091820276
:1029700030918302409184025091850229AB3AAB99
:102980004BAB5CAB2093FB043093FC044093FD0401
:102990005093FE04EFE2F4E0A3E6B3E044815581F6
:1029A00066817781419351936193719314964D9110
:1029B0005D916D917C9117974D935D936D937D9390
:1029C00034E0E336F30751F7AAE0B0E029A93AA9C9
:1029D0004BA95CA90E94981A0E9433196093630462
:1029E000709364048093650490936604C092970387
:1029F000D0929803E0929903F0929A0380916F032A
:102A000090917003A0917103B091720325968CAFE1
:102A10009DAFAEAFBFAF259700E010E0412C512C29
:102A2000320149AE5AAE6BAE7CAE730162014DAA63
:102A30005EAA6FAA78AEF801ED59FC4F25962CAD31
:102A40003DAD4EAD5FAD25976485758586859785CF
:102A50000E94B21A4B015C01F801E15DFB4F248535
:102A600035854685578521962CAF3DAF4EAF5FAF7C
:102A700021970E9492199B01AC016DA97EA98FA993
:102A800098AD0E94B31A6DAB7EAB8FAB98AFA5012A
:102A90009401C701B6010E94B31A6B017C01219613
:102AA0002CAD3DAD4EAD5FAD219769AD7AAD8BAD2F
:102AB0009CAD0E94B31A69AF7AAF8BAF9CAFA501F2
:102AC0009401C501B4010E9492199B01AC01C3019C
:102AD000B2010E94B31A2B013C010C5F1F4F083258
:102AE000110509F0A8CF20E030E040E251E46DA9E3
:102AF0007EA98FA998AD0E9492194B015C0129AD66
:102B00003AAD4BAD5CADC701B6010E9492199B0175
:102B1000AC01C501B4010E94B21A20E030E04AE7DE
:102B200054E40E9492194B015C0120E030E040E245
:102B300051E4C301B2010E9492192B013C01A7018B
:102B40009601C701B6010E9492199B01AC01C30115
:102B5000B2010E94B21A9B01AC01C501B4010E94EE
:102B60001F1B0E94911B6B017C018090760290904C
:102B70007702A0907802B0907902A50194010E949A
:102B8000661A2B013C0124E630E040E050E02819B1
:102B900039094A095B0960917A0270917B02809140
:102BA0007C0290917D020E94661A640D751D861D3F
:102BB000971D24E630E040E050E00E94651D209320
:102BC0007A0230937B0240937C0250937D02C09244
:102BD0005F03D0926003E0926103F0926203809100
:102BE0005B0390915C03A0915D03B0915E0329A902
:102BF0003AA94BA95CA9281B390B4A0B5B0B209304
:102C00005703309358034093590350935A038091CC
:102C10005503909156038431910569F429A93AA985
:102C20004BA95CA920935B0330935C0340935D0345
:102C300050935E0303C088329105ACF401969093E3
:102C40005603809355031092570310925803109225
:102C5000590310925A0310925F031092600310926E
:102C60006103109262038091530390915403019782
:102C700009F06EC060915703709158038091590319
:102C800090915A030E9433192FEB3EE04CE95EE32A
:102C90000E941F1B0E94911B60935703709358035F
:102CA0008093590390935A0360915F03709160037E
:102CB00080916103909162030E9433192FEB3EE0F3
:102CC0004CE95EE30E941F1B0E94911B60935F030F
:102CD0007093600380936103909362036091FF049B
:102CE0007091000580910105909102050E943319B1
:102CF0002DED38EE41EF5CE30E9492190E94911B8A
:102D00006093FF0470930005809301059093020582
:102D10006091030570910405809105059091060569
:102D20000E94331926E636E646EE5FE30E949219CA
:102D300020E030E040E052E40E94B31A0E94911B70
:102D40006093030570930405809305059093060531
:102D5000E0915103F0915203E530F10521F010921A
:102D6000500310924F0380910101909102018E1740
:102D70009F0721F0F0930201E0930101E730F10594
:102D800008F01CC1EC5CFF4F0C94841D6EE672E0F1
:102D90008CE792E00E94790811C119A2198A66E6AF
:102DA00072E0CE0181960E94E31819826091570368
:102DB000709158038091590390915A030E943319DE
:102DC000AB01BC0120E030E0CE0101960E943A0246
:102DD000BE016F5F7F4FCE0181960E94AB1D809137
:102DE000530390915403019719F463E672E002C013
:102DF00061E672E0CE0181960E94E31869E572E017
:102E0000CE0141960E94E318198260915F03709190
:102E1000600380916103909162030E94331920E066
:102E200030E040E251E40E941F1BAB01BC0121E0F5
:102E300030E0CE0101960E943A02BE016F5F7F4FE3
:102E4000CE0141960E94AB1D809153039091540393
:102E5000019719F464E572E0A6C060E572E0A3C0D2
:102E600019A2198A69E472E0CE0181960E94E318E2
:102E70001982609103057091040580910505909178
:102E800006050E94331920E030E048EC52E40E942D
:102E90001F1BAB01BC0122E030E0CE0101960E9475
:102EA0003A02BE016F5F7F4FCE0181960E94AB1D3B
:102EB0008091530390915403019719F466E472E0F2
:102EC00002C063E472E0CE0181960E94E3186CE3D5
:102ED00072E0CE0141960E94E31819826091FF04CE
:102EE0007091000580910105909102050E943319AF
:102EF00020E030E048EC52E40E941F1BAB01BC0113
:102F000022E030E0CE0101960E943A02BE016F5FDE
:102F10007F4FCE0141960E94AB1D8091530390914B
:102F20005403019719F467E372E03DC063E372E074
:102F30003AC019A2198A64E272E0CE0181960E9419
:102F4000E3186BE172E02FC019A2198A62E172E006
:102F5000CE0181960E94E31880915303909154030F
:102F6000019719F46FE072E002C06CE072E0CE01EC
:102F700081960E94E31861E072E015C019A2198AD7
:102F800060EF71E0CE0181960E94E31861EE71E07E
:102F90000AC019A2198A61ED71E0CE0181960E94E2
:102FA000E31861EC71E0CE0141960E94E318BE0186
:102FB0006F5E7F4FCE0181960E94AF0883E592E05D
:102FC0000E945D0E0E9439080E94BA0360E0809161
:102FD0005F020E94C30B61E080915F020E94770B49
:102FE0000E944B080E944B080E94390C6B017C0127
:102FF00034E6C30ED11CE11CF11C00E010E00E947D
:10300000390C6C157D058E059F0588F583E592E0EA
:103010000E94570A1816190694F783E592E00E9459
:10302000570A1816190614F010E01AC083E592E04A
:103030000E946E0A182F80912F0381139DC08090EB
:103040000A0390900B03A0900C03B0900D030E9414
:10305000390C86169706A806B90608F48DC0E4CF89
:10306000812F90E0009709F09FC08C01C8CFC80164
:10307000003F110509F47DC0009709F47AC080393A
:10308000910509F467C024F48037910591F071C06F
:10309000803B910539F1803E910509F06AC080912D
:1030A0005103909152038530910509F462C0019655
:1030B00014C08091510390915203069731F481E03E
:1030C00090E090935203809351038091510390912B
:1030D0005203009709F44DC00197909352038093D7
:1030E000510347C080915103909152030397A1F47B
:1030F0008091FB049091FC04A091FD04B091FE042A
:1031000080935B0390935C03A0935D03B0935E0395
:1031100030925203209251038091510390915203B7
:10312000049739F58091530390915403892B39F416
:1031300081E090E0909354038093530304C0109275
:1031400054031092530344E050E0509352034093D1
:1031500051030FC08091510390915203049749F499
:103160006091530380E090E00E94581AE0E0F0E0A4
:1031700009950E94B00E23CB0E94390CDC01CB01D3
:1031800080579E4FAF4FBF4F80930A0390930B031E
:10319000A0930C03B0930D0310932F03103F09F07D
:1031A0005FCF80EF90E061CF803F910509F067CF5E
:1031B000E0CF8BE291E0909354028093530283E539
:1031C00092E00C945D0EFB01DC010D900020E9F70C
:1031D000119705900D920020E1F70895FC010590EC
:1031E0000020E9F7809590958E0F9F1F0895BB27CB
:1031F0004A3031F4992322F4BDE2909581959F4F96
:103200000C940319BB27FB015527AA27880F991F88
:10321000AA1FA41710F0A41B83955051B9F7A05D05
:10322000AA3308F0A95DA193009779F7B111B19382
:103230001192CB010C941C19DC01FC01672F7191D8
:103240007723E1F7329704C07C916D93708362918C
:10325000AE17BF07C8F308950E946E1908F481E005
:103260000895E89409C097FB3EF490958095709579
:1032700061957F4F8F4F9F4F9923A9F0F92F96E9C2
:10328000BB279395F695879577956795B795F11137
:10329000F8CFFAF4BB0F11F460FF1BC06F5F7F4FD4
:1032A0008F4F9F4F16C0882311F096E911C07723E6
:1032B00021F09EE8872F762F05C0662371F096E8EF
:1032C000862F70E060E02AF09A95660F771F881FBE
:1032D000DAF7880F9695879597F90895990F000862
:1032E000550FAA0BE0E8FEEF16161706E807F907D8
:1032F000C0F012161306E407F50798F0621B730B73
:10330000840B950B39F40A2661F0232B242B252BF3
:1033100021F408950A2609F4A140A6958FEF811D96
:10332000811D08950E94A5190C94161A0E94081A6E
:1033300038F00E940F1A20F0952311F00C94FF1919
:103340000C94051A11240C944A1A0E94271A70F33F
:10335000959FC1F3950F50E0551F629FF001729F3A
:10336000BB27F00DB11D639FAA27F00DB11DAA1F49
:10337000649F6627B00DA11D661F829F2227B00D96
:10338000A11D621F739FB00DA11D621F839FA00D21
:10339000611D221F749F3327A00D611D231F849F71
:1033A000600D211D822F762F6A2F11249F575040C8
:1033B0009AF0F1F088234AF0EE0FFF1FBB1F661F43
:1033C000771F881F91505040A9F79E3F510580F00C
:1033D0000C94FF190C944A1A5F3FE4F3983ED4F31F
:1033E000869577956795B795F795E7959F5FC1F7B0
:1033F000FE2B880F911D9695879597F9089597F95B
:103400009F6780E870E060E008959FEF80EC08958A
:1034100000240A94161617061806090608950024B3
:103420000A9412161306140605060895092E03942D
:10343000000C11F4882352F0BB0F40F4BF2B11F4A1
:1034400060FF04C06F5F7F4F8F4F9F4F089557FD00
:103450009058440F551F59F05F3F71F04795880F02
:1034600097FB991F61F09F3F79F087950895121699
:1034700013061406551FF2CF4695F1DF08C0161645
:1034800017061806991FF1CF8695710561050894F6
:103490000895E894BB2766277727CB0197F908950D
:1034A000F999FECF92BD81BDF89A992780B508950C
:1034B000262FF999FECF1FBA92BD81BD20BD0FB650
:1034C000F894FA9AF99A0FBE01960895DB018F934A
:1034D0009F930E94981ABF91AF91A29F800D911D5A
:1034E000A39F900DB29F900D11240895A1E21A2E72
:1034F000AA1BBB1BFD010DC0AA1FBB1FEE1FFF1F98
:10350000A217B307E407F50720F0A21BB30BE40BE7
:10351000F50B661F771F881F991F1A9469F760952E
:103520007095809590959B01AC01BD01CF010895E8
:103530000E94A31AA59F900DB49F900DA49F800D8B
:10354000911D11240895A29FB001B39FC001A39FB4
:10355000700D811D1124911DB29F700D811D1124CC
:10356000911D08955058BB27AA270E94CA1A0C948F
:10357000161A0E94081A38F00E940F1A20F039F427
:103580009F3F19F426F40C94051A0EF4E095E7FB1E
:103590000C94FF19E92F0E94271A58F3BA176207F3
:1035A00073078407950720F079F4A6F50C94491A5F
:1035B0000EF4E0950B2EBA2FA02D0B01B90190014E
:1035C0000C01CA01A0011124FF27591B99F0593F92
:1035D00050F4503E68F11A16F040A22F232F342FDA
:1035E0004427585FF3CF469537952795A795F04028
:1035F0005395C9F77EF41F16BA0B620B730B840B3D
:10360000BAF09150A1F0FF0FBB1F661F771F881FF4
:10361000C2F70EC0BA0F621F731F841F48F487954C
:1036200077956795B795F7959E3F08F0B0CF93953E
:10363000880F08F09927EE0F9795879508950E94B7
:10364000331B0C94161A0E940F1A58F00E94081A85
:1036500040F029F45F3F29F00C94FF1951110C94AC
:103660004A1A0C94051A0E94271A68F39923B1F399
:10367000552391F3951B550BBB27AA276217730798
:10368000840738F09F5F5F4F220F331F441FAA1F2C
:10369000A9F335D00E2E3AF0E0E832D091505040E8
:1036A000E695001CCAF72BD0FE2F29D0660F771F96
:1036B000881FBB1F261737074807AB07B0E809F07C
:1036C000BB0B802DBF01FF2793585F4F3AF09E3F01
:1036D000510578F00C94FF190C944A1A5F3FE4F3FB
:1036E000983ED4F3869577956795B795F7959F5F44
:1036F000C9F7880F911D9695879597F90895E1E090
:10370000660F771F881FBB1F621773078407BA07EE
:1037100020F0621B730B840BBA0BEE1F88F7E09549
:1037200008950E94981B6894B1110C944A1A089548
:103730000E942F1A88F09F5798F0B92F9927B751F8
:10374000B0F0E1F0660F771F881F991F1AF0BA9545
:10375000C9F714C0B13091F00E94491AB1E0089540
:103760000C94491A672F782F8827B85F39F0B93F32
:10377000CCF3869577956795B395D9F73EF49095F8
:103780008095709561957F4F8F4F9F4F08950E9450
:103790006E1908F48FEF0895FA01EE0FFF1F3096AF
:1037A00021053105A1F16115710561F48038BFE390
:1037B0009B0749F168949038810561F08038BFEF2C
:1037C0009B0741F099234AF5FF3FE10531052105AB
:1037D00019F1E8940894E795D901AA2329F4AB2FAD
:1037E000BE2FF85FD0F310C0FF5F70F4A695E0F72E
:1037F000F73950F019F0FF3A38F49F779F930DD0C6
:103800000F9007FC9058089546F00C94051A60E05C
:1038100070E080E89FE308954FE79F775F934F93B1
:103820003F932F930E94C71C2F913F914F915F911F
:103830000E9492190C94241C29F416F00C94FF1980
:103840000C94491A0C94051A0E942F1AA8F3963862
:10385000A0F707F80F92E8942BE33AEA48EB5FE70A
:103860000E94A8190F920F920F924DB75EB70F9258
:103870000E940F1DE6E7F0E00E94561C4F915F91F9
:10388000EF91FF91E595EE1FFF1F49F0FE57E068AD
:103890004427EE0F441FFA95E1F74195550B0E941E
:1038A000891C0F9007FE0C947D1C0895DF93CF9325
:1038B0001F930F93FF92EF92DF927B018C0168942C
:1038C00006C0DA2EEF010E94A519FE01E894A59129
:1038D0002591359145915591A6F3EF010E94CA1AA1
:1038E000FE019701A801DA9469F7DF90EF90FF904D
:1038F0000F911F91CF91DF9108959B01AC0160E082
:1039000070E080E89FE30C941F1B0C94FF190C944B
:10391000431D0E942F1AD8F39923C9F3940F511D08
:10392000A3F39150504094F059F0882332F0660F81
:10393000771F881F91505040C1F79E3F51052CF7CB
:10394000880F911D9695879597F908955F3FACF084
:10395000983E9CF0BB27869577956795B79508F4B8
:10396000B1609395C1F7BB0F58F711F460FFE8CF32
:103970006F5F7F4F8F4F9F4FE3CF0C944A1A16F023
:103980000C94431D0C94051A68940C94FF190E9422
:103990002F1AA8F39923C1F3AEF3DF93CF931F93AC
:1039A0000F93FF92C92FDD2788232AF02197660FF6
:1039B000771F881FDAF720E030E040E85FEB9FE3F5
:1039C000883920F0803E38F021968F770E94B31A14
:1039D000EEE9F0E004C00E94B31AEBECF0E00E94C4
:1039E000561C8B01BE01EC01FB2E6F5771097595BA
:1039F000771F880B990B0E94331928E132E741E3C6
:103A00005FE30E94A519AF2D9801AE01FF900F91C1
:103A10001F91CF91DF910E94CA1A0C94161AFA01D5
:103A2000DC01AA0FBB1F9B01AC01BF5728F4222762
:103A300033274427507820C0B75190F4AB2F00248F
:103A4000469537952795011CA395D2F3002071F078
:103A5000220F331F441FB395DAF30ED00C94B21A21
:103A600061307105A0E88A07B94630F49B01AC01CA
:103A70006627772788279078309621F02083318336
:103A80004283538308959F3F31F0915020F48795EE
:103A900077956795B795880F911D9695879597F9B6
:103AA000089597FB072E16F4009407D077FD09D0F0
:103AB0000E94921D07FC05D03EF4909581959F4F82
:103AC0000895709561957F4F0895052E97FB1EF41C
:103AD00000940E947C1D57FD07D00E94761A07FCB7
:103AE00003D04EF40C947C1D509540953095219553
:103AF0003F4F4F4F5F4F089590958095709561951A
:103B00007F4F8F4F9F4F0895EE0FFF1F0590F49149
:103B1000E02D0994B7FF0C94981A0E94981A821B02
:103B2000930B0895AA1BBB1B51E107C0AA1FBB1F23
:103B3000A617B70710F0A61BB70B881F991F5A9539
:103B4000A9F780959095BC01CD01089581E090E0A2
:103B5000F8940C94B61DFB01DC010D900020E9F7F0
:103B6000119701900D920020E1F7089511E0C6E54C
:103B7000D1E004C0FE010E94841D2196C735D10703
:063B8000C9F7F894FFCF25
:103B860006010000000000AB101809730EF210A425
:103B96000E820E960E00000000020AD209900AA6B6
:103BA60009CA09B609A70900000000930A18099076
:0A3BB6000A560A570A6E0A3E0A007A
:00000001FF
