:100000000C9465010C948D010C948D010C94D60D0B
:100010000C94D60D0C94D60D0C948D010C948D017E
:100020000C948D010C948D010C948D010C948D0118
:100030000C948D010C948D010C948D010C948D0108
:100040000C94520C0C948D010C9482090C945C0954
:100050000C948D010C948D010C948D010C948D01E8
:100060000C949C0C0C948D0133173A179D170618AD
:1000700011182B18361807634236B79BD8A71A39C0
:10008000685618AEBAAB558C1D3CB7CC5763BD6DE6
:10009000EDFD753EF6177231BF000000803F08008D
:1000A0000000BE922449123EABAAAA2ABECDCCCCF7
:1000B0004C3E00000080BEABAAAAAA3E0000000091
:1000C000BF000000803F0000000000084178D3BB63
:1000D0004387D1133D190E3CC3BD4282AD2B3E6810
:1000E000EC8276BED98FE1A93E4C80EFFFBE01C401
:1000F000FF7F3F0000000000000000080002010038
:1001000000030407000000000000000000000000E1
:1001100023002600290000000000250028002B00F5
:10012000040404040404040402020202020203039D
:1001300003030303010204081020408001020408A5
:100140001020010204081020B0460054656D70654F
:1001500072617475726500696E484700507265730C
:10016000737572650066742F7300566172696F0053
:10017000667400416C74697475646500667400523D
:10018000656C2E20416C74697400B0430054656D39
:100190007065726174757265006870610050726597
:1001A0007373757265006D2F7300566172696F000D
:1001B0006D00416C746974756465006D0052656C06
:1001C0002E20416C74697400524354205661726948
:1001D0006F00202020566172696F6D657465720032
:1001E00020524354204A65746920546F6F6C730029
:1001F0005072657373203C20746F206578697400B9
:10020000416C746974756465207A65726F65640009
:1002100050726573733A205550202620444E005387
:1002200061766520616E642072657374617274001A
:100230004368616E67653A20444E0045550055534A
:1002400000556E6974733A202000507265737320F4
:10025000444E00416C746974756465205265736521
:10026000740068506100696E484700507265733AC7
:100270002000B04300B0460054656D703A20006D18
:100280002F730066742F7300566172696F3A2000F5
:100290006D00667400416C7469743A20002020205F
:1002A000566172696F6D6574657200205243542007
:1002B0004A65746920546F6F6C730000000000245D
:1002C0000027002A00002111441911241FBECFEF7E
:1002D000D8E0DEBFCDBF25E0AAE3B1E001C01D92AA
:1002E000A137B207E1F711E0A0E0B1E0ECE5FCE3F3
:1002F00002C005900D92AA33B107D9F711E0C4E608
:10030000D1E004C02197FE010E94EF1DC336D10742
:10031000C9F70E94A5110C94211E0C940000209195
:10032000A90190914D03213208F04AC080918601C5
:100330008111FCCF32E03093860131E030938501AA
:100340003FEF309384011092830120938201A9E84A
:10035000B1E042E651E0FA013E2F341B321718F4A7
:100360003D913193F9CF1092610120916101990F74
:10037000922B9093610190916001913061F4109201
:100380006001909161019093BB009091BC0093FD3E
:10039000F8CF95EC01C095EE9093BC00909186014A
:1003A0009230E1F3909184019F3F79F08091840134
:1003B000803241F080918401803331F084E005C0C7
:1003C00081E003C082E001C083E0109288011092B6
:1003D000A9011092870108950F931F93CF93C82FFF
:1003E00003E512E0F801608F682FC8010E94440BFA
:1003F000F801108E8C2FCF911F910F91089590913D
:1004000086019111FCCF813208F080E291E0909357
:100410008601909385012FEF209384011092830130
:10042000280F2093820190936101909161019E6E4B
:100430009093610190916001913061F4109260019C
:10044000909161019093BB009091BC0093FDF8CF17
:1004500095EC01C095EE9093BC009091860191308F
:10046000E1F390918301981710F480918301A2E643
:10047000B1E020E431E0F9019E2F921B981718F4A7
:100480009D919193F9CF10923F0180933E01089581
:100490002F923F924F925F926F927F928F929F9294
:1004A000AF92BF92CF92DF92EF92FF920F931F9382
:1004B000CF93DF93CDB7DEB72A970FB6F894DEBFA0
:1004C0000FBECDBF8C012A013B013A87298720E06E
:1004D00030E0A901C301B2010E94971987FF05C04E
:1004E00060E070E080E09FEB04C060E070E080E0DE
:1004F0009FE3E12CF12CA985BA85EA16FB0654F49A
:1005000020E030E040E251E40E948A1B2FEFE21A23
:10051000F20AF1CF9B01AC01C301B2010E941E1B84
:100520006B017C0120E030E0A901C301B2010E940F
:10053000971987FF04C0F7FAF094F7F8F094A12C0C
:10054000B12CBDECB983ECECEA83FCECFB832DE32E
:100550002C8320E030E040E251E469817A818B8194
:100560009C810E94FD19962E872E382E292EA701D8
:1005700096010E949719181644F03FEFA31AB30A88
:1005800099828A823B822C82E4CFA114B10429F0A3
:1005900045016FEF861A960A03C092E0892E912CCE
:1005A00020E030E0A901C301B2010E94971987FF42
:1005B00003C07FEF871A970A89859A850196880E6E
:1005C000991E1814190444F081E090E0DC01A81988
:1005D000B909BE83AD8302C01E821D8220E030E0D7
:1005E000A901C301B2010E94971987FF07C08DE2DC
:1005F000F801808388248394912C02C0812C912C53
:10060000A114B10449F4F801E80DF91D80E38083D9
:1006100094012F5F3F4F4901212C312CB101680D0E
:10062000791D78876F832A143B04D1F129813A819F
:100630004B815C81C701B6010E948A1B0E94FC1B92
:100640002B013C016F817885600F711F4AE0C20168
:100650000E946219B201550C880B990B0E949E19D9
:1006600029813A814B815C810E94FD199B01AC017B
:10067000C701B6010E941D1B6B017C0120E030E028
:1006800040E251E469817A818B819C810E948A1BBE
:1006900069837A838B839C833FEF231A330ABECF0F
:1006A0005B0189859A851816190644F4F801E60F4E
:1006B000F71F8EE28083DB0111965D01812C912C66
:1006C000E985FA858E169F064CF520E030E040E281
:1006D00051E4C701B6010E94FD192B013C010E94A3
:1006E000FC1B6B017C01B4016A0D7B1D600F711F47
:1006F0004AE0C6010E946219B601DD0C880B990B15
:100700000E949E199B01AC01C301B2010E941D1BF6
:100710006B017C01BFEF8B1A9B0AD2CFCF01F7FF91
:1007200002C080E090E0A80EB91E2D813E81232BEF
:1007300089F09501F801EA0DFB1D40E26FEFA61A62
:10074000B60A4193C501821B930BAD81BE818A1706
:100750009B07A4F3F801EA0DFB1D1082C8012A963D
:100760000FB6F894DEBF0FBECDBFDF91CF911F91C2
:100770000F91FF90EF90DF90CF90BF90AF909F9040
:100780008F907F906F905F904F903F902F90089543
:100790002F923F924F925F926F927F928F929F9291
:1007A000AF92BF92CF92DF92EF92FF920F931F937F
:1007B000CF93DF93C0903003D0903103E0903203A9
:1007C000F09033030E94460C209108032223E9F0A5
:1007D00060E08EE70E94EC0161E082E90E94EC019A
:1007E00061E083E20E94EC0161E0809108030E94D5
:1007F000EC0180910001882311F0815003C0109218
:10080000080386E08093000170C324EFC20E21E04C
:10081000D21EE11CF11C11E0C616D706E806F90647
:1008200008F010E060E08EE70E94EC0161E08FE9E3
:100830000E94EC01111170C080910903A091860201
:10084000B0918702E82FF0E0EE0FFF1FE851FD4F57
:1008500020813181232B49F48F5F282F30E02A1724
:100860003B0784F31092090302C08093090360914F
:100870000903F6E0E0E026E030E0E12C40E050E063
:1008800070E0CA01860F971F8A179B07A4F500978F
:1008900009F1E394880F991FFC01E853FD4F808113
:1008A0008F718830A1F0813019F4C901039615C009
:1008B000811103C0C901029610C0853019F4C90125
:1008C00004960BC0893019F0C901019606C0C90110
:1008D000059603C0C9012F2F3E2F4F5F5F4F403158
:1008E000510551F08B31910514F0EA9404C0F22FB8
:1008F000E32F9C01C6CFC901C82FC06481E080935B
:100900006B026C2F83E592E00E94440B60E08C2F19
:100910000E94CA0DC82F1DC0E0914E03F0E0EE0FFB
:10092000FF1FE753FD4F8081C82FCF7182958695B9
:100930008770C80FC85F81E080936B026C2F83E5DE
:1009400092E00E94440B60E08C2F0E94CA0DC82FD9
:10095000E12CD1E0D0936B0261E183E592E00E944B
:10096000440B6C2F81E10E94CA0DC82FD0936B02FB
:1009700064EA83E592E00E94440B6C2F84EA0E94B3
:10098000CA0DC82FD0936B0262E083E592E00E940B
:10099000440B6C2F82E00E94CA0DC82FD0936B02CB
:1009A00068E083E592E00E94440B6C2F88E00E948F
:1009B000CA0DC82FD0936B0260E083E592E00E94DD
:1009C000440B10926B026C2F80E00E94CA0DF82E2F
:1009D0001111EAC1C09109036E2C6C0E20918602A0
:1009E00030918702C61551F0772473947C0E709273
:1009F00009030C2F10E00217130754F0809109032C
:100A000090E0821793070CF46CC21092090369C23C
:100A1000CC2309F4C7C1E0913403F0913503099563
:100A2000C295C07F680131E2C30ED11CC601880F98
:100A3000991FFC01EA57FD4F5F0180818F7190E0A3
:100A40008530910509F4BEC0F4F5009709F495C00E
:100A5000019709F0A7C1000F111FF801E851FD4FE0
:100A60000190F081E02D00811181C160D0936B0273
:100A70006C2F83E592E00E94440B6F2D8C2F0E9417
:100A8000CA0DC82F1F79F501208122952695277060
:100A900030E0322F22273295330F307E022B132B7A
:100AA000D0936B02602F83E592E00E94440B6C2F81
:100AB000802F0E94CA0D082F912F9F79F501C081C8
:100AC000C07EC92B74C08830910521F0099709F4C4
:100AD000C2C068C1C860D0936B026C2F83E592E0FE
:100AE0000E94440B6F2D8C2F0E94CA0DC82F000F3F
:100AF000111FF801E851FD4F0190F081E02D808138
:100B00009181A281B3816C017D01FFE9FF22D09325
:100B10006B026C2D83E592E00E94440B6C2F8C2DB0
:100B20000E94CA0DC82F2D2C3E2C4F2C552447FC5B
:100B30005A94D0936B02622D83E592E00E94440B9D
:100B40006C2F822D0E94CA0DC82F1701552437FC27
:100B50005094452CD0936B02622D83E592E00E9465
:100B6000440B6C2F822D0E94CA0D182F9F2D9F7948
:100B7000F501C081C07EC92B62C0000F111FF801B2
:100B8000E851FD4F0190F081E02D1081D0936B0270
:100B90006C2F83E592E00E94440B6F2D8C2F0E94F6
:100BA000CA0D082F1F79F501C081C07EC12BD093DB
:100BB0006B026C2F83E592E00E94440B10926B0253
:100BC000602F47C0C560D0936B026C2F83E592E025
:100BD0000E94440B10926B026F2D8C2F0E94CA0D45
:100BE000F82E000F111FF801E851FD4F0190F08120
:100BF000E02D118102819081F501208122952695B9
:100C00002770213011F0C0E001C0C0E4C92BD0939F
:100C10006B02602F83E592E00E94440B6F2D802FC2
:100C20000E94CA0D082FD0936B02612F83E592E0DA
:100C30000E94440B602F812F0E94CA0D182FD09361
:100C40006B026C2F83E592E00E94440B10926B02C2
:100C5000612F8C2FA4C0C960D0936B026C2F83E5E9
:100C600092E00E94440B6F2D8C2F0E94CA0DC82F5A
:100C7000000F111FF801E851FD4F0190F081E02DA8
:100C800080809180A280B38020E030E0A901C5017E
:100C9000B4010E94321C18161CF4C501B40103C033
:100CA000C501B40190580E94031C8B0180E090E0C4
:100CB0000E949C199B01AC01C501B4010E941D1B3F
:100CC0002AE939E949E15FE30E94FD1920E030E5B6
:100CD00043EC57E40E94FD191B012C0120E030E099
:100CE000A9010E94321C18161CF4C201B10103C0F4
:100CF000C201B10190580E94031C562EF72E812F7D
:100D00008170F601EE0FFF1FEA57FD4F908192951B
:100D100096959770913011F090E001C090E2192FF4
:100D2000182B20E030E0A901C501B4010E949719F9
:100D3000881F8827881F8295880F880F807C182B32
:100D4000D0936B02652D83E592E00E94440B6C2FDB
:100D5000852D0E94CA0DC82FD0936B026F2D83E59D
:100D600092E00E94440B6C2F8F2D0E94CA0DC82F59
:100D7000D0936B02602F83E592E00E94440B6C2FAE
:100D8000802F0E94CA0DC82FD0936B02612F83E57C
:100D900092E00E94440B10926B026C2F812F0E94F4
:100DA000CA0DF82EC72D1ACEC0914E03D0936B02F8
:100DB0006C2F83E592E00E94440B6F2D8C2F0E94D4
:100DC000CA0DB82E0C2F10E06801CC0CDD1C96016A
:100DD00027533D4F4901F9012081922F9F71F8E07F
:100DE0009F9F70011124229526952770E22AD093A7
:100DF0006B026E2D83E592E00E94440B10926B0211
:100E00006B2D8E2D0E94CA0DF82EF601E857FD4F6E
:100E1000D081AD2EB180772473942A2D2D1B30E024
:100E2000F40180818F7190E028173907A4F4F5014F
:100E3000E49070926B026E2D83E592E00E94440B69
:100E400010926B026F2D8E2D0E94CA0DF82EFFEFAF
:100E5000AF1ABF0AE2CF000F111FD801A855BD4F2E
:100E6000DC910D2F11961C91960127533D4F69017E
:100E7000BB24B394202F2D1B30E0F6018081829596
:100E80008695877090E0281739079CF4F801E49064
:100E9000B0926B026E2D83E592E00E94440B10929B
:100EA0006B026F2D8E2D0E94CA0DF82E0F5F1F4F03
:100EB000E1CFCF5FC0934E038C2F90E0209186024C
:100EC000309187028217930714F010924E030E940C
:100ED000460C6093300370933103809332039093F8
:100EE000330361E08F2D0E94EC01E0913403F09117
:100EF0003503099560E08EEF0E94EC01CEE0D3E06F
:100F00001C2F105E61E089910E94EC011C13FACF46
:100F100060E08FEF0E94EC0181E0DF91CF911F91A3
:100F20000F91FF90EF90DF90CF90BF90AF909F9088
:100F30008F907F906F905F904F903F902F9008958B
:100F4000CF93DF93C1E0C093870197E790934D0360
:100F5000109288011092A901682F87E492E00E9404
:100F6000B30A0E948F01C0938701109288011092EA
:100F7000A90182E090E00E94FF0187E492E00E94D4
:100F8000670AD82F80E0C82F87E492E00E94670AA2
:100F9000C82BD92B0E948F01CE01DF91CF910895EC
:100FA000CF93C1E0C093870197E790934D031092D0
:100FB00088011092A901682F87E492E00E94B30A89
:100FC0000E948F01C0938701109288011092A9019D
:100FD00081E090E00E94FF0187E492E00E94670AAE
:100FE000C82F0E948F018C2FCF910895CF92DF924E
:100FF000FF920F931F93CF93DF932091860230913E
:10100000870220313105CCF56B0189010F5F1F4F3D
:10101000F801EE0FFF1FEA57FD4F91838083F9011E
:10102000EE0FFF1FE855FD4F71836083F901EE0F4E
:10103000FF1FE851FD4F11821082220F331FE9017B
:10104000C853DD4F18820E945919982F9F718981CA
:10105000807EF82EF92AC6010E9459198295880FC0
:10106000807E9F2D9F71F92EF82AF98210938702B6
:10107000009386028FEF800F01C08FEFDF91CF9139
:101080001F910F91FF90DF90CF900895CF93DF9342
:1010900083E592E00E946A0EC3E5D2E061E08C85B0
:1010A0000E94D00B61E08C85DF91CF910C94B40944
:1010B0008091700290917102892B31F180913C01F5
:1010C00090913D0122E083359207F1F0009711F0F5
:1010D0000E946A0E80916A028E7F80936A0210924B
:1010E0003B0110923A0183E592E090933D01809399
:1010F0003C01E0916602F091670290818091680264
:10110000892B808381E0089580E008950F931F93D9
:10111000CF93DF938C01EB010E945919AEE0B3E04D
:1011200090E020E2981740F4A8014F5F5F4FF8016C
:1011300004910C938A0101C02C939F5F119690310A
:1011400089F7CE010E945919AEE1B3E090E020E2A8
:10115000981740F4AE014F5F5F4FFE01C491CC93EE
:10116000EA0101C02C939F5F1196903189F7DF91BE
:10117000CF911F910F910895CF93DF93FC010190C0
:101180000020E9F73197E81B20E030E0F0E2A90108
:1011900048575F4F2E1748F4EA01CA57DD4FDC016C
:1011A000A20FB31FAC91A88304C0DA01AA57BD4FA8
:1011B000FC932F5F3F4F2031310549F7FB01019030
:1011C0000020E9F73197E61B80E090E040E29C01C7
:1011D00028563F4F8E1748F4E901CA57DD4FDB010F
:1011E000A80FB91F5C91588304C0D901AA57BD4FFD
:1011F0004C9301968031910551F7DF91CF9108957D
:10120000CF93C82F81E08093870187E780934D03B8
:10121000109288011092A90164EF87E492E00E9485
:10122000B30A6C2F87E492E00E94B30ACF910C942A
:101230008F018EE20E94000965E070E080E090E09E
:101240000E940C0C86EF0C94A007CF92DF92EF92D5
:10125000FF920F931F93CF93DF936C017A018B0161
:10126000C0E0D0E0CE15DF0589F0D8016D918D0189
:10127000D601ED91FC910190F081E02DC601099518
:10128000892B11F47E0102C02196ECCFC701DF91BA
:10129000CF911F910F91FF90EF90DF90CF90089525
:1012A0000E94111E8AEA91E00E94B10E21E0892B72
:1012B00009F420E0822F08951F920F920FB60F922B
:1012C00011242F933F934F935F936F937F938F934B
:1012D0009F93AF93BF93EF93FF938AEA91E00E94AD
:1012E0009710FF91EF91BF91AF919F918F917F9157
:1012F0006F915F914F913F912F910F900FBE0F9083
:101300001F9018951F920F920FB60F9211242F93D2
:101310008F939F93EF93FF93E091BA01F091BB01FC
:101320008081E091C001F091C10182FD12C09081E5
:101330008091C3018F5F8F732091C401821751F098
:10134000E091C301F0E0E655FE4F958F8093C30115
:1013500001C08081FF91EF919F918F912F910F900C
:101360000FBE0F901F90189590E0FC01E850FF4FC2
:101370003491FC01EC5CFE4F2491FC01E05EFE4FD9
:10138000E491EE2309F43BC0332339F1333091F07B
:1013900038F43130A9F0323001F584B58F7D12C0B8
:1013A000373091F03830A1F03430B9F480918000BA
:1013B0008F7D03C0809180008F77809380000DC067
:1013C00084B58F7784BD09C08091B0008F7703C04A
:1013D0008091B0008F7D8093B000F0E0EE0FFF1F92
:1013E000EA5EFE4FA591B4918FB7F894EC9161112C
:1013F00003C020952E2301C02E2B2C938FBF089560
:101400003FB7F89480916D0590916E05A0916F059E
:10141000B091700526B5A89B05C02F3F19F0019625
:10142000A11DB11D3FBFBA2FA92F982F8827820F6A
:10143000911DA11DB11DBC01CD0143E0660F771FB9
:10144000881F991F4A95D1F7089585ED8093BC00B8
:101450008091BC0084FDFCCF1092860108954091DC
:101460004305262F30E0240F311D21323105DCF4F5
:10147000209186012430C9F4FC0180E090E08617B9
:1014800058F4309143052191DC01AF5DBA4FA30FB1
:10149000B11D2C930196F3CF80914305680F6093A3
:1014A000430580E0089581E0089582E0089508955D
:1014B000E0913F0180913E01E81730F4F0E0E05CFC
:1014C000FE4F808190E008958FEF9FEF08959091F7
:1014D0003F0180913E01981750F4E92FF0E0E05C65
:1014E000FE4F208130E09F5F90933F0102C02FEFBD
:1014F0003FEFC901089580913E0190E020913F01A6
:10150000821B91090895CF92DF92EF92FF920F9381
:101510001F93CF93DF937C01262F972F8A01809111
:101520008701882391F0C62FD72F6E01C40ED51ED8
:10153000CC15DD0571F06991D701ED91FC91019019
:10154000F081E02DC7010995F3CF642F822F0E940F
:101550002F0AC801DF91CF911F910F91FF90EF905B
:10156000DF90CF900895CF93DF931F92CDB7DEB772
:101570006983209187012223D1F02091A901203293
:1015800040F021E030E0FC013383228380E090E0F2
:1015900015C080918801E82FF0E0E757FE4F998150
:1015A00090838F5F809388018093A90105C061E0DB
:1015B000CE0101960E942F0A81E090E00F90DF910A
:1015C000CF9108950895DC015196ED91FC915297C9
:1015D000908150968C9180958923808308952091E5
:1015E0003C0130913D012817390771F490913A017F
:1015F00080913B01981741F0E0913A01F0E0EF5EF5
:10160000FA4F808190E008958FEF9FEF089508953D
:1016100020913C0130913D012817390769F48091F0
:101620003B0120913A0190E04096821B910960E1D4
:1016300070E00E94BC1D089580E090E00895209124
:101640003C0130913D0128173907B9F490913A01D6
:1016500080913B01981789F0E0913A01F0E0EF5E4C
:10166000FA4F808120913A0130E02F5F3F4F2F7079
:10167000332720933A0190E008958FEF9FEF08956C
:10168000089580E090E00895CF92DF92EF92FF926C
:101690000F931F93CF93DF93EC0189A19AA1009739
:1016A00029F421E030E03B832A8371C00FB7F8941E
:1016B0008F8D98A1892B91F028E030E090E081E0B7
:1016C000482F462309F09F5F880F21503109C1F749
:1016D000888D81119F5F192F109501C010E0F62EA3
:1016E000CE010E94E30A89A19AA10197F1F788E04F
:1016F000C82ED12CEE24E3948E2D8F2139F0E98968
:10170000FA8990818889892B808303C0CE010E9449
:10171000E30A89A19AA10197F1F7EE0C81E0C81ABA
:10172000D10851F78E89882389F0888D882339F074
:10173000E989FA8990818889892B808303C0CE0149
:101740000E94E30A89A19AA10197F1F78F8D98A1D0
:10175000892B81F010FF07C0E989FA899081888977
:10176000892B808303C0CE010E94E30A8F8D98A14C
:101770000197F1F7E989FA8990818889892B80831B
:101780000FBF8D8D9E8D0197F1F781E090E0DF9185
:10179000CF911F910F91FF90EF90DF90CF90089520
:1017A000CF93DF9390E0FC01EC5CFE4F2491FC01B1
:1017B000E05EFE4F8491882361F190E0880F991FCD
:1017C000FC01E554FD4FC591D491FC01EA5EFE4F4A
:1017D000A591B491611109C09FB7F89488812095B3
:1017E00082238883EC912E230BC0623061F49FB773
:1017F000F8943881822F809583238883EC912E2B57
:101800002C939FBF06C08FB7F894E8812E2B2883B6
:101810008FBFDF91CF9108958F929F92AF92BF9229
:10182000CF92DF92EF92FF926B017C010E94000A3F
:101830004B015C01C114D104E104F104F1F00E94F8
:10184000000ADC01CB0188199909AA09BB09883E65
:101850009340A105B10570F321E0C21AD108E10857
:10186000F10888EE880E83E0981EA11CB11CC114FB
:10187000D104E104F10419F7DDCFFF90EF90DF9080
:10188000CF90BF90AF909F908F9008952FB7F8940E
:101890006091690570916A0580916B0590916C0566
:1018A0002FBF08951F920F920FB60F9211242F93FE
:1018B0003F938F939F93AF93BF93809169059091CE
:1018C0006A05A0916B05B0916C053091680526E022
:1018D000230F2D3720F40296A11DB11D05C029E864
:1018E000230F0396A11DB11D209368058093690500
:1018F00090936A05A0936B05B0936C0580916D057C
:1019000090916E05A0916F05B09170050196A11D93
:10191000B11D80936D0590936E05A0936F05B093F4
:101920007005BF91AF919F918F913F912F910F9033
:101930000FBE0F901F9018951F920F920FB60F9227
:1019400011242F933F934F935F936F937F938F93C4
:101950009F93AF93BF93EF93FF938091B900887FDC
:10196000803609F49CC068F5883209F45BC090F4B5
:10197000803109F454C038F4882309F4F6C0883063
:1019800009F44DC0F6C0883109F44CC0803209F426
:101990005DC0EFC0803409F468C048F4803309F4B6
:1019A00055C0883309F0E5C080938401D8C08035E4
:1019B00009F44FC0883509F45DC0883409F0D9C0F6
:1019C000D6C0883909F4C7C0A8F4883709F467C0BD
:1019D00038F4883609F463C0803709F460C0C9C0A0
:1019E000883809F4B8C0803909F45FC0803809F03C
:1019F000C0C05BC0803B09F486C038F4803A09F46B
:101A000066C0883A09F47FC0B4C0803C09F4A7C01E
:101A1000883C09F4A4C0883B09F48AC0AAC080911C
:101A2000610110C09091830180918201981770F537
:101A3000E091830181E08E0F80938301F0E0EE5905
:101A4000FE4F80818093BB0085EC86C0809384012B
:101A50008EC0E091830181E08E0F8093830180919D
:101A6000BB00F0E0EE59FE4F80839091830180919E
:101A700082016EC0E091830181E08E0F809383012B
:101A80008091BB00F0E0EE59FE4F8083809185018C
:101A900081116DC081E08093600184EA61C083E0C0
:101AA0008093860110926705CFCF809167058032C1
:101AB00008F051C0E091670581E08E0F80936705C3
:101AC0008091BB00F0E0E95BFA4F8083BDCF85ECED
:101AD0008093BC001092860180916705803230F4BB
:101AE000E0916705F0E0E95BFA4F108260916705CD
:101AF00070E0E0914505F091460587E495E0099591
:101B00001092670536C084E08093860110924405E8
:101B100010924305E0914105F091420509958091AD
:101B20004305811105C081E0809343051092210592
:101B3000E091440581E08E0F80934405F0E0EF5D75
:101B4000FA4F80818093BB009091440580914305BA
:101B5000981708F479CF85E88093BC000AC085EC1B
:101B60008093BC001092860104C0109284010E94F0
:101B7000250AFF91EF91BF91AF919F918F917F9136
:101B80006F915F914F913F912F910F900FBE0F90EA
:101B90001F901895862798E027E087FF03C0880FDD
:101BA000822701C0880F9150C1F708951F920F92AC
:101BB0000FB60F9211242F933F934F935F936F9320
:101BC0007F938F939F93AF93BF93CF93DF93EF93C5
:101BD000FF93E0913C01F0913D01309709F467C01B
:101BE000C685D78588812585822309F060C0818DCF
:101BF000928D0197F1F7438D548D68E070E030E0ED
:101C000081E0DA011197F1F79881922311F0382BD6
:101C100003C0982F90953923880F6150710989F777
:101C200080913B0190E001968F70992760913A0175
:101C3000681749F0A0913B01B0E0AF5EBA4F3C930A
:101C400080933B0103C087898160878B86898823C5
:101C5000F1F0CA010197F1F78881282381E090E033
:101C6000A0E0B0E004C0880F991FAA1FBB1F2A95EF
:101C7000D2F740910F055091100560E070E0842B81
:101C8000952BA62BB72B9093100580930F05878D6E
:101C900090A1009711F00197F1F7858D968D01972E
:101CA000F1F7A389B4899C918589892B8C93FF9145
:101CB000EF91DF91CF91BF91AF919F918F917F91E4
:101CC0006F915F914F913F912F910F900FBE0F90A9
:101CD0001F901895E0913C01F0913D01E817F9073C
:101CE00069F4A389B4899C918589809589238C9313
:101CF00010923D0110923C0181E0089580E008952A
:101D0000FC01538D448D252F30E0842F90E0821B01
:101D1000930B541710F0CF96089501970895FC0186
:101D2000918D828D981761F0828DDF01A80FB11D12
:101D30005D968C91928D9F5F9F73928F90E0089536
:101D40008FEF9FEF0895FC01918D828D981731F0F0
:101D5000828DE80FF11D858D90E008958FEF9FEF44
:101D60000895FC01918D228D892F90E0805C9F4F1A
:101D7000821B91098F739927089580E090E0892B49
:101D800029F00E94520981110C94000008953F929D
:101D90004F925F926F927F928F929F92AF92BF927B
:101DA000CF92DF92EF92FF920F931F93CF93DF9327
:101DB000CDB7DEB728970FB6F894DEBF0FBECDBF04
:101DC0000E9419096C01E12CF12C80913603829557
:101DD000880F880F807C8C5C0E94000980913603FC
:101DE000811105C065E070E080E090E012C08130B4
:101DF00029F468E070E080E090E00BC0823029F4C4
:101E00006EE070E080E090E004C06AE170E080E0A5
:101E100090E00E940C0C86EF0E94A0074C01A12CC0
:101E2000B12CBA2CA92C982C882488EF0E94D007BA
:101E3000882A3090360380914B0390914C03A70180
:101E40009601281B390B41095109A0914903B09112
:101E50004A030E94031B6B017C01AFE0F594E794F9
:101E6000D794C794AA95D1F7609143037091440326
:101E7000CB01770FAA0BBB0BBC01CD01BBE0660FFA
:101E8000771F881F991FBA95D1F72091450330918C
:101E900046038901330F220B330BA90198012C0D46
:101EA0003D1D4E1D5F1D0E94D01DC20ED31EE41E9F
:101EB000F51E20EAC21A2FE0D20AE108F108A701B4
:101EC0009601C701B6010E94D11A9B01AC011CE02A
:101ED00055954795379527951A95D1F729833A83D4
:101EE0004B835C830091370310913803A0913B032F
:101EF000B0913C03A70196010E94F51D2B013C0106
:101F00008DE075946794579447948A95D1F7A09182
:101F10003D03B0913E0329813A814B815C810E944F
:101F2000F51DBB2797FDB095AB2F840D951DA61D04
:101F3000B71D0296A11DB11D32E0B595A7959795E5
:101F400087953A95D1F79C01AD0130584F4F5F4FBF
:101F5000A0914703B09148030E94031B2B013C0151
:101F60004FE076946794579447944A95D1F788E068
:101F700090E083199109A501940104C056954795F5
:101F8000379527958A95D2F72D833E834F835887BF
:101F90004801110FAA08BB0852E0880C991CAA1C22
:101FA000BB1C5A95D1F7A0913F03B0914003298102
:101FB0003A814B815C810E94F51D9B01AC016BE075
:101FC00055954795379527956A95D1F729833A8393
:101FD0004B835C83A0913903B0913A03A70196012A
:101FE0000E94F51DDC01CB017BE0B595A795979587
:101FF00087957A95D1F729813A814B815C81820F4F
:10200000931FA41FB51F880D991DAA1DBB1D032C6E
:1020100004C0880F991FAA1FBB1F0A94D2F7BC01E6
:10202000CD016E5F7F4F8F4F9F4F24E030E040E047
:1020300050E00E94D01D8D819E81AF81B885821BAA
:10204000930BA40BB50B9C01AD0180E593ECA0E0D4
:10205000B0E0BC01CD0104C0969587957795679552
:102060003A94D2F70E94D11A97FD0BC0660F771FE2
:10207000881F991FA30192010E94E11A69017A0148
:102080000AC0A30192010E94E11A69017A01CC0CF5
:10209000DD1CEE1CFF1C9927F7FC9A958F2D7E2DD9
:1020A0006D2D9B01AC010E94D11A9B01AC01AEEDDC
:1020B000BBE00E94031B4C01BB2497FCB094AB2CEB
:1020C000A3E4B3EEA70196010E94F81DBB2797FD7C
:1020D000B095AB2F880D991DAA1DBB1D8153914F43
:1020E000AF4FBF4F44E0B595A795979587954A9513
:1020F000D1F7BC01CD016C0D7D1D8E1D9F1D289655
:102100000FB6F894DEBF0FBECDBFDF91CF911F9108
:102110000F91FF90EF90DF90CF90BF90AF909F9086
:102120008F907F906F905F904F903F900895FC014B
:10213000848DDF01A80FB11DA35ABF4F2C91848D50
:1021400090E001968F739927848FA689B7892C9385
:10215000A089B1898C9180648C93938D848D981320
:1021600006C00288F389E02D80818F7D80830895E9
:10217000EF92FF920F931F93CF93DF93EC0181E0D7
:10218000888F9B8D8C8D981305C0E889F989808193
:1021900085FD24C0F62E0B8D10E00F5F1F4F0F73CF
:1021A0001127E02E8C8DE8120CC00FB607FCFACF79
:1021B000E889F989808185FFF5CFCE010E949710CB
:1021C000F1CF8B8DFE01E80FF11DE35AFF4FF08236
:1021D0000B8FEA89FB898081806207C0EE89FF89C5
:1021E0006083E889F98980818064808381E090E060
:1021F000DF91CF911F910F91FF90EF900895CF93B2
:10220000DF93EC01888D8823C9F0EA89FB898081FE
:1022100085FD05C0A889B9898C9186FD0FC00FB6D0
:1022200007FCF5CF808185FFF2CFA889B9898C9111
:1022300085FFEDCFCE010E949710E7CFDF91CF91C0
:102240000895EAEAF1E01382128288EE93E0A0E0BA
:10225000B0E084839583A683B78327E031E03183A0
:10226000208325EC30E03587248724EC30E0378765
:10227000268720EC30E0318B208B21EC30E0338B53
:10228000228B22EC30E0358B248B26EC30E0378B30
:10229000268B118E128E138E148EE7E4F2E01382D9
:1022A000128284839583A683B78329E131E0318349
:1022B0002083E3E5F2E01382128284839583A68370
:1022C000B7838BE291E091838083AAE6B2E08C91A0
:1022D0008E7F8C93128E118E148E138E168E158E09
:1022E00012A211A210920A0310920B0310920C0377
:1022F00010920D031092080310928702109286022A
:102300001092090382EE9AE0909335038093340390
:10231000EEE7F2E082E390E0A0E0B0E0808391831A
:10232000A283B3831482158216821782E6E7F2E055
:1023300080E590E0A0E0B0E080839183A283B38346
:1023400014821582168217820895CF93DF93CDB73A
:10235000DEB7C454D1090FB6F894DEBF0FBECDBFAF
:10236000789484B5826084BD84B5816084BD85B570
:10237000826085BD85B5816085BD80916E0081607C
:1023800080936E0010928100809181008260809322
:102390008100809181008160809381008091800024
:1023A0008160809380008091B10084608093B1004F
:1023B0008091B00081608093B00080917A00846049
:1023C00080937A0080917A00826080937A00809175
:1023D0007A008E7F80937A0080917A008068809363
:1023E0007A001092C10061E08DE00E94D00B61E0A4
:1023F0008DE00E94B40961E083E00E94D00B60E0B0
:1024000083E00E94B409809151039091520390930C
:1024100002018093010162ED71E080EE91E00E9483
:10242000860888EC91E0909389028093880210924C
:10243000A9021092A8021092E9021092E8021092EA
:10244000C80289E08093C90281E090E090938702FE
:102450008093860261E083E00E94B40961E083E03A
:102460000E94D00B87E3E82E81E0F82EF7018491DB
:102470008093630203E211E0F801849190E0880FF9
:10248000991F8A5E9E4FFC0125913491309365021D
:102490002093640260E083E00E94D00B61E083E05F
:1024A0000E94B40983E080935F02F701E490E09218
:1024B0006002F8010491E02FF0E0EE0FFF1FE45FEF
:1024C000FE4F85919491909362028093610281E026
:1024D0008093690287EC90E0909375028093740278
:1024E00022E530E030936D0220936C0225EC30E061
:1024F00030936F0220936E024FE152E050937102CD
:10250000409370023093730220937202209168000E
:102510002460209368002DE630E03093670220931A
:10252000660228E0209368020197F1F70E9458089C
:102530000E94460880E090E00E94BB1A90E09093D1
:102540005403809353038E5F9109029720F41092F5
:102550005403109253038091530390915403892B99
:1025600009F069C06BEB71E08DEB91E00E94F6071A
:10257000803188F490E0FC01EE0FFF1FE851FD4F21
:102580002BE533E031832083880F991FFC01E8534A
:10259000FD4F88E0808360EB71E082EB91E00E9468
:1025A000F607803188F490E0FC01EE0FFF1FE85140
:1025B000FD4F27E533E031832083880F991FFC010D
:1025C000E853FD4F88E0808366EA71E08AEA91E093
:1025D0000E94F607803188F490E0FC01EE0FFF1FA7
:1025E000E851FD4F23E633E031832083880F991FA4
:1025F000FC01E853FD4F88E2808369E971E08DE9D1
:1026000091E00E94F607803188F490E0FC01EE0F23
:10261000FF1FE851FD4F23E035E031832083880F11
:10262000991FFC01E853FD4F88E480836AE871E05C
:102630008DE891E068C06CE771E08FE791E00E945F
:10264000F607803188F490E0FC01EE0FFF1FE8519F
:10265000FD4F2BE533E031832083880F991FFC0168
:10266000E853FD4F88E0808360E771E083E791E005
:102670000E94F607803188F490E0FC01EE0FFF1F06
:10268000E851FD4F27E533E031832083880F991F00
:10269000FC01E853FD4F88E0808365E671E08AE63F
:1026A00091E00E94F607803188F490E0FC01EE0F83
:1026B000FF1FE851FD4F23E633E031832083880F6D
:1026C000991FFC01E853FD4F88E2808367E571E0C4
:1026D0008CE591E00E94F607803188F490E0FC01DF
:1026E000EE0FFF1FE851FD4F23E035E031832083DB
:1026F000880F991FFC01E853FD4F88E4808368E44C
:1027000071E08BE491E00E94F607803188F490E05C
:10271000FC01EE0FFF1FE851FD4F27E035E031834C
:102720002083880F991FFC01E853FD4F88E48083C4
:1027300083E08093360310923F0110923E01109285
:1027400088011092A9011092860181E08093850191
:102750001092600161E082E10E94B40961E083E1CE
:102760000E94B4098091B9008E7F8093B900809156
:10277000B9008D7F8093B90080E28093B80085E432
:102780008093BC0080ED0E94D007853509F04DC0D4
:102790008AEA0E94A00790933803809337038CEA5B
:1027A0000E94A00790933A03809339038EEA0E9417
:1027B000A00790933C0380933B0380EB0E94A0070B
:1027C000909348038093470382EB0E94A007909365
:1027D0004A038093490384EB0E94A00790934C0323
:1027E00080934B0386EB0E94A00790933E03809357
:1027F0003D0388EB0E94A0079093400380933F0322
:102800008AEB0E94A00790934203809341038CEBD4
:102810000E94A00790934403809343038EEB0E9491
:10282000A00790934603809345030E94C80360E08D
:102830008DE00E94B40946E0242E312C0E94C70E80
:102840000E949E1920E836EE45EC57E40E948A1B50
:1028500021E03EED42E45EE30E94371C9B01AC01A7
:1028600060E070E080E89FE30E941D1B20E03AE2F8
:102870004DE257E40E94FD190E94FC1B6B017C0194
:1028800060930B0570930C0580930D0590930E05D6
:102890000E941909AC0160E070E080914B039091B7
:1028A0004C039A01AB01281B390B41095109A09136
:1028B0004903B0914A030E94031B4B015C018FE066
:1028C000B594A794979487948A95D1F76091430320
:1028D00070914403CB01770FAA0BBB0BBC01CD0158
:1028E0002BE0660F771F881F991F2A95D1F720913B
:1028F0004503309146038901330F220B330BA901A5
:102900009801280D391D4A1D5B1D0E94D01DD5015F
:10291000C401820F931FA41FB51F0896A11DB11DEE
:10292000BC01CD0134E095958795779567953A95EB
:10293000D1F70E949E1920E030E040E251E40E946D
:102940008A1B20E030E048EC52E40E94FD190E940E
:10295000FC1B60930705709308058093090590930D
:102960000A050E94C70E60930305709304058093C7
:1029700005059093060580907E0290907F02A090BE
:102980008002B0908102A5019401C701B6010E94A6
:10299000D11A6B017C0124E630E040E050E02819B8
:1029A00039094A095B096091820270918302809122
:1029B0008402909185020E94D11A6C0D7D1D8E1D9E
:1029C0009F1D24E630E040E050E00E94D01D20939F
:1029D00082023093830240938402509385020E94C6
:1029E000460C0E949C196B017C012091820230915F
:1029F0008302409184025091850229AB3AAB4BABE4
:102A00005CAB2093FF043093000540930105509385
:102A10000205E3E3F4E0A7E6B3E044815581668173
:102A20007781419351936193719314964D915D9188
:102A30006D917C9117974D935D936D937D9334E0E9
:102A4000E736F30751F7AAE0B0E029A93AA94BA964
:102A50005CA90E94031B0E949E19609367047093F7
:102A600068048093690490936A04C0929B03D09297
:102A70009C03E0929D03F0929E03809173039091DA
:102A80007403A0917503B091760325968CAF9DAF2A
:102A9000AEAFBFAF259700E010E0412C512C3201C2
:102AA00049AE5AAE6BAE7CAE730162014DAA5EAA0E
:102AB0006FAA78AEF801E959FC4F25962CAD3DADD3
:102AC0004EAD5FAD259764857585868597850E9497
:102AD0001D1B4B015C01F801ED5CFB4F2485358526
:102AE0004685578521962CAF3DAF4EAF5FAF2197FE
:102AF0000E94FD199B01AC016DA97EA98FA998AD1B
:102B00000E941E1B6DAB7EAB8FAB98AFA5019401ED
:102B1000C701B6010E941E1B6B017C0121962CADE2
:102B20003DAD4EAD5FAD219769AD7AAD8BAD9CAD3E
:102B30000E941E1B69AF7AAF8BAF9CAFA5019401B9
:102B4000C501B4010E94FD199B01AC01C301B20192
:102B50000E941E1B2B013C010C5F1F4F0832110508
:102B600009F0A8CF20E030E040E251E46DA97EA951
:102B70008FA998AD0E94FD194B015C0129AD3AADBA
:102B80004BAD5CADC701B6010E94FD199B01AC01C4
:102B9000C501B4010E941D1B20E030E04AE754E467
:102BA0000E94FD194B015C0120E030E040E251E45D
:102BB000C301B2010E94FD192B013C01A70196013E
:102BC000C701B6010E94FD199B01AC01C301B2010E
:102BD0000E941D1B9B01AC01C501B4010E948A1B10
:102BE0000E94FC1B6B017C01809076029090770222
:102BF000A0907802B0907902A50194010E94D11AA8
:102C00002B013C0124E630E040E050E0281939096E
:102C10004A095B0960917A0270917B0280917C0283
:102C200090917D020E94D11A640D751D861D971D1D
:102C300024E630E040E050E00E94D01D20937A026C
:102C400030937B0240937C0250937D02C0926303D9
:102C5000D0926403E0926503F092660380915F0373
:102C600090916003A0916103B091620329A93AA9F0
:102C70004BA95CA9281B390B4A0B5B0B20935B0308
:102C800030935C0340935D0350935E0389A99AA936
:102C9000ABA9BCA98093570390935803A093590301
:102CA000B0935A0380915503909156038431910556
:102CB00069F429A93AA94BA95CA920935F03309331
:102CC0006003409361035093620303C0883291050F
:102CD000ECF40196909356038093550310925B0396
:102CE00010925C0310925D0310925E0310925703E2
:102CF000109258031092590310925A0310926303D2
:102D0000109264031092650310926603809153033E
:102D100090915403019709F088C060915B03709112
:102D20005C0380915D0390915E030E949E192FEBDE
:102D30003EE04CE95EE30E948A1B0E94FC1B60930C
:102D40005B0370935C0380935D0390935E036091DB
:102D50005703709158038091590390915A030E9430
:102D60009E192FEB3EE04CE95EE30E948A1B0E9415
:102D7000FC1B6093570370935803809359039093FF
:102D80005A0360916303709164038091650390918D
:102D900066030E949E192FEB3EE04CE95EE30E9421
:102DA0008A1B0E94FC1B60936303709364038093EF
:102DB000650390936603609103057091040580910B
:102DC0000505909106050E949E192DED38EE41EF04
:102DD0005CE30E94FD190E94FC1B60930305709345
:102DE0000405809305059093060560910705709191
:102DF00008058091090590910A050E949E1926E612
:102E000036E646EE5FE30E94FD1920E030E040E048
:102E100052E40E941E1B0E94FC1B609307057093E6
:102E200008058093090590930A05E0915103F091FC
:102E30005203E530F10521F01092500310924F0338
:102E400080910101909102018E179F0721F0F0936C
:102E50000201E0930101E730F10508F01CC1EC5CD0
:102E6000FF4F0C94EF1D6DE972E08BEA92E00E9437
:102E7000860811C119A2198A65E972E0CE0181960E
:102E80000E944E19198260915B0370915C038091DE
:102E90005D0390915E030E949E19AB01BC0120E08E
:102EA00030E0CE0101960E944802BE016F5F7F4F65
:102EB000CE0181960E94161E809153039091540377
:102EC000019719F462E972E002C060E972E0CE0194
:102ED00081960E944E1968E872E0CE0141960E94E8
:102EE0004E191982609163037091640380916503A8
:102EF000909166030E949E1920E030E040E251E488
:102F00000E948A1BAB01BC0121E030E0CE0101969A
:102F10000E944802BE016F5F7F4FCE0141960E9422
:102F2000161E8091530390915403019719F463E89E
:102F300072E0A6C06FE772E0A3C019A2198A68E721
:102F400072E0CE0181960E944E19198260910705A8
:102F5000709108058091090590910A050E949E19BB
:102F600020E030E048EC52E40E948A1BAB01BC0137
:102F700022E030E0CE0101960E944802BE016F5F60
:102F80007F4FCE0181960E94161E8091530390912F
:102F90005403019719F465E772E002C062E772E03A
:102FA000CE0181960E944E196BE672E0CE014196E9
:102FB0000E944E1919826091030570910405809159
:102FC0000505909106050E949E1920E030E048EC2E
:102FD00052E40E948A1BAB01BC0121E030E0CE012B
:102FE00001960E944802BE016F5F7F4FCE0141965D
:102FF0000E94161E8091530390915403019719F477
:1030000066E672E03DC062E672E03AC019A2198A33
:1030100063E572E0CE0181960E944E196AE472E087
:103020002FC019A2198A61E472E0CE0181960E9434
:103030004E198091530390915403019719F46EE354
:1030400072E002C06BE372E0CE0181960E944E19DD
:1030500060E372E015C019A2198A6FE172E0CE0137
:1030600081960E944E1960E172E00AC019A2198A85
:1030700060E072E0CE0181960E944E1960EF71E02F
:10308000CE0141960E944E19BE016F5E7F4FCE0168
:1030900081960E94BC0883E592E00E946A0E0E941D
:1030A00046080E94C80360E080915F020E94D00B36
:1030B00061E080915F020E94B4090E9458080E945A
:1030C00058080E94460C6B017C0134E6C30ED11CEB
:1030D000E11CF11C00E010E00E94460C6C157D051F
:1030E0008E059F0578F583E592E00E94080B18167F
:1030F000190694F783E592E00E94080B181619064A
:1031000014F000E01AC083E592E00E941F0B082F24
:1031100080912F0380139BC080900A0390900B0333
:10312000A0900C03B0900D030E94460C86169706E3
:10313000A806B90608F48BC0E4CF10E0011511050C
:1031400059F29DC0003F110509F47EC0011511051B
:1031500009F47AC00039110509F467C024F4003776
:10316000110591F071C0003B110539F1003E1105C8
:1031700009F06AC080915103909152038530910506
:1031800009F462C0019614C08091510390915203DA
:10319000069731F481E090E09093520380935103BD
:1031A0008091510390915203009709F44DC001970B
:1031B000909352038093510347C0809151039091A3
:1031C00052030397A1F48091FF0490910005A09110
:1031D0000105B091020580935F0390936003A09373
:1031E0006103B093620330925203209251038091A5
:1031F000510390915203049739F5809153039091B4
:103200005403892B39F481E090E090935403809328
:10321000530304C0109254031092530344E050E04F
:1032200050935203409351030FC0809151039091EA
:103230005203059749F46091530380E090E00E94A7
:10324000C31AE0E0F0E009950E94BD0EF7CA0E94A3
:10325000460CDC01CB0180579E4FAF4FBF4F809390
:103260000A0390930B03A0930C03B0930D030093F8
:103270002F03003F09F061CF00EF10E02DCF003F9A
:10328000110509F067CFE0CF8BE291E090935402F3
:103290008093530283E592E00C946A0EFB01DC01FB
:1032A0000D900020E9F7119705900D920020E1F7AD
:1032B0000895FC0105900020E9F7809590958E0F08
:1032C0009F1F0895BB274A3031F4992322F4BDE2B1
:1032D000909581959F4F0C946E19BB27FB01552744
:1032E000AA27880F991FAA1FA41710F0A41B839563
:1032F0005051B9F7A05DAA3308F0A95DA1930097DA
:1033000079F7B111B1931192CB010C948719DC01BB
:10331000FC01672F71917723E1F7329704C07C910C
:103320006D9370836291AE17BF07C8F308950E9432
:10333000D91908F481E00895E89409C097FB3EF498
:1033400090958095709561957F4F8F4F9F4F9923F2
:10335000A9F0F92F96E9BB279395F6958795779570
:103360006795B795F111F8CFFAF4BB0F11F460FF30
:103370001BC06F5F7F4F8F4F9F4F16C0882311F088
:1033800096E911C0772321F09EE8872F762F05C09C
:10339000662371F096E8862F70E060E02AF09A9537
:1033A000660F771F881FDAF7880F9695879597F92C
:1033B0000895990F0008550FAA0BE0E8FEEF1616C6
:1033C0001706E807F907C0F012161306E407F50719
:1033D00098F0621B730B840B950B39F40A2661F08D
:1033E000232B242B252B21F408950A2609F4A14030
:1033F000A6958FEF811D811D08950E94101A0C94CF
:10340000811A0E94731A38F00E947A1A20F09523CC
:1034100011F00C946A1A0C94701A11240C94B51AB9
:103420000E94921A70F3959FC1F3950F50E0551FBB
:10343000629FF001729FBB27F00DB11D639FAA2709
:10344000F00DB11DAA1F649F6627B00DA11D661F58
:10345000829F2227B00DA11D621F739FB00DA11D79
:10346000621F839FA00D611D221F749F3327A00D33
:10347000611D231F849F600D211D822F762F6A2FCF
:1034800011249F5750409AF0F1F088234AF0EE0F34
:10349000FF1FBB1F661F771F881F91505040A9F761
:1034A0009E3F510580F00C946A1A0C94B51A5F3F48
:1034B000E4F3983ED4F3869577956795B795F7959D
:1034C000E7959F5FC1F7FE2B880F911D9695879515
:1034D00097F9089597F99F6780E870E060E0089594
:1034E0009FEF80EC089500240A941616170618061C
:1034F0000906089500240A941216130614060506F8
:103500000895092E0394000C11F4882352F0BB0F88
:1035100040F4BF2B11F460FF04C06F5F7F4F8F4FEB
:103520009F4F089557FD9058440F551F59F05F3F26
:1035300071F04795880F97FB991F61F09F3F79F0D5
:1035400087950895121613061406551FF2CF469557
:10355000F1DF08C0161617061806991FF1CF8695D9
:103560007105610508940895E894BB2766277727BD
:10357000CB0197F90895F999FECF92BD81BDF89AD4
:10358000992780B50895262FF999FECF1FBA92BDCD
:1035900081BD20BD0FB6F894FA9AF99A0FBE019634
:1035A0000895DB018F939F930E94031BBF91AF91FE
:1035B000A29F800D911DA39F900DB29F900D11248D
:1035C0000895A1E21A2EAA1BBB1BFD010DC0AA1F64
:1035D000BB1FEE1FFF1FA217B307E407F50720F07C
:1035E000A21BB30BE40BF50B661F771F881F991FF7
:1035F0001A9469F760957095809590959B01AC0140
:10360000BD01CF0108950E940E1BA59F900DB49F90
:10361000900DA49F800D911D11240895A29FB001CB
:10362000B39FC001A39F700D811D1124911DB29FF6
:10363000700D811D1124911D08955058BB27AA2794
:103640000E94351B0C94811A0E94731A38F00E9454
:103650007A1A20F039F49F3F19F426F40C94701A6A
:103660000EF4E095E7FB0C946A1AE92F0E94921A77
:1036700058F3BA17620773078407950720F079F4A7
:10368000A6F50C94B41A0EF4E0950B2EBA2FA02DCB
:103690000B01B90190010C01CA01A0011124FF27FF
:1036A000591B99F0593F50F4503E68F11A16F040FA
:1036B000A22F232F342F4427585FF3CF46953795F9
:1036C0002795A795F0405395C9F77EF41F16BA0BBE
:1036D000620B730B840BBAF09150A1F0FF0FBB1F6C
:1036E000661F771F881FC2F70EC0BA0F621F731FB5
:1036F000841F48F4879577956795B795F7959E3F12
:1037000008F0B0CF9395880F08F09927EE0F9795A2
:10371000879508950E949E1B0C94811A0E947A1A24
:1037200058F00E94731A40F029F45F3F29F00C947E
:103730006A1A51110C94B51A0C94701A0E94921ABC
:1037400068F39923B1F3552391F3951B550BBB27D0
:10375000AA2762177307840738F09F5F5F4F220F15
:10376000331F441FAA1FA9F335D00E2E3AF0E0E80C
:1037700032D091505040E695001CCAF72BD0FE2F56
:1037800029D0660F771F881FBB1F261737074807EA
:10379000AB07B0E809F0BB0B802DBF01FF279358A2
:1037A0005F4F3AF09E3F510578F00C946A1A0C94E2
:1037B000B51A5F3FE4F3983ED4F386957795679505
:1037C000B795F7959F5FC9F7880F911D96958795D7
:1037D00097F90895E1E0660F771F881FBB1F6217F6
:1037E00073078407BA0720F0621B730B840BBA0BB4
:1037F000EE1F88F7E09508950E94031C6894B111AC
:103800000C94B51A08950E949A1A88F09F5798F060
:10381000B92F9927B751B0F0E1F0660F771F881FD5
:10382000991F1AF0BA95C9F714C0B13091F00E94EF
:10383000B41AB1E008950C94B41A672F782F882732
:10384000B85F39F0B93FCCF3869577956795B39516
:10385000D9F73EF490958095709561957F4F8F4F85
:103860009F4F08950E94D91908F48FEF0895FA0127
:10387000EE0FFF1F309621053105A1F1611571058D
:1038800061F48038BFE39B0749F168949038810563
:1038900061F08038BFEF9B0741F099234AF5FF3F65
:1038A000E1053105210519F1E8940894E795D9015E
:1038B000AA2329F4AB2FBE2FF85FD0F310C0FF5F0F
:1038C00070F4A695E0F7F73950F019F0FF3A38F4A4
:1038D0009F779F930DD00F9007FC9058089546F066
:1038E0000C94701A60E070E080E89FE308954FE761
:1038F0009F775F934F933F932F930E94321D2F9199
:103900003F914F915F910E94FD190C948F1C29F4F7
:1039100016F00C946A1A0C94B41A0C94701A0E9443
:103920009A1AA8F39638A0F707F80F92E8942BE3B9
:103930003AEA48EB5FE70E94131A0F920F920F9238
:103940004DB75EB70F920E947A1DE6E7F0E00E9445
:10395000C11C4F915F91EF91FF91E595EE1FFF1F05
:1039600049F0FE57E0684427EE0F441FFA95E1F74F
:103970004195550B0E94F41C0F9007FE0C94E81C17
:103980000895DF93CF931F930F93FF92EF92DF92EF
:103990007B018C01689406C0DA2EEF010E94101A98
:1039A000FE01E894A5912591359145915591A6F395
:1039B000EF010E94351BFE019701A801DA9469F717
:1039C000DF90EF90FF900F911F91CF91DF910895BD
:1039D0009B01AC0160E070E080E89FE30C948A1BDF
:1039E0000C946A1A0C94AE1D0E949A1AD8F399236B
:1039F000C9F3940F511DA3F39150504094F059F026
:103A0000882332F0660F771F881F91505040C1F70E
:103A10009E3F51052CF7880F911D9695879597F934
:103A200008955F3FACF0983E9CF0BB278695779554
:103A30006795B79508F4B1609395C1F7BB0F58F738
:103A400011F460FFE8CF6F5F7F4F8F4F9F4FE3CF41
:103A50000C94B51A16F00C94AE1D0C94701A689460
:103A60000C946A1A0E949A1AA8F39923C1F3AEF330
:103A7000DF93CF931F930F93FF92C92FDD278823E6
:103A80002AF02197660F771F881FDAF720E030E0D1
:103A900040E85FEB9FE3883920F0803E38F02196C4
:103AA0008F770E941E1BEEE9F0E004C00E941E1BEF
:103AB000EBECF0E00E94C11C8B01BE01EC01FB2E7F
:103AC0006F5771097595771F880B990B0E949E1986
:103AD00028E132E741E35FE30E94101AAF2D98011D
:103AE000AE01FF900F911F91CF91DF910E94351B86
:103AF0000C94811AFA01DC01AA0FBB1F9B01AC01D7
:103B0000BF5728F4222733274427507820C0B751C5
:103B100090F4AB2F0024469537952795011CA3956B
:103B2000D2F3002071F0220F331F441FB395DAF354
:103B30000ED00C941D1B61307105A0E88A07B946B0
:103B400030F49B01AC016627772788279078309660
:103B500021F0208331834283538308959F3F31F0C6
:103B6000915020F4879577956795B795880F911DAB
:103B70009695879597F9089597FB072E16F400946C
:103B800007D077FD09D00E94FD1D07FC05D03EF44B
:103B9000909581959F4F0895709561957F4F0895F9
:103BA000052E97FB1EF400940E94E71D57FD07D0D9
:103BB0000E94E11A07FC03D04EF40C94E71D5095C7
:103BC0004095309521953F4F4F4F5F4F0895909509
:103BD0008095709561957F4F8F4F9F4F0895EE0FA1
:103BE000FF1F0590F491E02D0994B7FF0C94031B7F
:103BF0000E94031B821B930B0895AA1BBB1B51E160
:103C000007C0AA1FBB1FA617B70710F0A61BB70B4C
:103C1000881F991F5A95A9F780959095BC01CD01F1
:103C2000089581E090E0F8940C94211EFB01DC01E2
:103C30000D900020E9F7119701900D920020E1F717
:103C4000089511E0C4E6D1E004C0FE010E94EF1D1A
:0C3C50002196C536D107C9F7F894FFCFC4
:103C5C0006010000000000B8102509800EFF10B10D
:103C6C000E8F0EA30E00000000B30A830A410B57FF
:103C7C000A7B0A670A580A00000000440B25094118
:0A3C8C000B070B080B1F0BEF0A00DB
:00000001FF
